00COTAHIST.2016BOVESPA 20160126                                                                                                                                                                                                                      
012016012602AAPL34      010APPLE       DRN          R$  000000000406800000000041110000000004045000000000406200000000041110000000004045000000000412000009000000000000062400000000000253522600000000000000009999123100000010000000000000BRAAPLBDR004115
012016012696AAPL34F     020APPLE       DRN          R$  000000000410000000000041000000000004045000000000407700000000040890000000004045000000000000000003000000000000000113000000000000460726000000000000009999123100000010000000000000BRAAPLBDR004115
012016012610ABCB2       010ABC BRASIL  DIR PRE N2   R$  000000000008000000000000840000000000066000000000007900000000000760000000000065000000000007500020000000000000024300000000000001925300000000000000009999123100000010000000000000BRABCBD08PR4124
012016012696ABCB2F      020ABC BRASIL  DIR PRE N2   R$  000000000007900000000000910000000000065000000000008000000000000910000000000062000000000008000013000000000000000449000000000000036060000000000000009999123100000010000000000000BRABCBD08PR4124
012016012602ABCB4       010ABC BRASIL  PN      N2   R$  000000000080000000000008000000000000775000000000078100000000007830000000000783000000000078600657000000000000234300000000000183188300000000000000009999123100000010000000000000BRABCBACNPR4125
012016012696ABCB4F      020ABC BRASIL  PN      N2   R$  000000000078100000000007810000000000778000000000077800000000007780000000000778000000000080100007000000000000000181000000000000140989000000000000009999123100000010000000000000BRABCBACNPR4125
012016012612ABCP11      010FII ABC IMOBCI           R$  000000000094000000000009400000000000911000000000093300000000009120000000000912000000000094000006000000000000000105000000000000098067000000000000009999123100000010000000000000BRABCPCTF000243
012016012602ABEV3       010AMBEV S/A   ON           R$  000000000167000000000016890000000001655000000000167200000000016840000000001676000000000168434870000000000013892700000000023239100500000000000000009999123100000010000000000000BRABEVACNOR1111
012016012696ABEV3F      020AMBEV S/A   ON           R$  000000000168400000000016890000000001655000000000167300000000016890000000001671000000000168900236000000000000005800000000000009706460000000000000009999123100000010000000000000BRABEVACNOR1111
012016012662ABEV3T      030AMBEV S/A   ON        016R$  000000000168500000000016860000000001685000000000168500000000016860000000000000000000000000000002000000000000007000000000000011800630000000000000009999123100000010000000000000BRABEVACNOR1111
012016012678ABEVB16     070ABEV  FM    ON        000R$  000000000010400000000001040000000000081000000000009500000000000990000000000001000000000000000026000000000000120100000000000011499300000000000159802016021500000010000000000000BRABEVACNOR1110
012016012678ABEVB17     070ABEVE       ON        000R$  000000000005500000000000550000000000034000000000004000000000000420000000000024000000000007000025000000000000024700000000000001004300000000000167302016021500000010000000000000BRABEVACNOR1109
012016012678ABEVB18     070ABEVE       ON        000R$  000000000001200000000000130000000000007000000000000900000000000090000000000004000000000000900027000000000000062100000000000000577400000000000177302016021500000010000000000000BRABEVACNOR1110
012016012678ABEVB46     070ABEV  FM    ON        000R$  000000000006500000000000650000000000047000000000005900000000000600000000000000000000000008800018000000000000093900000000000005611600000000000164802016021500000010000000000000BRABEVACNOR1111
012016012678ABEVB47     070ABEV  FM    ON        000R$  000000000003600000000000360000000000025000000000003200000000000270000000000000000000000003900012000000000000032100000000000001044800000000000169802016021500000010000000000000BRABEVACNOR1107
012016012678ABEVB48     070ABEV  FM    ON        000R$  000000000000700000000000070000000000006000000000000600000000000060000000000001000000000000800005000000000000030800000000000000186800000000000179802016021500000010000000000000BRABEVACNOR1110
012016012678ABEVB49     070ABEV        ON        000R$  000000000000300000000000030000000000003000000000000300000000000030000000000000000000000000000001000000000000033000000000000000099000000000000189802016021500000010000000000000BRABEVACNOR1109
012016012678ABEVB67     070ABEV  FM    ON        000R$  000000000001700000000000170000000000012000000000001500000000000120000000000009000000000002200008000000000000020800000000000000320800000000000174802016021500000010000000000000BRABEVACNOR1110
012016012678ABEVB77     070ABEVE       ON        000R$  000000000002300000000000230000000000016000000000001800000000000200000000000015000000000000000010000000000000025100000000000000460800000000000172302016021500000010000000000000BRABEVACNOR1107
012016012678ABEVB78     070ABEV        ON        000R$  000000000000300000000000030000000000003000000000000300000000000030000000000000000000000000000001000000000000010000000000000000030000000000000184802016021500000010000000000000BRABEVACNOR1109
012016012678ABEVC17     070ABEV  FM    ON        000R$  000000000004100000000000480000000000041000000000004700000000000480000000000000000000000004700002000000000000005300000000000000252300000000000175602016032100000010000000000000BRABEVACNOR1110
012016012678ABEVC46     070ABEV  FM    ON        000R$  000000000008900000000000990000000000082000000000009100000000000940000000000010000000000000000006000000000000031900000000000002908400000000000165602016032100000010000000000000BRABEVACNOR1110
012016012678ABEVC47     070ABEV  FM    ON        000R$  000000000007100000000000710000000000065000000000006500000000000660000000000000000000000000000014000000000000072800000000000004771400000000000170602016032100000010000000000000BRABEVACNOR1108
012016012678ABEVC48     070ABEV        ON        000R$  000000000001900000000000190000000000016000000000001600000000000160000000000014000000000000000002000000000000021700000000000000351400000000000185602016032100000010000000000000BRABEVACNOR1110
012016012678ABEVC49     070ABEV        ON        000R$  000000000000700000000000080000000000007000000000000700000000000080000000000000000000000000000003000000000000040600000000000000314800000000000195602016032100000010000000000000BRABEVACNOR1110
012016012678ABEVC6      070ABEV  FM    ON        000R$  000000000013100000000001330000000000113000000000012500000000001260000000000000000000000000000009000000000000043000000000000005411000000000000160602016032100000010000000000000BRABEVACNOR1110
012016012678ABEVC67     070ABEVE       ON        000R$  000000000005600000000000560000000000056000000000005600000000000560000000000009000000000000000001000000000000010000000000000000560000000000000173102016032100000010000000000000BRABEVACNOR1111
012016012678ABEVC78     070ABEVE       ON        000R$  000000000001400000000000140000000000014000000000001400000000000140000000000000000000000000000001000000000000010100000000000000141400000000000188102016032100000010000000000000BRABEVACNOR1110
012016012678ABEVD19     070ABEVE       ON        000R$  000000000003000000000000300000000000013000000000001600000000000130000000000000000000000000000006000000000000187200000000000003114500000000000188102016041800000010000000000000BRABEVACNOR1108
012016012678ABEVD95     070ABEVE       ON        000R$  000000000007900000000000790000000000079000000000007900000000000790000000000000000000000000000001000000000000005000000000000000395000000000000173102016041800000010000000000000BRABEVACNOR1108
012016012678ABEVE68     070ABEVE       ON        000R$  000000000004500000000000450000000000045000000000004500000000000450000000000000000000000000000001000000000000000100000000000000004500000000000183102016051600000010000000000000BRABEVACNOR1111
012016012678ABEVH48     070ABEVE       ON        000R$  000000000012600000000001260000000000105000000000010500000000001050000000000000000000000000000002000000000000012600000000000001325100000000000183102016081500000010000000000000BRABEVACNOR1111
012016012678ABEVK19     070ABEV        ON        000R$  000000000013100000000001320000000000131000000000013100000000001320000000000000000000000000000005000000000008000000000000001050000000000000000192202016112100000010000000000000BRABEVACNOR1111
012016012678ABEVK46     070ABEV        ON        000R$  000000000025600000000002560000000000256000000000025600000000002560000000000000000000000000000002000000000004000000000000001024000000000000000167202016112100000010000000000000BRABEVACNOR1111
012016012678ABEVL1      070ABEV        ON        000R$  000000000027100000000002710000000000271000000000027100000000002710000000000000000000000027200001000000000000350000000000000094850000000000000167202016121900000010000000000000BRABEVACNOR1111
012016012678ABEVL2      070ABEV        ON        000R$  000000000014100000000001410000000000141000000000014100000000001410000000000000000000000014200001000000000000700000000000000098700000000000000192202016121900000010000000000000BRABEVACNOR1111
012016012682ABEVN17     080ABEVE       ON        000R$  000000000003400000000000390000000000029000000000003400000000000390000000000000000000000004600008000000000000013400000000000000463100000000000167302016021500000010000000000000BRABEVACNOR1109
012016012682ABEVN18     080ABEVE       ON        000R$  000000000011800000000001180000000000118000000000011800000000001180000000000000000000000000000001000000000000001000000000000000118000000000000177302016021500000010000000000000BRABEVACNOR1110
012016012682ABEVN46     080ABEVE FM    ON        000R$  000000000002300000000000230000000000022000000000002200000000000220000000000000000000000003500003000000000000013200000000000000292400000000000164802016021500000010000000000000BRABEVACNOR1111
012016012682ABEVN47     080ABEVE FM    ON        000R$  000000000004800000000000550000000000043000000000004700000000000430000000000000000000000000000007000000000000027800000000000001309000000000000169802016021500000010000000000000BRABEVACNOR1107
012016012682ABEVN6      080ABEVE       ON        000R$  000000000000700000000000100000000000007000000000000700000000000100000000000000000000000001000002000000000000001100000000000000008000000000000157302016021500000010000000000000BRABEVACNOR1106
012016012682ABEVN77     080ABEVE       ON        000R$  000000000006700000000000670000000000067000000000006700000000000670000000000000000000000000000001000000000000000200000000000000013400000000000172302016021500000010000000000000BRABEVACNOR1107
012016012682ABEVO18     080ABEVE       ON        000R$  000000000012700000000001270000000000127000000000012700000000001270000000000000000000000000000001000000000000010000000000000001270000000000000180602016032100000010000000000000BRABEVACNOR1110
012016012682ABEVO46     080ABEVE FM    ON        000R$  000000000004800000000000480000000000046000000000004700000000000460000000000000000000000000000006000000000000034200000000000001631600000000000165602016032100000010000000000000BRABEVACNOR1110
012016012682ABEVO47     080ABEVE FM    ON        000R$  000000000007100000000000730000000000067000000000006900000000000670000000000000000000000000000014000000000000067200000000000004682400000000000170602016032100000010000000000000BRABEVACNOR1108
012016012682ABEVP44     080ABEVE       ON        000R$  000000000001000000000000100000000000010000000000001000000000000100000000000000000000000000000001000000000000001000000000000000010000000000000143102016041800000010000000000000BRABEVACNOR1108
012016012682ABEVP46     080ABEVE       ON        000R$  000000000005500000000000550000000000055000000000005500000000000550000000000000000000000000000001000000000000010000000000000000550000000000000165602016041800000010000000000000BRABEVACNOR1110
012016012682ABEVP47     080ABEVE       ON        000R$  000000000007500000000000750000000000075000000000007500000000000750000000000000000000000000000001000000000000005000000000000000375000000000000170602016041800000010000000000000BRABEVACNOR1110
012016012682ABEVP56     080ABEVE       ON        000R$  000000000003400000000000380000000000034000000000003500000000000380000000000000000000000000000002000000000000034900000000000001226600000000000160602016041800000010000000000000BRABEVACNOR1111
012016012682ABEVP81     080ABEVE       ON        000R$  000000000010000000000001000000000000100000000000010000000000001000000000000000000000000000000001000000000000010000000000000001000000000000000175602016041800000010000000000000BRABEVACNOR1107
012016012682ABEVP95     080ABEVE       ON        000R$  000000000008700000000000870000000000087000000000008700000000000870000000000000000000000000000001000000000000010000000000000000870000000000000173102016041800000010000000000000BRABEVACNOR1108
012016012682ABEVP96     080ABEVE       ON        000R$  000000000006300000000000630000000000063000000000006300000000000630000000000000000000000000000001000000000000005000000000000000315000000000000168102016041800000010000000000000BRABEVACNOR1108
012016012682ABEVP98     080ABEVE       ON        000R$  000000000003300000000000330000000000033000000000003300000000000330000000000000000000000000000001000000000000010000000000000000330000000000000158102016041800000010000000000000BRABEVACNOR1108
012016012682ABEVQ46     080ABEVE       ON        000R$  000000000006300000000000630000000000063000000000006300000000000630000000000000000000000000000001000000000000020700000000000001304100000000000165602016051600000010000000000000BRABEVACNOR1111
012016012682ABEVQ91     080ABEVE       ON        000R$  000000000002000000000000200000000000020000000000002000000000000200000000000000000000000000000001000000000000020700000000000000414000000000000150602016051600000010000000000000BRABEVACNOR1108
012016012682ABEVT63     080ABEVE       ON        000R$  000000000009000000000001050000000000075000000000010400000000000750000000000000000000000000000004000000000000012800000000000001338000000000000165602016081500000010000000000000BRABEVACNOR1109
012016012602ABTT34      010ABBOTT      DRN          R$  000000000411600000000041160000000004106000000000411400000000041060000000000000000000000000000002000000000000002500000000000010287000000000000000009999123100000010000000000000BRABTTBDR007117
012016012696ABTT34F     020ABBOTT      DRN          R$  000000000411600000000041160000000004106000000000411100000000041060000000000000000000000000000002000000000000000153000000000000629008000000000000009999123100000010000000000000BRABTTBDR007117
012016012612AEFI11      010FII AESAPAR CI           R$  000000000975000000000097500000000009676000000000973100000000097490000000009702000000000974500017000000000000000495000000000004816933000000000000009999123100000010000000000000BRAEFICTF002149
012016012602AELP3       010AES ELPA    ON           R$  000000000052900000000005290000000000529000000000052900000000005290000000000470000000000053000001000000000000008600000000000004549400000000000000009999123100000010000000000000BRAELPACNOR2122
012016012696AELP3F      020AES ELPA    ON           R$  000000000056500000000005650000000000565000000000056500000000005650000000000540000000000060500001000000000000000018000000000000010170000000000000009999123100000010000000000000BRAELPACNOR2122
012016012602AFLT3       010AFLUENTE T  ON           R$  000000000023000000000002300000000000230000000000023000000000002300000000000220000000000023000002000000000000000200000000000000046000000000000000009999123100000010000000000000BRAFLTACNOR1107
012016012602AFLU3       010AFLUENTE    ON           R$  000000000031900000000003190000000000319000000000031900000000003190000000000251000000000031900001000000000000000200000000000000063800000000000000009999123100000010000000000000BRAFLUACNOR9119
012016012696AFLU3F      020AFLUENTE    ON           R$  000000000031500000000003150000000000315000000000031500000000003150000000000315000000000032000001000000000000000045000000000000014175000000000000009999123100000010000000000000BRAFLUACNOR9119
012016012612AGCX11      010FII AG CAIXACI           R$  000000009450000000000945000000000092525000000009311600000000940000000000093500000000009400000035000000000000000146000000000013594952000000000000009999123100000010000000000000BRAGCXCTF003138
012016012602AGRO3       010BRASILAGRO  ON      NM   R$  000000000097000000000009810000000000925000000000093300000000009250000000000924000000000092500326000000000000115600000000000107856700000000000000009999123100000010000000000000BRAGROACNOR7104
012016012696AGRO3F      020BRASILAGRO  ON      NM   R$  000000000100000000000010000000000000917000000000095100000000009300000000000917000000000097000013000000000000000172000000000000163742000000000000009999123100000010000000000000BRAGROACNOR7104
012016012612ALMI11B     010FII TORRE ALCI      MB   R$  000000013400000000001340000000000130000000000013110700000001300000000000129000000000013250000035000000000000000343000000000044969802000000000000009999123100000010000000000000BRALMICTF003233
012016012602ALPA3       010ALPARGATAS  ON      N1   R$  000000000097000000000009700000000000960000000000096700000000009600000000000941000000000097800029000000000000004600000000000004451100000000000000009999123100000010000000000000BRALPAACNOR0215
012016012696ALPA3F      020ALPARGATAS  ON      N1   R$  000000000093300000000010880000000000933000000000096100000000010880000000000963000000000109000007000000000000000108000000000000103892000000000000009999123100000010000000000000BRALPAACNOR0215
012016012602ALPA4       010ALPARGATAS  PN      N1   R$  000000000077500000000007780000000000760000000000076900000000007750000000000770000000000077801429000000000000615800000000000473802400000000000000009999123100000010000000000000BRALPAACNPR7215
012016012696ALPA4F      020ALPARGATAS  PN      N1   R$  000000000076200000000007790000000000762000000000077000000000007670000000000744000000000080000015000000000000000342000000000000263619000000000000009999123100000010000000000000BRALPAACNPR7215
012016012602ALSC3       010ALIANSCE    ON      NM   R$  000000000106200000000010620000000001016000000000103900000000010250000000001025000000000103501364000000000000281500000000000292486300000000000000009999123100000010000000000000BRALSCACNOR0108
012016012696ALSC3F      020ALIANSCE    ON      NM   R$  000000000105500000000010550000000001025000000000103400000000010310000000001014000000000105000017000000000000000318000000000000329068000000000000009999123100000010000000000000BRALSCACNOR0108
012016012602ALUP11      010ALUPAR      UNT     N2   R$  000000000108700000000011020000000001076000000000108300000000010760000000001076000000000108000934000000000000144900000000000156964100000000000000009999123100000010000000000000BRALUPCDAM15103
012016012696ALUP11F     020ALUPAR      UNT     N2   R$  000000000119900000000011990000000001079000000000108200000000010810000000001081000000000119800020000000000000000446000000000000482720000000000000009999123100000010000000000000BRALUPCDAM15103
012016012602AMAR3       010LOJAS MARISAON      NM   R$  000000000044500000000004500000000000433000000000044100000000004330000000000433000000000044700074000000000000028100000000000012400100000000000000009999123100000010000000000000BRAMARACNOR4112
012016012696AMAR3F      020LOJAS MARISAON      NM   R$  000000000049600000000004960000000000455000000000047500000000004550000000000423000000000048500003000000000000000010000000000000004755000000000000009999123100000010000000000000BRAMARACNOR4112
012016012602AMGN34      010AMGEN       DRN          R$  000000006263600000000627250000000062636000000006268000000000627250000000000000000000000000000002000000000000000600000000000037608300000000000000009999123100000010000000000000BRAMGNBDR004116
012016012696AMGN34F     020AMGEN       DRN          R$  000000006272500000000628660000000062725000000006272700000000628660000000000000000000000000000002000000000000000056000000000003512741000000000000009999123100000010000000000000BRAMGNBDR004116
012016012602AMZO34      010AMAZON      DRN          R$  000000012153000000001215300000000121260000000012138700000001212600000000000000000000000000000004000000000000000700000000000084971300000000000000009999123100000010000000000000BRAMZOBDR002101
012016012696AMZO34F     020AMAZON      DRN          R$  000000012126000000001221670000000121260000000012139400000001221670000000000000000000000000000002000000000000000054000000000006555296000000000000009999123100000010000000000000BRAMZOBDR002101
012016012602ANIM3       010ANIMA       ON      NM   R$  000000000094100000000010340000000000926000000000097400000000009590000000000959000000000101402350000000000000395300000000000385289000000000000000009999123100000010000000000000BRANIMACNOR6102
012016012696ANIM3F      020ANIMA       ON      NM   R$  000000000094000000000010050000000000940000000000096600000000010050000000000927000000000096500011000000000000000518000000000000500774000000000000009999123100000010000000000000BRANIMACNOR6102
012016012602ARTR3       010ARTERIS     ON      NM   R$  000000000094500000000009540000000000939000000000094800000000009540000000000949000000000095400149000000000000054700000000000051877100000000000000009999123100000010000000000000BRARTRACNOR3105
012016012696ARTR3F      020ARTERIS     ON      NM   R$  000000000093600000000009540000000000936000000000094200000000009540000000000930000000000100000005000000000000000142000000000000133832000000000000009999123100000010000000000000BRARTRACNOR3105
012016012602ARZZ3       010AREZZO CO   ON      NM   R$  000000000192200000000019220000000001855000000000187800000000018550000000001855000000000187200681000000000000163000000000000306117000000000000000009999123100000010000000000000BRARZZACNOR3119
012016012696ARZZ3F      020AREZZO CO   ON      NM   R$  000000000190100000000019150000000001887000000000189900000000019040000000001855000000000207900010000000000000000264000000000000501521000000000000009999123100000010000000000000BRARZZACNOR3119
012016012608ATOM3       010ATOMPAR     ON           R$  000000000002300000000000240000000000023000000000002300000000000230000000000023000000000002400135000000000001589800000000000036884600000000000000009999123100000010000000000000BRATOMACNOR1100
012016012696ATOM3F      020ATOMPAR     ON           R$  000000000002400000000000240000000000024000000000002400000000000240000000000022000000000002600004000000000000000100000000000000002400000000000000009999123100000010000000000000BRATOMACNOR1100
012016012602ATTB34      010ATT INC     DRN          R$  000000001447700000000144770000000014477000000001447700000000144770000000000000000000000000000001000000000000000100000000000001447700000000000000009999123100000010000000000000BRATTBBDR007114
012016012602AVON34      010AVON        DRN          R$  000000000057000000000005700000000000556000000000056900000000005560000000000000000000000000000002000000000000026900000000000015326000000000000000009999123100000010000000000000BRAVONBDR009121
012016012696AVON34F     020AVON        DRN          R$  000000000057000000000005700000000000556000000000056300000000005560000000000000000000000000000002000000000000000156000000000000087926000000000000009999123100000010000000000000BRAVONBDR009121
012016012696AXPB34F     020AMERICAN EXPDRN          R$  000000002248100000000224810000000022481000000002248100000000224810000000000000000000000000000001000000000000000009000000000000202329000000000000009999123100000010000000000000BRAXPBBDR007115
012016012602BAZA3       010AMAZONIA    ON           R$  000000000002300000000000230000000000022000000000002200000000000220000000000022000000000002300005000000000000024000000000000000542000000000000000009999123100000010000000000000BRBAZAACNOR0167
012016012602BBAS3       010BRASIL      ON      NM   R$  000000000128400000000012950000000001272000000000128600000000012890000000001289000000000129019197000000000009925400000000012771877600000000000000009999123100000010000000000000BRBBASACNOR3257
012016012696BBAS3F      020BRASIL      ON      NM   R$  000000000128900000000012930000000001274000000000128600000000012840000000001284000000000129800292000000000000005851000000000007524934000000000000009999123100000010000000000000BRBBASACNOR3257
012016012662BBAS3T      030BRASIL      ON      NM030R$  000000000130300000000013080000000001296000000000130200000000013020000000000000000000000000000014000000000000027000000000000035159213000000000000009999123100000010000000000000BRBBASACNOR3257
012016012678BBASA5      070BBASE       ON      NM000R$  000000000012700000000001270000000000118000000000012200000000001180000000000000000000000000000003000000000000000300000000000000036600000000000177502017011600000010000000000000BRBBASACNOR3257
012016012678BBASB12     070BBAS        ON      NM000R$  000000000012500000000001250000000000125000000000012500000000001250000000000000000000000000000001000000000000007000000000000000875000000000000117702016021500000010000000000000BRBBASACNOR3255
012016012678BBASB13     070BBAS  FM    ON      NM000R$  000000000006600000000000660000000000057000000000006100000000000600000000000055000000000006200068000000000000124500000000000007639300000000000127702016021500000010000000000000BRBBASACNOR3255
012016012678BBASB14     070BBAS  FM    ON      NM000R$  000000000002600000000000280000000000020000000000002200000000000200000000000020000000000002100210000000000000723300000000000016390400000000000137702016021500000010000000000000BRBBASACNOR3255
012016012678BBASB15     070BBAS        ON      NM000R$  000000000001000000000000100000000000008000000000000800000000000080000000000007000000000000900021000000000000058800000000000000489300000000000147702016021500000010000000000000BRBBASACNOR3255
012016012678BBASB16     070BBAS        ON      NM000R$  000000000000500000000000050000000000003000000000000300000000000040000000000003000000000000400011000000000000031200000000000000124600000000000157702016021500000010000000000000BRBBASACNOR3255
012016012678BBASB17     070BBAS        ON      NM000R$  000000000000200000000000020000000000002000000000000200000000000020000000000001000000000000300002000000000000017800000000000000035600000000000167702016021500000010000000000000BRBBASACNOR3255
012016012678BBASB18     070BBAS        ON      NM000R$  000000000000100000000000020000000000001000000000000100000000000010000000000000000000000000300005000000000000020400000000000000020600000000000182702016021500000010000000000000BRBBASACNOR3255
012016012678BBASB20     070BBAS        ON      NM000R$  000000000000100000000000010000000000001000000000000100000000000010000000000000000000000000100025000000000000207100000000000000207100000000000197702016021500000010000000000000BRBBASACNOR3255
012016012678BBASB40     070BBAS        ON      NM000R$  000000000026100000000002650000000000261000000000026300000000002650000000000230000000000000000007000000000000004500000000000001187800000000000102702016021500000010000000000000BRBBASACNOR3255
012016012678BBASB42     070BBAS  FM    ON      NM000R$  000000000009700000000001000000000000089000000000009100000000000920000000000000000000000009300040000000000000054800000000000005038400000000000122702016021500000010000000000000BRBBASACNOR3255
012016012678BBASB43     070BBAS  FM    ON      NM000R$  000000000004200000000000430000000000036000000000003800000000000390000000000012000000000003700044000000000000089900000000000003463900000000000132702016021500000010000000000000BRBBASACNOR3255
012016012678BBASB44     070BBAS  FM    ON      NM000R$  000000000001500000000000160000000000012000000000001300000000000120000000000007000000000001300038000000000000141400000000000001905600000000000142702016021500000010000000000000BRBBASACNOR3255
012016012678BBASB45     070BBAS        ON      NM000R$  000000000000600000000000060000000000005000000000000500000000000050000000000001000000000000700010000000000000025800000000000000143100000000000152702016021500000010000000000000BRBBASACNOR3255
012016012678BBASB46     070BBAS        ON      NM000R$  000000000000200000000000030000000000002000000000000200000000000030000000000002000000000000600002000000000000021000000000000000043000000000000162702016021500000010000000000000BRBBASACNOR3255
012016012678BBASB47     070BBAS        ON      NM000R$  000000000000200000000000020000000000002000000000000200000000000020000000000000000000000000000002000000000000001200000000000000002400000000000172702016021500000010000000000000BRBBASACNOR3255
012016012678BBASB48     070BBAS        ON      NM000R$  000000000000200000000000020000000000002000000000000200000000000020000000000001000000000000200001000000000000001500000000000000003000000000000177702016021500000010000000000000BRBBASACNOR3253
012016012678BBASB95     070BBASE       ON      NM000R$  000000000018500000000001930000000000185000000000019200000000001930000000000000000000000000000002000000000000042900000000000008278900000000000157502017022000000010000000000000BRBBASACNOR3257
012016012678BBASC1      070BBASE       ON      NM000R$  000000000004900000000000500000000000048000000000004900000000000490000000000000000000000000000006000000000000014800000000000000727000000000000144102016032100000010000000000000BRBBASACNOR3257
012016012678BBASC13     070BBAS  FM    ON      NM000R$  000000000010000000000001000000000000091000000000009400000000000930000000000000000000000010000035000000000000060500000000000005730000000000000131602016032100000010000000000000BRBBASACNOR3257
012016012678BBASC14     070BBAS  FM    ON      NM000R$  000000000006000000000000600000000000054000000000005500000000000550000000000050000000000007200032000000000000061100000000000003370200000000000141602016032100000010000000000000BRBBASACNOR3257
012016012678BBASC15     070BBAS        ON      NM000R$  000000000003400000000000350000000000032000000000003200000000000320000000000025000000000003200026000000000000139800000000000004609700000000000151602016032100000010000000000000BRBBASACNOR3257
012016012678BBASC16     070BBAS        ON      NM000R$  000000000002200000000000220000000000019000000000001900000000000190000000000018000000000001900013000000000000065400000000000001286600000000000161602016032100000010000000000000BRBBASACNOR3257
012016012678BBASC17     070BBAS        ON      NM000R$  000000000001300000000000130000000000012000000000001200000000000120000000000010000000000001500009000000000000024000000000000000308000000000000171602016032100000010000000000000BRBBASACNOR3257
012016012678BBASC41     070BBAS        ON      NM000R$  000000000018000000000001800000000000180000000000018000000000001800000000000000000000000000000002000000000000008000000000000001440000000000000116602016032100000010000000000000BRBBASACNOR3257
012016012678BBASC42     070BBAS  FM    ON      NM000R$  000000000011600000000001230000000000116000000000011800000000001180000000000095000000000014500011000000000000023100000000000002741800000000000126602016032100000010000000000000BRBBASACNOR3257
012016012678BBASC43     070BBAS  FM    ON      NM000R$  000000000007700000000000770000000000070000000000007200000000000700000000000000000000000000000029000000000000064000000000000004635700000000000136602016032100000010000000000000BRBBASACNOR3257
012016012678BBASC44     070BBAS  FM    ON      NM000R$  000000000004600000000000460000000000042000000000004300000000000420000000000040000000000004700014000000000000022500000000000000985400000000000146602016032100000010000000000000BRBBASACNOR3257
012016012678BBASC45     070BBAS        ON      NM000R$  000000000002900000000000290000000000023000000000002700000000000260000000000007000000000007800004000000000000006100000000000000167500000000000156602016032100000010000000000000BRBBASACNOR3257
012016012678BBASC46     070BBAS        ON      NM000R$  000000000001600000000000160000000000015000000000001500000000000150000000000000000000000000000007000000000000064900000000000000976500000000000166602016032100000010000000000000BRBBASACNOR3257
012016012678BBASC7      070BBAS        ON      NM000R$  000000000059700000000005980000000000595000000000059700000000005980000000000000000000000000000006000000000000001000000000000000597200000000000070102016032100000010000000000000BRBBASACNOR3257
012016012678BBASC70     070BBAS        ON      NM000R$  000000000000800000000000080000000000008000000000000800000000000080000000000005000000000005000003000000000000017300000000000000138400000000000181602016032100000010000000000000BRBBASACNOR3249
012016012678BBASC71     070BBAS        ON      NM000R$  000000000000700000000000070000000000006000000000000600000000000060000000000005000000000004000002000000000000010500000000000000063100000000000191602016032100000010000000000000BRBBASACNOR3249
012016012678BBASC82     070BBAS        ON      NM000R$  000000000000500000000000050000000000005000000000000500000000000050000000000000000000000000000001000000000000000500000000000000002500000000000206602016032100000010000000000000BRBBASACNOR3249
012016012678BBASD14     070BBAS        ON      NM000R$  000000000008600000000000860000000000086000000000008600000000000860000000000000000000000000000001000000000000000200000000000000017200000000000140002016041800000010000000000000BRBBASACNOR3257
012016012678BBASD15     070BBAS        ON      NM000R$  000000000005700000000000570000000000057000000000005700000000000570000000000000000000000006500001000000000000002000000000000000114000000000000150002016041800000010000000000000BRBBASACNOR3257
012016012678BBASD2      070BBAS        ON      NM000R$  000000000001600000000000160000000000014000000000001500000000000160000000000012000000000002000006000000000000026000000000000000395000000000000182502016041800000010000000000000BRBBASACNOR3251
012016012678BBASD43     070BBAS        ON      NM000R$  000000000010800000000001080000000000108000000000010800000000001080000000000000000000000000000001000000000000004000000000000000432000000000000135002016041800000010000000000000BRBBASACNOR3257
012016012678BBASD44     070BBAS        ON      NM000R$  000000000007100000000000710000000000071000000000007100000000000710000000000000000000000000000001000000000000004000000000000000284000000000000145002016041800000010000000000000BRBBASACNOR3257
012016012678BBASD64     070BBASE       ON      NM000R$  000000000007900000000000800000000000079000000000007900000000000800000000000000000000000000000005000000000000020000000000000001584000000000000142502016041800000010000000000000BRBBASACNOR3257
012016012682BBASN11     080BBASE       ON      NM000R$  000000000000500000000000050000000000005000000000000500000000000050000000000000000000000000500001000000000000006400000000000000032000000000000107702016021500000010000000000000BRBBASACNOR3255
012016012682BBASN12     080BBASE FM    ON      NM000R$  000000000001400000000000150000000000014000000000001400000000000140000000000000000000000001800005000000000000009000000000000000130500000000000117702016021500000010000000000000BRBBASACNOR3255
012016012682BBASN13     080BBASE FM    ON      NM000R$  000000000004600000000000500000000000041000000000004500000000000410000000000000000000000006500022000000000000038300000000000001729100000000000127702016021500000010000000000000BRBBASACNOR3255
012016012682BBASN14     080BBASE       ON      NM000R$  000000000011000000000001100000000000098000000000010900000000000980000000000070000000000014000002000000000000004100000000000000449800000000000137702016021500000010000000000000BRBBASACNOR3255
012016012682BBASN40     080BBASE       ON      NM000R$  000000000000400000000000040000000000004000000000000400000000000040000000000000000000000000000001000000000000000600000000000000002400000000000102702016021500000010000000000000BRBBASACNOR3255
012016012682BBASN41     080BBASE       ON      NM000R$  000000000000900000000000090000000000009000000000000900000000000090000000000000000000000000000001000000000000001800000000000000016200000000000112702016021500000010000000000000BRBBASACNOR3255
012016012682BBASN42     080BBASE FM    ON      NM000R$  000000000003000000000000310000000000024000000000002700000000000240000000000000000000000002700015000000000000026900000000000000727900000000000122702016021500000010000000000000BRBBASACNOR3255
012016012682BBASN43     080BBASE FM    ON      NM000R$  000000000007500000000000780000000000067000000000007200000000000670000000000000000000000000000039000000000000092300000000000006652100000000000132702016021500000010000000000000BRBBASACNOR3255
012016012682BBASN44     080BBASE       ON      NM000R$  000000000015000000000001500000000000140000000000014500000000001400000000000000000000000018000006000000000000022200000000000003224900000000000142702016021500000010000000000000BRBBASACNOR3255
012016012682BBASN45     080BBASE       ON      NM000R$  000000000024300000000002430000000000243000000000024300000000002430000000000000000000000000000001000000000000013000000000000003159000000000000152702016021500000010000000000000BRBBASACNOR3255
012016012682BBASN76     080BBASE       ON      NM000R$  000000000036100000000003610000000000354000000000035800000000003540000000000000000000000000000002000000000000001300000000000000465800000000000165202016021500000010000000000000BRBBASACNOR3255
012016012682BBASN92     080BBASE       ON      NM000R$  000000000018900000000001900000000000139000000000018900000000001390000000000000000000000019000003000000000000043000000000000008164800000000000122502017022000000010000000000000BRBBASACNOR3257
012016012682BBASO11     080BBASE       ON      NM000R$  000000000003200000000000320000000000028000000000002900000000000280000000000000000000000002800002000000000000003000000000000000088000000000000111602016032100000010000000000000BRBBASACNOR3257
012016012682BBASO12     080BBASE FM    ON      NM000R$  000000000005900000000000600000000000053000000000005600000000000550000000000000000000000000000013000000000000023500000000000001319500000000000121602016032100000010000000000000BRBBASACNOR3257
012016012682BBASO13     080BBASE FM    ON      NM000R$  000000000010700000000001070000000000094000000000009800000000000970000000000000000000000000000024000000000000046700000000000004603800000000000131602016032100000010000000000000BRBBASACNOR3257
012016012682BBASO41     080BBASE       ON      NM000R$  000000000004400000000000440000000000041000000000004200000000000410000000000000000000000000000004000000000000003900000000000000166700000000000116602016032100000010000000000000BRBBASACNOR3257
012016012682BBASO42     080BBASE FM    ON      NM000R$  000000000007800000000000830000000000073000000000007800000000000730000000000000000000000000000018000000000000035800000000000002812100000000000126602016032100000010000000000000BRBBASACNOR3257
012016012682BBASO43     080BBASE FM    ON      NM000R$  000000000013000000000001340000000000122000000000012600000000001250000000000000000000000000000034000000000000085700000000000010842800000000000136602016032100000010000000000000BRBBASACNOR3257
012016012682BBASO99     080BBASE       ON      NM000R$  000000000001100000000000110000000000011000000000001100000000000110000000000000000000000000000004000000000000010000000000000000110000000000000099102016032100000010000000000000BRBBASACNOR3257
012016012682BBASP14     080BBASE       ON      NM000R$  000000000016300000000001670000000000159000000000016100000000001590000000000000000000000000000004000000000000014000000000000002262000000000000140002016041800000010000000000000BRBBASACNOR3257
012016012682BBASP42     080BBASE       ON      NM000R$  000000000008600000000000870000000000084000000000008500000000000850000000000000000000000000000006000000000000022000000000000001880000000000000125002016041800000010000000000000BRBBASACNOR3257
012016012682BBASP43     080BBASE       ON      NM000R$  000000000013400000000001370000000000131000000000013200000000001310000000000000000000000000000006000000000000044000000000000005812000000000000135002016041800000010000000000000BRBBASACNOR3257
012016012610BBDC1       010BRADESCO    DIR ORD N1   R$  000000000000300000000000030000000000001000000000000100000000000020000000000002000000000000300159000000000002461200000000000003425300000000000000009999123100000010000000000000BRBBDCD13OR1641
012016012696BBDC1F      020BRADESCO    DIR ORD N1   R$  000000000000100000000000020000000000001000000000000100000000000010000000000001000000000003000040000000000000001217000000000000001404000000000000009999123100000010000000000000BRBBDCD13OR1641
012016012610BBDC2       010BRADESCO    DIR PRE N1   R$  000000000001400000000000290000000000013000000000001700000000000170000000000016000000000001700990000000000003876800000000000068420300000000000000009999123100000010000000000000BRBBDCD13PR8641
012016012696BBDC2F      020BRADESCO    DIR PRE N1   R$  000000000001300000000000270000000000009000000000001500000000000110000000000011000000000001800149000000000000004058000000000000062378000000000000009999123100000010000000000000BRBBDCD13PR8641
012016012602BBDC3       010BRADESCO    ON      N1   R$  000000000184300000000018750000000001829000000000185600000000018500000000001848000000000185805256000000000001242600000000002306716700000000000000009999123100000010000000000000BRBBDCACNOR1643
012016012696BBDC3F      020BRADESCO    ON      N1   R$  000000000179200000000018720000000001792000000000185400000000018670000000001859000000000186700055000000000000001335000000000002475363000000000000009999123100000010000000000000BRBBDCACNOR1643
012016012662BBDC3T      030BRADESCO    ON      N1181R$  000000000199500000000019960000000001995000000000199500000000019960000000000000000000000000000002000000000000005000000000000009978864000000000000009999123100000010000000000000BRBBDCACNOR1643
012016012602BBDC4       010BRADESCO    PN      N1   R$  000000000171300000000017340000000001702000000000171700000000017160000000001715000000000171621432000000000011310500000000019426589700000000000000009999123100000010000000000000BRBBDCACNPR8643
012016012696BBDC4F      020BRADESCO    PN      N1   R$  000000000171800000000017520000000001700000000000172200000000017220000000001715000000000172200332000000000000005842000000000010060537000000000000009999123100000010000000000000BRBBDCACNPR8643
012016012662BBDC4T      030BRADESCO    PN      N1016R$  000000000172800000000017290000000001728000000000172800000000017290000000000000000000000000000002000000000000001800000000000003111480000000000000009999123100000010000000000000BRBBDCACNPR8643
012016012662BBDC4T      030BRADESCO    PN      N1030R$  000000000172900000000017410000000001729000000000173100000000017410000000000000000000000000000004000000000000006000000000000010386709000000000000009999123100000010000000000000BRBBDCACNPR8643
012016012662BBDC4T      030BRADESCO    PN      N1045R$  000000000174500000000017460000000001745000000000174500000000017460000000000000000000000000000002000000000000001500000000000002618725000000000000009999123100000010000000000000BRBBDCACNPR8643
012016012662BBDC4T      030BRADESCO    PN      N1062R$  000000000175400000000017550000000001754000000000175400000000017550000000000000000000000000000002000000000000008000000000000014035373000000000000009999123100000010000000000000BRBBDCACNPR8643
012016012662BBDC4T      030BRADESCO    PN      N1090R$  000000000177300000000017750000000001770000000000177300000000017710000000000000000000000000000014000000000000003100000000000005499064000000000000009999123100000010000000000000BRBBDCACNPR8643
012016012678BBDCB14     070BBDCE       PN      N1000R$  000000000045800000000004580000000000430000000000043100000000004300000000000000000000000000000003000000000000824500000000000355655000000000000167302017022000000010000000000000BRBBDCACNPR8643
012016012678BBDCB17     070BBDCE       PN      N1000R$  000000000017000000000002320000000000170000000000021600000000002170000000000000000000000000000008000000000001649100000000000356584000000000000207302017022000000010000000000000BRBBDCACNPR8643
012016012678BBDCB18     070BBDC  FM    PN      N1000R$  000000000004500000000000550000000000042000000000004800000000000460000000000037000000000004600130000000000000391400000000000018862700000000000172802016021500000010000000000000BRBBDCACNPR8639
012016012678BBDCB19     070BBDC  FM    PN      N1000R$  000000000001500000000000160000000000013000000000001400000000000130000000000001000000000001500025000000000000050300000000000000722800000000000182802016021500000010000000000000BRBBDCACNPR8638
012016012678BBDCB2      070BBDCE       PN      N1000R$  000000000000100000000000010000000000001000000000000100000000000010000000000001000000000012800014000000000000076000000000000000076000000000000200302016021500000010000000000000BRBBDCACNPR8639
012016012678BBDCB21     070BBDC        PN      N1000R$  000000000000200000000000020000000000002000000000000200000000000020000000000000000000000000600002000000000000007200000000000000014400000000000202802016021500000010000000000000BRBBDCACNPR8639
012016012678BBDCB23     070BBDC        PN      N1000R$  000000000000100000000000010000000000001000000000000100000000000010000000000000000000000000000002000000000000001500000000000000001500000000000222802016021500000010000000000000BRBBDCACNPR8639
012016012678BBDCB4      070BBDCE       PN      N1000R$  000000000009600000000001040000000000094000000000010000000000000940000000000000000000000000000008000000000000044000000000000004428000000000000165302016021500000010000000000000BRBBDCACNPR8643
012016012678BBDCB41     070BBDCE       PN      N1000R$  000000000014000000000001400000000000140000000000014000000000001400000000000000000000000000000001000000000000000100000000000000014000000000000212302017022000000010000000000000BRBBDCACNPR8643
012016012678BBDCB42     070BBDC        PN      N1000R$  000000000011000000000001100000000000110000000000011000000000001100000000000000000000000000000002000000000000004000000000000000440000000000000162802016021500000010000000000000BRBBDCACNPR8643
012016012678BBDCB43     070BBDC  FM    PN      N1000R$  000000000007700000000000860000000000071000000000007600000000000760000000000000000000000000000148000000000000334700000000000025535600000000000167802016021500000010000000000000BRBBDCACNPR8643
012016012678BBDCB48     070BBDC  FM    PN      N1000R$  000000000002700000000000300000000000023000000000002600000000000250000000000018000000000003100100000000000000383600000000000010109400000000000177802016021500000010000000000000BRBBDCACNPR8639
012016012678BBDCB49     070BBDC  FM    PN      N1000R$  000000000000800000000000090000000000007000000000000700000000000090000000000006000000000001400038000000000000097300000000000000753300000000000187802016021500000010000000000000BRBBDCACNPR8639
012016012678BBDCB50     070BBDC        PN      N1000R$  000000000000400000000000040000000000003000000000000300000000000030000000000002000000000000400002000000000000006500000000000000024000000000000197802016021500000010000000000000BRBBDCACNPR8638
012016012678BBDCB53     070BBDC        PN      N1000R$  000000000000100000000000010000000000001000000000000100000000000010000000000000000000000000300001000000000000000500000000000000000500000000000227802016021500000010000000000000BRBBDCACNPR8636
012016012678BBDCB60     070BBDCE       PN      N1000R$  000000000000300000000000030000000000003000000000000300000000000030000000000002000000000000600001000000000000022000000000000000066000000000000195302016021500000010000000000000BRBBDCACNPR8638
012016012678BBDCB7      070BBDCE       PN      N1000R$  000000000006400000000000640000000000056000000000006000000000000600000000000000000000000007400009000000000000012600000000000000764400000000000170302016021500000010000000000000BRBBDCACNPR8639
012016012678BBDCB80     070BBDC        PN      N1000R$  000000000000500000000000050000000000004000000000000400000000000040000000000000000000000020000005000000000000015700000000000000068500000000000192802016021500000010000000000000BRBBDCACNPR8639
012016012678BBDCC14     070BBDCE       PN      N1000R$  000000000017000000000001700000000000162000000000016700000000001620000000000000000000000000000002000000000000006000000000000001004000000000000163602016032100000010000000000000BRBBDCACNPR8643
012016012678BBDCC20     070BBDC        PN      N1000R$  000000000003000000000000300000000000028000000000002900000000000280000000000025000000000002800013000000000000029900000000000000871600000000000196102016032100000010000000000000BRBBDCACNPR8640
012016012678BBDCC21     070BBDC        PN      N1000R$  000000000001700000000000170000000000015000000000001600000000000150000000000007000000000002500002000000000000016900000000000000284500000000000206102016032100000010000000000000BRBBDCACNPR8640
012016012678BBDCC40     070BBDC        PN      N1000R$  000000000002200000000000220000000000020000000000002100000000000200000000000014000000000000000007000000000000048800000000000001029600000000000201102016032100000010000000000000BRBBDCACNPR8640
012016012678BBDCC47     070BBDC  FM    PN      N1000R$  000000000011300000000001190000000000106000000000011200000000001110000000000105000000000020000039000000000000087600000000000009855700000000000171102016032100000010000000000000BRBBDCACNPR8642
012016012678BBDCC57     070BBDC  FM    PN      N1000R$  000000000014000000000001500000000000135000000000014300000000001410000000000000000000000000000033000000000000069400000000000009935700000000000166102016032100000010000000000000BRBBDCACNPR8643
012016012678BBDCC60     070BBDCE       PN      N1000R$  000000000003400000000000340000000000032000000000003300000000000320000000000000000000000023800004000000000000007500000000000000254000000000000193602016032100000010000000000000BRBBDCACNPR8640
012016012678BBDCC7      070BBDC  FM    PN      N1000R$  000000000005500000000000550000000000048000000000005000000000000490000000000000000000000007500024000000000000039000000000000001964500000000000186102016032100000010000000000000BRBBDCACNPR8638
012016012678BBDCC8      070BBDC  FM    PN      N1000R$  000000000008600000000000930000000000082000000000008600000000000860000000000000000000000000000031000000000000057100000000000004913500000000000176102016032100000010000000000000BRBBDCACNPR8640
012016012678BBDCC9      070BBDC        PN      N1000R$  000000000003800000000000380000000000036000000000003600000000000360000000000033000000000003800005000000000000016400000000000000602400000000000191102016032100000010000000000000BRBBDCACNPR8640
012016012678BBDCC98     070BBDC  FM    PN      N1000R$  000000000006600000000000710000000000062000000000006600000000000700000000000000000000000000000024000000000000044000000000000002936700000000000181102016032100000010000000000000BRBBDCACNPR8639
012016012678BBDCD33     070BBDC        PN      N1000R$  000000000014100000000001410000000000141000000000014100000000001410000000000000000000000000000001000000000000000100000000000000014100000000000171602016041800000010000000000000BRBBDCACNPR8640
012016012678BBDCD39     070BBDCE       PN      N1000R$  000000000005500000000000550000000000055000000000005500000000000550000000000000000000000000000001000000000000004000000000000000220000000000000194102016041800000010000000000000BRBBDCACNPR8643
012016012678BBDCD54     070BBDC        PN      N1000R$  000000000012400000000001240000000000116000000000011900000000001180000000000000000000000000000003000000000000012000000000000001432000000000000176602016041800000010000000000000BRBBDCACNPR8643
012016012678BBDCD63     070BBDCE       PN      N1000R$  000000000001800000000000180000000000018000000000001800000000000180000000000000000000000000000001000000000000000100000000000000001800000000000221602016041800000010000000000000BRBBDCACNPR8636
012016012678BBDCD67     070BBDCE       PN      N1000R$  000000000012800000000001280000000000128000000000012800000000001280000000000000000000000000000001000000000000004000000000000000512000000000000174102016041800000010000000000000BRBBDCACNPR8643
012016012678BBDCF3      070BBDC        PN      N1000R$  000000000020700000000002070000000000207000000000020700000000002070000000000000000000000000000001000000000000010800000000000002235600000000000173002016062000000010000000000000BRBBDCACNPR8639
012016012678BBDCF69     070BBDCE       PN      N1000R$  000000000010500000000001050000000000104000000000010400000000001040000000000000000000000000000003000000000000021600000000000002249400000000000190502016062000000010000000000000BRBBDCACNPR8643
012016012678BBDCF87     070BBDC        PN      N1000R$  000000000000300000000000030000000000003000000000000300000000000030000000000000000000000000000001000000000000006900000000000000020700000000000328002016062000000010000000000000BRBBDCACNPR8631
012016012678BBDCL17     070BBDCE       PN      N1000R$  000000000011500000000001150000000000115000000000011500000000001150000000000000000000000000000001000000000001100000000000000126500000000000000240902016121900000010000000000000BRBBDCACNPR8640
012016012678BBDCL20     070BBDC        PN      N1000R$  000000000028500000000002850000000000285000000000028500000000002850000000000000000000000000000003000000000000330000000000000094050000000000000193402016121900000010000000000000BRBBDCACNPR8640
012016012678BBDCL75     070BBDCE       PN      N1000R$  000000000024000000000002400000000000240000000000024000000000002400000000000000000000000000000001000000000000550000000000000132000000000000000200902016121900000010000000000000BRBBDCACNPR8637
012016012678BBDCL87     070BBDCE       PN      N1000R$  000000000014100000000001410000000000106000000000013100000000001060000000000000000000000000000005000000000000660200000000000086701700000000000230902016121900000010000000000000BRBBDCACNPR8640
012016012682BBDCN18     080BBDCE FM    PN      N1000R$  000000000005100000000000540000000000040000000000004700000000000460000000000039000000000005000063000000000000197800000000000009428700000000000172802016021500000010000000000000BRBBDCACNPR8639
012016012682BBDCN19     080BBDCE       PN      N1000R$  000000000011500000000001150000000000099000000000010600000000001020000000000100000000000000000009000000000000015000000000000001604600000000000182802016021500000010000000000000BRBBDCACNPR8638
012016012682BBDCN4      080BBDCE       PN      N1000R$  000000000001800000000000180000000000016000000000001700000000000160000000000000000000000000000003000000000000004200000000000000075300000000000165302016021500000010000000000000BRBBDCACNPR8643
012016012682BBDCN42     080BBDCE FM    PN      N1000R$  000000000002000000000000200000000000011000000000001200000000000130000000000000000000000000000327000000000000656200000000000008241800000000000162802016021500000010000000000000BRBBDCACNPR8643
012016012682BBDCN43     080BBDCE FM    PN      N1000R$  000000000003300000000000330000000000022000000000002700000000000220000000000000000000000000000019000000000000042500000000000001164400000000000167802016021500000010000000000000BRBBDCACNPR8643
012016012682BBDCN45     080BBDCE       PN      N1000R$  000000000000400000000000040000000000003000000000000300000000000030000000000000000000000000400004000000000000041000000000000000139000000000000150302016021500000010000000000000BRBBDCACNPR8643
012016012682BBDCN46     080BBDCE       PN      N1000R$  000000000001600000000000160000000000008000000000001100000000000090000000000000000000000000000095000000000000606200000000000007108300000000000160302016021500000010000000000000BRBBDCACNPR8643
012016012682BBDCN48     080BBDCE FM    PN      N1000R$  000000000008000000000000850000000000065000000000007700000000000730000000000000000000000000000053000000000000145500000000000011259500000000000177802016021500000010000000000000BRBBDCACNPR8639
012016012682BBDCN49     080BBDCE       PN      N1000R$  000000000014000000000001490000000000140000000000014400000000001450000000000000000000000000000006000000000000012200000000000001768900000000000187802016021500000010000000000000BRBBDCACNPR8639
012016012682BBDCN58     080BBDCE       PN      N1000R$  000000000000400000000000040000000000004000000000000400000000000040000000000000000000000000000005000000000000020000000000000000080000000000000152802016021500000010000000000000BRBBDCACNPR8643
012016012682BBDCN59     080BBDCE       PN      N1000R$  000000000001000000000000100000000000006000000000000700000000000060000000000000000000000000000006000000000000024000000000000000172000000000000157802016021500000010000000000000BRBBDCACNPR8643
012016012682BBDCN7      080BBDCE       PN      N1000R$  000000000004200000000000420000000000032000000000003900000000000320000000000018000000000000000050000000000000118900000000000004746100000000000170302016021500000010000000000000BRBBDCACNPR8639
012016012682BBDCO14     080BBDCE FM    PN      N1000R$  000000000005000000000000510000000000042000000000004800000000000420000000000000000000000000000014000000000000031000000000000001500000000000000163602016032100000010000000000000BRBBDCACNPR8643
012016012682BBDCO16     080BBDCE FM    PN      N1000R$  000000000004300000000000430000000000036000000000003900000000000370000000000000000000000000000013000000000000032800000000000001302800000000000161102016032100000010000000000000BRBBDCACNPR8643
012016012682BBDCO44     080BBDCE       PN      N1000R$  000000000001600000000000170000000000013000000000001300000000000140000000000000000000000000000019000000000000069900000000000000970400000000000146102016032100000010000000000000BRBBDCACNPR8643
012016012682BBDCO45     080BBDCE       PN      N1000R$  000000000003200000000000320000000000025000000000002800000000000250000000000000000000000000000004000000000000008200000000000000237000000000000156102016032100000010000000000000BRBBDCACNPR8643
012016012682BBDCO47     080BBDCE FM    PN      N1000R$  000000000007800000000000780000000000068000000000007400000000000720000000000000000000000000000022000000000000036700000000000002728400000000000171102016032100000010000000000000BRBBDCACNPR8642
012016012682BBDCO55     080BBDCE       PN      N1000R$  000000000002200000000000230000000000019000000000002000000000000190000000000000000000000000000010000000000000034100000000000000714200000000000151102016032100000010000000000000BRBBDCACNPR8643
012016012682BBDCO57     080BBDCE       PN      N1000R$  000000000005700000000000570000000000049000000000005500000000000520000000000000000000000000000057000000000000145500000000000008117500000000000166102016032100000010000000000000BRBBDCACNPR8643
012016012682BBDCO58     080BBDCE       PN      N1000R$  000000000016800000000001680000000000168000000000016800000000001680000000000000000000000000000001000000000000002500000000000000420000000000000188602016032100000010000000000000BRBBDCACNPR8643
012016012682BBDCO7      080BBDCE       PN      N1000R$  000000000016300000000001630000000000150000000000015400000000001570000000000000000000000000000003000000000000006200000000000000960600000000000186102016032100000010000000000000BRBBDCACNPR8638
012016012682BBDCO8      080BBDCE FM    PN      N1000R$  000000000010200000000001030000000000089000000000009600000000000940000000000000000000000000000028000000000000055500000000000005381400000000000176102016032100000010000000000000BRBBDCACNPR8640
012016012682BBDCO98     080BBDCE       PN      N1000R$  000000000013100000000001310000000000119000000000012900000000001190000000000005000000000000000003000000000000002500000000000000324900000000000181102016032100000010000000000000BRBBDCACNPR8639
012016012682BBDCP51     080BBDCE       PN      N1000R$  000000000006800000000000700000000000065000000000006600000000000650000000000000000000000000000006000000000000005500000000000000366000000000000166602016041800000010000000000000BRBBDCACNPR8643
012016012612BBFI11B     010FII BB PROGRCI      MB   R$  000000020600100000002090000000000206001000000020682900000002090000000000208000000000020900000006000000000000000021000000000004343413000000000000009999123100000010000000000000BRBBFICTF006226
012016012612BBPO11      010FII BB PRGIICI           R$  000000000925000000000092500000000009146000000000920800000000092100000000009176000000000921000956000000000000021629000000000199176625000000000000009999123100000010000000000000BRBBPOCTF003138
012016012612BBRC11      010FII BB CORP CI           R$  000000000849900000000085000000000008490000000000849900000000084970000000008490000000000849700013000000000000000627000000000005329261000000000000009999123100000010000000000000BRBBRCCTF004152
012016012602BBRK3       010BR BROKERS  ON      NM   R$  000000000014900000000001490000000000140000000000014200000000001410000000000141000000000014200193000000000000078000000000000011105500000000000000009999123100000010000000000000BRBBRKACNOR4110
012016012614BBSD11      010BB ETF SP DVCI           R$  000000000255000000000025500000000002534000000000253900000000025410000000002500000000000000000004000000000000002460000000000006247410000000000000009999123100000010000000000000BRBBSDCTF000100
012016012602BBSE3       010BBSEGURIDADEON      NM   R$  000000000216700000000022290000000002100000000000214100000000021000000000002100000000000210826036000000000008309100000000017791283300000000000000009999123100000010000000000000BRBBSEACNOR5105
012016012696BBSE3F      020BBSEGURIDADEON      NM   R$  000000000215100000000022190000000002108000000000214800000000021080000000002108000000000211400168000000000000003926000000000008433954000000000000009999123100000010000000000000BRBBSEACNOR5105
012016012662BBSE3T      030BBSEGURIDADEON      NM090R$  000000000225400000000022650000000002202000000000224800000000022030000000000000000000000000000010000000000000800000000000001799108029000000000000009999123100000010000000000000BRBBSEACNOR5105
012016012678BBSEA84     070BBSEE       ON      NM000R$  000000000006500000000000980000000000065000000000008600000000000950000000000000000000000000000003000000000000000300000000000000025800000000000342502017011600000010000000000000BRBBSEACNOR5105
012016012678BBSEB21     070BBSE  FM    ON      NM000R$  000000000010200000000001020000000000102000000000010200000000001020000000000000000000000000000001000000000000002100000000000000214200000000000211202016021500000010000000000000BRBBSEACNOR5105
012016012678BBSEB22     070BBSE  FM    ON      NM000R$  000000000009100000000000910000000000051000000000006000000000000510000000000000000000000015000007000000000000023600000000000001419600000000000221202016021500000010000000000000BRBBSEACNOR5105
012016012678BBSEB23     070BBSE        ON      NM000R$  000000000005000000000000500000000000023000000000002900000000000230000000000020000000000002300022000000000000017200000000000000506700000000000231202016021500000010000000000000BRBBSEACNOR5105
012016012678BBSEB42     070BBSE  FM    ON      NM000R$  000000000003800000000000400000000000036000000000003900000000000400000000000000000000000000000010000000000000026700000000000001047500000000000226202016021500000010000000000000BRBBSEACNOR5105
012016012678BBSEB43     070BBSE  FM    ON      NM000R$  000000000002000000000000200000000000019000000000001900000000000190000000000000000000000000000004000000000000005200000000000000102000000000000236202016021500000010000000000000BRBBSEACNOR5105
012016012678BBSEB45     070BBSE        ON      NM000R$  000000000000600000000000060000000000006000000000000600000000000060000000000000000000000001000002000000000000015000000000000000090000000000000256202016021500000010000000000000BRBBSEACNOR5105
012016012678BBSEB96     070BBSEE       ON      NM000R$  000000000026100000000002650000000000261000000000026400000000002640000000000000000000000000000003000000000000010500000000000002782000000000000262502017022000000010000000000000BRBBSEACNOR5105
012016012678BBSEC25     070BBSE        ON      NM000R$  000000000003100000000000310000000000031000000000003100000000000310000000000000000000000013400001000000000000001400000000000000043400000000000251202016032100000010000000000000BRBBSEACNOR5105
012016012678BBSED80     070BBSEE       ON      NM000R$  000000000001000000000000100000000000010000000000001000000000000100000000000000000000000000000001000000000000026000000000000000260000000000000308702016041800000010000000000000BRBBSEACNOR5105
012016012682BBSEN21     080BBSEE FM    ON      NM000R$  000000000005000000000000720000000000050000000000005100000000000720000000000000000000000000000008000000000000014400000000000000743000000000000211202016021500000010000000000000BRBBSEACNOR5105
012016012682BBSEN22     080BBSEE FM    ON      NM000R$  000000000012100000000001370000000000121000000000012600000000001370000000000000000000000000000005000000000000012200000000000001543100000000000221202016021500000010000000000000BRBBSEACNOR5105
012016012682BBSEN24     080BBSEE       ON      NM000R$  000000000027900000000002790000000000279000000000027900000000002790000000000000000000000000000001000000000000000500000000000000139500000000000241202016021500000010000000000000BRBBSEACNOR5105
012016012682BBSEN91     080BBSEE       ON      NM000R$  000000000027600000000002760000000000230000000000026200000000002300000000000000000000000028600003000000000000010600000000000002785800000000000210002017022000000010000000000000BRBBSEACNOR5105
012016012682BBSEO21     080BBSEE       ON      NM000R$  000000000012300000000001230000000000123000000000012300000000001230000000000000000000000000000001000000000000000500000000000000061500000000000213702016032100000010000000000000BRBBSEACNOR5105
012016012682BBSEP24     080BBSEE       ON      NM000R$  000000000031000000000003100000000000310000000000031000000000003100000000000000000000000000000001000000000000026000000000000008060000000000000241202016041800000010000000000000BRBBSEACNOR5105
012016012682BBSEP56     080BBSEE       ON      NM000R$  000000000047400000000004740000000000474000000000047400000000004740000000000000000000000000000001000000000000026000000000000012324000000000000266202016041800000010000000000000BRBBSEACNOR5105
012016012602BBTG11      010BTG PACTUAL UNT          R$  000000000155000000000016500000000001516000000000160600000000016200000000001620000000000163702847000000000000652900000000001048927000000000000000009999123100000010000000000000BRBBTGUNT007113
012016012696BBTG11F     020BTG PACTUAL UNT          R$  000000000155000000000016370000000001542000000000160400000000016320000000001580000000000163800038000000000000000998000000000001601116000000000000009999123100000010000000000000BRBBTGUNT007113
012016012612BBVJ11      010FII C JARDIMCI           R$  000000000499900000000049990000000004731000000000477600000000047370000000004750000000000498000015000000000000000384000000000001834232000000000000009999123100000010000000000000BRBBVJCTF001161
012016012612BCFF11B     010FII BC FFII CI      MB   R$  000000000510000000000052400000000005072000000000510300000000050800000000005075000000000508000040000000000000003232000000000016494121000000000000009999123100000010000000000000BRBCFFCTF000170
012016012612BCRI11      010FII BEES CRICI           R$  000000000929500000000092950000000009295000000000929500000000092950000000000000000000000929500001000000000000000001000000000000009295000000000000009999123100000010000000000000BRBCRICTF009106
012016012602BEEF3       010MINERVA     ON  ES  NM   R$  000000000118600000000011860000000001121000000000113800000000011550000000001148000000000115503017000000000000717200000000000816756300000000000000009999123100000010000000000000BRBEEFACNOR6106
012016012696BEEF3F      020MINERVA     ON  ES  NM   R$  000000000115000000000011710000000001125000000000113900000000011460000000001146000000000125800025000000000000000682000000000000776979000000000000009999123100000010000000000000BRBEEFACNOR6106
012016012602BEES3       010BANESTES    ON           R$  000000000016800000000001680000000000165000000000016700000000001680000000000167000000000016800015000000000000009600000000000001608800000000000000009999123100000010000000000000BRBEESACNOR9276
012016012602BEES4       010BANESTES    PN           R$  000000000017700000000001770000000000169000000000017100000000001690000000000167000000000017000004000000000000000400000000000000068400000000000000009999123100000010000000000000BRBEESACNPR6201
012016012602BERK34      010BERKSHIRE   DRN          R$  000000005111700000000511170000000051117000000005111700000000511170000000049356000000005346900001000000000000000400000000000020446800000000000000009999123100000010000000000000BRBERKBDR002100
012016012696BERK34F     020BERKSHIRE   DRN          R$  000000005111700000000511770000000051117000000005112800000000511770000000000100000000005150000002000000000000000076000000000003885732000000000000009999123100000010000000000000BRBERKBDR002100
012016012602BIOM3       010BIOMM       ON      MA   R$  000000000050100000000005010000000000500000000000050000000000005000000000000480000000000050000003000000000000014800000000000007404800000000000000009999123100000010000000000000BRBIOMACNOR2104
012016012696BIOM3F      020BIOMM       ON      MA   R$  000000000055000000000005500000000000550000000000055000000000005500000000000470000000000055000001000000000000000015000000000000008250000000000000009999123100000010000000000000BRBIOMACNOR2104
012016012602BMEB4       010MERC BRASIL PN           R$  000000000039100000000003910000000000387000000000038900000000003900000000000387000000000041800014000000000000013000000000000005067000000000000000009999123100000010000000000000BRBMEBACNPR5194
012016012696BMEB4F      020MERC BRASIL PN           R$  000000000040000000000004000000000000400000000000040000000000004000000000000340000000000040000001000000000000000010000000000000004000000000000000009999123100000010000000000000BRBMEBACNPR5194
012016012602BMKS3       010BIC MONARK  ON           R$  000000002500000000000250000000000025000000000002500000000000250000000000021000000000002500000001000000000000000001000000000000025000000000000000009999123100000010000000000000BRBMKSACNOR9157
012016012612BMLC11B     010FII BMBRC LCCI      MB   R$  000000000700000000000072000000000007000000000000702600000000070000000000006700000000000700000016000000000000002163000000000015198544000000000000009999123100000010000000000000BRBMLCCTF004147
012016012696BMTO3F      020BRASMOTOR   ON           R$  000000000044000000000004400000000000440000000000044000000000004400000000000330000000000044000001000000000000000005000000000000002200000000000000009999123100000010000000000000BRBMTOACNOR9186
012016012602BOAC34      010BANK AMERICADRN          R$  000000000541800000000054340000000005409000000000541600000000054340000000000000000000000000000003000000000000006900000000000037375900000000000000009999123100000010000000000000BRBOACBDR004121
012016012696BOAC34F     020BANK AMERICADRN          R$  000000000541800000000054180000000005409000000000541500000000054090000000000000000000000000000002000000000000000045000000000000243693000000000000009999123100000010000000000000BRBOACBDR004121
012016012602BOBR4       010BOMBRIL     PN           R$  000000000014700000000001470000000000147000000000014700000000001470000000000129000000000014700001000000000000000100000000000000014700000000000000009999123100000010000000000000BRBOBRACNPR3128
012016012696BOBR4F      020BOMBRIL     PN           R$  000000000014200000000001420000000000142000000000014200000000001420000000000126000000000014200001000000000000000020000000000000002840000000000000009999123100000010000000000000BRBOBRACNPR3128
012016012696BOEI34F     020BOEING      DRN          R$  000000005200700000000520070000000052007000000005200700000000520070000000000000000000000000000001000000000000000013000000000000676091000000000000009999123100000010000000000000BRBOEIBDR003115
012016012696BONY34F     020BNY MELLON  DRN          R$  000000001450800000000145080000000014508000000001450800000000145080000000000000000000000000000001000000000000000016000000000000232128000000000000009999123100000010000000000000BRBONYBDR001101
012016012614BOVA11      010ISHARES BOVACI           R$  000000000367500000000036750000000003605000000000363600000000036450000000003645000000000365008932000000000003018250000000010976840440000000000000009999123100000010000000000000BRBOVACTF003102
012016012696BOVA11F     020ISHARES BOVACI           R$  000000000368600000000036860000000003615000000000363100000000036430000000003641000000000375000007000000000000000027000000000000098061000000000000009999123100000010000000000000BRBOVACTF003102
012016012662BOVA11T     030ISHARES BOVACI        030R$  000000000367400000000036750000000003674000000000367400000000036750000000000000000000000000000002000000000000000100000000000000367474000000000000009999123100000010000000000000BRBOVACTF003102
012016012678BOVAB37     070BOVA  FM    CI        000R$  000000000007600000000000760000000000071000000000007300000000000730000000000000000000000007400004000000000000000400000000000000029200000000000370002016021500000010000000000000BRBOVACTF003102
012016012678BOVAB38     070BOVA  FM    CI        000R$  000000000003300000000000330000000000033000000000003300000000000330000000000000000000000015000001000000000000002400000000000000079200000000000380002016021500000010000000000000BRBOVACTF003102
012016012678BOVAB39     070BOVA  FM    CI        000R$  000000000001800000000000180000000000015000000000001600000000000180000000000014000000000000000005000000000000001390000000000000023320000000000390002016021500000010000000000000BRBOVACTF003102
012016012678BOVAC38     070BOVA  FM    CI        000R$  000000000012100000000001210000000000120000000000012000000000001200000000000000000000000000000002000000000000001870000000000000226200000000000380002016032100000010000000000000BRBOVACTF003102
012016012678BOVAC39     070BOVA  FM    CI        000R$  000000000008400000000000840000000000083000000000008300000000000830000000000000000000000009300002000000000000000180000000000000015020000000000390002016032100000010000000000000BRBOVACTF003102
012016012678BOVAC40     070BOVA  FM    CI        000R$  000000000005600000000000560000000000056000000000005600000000000560000000000000000000000005800001000000000000000100000000000000005600000000000400002016032100000010000000000000BRBOVACTF003102
012016012682BOVAN35     080BOVAE FM    CI        000R$  000000000004300000000000430000000000038000000000003800000000000380000000000000000000000000000002000000000000002530000000000000096640000000000350002016021500000010000000000000BRBOVACTF003102
012016012682BOVAN36     080BOVAE FM    CI        000R$  000000000007700000000000770000000000069000000000007400000000000750000000000000000000000007000008000000000000002900000000000000216200000000000360002016021500000010000000000000BRBOVACTF003102
012016012682BOVAN38     080BOVAE FM    CI        000R$  000000000018100000000001860000000000173000000000017900000000001730000000000000000000000000000016000000000000002700000000000000484200000000000380002016021500000010000000000000BRBOVACTF003102
012016012682BOVAN39     080BOVAE       CI        000R$  000000000027800000000002780000000000250000000000026400000000002700000000000000000000000025800005000000000000010500000000000002776500000000000390002016021500000010000000000000BRBOVACTF003102
012016012682BOVAO35     080BOVAE FM    CI        000R$  000000000008700000000000910000000000086000000000008800000000000870000000000000000000000008800011000000000000001300000000000000114600000000000350002016032100000010000000000000BRBOVACTF003102
012016012602BPAN4       010BANCO PAN   PN      N1   R$  000000000019000000000001900000000000181000000000018300000000001860000000000181000000000018600028000000000000013300000000000002436400000000000000009999123100000010000000000000BRBPANACNPR1103
012016012612BPFF11      010FII ABSOLUTOCI           R$  000000000590000000000059970000000005837000000000586000000000058990000000005840000000000594100054000000000000002274000000000013326342000000000000009999123100000010000000000000BRBPFFCTF002133
012016012622BPHA11      010BR PHARMA   BNS ORD NM   R$  000000000000200000000000020000000000002000000000000200000000000020000000000001000000000000200001000000000000005000000000000000010000000000000000009999123100000010000000000000BRBPHAN01OR0100
012016012602BPHA3       010BR PHARMA   ON      NM   R$  000000000039400000000004050000000000369000000000038600000000003800000000000379000000000038900183000000000000060600000000000023446800000000000000009999123100000010000000000000BRBPHAACNOR6104
012016012696BPHA3F      020BR PHARMA   ON      NM   R$  000000000039000000000004180000000000380000000000038900000000003820000000000382000000000040400013000000000000000279000000000000108620000000000000009999123100000010000000000000BRBPHAACNOR6104
012016012602BRAP3       010BRADESPAR   ON      N1   R$  000000000028500000000002850000000000265000000000027800000000002690000000000269000000000028200074000000000000028700000000000007984800000000000000009999123100000010000000000000BRBRAPACNOR5129
012016012696BRAP3F      020BRADESPAR   ON      N1   R$  000000000030000000000003000000000000261000000000028500000000002690000000000268000000000028000008000000000000000170000000000000048573000000000000009999123100000010000000000000BRBRAPACNOR5129
012016012662BRAP3T      030BRADESPAR   ON      N1090R$  000000000028600000000002870000000000286000000000028600000000002870000000000000000000000000000002000000000000002000000000000000573625000000000000009999123100000010000000000000BRBRAPACNOR5129
012016012602BRAP4       010BRADESPAR   PN      N1   R$  000000000030500000000003140000000000295000000000030400000000003140000000000313000000000031407619000000000003478800000000001058762000000000000000009999123100000010000000000000BRBRAPACNPR2129
012016012696BRAP4F      020BRADESPAR   PN      N1   R$  000000000031600000000003160000000000297000000000030200000000003150000000000303000000000031500046000000000000001272000000000000385173000000000000009999123100000010000000000000BRBRAPACNPR2129
012016012662BRAP4T      030BRADESPAR   PN      N1181R$  000000000033700000000003380000000000337000000000033700000000003380000000000000000000000000000002000000000000003000000000000001012838000000000000009999123100000010000000000000BRBRAPACNPR2129
012016012614BRAX11      010ISHARES BRAXCI           R$  000000000311400000000031180000000003092000000000310400000000031180000000003061000000000400000006000000000000005160000000000016019180000000000000009999123100000010000000000000BRBRAXCTF002100
012016012612BRCR11      010FII BC FUND CI           R$  000000000807900000000080960000000007730000000000787700000000077980000000007767000000000779802190000000000000120091000000000945961791000000000000009999123100000010000000000000BRBRCRCTF000161
012016012602BRFS3       010BRF SA      ON      NM   R$  000000000469300000000046930000000004562000000000458900000000045620000000004562000000000457910818000000000002506300000000011503767200000000000000009999123100000010000000000000BRBRFSACNOR8115
012016012696BRFS3F      020BRF SA      ON      NM   R$  000000000470800000000047080000000004571000000000460900000000046470000000004575000000000464700231000000000000002195000000000010118100000000000000009999123100000010000000000000BRBRFSACNOR8115
012016012662BRFS3T      030BRF SA      ON      NM045R$  000000000466600000000046670000000004666000000000466600000000046670000000000000000000000000000002000000000000001200000000000005600018000000000000009999123100000010000000000000BRBRFSACNOR8115
012016012662BRFS3T      030BRF SA      ON      NM062R$  000000000476600000000047670000000004766000000000476600000000047670000000000000000000000000000002000000000000017900000000000085328613000000000000009999123100000010000000000000BRBRFSACNOR8115
012016012662BRFS3T      030BRF SA      ON      NM090R$  000000000484100000000048420000000004841000000000484100000000048420000000000000000000000000000002000000000000000500000000000002420884000000000000009999123100000010000000000000BRBRFSACNOR8115
012016012678BRFSB19     070BRFS  FM    ON      NM000R$  000000000003900000000000390000000000036000000000003700000000000360000000000000000000000000000004000000000000007200000000000000271800000000000492102016021500000010000000000000BRBRFSACNOR8115
012016012678BRFSB41     070BRFSE       ON      NM000R$  000000000000100000000000010000000000001000000000000100000000000010000000000000000000000004000001000000000000000500000000000000000500000000000604602016021500000010000000000000BRBRFSACNOR8114
012016012678BRFSB46     070BRFS  FM    ON      NM000R$  000000000015800000000001630000000000128000000000014900000000001320000000000000000000000000000011000000000000014200000000000002129100000000000462102016021500000010000000000000BRBRFSACNOR8115
012016012678BRFSB47     070BRFSE       ON      NM000R$  000000000013000000000001300000000000095000000000011200000000001100000000000000000000000011200006000000000000005000000000000000564500000000000469602016021500000010000000000000BRBRFSACNOR8115
012016012678BRFSB48     070BRFS  FM    ON      NM000R$  000000000006800000000000680000000000052000000000005600000000000520000000000000000000000000000008000000000000013700000000000000772100000000000482102016021500000010000000000000BRBRFSACNOR8115
012016012678BRFSB50     070BRFS  FM    ON      NM000R$  000000000003300000000000390000000000027000000000002900000000000270000000000012000000000000000004000000000000005400000000000000156600000000000497102016021500000010000000000000BRBRFSACNOR8115
012016012678BRFSB58     070BRFS        ON      NM000R$  000000000000200000000000020000000000002000000000000200000000000020000000000001000000000000000001000000000000000600000000000000001200000000000579602016021500000010000000000000BRBRFSACNOR8114
012016012678BRFSB7      070BRFS  FM    ON      NM000R$  000000000010000000000001270000000000100000000000010400000000001020000000000000000000000015700007000000000000010900000000000001142200000000000472102016021500000010000000000000BRBRFSACNOR8115
012016012678BRFSC1      070BRFS  FM    ON      NM000R$  000000000011500000000001150000000000115000000000011500000000001150000000000000000000000000000001000000000000002100000000000000241500000000000498902016032100000010000000000000BRBRFSACNOR8115
012016012678BRFSC16     070BRFS  FM    ON      NM000R$  000000000026500000000002650000000000232000000000025000000000002320000000000000000000000000000005000000000000008100000000000002031000000000000468902016032100000010000000000000BRBRFSACNOR8115
012016012678BRFSC47     070BRFS  FM    ON      NM000R$  000000000029200000000002920000000000254000000000026800000000002570000000000000000000000000000007000000000000012000000000000003216900000000000463902016032100000010000000000000BRBRFSACNOR8114
012016012678BRFSC49     070BRFS  FM    ON      NM000R$  000000000017000000000001700000000000170000000000017000000000001700000000000000000000000000000001000000000000002100000000000000357000000000000483902016032100000010000000000000BRBRFSACNOR8114
012016012678BRFSC50     070BRFS  FM    ON      NM000R$  000000000013000000000001340000000000130000000000013100000000001340000000000000000000000000000002000000000000004000000000000000527600000000000493902016032100000010000000000000BRBRFSACNOR8114
012016012678BRFSD32     070BRFSE       ON      NM000R$  000000000001200000000000120000000000012000000000001200000000000120000000000000000000000000000001000000000000009000000000000000108000000000000614602016041800000010000000000000BRBRFSACNOR8113
012016012678BRFSH8      070BRFS        ON      NM000R$  000000000004300000000000430000000000043000000000004300000000000430000000000000000000000000000001000000000000000100000000000000004300000000000673902016081500000010000000000000BRBRFSACNOR8114
012016012682BRFSN45     080BRFSE FM    ON      NM000R$  000000000008000000000000890000000000080000000000008400000000000830000000000000000000000000000008000000000000017000000000000001430600000000000449602016021500000010000000000000BRBRFSACNOR8115
012016012682BRFSN46     080BRFSE FM    ON      NM000R$  000000000011200000000001430000000000106000000000012200000000001430000000000000000000000000000008000000000000012400000000000001512900000000000462102016021500000010000000000000BRBRFSACNOR8115
012016012682BRFSN47     080BRFSE FM    ON      NM000R$  000000000013400000000001840000000000134000000000016400000000001750000000000000000000000000000015000000000000025800000000000004231800000000000469602016021500000010000000000000BRBRFSACNOR8115
012016012682BRFSN48     080BRFSE FM    ON      NM000R$  000000000023000000000002650000000000220000000000023900000000002520000000000000000000000000000014000000000000020400000000000004882700000000000482102016021500000010000000000000BRBRFSACNOR8115
012016012682BRFSO16     080BRFSE FM    ON      NM000R$  000000000021300000000002470000000000213000000000023800000000002390000000000000000000000000000010000000000000210300000000000050190100000000000468902016032100000010000000000000BRBRFSACNOR8115
012016012682BRFSO45     080BRFSE FM    ON      NM000R$  000000000013600000000001650000000000135000000000014300000000001650000000000000000000000000000014000000000000017800000000000002557800000000000448902016032100000010000000000000BRBRFSACNOR8115
012016012682BRFSO47     080BRFSE FM    ON      NM000R$  000000000019100000000002230000000000185000000000020700000000002170000000000000000000000000000008000000000000011100000000000002298400000000000463902016032100000010000000000000BRBRFSACNOR8114
012016012682BRFSO49     080BRFSE FM    ON      NM000R$  000000000028700000000003360000000000287000000000030900000000003220000000000000000000000000000014000000000000018100000000000005597100000000000483902016032100000010000000000000BRBRFSACNOR8114
012016012682BRFSP18     080BRFSE       ON      NM000R$  000000000011000000000001630000000000110000000000016000000000001630000000000000000000000000000002000000000000002200000000000000353300000000000442102016041800000010000000000000BRBRFSACNOR8113
012016012682BRFSP36     080BRFSE       ON      NM000R$  000000000082200000000008220000000000822000000000082200000000008220000000000000000000000000000001000000000000009000000000000007398000000000000554602016041800000010000000000000BRBRFSACNOR8114
012016012682BRFSP49     080BRFSE       ON      NM000R$  000000000040000000000004000000000000400000000000040000000000004000000000000000000000000000000001000000000000009000000000000003600000000000000489602016041800000010000000000000BRBRFSACNOR8114
012016012602BRIN3       010BR INSURANCEON      NM   R$  000000000189000000000018900000000001641000000000172000000000017000000000001660000000000170000232000000000000050100000000000086173900000000000000009999123100000010000000000000BRBRINACNOR3110
012016012696BRIN3F      020BR INSURANCEON      NM   R$  000000000180100000000018250000000001710000000000176000000000017100000000001658000000000174900023000000000000000334000000000000588137000000000000009999123100000010000000000000BRBRINACNOR3110
012016012602BRIV4       010ALFA INVEST PN  EJ       R$  000000000066900000000006890000000000669000000000067000000000006890000000000000000000000068900004000000000000001200000000000000804800000000000000009999123100000010000000000000BRBRIVACNPR3202
012016012602BRKM3       010BRASKEM     ON      N1   R$  000000000155900000000015600000000001547000000000154700000000015600000000001535000000000156000012000000000000014500000000000022437000000000000000009999123100000010000000000000BRBRKMACNOR1112
012016012696BRKM3F      020BRASKEM     ON      N1   R$  000000000161000000000016100000000001610000000000161000000000016100000000001610000000000185000001000000000000000010000000000000016100000000000000009999123100000010000000000000BRBRKMACNOR1112
012016012602BRKM5       010BRASKEM     PNA     N1   R$  000000000236400000000023800000000002313000000000233900000000023410000000002340000000000234109584000000000001906100000000004460092800000000000000009999123100000010000000000000BRBRKMACNPA4112
012016012696BRKM5F      020BRASKEM     PNA     N1   R$  000000000239800000000023980000000002316000000000235100000000023530000000002310000000000235300076000000000000001416000000000003330369000000000000009999123100000010000000000000BRBRKMACNPA4112
012016012662BRKM5T      030BRASKEM     PNA     N1016R$  000000000235600000000023570000000002356000000000235600000000023570000000000000000000000000000002000000000000002000000000000004713450000000000000009999123100000010000000000000BRBRKMACNPA4112
012016012662BRKM5T      030BRASKEM     PNA     N1030R$  000000000236600000000023670000000002366000000000236600000000023670000000000000000000000000000002000000000000020000000000000047320974000000000000009999123100000010000000000000BRBRKMACNPA4112
012016012662BRKM5T      030BRASKEM     PNA     N1181R$  000000000251300000000025140000000002513000000000251300000000025140000000000000000000000000000002000000000000001000000000000002513570000000000000009999123100000010000000000000BRBRKMACNPA4112
012016012602BRML3       010BR MALLS PARON      NM   R$  000000000107200000000010720000000001033000000000104900000000010580000000001058000000000105910196000000000004415700000000004636242800000000000000009999123100000010000000000000BRBRMLACNOR9108
012016012696BRML3F      020BR MALLS PARON      NM   R$  000000000107000000000011210000000001040000000000105800000000010990000000001052000000000109900119000000000000002086000000000002208094000000000000009999123100000010000000000000BRBRMLACNOR9108
012016012678BRMLL3      070BRML        ON      NM000R$  000000000010200000000001030000000000102000000000010200000000001030000000000000000000000000000007000000000004604000000000000469612000000000000130002016121900000010000000000000BRBRMLACNOR9108
012016012678BRMLL40     070BRML        ON      NM000R$  000000000020400000000002040000000000203000000000020300000000002030000000000000000000000000000003000000000002300100000000000468070400000000000105002016121900000010000000000000BRBRMLACNOR9108
012016012682BRMLN10     080BRMLE FM    ON      NM000R$  000000000002400000000000240000000000024000000000002400000000000240000000000000000000000000000001000000000000001000000000000000024000000000000100002016021500000010000000000000BRBRMLACNOR9108
012016012602BRPR3       010BR PROPERT  ON      NM   R$  000000000076500000000007660000000000749000000000075700000000007580000000000758000000000076101347000000000005896200000000004468867600000000000000009999123100000010000000000000BRBRPRACNOR9116
012016012696BRPR3F      020BR PROPERT  ON      NM   R$  000000000077900000000007790000000000754000000000076800000000007540000000000749000000000075800026000000000000000367000000000000281974000000000000009999123100000010000000000000BRBRPRACNOR9116
012016012678BRPRC10     070BRPR        ON      NM000R$  000000000000100000000000010000000000001000000000000100000000000010000000000000000000000000000001000000000000200000000000000000200000000000000100002016032100000010000000000000BRBRPRACNOR9116
012016012682BRPRO75     080BRPRE       ON      NM000R$  000000000003500000000000350000000000035000000000003500000000000350000000000000000000000000000001000000000000200000000000000007000000000000000075002016032100000010000000000000BRBRPRACNOR9116
012016012682BRPRO85     080BRPRE       ON      NM000R$  000000000009500000000000950000000000095000000000009500000000000950000000000000000000000000000001000000000000200000000000000019000000000000000085002016032100000010000000000000BRBRPRACNOR9116
012016012696BRSR5F      020BANRISUL    PNA     N1   R$  000000000062000000000006200000000000620000000000062000000000006200000000000620000000000081000001000000000000000001000000000000000620000000000000009999123100000010000000000000BRBRSRACNPA6146
012016012602BRSR6       010BANRISUL    PNB     N1   R$  000000000043100000000004310000000000412000000000041600000000004140000000000414000000000041605045000000000001086300000000000452716500000000000000009999123100000010000000000000BRBRSRACNPB4145
012016012696BRSR6F      020BANRISUL    PNB     N1   R$  000000000042500000000004250000000000412000000000041600000000004120000000000412000000000046000047000000000000001025000000000000427148000000000000009999123100000010000000000000BRBRSRACNPB4145
012016012662BRSR6T      030BANRISUL    PNB     N1016R$  000000000042600000000004270000000000419000000000042300000000004200000000000000000000000000000020000000000000006000000000000002541848000000000000009999123100000010000000000000BRBRSRACNPB4145
012016012662BRSR6T      030BANRISUL    PNB     N1181R$  000000000044700000000004480000000000447000000000044700000000004480000000000000000000000000000002000000000000003000000000000001341948000000000000009999123100000010000000000000BRBRSRACNPB4145
012016012602BSEV3       010BIOSEV      ON      NM   R$  000000000048200000000004820000000000482000000000048200000000004820000000000481000000000048200001000000000000000100000000000000048200000000000000009999123100000010000000000000BRBSEVACNOR3101
012016012696BSEV3F      020BIOSEV      ON      NM   R$  000000000048100000000004810000000000479000000000047900000000004790000000000425000000000056000006000000000000000028000000000000013418000000000000009999123100000010000000000000BRBSEVACNOR3101
012016012602BTOW3       010B2W DIGITAL ON      NM   R$  000000000129000000000013150000000001274000000000129500000000013000000000001287000000000130000955000000000000160900000000000208396900000000000000009999123100000010000000000000BRBTOWACNOR8107
012016012696BTOW3F      020B2W DIGITAL ON      NM   R$  000000000133400000000013340000000001271000000000129200000000012710000000001271000000000139700010000000000000000326000000000000421233000000000000009999123100000010000000000000BRBTOWACNOR8107
012016012602BTTL4       010BATTISTELLA PN           R$  000000000098000000000010800000000000980000000000103000000000010800000000000950000000000110000002000000000000000200000000000000206000000000000000009999123100000010000000000000BRBTTLACNPR7106
012016012696BTTL4F      020BATTISTELLA PN           R$  000000000100000000000010500000000001000000000000101600000000010500000000000960000000000105000002000000000000000036000000000000036600000000000000009999123100000010000000000000BRBTTLACNPR7106
012016012602BVMF3       010BMFBOVESPA  ON      NM   R$  000000000099900000000010020000000000973000000000098900000000009950000000000993000000000099632631000000000018567100000000018377718700000000000000009999123100000010000000000000BRBVMFACNOR3136
012016012696BVMF3F      020BMFBOVESPA  ON      NM   R$  000000000100100000000010010000000000974000000000098800000000010000000000000990000000000100000105000000000000002451000000000002421944000000000000009999123100000010000000000000BRBVMFACNOR3136
012016012662BVMF3T      030BMFBOVESPA  ON      NM062R$  000000000102000000000010210000000001020000000000102000000000010210000000000000000000000000000002000000000000001500000000000001530268000000000000009999123100000010000000000000BRBVMFACNOR3136
012016012678BVMFB10     070BVMF        ON      NM000R$  000000000004200000000000500000000000042000000000004700000000000500000000000001000000000005200003000000000000003100000000000000147000000000000096402016021500000010000000000000BRBVMFACNOR3134
012016012678BVMFB11     070BVMF  FM    ON      NM000R$  000000000001200000000000120000000000007000000000000900000000000070000000000006000000000001000024000000000000069100000000000000622000000000000106402016021500000010000000000000BRBVMFACNOR3134
012016012678BVMFB12     070BVMF  FM    ON      NM000R$  000000000000300000000000030000000000002000000000000200000000000020000000000002000000000000300003000000000000000500000000000000001400000000000116402016021500000010000000000000BRBVMFACNOR3134
012016012678BVMFB13     070BVMF        ON      NM000R$  000000000000100000000000010000000000001000000000000100000000000010000000000000000000000000200001000000000000001000000000000000001000000000000126402016021500000010000000000000BRBVMFACNOR3134
012016012678BVMFB40     070BVMF        ON      NM000R$  000000000002600000000000280000000000017000000000002000000000000220000000000021000000000006200015000000000000051100000000000001067800000000000101402016021500000010000000000000BRBVMFACNOR3134
012016012678BVMFB41     070BVMF  FM    ON      NM000R$  000000000000400000000000050000000000004000000000000400000000000050000000000003000000000000800002000000000000007600000000000000034000000000000111402016021500000010000000000000BRBVMFACNOR3134
012016012678BVMFB42     070BVMF  FM    ON      NM000R$  000000000000200000000000020000000000002000000000000200000000000020000000000001000000000000200001000000000000100000000000000000200000000000000121402016021500000010000000000000BRBVMFACNOR3134
012016012678BVMFB70     070BVMFE       ON      NM000R$  000000000001600000000000160000000000011000000000001100000000000140000000000011000000000000000005000000000000006200000000000000072000000000000103902016021500000010000000000000BRBVMFACNOR3134
012016012678BVMFB71     070BVMFE       ON      NM000R$  000000000000300000000000030000000000003000000000000300000000000030000000000000000000000000000001000000000000003000000000000000009000000000000113902016021500000010000000000000BRBVMFACNOR3134
012016012678BVMFB99     070BVMF        ON      NM000R$  000000000004100000000000410000000000030000000000003900000000000300000000000030000000000000000009000000000000102000000000000004021000000000000098402016021500000010000000000000BRBVMFACNOR3136
012016012678BVMFC11     070BVMF  FM    ON      NM000R$  000000000003900000000000440000000000039000000000004000000000000440000000000000000000000000000003000000000000006000000000000000243000000000000103002016032100000010000000000000BRBVMFACNOR3131
012016012678BVMFC12     070BVMF  FM    ON      NM000R$  000000000001800000000000190000000000015000000000001500000000000180000000000010000000000002100012000000000000030000000000000000466000000000000113002016032100000010000000000000BRBVMFACNOR3131
012016012678BVMFC40     070BVMF        ON      NM000R$  000000000006700000000000680000000000059000000000006100000000000680000000000000000000000000000015000000000000059300000000000003676500000000000098002016032100000010000000000000BRBVMFACNOR3131
012016012678BVMFC41     070BVMF  FM    ON      NM000R$  000000000003100000000000310000000000023000000000002700000000000270000000000001000000000000000003000000000000004000000000000000108000000000000108002016032100000010000000000000BRBVMFACNOR3131
012016012678BVMFC42     070BVMF  FM    ON      NM000R$  000000000001100000000000110000000000010000000000001000000000000100000000000000000000000001200002000000000000010300000000000000113000000000000118002016032100000010000000000000BRBVMFACNOR3131
012016012678BVMFC43     070BVMF        ON      NM000R$  000000000000400000000000040000000000004000000000000400000000000040000000000000000000000000000001000000000000004000000000000000016000000000000128002016032100000010000000000000BRBVMFACNOR3131
012016012678BVMFC71     070BVMFE       ON      NM000R$  000000000005500000000000550000000000055000000000005500000000000550000000000000000000000000000001000000000000006000000000000000330000000000000100502016032100000010000000000000BRBVMFACNOR3131
012016012678BVMFC72     070BVMFE       ON      NM000R$  000000000003000000000000350000000000030000000000003400000000000350000000000000000000000000000002000000000000003100000000000000108000000000000105502016032100000010000000000000BRBVMFACNOR3131
012016012678BVMFC73     070BVMFE       ON      NM000R$  000000000002400000000000240000000000024000000000002400000000000240000000000000000000000000000001000000000000001000000000000000024000000000000110502016032100000010000000000000BRBVMFACNOR3131
012016012678BVMFD40     070BVMF        ON      NM000R$  000000000006400000000000640000000000064000000000006400000000000640000000000000000000000000000001000000000000000500000000000000032000000000000103002016041800000010000000000000BRBVMFACNOR3136
012016012678BVMFD41     070BVMF        ON      NM000R$  000000000002800000000000280000000000028000000000002800000000000280000000000000000000000000000001000000000000003000000000000000084000000000000113002016041800000010000000000000BRBVMFACNOR3136
012016012678BVMFD81     070BVMF        ON      NM000R$  000000000003900000000000390000000000039000000000003900000000000390000000000000000000000000000001000000000000000100000000000000003900000000000108002016041800000010000000000000BRBVMFACNOR3131
012016012682BVMFN10     080BVMFE       ON      NM000R$  000000000001500000000000160000000000015000000000001500000000000160000000000001000000000000000006000000000000020400000000000000306300000000000096402016021500000010000000000000BRBVMFACNOR3134
012016012682BVMFN11     080BVMFE       ON      NM000R$  000000000007000000000000850000000000070000000000008200000000000850000000000001000000000012000009000000000000019400000000000001607700000000000106402016021500000010000000000000BRBVMFACNOR3134
012016012682BVMFN40     080BVMFE       ON      NM000R$  000000000003800000000000380000000000038000000000003800000000000380000000000000000000000000000002000000000000012000000000000000456000000000000101402016021500000010000000000000BRBVMFACNOR3134
