00COTAHIST.2014BOVESPA 20140102                                                                                                                                                                                                                      
012014010202AAPL34      010APPLE       DRN          R$  000000001321200000000132120000000013212000000001321200000000132120000000013190000000001334000001000000000000000900000000000011890800000000000000009999123100000010000000000000BRAAPLBDR004106
012014010202ABCB4       010ABC BRASIL  PN  EJS N2   R$  000000000123100000000012360000000001170000000000119200000000011900000000001175000000000119001544000000000000361200000000000430789400000000000000009999123100000010000000000000BRABCBACNPR4121
012014010296ABCB4F      020ABC BRASIL  PN  EJS N2   R$  000000000121000000000012100000000001176000000000117900000000011760000000001152000000000124900003000000000000000143000000000000168614000000000000009999123100000010000000000000BRABCBACNPR4121
012014010262ABCB4T      030ABC BRASIL  PN  EJS N2361R$  000000000134600000000013470000000001346000000000134600000000013470000000000000000000000000000002000000000000000100000000000000134639000000000000009999123100000010000000000000BRABCBACNPR4121
012014010202ABEV3       010AMBEV S/A   ON           R$  000000000173000000000017500000000001718000000000173900000000017390000000001738000000000174022569000000000008035400000000013974472400000000000000009999123100000010000000000000BRABEVACNOR1100
012014010296ABEV3F      020AMBEV S/A   ON           R$  000000000172600000000017500000000001711000000000173800000000017500000000001740000000000175000341000000000000010795000000000018764429000000000000009999123100000010000000000000BRABEVACNOR1100
012014010262ABEV3T      030AMBEV S/A   ON        180R$  000000000181500000000018160000000001815000000000181500000000018160000000000000000000000000000002000000000000006500000000000011799123000000000000009999123100000010000000000000BRABEVACNOR1100
012014010202ABRE11      010ABRIL EDUCA UNT     N2   R$  000000000332300000000033560000000003198000000000326600000000032530000000003215000000000325500789000000000000104700000000000342050000000000000000009999123100000010000000000000BRABRECDAM15102
012014010296ABRE11F     020ABRIL EDUCA UNT     N2   R$  000000000334000000000033400000000003207000000000325600000000032070000000003207000000000339900007000000000000000159000000000000517853000000000000009999123100000010000000000000BRABRECDAM15102
012014010202AEDU3       010ANHANGUERA  ON      NM   R$  000000000149100000000014940000000001432000000000145900000000014550000000001455000000000146006270000000000001416300000000002066946100000000000000009999123100000010000000000000BRAEDUACNOR9107
012014010296AEDU3F      020ANHANGUERA  ON      NM   R$  000000000150900000000015350000000001440000000000146700000000014750000000001389000000000147500123000000000000001166000000000001711403000000000000009999123100000010000000000000BRAEDUACNOR9107
012014010212AEFI11      010FII AESAPAR CI  ER       R$  000000001179900000000117990000000011400000000001152400000000115000000000011462000000001150000029000000000000000790000000000009104300000000000000009999123100000010000000000000BRAEFICTF002125
012014010202AELP3       010AES ELPA    ON           R$  000000000087100000000008710000000000871000000000087100000000008710000000000821000000000092400001000000000000000200000000000000174200000000000000009999123100000010000000000000BRAELPACNOR2120
012014010202AGRO3       010BRASILAGRO  ON  ED  NM   R$  000000000096000000000009600000000000945000000000094600000000009500000000000925000000000095000007000000000000003800000000000003598000000000000000009999123100000010000000000000BRAGROACNOR7103
012014010202ALLL3       010ALL AMER LATON      NM   R$  000000000065400000000006540000000000621000000000063100000000006300000000000627000000000063019225000000000006661900000000004203874300000000000000009999123100000010000000000000BRALLLACNOR6118
012014010296ALLL3F      020ALL AMER LATON      NM   R$  000000000065300000000006530000000000622000000000063100000000006280000000000623000000000062800062000000000000001643000000000001037564000000000000009999123100000010000000000000BRALLLACNOR6118
012014010262ALLL3T      030ALL AMER LATON      NM018R$  000000000063400000000006350000000000634000000000063400000000006350000000000000000000000000000002000000000000003300000000000002092295000000000000009999123100000010000000000000BRALLLACNOR6118
012014010262ALLL3T      030ALL AMER LATON      NM032R$  000000000064100000000006420000000000631000000000063100000000006320000000000000000000000000000004000000000000005400000000000003411653000000000000009999123100000010000000000000BRALLLACNOR6118
012014010262ALLL3T      030ALL AMER LATON      NM062R$  000000000064600000000006470000000000646000000000064600000000006470000000000000000000000000000002000000000000002000000000000001293620000000000000009999123100000010000000000000BRALLLACNOR6118
012014010262ALLL3T      030ALL AMER LATON      NM120R$  000000000065100000000006520000000000651000000000065100000000006520000000000000000000000000000002000000000000001000000000000000651737000000000000009999123100000010000000000000BRALLLACNOR6118
012014010262ALLL3T      030ALL AMER LATON      NM361R$  000000000069700000000006980000000000697000000000069700000000006980000000000000000000000000000002000000000000000200000000000000139420000000000000009999123100000010000000000000BRALLLACNOR6118
012014010212ALMI11B     010FII TORRE ALCI  ER  MB   R$  000000031200000000003120000000000311000000000031129000000003110000000000311000000000031390000009000000000000000010000000000003112903000000000000009999123100000010000000000000BRALMICTF003209
012014010202ALPA4       010ALPARGATAS  PN      N1   R$  000000000147400000000014830000000001400000000000142200000000014000000000001399000000000140000688000000000000152200000000000216436000000000000000009999123100000010000000000000BRALPAACNPR7204
012014010296ALPA4F      020ALPARGATAS  PN      N1   R$  000000000143000000000014300000000001411000000000141500000000014110000000001411000000000141700074000000000000001801000000000002548853000000000000009999123100000010000000000000BRALPAACNPR7204
012014010262ALPA4T      030ALPARGATAS  PN      N1062R$  000000000143800000000014390000000001438000000000143800000000014390000000000000000000000000000002000000000000000300000000000000431519000000000000009999123100000010000000000000BRALPAACNPR7204
012014010202ALSC3       010ALIANSCE    ON      NM   R$  000000000182900000000018440000000001800000000000181100000000018100000000001810000000000181201076000000000000341900000000000619367300000000000000009999123100000010000000000000BRALSCACNOR0104
012014010296ALSC3F      020ALIANSCE    ON      NM   R$  000000000181100000000019950000000001811000000000182300000000019950000000001804000000000210000004000000000000000075000000000000136745000000000000009999123100000010000000000000BRALSCACNOR0104
012014010202ALUP11      010ALUPAR      UNT     N2   R$  000000000162400000000016490000000001608000000000162100000000016190000000001619000000000162602267000000000000381900000000000619419700000000000000009999123100000010000000000000BRALUPCDAM15100
012014010296ALUP11F     020ALUPAR      UNT     N2   R$  000000000163000000000016960000000001600000000000162700000000016960000000001610000000000169600026000000000000000870000000000001415584000000000000009999123100000010000000000000BRALUPCDAM15100
012014010202AMAR3       010LOJAS MARISAON      NM   R$  000000000185900000000019070000000001818000000000186600000000018400000000001840000000000185402297000000000000358200000000000668620700000000000000009999123100000010000000000000BRAMARACNOR4109
012014010296AMAR3F      020LOJAS MARISAON      NM   R$  000000000184000000000018400000000001833000000000183500000000018330000000001818000000000190000002000000000000000026000000000000047735000000000000009999123100000010000000000000BRAMARACNOR4109
012014010212ANCR11B     010FII ANCAR ICCI      MB   R$  000000014100000000001410000000000141000000000014100000000001410000000000058000000000014100000001000000000000000001000000000000141000000000000000009999123100000010000000000000BRANCRCTF001130
012014010202ANIM3       010ANIMA       ON      NM   R$  000000000212400000000021240000000002040000000000209100000000020750000000002065000000000208100408000000000000134400000000000281037700000000000000009999123100000010000000000000BRANIMACNOR6100
012014010296ANIM3F      020ANIMA       ON      NM   R$  000000000208000000000020800000000002055000000000207600000000020550000000002040000000000209000003000000000000000100000000000000207625000000000000009999123100000010000000000000BRANIMACNOR6100
012014010262ANIM3T      030ANIMA       ON      NM032R$  000000000210500000000021060000000002105000000000210500000000021060000000000000000000000000000002000000000000003000000000000006317244000000000000009999123100000010000000000000BRANIMACNOR6100
012014010202AORE3       010ALL ORE     ON           R$  000000000008800000000000900000000000088000000000008800000000000900000000000085000000000009000002000000000000001000000000000000088600000000000000009999123100000010000000000000BRAOREACNOR2100
012014010202ARTR3       010ARTERIS     ON      NM   R$  000000000190400000000019200000000001871000000000189700000000019200000000001919000000000192001241000000000000385400000000000731282100000000000000009999123100000010000000000000BRARTRACNOR3102
012014010296ARTR3F      020ARTERIS     ON      NM   R$  000000000189500000000019500000000001885000000000191300000000018850000000001876000000000196300011000000000000000350000000000000669628000000000000009999123100000010000000000000BRARTRACNOR3102
012014010202ARZZ3       010AREZZO CO   ON  EJ  NM   R$  000000000296900000000030640000000002952000000000299500000000030500000000003027000000000306500841000000000000304700000000000912796600000000000000009999123100000010000000000000BRARZZACNOR3111
012014010296ARZZ3F      020AREZZO CO   ON  EJ  NM   R$  000000000297500000000030500000000002975000000000304400000000030500000000002841000000000320000003000000000000000034000000000000103523000000000000009999123100000010000000000000BRARZZACNOR3111
012014010202ATTB34      010ATT INC     DRN          R$  000000000849000000000084900000000008490000000000849000000000084900000000008239000000000848300001000000000000001300000000000011037000000000000000009999123100000010000000000000BRATTBBDR007105
012014010202AUTM3       010AUTOMETAL   ON      NM   R$  000000000173100000000017540000000001712000000000173300000000017370000000001719000000000173800153000000000000031100000000000053916900000000000000009999123100000010000000000000BRAUTMACNOR8109
012014010296AUTM3F      020AUTOMETAL   ON      NM   R$  000000000174000000000017400000000001732000000000173500000000017330000000001601000000000173300003000000000000000076000000000000131902000000000000009999123100000010000000000000BRAUTMACNOR8109
012014010202AXPB34      010AMERICAN EXPDRN          R$  000000002163300000000216330000000021633000000002163300000000216330000000021131000000002175700001000000000000004700000000000101675100000000000000009999123100000010000000000000BRAXPBBDR007106
012014010202BAHI3       010BAHEMA      ON           R$  000000000050800000000005180000000000500000000000050600000000005180000000000491000000000051800006000000000000002300000000000001164000000000000000009999123100000010000000000000BRBAHIACNOR1066
012014010202BALM4       010BAUMER      PN           R$  000000001000000000000105000000000010000000000001007100000000105000000000003500000000000000000002000000000000000700000000000007050000000000000000009999123100000010000000000000BRBALMACNPR2043
012014010202BAZA3       010AMAZONIA    ON           R$  000000000003100000000000320000000000031000000000003100000000000320000000000032000000000003300008000000000000015000000000000000479000000000000000009999123100000010000000000000BRBAZAACNOR0163
012014010296BAZA3F      020AMAZONIA    ON           R$  000000000003300000000000330000000000031000000000003100000000000310000000000031000000000003400006000000000000000849000000000000027081000000000000009999123100000010000000000000BRBAZAACNOR0163
012014010202BBAS3       010BRASIL      ON      NM   R$  000000000244500000000024480000000002400000000000241600000000024000000000002400000000000241009848000000000004077900000000009851688800000000000000009999123100000010000000000000BRBBASACNOR3241
012014010296BBAS3F      020BRASIL      ON      NM   R$  000000000244400000000024490000000002403000000000242100000000024110000000002411000000000242700272000000000000006824000000000016521209000000000000009999123100000010000000000000BRBBASACNOR3241
012014010262BBAS3T      030BRASIL      ON      NM018R$  000000000242100000000024220000000002421000000000242100000000024220000000000000000000000000000002000000000000002000000000000004842654000000000000009999123100000010000000000000BRBBASACNOR3241
012014010262BBAS3T      030BRASIL      ON      NM062R$  000000000246400000000024650000000002464000000000246400000000024650000000000000000000000000000002000000000000003000000000000007393442000000000000009999123100000010000000000000BRBBASACNOR3241
012014010278BBASA24     070BBAS  FM    ON      NM000R$  000000000018700000000001910000000000164000000000017700000000001670000000000164000000000019000056000000000000063900000000000011323100000000000226202014012000000010000000000000BRBBASACNOR3237
012014010278BBASA25     070BBAS  FM    ON      NM000R$  000000000010800000000001080000000000085000000000009500000000000910000000000087000000000009100178000000000000135400000000000012991400000000000236202014012000000010000000000000BRBBASACNOR3237
012014010278BBASA26     070BBAS  FM    ON      NM000R$  000000000004400000000000450000000000033000000000003900000000000350000000000032000000000004000038000000000000066200000000000002610000000000000246202014012000000010000000000000BRBBASACNOR3237
012014010278BBASA27     070BBAS  FM    ON      NM000R$  000000000001400000000000150000000000011000000000001200000000000120000000000010000000000001600044000000000000070500000000000000897600000000000256202014012000000010000000000000BRBBASACNOR3237
012014010278BBASA28     070BBAS        ON      NM000R$  000000000000200000000000030000000000002000000000000200000000000030000000000002000000000000500006000000000000007000000000000000015200000000000276702014012000000010000000000000BRBBASACNOR3239
012014010278BBASA57     070BBAS  FM    ON      NM000R$  000000000000600000000000060000000000005000000000000500000000000050000000000003000000000000700007000000000000007700000000000000042600000000000266702014012000000010000000000000BRBBASACNOR3239
012014010278BBASB24     070BBAS  FM    ON      NM000R$  000000000022600000000002270000000000211000000000022000000000002160000000000118000000000000000014000000000000025800000000000005681000000000000226202014021700000010000000000000BRBBASACNOR3237
012014010278BBASB25     070BBAS  FM    ON      NM000R$  000000000014800000000001490000000000140000000000014600000000001400000000000105000000000020000010000000000000017800000000000002605600000000000236202014021700000010000000000000BRBBASACNOR3237
012014010278BBASB26     070BBAS  FM    ON      NM000R$  000000000009600000000000960000000000082000000000008600000000000820000000000070000000000008600009000000000000509600000000000044317100000000000246202014021700000010000000000000BRBBASACNOR3237
012014010278BBASB27     070BBAS  FM    ON      NM000R$  000000000002400000000000240000000000023000000000002300000000000230000000000016000000000003900002000000000000004000000000000000093000000000000266702014021700000010000000000000BRBBASACNOR3239
012014010278BBASB28     070BBAS        ON      NM000R$  000000000001200000000000120000000000012000000000001200000000000120000000000010000000000002400001000000000000001000000000000000012000000000000276702014021700000010000000000000BRBBASACNOR3239
012014010278BBASB30     070BBAS        ON      NM000R$  000000000000300000000000030000000000003000000000000300000000000030000000000002000000000000900002000000000000035700000000000000107100000000000297402014021700000010000000000000BRBBASACNOR3240
012014010278BBASB56     070BBAS  FM    ON      NM000R$  000000000004800000000000480000000000043000000000004500000000000430000000000000000000000000000005000000000000009100000000000000415900000000000256202014021700000010000000000000BRBBASACNOR3240
012014010278BBASC25     070BBAS        ON      NM000R$  000000000011900000000001190000000000119000000000011900000000001190000000000000000000000000000001000000000000000500000000000000059500000000000246702014031700000010000000000000BRBBASACNOR3239
012014010278BBASC27     070BBAS        ON      NM000R$  000000000004500000000000450000000000045000000000004500000000000450000000000034000000000000000002000000000000001500000000000000067500000000000266702014031700000010000000000000BRBBASACNOR3239
012014010278BBASD26     070BBAS        ON      NM000R$  000000000009900000000000990000000000096000000000009600000000000960000000000000000000000000000003000000000000001700000000000000164700000000000257402014042200000010000000000000BRBBASACNOR3240
012014010278BBASD30     070BBAS        ON      NM000R$  000000000001600000000000190000000000016000000000001800000000000190000000000000000000000000000002000000000000001700000000000000032000000000000297402014042200000010000000000000BRBBASACNOR3240
012014010278BBASE26     070BBAS        ON      NM000R$  000000000012500000000001250000000000125000000000012500000000001250000000000000000000000000000001000000000000000200000000000000025000000000000257402014051900000010000000000000BRBBASACNOR3240
012014010278BBASE27     070BBAS        ON      NM000R$  000000000008800000000000880000000000088000000000008800000000000880000000000000000000000000000001000000000000001200000000000000105600000000000267402014051900000010000000000000BRBBASACNOR3240
012014010282BBASM23     080BBASE       ON      NM000R$  000000000000500000000000050000000000005000000000000500000000000050000000000000000000000000500001000000000000000100000000000000000500000000000216202014012000000010000000000000BRBBASACNOR3237
012014010282BBASM24     080BBASE FM    ON      NM000R$  000000000001000000000000130000000000010000000000001000000000000130000000000000000000000003500002000000000000011400000000000000118200000000000226202014012000000010000000000000BRBBASACNOR3237
012014010282BBASM25     080BBASE FM    ON      NM000R$  000000000003300000000000350000000000030000000000003100000000000320000000000026000000000003500011000000000000007100000000000000220900000000000236202014012000000010000000000000BRBBASACNOR3237
012014010282BBASM26     080BBASE FM    ON      NM000R$  000000000006700000000000830000000000067000000000007600000000000800000000000000000000000026900020000000000000031400000000000002392100000000000246202014012000000010000000000000BRBBASACNOR3237
012014010282BBASM27     080BBASE FM    ON      NM000R$  000000000012800000000001600000000000128000000000014300000000001570000000000000000000000018000028000000000000051300000000000007370500000000000256202014012000000010000000000000BRBBASACNOR3237
012014010282BBASM65     080BBASE       ON      NM000R$  000000000009400000000000940000000000094000000000009400000000000940000000000000000000000000000001000000000000001000000000000000094000000000000249902014012000000010000000000000BRBBASACNOR3240
012014010282BBASN23     080BBASE       ON      NM000R$  000000000001800000000000180000000000018000000000001800000000000180000000000000000000000000000001000000000000000500000000000000009000000000000216202014021700000010000000000000BRBBASACNOR3237
012014010282BBASN24     080BBASE FM    ON      NM000R$  000000000003700000000000380000000000037000000000003700000000000380000000000000000000000000000003000000000000005100000000000000190800000000000226202014021700000010000000000000BRBBASACNOR3237
012014010282BBASN25     080BBASE FM    ON      NM000R$  000000000005900000000000660000000000059000000000006100000000000660000000000000000000000000000007000000000000008000000000000000493800000000000236202014021700000010000000000000BRBBASACNOR3237
012014010282BBASN26     080BBASE FM    ON      NM000R$  000000000009900000000001130000000000099000000000010600000000001080000000000000000000000000000008000000000000008900000000000000943900000000000246202014021700000010000000000000BRBBASACNOR3237
012014010282BBASN27     080BBASE       ON      NM000R$  000000000025000000000002500000000000250000000000025000000000002500000000000000000000000000000001000000000000001000000000000000250000000000000266702014021700000010000000000000BRBBASACNOR3239
012014010282BBASO23     080BBASE       ON      NM000R$  000000000005300000000000530000000000052000000000005200000000000520000000000000000000000000000003000000000000010000000000000000526000000000000227402014031700000010000000000000BRBBASACNOR3240
012014010282BBASO24     080BBASE       ON      NM000R$  000000000005000000000000500000000000050000000000005000000000000500000000000000000000000000000003000000000000010600000000000000530000000000000226202014031700000010000000000000BRBBASACNOR3237
012014010282BBASO25     080BBASE       ON      NM000R$  000000000012200000000001240000000000120000000000012100000000001220000000000000000000000000000007000000000000025000000000000003041000000000000246702014031700000010000000000000BRBBASACNOR3239
012014010282BBASO26     080BBASE       ON      NM000R$  000000000017600000000001760000000000176000000000017600000000001760000000000000000000000000000002000000000000008000000000000001408000000000000256702014031700000010000000000000BRBBASACNOR3239
012014010282BBASO27     080BBASE       ON      NM000R$  000000000024400000000002440000000000244000000000024400000000002440000000000000000000000000000001000000000000003500000000000000854000000000000266702014031700000010000000000000BRBBASACNOR3239
012014010282BBASO52     080BBASE       ON      NM000R$  000000000004000000000000400000000000040000000000004000000000000400000000000000000000000000000002000000000000006000000000000000240000000000000221702014031700000010000000000000BRBBASACNOR3239
012014010282BBASQ25     080BBASE       ON      NM000R$  000000000015300000000001530000000000153000000000015300000000001530000000000000000000000000000001000000000000001300000000000000198900000000000247402014051900000010000000000000BRBBASACNOR3240
012014010202BBDC3       010BRADESCO    ON  EJ  N1   R$  000000000317500000000032070000000003152000000000318500000000031740000000003174000000000317905622000000000000942100000000003000830700000000000000009999123100000010000000000000BRBBDCACNOR1610
012014010296BBDC3F      020BRADESCO    ON  EJ  N1   R$  000000000329100000000032910000000003140000000000318400000000031780000000003151000000000317800033000000000000000755000000000002404600000000000000009999123100000010000000000000BRBBDCACNOR1610
012014010202BBDC4       010BRADESCO    PN  EJ  N1   R$  000000000290400000000029250000000002876000000000290300000000028950000000002895000000000289619121000000000006891800000000020007798500000000000000009999123100000010000000000000BRBBDCACNPR8610
012014010296BBDC4F      020BRADESCO    PN  EJ  N1   R$  000000000290000000000029230000000002861000000000290300000000029190000000002890000000000291900209000000000000005120000000000014867751000000000000009999123100000010000000000000BRBBDCACNPR8610
012014010262BBDC4T      030BRADESCO    PN  EJ  N1062R$  000000000295000000000029510000000002945000000000295000000000029460000000000000000000000000000004000000000000001100000000000003245478000000000000009999123100000010000000000000BRBBDCACNPR8610
012014010262BBDC4T      030BRADESCO    PN  EJ  N1090R$  000000000296900000000029750000000002944000000000296300000000029750000000000000000000000000000008000000000000009300000000000027560928000000000000009999123100000010000000000000BRBBDCACNPR8610
012014010278BBDCA28     070BBDC  FM/EJ PN      N1000R$  000000000015200000000001810000000000149000000000016300000000001610000000000143000000000017900029000000000000039000000000000006395700000000000276402014012000000010000000000000BRBBDCACNPR8606
012014010278BBDCA29     070BBDC    /EJ PN      N1000R$  000000000009500000000001150000000000093000000000010200000000000970000000000096000000000011400193000000000000074900000000000007700600000000000283802014012000000010000000000000BRBBDCACNPR8601
012014010278BBDCA30     070BBDC  FM/EJ PN      N1000R$  000000000003600000000000420000000000030000000000003400000000000380000000000031000000000003800093000000000000197200000000000006891300000000000296402014012000000010000000000000BRBBDCACNPR8606
012014010278BBDCA31     070BBDC  FM/EJ PN      N1000R$  000000000001200000000000150000000000010000000000001200000000000110000000000008000000000001300029000000000000053300000000000000667400000000000306202014012000000010000000000000BRBBDCACNPR8605
012014010278BBDCA32     070BBDC  FM/EJ PN      N1000R$  000000000000300000000000050000000000003000000000000300000000000030000000000001000000000001000008000000000000015500000000000000046900000000000316402014012000000010000000000000BRBBDCACNPR8606
012014010278BBDCA59     070BBDC  FM/EJ PN      N1000R$  000000000005900000000000700000000000051000000000006000000000000510000000000000000000000000000009000000000000015100000000000000916300000000000291202014012000000010000000000000BRBBDCACNPR8605
012014010278BBDCB28     070BBDC  FM/EJ PN      N1000R$  000000000020700000000002240000000000199000000000021300000000002100000000000000000000000023000069000000000000062000000000000013217400000000000276602014021700000010000000000000BRBBDCACNPR8607
012014010278BBDCB29     070BBDC  FM/EJ PN      N1000R$  000000000014000000000001560000000000138000000000014600000000001390000000000000000000000000000026000000000000035600000000000005214900000000000286802014021700000010000000000000BRBBDCACNPR8608
012014010278BBDCB30     070BBDC  FM/EJ PN      N1000R$  000000000009000000000000990000000000087000000000009300000000000880000000000000000000000012000101000000000000076900000000000007158400000000000296602014021700000010000000000000BRBBDCACNPR8607
012014010278BBDCB31     070BBDC  FM/EJ PN      N1000R$  000000000005200000000000590000000000047000000000005100000000000550000000000012000000000009900087000000000000058400000000000003017700000000000306802014021700000010000000000000BRBBDCACNPR8608
012014010278BBDCB72     070BBDC  FM/EJ PN      N1000R$  000000000003100000000000330000000000031000000000003200000000000330000000000000000000000000000004000000000000005200000000000000169200000000000316802014021700000010000000000000BRBBDCACNPR8608
012014010278BBDCC32     070BBDC    /EJ PN      N1000R$  000000000005500000000000550000000000055000000000005500000000000550000000000000000000000010200001000000000000003500000000000000192500000000000316802014031700000010000000000000BRBBDCACNPR8608
012014010278BBDCC70     070BBDC    /EJ PN      N1000R$  000000000013100000000001310000000000131000000000013100000000001310000000000000000000000000000001000000000000002200000000000000288200000000000296802014031700000010000000000000BRBBDCACNPR8608
012014010278BBDCD31     070BBDC    /EJ PN      N1000R$  000000000011600000000001160000000000116000000000011600000000001160000000000000000000000000000002000000000000001400000000000000162400000000000307002014042200000010000000000000BRBBDCACNPR8609
012014010278BBDCD33     070BBDC    /EJ PN      N1000R$  000000000006000000000000600000000000060000000000006000000000000600000000000001000000000000000001000000000000000500000000000000030000000000000326002014042200000010000000000000BRBBDCACNPR8604
012014010278BBDCD35     070BBDC    /EJ PN      N1000R$  000000000002800000000000280000000000028000000000002800000000000280000000000000000000000000000001000000000000001400000000000000039200000000000347002014042200000010000000000000BRBBDCACNPR8609
012014010282BBDCM25     080BBDCE   /EJ PN      N1000R$  000000000000200000000000020000000000002000000000000200000000000020000000000000000000000000000001000000000000000100000000000000000200000000000246602014012000000010000000000000BRBBDCACNPR8607
012014010282BBDCM26     080BBDCE   /EJ PN      N1000R$  000000000000300000000000030000000000003000000000000300000000000030000000000000000000000000400001000000000000000200000000000000000600000000000256602014012000000010000000000000BRBBDCACNPR8607
012014010282BBDCM28     080BBDCE FM/EJ PN      N1000R$  000000000001300000000000170000000000013000000000001600000000000170000000000000000000000000000004000000000000005300000000000000089700000000000276402014012000000010000000000000BRBBDCACNPR8606
012014010282BBDCM30     080BBDCE FM/EJ PN      N1000R$  000000000009600000000000960000000000077000000000008600000000000850000000000015000000000000000028000000000000053900000000000004640700000000000296402014012000000010000000000000BRBBDCACNPR8606
012014010282BBDCM57     080BBDCE   /EJ PN      N1000R$  000000000001300000000000130000000000013000000000001300000000000130000000000000000000000000000001000000000000010000000000000000130000000000000271402014012000000010000000000000BRBBDCACNPR8606
012014010282BBDCM59     080BBDCE FM/EJ PN      N1000R$  000000000006400000000000640000000000051000000000005900000000000620000000000000000000000000000009000000000000013400000000000000801400000000000291202014012000000010000000000000BRBBDCACNPR8605
012014010282BBDCN25     080BBDCE   /EJ PN      N1000R$  000000000001000000000000100000000000010000000000001000000000000100000000000000000000000000000001000000000000000500000000000000005000000000000246202014021700000010000000000000BRBBDCACNPR8605
012014010282BBDCN27     080BBDCE FM/EJ PN      N1000R$  000000000002800000000000280000000000026000000000002700000000000260000000000000000000000000000008000000000000011600000000000000314900000000000266202014021700000010000000000000BRBBDCACNPR8605
012014010282BBDCN28     080BBDCE FM/EJ PN      N1000R$  000000000004800000000000490000000000043000000000004500000000000430000000000000000000000000000011000000000000016400000000000000753800000000000276602014021700000010000000000000BRBBDCACNPR8607
012014010282BBDCN29     080BBDCE FM/EJ PN      N1000R$  000000000008200000000000830000000000073000000000007800000000000750000000000000000000000000000010000000000000015900000000000001241100000000000286802014021700000010000000000000BRBBDCACNPR8608
012014010282BBDCN30     080BBDCE FM/EJ PN      N1000R$  000000000012400000000001260000000000116000000000012100000000001260000000000000000000000000000015000000000000024700000000000003007100000000000296602014021700000010000000000000BRBBDCACNPR8607
012014010282BBDCN32     080BBDCE   /EJ PN      N1000R$  000000000007200000000000780000000000064000000000006900000000000720000000000000000000000000000214000000000000247700000000000017217100000000000284302014021700000010000000000000BRBBDCACNPR8598
012014010282BBDCN58     080BBDCE   /EJ PN      N1000R$  000000000005400000000000550000000000054000000000005400000000000550000000000000000000000000000002000000000000003500000000000000190500000000000281202014021700000010000000000000BRBBDCACNPR8605
012014010282BBDCO2      080BBDCE   /EJ PN      N1000R$  000000000011800000000001180000000000108000000000011100000000001080000000000000000000000000000003000000000000004200000000000000466600000000000290902014031700000010000000000000BRBBDCACNPR8604
012014010282BBDCO29     080BBDCE   /EJ PN      N1000R$  000000000009300000000001060000000000093000000000009900000000000960000000000000000000000000000167000000000000018600000000000001856000000000000286802014031700000010000000000000BRBBDCACNPR8608
012014010282BBDCO60     080BBDCE   /EJ PN      N1000R$  000000000004900000000000490000000000048000000000004800000000000480000000000000000000000000000002000000000000004000000000000000194000000000000270702014031700000010000000000000BRBBDCACNPR8598
012014010282BBDCO61     080BBDCE   /EJ PN      N1000R$  000000000005900000000000590000000000058000000000005800000000000580000000000000000000000000000002000000000000003000000000000000176000000000000275202014031700000010000000000000BRBBDCACNPR8598
012014010282BBDCO70     080BBDCE   /EJ PN      N1000R$  000000000013500000000001350000000000135000000000013500000000001350000000000000000000000000000001000000000000002000000000000000270000000000000296802014031700000010000000000000BRBBDCACNPR8608
012014010282BBDCQ27     080BBDCE   /EJ PN      N1000R$  000000000006300000000000630000000000063000000000006300000000000630000000000000000000000000000001000000000000002000000000000000126000000000000267002014051900000010000000000000BRBBDCACNPR8609
012014010212BBFI11B     010FII BB PROGRCI  ER  MB   R$  000000038700000000003870000000000384200000000038623000000003842000000000384500000000038900000010000000000000000023000000000008883300000000000000009999123100000010000000000000BRBBFICTF006202
012014010212BBPO11      010FII BB PRGIICI  ER       R$  000000001050000000000105050000000010361000000001047800000000104990000000010463000000001049900148000000000000015026000000000157457334000000000000009999123100000010000000000000BRBBPOCTF003114
012014010212BBRC11      010FII BB CORP CI  ER       R$  000000000780000000000079100000000007800000000000781200000000078000000000007800000000000799900008000000000000000686000000000005359701000000000000009999123100000010000000000000BRBBRCCTF004128
012014010202BBRK3       010BR BROKERS  ON      NM   R$  000000000058500000000005850000000000561000000000057300000000005680000000000565000000000056803178000000000000958800000000000549499900000000000000009999123100000010000000000000BRBBRKACNOR4108
012014010296BBRK3F      020BR BROKERS  ON      NM   R$  000000000055000000000005740000000000501000000000054300000000005010000000000501000000000060900004000000000000000054000000000000029348000000000000009999123100000010000000000000BRBBRKACNOR4108
012014010202BBSE3       010BBSEGURIDADEON      NM   R$  000000000244400000000024500000000002372000000000239700000000023950000000002380000000000239511378000000000004963400000000011901810100000000000000009999123100000010000000000000BRBBSEACNOR5101
012014010296BBSE3F      020BBSEGURIDADEON      NM   R$  000000000240600000000024490000000002374000000000240500000000023820000000002375000000000238200196000000000000006089000000000014649080000000000000009999123100000010000000000000BRBBSEACNOR5101
012014010262BBSE3T      030BBSEGURIDADEON      NM032R$  000000000240300000000024040000000002397000000000239900000000023980000000000000000000000000000006000000000000003000000000000007199136000000000000009999123100000010000000000000BRBBSEACNOR5101
012014010262BBSE3T      030BBSEGURIDADEON      NM090R$  000000000246700000000024680000000002454000000000245700000000024550000000000000000000000000000030000000000000600200000000001475057054000000000000009999123100000010000000000000BRBBSEACNOR5101
012014010278BBSEA24     070BBSE        ON      NM000R$  000000000004400000000000440000000000044000000000004400000000000440000000000000000000000000000002000000000000002000000000000000088000000000000240002014012000000010000000000000BRBBSEACNOR5101
012014010202BBTG11      010BTG PACTUAL UNT EJ       R$  000000000274700000000027470000000002690000000000271300000000026900000000002690000000000269300229000000000000202300000000000549003800000000000000009999123100000010000000000000BRBBTGUNT007106
012014010296BBTG11F     020BTG PACTUAL UNT EJ       R$  000000000270000000000027200000000002693000000000271200000000026930000000002563000000000269300005000000000000000119000000000000322840000000000000009999123100000010000000000000BRBBTGUNT007106
012014010212BBVJ11      010FII C JARDIMCI  ER       R$  000000000640000000000067000000000005827000000000636700000000066800000000006500000000000668000119000000000000007746000000000049320371000000000000009999123100000010000000000000BRBBVJCTF001137
012014010212BCFF11B     010FII BC FFII CI      MB   R$  000000000904500000000091130000000008955000000000901200000000091000000000009052000000000910000063000000000000003213000000000028958685000000000000009999123100000010000000000000BRBCFFCTF000145
012014010296BDLL4F      020BARDELLA    PN           R$  000000000420000000000042000000000004200000000000420000000000042000000000004050000000000439800001000000000000000001000000000000004200000000000000009999123100000010000000000000BRBDLLACNPR8149
012014010202BEEF3       010MINERVA     ON      NM   R$  000000000114900000000011490000000001111000000000112000000000011250000000001120000000000112502994000000000000749700000000000840188200000000000000009999123100000010000000000000BRBEEFACNOR6104
012014010296BEEF3F      020MINERVA     ON      NM   R$  000000000112500000000011250000000001119000000000112100000000011210000000001100000000000113000003000000000000000155000000000000173845000000000000009999123100000010000000000000BRBEEFACNOR6104
012014010202BEES3       010BANESTES    ON  EJ       R$  000000000004900000000000490000000000048000000000004800000000000490000000000048000000000004900014000000000000100400000000000004819500000000000000009999123100000010000000000000BRBEESACNOR9248
012014010202BEMA3       010BEMATECH    ON      NM   R$  000000000091400000000009200000000000891000000000089800000000008950000000000894000000000089500424000000000000127700000000000114749600000000000000009999123100000010000000000000BRBEMAACNOR0115
012014010296BEMA3F      020BEMATECH    ON      NM   R$  000000000090000000000009000000000000885000000000088600000000008940000000000885000000000089400003000000000000000102000000000000090462000000000000009999123100000010000000000000BRBEMAACNOR0115
012014010262BEMA3T      030BEMATECH    ON      NM032R$  000000000090800000000009090000000000908000000000090800000000009090000000000000000000000000000002000000000000000800000000000000726566000000000000009999123100000010000000000000BRBEMAACNOR0115
012014010202BERK34      010BERKSHIRE   DRN          R$  000000002838300000000283830000000028383000000002838300000000283830000000026001000000002970000001000000000000000300000000000008514900000000000000009999123100000010000000000000BRBERKBDR002100
012014010202BGIP3       010BANESE      ON  EJ       R$  000000000485000000000048500000000004850000000000485000000000048500000000004700000000000000000001000000000000000100000000000000485000000000000000009999123100000010000000000000BRBGIPACNOR1180
012014010296BGIP3F      020BANESE      ON  EJ       R$  000000000485000000000048500000000004850000000000485000000000048500000000004508000000000500000001000000000000000020000000000000097000000000000000009999123100000010000000000000BRBGIPACNOR1180
012014010202BGIP4       010BANESE      PN  EJ       R$  000000000499000000000052000000000004990000000000505100000000050000000000004700000000000500000008000000000000001500000000000007577600000000000000009999123100000010000000000000BRBGIPACNPR8180
012014010296BGIP4F      020BANESE      PN  EJ       R$  000000000500000000000050000000000005000000000000500000000000050000000000004709000000000000000001000000000000000040000000000000200000000000000000009999123100000010000000000000BRBGIPACNPR8180
012014010202BHGR3       010BHG         ON      NM   R$  000000000138700000000014200000000001387000000000139600000000014200000000001420000000000142200050000000000000097900000000000136686000000000000000009999123100000010000000000000BRBHGRACNOR9101
012014010202BICB4       010BICBANCO    PN      N1   R$  000000000074000000000007400000000000734000000000073900000000007400000000000733000000000074000050000000000000081200000000000060057300000000000000009999123100000010000000000000BRBICBACNPR7131
012014010296BICB4F      020BICBANCO    PN      N1   R$  000000000073100000000007310000000000731000000000073100000000007310000000000731000000000073900001000000000000000022000000000000016082000000000000009999123100000010000000000000BRBICBACNPR7131
012014010262BICB4T      030BICBANCO    PN      N1120R$  000000000076200000000007630000000000757000000000076100000000007630000000000000000000000000000010000000000000070000000000000053338802000000000000009999123100000010000000000000BRBICBACNPR7131
012014010202BISA3       010BROOKFIELD  ON      NM   R$  000000000011400000000001150000000000102000000000010500000000001020000000000102000000000010319410000000000013055400000000001381899000000000000000009999123100000010000000000000BRBISAACNOR8109
012014010296BISA3F      020BROOKFIELD  ON      NM   R$  000000000011400000000001140000000000102000000000010600000000001080000000000102000000000010800031000000000000000820000000000000087323000000000000009999123100000010000000000000BRBISAACNOR8109
012014010262BISA3T      030BROOKFIELD  ON      NM018R$  000000000010300000000001040000000000102000000000010300000000001030000000000000000000000000000004000000000000020000000000000002065677000000000000009999123100000010000000000000BRBISAACNOR8109
012014010262BISA3T      030BROOKFIELD  ON      NM032R$  000000000010600000000001080000000000102000000000010600000000001030000000000000000000000000000030000000000000112500000000000012025392000000000000009999123100000010000000000000BRBISAACNOR8109
012014010262BISA3T      030BROOKFIELD  ON      NM062R$  000000000010900000000001100000000000104000000000010500000000001050000000000000000000000000000008000000000000230000000000000024300670000000000000009999123100000010000000000000BRBISAACNOR8109
012014010262BISA3T      030BROOKFIELD  ON      NM090R$  000000000010900000000001100000000000106000000000010700000000001070000000000000000000000000000004000000000000400000000000000043149500000000000000009999123100000010000000000000BRBISAACNOR8109
012014010202BMEB4       010MERC BRASIL PN           R$  000000000090000000000009000000000000900000000000090000000000009000000000000899000000000094400005000000000000000600000000000000540000000000000000009999123100000010000000000000BRBMEBACNPR5191
012014010202BMIN4       010MERC INVEST PN           R$  000000000002600000000000260000000000026000000000002600000000000260000000000026000000000002900001000000000000003000000000000000078000000000000000009999123100000010000000000000BRBMINACNPR1160
012014010202BMKS3       010BIC MONARK  ON           R$  000000003245000000000324500000000032450000000003245000000000324500000000032410000000003900000004000000000000000035000000000001135750000000000000009999123100000010000000000000BRBMKSACNOR9155
012014010212BMLC11B     010FII BMBRC LCCI      MB   R$  000000001145000000000114500000000011450000000001145000000000114500000000011305000000001149500001000000000000000630000000000007213500000000000000009999123100000010000000000000BRBMLCCTF004122
012014010202BMTO4       010BRASMOTOR   PN           R$  000000000008600000000000860000000000083000000000008400000000000830000000000082000000000008300002000000000000002000000000000000169000000000000000009999123100000010000000000000BRBMTOACNPR6066
012014010202BOAC34      010BANK AMERICADRN          R$  000000000385500000000038600000000003855000000000385800000000038600000000003830000000000388500002000000000000000300000000000001157500000000000000009999123100000010000000000000BRBOACBDR004113
012014010202BOBR4       010BOMBRIL     PN           R$  000000000061200000000006380000000000612000000000062500000000006380000000000559000000000063000002000000000000000400000000000000250000000000000000009999123100000010000000000000BRBOBRACNPR3127
012014010214BOVA11      010ISHARES BOVACI           R$  000000000502300000000050270000000004906000000000493700000000049080000000004908000000000492601029000000000001001210000000004943035220000000000000009999123100000010000000000000BRBOVACTF003101
012014010296BOVA11F     020ISHARES BOVACI           R$  000000000502300000000050590000000004920000000000497500000000049230000000004923000000000497400026000000000000000062000000000000308470000000000000009999123100000010000000000000BRBOVACTF003101
012014010212BPFF11      010FII ABSOLUTOCI  EX       R$  000000000829400000000082940000000008000000000000801300000000080000000000007981000000000805000027000000000000001647000000000013197882000000000000009999123100000010000000000000BRBPFFCTF002109
012014010202BPHA3       010BR PHARMA   ON      NM   R$  000000000067600000000006760000000000645000000000065400000000006580000000000649000000000065801831000000000000616700000000000403727400000000000000009999123100000010000000000000BRBPHAACNOR6102
012014010296BPHA3F      020BR PHARMA   ON      NM   R$  000000000066500000000006650000000000646000000000065400000000006460000000000646000000000069700011000000000000000264000000000000172877000000000000009999123100000010000000000000BRBPHAACNOR6102
012014010202BPNM4       010PANAMERICANOPN      N1   R$  000000000045900000000004590000000000435000000000043900000000004350000000000435000000000043601035000000000000154400000000000067782600000000000000009999123100000010000000000000BRBPNMACNPR6111
012014010296BPNM4F      020PANAMERICANOPN      N1   R$  000000000045400000000004540000000000418000000000044500000000004180000000000431000000000049000002000000000000000090000000000000040068000000000000009999123100000010000000000000BRBPNMACNPR6111
012014010262BPNM4T      030PANAMERICANOPN      N1032R$  000000000043900000000004400000000000439000000000043900000000004400000000000000000000000000000004000000000000001000000000000000439576000000000000009999123100000010000000000000BRBPNMACNPR6111
012014010202BRAP3       010BRADESPAR   ON      N1   R$  000000000202000000000020220000000001988000000000200300000000020090000000001988000000000200900066000000000000013200000000000026440800000000000000009999123100000010000000000000BRBRAPACNOR5125
012014010296BRAP3F      020BRADESPAR   ON      N1   R$  000000000205000000000020500000000002050000000000205000000000020500000000002001000000000209900001000000000000000001000000000000002050000000000000009999123100000010000000000000BRBRAPACNOR5125
012014010202BRAP4       010BRADESPAR   PN      N1   R$  000000000250400000000025110000000002396000000000243300000000024140000000002410000000000241405183000000000001105600000000002690221800000000000000009999123100000010000000000000BRBRAPACNPR2125
012014010296BRAP4F      020BRADESPAR   PN      N1   R$  000000000246500000000025480000000002381000000000242800000000024400000000002380000000000244000041000000000000001080000000000002623163000000000000009999123100000010000000000000BRBRAPACNPR2125
012014010262BRAP4T      030BRADESPAR   PN      N1120R$  000000000257900000000025800000000002551000000000257400000000025520000000000000000000000000000004000000000000005800000000000014934159000000000000009999123100000010000000000000BRBRAPACNPR2125
012014010212BRCR11      010FII BC FUND CI           R$  000000001346000000000134790000000013300000000001340300000000134000000000013361000000001340000209000000000000012297000000000164817078000000000000009999123100000010000000000000BRBRCRCTF000136
012014010202BRFS3       010BRF SA      ON  EX  NM   R$  000000000489500000000049240000000004830000000000486700000000048530000000004853000000000485508002000000000002104600000000010243270700000000000000009999123100000010000000000000BRBRFSACNOR8111
012014010296BRFS3F      020BRF SA      ON  EX  NM   R$  000000000490000000000049090000000004822000000000487100000000049090000000004817000000000490900078000000000000002195000000000010691319000000000000009999123100000010000000000000BRBRFSACNOR8111
012014010262BRFS3S      030BRF SA      ON  EX  NM032R$  000000000491300000000049140000000004913000000000491300000000049140000000000000000000000000000002000000000000000400000000000001965337000000000000009999123100000010000000000000BRBRFSACNOR8111
012014010262BRFS3T      030BRF SA      ON  EX  NM032R$  000000000493300000000049340000000004933000000000493300000000049340000000000000000000000000000002000000000000000500000000000002466561000000000000009999123100000010000000000000BRBRFSACNOR8111
012014010262BRFS3T      030BRF SA      ON  EX  NM062R$  000000000496100000000049620000000004961000000000496100000000049620000000000000000000000000000002000000000000001000000000000004961320000000000000009999123100000010000000000000BRBRFSACNOR8111
012014010262BRFS3T      030BRF SA      ON  EX  NM090R$  000000000500300000000050040000000005003000000000500300000000050040000000000000000000000000000002000000000000001000000000000005003092000000000000009999123100000010000000000000BRBRFSACNOR8111
012014010202BRGE8       010ALFA CONSORCPND          R$  000000000038000000000003800000000000380000000000038000000000003800000000000380000000000000000003000000000000000400000000000000152000000000000000009999123100000010000000000000BRBRGEACNPD3200
012014010202BRIN3       010BR INSURANCEON      NM   R$  000000000183300000000018420000000001753000000000178900000000018070000000001800000000000180700808000000000000176400000000000315625500000000000000009999123100000010000000000000BRBRINACNOR3107
012014010296BRIN3F      020BR INSURANCEON      NM   R$  000000000183000000000018300000000001727000000000179500000000018000000000001727000000000180000013000000000000000543000000000000974951000000000000009999123100000010000000000000BRBRINACNOR3107
012014010202BRIV3       010ALFA INVEST ON           R$  000000000067000000000006700000000000661000000000066300000000006610000000000661000000000067500002000000000000002000000000000001327400000000000000009999123100000010000000000000BRBRIVACNOR6197
012014010202BRKM3       010BRASKEM     ON      N1   R$  000000000160100000000016480000000001600000000000164100000000016000000000001406000000000164200006000000000000005800000000000009522600000000000000009999123100000010000000000000BRBRKMACNOR1110
012014010296BRKM3F      020BRASKEM     ON      N1   R$  000000000160000000000016000000000001600000000000160000000000016000000000000000000000000164000002000000000000000100000000000000160000000000000000009999123100000010000000000000BRBRKMACNOR1110
012014010262BRKM3T      030BRASKEM     ON      N1180R$  000000000173200000000017330000000001732000000000173200000000017330000000000000000000000000000002000000000000005000000000000008664360000000000000009999123100000010000000000000BRBRKMACNOR1110
012014010202BRKM5       010BRASKEM     PNA     N1   R$  000000000210100000000021080000000002008000000000204600000000020410000000002041000000000204606304000000000001163100000000002380851800000000000000009999123100000010000000000000BRBRKMACNPA4110
012014010296BRKM5F      020BRASKEM     PNA     N1   R$  000000000207300000000020810000000002014000000000206200000000020690000000002036000000000206900056000000000000000943000000000001944748000000000000009999123100000010000000000000BRBRKMACNPA4110
012014010262BRKM5T      030BRASKEM     PNA     N1018R$  000000000203900000000020400000000002039000000000203900000000020400000000000000000000000000000002000000000000001300000000000002651403000000000000009999123100000010000000000000BRBRKMACNPA4110
012014010262BRKM5T      030BRASKEM     PNA     N1090R$  000000000212900000000021300000000002129000000000212900000000021300000000000000000000000000000002000000000000001000000000000002129867000000000000009999123100000010000000000000BRBRKMACNPA4110
012014010202BRML3       010BR MALLS PARON      NM   R$  000000000169500000000017080000000001669000000000169100000000017020000000001692000000000170210762000000000002417100000000004088493100000000000000009999123100000010000000000000BRBRMLACNOR9105
012014010296BRML3F      020BR MALLS PARON      NM   R$  000000000170500000000017160000000001668000000000169400000000017140000000001680000000000171400035000000000000001138000000000001928252000000000000009999123100000010000000000000BRBRMLACNOR9105
012014010262BRML3T      030BR MALLS PARON      NM018R$  000000000171000000000017110000000001710000000000171000000000017110000000000000000000000000000002000000000000020300000000000034719898000000000000009999123100000010000000000000BRBRMLACNOR9105
012014010262BRML3T      030BR MALLS PARON      NM032R$  000000000171500000000017170000000001715000000000171600000000017170000000000000000000000000000004000000000000026400000000000045320039000000000000009999123100000010000000000000BRBRMLACNOR9105
012014010202BRPR3       010BR PROPERT  ON      NM   R$  000000000186000000000018800000000001808000000000182400000000018180000000001811000000000181807638000000000001459700000000002663561500000000000000009999123100000010000000000000BRBRPRACNOR9112
012014010296BRPR3F      020BR PROPERT  ON      NM   R$  000000000187000000000019000000000001810000000000184900000000019000000000001805000000000190000020000000000000000508000000000000939552000000000000009999123100000010000000000000BRBRPRACNOR9112
012014010278BRPRA21     070BRPR        ON      NM000R$  000000000000200000000000030000000000002000000000000200000000000030000000000000000000000000000004000000000000120000000000000000312500000000000210002014012000000010000000000000BRBRPRACNOR9112
012014010282BRPRM18     080BRPRE       ON      NM000R$  000000000003600000000000360000000000035000000000003500000000000350000000000000000000000000000002000000000000120000000000000004230000000000000180002014012000000010000000000000BRBRPRACNOR9112
012014010282BRPRM19     080BRPRE       ON      NM000R$  000000000008800000000000880000000000087000000000008700000000000870000000000000000000000000000002000000000000120000000000000010470000000000000190002014012000000010000000000000BRBRPRACNOR9112
012014010202BRSR3       010BANRISUL    ON      N1   R$  000000000125800000000012580000000001258000000000125800000000012580000000001250000000000130000001000000000000000100000000000000125800000000000000009999123100000010000000000000BRBRSRACNOR3132
012014010202BRSR6       010BANRISUL    PNB     N1   R$  000000000126000000000012770000000001246000000000126300000000012730000000001263000000000127302040000000000000772000000000000975694800000000000000009999123100000010000000000000BRBRSRACNPB4135
012014010296BRSR6F      020BANRISUL    PNB     N1   R$  000000000126200000000012750000000001238000000000126600000000012660000000001252000000000126900018000000000000000458000000000000580183000000000000009999123100000010000000000000BRBRSRACNPB4135
012014010202BSEV3       010BIOSEV      ON      NM   R$  000000000098100000000009810000000000981000000000098100000000009810000000000960000000000098100003000000000000003100000000000003041100000000000000009999123100000010000000000000BRBSEVACNOR3100
012014010296BSEV3F      020BIOSEV      ON      NM   R$  000000000099900000000009990000000000999000000000099900000000009990000000000972000000000099900002000000000000000088000000000000087912000000000000009999123100000010000000000000BRBSEVACNOR3100
012014010202BTOW3       010B2W DIGITAL ON      NM   R$  000000000153600000000015440000000001350000000000141700000000013500000000001350000000000135203987000000000001016800000000001441039900000000000000009999123100000010000000000000BRBTOWACNOR8105
012014010296BTOW3F      020B2W DIGITAL ON      NM   R$  000000000152700000000015270000000001351000000000143800000000015210000000001352000000000152100044000000000000000952000000000001369911000000000000009999123100000010000000000000BRBTOWACNOR8105
012014010262BTOW3T      030B2W DIGITAL ON      NM018R$  000000000135800000000013590000000001358000000000135800000000013590000000000000000000000000000002000000000000007500000000000010186644000000000000009999123100000010000000000000BRBTOWACNOR8105
012014010262BTOW3T      030B2W DIGITAL ON      NM030R$  000000000136500000000013660000000001365000000000136500000000013660000000000000000000000000000002000000000000010000000000000013656384000000000000009999123100000010000000000000BRBTOWACNOR8105
012014010262BTOW3T      030B2W DIGITAL ON      NM032R$  000000000141500000000014160000000001361000000000141000000000013620000000000000000000000000000012000000000000050400000000000071091059000000000000009999123100000010000000000000BRBTOWACNOR8105
012014010202BTTL4       010BATTISTELLA PN           R$  000000000009200000000000960000000000092000000000009200000000000960000000000092000000000009600010000000000000007900000000000000729300000000000000009999123100000010000000000000BRBTTLACNPR7105
012014010296BTTL4F      020BATTISTELLA PN           R$  000000000009200000000000970000000000092000000000009400000000000970000000000082000000000009700003000000000000000100000000000000009450000000000000009999123100000010000000000000BRBTTLACNPR7105
012014010202BVMF3       010BMFBOVESPA  ON      NM   R$  000000000111800000000011180000000001058000000000107500000000010580000000001058000000000106122658000000000010970100000000011794051500000000000000009999123100000010000000000000BRBVMFACNOR3127
012014010296BVMF3F      020BMFBOVESPA  ON      NM   R$  000000000108200000000011020000000001062000000000107900000000010800000000001070000000000108000131000000000000003589000000000003872348000000000000009999123100000010000000000000BRBVMFACNOR3127
012014010262BVMF3T      030BMFBOVESPA  ON      NM018R$  000000000106400000000010650000000001064000000000106400000000010650000000000000000000000000000002000000000000040000000000000042569688000000000000009999123100000010000000000000BRBVMFACNOR3127
012014010262BVMF3T      030BMFBOVESPA  ON      NM032R$  000000000106600000000010670000000001066000000000106600000000010670000000000000000000000000000004000000000000054000000000000057589056000000000000009999123100000010000000000000BRBVMFACNOR3127
012014010262BVMF3T      030BMFBOVESPA  ON      NM090R$  000000000111400000000011160000000001088000000000111000000000010890000000000000000000000000000006000000000000006000000000000006665677000000000000009999123100000010000000000000BRBVMFACNOR3127
012014010278BVMFA10     070BVMF        ON      NM000R$  000000000010500000000001050000000000075000000000009100000000000750000000000074000000000008200018000000000000008400000000000000767100000000000100002014012000000010000000000000BRBVMFACNOR3127
012014010278BVMFA11     070BVMF  FM    ON      NM000R$  000000000003300000000000350000000000020000000000002600000000000210000000000020000000000002300184000000000000307800000000000008031800000000000108802014012000000010000000000000BRBVMFACNOR3126
012014010278BVMFA12     070BVMF  FM    ON      NM000R$  000000000000600000000000060000000000004000000000000400000000000040000000000003000000000000400048000000000000572600000000000002370000000000000118802014012000000010000000000000BRBVMFACNOR3126
012014010278BVMFA13     070BVMF        ON      NM000R$  000000000000100000000000010000000000001000000000000100000000000010000000000000000000000000100001000000000000010000000000000000010000000000000128802014012000000010000000000000BRBVMFACNOR3126
012014010278BVMFA40     070BVMF  FM    ON      NM000R$  000000000006300000000000630000000000053000000000005500000000000550000000000000000000000005500004000000000000010400000000000000573600000000000105002014012000000010000000000000BRBVMFACNOR3127
012014010278BVMFA42     070BVMF  FM    ON      NM000R$  000000000000200000000000020000000000002000000000000200000000000020000000000000000000000000300004000000000000011000000000000000022000000000000123802014012000000010000000000000BRBVMFACNOR3126
012014010278BVMFB10     070BVMF        ON      NM000R$  000000000009800000000000980000000000090000000000009300000000000940000000000000000000000012600018000000000000005300000000000000496100000000000100002014021700000010000000000000BRBVMFACNOR3127
012014010278BVMFB11     070BVMF  FM    ON      NM000R$  000000000005300000000000530000000000039000000000004300000000000410000000000039000000000004700167000000000000188100000000000008125600000000000108802014021700000010000000000000BRBVMFACNOR3126
012014010278BVMFB12     070BVMF  FM    ON      NM000R$  000000000001500000000000150000000000011000000000001300000000000110000000000009000000000001200013000000000000036800000000000000497200000000000118802014021700000010000000000000BRBVMFACNOR3126
012014010278BVMFB13     070BVMF        ON      NM000R$  000000000000300000000000030000000000003000000000000300000000000030000000000002000000000000400003000000000000006800000000000000020400000000000127302014021700000010000000000000BRBVMFACNOR3125
012014010278BVMFC11     070BVMF        ON      NM000R$  000000000005300000000000530000000000053000000000005300000000000530000000000046000000000000000001000000000000000400000000000000021200000000000110002014031700000010000000000000BRBVMFACNOR3127
012014010278BVMFC12     070BVMF        ON      NM000R$  000000000002100000000000210000000000021000000000002100000000000210000000000000000000000000000001000000000000000500000000000000010500000000000118802014031700000010000000000000BRBVMFACNOR3126
012014010278BVMFD11     070BVMF        ON      NM000R$  000000000006400000000000640000000000064000000000006400000000000640000000000000000000000000000001000000000000000400000000000000025600000000000110002014042200000010000000000000BRBVMFACNOR3127
012014010282BVMFM10     080BVMFE       ON      NM000R$  000000000000800000000000100000000000004000000000000700000000000100000000000003000000000003100010000000000000015500000000000000123800000000000100002014012000000010000000000000BRBVMFACNOR3127
012014010282BVMFM11     080BVMFE FM    ON      NM000R$  000000000002600000000000420000000000023000000000003600000000000410000000000024000000000005200204000000000000105600000000000003872800000000000108802014012000000010000000000000BRBVMFACNOR3126
012014010282BVMFM40     080BVMFE FM    ON      NM000R$  000000000002400000000000240000000000024000000000002400000000000240000000000000000000000003800001000000000000000100000000000000002400000000000105002014012000000010000000000000BRBVMFACNOR3127
012014010282BVMFM41     080BVMFE FM    ON      NM000R$  000000000005500000000000700000000000055000000000005700000000000700000000000045000000000000000002000000000000000600000000000000034500000000000113802014012000000010000000000000BRBVMFACNOR3126
012014010282BVMFN10     080BVMFE       ON      NM000R$  000000000001300000000000190000000000013000000000001500000000000140000000000007000000000002000005000000000000001400000000000000022100000000000100002014021700000010000000000000BRBVMFACNOR3127
012014010282BVMFN11     080BVMFE FM    ON      NM000R$  000000000004200000000000540000000000040000000000004200000000000540000000000000000000000005500007000000000000005600000000000000238000000000000108802014021700000010000000000000BRBVMFACNOR3126
012014010282BVMFN9      080BVMFE       ON      NM000R$  000000000000800000000000080000000000008000000000000800000000000080000000000001000000000000700001000000000000000100000000000000000800000000000088802014021700000010000000000000BRBVMFACNOR3126
012014010202CARD3       010CSU CARDSYSTON      NM   R$  000000000031800000000003180000000000306000000000030800000000003070000000000304000000000030800020000000000000027000000000000008316600000000000000009999123100000010000000000000BRCARDACNOR9105
012014010202CBMA3       010COBRASMA    ON           R$  000000000000500000000000050000000000005000000000000500000000000050000000000005000000000000600001000000000000030000000000000000150000000000000000009999123100000010000000000000BRCBMAACNOR4124
012014010296CBMA3F      020COBRASMA    ON           R$  000000000000600000000000060000000000006000000000000600000000000060000000000004000000000000600001000000000000000001000000000000000006000000000000009999123100000010000000000000BRCBMAACNOR4124
012014010208CCHI3       010CHIARELLI   ON           R$  000000000001600000000000170000000000016000000000001600000000000170000000000016000000000001700015000000000000240000000000000004030000000000000000009999123100000010000000000000BRCCHIACNOR5123
012014010296CCHI3F      020CHIARELLI   ON           R$  000000000001600000000000170000000000016000000000001600000000000170000000000017000000000001800003000000000000004010000000000000068160000000000000009999123100000010000000000000BRCCHIACNOR5123
012014010208CCHI4       010CHIARELLI   PN           R$  000000000001100000000000120000000000011000000000001100000000000120000000000010000000000001300004000000000000050000000000000000590000000000000000009999123100000010000000000000BRCCHIACNPR2122
012014010296CCHI4F      020CHIARELLI   PN           R$  000000000001600000000000160000000000012000000000001200000000000120000000000009000000000002200003000000000000000250000000000000003200000000000000009999123100000010000000000000BRCCHIACNPR2122
012014010202CCRO3       010CCR SA      ON      NM   R$  000000000177200000000017790000000001741000000000175700000000017410000000001741000000000175011300000000000003682800000000006473238300000000000000009999123100000010000000000000BRCCROACNOR2123
012014010296CCRO3F      020CCR SA      ON      NM   R$  000000000177600000000017960000000001747000000000176000000000017850000000001746000000000178500121000000000000002328000000000004098889000000000000009999123100000010000000000000BRCCROACNOR2123
012014010262CCRO3T      030CCR SA      ON      NM062R$  000000000178100000000017820000000001781000000000178100000000017820000000000000000000000000000002000000000000003000000000000005343144000000000000009999123100000010000000000000BRCCROACNOR2123
012014010202CCXC3       010CCX CARVAO  ON      NM   R$  000000000009900000000000990000000000096000000000009700000000000980000000000098000000000009900160000000000001089400000000000106522200000000000000009999123100000010000000000000BRCCXCACNOR5100
012014010296CCXC3F      020CCX CARVAO  ON      NM   R$  000000000009600000000000960000000000096000000000009600000000000960000000000099000000000010500001000000000000000061000000000000005856000000000000009999123100000010000000000000BRCCXCACNOR5100
012014010202CEBR3       010CEB         ON           R$  000000000160000000000016000000000001600000000000160000000000016000000000001600000000000165000003000000000000001800000000000002880000000000000000009999123100000010000000000000BRCEBRACNOR5114
012014010202CEGR3       010CEG         ON *         R$  000000000900000000000090000000000009000000000000900000000000090000000000008500000000000910000001000000000000100000000000000000900000000000000000009999123100010000000000000000BRCEGRACNOR4124
012014010208CELP3       010CELPA       ON           R$  000000000012000000000001200000000000115000000000011600000000001150000000000105000000000011500004000000000000014100000000000001642000000000000000009999123100000010000000000000BRCELPACNOR8112
012014010212CEOC11B     010FII CEO CCP CI      MB   R$  000000000779000000000077900000000007400000000000758300000000077010000000007701000000000772000067000000000000005340000000000040494616000000000000009999123100000010000000000000BRCEOCCTF003113
012014010202CESP3       010CESP        ON      N1   R$  000000000196500000000019650000000001901000000000193400000000019010000000001901000000000197900005000000000000001500000000000002902100000000000000009999123100000010000000000000BRCESPACNOR3160
012014010202CESP5       010CESP        PNA     N1   R$  000000000212000000000022000000000002100000000000213100000000022000000000002100000000000224000006000000000000000600000000000001279000000000000000009999123100000010000000000000BRCESPACNPA6108
012014010202CESP6       010CESP        PNB     N1   R$  000000000224300000000022500000000002191000000000222500000000022300000000002229000000000223903708000000000000810100000000001802595400000000000000009999123100000010000000000000BRCESPACNPB4119
012014010296CESP6F      020CESP        PNB     N1   R$  000000000228200000000022820000000002201000000000222600000000022700000000002226000000000227000017000000000000000449000000000000999618000000000000009999123100000010000000000000BRCESPACNPB4119
012014010202CGAS3       010COMGAS      ON           R$  000000000520100000000052010000000005201000000000520100000000052010000000005201000000000529900001000000000000000300000000000001560300000000000000009999123100000010000000000000BRCGASACNOR0133
012014010202CGAS5       010COMGAS      PNA          R$  000000000582500000000058250000000005730000000000575200000000057500000000005750000000000579100051000000000000014600000000000083988000000000000000009999123100000010000000000000BRCGASACNPA3130
012014010296CGAS5F      020COMGAS      PNA          R$  000000000580000000000058000000000005720000000000576100000000057200000000005700000000000642500006000000000000000150000000000000864295000000000000009999123100000010000000000000BRCGASACNPA3130
012014010202CGRA3       010GRAZZIOTIN  ON  EJ       R$  000000000163900000000016400000000001622000000000163300000000016220000000001621000000000164900008000000000000000900000000000001470400000000000000009999123100000010000000000000BRCGRAACNOR2062
012014010296CGRA3F      020GRAZZIOTIN  ON  EJ       R$  000000000170000000000017000000000001700000000000170000000000017000000000001608000000000170000001000000000000000005000000000000008500000000000000009999123100000010000000000000BRCGRAACNOR2062
012014010202CGRA4       010GRAZZIOTIN  PN  EJ       R$  000000000180000000000018000000000001730000000000175300000000017300000000001730000000000178800013000000000000002900000000000005083700000000000000009999123100000010000000000000BRCGRAACNPR9062
012014010202CIEL3       010CIELO       ON      NM   R$  000000000656500000000066170000000006519000000000658200000000066110000000006606000000000661206672000000000001377900000000009069883400000000000000009999123100000010000000000000BRCIELACNOR3112
012014010296CIEL3F      020CIELO       ON      NM   R$  000000000650500000000066490000000006505000000000657300000000066490000000006576000000000664900102000000000000002244000000000014751914000000000000009999123100000010000000000000BRCIELACNOR3112
012014010262CIEL3T      030CIELO       ON      NM032R$  000000000665600000000066570000000006656000000000665600000000066570000000000000000000000000000002000000000000004000000000000026627328000000000000009999123100000010000000000000BRCIELACNOR3112
012014010202CLSC4       010CELESC      PN  EX  N2   R$  000000000170000000000017190000000001599000000000168000000000015990000000001571000000000159900090000000000000090000000000000151276600000000000000009999123100000010000000000000BRCLSCACNPR3108
012014010296CLSC4F      020CELESC      PN  EX  N2   R$  000000000172000000000017200000000001700000000000170300000000017000000000001601000000000000000003000000000000000070000000000000119240000000000000009999123100000010000000000000BRCLSCACNPR3108
012014010202CMIG3       010CEMIG       ON  EB  N1   R$  000000000142900000000014370000000001398000000000141100000000013980000000001398000000000140000452000000000000080000000000000112941400000000000000009999123100000010000000000000BRCMIGACNOR6210
012014010296CMIG3F      020CEMIG       ON  EB  N1   R$  000000000141300000000014980000000001400000000000143500000000014790000000001400000000000147900036000000000000001002000000000001438712000000000000009999123100000010000000000000BRCMIGACNOR6210
012014010202CMIG4       010CEMIG       PN  EB  N1   R$  000000000140000000000014090000000001368000000000138300000000013770000000001372000000000137712122000000000003170800000000004386793000000000000000009999123100000010000000000000BRCMIGACNPR3210
012014010296CMIG4F      020CEMIG       PN  EB  N1   R$  000000000143700000000014370000000001370000000000138600000000013970000000001373000000000139700354000000000000008338000000000011560740000000000000009999123100000010000000000000BRCMIGACNPR3210
012014010262CMIG4T      030CEMIG       PN  EB  N1120R$  000000000142600000000014270000000001426000000000142600000000014270000000000000000000000000000002000000000000028000000000000039939522000000000000009999123100000010000000000000BRCMIGACNPR3210
012014010282CMIGP19     080CMIGE   /EB PN      N1000R$  000000000008100000000000820000000000081000000000008100000000000820000000000000000000000000000002000000000000016900000000000001385700000000000141702014042200000010000000000000BRCMIGACNPR3208
012014010212CNES11B     010FII CENESP  CI  ER  MB   R$  000000001230100000000123010000000012300000000001230000000000123000000000012239000000001230000003000000000000000022000000000000270603000000000000009999123100000010000000000000BRCNESCTF001130
012014010296COCE3F      020COELCE      ON           R$  000000000440800000000044100000000004408000000000440900000000044100000000004000000000000441000002000000000000000009000000000000039682000000000000009999123100000010000000000000BRCOCEACNOR0132
012014010202COCE5       010COELCE      PNA          R$  000000000418400000000042080000000004157000000000418100000000041850000000004171000000000419300084000000000000027400000000000114577500000000000000009999123100000010000000000000BRCOCEACNPA3133
012014010296COCE5F      020COELCE      PNA          R$  000000000420000000000042610000000003993000000000417600000000041710000000004171000000000418100025000000000000000498000000000002079974000000000000009999123100000010000000000000BRCOCEACNPA3133
012014010202CPFE3       010CPFL ENERGIAON      NM   R$  000000000190800000000019180000000001850000000000187200000000018500000000001849000000000185304851000000000000873900000000001636232800000000000000009999123100000010000000000000BRCPFEACNOR0122
012014010296CPFE3F      020CPFL ENERGIAON      NM   R$  000000000188200000000019200000000001853000000000185900000000019200000000001854000000000192000074000000000000002181000000000004054882000000000000009999123100000010000000000000BRCPFEACNOR0122
012014010202CPLE3       010COPEL       ON      N1   R$  000000000223700000000022370000000002188000000000219000000000021880000000002156000000000218800045000000000000018500000000000040529200000000000000009999123100000010000000000000BRCPLEACNOR8129
012014010202CPLE6       010COPEL       PNB     N1   R$  000000000305300000000030950000000002977000000000302000000000029980000000002998000000000300502521000000000000370500000000001119000500000000000000009999123100000010000000000000BRCPLEACNPB9126
012014010296CPLE6F      020COPEL       PNB     N1   R$  000000000300500000000031200000000002981000000000301800000000031200000000002980000000000312000026000000000000000871000000000002628909000000000000009999123100000010000000000000BRCPLEACNPB9126
012014010202CPRE3       010CPFL RENOVAVON      NM   R$  000000000133100000000013400000000001325000000000133300000000013400000000001322000000000134000008000000000000001100000000000001466400000000000000009999123100000010000000000000BRCPREACNOR5100
012014010296CPRE3F      020CPFL RENOVAVON      NM   R$  000000000130000000000013000000000001300000000000130000000000013000000000000000000000000135000001000000000000000010000000000000013000000000000000009999123100000010000000000000BRCPREACNOR5100
012014010202CRDE3       010CR2         ON      NM   R$  000000000038000000000003800000000000360000000000036100000000003600000000000360000000000038000036000000000000078100000000000028235800000000000000009999123100000010000000000000BRCRDEACNOR1108
012014010296CRDE3F      020CR2         ON      NM   R$  000000000036000000000003600000000000360000000000036000000000003600000000000356000000000037400001000000000000000033000000000000011880000000000000009999123100000010000000000000BRCRDEACNOR1108
012014010202CREM3       010CREMER      ON  EX  NM   R$  000000000154500000000015460000000001516000000000152800000000015170000000001507000000000151700020000000000000005000000000000007644000000000000000009999123100000010000000000000BRCREMACNOR2168
012014010202CRIV3       010ALFA FINANC ON           R$  000000000040500000000004050000000000382000000000038200000000003820000000000382000000000040000014000000000000017600000000000006725500000000000000009999123100000010000000000000BRCRIVACNOR4190
012014010296CRIV3F      020ALFA FINANC ON           R$  000000000040000000000004000000000000400000000000040000000000004000000000000350000000000041000001000000000000000025000000000000010000000000000000009999123100000010000000000000BRCRIVACNOR4190
012014010202CRIV4       010ALFA FINANC PN           R$  000000000039900000000003990000000000387000000000038800000000003900000000000390000000000039800015000000000000007900000000000003069600000000000000009999123100000010000000000000BRCRIVACNPR1190
012014010202CRUZ3       010SOUZA CRUZ  ON  EJ       R$  000000000241000000000024100000000002325000000000234300000000023470000000002345000000000234806785000000000001215300000000002848384900000000000000009999123100000010000000000000BRCRUZACNOR0249
012014010296CRUZ3F      020SOUZA CRUZ  ON  EJ       R$  000000000238000000000023900000000002321000000000235400000000023400000000002340000000000236900064000000000000001965000000000004627081000000000000009999123100000010000000000000BRCRUZACNOR0249
012014010262CRUZ3T      030SOUZA CRUZ  ON  EJ    062R$  000000000238400000000023850000000002384000000000238400000000023850000000000000000000000000000002000000000000003400000000000008106141000000000000009999123100000010000000000000BRCRUZACNOR0249
012014010202CSAN3       010COSAN       ON      NM   R$  000000000395700000000039660000000003783000000000385600000000038050000000003805000000000380707108000000000001460700000000005633144600000000000000009999123100000010000000000000BRCSANACNOR6108
012014010296CSAN3F      020COSAN       ON      NM   R$  000000000395100000000039510000000003790000000000386800000000038680000000003767000000000386900073000000000000001464000000000005663203000000000000009999123100000010000000000000BRCSANACNOR6108
012014010262CSAN3T      030COSAN       ON      NM062R$  000000000386200000000038630000000003862000000000386200000000038630000000000000000000000000000002000000000000000200000000000000772415000000000000009999123100000010000000000000BRCSANACNOR6108
012014010262CSAN3T      030COSAN       ON      NM090R$  000000000397100000000039720000000003965000000000396800000000039660000000000000000000000000000016000000000000120000000000000476186930000000000000009999123100000010000000000000BRCSANACNOR6108
012014010202CSCO34      010CISCO       DRN EX       R$  000000000530000000000053000000000005300000000000530000000000053000000000005240000000000531500001000000000000002400000000000012720000000000000000009999123100000010000000000000BRCSCOBDR004112
012014010212CSHP11B     010FII CSHG POPCI  EX  MB   R$  000000009950100000000995010000000099501000000009950100000000995010000000099501000000000000000001000000000000000001000000000000099501000000000000009999123100000010000000000000BRCSHPCTF009106
012014010202CSMG3       010COPASA      ON      NM   R$  000000000373900000000037450000000003574000000000367900000000036800000000003654000000000368000965000000000000136200000000000501087300000000000000009999123100000010000000000000BRCSMGACNOR5128
012014010296CSMG3F      020COPASA      ON      NM   R$  000000000386100000000038610000000003620000000000371200000000036680000000003403000000000371900008000000000000000261000000000000968952000000000000009999123100000010000000000000BRCSMGACNOR5128
012014010214CSMO11      010ISHARES CSMOCI           R$  000000000468000000000046800000000004680000000000468000000000046800000000000000000000000480000001000000000000000030000000000000140400000000000000009999123100000010000000000000BRCSMOCTF002100
012014010202CSNA3       010SID NACIONALON           R$  000000000145300000000014550000000001400000000000142500000000014040000000001403000000000140416758000000000008504200000000012125937700000000000000009999123100000010000000000000BRCSNAACNOR6244
012014010296CSNA3F      020SID NACIONALON           R$  000000000144600000000014690000000001400000000000143200000000014400000000001404000000000144000110000000000000003193000000000004573161000000000000009999123100000010000000000000BRCSNAACNOR6244
012014010262CSNA3T      030SID NACIONALON        062R$  000000000147000000000014710000000001462000000000146800000000014630000000000000000000000000000004000000000000002100000000000003083672000000000000009999123100000010000000000000BRCSNAACNOR6244
012014010262CSNA3T      030SID NACIONALON        090R$  000000000143500000000014360000000001435000000000143500000000014360000000000000000000000000000004000000000000002200000000000003158860000000000000009999123100000010000000000000BRCSNAACNOR6244
012014010262CSNA3T      030SID NACIONALON        180R$  000000000151800000000015190000000001518000000000151800000000015190000000000000000000000000000002000000000000002000000000000003037390000000000000009999123100000010000000000000BRCSNAACNOR6244
012014010278CSNAA12     070CSNA        ON        000R$  000000000028000000000002830000000000246000000000027100000000002460000000000000000000000000000036000000000000011400000000000003099600000000000116702014012000000010000000000000BRCSNAACNOR6243
012014010278CSNAA14     070CSNA  FM    ON        000R$  000000000010100000000001030000000000068000000000008000000000000690000000000058000000000008100051000000000000141500000000000011395300000000000136702014012000000010000000000000BRCSNAACNOR6243
012014010278CSNAA15     070CSNA        ON        000R$  000000000003500000000000350000000000018000000000002700000000000210000000000017000000000002300008000000000000020100000000000000551300000000000146702014012000000010000000000000BRCSNAACNOR6243
012014010278CSNAA16     070CSNA        ON        000R$  000000000000400000000000040000000000004000000000000400000000000040000000000000000000000000400001000000000000002000000000000000008000000000000160002014012000000010000000000000BRCSNAACNOR6244
012014010278CSNAA41     070CSNA  FM    ON        000R$  000000000003700000000000370000000000030000000000003500000000000300000000000000000000000000000009000000000000026100000000000000918200000000000146402014012000000010000000000000BRCSNAACNOR6241
012014010278CSNAA43     070CSNA        ON        000R$  000000000011600000000001160000000000107000000000011500000000001070000000000000000000000000000002000000000000002100000000000000242700000000000131702014012000000010000000000000BRCSNAACNOR6243
012014010278CSNAA44     070CSNA  FM    ON        000R$  000000000007600000000000770000000000059000000000006800000000000610000000000000000000000000000037000000000000108700000000000007463000000000000140002014012000000010000000000000BRCSNAACNOR6244
012014010278CSNAB13     070CSNA        ON        000R$  000000000016700000000001670000000000167000000000016700000000001670000000000000000000000000000001000000000000007000000000000001169000000000000130002014021700000010000000000000BRCSNAACNOR6244
012014010278CSNAB43     070CSNA  FM    ON        000R$  000000000014500000000001450000000000131000000000013800000000001340000000000000000000000000000014000000000000027500000000000003809900000000000135002014021700000010000000000000BRCSNAACNOR6244
012014010278CSNAB44     070CSNA  FM    ON        000R$  000000000008000000000000810000000000070000000000007600000000000710000000000004000000000008100015000000000000023300000000000001790400000000000145002014021700000010000000000000BRCSNAACNOR6244
012014010278CSNAB45     070CSNA  FM    ON        000R$  000000000003400000000000340000000000032000000000003300000000000320000000000000000000000000000002000000000000005500000000000000183000000000000155002014021700000010000000000000BRCSNAACNOR6244
012014010278CSNAB46     070CSNA        ON        000R$  000000000001300000000000130000000000013000000000001300000000000130000000000000000000000000000001000000000000001000000000000000013000000000000165002014021700000010000000000000BRCSNAACNOR6244
012014010278CSNAB5      070CSNA  FM    ON        000R$  000000000010100000000001020000000000071000000000008200000000000710000000000000000000000000000049000000000000143500000000000011859000000000000141402014021700000010000000000000BRCSNAACNOR6241
012014010278CSNAB6      070CSNA  FM    ON        000R$  000000000005100000000000510000000000041000000000004200000000000420000000000006000000000000000010000000000000218300000000000009252500000000000151402014021700000010000000000000BRCSNAACNOR6241
012014010278CSNAC13     070CSNA        ON        000R$  000000000026900000000002690000000000269000000000026900000000002690000000000000000000000026900001000000000000000500000000000000134500000000000130002014031700000010000000000000BRCSNAACNOR6244
012014010282CSNAM13     080CSNAE       ON        000R$  000000000000700000000000070000000000005000000000000500000000000050000000000002000000000001700002000000000000008800000000000000045200000000000121402014012000000010000000000000BRCSNAACNOR6241
012014010282CSNAM14     080CSNAE FM    ON        000R$  000000000001700000000000300000000000017000000000002200000000000270000000000025000000000002900060000000000000206400000000000004737600000000000136702014012000000010000000000000BRCSNAACNOR6243
012014010282CSNAM15     080CSNAE       ON        000R$  000000000005400000000000770000000000054000000000007400000000000770000000000046000000000000000012000000000000014300000000000001061400000000000146702014012000000010000000000000BRCSNAACNOR6243
012014010282CSNAM3      080CSNAE       ON        000R$  000000000000600000000000060000000000006000000000000600000000000060000000000000000000000000000001000000000000001000000000000000006000000000000126702014012000000010000000000000BRCSNAACNOR6243
012014010282CSNAM41     080CSNAE FM    ON        000R$  000000000004800000000000510000000000048000000000004900000000000500000000000000000000000000000005000000000000013000000000000000641500000000000146402014012000000010000000000000BRCSNAACNOR6241
012014010282CSNAM43     080CSNAE FM    ON        000R$  000000000001100000000000110000000000011000000000001100000000000110000000000000000000000004500001000000000000001000000000000000011000000000000131702014012000000010000000000000BRCSNAACNOR6243
012014010282CSNAM44     080CSNAE FM    ON        000R$  000000000002900000000000380000000000028000000000003000000000000380000000000026000000000000000044000000000000139500000000000004261300000000000140002014012000000010000000000000BRCSNAACNOR6244
012014010282CSNAN13     080CSNAE FM    ON        000R$  000000000002500000000000310000000000023000000000002700000000000310000000000000000000000000000011000000000000025500000000000000699000000000000130002014021700000010000000000000BRCSNAACNOR6244
012014010282CSNAN43     080CSNAE FM    ON        000R$  000000000003500000000000430000000000035000000000003600000000000430000000000000000000000000000013000000000000022000000000000000799500000000000135002014021700000010000000000000BRCSNAACNOR6244
012014010282CSNAN44     080CSNAE FM    ON        000R$  000000000007000000000000890000000000069000000000007200000000000890000000000061000000000000000012000000000000018900000000000001362200000000000145002014021700000010000000000000BRCSNAACNOR6244
012014010282CSNAN5      080CSNAE FM    ON        000R$  000000000005500000000000590000000000052000000000005500000000000560000000000000000000000000000007000000000000013000000000000000727500000000000141402014021700000010000000000000BRCSNAACNOR6241
012014010202CTAX11      010CONTAX      UNT     N2   R$  000000000201000000000020100000000001965000000000197900000000020010000000001961000000000200100036000000000000114900000000000227483900000000000000009999123100000010000000000000BRCTAXCDAM19100
012014010202CTAX3       010CONTAX      ON      N2   R$  000000000056000000000005600000000000559000000000055900000000005590000000000000000000000055900002000000000000000700000000000000391700000000000000009999123100000010000000000000BRCTAXACNOR3113
012014010202CTAX4       010CONTAX      PN      N2   R$  000000000035800000000003640000000000358000000000036000000000003640000000000356000000000036500003000000000000000900000000000000324000000000000000009999123100000010000000000000BRCTAXACNPR0114
012014010202CTIP3       010CETIP       ON  EJ  NM   R$  000000000240300000000024090000000002345000000000237300000000023690000000002369000000000237406418000000000002071200000000004916798700000000000000009999123100000010000000000000BRCTIPACNOR2121
012014010296CTIP3F      020CETIP       ON  EJ  NM   R$  000000000238300000000024130000000002300000000000236900000000023000000000002300000000000237900082000000000000001885000000000004466068000000000000009999123100000010000000000000BRCTIPACNOR2121
012014010262CTIP3T      030CETIP       ON  EJ  NM062R$  000000000241800000000024230000000002418000000000242200000000024230000000000000000000000000000012000000000000385000000000000932499255000000000000009999123100000010000000000000BRCTIPACNOR2121
012014010278CTIPA54     070CTIP    /EJ ON      NM000R$  000000000007400000000000740000000000074000000000007400000000000740000000000000000000000000000002000000000000100000000000000007400000000000000233802014012000000010000000000000BRCTIPACNOR2120
012014010202CTNM3       010COTEMINAS   ON           R$  000000000024600000000002480000000000244000000000024600000000002440000000000206000000000024700005000000000000000500000000000000123300000000000000009999123100000010000000000000BRCTNMACNOR9129
012014010202CTSA4       010SANTANENSE  PN           R$  000000000053000000000005300000000000530000000000053000000000005300000000000520000000000053000001000000000000000100000000000000053000000000000000009999123100000010000000000000BRCTSAACNPR0052
012014010212CTXT11      010FII C TEXTILCI  EX       R$  000000000032900000000003290000000000329000000000032900000000003290000000000300000000000032900001000000000000000013000000000000004277000000000000009999123100000010000000000000BRCTXTCTF014113
012014010202CVCB3       010CVC BRASIL  ON      NM   R$  000000000153500000000015650000000001505000000000154300000000015650000000001565000000000157501018000000000000251000000000000387368600000000000000009999123100000010000000000000BRCVCBACNOR1100
012014010296CVCB3F      020CVC BRASIL  ON      NM   R$  000000000152000000000015590000000001511000000000154200000000015500000000001511000000000155800171000000000000000713000000000001099750000000000000009999123100000010000000000000BRCVCBACNOR1100
012014010202CYRE3       010CYRELA REALTON      NM   R$  000000000144800000000014480000000001395000000000141800000000014040000000001404000000000140521312000000000006452500000000009153318500000000000000009999123100000010000000000000BRCYREACNOR7125
012014010296CYRE3F      020CYRELA REALTON      NM   R$  000000000146000000000014830000000001398000000000142900000000014180000000001409000000000141800114000000000000001327000000000001896661000000000000009999123100000010000000000000BRCYREACNOR7125
012014010262CYRE3T      030CYRELA REALTON      NM062R$  000000000145800000000014620000000001458000000000146000000000014620000000000000000000000000000012000000000000309000000000000451311290000000000000009999123100000010000000000000BRCYREACNOR7125
012014010278CYREA14     070CYRE  FM    ON      NM000R$  000000000003900000000000390000000000039000000000003900000000000390000000000000000000000000000001000000000000003500000000000000136500000000000140002014012000000010000000000000BRCYREACNOR7125
012014010278CYREA16     070CYRE  FM    ON      NM000R$  000000000000100000000000010000000000001000000000000100000000000010000000000000000000000003000002000000000000001500000000000000001500000000000160002014012000000010000000000000BRCYREACNOR7125
012014010278CYREA44     070CYRE  FM    ON      NM000R$  000000000001200000000000120000000000012000000000001200000000000120000000000000000000000000000001000000000000000200000000000000002400000000000145002014012000000010000000000000BRCYREACNOR7125
012014010278CYREA45     070CYRE  FM    ON      NM000R$  000000000000200000000000020000000000002000000000000200000000000020000000000000000000000000000001000000000000000200000000000000000400000000000155002014012000000010000000000000BRCYREACNOR7125
012014010278CYREB14     070CYRE  FM    ON      NM000R$  000000000006400000000000640000000000064000000000006400000000000640000000000000000000000000000001000000000000000100000000000000006400000000000140002014021700000010000000000000BRCYREACNOR7125
012014010278CYREB44     070CYRE  FM    ON      NM000R$  000000000003900000000000390000000000039000000000003900000000000390000000000000000000000000000001000000000000000200000000000000007800000000000145002014021700000010000000000000BRCYREACNOR7125
012014010282CYREM14     080CYREE FM    ON      NM000R$  000000000002600000000000260000000000026000000000002600000000000260000000000000000000000000000001000000000000002000000000000000052000000000000140002014012000000010000000000000BRCYREACNOR7125
012014010282CYREM15     080CYREE FM    ON      NM000R$  000000000007700000000000900000000000077000000000008500000000000880000000000000000000000000000005000000000000015100000000000001292700000000000150002014012000000010000000000000BRCYREACNOR7125
012014010282CYREM44     080CYREE FM    ON      NM000R$  000000000005000000000000550000000000050000000000005100000000000550000000000000000000000000000002000000000000005500000000000000285000000000000145002014012000000010000000000000BRCYREACNOR7125
012014010282CYREN15     080CYREE FM    ON      NM000R$  000000000009500000000000950000000000095000000000009500000000000950000000000000000000000000000002000000000000000300000000000000028500000000000150002014021700000010000000000000BRCYREACNOR7125
012014010202CZLT33      010COSAN LTD   DR3          R$  000000000327000000000032800000000003122000000000318800000000031300000000003125000000000314001250000000000000671800000000002142310300000000000000009999123100000010000000000000BRCZLTBDR009105
012014010262CZLT33T     030COSAN LTD   DR3       062R$  000000000325300000000032590000000003253000000000325700000000032590000000000000000000000000000012000000000000268800000000000875631858000000000000009999123100000010000000000000BRCZLTBDR009105
012014010202DAGB33      010DUFRY AG    DR3          R$  000000004299500000000435000000000041199000000004153700000000416000000000041500000000004180000326000000000000006706000000000278548944000000000000009999123100000010000000000000BRDAGBBDR008100
012014010202DASA3       010DASA        ON      NM   R$  000000000145500000000014660000000001422000000000143400000000014360000000001436000000000143907987000000000001590300000000002281394000000000000000009999123100000010000000000000BRDASAACNOR1108
012014010296DASA3F      020DASA        ON      NM   R$  000000000145100000000015000000000001401000000000143300000000015000000000001435000000000150000019000000000000000529000000000000758535000000000000009999123100000010000000000000BRDASAACNOR1108
012014010202DAYC4       010DAYCOVAL    PN  EJ  N2   R$  000000000079600000000007960000000000775000000000078500000000007760000000000776000000000078100175000000000000049600000000000038950900000000000000009999123100000010000000000000BRDAYCACNPR2130
012014010202DIRR3       010DIRECIONAL  ON      NM   R$  000000000120000000000012130000000001129000000000114600000000011400000000001140000000000114201809000000000000402300000000000461102000000000000000009999123100000010000000000000BRDIRRACNOR0104
012014010296DIRR3F      020DIRECIONAL  ON      NM   R$  000000000118800000000012130000000001128000000000116700000000011350000000001127000000000121000059000000000000002039000000000002381406000000000000009999123100000010000000000000BRDIRRACNOR0104
012014010262DIRR3T      030DIRECIONAL  ON      NM032R$  000000000114300000000011440000000001141000000000114100000000011420000000000000000000000000000012000000000000040000000000000045678191000000000000009999123100000010000000000000BRDIRRACNOR0104
012014010214DIVO11      010IT NOW IDIV CI           R$  000000000340000000000034000000000003316000000000334400000000033300000000003330000000000335500062000000000000006280000000000021002260000000000000009999123100000010000000000000BRDIVOCTF002100
012014010296DIVO11F     020IT NOW IDIV CI           R$  000000000340000000000034800000000003288000000000335400000000033530000000003278000000000336800007000000000000000018000000000000060374000000000000009999123100000010000000000000BRDIVOCTF002100
012014010202DOHL4       010DOHLER      PN           R$  000000000052200000000005400000000000522000000000052700000000005400000000000523000000000054300005000000000000000700000000000000369200000000000000009999123100000010000000000000BRDOHLACNPR9055
012014010212DOVL11B     010FII DOVEL   CI  EX  MB   R$  000000025500000000002550000000000255000000000025500000000002550000000000000000000000000000000004000000000000000157000000000040035000000000000000009999123100000010000000000000BRDOVLCTF006128
012014010202DTCY3       010DTCOM-DIRECTON           R$  000000000005000000000000500000000000033000000000003700000000000330000000000032000000000004500007000000000000002600000000000000098300000000000000009999123100000010000000000000BRDTCYACNOR5107
012014010202DTEX3       010DURATEX     ON      NM   R$  000000000131000000000013140000000001250000000000127500000000012580000000001258000000000126406154000000000001460600000000001862459300000000000000009999123100000010000000000000BRDTEXACNOR3116
012014010296DTEX3F      020DURATEX     ON      NM   R$  000000000130900000000013090000000001230000000000127800000000012590000000001230000000000125900035000000000000000868000000000001108202000000000000009999123100000010000000000000BRDTEXACNOR3116
012014010262DTEX3T      030DURATEX     ON      NM018R$  000000000127000000000012710000000001270000000000127000000000012710000000000000000000000000000002000000000000001000000000000001270834000000000000009999123100000010000000000000BRDTEXACNOR3116
012014010202EBTP3       010EMBRATEL PARON *EX       R$  000000000085000000000008500000000000838000000000084100000000008380000000000802000000000081000004000000000000800000000000000000672800000000000000009999123100010000000000000000BREBTPACNOR3117
012014010296EBTP3F      020EMBRATEL PARON *EX       R$  000000000081800000000008180000000000818000000000081800000000008180000000000818000000000085600003000000000000010872000000000000008892000000000000009999123100010000000000000000BREBTPACNOR3117
012014010202EBTP4       010EMBRATEL PARPN *EX       R$  000000000085000000000008500000000000832000000000083600000000008320000000000800000000000090000005000000000000900000000000000000752700000000000000009999123100010000000000000000BREBTPACNPR0122
012014010296EBTP4F      020EMBRATEL PARPN *EX       R$  000000000084300000000008780000000000843000000000084700000000008780000000000865000000000087800004000000000000010869000000000000009210000000000000009999123100010000000000000000BREBTPACNPR0122
012014010214ECOO11      010ISHARES ECOOCI           R$  000000000529200000000054030000000005201000000000534500000000053420000000004800000000000539500028000000000000022460000000000120067290000000000000009999123100000010000000000000BRECOOCTF008100
012014010296ECOO11F     020ISHARES ECOOCI           R$  000000000524400000000052440000000005000000000000512200000000050000000000005248000000000560000002000000000000000008000000000000040976000000000000009999123100000010000000000000BRECOOCTF008100
012014010202ECOR3       010ECORODOVIAS ON      NM   R$  000000000148000000000015180000000001453000000000148700000000014690000000001457000000000146906382000000000001910800000000002842309300000000000000009999123100000010000000000000BRECORACNOR8107
012014010296ECOR3F      020ECORODOVIAS ON      NM   R$  000000000149800000000015160000000001458000000000148800000000014580000000001431000000000151600013000000000000000381000000000000567225000000000000009999123100000010000000000000BRECORACNOR8107
012014010262ECOR3T      030ECORODOVIAS ON      NM062R$  000000000150200000000015090000000001502000000000150500000000015090000000000000000000000000000012000000000000328600000000000494587563000000000000009999123100000010000000000000BRECORACNOR8107
012014010212EDGA11B     010FII GALERIA CI  ER  MB   R$  000000000740000000000075060000000007400000000000743600000000074400000000007380000000000743900036000000000000002608000000000019393431000000000000009999123100000010000000000000BREDGACTF001115
012014010202EEEL3       010CEEE-GT     ON      N1   R$  000000000015900000000001590000000000159000000000015900000000001590000000000126000000000015900003000000000000007100000000000001128900000000000000009999123100000010000000000000BREEELACNOR8102
012014010262EEEL3T      030CEEE-GT     ON      N1180R$  000000000016700000000001680000000000167000000000016700000000001680000000000000000000000000000002000000000000007000000000000001171989000000000000009999123100000010000000000000BREEELACNOR8102
012014010202ELET3       010ELETROBRAS  ON      N1   R$  000000000059100000000005910000000000551000000000056400000000005540000000000554000000000055908386000000000003963000000000002237530300000000000000009999123100000010000000000000BRELETACNOR6151
012014010296ELET3F      020ELETROBRAS  ON      N1   R$  000000000058200000000005940000000000553000000000056700000000005940000000000558000000000059400066000000000000001803000000000001023682000000000000009999123100000010000000000000BRELETACNOR6151
012014010262ELET3T      030ELETROBRAS  ON      N1018R$  000000000057900000000005800000000000556000000000055700000000005570000000000000000000000000000006000000000000128800000000000071839291000000000000009999123100000010000000000000BRELETACNOR6151
012014010262ELET3T      030ELETROBRAS  ON      N1032R$  000000000057400000000005750000000000558000000000055900000000005590000000000000000000000000000006000000000000125600000000000070276041000000000000009999123100000010000000000000BRELETACNOR6151
