00COTAHIST.2020BOVESPA 20200505                                                                                                                                                                                                                      
012020050502A1LK34      010ALASKA AIR GDRN          R$  000000001653600000000165360000000016536000000001653600000000165360000000000000000000000000000002000000000000000200000000000003307200000000000000009999123100000010000000000000BRA1LKBDR009101
012020050502A1MT34      010APPLIED MATEDRN          R$  000000002758300000000275830000000027583000000002758300000000275830000000000000000000000000000001000000000000000400000000000011033200000000000000009999123100000010000000000000BRA1MTBDR008101
012020050502A1PA34      010APACHE CORP DRN          R$  000000000710400000000071040000000007050000000000709600000000070500000000000000000000000000000007000000000000000700000000000004967400000000000000009999123100000010000000000000BRA1PABDR001102
012020050502AALL34      010AMERICAN AIRDRN          R$  000000000557000000000055700000000005350000000000543500000000053500000000005350000000000635000009000000000000001810000000000009837560000000000000009999123100000010000000000000BRAALLBDR003115
012020050502AALR3       010ALLIAR      ON  ED  NM   R$  000000000099000000000010040000000000947000000000097000000000009520000000000951000000000095201797000000000000411500000000000399498500000000000000009999123100000010000000000000BRAALRACNOR6102
012020050502AAPL34      010APPLE       DRN          R$  000000001626900000000168200000000016269000000001661900000000166500000000016300000000001700000032000000000000010400000000000172841650000000000000009999123100000010000000000000BRAAPLBDR004132
012020050502ABCB4       010ABC BRASIL  PN      N2   R$  000000000134800000000013950000000001327000000000135500000000013410000000001338000000000134102686000000000000430000000000000583047000000000000000009999123100000010000000000000BRABCBACNPR4133
012020050502ABEV3       010AMBEV S/A   ON           R$  000000000119000000000012150000000001184000000000120100000000011940000000001194000000000119542337000000000025595500000000030765030200000000000000009999123100000010000000000000BRABEVACNOR1122
012020050502ABTT34      010ABBOTT      DRN          R$  000000001256000000000131000000000012560000000001280000000000131000000000000000000000000000000002000000000000000090000000000001152000000000000000009999123100000010000000000000BRABTTBDR007134
012020050502ADHM3       010ADVANCED-DH ON           R$  000000000024100000000002480000000000238000000000024200000000002380000000000239000000000024100069000000000000023900000000000005792100000000000000009999123100000010000000000000BRADHMACNOR9102
012020050502ADPR34      010AUTOMATIC DTDRN          R$  000000004113000000000411300000000041130000000004113000000000411300000000000000000000000000000001000000000000000020000000000000822600000000000000009999123100000010000000000000BRADPRBDR005103
012020050502AFLT3       010AFLUENTE T  ON           R$  000000000074200000000007490000000000690000000000072200000000007050000000000690000000000070500034000000000000006400000000000004625200000000000000009999123100000010000000000000BRAFLTACNOR1114
012020050502AGRO3       010BRASILAGRO  ON      NM   R$  000000000208200000000020900000000002034000000000206900000000020900000000002057000000000209000406000000000000123200000000000254916100000000000000009999123100000010000000000000BRAGROACNOR7109
012020050502ALPA3       010ALPARGATAS  ON      N1   R$  000000000215000000000022180000000002138000000000216000000000021900000000002117000000000219000005000000000000000700000000000001512600000000000000009999123100000010000000000000BRALPAACNOR0229
012020050502ALPA4       010ALPARGATAS  PN      N1   R$  000000000266900000000027410000000002638000000000268200000000026380000000002638000000000264007560000000000001400500000000003756664000000000000000009999123100000010000000000000BRALPAACNPR7229
012020050502ALSO3       010ALIANSCSONAEON      NM   R$  000000000265200000000026910000000002515000000000258800000000025150000000002515000000000252007106000000000001772600000000004588197500000000000000009999123100000010000000000000BRALSOACNOR5100
012020050502ALUP3       010ALUPAR      ON  ED  N2   R$  000000000097700000000009990000000000960000000000098300000000009930000000000965000000000099400076000000000000012200000000000011998000000000000000009999123100000010000000000000BRALUPACNOR8111
012020050502ALUP4       010ALUPAR      PN  ED  N2   R$  000000000064000000000006560000000000635000000000064200000000006360000000000636000000000065500084000000000000017100000000000010988400000000000000009999123100000010000000000000BRALUPACNPR5111
012020050502ALUP11      010ALUPAR      UNT ED  N2   R$  000000000225300000000022970000000002242000000000226500000000022750000000002259000000000227502878000000000000482500000000001093048500000000000000009999123100000010000000000000BRALUPCDAM15111
012020050502AMAR3       010LOJAS MARISAON      NM   R$  000000000063200000000006430000000000591000000000061700000000006000000000000600000000000060310926000000000007297900000000004507515700000000000000009999123100000010000000000000BRAMARACNOR4112
012020050502AMGN34      010AMGEN       DRN          R$  000000013218700000001321870000000132187000000013218700000001321870000000000000000000000000000001000000000000000100000000000013218700000000000000009999123100000010000000000000BRAMGNBDR004133
012020050502AMZO34      010AMAZON      DRN          R$  000000064500000000006530380000000644800000000065045400000006530380000000610007000000065800000006000000000000000870000000000565895300000000000000009999123100000010000000000000BRAMZOBDR002101
012020050502ANIM3       010ANIMA       ON      NM   R$  000000000223000000000022310000000002040000000000212200000000020400000000002033000000000204001330000000000000219500000000000465822300000000000000009999123100000010000000000000BRANIMACNOR6106
012020050502APER3       010ALPER S.A.  ON      NM   R$  000000000179900000000019350000000001750000000000184000000000018290000000001828000000000188000144000000000000038300000000000070499300000000000000009999123100000010000000000000BRAPERACNOR9101
012020050502ARZZ3       010AREZZO CO   ON      NM   R$  000000000419500000000042400000000004130000000000419300000000041600000000004160000000000416201135000000000000170400000000000714560800000000000000009999123100000010000000000000BRARZZACNOR3137
012020050502ATOM3       010ATOMPAR     ON           R$  000000000013300000000001900000000000132000000000016600000000001900000000000190000000000019101322000000000000989600000000000164326900000000000000009999123100000010000000000000BRATOMACNOR1103
012020050502ATTB34      010ATT INC     DRN          R$  000000001659300000000165930000000016593000000001659300000000165930000000016593000000000000000001000000000000002860000000000047455980000000000000009999123100000010000000000000BRATTBBDR007131
012020050502AVGO34      010BROADCOM INCDRN          R$  000000002980200000000298020000000029802000000002980200000000298020000000000000000000000000000001000000000000001100000000000032782200000000000000009999123100000010000000000000BRAVGOBDR003104
012020050502AZEV3       010AZEVEDO     ON           R$  000000000036500000000003650000000000365000000000036500000000003650000000000366000000000038000003000000000000000800000000000000292000000000000000009999123100000010000000000000BRAZEVACNOR0117
012020050502AZEV4       010AZEVEDO     PN           R$  000000000027000000000002830000000000270000000000027500000000002750000000000275000000000027700020000000000000011000000000000003034300000000000000009999123100000010000000000000BRAZEVACNPR7117
012020050502AZUL4       010AZUL        PN      N2   R$  000000000156500000000015780000000001506000000000153600000000015160000000001516000000000151720530000000000007546000000000011596679200000000000000009999123100000010000000000000BRAZULACNPR4100
012020050502B3SA3       010B3          ON      NM   R$  000000000385500000000039960000000003854000000000390900000000038740000000003874000000000388922368000000000006951000000000027174209900000000000000009999123100000010000000000000BRB3SAACNOR6110
012020050502BABA34      010ALIBABAGR   DRN          R$  000000010920000000001092000000000108500000000010901800000001085000000000101050000000000000000006000000000000000270000000000029435000000000000000009999123100000010000000000000BRBABABDR005100
012020050502BAHI3       010BAHEMA      ON      MA   R$  000000000700000000000073000000000007000000000000711200000000073000000000006600000000000725000006000000000000000800000000000005690000000000000000009999123100000010000000000000BRBAHIACNOR1071
012020050502BALM4       010BAUMER      PN           R$  000000000095100000000009900000000000951000000000097000000000009710000000000970000000000099000006000000000000000600000000000000582300000000000000009999123100000010000000000000BRBALMACNPR2050
012020050502BAZA3       010AMAZONIA    ON           R$  000000000297100000000030030000000002828000000000295300000000030030000000002934000000000300900008000000000000000900000000000002658300000000000000009999123100000010000000000000BRBAZAACNOR0174
012020050502BBAS3       010BRASIL      ON      NM   R$  000000000280200000000028550000000002756000000000280600000000027800000000002780000000000278133818000000000015799600000000044342552000000000000000009999123100000010000000000000BRBBASACNOR3291
012020050502BBDC3       010BRADESCO    ON  EJ  N1   R$  000000000169700000000017560000000001677000000000170500000000016850000000001685000000000168715957000000000005449500000000009292511400000000000000009999123100000010000000000000BRBBDCACNOR1711
012020050502BBDC4       010BRADESCO    PN  EJ  N1   R$  000000000185000000000019040000000001816000000000184700000000018300000000001829000000000183091054000000000051359100000000094895126000000000000000009999123100000010000000000000BRBBDCACNPR8711
012020050502BBRK3       010BR BROKERS  ON      NM   R$  000000000023200000000002400000000000222000000000022900000000002230000000000222000000000022300303000000000000126700000000000029131400000000000000009999123100000010000000000000BRBBRKACNOR4113
012020050502BBSD11      010BB ETF SP DVCI           R$  000000000658900000000066540000000006589000000000662600000000066360000000000000000000000800000003000000000000000030000000000000198790000000000000009999123100000010000000000000BRBBSDCTF000100
012020050502BBSE3       010BBSEGURIDADEON      NM   R$  000000000257100000000025910000000002490000000000252200000000024900000000002490000000000250017727000000000004075600000000010282182000000000000000009999123100000010000000000000BRBBSEACNOR5116
012020050502BCSA34      010SANTANDER   DRN          R$  000000000116000000000011830000000001151000000000116600000000011740000000001170000000000117400041000000000000011210000000000013073470000000000000009999123100000010000000000000BRBCSABDR005101
012020050502BEEF3       010MINERVA     ON      NM   R$  000000000128000000000013060000000001221000000000125900000000012500000000001249000000000125024687000000000009098600000000011464024400000000000000009999123100000010000000000000BRBEEFACNOR6108
012020050502BEES3       010BANESTES    ON  EJ       R$  000000000051000000000005120000000000500000000000050400000000005000000000000497000000000050000077000000000000017100000000000008626600000000000000009999123100000010000000000000BRBEESACNOR9337
012020050502BEES4       010BANESTES    PN  EJ       R$  000000000050000000000005000000000000498000000000049900000000005000000000000498000000000050000021000000000000004000000000000001999600000000000000009999123100000010000000000000BRBEESACNPR6262
012020050502BERK34      010BERKSHIRE   DRN          R$  000000010000000000001000000000000098300000000009882600000000986000000000097000000000011240000010000000000000002300000000000227301960000000000000009999123100000010000000000000BRBERKBDR002100
012020050502BGIP4       010BANESE      PN           R$  000000000223600000000022360000000002236000000000223600000000022360000000002236000000000230500002000000000000000200000000000000447200000000000000009999123100000010000000000000BRBGIPACNPR8198
012020050502BHPG34      010BHP GROUP   DRN          R$  000000002200000000000220800000000021900000000002199300000000220800000000000000000000000000000003000000000000000030000000000000659800000000000000009999123100000010000000000000BRBHPGBDR007101
012020050502BIDI3       010BANCO INTER ON      N2   R$  000000000091100000000009350000000000903000000000091600000000009030000000000903000000000092600599000000000000152100000000000139386200000000000000009999123100000010000000000000BRBIDIACNOR3105
012020050502BIDI4       010BANCO INTER PN      N2   R$  000000000092900000000009560000000000917000000000093400000000009390000000000936000000000093906271000000000003552200000000003319167600000000000000009999123100000010000000000000BRBIDIACNPR0109
012020050502BIDI11      010BANCO INTER UNT     N2   R$  000000000276700000000028440000000002724000000000279400000000027350000000002735000000000274902063000000000000701400000000001960047300000000000000009999123100000010000000000000BRBIDICDAXX3104
012020050502BIOM3       010BIOMM       ON      MA   R$  000000000100200000000010270000000000971000000000100800000000010200000000000986000000000102000082000000000000021700000000000021874600000000000000009999123100000010000000000000BRBIOMACNOR2107
012020050502BKBR3       010BK BRASIL   ON      NM   R$  000000000094500000000009900000000000935000000000096400000000009490000000000943000000000094904942000000000001042500000000001005551100000000000000009999123100000010000000000000BRBKBRACNOR4103
012020050502BKNG34      010BOOKING     DRN          R$  000000003146900000000314690000000031200000000003133400000000312000000000000000000000000000000002000000000000000020000000000000626690000000000000009999123100000010000000000000BRBKNGBDR006100
012020050502BLAK34      010BLACKROCK   DRN          R$  000000004572000000000457200000000045720000000004572000000000457200000000000000000000000000000002000000000000000020000000000000914400000000000000009999123100000010000000000000BRBLAKBDR003116
012020050502BMEB3       010MERC BRASIL ON           R$  000000000130000000000013000000000001300000000000130000000000013000000000001290000000000145000001000000000000000100000000000000130000000000000000009999123100000010000000000000BRBMEBACNOR8196
012020050502BMEB4       010MERC BRASIL PN           R$  000000000110000000000011000000000001080000000000109500000000010900000000000901000000000109900006000000000000000600000000000000657000000000000000009999123100000010000000000000BRBMEBACNPR5201
012020050502BMGB4       010BANCO BMG   PN      N1   R$  000000000047900000000004840000000000455000000000046900000000004650000000000464000000000046501304000000000000578100000000000271141300000000000000009999123100000010000000000000BRBMGBACNPR0101
012020050502BMIN3       010MERC INVEST ON           R$  000000000177000000000017700000000001655000000000171300000000017450000000001620000000000170000034000000000000005900000000000010109700000000000000009999123100000010000000000000BRBMINACNOR4168
012020050502BMKS3       010BIC MONARK  ON  ED       R$  000000001889000000000188900000000018800000000001880100000000188000000000017800000000001880000002000000000000000051000000000000958890000000000000009999123100000010000000000000BRBMKSACNOR9162
012020050502BOAC34      010BANK AMERICADRN          R$  000000001292800000000129410000000012900000000001293500000000129410000000010000000000002000000005000000000000005150000000000066616830000000000000009999123100000010000000000000BRBOACBDR004138
012020050502BOBR4       010BOMBRIL     PN           R$  000000000017800000000001780000000000171000000000017400000000001720000000000171000000000017300059000000000000014400000000000002511300000000000000009999123100000010000000000000BRBOBRACNPR3128
012020050502BOVA11      010ISHARES BOVACI           R$  000000000770000000000078140000000007620000000000772400000000076540000000007654000000000766903272000000000011236200000000086790409020000000000000009999123100000010000000000000BRBOVACTF003104
012020050502BOVB11      010ETF BRAD BOVCI           R$  000000000800900000000081090000000007908000000000800500000000079450000000007850000000000794500218000000000000416730000000003335988410000000000000009999123100000010000000000000BRBOVBCTF001100
012020050502BOVV11      010IT NOW IBOV CI           R$  000000000799000000000081460000000007948000000000805000000000079830000000007983000000000799501541000000000000522120000000004203115930000000000000009999123100000010000000000000BRBOVVCTF009100
012020050502BPAC3       010BTGP BANCO  ON      N2   R$  000000000205200000000021000000000002049000000000205900000000020490000000002023000000000205000016000000000000003100000000000006385300000000000000009999123100000010000000000000BRBPACACNOR7121
012020050502BPAC5       010BTGP BANCO  PNA     N2   R$  000000000116000000000011700000000001132000000000116000000000011320000000001120000000000113200017000000000000004300000000000004989400000000000000009999123100000010000000000000BRBPACACNPA0121
012020050502BPAC11      010BTGP BANCO  UNT     N2   R$  000000000418000000000042670000000004049000000000417100000000041390000000004133000000000414106262000000000001358700000000005668153200000000000000009999123100000010000000000000BRBPACUNT006106
012020050502BPAN4       010BANCO PAN   PN      N1   R$  000000000050200000000005110000000000488000000000049800000000004960000000000495000000000049604850000000000003012200000000001501993700000000000000009999123100000010000000000000BRBPANACNPR1108
012020050502BRAP3       010BRADESPAR   ON      N1   R$  000000000259700000000025990000000002500000000000252600000000025150000000002486000000000254900120000000000000021200000000000053557500000000000000009999123100000010000000000000BRBRAPACNOR5136
012020050502BRAP4       010BRADESPAR   PN      N1   R$  000000000292300000000029600000000002853000000000289800000000028530000000002853000000000285705080000000000001071500000000003105852800000000000000009999123100000010000000000000BRBRAPACNPR2136
012020050502BRAX11      010ISHARES BRAXCI           R$  000000000671100000000067160000000006608000000000668200000000066500000000006500000000000665000017000000000000000740000000000004945390000000000000009999123100000010000000000000BRBRAXCTF002100
012020050502BRDT3       010PETROBRAS BRON      NM   R$  000000000199500000000020580000000001958000000000201700000000019800000000001977000000000198025215000000000006598100000000013311509300000000000000009999123100000010000000000000BRBRDTACNOR1119
012020050502BRFS3       010BRF SA      ON      NM   R$  000000000187000000000019280000000001829000000000187900000000018340000000001834000000000184123597000000000008736000000000016418621500000000000000009999123100000010000000000000BRBRFSACNOR8119
012020050502BRIV4       010ALFA INVEST PN           R$  000000000074000000000007500000000000740000000000074800000000007500000000000701000000000074700004000000000000001000000000000000748800000000000000009999123100000010000000000000BRBRIVACNPR3210
012020050502BRKM3       010BRASKEM     ON      N1   R$  000000000219700000000021970000000002035000000000208400000000020500000000002055000000000206000051000000000000012000000000000025013900000000000000009999123100000010000000000000BRBRKMACNOR1117
012020050502BRKM5       010BRASKEM     PNA     N1   R$  000000000215000000000021820000000002045000000000210100000000020680000000002067000000000206808524000000000002050000000000004308885900000000000000009999123100000010000000000000BRBRKMACNPA4117
012020050502BRML3       010BR MALLS PARON      NM   R$  000000000095000000000009570000000000910000000000092600000000009100000000000910000000000091121381000000000007504800000000006956087900000000000000009999123100000010000000000000BRBRMLACNOR9115
012020050502BRPR3       010BR PROPERT  ON  ED  NM   R$  000000000087100000000008870000000000842000000000085900000000008540000000000851000000000085404654000000000001429600000000001229260500000000000000009999123100000010000000000000BRBRPRACNOR9119
012020050502BRSR3       010BANRISUL    ON      N1   R$  000000000147700000000014790000000001451000000000146800000000014510000000001445000000000146000021000000000000011300000000000016590200000000000000009999123100000010000000000000BRBRSRACNOR3167
012020050502BRSR6       010BANRISUL    PNB     N1   R$  000000000122500000000012500000000001210000000000122700000000012200000000001220000000000122104866000000000001325100000000001626827100000000000000009999123100000010000000000000BRBRSRACNPB4170
012020050502BRZP11      010FIP BRZ IE  CI  EA       R$  000000007659900000000769990000000070101000000007459000000000731010000000073101000000007635000027000000000000000322000000000024018219000000000000009999123100000010000000000000BRBRZPCTF005102
012020050502BSEV3       010BIOSEV      ON      NM   R$  000000000026400000000002750000000000264000000000026800000000002650000000000265000000000026600104000000000000034400000000000009226000000000000000009999123100000010000000000000BRBSEVACNOR3102
012020050502BTOW3       010B2W DIGITAL ON      NM   R$  000000000764900000000079190000000007383000000000770000000000074860000000007486000000000749413566000000000003078500000000023704986100000000000000009999123100000010000000000000BRBTOWACNOR8110
012020050502BTTL3       010BATTISTELLA ON           R$  000000000044000000000004990000000000440000000000047800000000004820000000000454000000000049600013000000000000006300000000000003017300000000000000009999123100000010000000000000BRBTTLACNOR0108
012020050502C1CL34      010CARNIVAL CORDRN          R$  000000000809200000000080920000000007989000000000804000000000079890000000000000000000000000000003000000000000000600000000000004824300000000000000009999123100000010000000000000BRC1CLBDR004101
012020050502C1TX34      010CITRIX SYSTEDRN          R$  000000004088600000000414000000000040886000000004131300000000413570000000000000000000000000000012000000000000008030000000000331745700000000000000009999123100000010000000000000BRC1TXBDR003101
012020050502CAMB3       010CAMBUCI     ON           R$  000000000027100000000002760000000000262000000000027100000000002680000000000265000000000026800178000000000000151100000000000041028300000000000000009999123100000010000000000000BRCAMBACNOR4119
012020050502CAML3       010CAMIL       ON      NM   R$  000000000085000000000008640000000000816000000000083000000000008160000000000816000000000081703817000000000000999300000000000829673700000000000000009999123100000010000000000000BRCAMLACNOR3109
012020050502CARD3       010CSU CARDSYSTON      NM   R$  000000000097100000000009800000000000917000000000095600000000009400000000000940000000000094200415000000000000122700000000000117416700000000000000009999123100000010000000000000BRCARDACNOR9117
012020050502CCPR3       010CYRE COM-CCPON  ED  NM   R$  000000000147000000000015000000000001376000000000142600000000013760000000001376000000000137901229000000000000185300000000000264280300000000000000009999123100000010000000000000BRCCPRACNOR9114
012020050502CCRO3       010CCR SA      ON      NM   R$  000000000123500000000012720000000001226000000000125200000000012500000000001250000000000125217786000000000006770800000000008482200100000000000000009999123100000010000000000000BRCCROACNOR2137
012020050502CEAB3       010CEA MODAS   ON      NM   R$  000000000093500000000009590000000000861000000000089900000000008610000000000861000000000086309661000000000002603100000000002340305100000000000000009999123100000010000000000000BRCEABACNOR1101
012020050502CEBR5       010CEB         PNA          R$  000000000650000000000065000000000006500000000000650000000000065000000000005501000000000750000001000000000000000100000000000000650000000000000000009999123100000010000000000000BRCEBRACNPA8116
012020050502CEDO3       010CEDRO       ON      N1   R$  000000000169900000000020000000000001560000000000171800000000016510000000001650000000000166500174000000000000026500000000000045532900000000000000009999123100000010000000000000BRCEDOACNOR8096
012020050502CEDO4       010CEDRO       PN      N1   R$  000000000072100000000007800000000000660000000000071400000000007020000000000691000000000071500380000000000000077900000000000055684900000000000000009999123100000010000000000000BRCEDOACNPR5128
012020050502CESP3       010CESP        ON      N1   R$  000000000288600000000029110000000002800000000000283600000000028000000000002785000000000280000131000000000000035100000000000099566400000000000000009999123100000010000000000000BRCESPACNOR3169
012020050502CESP6       010CESP        PNB     N1   R$  000000000272600000000027890000000002698000000000276100000000027480000000002748000000000275009825000000000002238900000000006182553700000000000000009999123100000010000000000000BRCESPACNPB4128
012020050502CGAS5       010COMGAS      PNA          R$  000000001611500000000161150000000015512000000001575300000000156000000000015555000000001607000023000000000000002600000000000040959600000000000000009999123100000010000000000000BRCGASACNPA3148
012020050502CGRA3       010GRAZZIOTIN  ON           R$  000000000225000000000022790000000002171000000000222100000000022430000000002220000000000224400009000000000000002300000000000005109800000000000000009999123100000010000000000000BRCGRAACNOR2071
012020050502CGRA4       010GRAZZIOTIN  PN           R$  000000000249500000000024950000000002438000000000246400000000024600000000002430000000000246000062000000000000008600000000000021197400000000000000009999123100000010000000000000BRCGRAACNPR9071
012020050502CHKE34      010CHESAPEAKE  DRN          R$  000000000971000000000099000000000008800000000000955300000000088100000000007200000000002300000006000000000000000420000000000004012600000000000000009999123100000010000000000000BRCHKEBDR001101
012020050502CHVX34      010CHEVRON     DRN          R$  000000002608000000000261800000000026080000000002615400000000261720000000021500000000000000000006000000000000002000000000000052308400000000000000009999123100000010000000000000BRCHVXBDR008136
012020050502CIEL3       010CIELO       ON      NM   R$  000000000040100000000004060000000000391000000000039600000000003910000000000391000000000039217496000000000018426000000000007313759300000000000000009999123100000010000000000000BRCIELACNOR3142
012020050502CINF34      010CINCINNATI  DRN          R$  000000001640000000000164000000000016400000000001640000000000164000000000000000000000001720000001000000000000000100000000000001640000000000000000009999123100000010000000000000BRCINFBDR000102
012020050502CLSC4       010CELESC      PN  ED  N2   R$  000000000372100000000040400000000003721000000000397900000000040390000000003836000000000403900189000000000000078600000000000312797700000000000000009999123100000010000000000000BRCLSCACNPR3115
012020050502CMCS34      010COMCAST     DRN          R$  000000002007900000000203000000000020079000000002022200000000203000000000000000000000000000000002000000000000002770000000000056016630000000000000009999123100000010000000000000BRCMCSBDR008134
012020050502CMIG3       010CEMIG       ON      N1   R$  000000000094900000000009590000000000928000000000093700000000009310000000000931000000000093303344000000000000974200000000000913771900000000000000009999123100000010000000000000BRCMIGACNOR6223
012020050502CMIG4       010CEMIG       PN      N1   R$  000000000095100000000009550000000000922000000000093300000000009250000000000925000000000093118180000000000010886500000000010165007700000000000000009999123100000010000000000000BRCMIGACNPR3224
012020050502CNTO3       010CENTAURO    ON      NM   R$  000000000325000000000033040000000003002000000000315500000000030260000000003026000000000303008984000000000001862000000000005875346200000000000000009999123100000010000000000000BRCNTOACNOR5100
012020050502COCA34      010COCA COLA   DRN          R$  000000002560000000000256000000000025600000000002560000000000256000000000024000000000000000000001000000000000000070000000000001792000000000000000009999123100000010000000000000BRCOCABDR002134
012020050502COCE5       010COELCE      PNA ED       R$  000000000499200000000051240000000004931000000000501300000000050250000000004959000000000502500111000000000000017300000000000086734600000000000000009999123100000010000000000000BRCOCEACNPA3140
012020050502COGN3       010COGNA ON    ON      NM   R$  000000000053700000000005410000000000493000000000051800000000004960000000000496000000000049748619000000000057101000000000029582632300000000000000009999123100000010000000000000BRCOGNACNOR2101
012020050502CPFE3       010CPFL ENERGIAON      NM   R$  000000000293000000000030850000000002912000000000302600000000030390000000003037000000000304017116000000000004146500000000012550050300000000000000009999123100000010000000000000BRCPFEACNOR0129
012020050502CPLE3       010COPEL       ON      N1   R$  000000000531700000000054930000000005317000000000539400000000053660000000005365000000000536601630000000000000342600000000001848162100000000000000009999123100000010000000000000BRCPLEACNOR8139
012020050502CPLE6       010COPEL       PNB     N1   R$  000000000560000000000057710000000005546000000000566200000000056180000000005618000000000564205525000000000001037300000000005873564600000000000000009999123100000010000000000000BRCPLEACNPB9136
012020050502CRFB3       010CARREFOUR BRON      NM   R$  000000000201800000000020370000000001959000000000199300000000019860000000001973000000000198612069000000000004814000000000009596833800000000000000009999123100000010000000000000BRCRFBACNOR2105
012020050502CRIV3       010ALFA FINANC ON           R$  000000000049300000000005030000000000493000000000049700000000005030000000000492000000000050300013000000000000002500000000000001243300000000000000009999123100000010000000000000BRCRIVACNOR4194
012020050502CRIV4       010ALFA FINANC PN           R$  000000000056600000000006140000000000566000000000059600000000006140000000000568000000000061400014000000000000004800000000000002863300000000000000009999123100000010000000000000BRCRIVACNPR1203
012020050502CRPG5       010CRISTAL     PNA          R$  000000000227000000000022730000000002213000000000224000000000022470000000002210000000000224800056000000000000008100000000000018145300000000000000009999123100000010000000000000BRCRPGACNPA3107
012020050502CRPG6       010CRISTAL     PNB          R$  000000000227000000000022700000000002190000000000221100000000022300000000002201000000000223100014000000000000002300000000000005087400000000000000009999123100000010000000000000BRCRPGACNPB1107
012020050502CSAN3       010COSAN       ON      NM   R$  000000000600500000000061890000000006005000000000612500000000061240000000006120000000000612406812000000000001209600000000007409361800000000000000009999123100000010000000000000BRCSANACNOR6119
012020050502CSCO34      010CISCO       DRN          R$  000000002325000000000232500000000023148000000002315100000000231480000000000000000000000000000002000000000000000310000000000007176900000000000000009999123100000010000000000000BRCSCOBDR004137
012020050502CSMG3       010COPASA      ON      NM   R$  000000000474900000000049500000000004749000000000486600000000048690000000004869000000000487203988000000000000757100000000003684755000000000000000009999123100000010000000000000BRCSMGACNOR5155
012020050502CSNA3       010SID NACIONALON           R$  000000000084000000000008580000000000795000000000082300000000007960000000000796000000000079818137000000000013641300000000011233412300000000000000009999123100000010000000000000BRCSNAACNOR6251
012020050502CTGP34      010CITIGROUP   DRN ED       R$  000000002497400000000252510000000024974000000002522000000000250000000000000000000000000000000004000000000000000900000000000022698030000000000000009999123100000010000000000000BRCTGPBDR000138
012020050502CTKA4       010KARSTEN     PN           R$  000000000090000000000009000000000000900000000000090000000000009000000000000900000000000099900002000000000000001000000000000000900000000000000000009999123100000010000000000000BRCTKAACNPR7043
012020050502CTNM3       010COTEMINAS   ON           R$  000000000099900000000010950000000000999000000000103900000000010890000000001015000000000108600023000000000000004300000000000004467800000000000000009999123100000010000000000000BRCTNMACNOR9130
012020050502CTNM4       010COTEMINAS   PN           R$  000000000048000000000005020000000000461000000000047700000000004690000000000465000000000046900139000000000000044700000000000021330800000000000000009999123100000010000000000000BRCTNMACNPR6129
012020050502CTSA3       010SANTANENSE  ON           R$  000000000040600000000004540000000000405000000000043900000000004420000000000411000000000046000010000000000000001100000000000000483100000000000000009999123100000010000000000000BRCTSAACNOR3059
012020050502CTSA4       010SANTANENSE  PN           R$  000000000050100000000005100000000000501000000000050500000000005100000000000500000000000051500002000000000000000200000000000000101100000000000000009999123100000010000000000000BRCTSAACNPR0059
012020050502CTSH34      010COGNIZANT   DRN          R$  000000003216000000000321600000000032160000000003216000000000321600000000000000000000000000000001000000000000000050000000000001608000000000000000009999123100000010000000000000BRCTSHBDR002112
012020050502CVCB3       010CVC BRASIL  ON      NM   R$  000000000132400000000013530000000001239000000000129800000000012390000000001239000000000124007891000000000002241700000000002911406700000000000000009999123100000010000000000000BRCVCBACNOR1112
012020050502CVSH34      010CVS HEALTH  DRN          R$  000000001692000000000169200000000016920000000001692000000000169200000000011200000000000000000001000000000000000020000000000000338400000000000000009999123100000010000000000000BRCVSHBDR008116
012020050502CYRE3       010CYRELA REALTON      NM   R$  000000000151400000000015480000000001479000000000152000000000014850000000001485000000000149021095000000000006258900000000009516245700000000000000009999123100000010000000000000BRCYREACNOR7133
012020050502D1VN34      010DEVON ENERGYDRN          R$  000000000660400000000066040000000006604000000000660400000000066040000000000000000000000000000001000000000000000100000000000000660400000000000000009999123100000010000000000000BRD1VNBDR009101
012020050502DDNB34      010DUPONT N INCDRN          R$  000000002576900000000258000000000025769000000002577800000000258000000000000000000000000000000005000000000000000170000000000004382280000000000000009999123100000010000000000000BRDDNBBDR008103
012020050502DGCO34      010DOLLAR GENERDRN          R$  000000004870300000000487030000000048703000000004870300000000487030000000000000000000000000000004000000000000000200000000000009740600000000000000009999123100000010000000000000BRDGCOBDR007104
012020050502DIRR3       010DIRECIONAL  ON      NM   R$  000000000086500000000008880000000000854000000000086900000000008660000000000861000000000086603446000000000000792400000000000689319500000000000000009999123100000010000000000000BRDIRRACNOR0112
012020050502DISB34      010WALT DISNEY DRN          R$  000000005839900000000583990000000056641000000005702900000000569090000000056500000000005700000007000000000000001290000000000073568340000000000000009999123100000010000000000000BRDISBBDR006114
012020050502DIVO11      010IT NOW IDIV CI           R$  000000000488900000000049340000000004835000000000490300000000048500000000004850000000000500000199000000000000083940000000000411572220000000000000009999123100000010000000000000BRDIVOCTF002100
012020050502DMMO3       010DOMMO       ON           R$  000000000014700000000001530000000000139000000000014600000000001420000000000141000000000014205901000000000015336000000000002244912300000000000000009999123100000010000000000000BRDMMOACNOR0102
012020050502DOHL4       010DOHLER      PN           R$  000000000056200000000005800000000000540000000000055800000000005800000000000522000000000058000029000000000000009100000000000005082500000000000000009999123100000010000000000000BRDOHLACNPR9060
012020050502DTCY3       010DTCOM-DIRECTON           R$  000000000059000000000005900000000000522000000000053700000000005610000000000523000000000056200006000000000000000700000000000000376100000000000000009999123100000010000000000000BRDTCYACNOR5109
012020050502DTEX3       010DURATEX     ON      NM   R$  000000000099100000000010160000000000978000000000100100000000009920000000000992000000000099304881000000000001247300000000001249114600000000000000009999123100000010000000000000BRDTEXACNOR3128
012020050502EALT4       010ACO ALTONA  PN           R$  000000000032000000000003240000000000316000000000031800000000003220000000000318000000000032200106000000000000118400000000000037672400000000000000009999123100000010000000000000BREALTACNPR1132
012020050502EBAY34      010EBAY        DRN          R$  000000001125000000000112650000000011250000000001125700000000112650000000000000000000000000000002000000000000000040000000000000450300000000000000009999123100000010000000000000BREBAYBDR009106
012020050502ECOR3       010ECORODOVIAS ON      NM   R$  000000000103800000000010680000000001029000000000104500000000010500000000001050000000000105108339000000000002919800000000003052849100000000000000009999123100000010000000000000BRECORACNOR8116
012020050502EGIE3       010ENGIE BRASILON      NM   R$  000000000390500000000039510000000003848000000000389900000000038930000000003892000000000389308876000000000001518300000000005920153800000000000000009999123100000010000000000000BREGIEACNOR9112
012020050502ELET3       010ELETROBRAS  ON      N1   R$  000000000233500000000023620000000002261000000000231300000000022850000000002284000000000228515000000000000003706100000000008575544700000000000000009999123100000010000000000000BRELETACNOR6154
012020050502ELET6       010ELETROBRAS  PNB     N1   R$  000000000267400000000027000000000002601000000000264100000000026200000000002620000000000262209886000000000002074200000000005479551400000000000000009999123100000010000000000000BRELETACNPB7071
012020050502EMAE4       010EMAE        PN  ED       R$  000000000297300000000029890000000002903000000000295000000000029760000000002900000000000297700015000000000000002400000000000007082300000000000000009999123100000010000000000000BREMAEACNPR1114
012020050502EMBR3       010EMBRAER     ON      NM   R$  000000000079100000000007960000000000736000000000075500000000007500000000000749000000000075030462000000000018111600000000013678386400000000000000009999123100000010000000000000BREMBRACNOR4189
012020050502ENAT3       010ENAUTA PART ON      NM   R$  000000000089600000000009530000000000890000000000092800000000009400000000000940000000000094105949000000000001419100000000001318067300000000000000009999123100000010000000000000BRENATACNOR0101
012020050502ENBR3       010ENERGIAS BR ON      NM   R$  000000000172000000000017290000000001685000000000170600000000016850000000001685000000000169806629000000000001560700000000002662846300000000000000009999123100000010000000000000BRENBRACNOR2129
012020050502ENEV3       010ENEVA       ON      NM   R$  000000000357100000000036740000000003537000000000360900000000036310000000003631000000000363205127000000000001395100000000005035952400000000000000009999123100000010000000000000BRENEVACNOR8104
012020050502ENGI3       010ENERGISA    ON      N2   R$  000000000111800000000011710000000001116000000000114200000000011550000000001123000000000115500155000000000000019800000000000022619000000000000000009999123100000010000000000000BRENGIACNOR0137
012020050502ENGI4       010ENERGISA    PN      N2   R$  000000000078200000000008230000000000760000000000079900000000007900000000000785000000000081700117000000000000034100000000000027247600000000000000009999123100000010000000000000BRENGIACNPR7133
012020050502ENGI11      010ENERGISA    UNT     N2   R$  000000000422500000000044390000000004225000000000434900000000043040000000004304000000000432811446000000000002697700000000011732488200000000000000009999123100000010000000000000BRENGICDAM16127
012020050502ENMT3       010ENERGISA MT ON           R$  000000000260000000000026000000000002501000000000256700000000025010000000002501000000000265000005000000000000000600000000000001540200000000000000009999123100000010000000000000BRENMTACNOR5111
012020050502ENMT4       010ENERGISA MT PN           R$  000000000264500000000026450000000002501000000000256900000000025010000000002501000000000265000005000000000000000500000000000001284700000000000000009999123100000010000000000000BRENMTACNPR2114
012020050502EQPA3       010EQTL PARA   ON           R$  000000000030500000000003050000000000302000000000030300000000003050000000000303000000000030500046000000000000014600000000000004432800000000000000009999123100000010000000000000BREQPAACNOR1100
012020050502EQTL3       010EQUATORIAL  ON      NM   R$  000000000181000000000018460000000001795000000000182300000000018170000000001816000000000182020244000000000009632200000000017566820200000000000000009999123100000010000000000000BREQTLACNOR0125
012020050502EUCA3       010EUCATEX     ON      N1   R$  000000000139300000000014100000000001362000000000137900000000013620000000001362000000000146400022000000000000002900000000000003999900000000000000009999123100000010000000000000BREUCAACNOR1151
012020050502EUCA4       010EUCATEX     PN      N1   R$  000000000047000000000004850000000000457000000000046600000000004640000000000450000000000046500106000000000000026600000000000012401300000000000000009999123100000010000000000000BREUCAACNPR8038
012020050502EVEN3       010EVEN        ON  ED  NM   R$  000000000064500000000006800000000000643000000000066000000000006610000000000660000000000066106848000000000002186300000000001444101600000000000000009999123100000010000000000000BREVENACNOR8112
012020050502EXXO34      010EXXON MOBIL DRN          R$  000000000629500000000062950000000006295000000000629500000000062950000000005000000000000000000001000000000000003480000000000021906600000000000000009999123100000010000000000000BREXXOBDR006138
012020050502EZTC3       010EZTEC       ON  ED  NM   R$  000000000300000000000030490000000002883000000000296400000000029000000000002900000000000291604812000000000001020600000000003025543700000000000000009999123100000010000000000000BREZTCACNOR0114
012020050502FBOK34      010FACEBOOK    DRN          R$  000000005879900000000587990000000058400000000005855100000000584790000000054569000000005850000010000000000000000530000000000031032360000000000000009999123100000010000000000000BRFBOKBDR006100
012020050502FDXB34      010FEDEX CORP  DRN          R$  000000006600000000000660000000000066000000000006600000000000660000000000000000000000000000000001000000000000000020000000000001320000000000000000009999123100000010000000000000BRFDXBBDR002126
012020050502FESA4       010FERBASA     PN      N1   R$  000000000179500000000018300000000001740000000000178600000000017570000000001749000000000175701443000000000000283900000000000507048800000000000000009999123100000010000000000000BRFESAACNPR5066
012020050502FIND11      010IT NOW IFNC CI           R$  000000000802500000000080340000000008025000000000803100000000080340000000007882000000000849000002000000000000000030000000000000240930000000000000009999123100000010000000000000BRFINDCTF007100
012020050502FLRY3       010FLEURY      ON      NM   R$  000000000220700000000022410000000002152000000000219800000000021520000000002152000000000216408703000000000001413500000000003107258000000000000000009999123100000010000000000000BRFLRYACNOR5127
012020050502FNAM11      010FINAM       CI *         R$  000000000001400000000000140000000000013000000000001300000000000140000000000013000000000001400115000000000059600000000000000000795419000000000000009999123100010000000000000000BRFNAMCTF013002
012020050502FNOR11      010FINOR       CI *         R$  000000000002000000000000200000000000017000000000001800000000000180000000000018000000000001900286000000000218665000000000000003947064000000000000009999123100010000000000000000BRFNORCTF013002
012020050502FRAS3       010FRAS-LE     ON      N1   R$  000000000040500000000004090000000000390000000000039800000000003990000000000399000000000040000178000000000000061500000000000024506800000000000000009999123100000010000000000000BRFRASACNOR0149
012020050502FSRF11      010FISET FL REFCI           R$  000000000002200000000000230000000000021000000000002100000000000220000000000021000000000002200020000000000000094000000000000002042000000000000000009999123100000010000000000000BRFSRFCTF010002
012020050502GBIO33      010BIOTOSCANA  DR3          R$  000000000098700000000009930000000000986000000000098900000000009930000000000986000000000099300459000000000000064000000000000063349300000000000000009999123100000010000000000000BRGBIOBDR008100
012020050502GEOO34      010GE          DRN          R$  000000000348000000000035100000000003471000000000349500000000034710000000000000000000000000000006000000000000005540000000000019367760000000000000009999123100000010000000000000BRGEOOBDR000139
012020050502GEPA3       010GER PARANAP ON           R$  000000000381200000000038120000000003812000000000381200000000038120000000003694000000000405000002000000000000000200000000000000762400000000000000009999123100000010000000000000BRGEPAACNOR2145
012020050502GEPA4       010GER PARANAP PN           R$  000000000440000000000044300000000004400000000000441000000000044300000000004250000000000443000002000000000000000300000000000001323000000000000000009999123100000010000000000000BRGEPAACNPR9152
012020050502GFSA3       010GAFISA      ON      NM   R$  000000000038500000000003880000000000370000000000037800000000003760000000000375000000000037602447000000000002418800000000000916318000000000000000009999123100000010000000000000BRGFSAACNOR3117
012020050502GGBR3       010GERDAU      ON      N1   R$  000000000105100000000010600000000001014000000000103900000000010230000000001023000000000103000268000000000000073400000000000076300500000000000000009999123100000010000000000000BRGGBRACNOR1173
012020050502GGBR4       010GERDAU      PN      N1   R$  000000000116600000000011980000000001143000000000116900000000011510000000001151000000000115218679000000000009763200000000011416342400000000000000009999123100000010000000000000BRGGBRACNPR8173
012020050502GILD34      010GILEAD      DRN          R$  000000002200000000000222900000000021733000000002191200000000222400000000021200000000002224000013000000000000002570000000000056315090000000000000009999123100000010000000000000BRGILDBDR000116
012020050502GNDI3       010INTERMEDICA ON      NM   R$  000000000538100000000056290000000005269000000000545300000000054700000000005470000000000547917651000000000003574700000000019495137500000000000000009999123100000010000000000000BRGNDIACNOR2102
012020050502GOAU3       010GERDAU MET  ON      N1   R$  000000000049700000000004990000000000481000000000049000000000004830000000000481000000000048300223000000000000066400000000000032542500000000000000009999123100000010000000000000BRGOAUACNOR1250
012020050502GOAU4       010GERDAU MET  PN      N1   R$  000000000052200000000005320000000000512000000000052000000000005140000000000514000000000051511530000000000011430300000000005950260500000000000000009999123100000010000000000000BRGOAUACNPR8251
012020050502GOGL34      010ALPHABET    DRN A        R$  000000002950000000000307500000000029500000000003033400000000304500000000030000000000003050000029000000000000017060000000000517510140000000000000009999123100000010000000000000BRGOGLBDR001100
012020050502GOGL35      010ALPHABET    DRN C        R$  000000003004100000000305500000000030041000000003012100000000305500000000000000000000000000000004000000000000000630000000000018976430000000000000009999123100000010000000000000BRGOGLBDR019100
012020050502GOLL4       010GOL         PN      N2   R$  000000000115000000000011960000000001135000000000116200000000011780000000001177000000000117817078000000000007917300000000009201740700000000000000009999123100000010000000000000BRGOLLACNPR4125
012020050502GOVE11      010IT NOW IGCT CI           R$  000000000350000000000035000000000003500000000000350000000000035000000000003000000000000385000001000000000000000010000000000000035000000000000000009999123100000010000000000000BRGOVECTF004100
012020050502GPIV33      010GP INVEST   DR3          R$  000000000039500000000003950000000000356000000000037200000000003800000000000355000000000038000155000000000000143900000000000053594500000000000000009999123100000010000000000000BRGPIVBDR003104
012020050502GRND3       010GRENDENE    ON      NM   R$  000000000072100000000007250000000000701000000000071100000000007040000000000703000000000070504878000000000001732200000000001231891600000000000000009999123100000010000000000000BRGRNDACNOR3157
012020050502GSGI34      010GOLDMANSACHSDRN          R$  000000001005000000000100800000000010050000000001005600000000100800000000000100000000000000000002000000000000000050000000000000502800000000000000009999123100000010000000000000BRGSGIBDR008138
012020050502GSHP3       010GENERALSHOPPON      NM   R$  000000000375000000000037500000000003701000000000373000000000037370000000003731000000000399900004000000000000000400000000000001492200000000000000009999123100000010000000000000BRGSHPACNOR7102
012020050502GUAR3       010GUARARAPES  ON           R$  000000000125100000000012830000000001161000000000120100000000011630000000001163000000000116905597000000000001738700000000002088350400000000000000009999123100000010000000000000BRGUARACNOR4165
012020050502H1OG34      010HARLEY-DAVIDDRN          R$  000000001182000000000118200000000011820000000001182000000000118200000000000000000000000000000002000000000000000400000000000004728000000000000000009999123100000010000000000000BRH1OGBDR004101
012020050502HAGA3       010HAGA S/A    ON           R$  000000000035500000000003980000000000351000000000036100000000003620000000000357000000000037000014000000000000003200000000000001158000000000000000009999123100000010000000000000BRHAGAACNOR7103
012020050502HAGA4       010HAGA S/A    PN           R$  000000000019000000000001970000000000188000000000019000000000001880000000000187000000000018800024000000000000035300000000000006711800000000000000009999123100000010000000000000BRHAGAACNPR4103
012020050502HAPV3       010HAPVIDA     ON  ED  NM   R$  000000000515500000000052900000000005081000000000520000000000051900000000005189000000000519108721000000000002012200000000010465146800000000000000009999123100000010000000000000BRHAPVACNOR4105
012020050502HBOR3       010HELBOR      ON      NM   R$  000000000018300000000001840000000000174000000000017800000000001740000000000174000000000017704251000000000007205900000000001288489400000000000000009999123100000010000000000000BRHBORACNOR3113
012020050502HBTS5       010HABITASUL   PNA ED       R$  000000000090000000000009000000000000900000000000090000000000009000000000000880000000000100000003000000000000001400000000000001260000000000000000009999123100000010000000000000BRHBTSACNPA3124
012020050502HETA4       010HERCULES    PN           R$  000000000044000000000004530000000000424000000000044000000000004290000000000440000000000045500021000000000000008000000000000003521700000000000000009999123100000010000000000000BRHETAACNPR9136
012020050502HGTX3       010CIA HERING  ON      NM   R$  000000000144000000000014820000000001381000000000142500000000013860000000001386000000000139008678000000000001956200000000002788875500000000000000009999123100000010000000000000BRHGTXACNOR9150
012020050502HOME34      010HOME DEPOT  DRN          R$  000000006338200000000633820000000063382000000006338200000000633820000000000000000000000000000001000000000000001000000000000063382000000000000000009999123100000010000000000000BRHOMEBDR002132
012020050502HYPE3       010HYPERA      ON      NM   R$  000000000289000000000028930000000002758000000000280500000000027980000000002798000000000280016585000000000003902100000000010949116100000000000000009999123100000010000000000000BRHYPEACNOR0121
012020050502I1LM34      010ILLUMINA INCDRN          R$  000000003438000000000343800000000034380000000003438000000000343800000000000000000000000000000001000000000000000010000000000000343800000000000000009999123100000010000000000000BRI1LMBDR007100
012020050502IDNT3       010IDEIASNET   ON           R$  000000000027800000000002780000000000255000000000026300000000002590000000000259000000000026000096000000000000043100000000000011357100000000000000009999123100000010000000000000BRIDNTACNOR5113
012020050502IDVL3       010INDUSVAL    ON      N2   R$  000000000018300000000001920000000000178000000000018100000000001800000000000180000000000018100054000000000000023000000000000004185000000000000000009999123100000010000000000000BRIDVLACNOR5130
012020050502IDVL4       010INDUSVAL    PN      N2   R$  000000000025700000000002570000000000251000000000025400000000002520000000000252000000000025800008000000000000002500000000000000635100000000000000009999123100000010000000000000BRIDVLACNPR2130
012020050502IGTA3       010IGUATEMI    ON      NM   R$  000000000316200000000032070000000003060000000000313400000000030720000000003072000000000309506149000000000001039400000000003257512500000000000000009999123100000010000000000000BRIGTAACNOR5123
012020050502IRBR3       010IRBBRASIL REON      NM   R$  000000000097100000000009870000000000898000000000093000000000009010000000000901000000000090249320000000000026598900000000024757916200000000000000009999123100000010000000000000BRIRBRACNOR4106
012020050502ISUS11      010IT NOW ISE  CI           R$  000000000310700000000031070000000003107000000000310700000000031070000000002700000000000330000002000000000000000240000000000000745680000000000000009999123100000010000000000000BRISUSCTF003100
012020050502ITLC34      010INTEL       DRN          R$  000000003257400000000325740000000032574000000003257400000000325740000000000000000000000000000001000000000000000770000000000025081980000000000000009999123100000010000000000000BRITLCBDR005137
012020050502ITSA3       010ITAUSA      ON      N1   R$  000000000103100000000010700000000001031000000000105100000000010340000000001034000000000105100914000000000000220100000000000231489900000000000000009999123100000010000000000000BRITSAACNOR0398
012020050502ITSA4       010ITAUSA      PN      N1   R$  000000000088000000000009080000000000873000000000089400000000008910000000000891000000000089341108000000000039421400000000035273880300000000000000009999123100000010000000000000BRITSAACNPR7398
012020050502ITUB3       010ITAUUNIBANCOON  ED  N1   R$  000000000215600000000022460000000002125000000000220100000000021800000000002179000000000218003367000000000000887900000000001954781000000000000000009999123100000010000000000000BRITUBACNOR4268
012020050502ITUB4       010ITAUUNIBANCOPN  ED  N1   R$  000000000222000000000023370000000002191000000000227500000000022700000000002270000000000227286918000000000051925500000000118158914900000000000000009999123100000010000000000000BRITUBACNPR1268
012020050502IVVB11      010ISHARE SP500CI           R$  000000001704800000000173900000000017030000000001725500000000172240000000017215000000001722402156000000000000331780000000005724971230000000000000009999123100000010000000000000BRIVVBCTF001100
012020050502JBDU3       010J B DUARTE  ON           R$  000000000018600000000001970000000000175000000000019100000000001950000000000189000000000019700030000000000000008000000000000001528500000000000000009999123100000010000000000000BRJBDUACNOR6142
012020050502JBDU4       010J B DUARTE  PN           R$  000000000012500000000001280000000000122000000000012600000000001270000000000121000000000012700040000000000000029500000000000003722000000000000000009999123100000010000000000000BRJBDUACNPR3142
012020050502JBSS3       010JBS         ON  ED  NM   R$  000000000231000000000023380000000002252000000000228200000000022760000000002272000000000227626019000000000011120600000000025377406800000000000000009999123100000010000000000000BRJBSSACNOR8115
012020050502JCPC34      010JC PENNEY   DRN          R$  000000000012900000000001290000000000120000000000012700000000001200000000000100000000000025000014000000000000021520000000000002748510000000000000009999123100000010000000000000BRJCPCBDR000100
012020050502JDCO34      010JD COM      DRN          R$  000000002442000000000244200000000024300000000002437500000000243000000000000000000000000000000002000000000000000080000000000001950000000000000000009999123100000010000000000000BRJDCOBDR001100
012020050502JHSF3       010JHSF PART   ON      NM   R$  000000000041400000000004220000000000391000000000040500000000003980000000000398000000000039908150000000000007634600000000003093461900000000000000009999123100000010000000000000BRJHSFACNOR2115
012020050502JNJB34      010JOHNSON     DRN          R$  000000008331000000000840000000000083310000000008345800000000840000000000059769000000000000000003000000000000000510000000000042564000000000000000009999123100000010000000000000BRJNJBBDR002133
012020050502JPMC34      010JPMORGAN    DRN          R$  000000002619000000000261900000000025910000000002601600000000259100000000024500000000000000000006000000000000002220000000000057756380000000000000009999123100000010000000000000BRJPMCBDR009133
012020050502JPSA3       010JEREISSATI  ON           R$  000000000210200000000021410000000002061000000000208800000000020610000000002061000000000206701142000000000000190700000000000398300900000000000000009999123100000010000000000000BRJPSAACNOR6102
012020050502JSLG3       010JSL         ON  ED  NM   R$  000000000185900000000019290000000001799000000000186200000000018500000000001846000000000185002615000000000000703800000000001311170800000000000000009999123100000010000000000000BRJSLGACNOR2114
012020050502KEPL3       010KEPLER WEBERON           R$  000000000262300000000026780000000002622000000000265600000000026780000000002650000000000267800156000000000000043200000000000114747900000000000000009999123100000010000000000000BRKEPLACNOR1049
012020050502KHCB34      010KRAFT HEINZ DRN          R$  000000001618000000000162200000000016180000000001621100000000162200000000015000000000001650000002000000000000000090000000000001459000000000000000009999123100000010000000000000BRKHCBBDR007119
012020050502KLBN3       010KLABIN S/A  ON      N2   R$  000000000037300000000003890000000000365000000000038000000000003870000000000386000000000038701742000000000000579900000000000220638800000000000000009999123100000010000000000000BRKLBNACNOR2156
012020050502KLBN4       010KLABIN S/A  PN      N2   R$  000000000035800000000003770000000000349000000000036500000000003770000000000375000000000037705344000000000003296500000000001205656600000000000000009999123100000010000000000000BRKLBNACNPR9156
012020050502KLBN11      010KLABIN S/A  UNT     N2   R$  000000000180500000000018990000000001755000000000185100000000018700000000001867000000000187027860000000000009087800000000016824611200000000000000009999123100000010000000000000BRKLBNCDAM18128
012020050502L1EG34      010LEGGETT PL  DRN          R$  000000001852300000000185230000000018523000000001852300000000185230000000000000000000000000000001000000000000000100000000000001852300000000000000009999123100000010000000000000BRL1EGBDR009101
012020050502LAME3       010LOJAS AMERICON      N1   R$  000000000208100000000021470000000002045000000000209600000000020810000000002081000000000208409350000000000002031200000000004259372300000000000000009999123100000010000000000000BRLAMEACNOR9202
012020050502LAME4       010LOJAS AMERICPN      N1   R$  000000000254200000000026370000000002525000000000258500000000025540000000002542000000000255430237000000000007051300000000018232153300000000000000009999123100000010000000000000BRLAMEACNPR6202
012020050502LBRN34      010L BRANDS    DRN          R$  000000000166900000000016690000000001669000000000166900000000016690000000000000000000000000000002000000000000002300000000000003838700000000000000009999123100000010000000000000BRLBRNBDR001119
012020050502LCAM3       010LOCAMERICA  ON      NM   R$  000000000136800000000014300000000001348000000000138300000000013550000000001355000000000136408543000000000002309000000000003193931200000000000000009999123100000010000000000000BRLCAMACNOR3132
012020050502LEVE3       010METAL LEVE  ON      NM   R$  000000000175000000000017780000000001698000000000174000000000017370000000001723000000000173701294000000000000223900000000000389737500000000000000009999123100000010000000000000BRLEVEACNOR2187
012020050502LIGT3       010LIGHT S/A   ON      NM   R$  000000000108600000000011200000000001066000000000109100000000010900000000001090000000000109207447000000000002678400000000002923240200000000000000009999123100000010000000000000BRLIGTACNOR2120
012020050502LINX3       010LINX        ON  ED  NM   R$  000000000208500000000021480000000001986000000000206300000000019940000000001991000000000200005579000000000001429600000000002949672300000000000000009999123100000010000000000000BRLINXACNOR0118
012020050502LLIS3       010LE LIS BLANCON      NM   R$  000000000058600000000006080000000000565000000000057700000000005690000000000568000000000056900645000000000000316600000000000182713500000000000000009999123100000010000000000000BRLLISACNOR4113
012020050502LOGG3       010LOG COM PROPON      NM   R$  000000000224900000000023140000000002200000000000226300000000022520000000002252000000000227801398000000000000236100000000000534479200000000000000009999123100000010000000000000BRLOGGACNOR7102
012020050502LOGN3       010LOG-IN      ON      NM   R$  000000000138000000000014350000000001327000000000138700000000013910000000001365000000000139103225000000000001232500000000001709840200000000000000009999123100000010000000000000BRLOGNACNOR3104
012020050502LPSB3       010LOPES BRASILON      NM   R$  000000000037700000000003910000000000363000000000037700000000003660000000000365000000000036601773000000000000622600000000000235029200000000000000009999123100000010000000000000BRLPSBACNOR0111
012020050502LREN3       010LOJAS RENNERON  ED  NM   R$  000000000380000000000038490000000003620000000000370400000000036350000000003633000000000363521976000000000005887100000000021806073500000000000000009999123100000010000000000000BRLRENACNOR1202
012020050502LUXM4       010TREVISA     PN           R$  000000000320000000000032000000000003200000000000320000000000032000000000002900000000000320000001000000000000000100000000000000320000000000000000009999123100000010000000000000BRLUXMACNPR4045
012020050502LWSA3       010LOCAWEB     ON      NM   R$  000000000221000000000023300000000002171000000000226800000000022280000000002220000000000222803183000000000000580500000000001316728300000000000000009999123100000010000000000000BRLWSAACNOR8100
012020050502MACY34      010MACY S      DRN          R$  000000000302900000000030700000000002980000000000301400000000029800000000002600000000000000000009000000000000002600000000000007838700000000000000009999123100000010000000000000BRMACYBDR000116
012020050502MATB11      010IT NOW IMAT CI           R$  000000000279700000000028020000000002796000000000279700000000027960000000002550000000000289000004000000000000000280000000000000783200000000000000009999123100000010000000000000BRMATBCTF001100
012020050502MCDC34      010MCDONALDS   DRN          R$  000000002520000000000253040000000025200000000002529900000000253040000000013000000000000000000003000000000000002610000000000066031600000000000000009999123100000010000000000000BRMCDCBDR000138
012020050502MDIA3       010M.DIASBRANCOON      NM   R$  000000000320500000000032590000000003180000000000322500000000032590000000003222000000000326504082000000000000687900000000002218699000000000000000009999123100000010000000000000BRMDIAACNOR7118
012020050502MDLZ34      010MONDELEZ INTDRN          R$  000000001421600000000142160000000014216000000001421600000000142160000000000000000000000000000001000000000000015000000000000213240000000000000000009999123100000010000000000000BRMDLZBDR002119
012020050502MDNE3       010MOURA DUBEUXON      NM   R$  000000000065600000000006670000000000616000000000063300000000006370000000000616000000000063700998000000000000335700000000000212539500000000000000009999123100000010000000000000BRMDNEACNOR9100
012020050502MEAL3       010IMC S/A     ON      NM   R$  000000000032700000000003350000000000310000000000032100000000003150000000000314000000000031507020000000000004819200000000001548222000000000000000009999123100000010000000000000BRMEALACNOR9105
012020050502MELI34      010MERCADOLIBREDRN          R$  000000003410000000000352800000000034100000000003441300000000347700000000033800000000003477000023000000000000013050000000000449094590000000000000009999123100000010000000000000BRMELIBDR006100
012020050502MERC4       010MERC FINANC PN           R$  000000000092300000000009230000000000920000000000092100000000009200000000000920000000000093000005000000000000000800000000000000737300000000000000009999123100000010000000000000BRMERCACNPR9173
012020050502MGLU3       010MAGAZ LUIZA ON      NM   R$  000000000521500000000052800000000005015000000000516800000000050200000000005019000000000503036145000000000012887500000000066615050300000000000000009999123100000010000000000000BRMGLUACNOR2115
012020050502MILS3       010MILLS       ON      NM   R$  000000000047100000000004790000000000442000000000046100000000004420000000000442000000000045003122000000000001069800000000000493247000000000000000009999123100000010000000000000BRMILSACNOR2112
012020050502MMMC34      0103M          DRN          R$  000000002073400000000207340000000020734000000002073400000000207340000000019500000000000000000001000000000000000700000000000014513800000000000000009999123100000010000000000000BRMMMCBDR000132
012020050502MNPR3       010MINUPAR     ON           R$  000000000042100000000004400000000000407000000000041800000000004120000000000411000000000042700024000000000000006000000000000002512800000000000000009999123100000010000000000000BRMNPRACNOR5122
012020050502MOAR3       010MONT ARANHA ON           R$  000000001260000000000126000000000012600000000001260000000000126000000000011200000000001300000001000000000000000100000000000001260000000000000000009999123100000010000000000000BRMOARACNOR5211
012020050502MOVI3       010MOVIDA      ON      NM   R$  000000000108000000000010850000000001033000000000106200000000010400000000001040000000000104108628000000000002728200000000002897686200000000000000009999123100000010000000000000BRMOVIACNOR0111
012020050502MRFG3       010MARFRIG     ON      NM   R$  000000000127700000000013140000000001237000000000126700000000012500000000001249000000000125019329000000000009813500000000012442554700000000000000009999123100000010000000000000BRMRFGACNOR0109
012020050502MRSA3B      010MRS LOGIST  ON      MB   R$  000000000510000000000051000000000004700000000000494000000000047000000000003500000000000700000005000000000000000500000000000002470000000000000000009999123100000010000000000000BRMRSAACNOR6119
012020050502MRSA6B      010MRS LOGIST  PNB     MB   R$  000000000215000000000029270000000002150000000000266800000000029270000000002200000000000500000003000000000000000300000000000000800400000000000000009999123100000010000000000000BRMRSAACNPB7119
012020050502MRVE3       010MRV         ON      NM   R$  000000000149500000000015250000000001466000000000148800000000014660000000001466000000000147009006000000000003266400000000004860736500000000000000009999123100000010000000000000BRMRVEACNOR2120
012020050502MSCD34      010MASTERCARD  DRN          R$  000000015339600000001541940000000153396000000015381600000001541940000000000000000000000000000003000000000000001590000000000244568240000000000000009999123100000010000000000000BRMSCDBDR006136
012020050502MSFT34      010MICROSOFT   DRN          R$  000000010000000000001031000000000100000000000010116700000001010000000000100500000000011000000029000000000000001670000000000168949340000000000000009999123100000010000000000000BRMSFTBDR005137
012020050502MTRE3       010MITRE REALTYON      NM   R$  000000000105800000000010650000000001006000000000102800000000010200000000001020000000000103501056000000000000214200000000000220207700000000000000009999123100000010000000000000BRMTREACNOR6100
012020050502MTSA4       010METISA      PN           R$  000000000159000000000015900000000001525000000000154200000000015300000000001524000000000153000027000000000000005700000000000008791800000000000000009999123100000010000000000000BRMTSAACNPR9055
012020050502MULT3       010MULTIPLAN   ON      N2   R$  000000000201700000000020490000000001937000000000198300000000019690000000001961000000000196910464000000000002410300000000004781874300000000000000009999123100000010000000000000BRMULTACNOR5127
012020050502MUTC34      010MICRON TECHNDRN          R$  000000002556600000000255660000000025566000000002556600000000255660000000000000000000000000000001000000000000001700000000000043462200000000000000009999123100000010000000000000BRMUTCBDR008100
012020050502MYPK3       010IOCHP-MAXIONON      NM   R$  000000000127000000000012940000000001205000000000123700000000012180000000001217000000000121806417000000000001619500000000002003971900000000000000009999123100000010000000000000BRMYPKACNOR7148
012020050502N1CL34      010NORWEGIAN CRDRN          R$  000000000718100000000071810000000006860000000000706000000000068600000000000000000000000684900006000000000000000710000000000005013210000000000000009999123100000010000000000000BRN1CLBDR001100
012020050502N1DA34      010NASDAQ INC  DRN          R$  000000003013600000000301360000000030136000000003013600000000301360000000000000000000000000000001000000000000000300000000000009040800000000000000009999123100000010000000000000BRN1DABDR002101
012020050502N1EM34      010NEWMONT GOLDDRN          R$  000000003450000000000360000000000034500000000003535300000000360000000000032000000000000000000005000000000000000380000000000013434200000000000000009999123100000010000000000000BRN1EMBDR005101
012020050502NEOE3       010NEOENERGIA  ON      NM   R$  000000000181000000000018190000000001752000000000177700000000017700000000001769000000000177007311000000000001860600000000003306956000000000000000009999123100000010000000000000BRNEOEACNOR3110
012020050502NFLX34      010NETFLIX     DRN          R$  000000023400000000002400000000000234000000000023857500000002400000000000000000000000000000000008000000000000000230000000000054872280000000000000009999123100000010000000000000BRNFLXBDR000101
012020050502NORD3       010NORDON MET  ON           R$  000000000036200000000003650000000000362000000000036300000000003650000000000355000000000039900003000000000000000300000000000000108900000000000000009999123100000010000000000000BRNORDACNOR7135
012020050502NTCO3       010GRUPO NATURAON      NM   R$  000000000347900000000035470000000003410000000000348200000000034520000000003452000000000345324366000000000005997500000000020883684300000000000000009999123100000010000000000000BRNTCOACNOR5100
012020050502NVDC34      010NVIDIA CORP DRN          R$  000000004187500000000418750000000041514000000004181700000000418500000000000000000000000000000003000000000000005010000000000209504700000000000000009999123100000010000000000000BRNVDCBDR008104
012020050502ODPV3       010ODONTOPREV  ON  ED  NM   R$  000000000149200000000015100000000001469000000000148400000000014870000000001480000000000148704823000000000000838200000000001243921400000000000000009999123100000010000000000000BRODPVACNOR4175
012020050502OFSA3       010OUROFINO S/AON      NM   R$  000000000264500000000026450000000002563000000000259300000000025700000000002570000000000267500064000000000000010000000000000025935100000000000000009999123100000010000000000000BROFSAACNOR7109
012020050502OMGE3       010OMEGA GER   ON      NM   R$  000000000305300000000032130000000003044000000000316700000000031920000000003178000000000319202234000000000000303100000000000960180100000000000000009999123100000010000000000000BROMGEACNOR0101
012020050502OXYP34      010OCCIDENT PTRDRN          R$  000000000456700000000045670000000004567000000000456700000000045670000000000000000000000456000003000000000000000400000000000001826800000000000000009999123100000010000000000000BROXYPBDR000103
012020050502PARD3       010IHPARDINI   ON      NM   R$  000000000183900000000018540000000001761000000000180500000000017640000000001764000000000178402002000000000000334900000000000604597900000000000000009999123100000010000000000000BRPARDACNOR1113
012020050502PATI3       010PANATLANTICAON           R$  000000000210000000000021100000000001999000000000205200000000019990000000001950000000000205000050000000000000009900000000000020317400000000000000009999123100000010000000000000BRPATIACNOR6059
012020050502PATI4       010PANATLANTICAPN           R$  000000000250000000000025000000000002500000000000250000000000025000000000002340000000000280000001000000000000000200000000000000500000000000000000009999123100000010000000000000BRPATIACNPR3059
012020050502PCAR3       010P.ACUCAR-CBDON  ED  NM   R$  000000000668000000000069690000000006505000000000663800000000065410000000006541000000000655809636000000000001568200000000010410714800000000000000009999123100000010000000000000BRPCARACNOR3163
012020050502PEPB34      010PEPSICO INC DRN          R$  000000007443200000000744320000000074432000000007443200000000744320000000000000000000000000000001000000000000003000000000000223296000000000000000009999123100000010000000000000BRPEPBBDR005130
012020050502PETR3       010PETROBRAS   ON      N2   R$  000000000185200000000019140000000001852000000000188800000000018670000000001865000000000187036197000000000018728700000000035375292900000000000000009999123100000010000000000000BRPETRACNOR9190
012020050502PETR4       010PETROBRAS   PN      N2   R$  000000000179000000000018480000000001787000000000182000000000017940000000001794000000000179788884000000000075043400000000136623785400000000000000009999123100000010000000000000BRPETRACNPR6196
012020050502PFIN11      010FIP PERFIN  CI           R$  000000001012400000000101500000000010020000000001008500000000101500000000010035000000001014500029000000000000004136000000000041712909000000000000009999123100000010000000000000BRPFINCTF001100
012020050502PFIZ34      010PFIZER      DRN          R$  000000002143200000000216880000000021432000000002160000000000216880000000020000000000002168800006000000000000009240000000000199588960000000000000009999123100000010000000000000BRPFIZBDR006138
012020050502PFRM3       010PROFARMA    ON      NM   R$  000000000046300000000004760000000000454000000000046300000000004700000000000466000000000047001018000000000000389700000000000180476700000000000000009999123100000010000000000000BRPFRMACNOR1112
012020050502PGCO34      010PG          DRN ED       R$  000000006426700000000649430000000064267000000006473200000000649430000000000000000000000000000003000000000000001230000000000079621010000000000000009999123100000010000000000000BRPGCOBDR001138
012020050502PIBB11      010IT NOW PIBB CI           R$  000000001333600000000135700000000013233000000001340700000000132650000000013265000000001340000500000000000000032850000000000440426930000000000000009999123100000010000000000000BRPIBBCTF005101
012020050502PINE4       010PINE        PN      N2   R$  000000000029500000000003090000000000287000000000029700000000002880000000000287000000000029500953000000000000600100000000000178441800000000000000009999123100000010000000000000BRPINEACNPR8144
012020050502PLAS3       010PLASCAR PARTON           R$  000000000045000000000004500000000000450000000000045000000000004500000000000425000000000045000004000000000000003500000000000001575000000000000000009999123100000010000000000000BRPLASACNOR2106
012020050502PMAM3       010PARANAPANEMAON      NM   R$  000000000110000000000011490000000001032000000000107600000000010330000000001033000000000105400846000000000000250700000000000269934900000000000000009999123100000010000000000000BRPMAMACNOR3037
012020050502PNVL3       010DIMED       ON           R$  000000000242000000000024350000000002353000000000238100000000024050000000002350000000000240500560000000000000076700000000000182657500000000000000009999123100000010000000000000BRPNVLACNOR9196
012020050502PNVL4       010DIMED       PN           R$  000000000182500000000019000000000001825000000000186900000000018550000000001852000000000188200025000000000000009100000000000017014000000000000000009999123100000010000000000000BRPNVLACNPR6196
012020050502POMO3       010MARCOPOLO   ON      N2   R$  000000000028800000000002900000000000270000000000028100000000002790000000000273000000000028000402000000000000144400000000000040584200000000000000009999123100000010000000000000BRPOMOACNOR0087
012020050502POMO4       010MARCOPOLO   PN      N2   R$  000000000029800000000003010000000000275000000000028600000000002770000000000276000000000027705874000000000008778800000000002516142800000000000000009999123100000010000000000000BRPOMOACNPR7087
012020050502POSI3       010POSITIVO TECON      NM   R$  000000000045400000000004720000000000410000000000044400000000004170000000000416000000000041707997000000000006494600000000002886879200000000000000009999123100000010000000000000BRPOSIACNOR9111
012020050502PPLA11      010PPLA        UNT          R$  000000000126500000000012900000000001228000000000126300000000012870000000001229000000000128800013000000000000001700000000000002147600000000000000009999123100000010000000000000BRPPLAUNT007101
012020050502PRIO3       010PETRORIO    ON      NM   R$  000000000208000000000021780000000002066000000000212700000000021180000000002118000000000212013558000000000004693900000000009986554200000000000000009999123100000010000000000000BRPRIOACNOR1102
012020050502PRNR3       010PRINER      ON      NM   R$  000000000081000000000008150000000000790000000000080000000000007960000000000791000000000079600185000000000000060500000000000048442100000000000000009999123100000010000000000000BRPRNRACNOR4105
012020050502PSSA3       010PORTO SEGUROON      NM   R$  000000000432500000000043700000000004173000000000424200000000041730000000004173000000000419103917000000000000714600000000003031421700000000000000009999123100000010000000000000BRPSSAACNOR7141
012020050502PTBL3       010PORTOBELLO  ON      NM   R$  000000000027600000000002900000000000272000000000028000000000002760000000000276000000000027802847000000000002065200000000000579149000000000000000009999123100000010000000000000BRPTBLACNOR8124
012020050502PTNT4       010PETTENATI   PN           R$  000000000037300000000003730000000000359000000000036300000000003590000000000358000000000036000101000000000000029200000000000010617100000000000000009999123100000010000000000000BRPTNTACNPR3044
012020050502QUAL3       010QUALICORP   ON  ED  NM   R$  000000000251000000000025440000000002417000000000246100000000024270000000002427000000000243407917000000000001777500000000004375628000000000000000009999123100000010000000000000BRQUALACNOR6113
012020050502R1CL34      010ROYAL CARIBBDRN          R$  000000001127900000000112790000000011238000000001126100000000112380000000008000000000001123800003000000000000000350000000000003941500000000000000009999123100000010000000000000BRR1CLBDR007101
012020050502R1IN34      010REALTY INCOMDRN ED       R$  000000001484000000000148400000000014725000000001480100000000147250000000000000000000000000000002000000000000000030000000000000444050000000000000009999123100000010000000000000BRR1INBDR000104
012020050502RADL3       010RAIADROGASILON      NM   R$  000000001055100000000106420000000010183000000001039800000000104110000000010361000000001041112125000000000001992600000000020720208100000000000000009999123100000010000000000000BRRADLACNOR0135
012020050502RAIL3       010RUMO S.A.   ON      NM   R$  000000000197500000000019900000000001948000000000196900000000019650000000001964000000000196818518000000000006082600000000011980619600000000000000009999123100000010000000000000BRRAILACNOR9101
012020050502RANI3       010IRANI       ON  ED       R$  000000000030200000000003100000000000299000000000030100000000003010000000000301000000000031000039000000000000008000000000000002414000000000000000009999123100000010000000000000BRRANIACNOR5052
012020050502RANI4       010IRANI       PN  ED       R$  000000000052000000000005200000000000496000000000050400000000005050000000000496000000000051000008000000000000002000000000000001009100000000000000009999123100000010000000000000BRRANIACNPR2053
012020050502RAPT3       010RANDON PART ON      N1   R$  000000000073500000000007550000000000708000000000072300000000007080000000000708000000000072300064000000000000027800000000000020119100000000000000009999123100000010000000000000BRRAPTACNOR7152
012020050502RAPT4       010RANDON PART PN      N1   R$  000000000083800000000008680000000000810000000000083700000000008100000000000810000000000081406433000000000002495700000000002089573200000000000000009999123100000010000000000000BRRAPTACNPR4152
012020050502RCSL3       010RECRUSUL    ON           R$  000000000018600000000001950000000000181000000000018600000000001830000000000182000000000018500024000000000000004500000000000000837700000000000000009999123100000010000000000000BRRCSLACNOR4130
012020050502RCSL4       010RECRUSUL    PN           R$  000000000013500000000001370000000000130000000000013300000000001300000000000130000000000013101872000000000000734800000000000098110200000000000000009999123100000010000000000000BRRCSLACNPR1130
012020050502RDNI3       010RNI         ON  ED  NM   R$  000000000068300000000007010000000000665000000000068800000000006990000000000699000000000070000115000000000000021000000000000014459500000000000000009999123100000010000000000000BRRDNIACNOR9113
012020050502REDE3       010REDE ENERGIAON           R$  000000000100200000000010030000000001002000000000100200000000010030000000000985000000000100200002000000000000000300000000000000300700000000000000009999123100000010000000000000BRREDEACNOR7114
012020050502REGN34      010REGENERON PHDRN          R$  000000006421200000000642120000000063995000000006411300000000640300000000000000000000000000000007000000000000000510000000000032697700000000000000009999123100000010000000000000BRREGNBDR005100
012020050502RENT3       010LOCALIZA    ON      NM   R$  000000000340000000000034920000000003295000000000341000000000033630000000003362000000000336424474000000000006637600000000022637197000000000000000009999123100000010000000000000BRRENTACNOR4177
012020050502RIGG34      010TRANSOCEAN  DRN          R$  000000000074000000000007400000000000653000000000070000000000006530000000000500000000000066800019000000000000003020000000000002116850000000000000009999123100000010000000000000BRRIGGBDR000100
012020050502RLOG3       010COSAN LOG   ON      NM   R$  000000000158300000000015960000000001543000000000156200000000015760000000001566000000000157602110000000000000430600000000000673026400000000000000009999123100000010000000000000BRRLOGACNOR4106
012020050502ROMI3       010INDS ROMI   ON      NM   R$  000000000107900000000010940000000001031000000000105300000000010380000000001038000000000104600824000000000000161100000000000169796400000000000000009999123100000010000000000000BRROMIACNOR8172
012020050502RSID3       010ROSSI RESID ON      NM   R$  000000000039900000000004090000000000390000000000039700000000003930000000000393000000000040000332000000000000115600000000000045904100000000000000009999123100000010000000000000BRRSIDACNOR8119
012020050502S1YY34      010SYSCO CORP  DRN          R$  000000001471300000000147130000000014713000000001471300000000147130000000000000000000000000000004000000000000000400000000000005885200000000000000009999123100000010000000000000BRS1YYBDR003102
012020050502SANB3       010SANTANDER BRON           R$  000000000125800000000012780000000001210000000000122600000000012110000000001217000000000122100813000000000000164000000000000201227100000000000000009999123100000010000000000000BRSANBACNOR8151
012020050502SANB4       010SANTANDER BRPN           R$  000000000139800000000013980000000001307000000000133800000000013220000000001321000000000132300776000000000000145100000000000194272400000000000000009999123100000010000000000000BRSANBACNPR5151
012020050502SANB11      010SANTANDER BRUNT          R$  000000000258700000000026360000000002510000000000255500000000025140000000002514000000000251614121000000000003241700000000008284160400000000000000009999123100000010000000000000BRSANBCDAM13144
012020050502SAPR3       010SANEPAR     ON      N2   R$  000000000056000000000005770000000000526000000000055600000000005600000000000550000000000056200548000000000000162600000000000090481800000000000000009999123100000010000000000000BRSAPRACNOR9149
012020050502SAPR4       010SANEPAR     PN      N2   R$  000000000049800000000005080000000000492000000000049800000000004920000000000492000000000049705630000000000002661200000000001326406400000000000000009999123100000010000000000000BRSAPRACNPR6149
012020050502SAPR11      010SANEPAR     UNT     N2   R$  000000000256500000000025990000000002533000000000256600000000025460000000002546000000000255405782000000000001933600000000004962377900000000000000009999123100000010000000000000BRSAPRCDAM13108
012020050502SBSP3       010SABESP      ON  EJ  NM   R$  000000000402000000000042550000000004020000000000415200000000041700000000004167000000000417013849000000000003610500000000014993684400000000000000009999123100000010000000000000BRSBSPACNOR5157
012020050502SBUB34      010STARBUCKS   DRN          R$  000000004125000000000412500000000041158000000004116200000000411580000000040922000000000000000002000000000000000630000000000025932300000000000000009999123100000010000000000000BRSBUBBDR005128
012020050502SCAR3       010SAO CARLOS  ON  ED  NM   R$  000000000340800000000034790000000003350000000000340500000000033500000000003346000000000344000024000000000000003400000000000011579800000000000000009999123100000010000000000000BRSCARACNOR7128
012020050502SCHW34      010SCHWAB      DRN          R$  000000001987800000000198780000000019878000000001987800000000198780000000000000000000000000000001000000000000006100000000000121255800000000000000009999123100000010000000000000BRSCHWBDR006116
012020050502SEER3       010SER EDUCA   ON  ED  NM   R$  000000000173400000000017340000000001540000000000159000000000015590000000001557000000000155904865000000000001452300000000002310532900000000000000009999123100000010000000000000BRSEERACNOR5115
012020050502SGPS3       010SPRINGS     ON      NM   R$  000000000056600000000005750000000000540000000000055600000000005420000000000542000000000054900182000000000000101800000000000056655900000000000000009999123100000010000000000000BRSGPSACNOR4104
012020050502SHOW3       010TIME FOR FUNON      NM   R$  000000000018300000000001870000000000176000000000017800000000001790000000000178000000000017901431000000000000714600000000000127734600000000000000009999123100000010000000000000BRSHOWACNOR7105
012020050502SHUL4       010SCHULZ      PN           R$  000000000086000000000009150000000000860000000000089100000000008890000000000887000000000088901974000000000000437900000000000390286900000000000000009999123100000010000000000000BRSHULACNPR4135
012020050502SIMN34      010SIMON PROP  DRN          R$  000000000899900000000089990000000008468000000000848500000000084680000000008000000000000000000006000000000000000970000000000008230690000000000000009999123100000010000000000000BRSIMNBDR002103
012020050502SLCE3       010SLC AGRICOLAON      NM   R$  000000000252000000000025630000000002456000000000249400000000024890000000002473000000000248903382000000000000733300000000001829215900000000000000009999123100000010000000000000BRSLCEACNOR2113
012020050502SMAC11      010IT NOW SMALLCI           R$  000000000452000000000046700000000004513000000000460100000000045400000000004500000000000454000311000000000000507580000000002335839680000000000000009999123100000010000000000000BRSMACCTF001100
012020050502SMAL11      010ISHARES SMALCI           R$  000000000887000000000089700000000008680000000000880800000000086800000000008680000000000871001749000000000000171950000000001514579170000000000000009999123100000010000000000000BRSMALCTF002100
012020050502SMLS3       010SMILES      ON      NM   R$  000000000140200000000014270000000001336000000000138200000000013380000000001338000000000134004388000000000001286400000000001778927600000000000000009999123100000010000000000000BRSMLSACNOR1108
012020050502SMTO3       010SAO MARTINHOON      NM   R$  000000000199900000000021600000000001914000000000202300000000019340000000001934000000000193512953000000000003058400000000006190070500000000000000009999123100000010000000000000BRSMTOACNOR3116
012020050502SPRI3       010SPRINGER    ON           R$  000000000130100000000013920000000001260000000000131600000000013920000000001350000000000144000014000000000000001600000000000002105600000000000000009999123100000010000000000000BRSPRIACNOR2144
012020050502SPXI11      010IT NOW SPXI CI           R$  000000001694100000000170000000000016700000000001696400000000169000000000016762000000001690000061000000000000437580000000007423288500000000000000009999123100000010000000000000BRSPXICTF003100
012020050502SQIA3       010SINQIA      ON      NM   R$  000000000215900000000022280000000002053000000000214700000000020530000000002051000000000205304567000000000000938400000000002014947700000000000000009999123100000010000000000000BRSQIAACNOR6102
012020050502STBP3       010SANTOS BRP  ON  ED  NM   R$  000000000040800000000004190000000000388000000000039700000000003880000000000388000000000039006155000000000003148600000000001252002400000000000000009999123100000010000000000000BRSTBPACNOR3117
012020050502SULA3       010SUL AMERICA ON      N2   R$  000000000194900000000020410000000001926000000000198100000000020260000000001901000000000202500016000000000000001600000000000003170400000000000000009999123100000010000000000000BRSULAACNOR2139
012020050502SULA4       010SUL AMERICA PN      N2   R$  000000000118500000000012130000000001151000000000120000000000012010000000001172000000000119900030000000000000004300000000000005163800000000000000009999123100000010000000000000BRSULAACNPR9139
012020050502SULA11      010SUL AMERICA UNT     N2   R$  000000000433800000000044780000000004284000000000438200000000043980000000004397000000000439813094000000000002912500000000012763078600000000000000009999123100000010000000000000BRSULACDAM12139
012020050502SUZB3       010SUZANO S.A. ON      NM   R$  000000000406200000000041900000000003963000000000411400000000041600000000004160000000000416123341000000000008171000000000033622337000000000000000009999123100000010000000000000BRSUZBACNOR0124
012020050502T1OW34      010AMERICAN TOWDRN          R$  000000003304100000000334780000000033041000000003339000000000334780000000000000000000000000000002000000000000000050000000000001669530000000000000009999123100000010000000000000BRT1OWBDR007101
012020050502TAEE3       010TAESA       ON      N2   R$  000000000092300000000009340000000000906000000000091700000000009250000000000918000000000092400131000000000000016800000000000015420400000000000000009999123100000010000000000000BRTAEEACNOR9129
012020050502TAEE4       010TAESA       PN      N2   R$  000000000093500000000009350000000000907000000000091600000000009150000000000915000000000092000226000000000000035000000000000032069400000000000000009999123100000010000000000000BRTAEEACNPR6129
012020050502TAEE11      010TAESA       UNT     N2   R$  000000000275200000000027670000000002725000000000275000000000027650000000002765000000000276610011000000000002044500000000005623428500000000000000009999123100000010000000000000BRTAEECDAM10129
012020050502TASA3       010TAURUS ARMASON      N2   R$  000000000041200000000004200000000000376000000000040100000000003760000000000376000000000038100442000000000000285000000000000114543600000000000000009999123100000010000000000000BRTASAACNOR7100
012020050502TASA4       010TAURUS ARMASPN      N2   R$  000000000048500000000005050000000000436000000000047500000000004360000000000436000000000043905765000000000003020400000000001436426900000000000000009999123100000010000000000000BRTASAACNPR4100
012020050502TCSA3       010TECNISA     ON      NM   R$  000000000007800000000000790000000000076000000000007700000000000770000000000077000000000007804352000000000010934500000000000851508600000000000000009999123100000010000000000000BRTCSAACNOR3111
012020050502TECN3       010TECHNOS     ON      NM   R$  000000000012400000000001240000000000114000000000011500000000001150000000000115000000000011800340000000000000300500000000000034856800000000000000009999123100000010000000000000BRTECNACNOR6106
012020050502TELB3       010TELEBRAS    ON           R$  000000000791600000000079160000000007621000000000781700000000076210000000007610000000000815000003000000000000000300000000000002345200000000000000009999123100000010000000000000BRTELBACNOR2139
012020050502TELB4       010TELEBRAS    PN           R$  000000000242700000000024900000000002329000000000238300000000023300000000002329000000000233500054000000000000010700000000000025499500000000000000009999123100000010000000000000BRTELBACNPR9139
012020050502TEND3       010TENDA       ON      NM   R$  000000000226800000000023320000000002223000000000228100000000022230000000002223000000000225403747000000000000736900000000001680930900000000000000009999123100000010000000000000BRTENDACNOR4107
012020050502TESA3       010TERRA SANTA ON      NM   R$  000000000114000000000011800000000001111000000000114000000000011150000000001115000000000119000095000000000000018700000000000021335600000000000000009999123100000010000000000000BRTESAACNOR9101
012020050502TEXA34      010TEXAS INC   DRN ED       R$  000000006296100000000629610000000062961000000006296100000000629610000000000000000000000000000001000000000000001600000000000100737600000000000000009999123100000010000000000000BRTEXABDR003119
012020050502TGMA3       010TEGMA       ON      NM   R$  000000000187000000000020450000000001830000000000191200000000020330000000002030000000000203306904000000000003777400000000007222414400000000000000009999123100000010000000000000BRTGMAACNOR7133
012020050502TIET3       010AES TIETE E ON      N2   R$  000000000033300000000003410000000000328000000000033600000000003320000000000333000000000033900546000000000000123700000000000041640800000000000000009999123100000010000000000000BRTIETACNOR0122
012020050502TIET4       010AES TIETE E PN      N2   R$  000000000027900000000002870000000000278000000000028300000000002820000000000282000000000028400779000000000000431400000000000122197800000000000000009999123100000010000000000000BRTIETACNPR7122
012020050502TIET11      010AES TIETE E UNT     N2   R$  000000000145400000000014900000000001447000000000147100000000014700000000001470000000000147205096000000000001291600000000001900351700000000000000009999123100000010000000000000BRTIETCDAM15122
012020050502TIMP3       010TIM PART S/AON      NM   R$  000000000135500000000013900000000001341000000000137500000000013900000000001388000000000139126887000000000009223500000000012683906800000000000000009999123100000010000000000000BRTIMPACNOR1114
012020050502TMOS34      010THERMFISCHERDRN          R$  000000004682300000000474300000000046823000000004686700000000474300000000000000000000000000000003000000000000000220000000000010310900000000000000009999123100000010000000000000BRTMOSBDR007116
012020050502TOTS3       010TOTVS       ON  EDB NM   R$  000000000203500000000020710000000002008000000000203200000000020270000000002027000000000203017731000000000005878700000000011950763000000000000000009999123100000010000000000000BRTOTSACNOR8135
012020050502TPIS3       010TRIUNFO PARTON      NM   R$  000000000009900000000001010000000000098000000000009900000000000990000000000099000000000010200362000000000000248400000000000024784900000000000000009999123100000010000000000000BRTPISACNOR8115
012020050502TRIS3       010TRISUL      ON  ED  NM   R$  000000000080000000000008030000000000756000000000078300000000007750000000000773000000000077503849000000000001301600000000001020131500000000000000009999123100000010000000000000BRTRISACNOR4113
012020050502TRPL3       010TRAN PAULISTON      N1   R$  000000000226000000000023970000000002219000000000229500000000022800000000002260000000000228000026000000000000003800000000000008723600000000000000009999123100000010000000000000BRTRPLACNOR4175
012020050502TRPL4       010TRAN PAULISTPN      N1   R$  000000000192300000000019300000000001901000000000191500000000019060000000001906000000000190905583000000000001080500000000002070143700000000000000009999123100000010000000000000BRTRPLACNPR1175
012020050502TSLA34      010TESLA INC   DRN          R$  000000010950000000001100000000000108200000000010912500000001085000000000093500000000011000000008000000000000000530000000000057836560000000000000009999123100000010000000000000BRTSLABDR008100
012020050502TUPY3       010TUPY        ON      NM   R$  000000000149700000000015200000000001436000000000146900000000014390000000001439000000000144002199000000000000467100000000000686455500000000000000009999123100000010000000000000BRTUPYACNOR1175
012020050502TWTR34      010TWITTER     DRN          R$  000000000794800000000079480000000007948000000000794800000000079480000000000000000000000800000001000000000000000010000000000000079480000000000000009999123100000010000000000000BRTWTRBDR007100
012020050502U1AL34      010UNITED AIRLIDRN          R$  000000000709000000000070900000000006800000000000682600000000068000000000000000000000001550000005000000000000000360000000000002457580000000000000009999123100000010000000000000BRU1ALBDR006100
012020050502U1BE34      010UBER TECH INDRN          R$  000000001552000000000155200000000015520000000001552000000000155200000000013000000000000000000002000000000000000020000000000000310400000000000000009999123100000010000000000000BRU1BEBDR009100
012020050502UCAS3       010UNICASA     ON      NM   R$  000000000042100000000004450000000000411000000000042700000000004290000000000410000000000042900398000000000000182500000000000078085900000000000000009999123100000010000000000000BRUCASACNOR1107
012020050502UGPA3       010ULTRAPAR    ON      NM   R$  000000000146900000000015080000000001412000000000145500000000014430000000001442000000000144314669000000000005898100000000008582996600000000000000009999123100000010000000000000BRUGPAACNOR8146
012020050502UNHH34      010UNITEDHEALTHDRN          R$  000000003253400000000331490000000032534000000003253900000000331490000000000000000000000000000002000000000000018170000000000591247330000000000000009999123100000010000000000000BRUNHHBDR000104
012020050502UNIP3       010UNIPAR      ON           R$  000000000285000000000029670000000002847000000000288500000000029290000000002800000000000293000011000000000000001100000000000003173700000000000000009999123100000010000000000000BRUNIPACNOR7192
012020050502UNIP5       010UNIPAR      PNA          R$  000000000280000000000028000000000002800000000000280000000000028000000000002602000000000280000004000000000000000500000000000001400000000000000000009999123100000010000000000000BRUNIPACNPA0194
012020050502UNIP6       010UNIPAR      PNB          R$  000000000234100000000023830000000002257000000000230700000000022570000000002255000000000226900807000000000000148800000000000343298600000000000000009999123100000010000000000000BRUNIPACNPB8192
012020050502USIM3       010USIMINAS    ON  ED  N1   R$  000000000053000000000005370000000000521000000000052700000000005220000000000521000000000052700316000000000000152200000000000080346300000000000000009999123100000010000000000000BRUSIMACNOR3160
012020050502USIM5       010USIMINAS    PNA ED  N1   R$  000000000047600000000004880000000000461000000000047100000000004610000000000461000000000046213615000000000015759200000000007432101300000000000000009999123100000010000000000000BRUSIMACNPA6162
012020050502VALE3       010VALE        ON      NM   R$  000000000444500000000045030000000004370000000000442500000000043700000000004370000000000437935637000000000019070600000000084388186900000000000000009999123100000010000000000000BRVALEACNOR0199
012020050502VERZ34      010VERIZON     DRN          R$  000000003139900000000318290000000031399000000003175800000000318290000000000000000000000000000002000000000000008370000000000265819630000000000000009999123100000010000000000000BRVERZBDR008133
012020050502VIGT11      010FIP VINCI IECI           R$  000000000964800000000096480000000009515000000000952900000000095150000000009515000000000964800025000000000000001658000000000015800411000000000000009999123100000010000000000000BRVIGTCTF004101
012020050502VISA34      010VISA INC    DRN          R$  000000010070000000001007000000000100502000000010051200000001005020000000000000000000000000000002000000000000000740000000000074379400000000000000009999123100000010000000000000BRVISABDR000129
012020050502VIVA3       010VIVARA S.A. ON      NM   R$  000000000180100000000018570000000001738000000000178300000000017870000000001780000000000178704780000000000001180300000000002105158400000000000000009999123100000010000000000000BRVIVAACNOR0101
