00COTAHIST.2020BOVESPA 20200430                                                                                                                                                                                                                      
012020043002A1AP34      010ADVANCE AUTODRN          R$  000000001647800000000164780000000016430000000001647200000000164300000000000000000000000000000003000000000000002530000000000041674940000000000000009999123100000010000000000000BRA1APBDR001101
012020043002A1BM34      010ABIOMED INC DRN          R$  000000002503600000000258400000000025036000000002510300000000258400000000000000000000000000000004000000000000000520000000000013053600000000000000009999123100000010000000000000BRA1BMBDR006100
012020043002A1DI34      010ANALOG DEVICDRN          R$  000000003007700000000300770000000030077000000003007700000000300770000000000000000000000000000001000000000000000500000000000015038500000000000000009999123100000010000000000000BRA1DIBDR000101
012020043002A1EP34      010AMERICAN ELEDRN          R$  000000002263700000000226370000000022637000000002263700000000226370000000000000000000000000000001000000000000000600000000000013582200000000000000009999123100000010000000000000BRA1EPBDR003101
012020043002A1KA34      010AKAMAI TECHNDRN          R$  000000002637500000000263750000000026375000000002637500000000263750000000000000000000000000000001000000000000001660000000000043782500000000000000009999123100000010000000000000BRA1KABDR002100
012020043002A1LX34      010ALEXION PHARDRN          R$  000000002943200000000294320000000029432000000002943200000000294320000000029100000000000000000001000000000000001210000000000035612720000000000000009999123100000010000000000000BRA1LXBDR002100
012020043002A1MD34      010ADVANCED MICDRN          R$  000000002910000000000291300000000028400000000002910100000000284000000000000000000000003200000004000000000000000530000000000015424000000000000000009999123100000010000000000000BRA1MDBDR002100
012020043002A1MT34      010APPLIED MATEDRN          R$  000000002835000000000283500000000028350000000002835000000000283500000000000000000000000000000001000000000000000300000000000008505000000000000000009999123100000010000000000000BRA1MTBDR008101
012020043002A1PA34      010APACHE CORP DRN ED       R$  000000000752000000000075200000000007400000000000746300000000074000000000000000000000000000000004000000000000000380000000000002836000000000000000009999123100000010000000000000BRA1PABDR001102
012020043002AALL34      010AMERICAN AIRDRN          R$  000000000660000000000066000000000006390000000000643100000000064900000000005400000000000750000007000000000000000730000000000004694700000000000000009999123100000010000000000000BRAALLBDR003115
012020043002AALR3       010ALLIAR      ON  ED  NM   R$  000000000104300000000011090000000001019000000000106800000000010490000000001045000000000104902059000000000000624700000000000667587800000000000000009999123100000010000000000000BRAALRACNOR6102
012020043002AAPL34      010APPLE       DRN          R$  000000001610900000000161090000000015680000000001589200000000159090000000015710000000001660000064000000000000023030000000000365999570000000000000009999123100000010000000000000BRAAPLBDR004132
012020043002ABCB4       010ABC BRASIL  PN      N2   R$  000000000144500000000014810000000001390000000000142300000000014290000000001429000000000144106224000000000001431800000000002037710000000000000000009999123100000010000000000000BRABCBACNPR4133
012020043002ABEV3       010AMBEV S/A   ON           R$  000000000115300000000011680000000001125000000000113500000000011340000000001134000000000113750118000000000035747500000000040590257600000000000000009999123100000010000000000000BRABEVACNOR1122
012020043002ABTT34      010ABBOTT      DRN          R$  000000001271600000000127160000000012610000000001266200000000126100000000000000000000000000000003000000000000000620000000000007850800000000000000009999123100000010000000000000BRABTTBDR007134
012020043002ABUD34      010AB INBEV    DRN          R$  000000002508200000000250820000000025082000000002508200000000250820000000000000000000000000000001000000000000001400000000000035114800000000000000009999123100000010000000000000BRABUDBDR009101
012020043002ADBE34      010ADOBE INC   DRN          R$  000000003807900000000385270000000038079000000003843600000000385270000000000000000000000000000002000000000000001990000000000076489530000000000000009999123100000010000000000000BRADBEBDR003100
012020043002ADHM3       010ADVANCED-DH ON           R$  000000000026000000000002600000000000241000000000024900000000002480000000000248000000000025000086000000000000030900000000000007714700000000000000009999123100000010000000000000BRADHMACNOR9102
012020043002ADPR34      010AUTOMATIC DTDRN          R$  000000003943700000000394370000000039437000000003943700000000394370000000000000000000000000000001000000000000000400000000000015774800000000000000009999123100000010000000000000BRADPRBDR005103
012020043002AFLT3       010AFLUENTE T  ON           R$  000000000072200000000007220000000000692000000000071500000000006920000000000693000000000072200005000000000000001300000000000000929900000000000000009999123100000010000000000000BRAFLTACNOR1114
012020043002AGRO3       010BRASILAGRO  ON      NM   R$  000000000199000000000020560000000001985000000000202700000000020500000000002000000000000205000963000000000000155500000000000315349500000000000000009999123100000010000000000000BRAGROACNOR7109
012020043002AIGB34      010AIG GROUP   DRN          R$  000000001450000000000145000000000014344000000001434400000000143440000000000000000000000000000002000000000000007410000000000106290600000000000000009999123100000010000000000000BRAIGBBDR007114
012020043002ALPA3       010ALPARGATAS  ON      N1   R$  000000000237000000000023700000000002221000000000223900000000022210000000002213000000000228500007000000000000000900000000000002015800000000000000009999123100000010000000000000BRALPAACNOR0229
012020043002ALPA4       010ALPARGATAS  PN      N1   R$  000000000275000000000027620000000002623000000000270600000000027390000000002735000000000273914156000000000003818600000000010336667600000000000000009999123100000010000000000000BRALPAACNPR7229
012020043002ALSO3       010ALIANSCSONAEON      NM   R$  000000000297800000000029780000000002694000000000278200000000027910000000002791000000000279916813000000000004194400000000011669394300000000000000009999123100000010000000000000BRALSOACNOR5100
012020043002ALUP3       010ALUPAR      ON  ED  N2   R$  000000000098100000000010010000000000960000000000098100000000009990000000000955000000000099900220000000000000034700000000000034056200000000000000009999123100000010000000000000BRALUPACNOR8111
012020043002ALUP4       010ALUPAR      PN  ED  N2   R$  000000000068500000000006850000000000635000000000064100000000006370000000000637000000000064200229000000000000042300000000000027125100000000000000009999123100000010000000000000BRALUPACNPR5111
012020043002ALUP11      010ALUPAR      UNT ED  N2   R$  000000000229800000000023120000000002222000000000225300000000022570000000002242000000000225704580000000000001588400000000003578860900000000000000009999123100000010000000000000BRALUPCDAM15111
012020043002AMAR3       010LOJAS MARISAON      NM   R$  000000000060100000000006570000000000583000000000063100000000006570000000000653000000000065712092000000000010576900000000006675527000000000000000009999123100000010000000000000BRAMARACNOR4112
012020043002AMGN34      010AMGEN       DRN          R$  000000012795800000001291520000000127703000000012818600000001291520000000000000000000000000000006000000000000000980000000000125622410000000000000009999123100000010000000000000BRAMGNBDR004133
012020043002AMZO34      010AMAZON      DRN          R$  000000065940000000006664000000000655401000000066171900000006554010000000655400000000000000000011000000000000000760000000000502907070000000000000009999123100000010000000000000BRAMZOBDR002101
012020043002ANIM3       010ANIMA       ON      NM   R$  000000000219900000000023940000000002151000000000227700000000022780000000002215000000000230009878000000000002539200000000005784099300000000000000009999123100000010000000000000BRANIMACNOR6106
012020043002APER3       010ALPER S.A.  ON      NM   R$  000000000205000000000021000000000001800000000000191100000000018000000000001600000000000180000349000000000000083800000000000160195500000000000000009999123100000010000000000000BRAPERACNOR9101
012020043002ARMT34      010ARCELOR     DRN          R$  000000000297000000000029700000000002970000000000297000000000029700000000000000000000000000000001000000000000052100000000000154737000000000000000009999123100000010000000000000BRARMTBDR008117
012020043002ARZZ3       010AREZZO CO   ON      NM   R$  000000000454500000000045940000000004250000000000433300000000042500000000004250000000000430002174000000000000567300000000002458541600000000000000009999123100000010000000000000BRARZZACNOR3137
012020043002ATOM3       010ATOMPAR     ON           R$  000000000013900000000001390000000000133000000000013400000000001340000000000133000000000013400088000000000000055000000000000007384600000000000000009999123100000010000000000000BRATOMACNOR1103
012020043002ATTB34      010ATT INC     DRN          R$  000000001665000000000166500000000016649000000001664900000000166490000000013575000000000000000002000000000000003280000000000054608730000000000000009999123100000010000000000000BRATTBBDR007131
012020043002AVGO34      010BROADCOM INCDRN          R$  000000002955000000000298050000000029450000000002972100000000296000000000000000000000000000000007000000000000001460000000000043393900000000000000009999123100000010000000000000BRAVGOBDR003104
012020043002AXPB34      010AMERICAN EXPDRN          R$  000000005029500000000502950000000050295000000005029500000000502950000000042001000000000000000001000000000000001150000000000057839250000000000000009999123100000010000000000000BRAXPBBDR007132
012020043002AZEV3       010AZEVEDO     ON           R$  000000000038700000000003900000000000375000000000038100000000003780000000000378000000000038000020000000000000002800000000000001067800000000000000009999123100000010000000000000BRAZEVACNOR0117
012020043002AZEV4       010AZEVEDO     PN           R$  000000000029300000000002940000000000275000000000028300000000002750000000000276000000000028200065000000000000018900000000000005351400000000000000009999123100000010000000000000BRAZEVACNPR7117
012020043002AZUL4       010AZUL        PN      N2   R$  000000000167900000000017400000000001628000000000170400000000017400000000001738000000000174028004000000000014743300000000025128332800000000000000009999123100000010000000000000BRAZULACNPR4100
012020043002B1BT34      010TRUIST FINANDRN          R$  000000002041100000000204110000000020411000000002041100000000204110000000000000000000000000000001000000000000006100000000000124507100000000000000009999123100000010000000000000BRB1BTBDR000101
012020043002B1SX34      010BOSTON SCIENDRN          R$  000000002040200000000204020000000020402000000002040200000000204020000000000000000000000000000001000000000000000400000000000008160800000000000000009999123100000010000000000000BRB1SXBDR006100
012020043002B3SA3       010B3          ON      NM   R$  000000000392900000000039650000000003803000000000387000000000038420000000003841000000000384335863000000000014480100000000056045764300000000000000009999123100000010000000000000BRB3SAACNOR6110
012020043002BABA34      010ALIBABAGR   DRN          R$  000000011021400000001102140000000109037000000010966300000001096750000000000000000000000000000003000000000000001260000000000138176420000000000000009999123100000010000000000000BRBABABDR005100
012020043002BAHI3       010BAHEMA      ON      MA   R$  000000000655000000000070000000000006550000000000679800000000070000000000006800000000000698000025000000000000002800000000000019034600000000000000009999123100000010000000000000BRBAHIACNOR1071
012020043002BALM4       010BAUMER      PN           R$  000000000096000000000010250000000000960000000000098900000000010000000000000940000000000100000013000000000000002500000000000002474700000000000000009999123100000010000000000000BRBALMACNPR2050
012020043002BAUH4       010EXCELSIOR   PN           R$  000000000839800000000090450000000008398000000000845600000000090450000000009045000000000905000012000000000000004300000000000036364800000000000000009999123100000010000000000000BRBAUHACNPR3114
012020043002BAZA3       010AMAZONIA    ON           R$  000000000305000000000030500000000002962000000000302700000000030250000000002968000000000300000014000000000000002600000000000007870800000000000000009999123100000010000000000000BRBAZAACNOR0174
012020043002BBAS3       010BRASIL      ON      NM   R$  000000000283100000000028780000000002785000000000283300000000028500000000002849000000000285051756000000000023935300000000067825809900000000000000009999123100000010000000000000BRBBASACNOR3291
012020043002BBDC3       010BRADESCO    ON      N1   R$  000000000174600000000018020000000001736000000000176900000000017560000000001756000000000176817740000000000007317800000000012949938000000000000000009999123100000010000000000000BRBBDCACNOR1710
012020043002BBDC4       010BRADESCO    PN      N1   R$  000000000190500000000019590000000001905000000000192900000000019150000000001915000000000191624940000000000070325000000000135668027900000000000000009999123100000010000000000000BRBBDCACNPR8710
012020043002BBRK3       010BR BROKERS  ON      NM   R$  000000000025400000000002540000000000238000000000024500000000002400000000000240000000000024100374000000000000128900000000000031659400000000000000009999123100000010000000000000BRBBRKACNOR4113
012020043002BBSD11      010BB ETF SP DVCI           R$  000000000670000000000067000000000006679000000000669300000000067000000000006600000000000695000003000000000000000030000000000000200790000000000000009999123100000010000000000000BRBBSDCTF000100
012020043002BBSE3       010BBSEGURIDADEON      NM   R$  000000000253300000000026660000000002533000000000262600000000026550000000002652000000000265522451000000000005883800000000015455060500000000000000009999123100000010000000000000BRBBSEACNOR5116
012020043002BCSA34      010SANTANDER   DRN          R$  000000000128000000000012800000000001179000000000118900000000011880000000001185000000000119000155000000000000070130000000000083420930000000000000009999123100000010000000000000BRBCSABDR005101
012020043002BEEF3       010MINERVA     ON      NM   R$  000000000120800000000012990000000001183000000000124100000000012260000000001226000000000123929479000000000024828300000000030819513200000000000000009999123100000010000000000000BRBEEFACNOR6108
012020043002BEES3       010BANESTES    ON           R$  000000000051500000000005200000000000505000000000050900000000005060000000000506000000000050800166000000000000046500000000000023671200000000000000009999123100000010000000000000BRBEESACNOR9336
012020043002BEES4       010BANESTES    PN           R$  000000000049100000000005070000000000491000000000050100000000005070000000000500000000000050700049000000000000006500000000000003257600000000000000009999123100000010000000000000BRBEESACNPR6261
012020043002BERK34      010BERKSHIRE   DRN          R$  000000010250000000001034000000000102400000000010290600000001027000000000100000000000011240000013000000000000000680000000000069976220000000000000009999123100000010000000000000BRBERKBDR002100
012020043002BGIP4       010BANESE      PN           R$  000000000236000000000024000000000002330000000000235500000000023300000000002328000000000241200007000000000000001000000000000002355900000000000000009999123100000010000000000000BRBGIPACNPR8198
012020043002BHPG34      010BHP GROUP   DRN          R$  000000002244000000000224400000000022440000000002244000000000224400000000000000000000000000000001000000000000000300000000000006732000000000000000009999123100000010000000000000BRBHPGBDR007101
012020043002BIDI3       010BANCO INTER ON      N2   R$  000000000095000000000009770000000000932000000000095300000000009400000000000933000000000094001187000000000000352400000000000335902000000000000000009999123100000010000000000000BRBIDIACNOR3105
012020043002BIDI4       010BANCO INTER PN      N2   R$  000000000097800000000009940000000000934000000000095500000000009340000000000933000000000093405039000000000001670100000000001595449400000000000000009999123100000010000000000000BRBIDIACNPR0109
012020043002BIDI11      010BANCO INTER UNT     N2   R$  000000000297900000000029790000000002752000000000280500000000027520000000002752000000000279803788000000000001199800000000003366278600000000000000009999123100000010000000000000BRBIDICDAXX3104
012020043002BIIB34      010BIOGEN      DRN          R$  000000002738100000000273810000000027381000000002738100000000273810000000000000000000000000000001000000000000000900000000000024642900000000000000009999123100000010000000000000BRBIIBBDR001101
012020043002BIOM3       010BIOMM       ON      MA   R$  000000000100100000000010110000000000990000000000099700000000009950000000000995000000000100200045000000000000009400000000000009380200000000000000009999123100000010000000000000BRBIOMACNOR2107
012020043002BKBR3       010BK BRASIL   ON      NM   R$  000000000096800000000009940000000000938000000000096100000000009460000000000946000000000095509696000000000002835500000000002725414500000000000000009999123100000010000000000000BRBKBRACNOR4103
012020043002BKNG34      010BOOKING     DRN          R$  000000003312800000000331280000000032380000000003243100000000323800000000030500000000000000000002000000000000001450000000000047025800000000000000009999123100000010000000000000BRBKNGBDR006100
012020043002BLAK34      010BLACKROCK   DRN          R$  000000004548000000000459900000000045480000000004552200000000459900000000000000000000000000000004000000000000000230000000000010470100000000000000009999123100000010000000000000BRBLAKBDR003116
012020043002BMEB4       010MERC BRASIL PN           R$  000000000109200000000010930000000001071000000000108400000000010710000000001071000000000109000012000000000000004100000000000004445000000000000000009999123100000010000000000000BRBMEBACNPR5201
012020043002BMGB4       010BANCO BMG   PN      N1   R$  000000000049800000000004980000000000470000000000048400000000004870000000000485000000000048702514000000000001055200000000000510819300000000000000009999123100000010000000000000BRBMGBACNPR0101
012020043002BMIN3       010MERC INVEST ON           R$  000000000171000000000017800000000001680000000000171400000000016800000000001651000000000210000005000000000000000500000000000000857000000000000000009999123100000010000000000000BRBMINACNOR4168
012020043002BMKS3       010BIC MONARK  ON           R$  000000001890000000000189000000000018200000000001860000000000187000000000018200000000001870000003000000000000000003000000000000055800000000000000009999123100000010000000000000BRBMKSACNOR9161
012020043002BMYB34      010BRISTOLMYERSDRN          R$  000000003328400000000332840000000033284000000003328400000000332840000000000000000000000000000001000000000000000600000000000019970400000000000000009999123100000010000000000000BRBMYBBDR000126
012020043002BNBR3       010NORD BRASIL ON           R$  000000000717500000000076740000000007175000000000734100000000076740000000007175000000000767500003000000000000000300000000000002202500000000000000009999123100000010000000000000BRBNBRACNOR8200
012020043002BOAC34      010BANK AMERICADRN          R$  000000001318000000000132400000000013134000000001316400000000131340000000010000000000000000000005000000000000004340000000000057135340000000000000009999123100000010000000000000BRBOACBDR004138
012020043002BOBR4       010BOMBRIL     PN           R$  000000000017800000000001780000000000170000000000017300000000001720000000000170000000000017200089000000000000063100000000000010978500000000000000009999123100000010000000000000BRBOBRACNPR3128
012020043002BOEI34      010BOEING      DRN          R$  000000007669900000000781970000000076699000000007695600000000770000000000000000000000000000000003000000000000000140000000000010773840000000000000009999123100000010000000000000BRBOEIBDR003132
012020043002BONY34      010BNY MELLON  DRN ED       R$  000000002050100000000205010000000020501000000002050100000000205010000000000000000000000000000001000000000000000700000000000014350700000000000000009999123100000010000000000000BRBONYBDR001119
012020043002BOVA11      010ISHARES BOVACI           R$  000000000785800000000079050000000007721000000000778700000000077210000000007721000000000775017752000000000012515780000000097472781920000000000000009999123100000010000000000000BRBOVACTF003104
012020043002BOVB11      010ETF BRAD BOVCI           R$  000000000813800000000082000000000008018000000000807500000000080540000000008001000000000805401015000000000000183520000000001482002440000000000000009999123100000010000000000000BRBOVBCTF001100
012020043002BOVV11      010IT NOW IBOV CI           R$  000000000820000000000082430000000008051000000000810900000000080790000000008060000000000807918013000000000001753430000000014220125640000000000000009999123100000010000000000000BRBOVVCTF009100
012020043002BPAC3       010BTGP BANCO  ON      N2   R$  000000000210700000000022240000000002100000000000217800000000022200000000002126000000000222100010000000000000001100000000000002396700000000000000009999123100000010000000000000BRBPACACNOR7121
012020043002BPAC5       010BTGP BANCO  PNA     N2   R$  000000000115100000000011700000000001121000000000116000000000011630000000001163000000000119900021000000000000005400000000000006264700000000000000009999123100000010000000000000BRBPACACNPA0121
012020043002BPAC11      010BTGP BANCO  UNT     N2   R$  000000000423000000000043000000000004064000000000417800000000042300000000004210000000000423017756000000000005007100000000020924163000000000000000009999123100000010000000000000BRBPACUNT006106
012020043002BPAN4       010BANCO PAN   PN      N1   R$  000000000053500000000005450000000000503000000000051500000000005030000000000503000000000050610534000000000006718600000000003463718300000000000000009999123100000010000000000000BRBPANACNPR1108
012020043002BRAP3       010BRADESPAR   ON      N1   R$  000000000270300000000027450000000002617000000000269300000000026520000000002652000000000271000848000000000000214200000000000576864100000000000000009999123100000010000000000000BRBRAPACNOR5136
012020043002BRAP4       010BRADESPAR   PN      N1   R$  000000000306800000000031080000000002950000000000299700000000029860000000002986000000000298717016000000000004610500000000013819354600000000000000009999123100000010000000000000BRBRAPACNPR2136
012020043002BRAX11      010ISHARES BRAXCI           R$  000000000678100000000068090000000006688000000000673000000000066900000000006690000000000685000020000000000000001140000000000007672290000000000000009999123100000010000000000000BRBRAXCTF002100
012020043002BRDT3       010PETROBRAS BRON      NM   R$  000000000208000000000020800000000001926000000000198800000000019530000000001953000000000196535827000000000008934600000000017765066000000000000000009999123100000010000000000000BRBRDTACNOR1119
012020043002BRFS3       010BRF SA      ON      NM   R$  000000000200900000000020090000000001922000000000195300000000019390000000001939000000000194028133000000000011599600000000022663008500000000000000009999123100000010000000000000BRBRFSACNOR8119
012020043002BRGE3       010ALFA CONSORCON           R$  000000000070000000000007500000000000675000000000071300000000006750000000000670000000000075000010000000000000002200000000000001570500000000000000009999123100000010000000000000BRBRGEACNOR6202
012020043002BRGE12      010ALFA CONSORCPNF          R$  000000000042100000000004210000000000421000000000042100000000004210000000000421000000000056500003000000000000000900000000000000378900000000000000009999123100000010000000000000BRBRGEACNPF8096
012020043002BRIV4       010ALFA INVEST PN           R$  000000000068000000000007490000000000679000000000071600000000007340000000000702000000000073400010000000000000002000000000000001432500000000000000009999123100000010000000000000BRBRIVACNPR3210
012020043002BRKM3       010BRASKEM     ON      N1   R$  000000000221000000000022220000000002090000000000212500000000021000000000002100000000000216000099000000000000044600000000000094788700000000000000009999123100000010000000000000BRBRKMACNOR1117
012020043002BRKM5       010BRASKEM     PNA     N1   R$  000000000212500000000021820000000002092000000000212400000000021140000000002114000000000212111298000000000002799100000000005946938500000000000000009999123100000010000000000000BRBRKMACNPA4117
012020043002BRML3       010BR MALLS PARON      NM   R$  000000000103500000000010510000000000982000000000100600000000010040000000001004000000000100584443000000000033410500000000033643669200000000000000009999123100000010000000000000BRBRMLACNOR9115
012020043002BRPR3       010BR PROPERT  ON  ED  NM   R$  000000000092100000000009470000000000873000000000089200000000008740000000000874000000000088405494000000000004276200000000003815287900000000000000009999123100000010000000000000BRBRPRACNOR9119
012020043002BRSR3       010BANRISUL    ON      N1   R$  000000000144000000000014500000000001402000000000144500000000014490000000001425000000000145000017000000000000003500000000000005060400000000000000009999123100000010000000000000BRBRSRACNOR3167
012020043002BRSR6       010BANRISUL    PNB     N1   R$  000000000127600000000013000000000001248000000000126100000000012540000000001254000000000125506820000000000002967600000000003742462300000000000000009999123100000010000000000000BRBRSRACNPB4170
012020043002BRZP11      010FIP BRZ IE  CI           R$  000000007449900000000770010000000071000000000007571500000000767000000000074500000000007670000096000000000000000730000000000055272501000000000000009999123100000010000000000000BRBRZPCTF005101
012020043002BSEV3       010BIOSEV      ON      NM   R$  000000000028500000000002880000000000276000000000028000000000002790000000000278000000000027900178000000000000070400000000000019718000000000000000009999123100000010000000000000BRBSEVACNOR3102
012020043002BTOW3       010B2W DIGITAL ON      NM   R$  000000000757000000000077560000000007325000000000750700000000073250000000007325000000000734714880000000000003303700000000024802391800000000000000009999123100000010000000000000BRBTOWACNOR8110
012020043002BTTL3       010BATTISTELLA ON           R$  000000000048600000000004860000000000440000000000047100000000004400000000000444000000000048600004000000000000000900000000000000424600000000000000009999123100000010000000000000BRBTTLACNOR0108
012020043002C1CL34      010CARNIVAL CORDRN          R$  000000000861000000000086100000000008610000000000861000000000086100000000000000000000000000000001000000000000000590000000000005079900000000000000009999123100000010000000000000BRC1CLBDR004101
012020043002C1MG34      010CHIPOTLE MEXDRN          R$  000000002400000000000240000000000024000000000002400000000000240000000000000000000000000000000001000000000000000200000000000004800000000000000000009999123100000010000000000000BRC1MGBDR003100
012020043002CAMB3       010CAMBUCI     ON           R$  000000000027000000000002900000000000265000000000027400000000002760000000000276000000000028000453000000000000346300000000000095177700000000000000009999123100000010000000000000BRCAMBACNOR4119
012020043002CAML3       010CAMIL       ON      NM   R$  000000000087000000000008840000000000816000000000084000000000008160000000000816000000000082010344000000000002860500000000002404328800000000000000009999123100000010000000000000BRCAMLACNOR3109
012020043002CAON34      010CAPITAL ONE DRN          R$  000000001815900000000181590000000018159000000001815900000000181590000000000000000000000000000001000000000000007000000000000127113000000000000000009999123100000010000000000000BRCAONBDR009103
012020043002CARD3       010CSU CARDSYSTON      NM   R$  000000000095800000000010200000000000918000000000097400000000009860000000000956000000000098600938000000000000257800000000000251314800000000000000009999123100000010000000000000BRCARDACNOR9117
012020043002CATP34      010CATERPILLAR DRN          R$  000000006368000000000636800000000063680000000006368000000000636800000000000000000000000000000001000000000000000300000000000019104000000000000000009999123100000010000000000000BRCATPBDR003135
012020043002CCPR3       010CYRE COM-CCPON      NM   R$  000000000151200000000015620000000001463000000000150300000000014720000000001472000000000148602133000000000000323800000000000486756500000000000000009999123100000010000000000000BRCCPRACNOR9113
012020043002CCRO3       010CCR SA      ON      NM   R$  000000000128800000000013060000000001227000000000124800000000012350000000001235000000000123622092000000000006813200000000008505553800000000000000009999123100000010000000000000BRCCROACNOR2137
012020043002CEAB3       010CEA MODAS   ON      NM   R$  000000000097200000000009990000000000936000000000096400000000009450000000000942000000000094510446000000000004677300000000004512739000000000000000009999123100000010000000000000BRCEABACNOR1101
012020043002CEDO3       010CEDRO       ON      N1   R$  000000000078100000000007840000000000739000000000076800000000007390000000000300000000000074000005000000000000000500000000000000384400000000000000009999123100000010000000000000BRCEDOACNOR8096
012020043002CEDO4       010CEDRO       PN      N1   R$  000000000046900000000005890000000000442000000000050700000000004420000000000442000000000048200066000000000000010900000000000005533000000000000000009999123100000010000000000000BRCEDOACNPR5128
012020043002CESP3       010CESP        ON      N1   R$  000000000285500000000029250000000002736000000000285400000000028570000000002840000000000285700128000000000000047600000000000135860000000000000000009999123100000010000000000000BRCESPACNOR3169
012020043002CESP6       010CESP        PNB     N1   R$  000000000288000000000028940000000002725000000000280100000000028160000000002814000000000281611255000000000003760600000000010534819600000000000000009999123100000010000000000000BRCESPACNPB4128
012020043002CGAS3       010COMGAS      ON           R$  000000001499900000000152000000000014999000000001509900000000152000000000015200000000001584000002000000000000000200000000000003019900000000000000009999123100000010000000000000BRCGASACNOR0151
012020043002CGAS5       010COMGAS      PNA          R$  000000001600000000000161000000000015720000000001588200000000157200000000015700000000001572000020000000000000002800000000000044470800000000000000009999123100000010000000000000BRCGASACNPA3148
012020043002CGRA3       010GRAZZIOTIN  ON           R$  000000000229800000000023390000000002234000000000228500000000023100000000002221000000000231100012000000000000001500000000000003428900000000000000009999123100000010000000000000BRCGRAACNOR2071
012020043002CGRA4       010GRAZZIOTIN  PN           R$  000000000244900000000024970000000002415000000000246300000000024970000000002430000000000249700051000000000000011300000000000027832000000000000000009999123100000010000000000000BRCGRAACNPR9071
012020043002CHCM34      010CHARTER COMMDRN          R$  000000005551700000000555170000000054500000000005508200000000545000000000000000000000000000000004000000000000000480000000000026439420000000000000009999123100000010000000000000BRCHCMBDR001100
012020043002CHME34      010CME GROUP   DRN          R$  000000002427000000000242700000000024270000000002427000000000242700000000000000000000000000000001000000000000001100000000000026697000000000000000009999123100000010000000000000BRCHMEBDR007104
012020043002CHVX34      010CHEVRON     DRN          R$  000000002521500000000252150000000025093000000002514400000000250930000000021500000000000000000002000000000000002860000000000071912380000000000000009999123100000010000000000000BRCHVXBDR008136
012020043002CIEL3       010CIELO       ON      NM   R$  000000000041600000000004210000000000406000000000041000000000004060000000000405000000000040619293000000000023941200000000009830318500000000000000009999123100000010000000000000BRCIELACNOR3142
012020043002CLSC4       010CELESC      PN  ED  N2   R$  000000000371000000000037900000000003700000000000375900000000037900000000003745000000000379000021000000000000004400000000000016543900000000000000009999123100000010000000000000BRCLSCACNPR3115
012020043002CMCS34      010COMCAST     DRN          R$  000000002025000000000206290000000020250000000002051900000000206290000000000000000000000000000005000000000000008150000000000167234810000000000000009999123100000010000000000000BRCMCSBDR008134
012020043002CMIG3       010CEMIG       ON      N1   R$  000000000098300000000009860000000000948000000000096400000000009670000000000964000000000096708313000000000002930900000000002826197400000000000000009999123100000010000000000000BRCMIGACNOR6223
012020043002CMIG4       010CEMIG       PN      N1   R$  000000000096000000000009660000000000940000000000094900000000009520000000000951000000000095321917000000000012858600000000012208929200000000000000009999123100000010000000000000BRCMIGACNPR3224
012020043002CNIC34      010CANAD NATIONDRN          R$  000000002290100000000229010000000022901000000002290100000000229010000000000000000000000000000001000000000000000700000000000016030700000000000000009999123100000010000000000000BRCNICBDR007103
012020043002CNTO3       010CENTAURO    ON      NM   R$  000000000320000000000033160000000003098000000000318100000000031600000000003155000000000316009017000000000002013400000000006405764300000000000000009999123100000010000000000000BRCNTOACNOR5100
012020043002COCA34      010COCA COLA   DRN          R$  000000002526000000000252600000000024960000000002525700000000251700000000024960000000000000000003000000000000001920000000000048495300000000000000009999123100000010000000000000BRCOCABDR002134
012020043002COCE5       010COELCE      PNA ED       R$  000000000487800000000049360000000004526000000000475000000000049360000000004781000000000493600454000000000000080100000000000380511800000000000000009999123100000010000000000000BRCOCEACNPA3140
012020043002COGN3       010COGNA ON    ON      NM   R$  000000000054500000000005730000000000522000000000055100000000005540000000000553000000000055401950000000000105295200000000058036262000000000000000009999123100000010000000000000BRCOGNACNOR2101
012020043002COLG34      010COLGATE     DRN          R$  000000003806700000000380670000000038067000000003806700000000380670000000000000000000000000000001000000000000000500000000000019033500000000000000009999123100000010000000000000BRCOLGBDR000136
012020043002COPH34      010COPHILLIPS  DRN          R$  000000000572000000000057200000000005720000000000572000000000057200000000000000000000000000000001000000000000000200000000000001144000000000000000009999123100000010000000000000BRCOPHBDR009133
012020043002COWC34      010COSTCO      DRN ED       R$  000000004155000000000415740000000041550000000004157000000000415740000000000000000000000000000002000000000000001230000000000051131220000000000000009999123100000010000000000000BRCOWCBDR006118
012020043002CPFE3       010CPFL ENERGIAON      NM   R$  000000000299700000000030930000000002904000000000294000000000029040000000002903000000000291019852000000000010632800000000031270722200000000000000009999123100000010000000000000BRCPFEACNOR0129
012020043002CPLE3       010COPEL       ON      N1   R$  000000000532900000000053950000000005233000000000529300000000053200000000005316000000000538902781000000000001108200000000005866101900000000000000009999123100000010000000000000BRCPLEACNOR8139
012020043002CPLE6       010COPEL       PNB     N1   R$  000000000549900000000056290000000005440000000000551000000000054400000000005440000000000545707328000000000002078800000000011455653600000000000000009999123100000010000000000000BRCPLEACNPB9136
012020043002CPRE3       010CPFL RENOVAVON      NM   R$  000000000162500000000016450000000001624000000000162500000000016450000000001625000000000178000005000000000000005000000000000008126900000000000000009999123100000010000000000000BRCPREACNOR5102
012020043002CRDE3       010CR2         ON           R$  000000000230100000000023010000000002301000000000230100000000023010000000002300000000000230200002000000000000000200000000000000460200000000000000009999123100000010000000000000BRCRDEACNOR1111
012020043002CRFB3       010CARREFOUR BRON      NM   R$  000000000199000000000020250000000001977000000000200300000000020000000000001999000000000200013698000000000004268600000000008551564800000000000000009999123100000010000000000000BRCRFBACNOR2105
012020043002CRIV3       010ALFA FINANC ON           R$  000000000048100000000005190000000000481000000000049400000000005190000000000519000000000052500024000000000000006300000000000003114600000000000000009999123100000010000000000000BRCRIVACNOR4194
012020043002CRIV4       010ALFA FINANC PN           R$  000000000057800000000005850000000000578000000000058300000000005820000000000581000000000058500004000000000000001000000000000000583000000000000000009999123100000010000000000000BRCRIVACNPR1203
012020043002CRPG5       010CRISTAL     PNA          R$  000000000227000000000023520000000002270000000000231900000000023000000000002261000000000230000047000000000000009100000000000021111200000000000000009999123100000010000000000000BRCRPGACNPA3107
012020043002CRPG6       010CRISTAL     PNB          R$  000000000227000000000023520000000002270000000000231500000000023190000000002261000000000232000004000000000000000400000000000000926100000000000000009999123100000010000000000000BRCRPGACNPB1107
012020043002CSAN3       010COSAN       ON      NM   R$  000000000603300000000062370000000005987000000000609300000000060340000000006034000000000603809235000000000001677500000000010221397000000000000000009999123100000010000000000000BRCSANACNOR6119
012020043002CSCO34      010CISCO       DRN          R$  000000002319000000000231900000000023190000000002319000000000231900000000000000000000000000000001000000000000000400000000000009276000000000000000009999123100000010000000000000BRCSCOBDR004137
012020043002CSMG3       010COPASA      ON      NM   R$  000000000494700000000049470000000004653000000000476500000000048000000000004789000000000480006149000000000001781200000000008489113800000000000000009999123100000010000000000000BRCSMGACNOR5155
012020043002CSNA3       010SID NACIONALON           R$  000000000086500000000008990000000000841000000000087500000000008960000000000895000000000089627216000000000025377300000000022216761600000000000000009999123100000010000000000000BRCSNAACNOR6251
012020043002CSXC34      010CSX CORP    DRN          R$  000000001823300000000182330000000018233000000001823300000000182330000000000000000000000000000001000000000000001300000000000023702900000000000000009999123100000010000000000000BRCSXCBDR005103
012020043002CTGP34      010CITIGROUP   DRN ED       R$  000000002672900000000267290000000026728000000002672800000000267280000000026000000000002672900002000000000000001010000000000026995380000000000000009999123100000010000000000000BRCTGPBDR000138
012020043002CTKA3       010KARSTEN     ON           R$  000000000105000000000010500000000001050000000000105000000000010500000000000550000000000112000001000000000000000300000000000000315000000000000000009999123100000010000000000000BRCTKAACNOR0043
012020043002CTKA4       010KARSTEN     PN           R$  000000000091500000000009150000000000900000000000090800000000009000000000000905000000000099000004000000000000000700000000000000636100000000000000009999123100000010000000000000BRCTKAACNPR7043
012020043002CTNM3       010COTEMINAS   ON           R$  000000000130600000000015400000000001110000000000136000000000011100000000001110000000000115000212000000000000050900000000000069227800000000000000009999123100000010000000000000BRCTNMACNOR9130
012020043002CTNM4       010COTEMINAS   PN           R$  000000000058500000000006300000000000500000000000057000000000005000000000000495000000000050000462000000000000171200000000000097695600000000000000009999123100000010000000000000BRCTNMACNPR6129
012020043002CTSA3       010SANTANENSE  ON           R$  000000000045000000000004650000000000440000000000045400000000004400000000000410000000000045400017000000000000002400000000000001091400000000000000009999123100000010000000000000BRCTSAACNOR3059
012020043002CTSA4       010SANTANENSE  PN           R$  000000000048300000000005000000000000483000000000049700000000005000000000000452000000000050000005000000000000000600000000000000298300000000000000009999123100000010000000000000BRCTSAACNPR0059
012020043002CTSH34      010COGNIZANT   DRN          R$  000000003131100000000315500000000031311000000003131300000000315500000000000000000000000000000002000000000000005350000000000167525800000000000000009999123100000010000000000000BRCTSHBDR002112
012020043002CVCB3       010CVC BRASIL  ON      NM   R$  000000000138700000000014550000000001364000000000140700000000013800000000001380000000000139018387000000000006356900000000008949450400000000000000009999123100000010000000000000BRCVCBACNOR1112
012020043002CVSH34      010CVS HEALTH  DRN ED       R$  000000001703100000000170310000000016830000000001700300000000168300000000016550000000000000000003000000000000001520000000000025844700000000000000009999123100000010000000000000BRCVSHBDR008116
012020043002CYRE3       010CYRELA REALTON      NM   R$  000000000165500000000016890000000001569000000000160600000000015910000000001591000000000160027539000000000008780000000000014106729100000000000000009999123100000010000000000000BRCYREACNOR7133
012020043002D1OM34      010DOMINION ENEDRN          R$  000000002114200000000211420000000021142000000002114200000000211420000000000000000000000000000001000000000000001200000000000025370400000000000000009999123100000010000000000000BRD1OMBDR006101
012020043002DDNB34      010DUPONT N INCDRN          R$  000000002595000000000259500000000025950000000002595000000000259500000000000000000000000000000001000000000000002300000000000059685000000000000000009999123100000010000000000000BRDDNBBDR008103
012020043002DEAI34      010DELTA       DRN          R$  000000001453300000000145330000000013950000000001452900000000139500000000012000000000001800000003000000000000006550000000000095166500000000000000009999123100000010000000000000BRDEAIBDR008116
012020043002DEEC34      010DEERE CO    DRN          R$  000000003945000000000394500000000039450000000003945000000000394500000000000000000000000000000001000000000000000100000000000003945000000000000000009999123100000010000000000000BRDEECBDR003104
012020043002DEOP34      010DIAGEO PL   DRN          R$  000000007605900000000760590000000076059000000007605900000000760590000000000000000000000000000001000000000000000500000000000038029500000000000000009999123100000010000000000000BRDEOPBDR004101
012020043002DGCO34      010DOLLAR GENERDRN          R$  000000004745000000000474500000000047450000000004745000000000474500000000000000000000000000000001000000000000000300000000000014235000000000000000009999123100000010000000000000BRDGCOBDR007104
012020043002DHER34      010DANAHER CORPDRN          R$  000000002244000000000224400000000022440000000002244000000000224400000000000000000000000000000001000000000000001800000000000040392000000000000000009999123100000010000000000000BRDHERBDR004120
012020043002DIRR3       010DIRECIONAL  ON      NM   R$  000000000093200000000009320000000000863000000000088300000000008800000000000879000000000088005411000000000002134600000000001885256400000000000000009999123100000010000000000000BRDIRRACNOR0112
012020043002DISB34      010WALT DISNEY DRN          R$  000000006024000000000602400000000058700000000005893800000000591200000000055000000000005960100010000000000000002480000000000146168220000000000000009999123100000010000000000000BRDISBBDR006114
012020043002DIVO11      010IT NOW IDIV CI           R$  000000000501500000000050670000000004950000000000499000000000049850000000004955000000000498500183000000000000193910000000000967762990000000000000009999123100000010000000000000BRDIVOCTF002100
012020043002DMMO3       010DOMMO       ON           R$  000000000012700000000001750000000000124000000000015500000000001500000000000150000000000015418265000000000040425400000000006286319300000000000000009999123100000010000000000000BRDMMOACNOR0102
012020043002DOHL4       010DOHLER      PN           R$  000000000060600000000006060000000000550000000000056100000000005850000000000530000000000059900010000000000000002600000000000001460500000000000000009999123100000010000000000000BRDOHLACNPR9060
012020043002DTCY3       010DTCOM-DIRECTON           R$  000000000055000000000005500000000000550000000000055000000000005500000000000500000000000055000001000000000000000100000000000000055000000000000000009999123100000010000000000000BRDTCYACNOR5109
012020043002DTEX3       010DURATEX     ON      NM   R$  000000000103300000000010640000000000971000000000099400000000009740000000000974000000000098507634000000000003463000000000003443349700000000000000009999123100000010000000000000BRDTEXACNOR3128
012020043002DUKB34      010DUKE ENERGY DRN          R$  000000004655700000000465570000000046557000000004655700000000465570000000000000000000000000000001000000000000000400000000000018622800000000000000009999123100000010000000000000BRDUKBBDR008114
012020043002E1CL34      010ECOLAB INC  DRN          R$  000000002643300000000264330000000026433000000002643300000000264330000000000000000000000000000001000000000000001380000000000036477540000000000000009999123100000010000000000000BRE1CLBDR002101
012020043002E1IX34      010EDISON INTERDRN          R$  000000001604000000000160400000000016040000000001604000000000160400000000000000000000000000000001000000000000000030000000000000481200000000000000009999123100000010000000000000BRE1IXBDR004102
012020043002E1OG34      010EOG RESOURCEDRN          R$  000000001296000000000129600000000012960000000001296000000000129600000000000000000000000000000001000000000000010200000000000132192000000000000000009999123100000010000000000000BRE1OGBDR007102
012020043002E1XC34      010EXELON CORP DRN          R$  000000002028000000000202800000000020280000000002028000000000202800000000000000000000000000000001000000000000000600000000000012168000000000000000009999123100000010000000000000BRE1XCBDR007101
012020043002EALT3       010ACO ALTONA  ON           R$  000000000101000000000010780000000001010000000000105400000000010780000000001012000000000119000004000000000000000500000000000000527400000000000000009999123100000010000000000000BREALTACNOR4132
012020043002EALT4       010ACO ALTONA  PN           R$  000000000033900000000003440000000000331000000000033600000000003310000000000331000000000033300175000000000000150400000000000050646800000000000000009999123100000010000000000000BREALTACNPR1132
012020043002EBAY34      010EBAY        DRN          R$  000000001063500000000106350000000010635000000001063500000000106350000000000000000000001125000001000000000000000600000000000006381000000000000000009999123100000010000000000000BREBAYBDR009106
012020043002ECOO11      010ISHARES ECOOCI           R$  000000000845700000000084750000000008437000000000845900000000084700000000008470000000000860000005000000000000000660000000000005583320000000000000009999123100000010000000000000BRECOOCTF008100
012020043002ECOR3       010ECORODOVIAS ON      NM   R$  000000000109500000000011100000000001036000000000106000000000010490000000001049000000000105014706000000000004887900000000005182695600000000000000009999123100000010000000000000BRECORACNOR8116
012020043002EGIE3       010ENGIE BRASILON      NM   R$  000000000396900000000040200000000003863000000000390500000000039120000000003912000000000391512037000000000002922800000000011414351300000000000000009999123100000010000000000000BREGIEACNOR9112
012020043002ELCI34      010ESTEE LAUDERDRN          R$  000000004800000000000480000000000048000000000004800000000000480000000000000000000000000000000001000000000000000100000000000004800000000000000000009999123100000010000000000000BRELCIBDR007103
012020043002ELEK3       010ELEKEIROZ   ON           R$  000000000173200000000017320000000001732000000000173200000000017320000000001740000000000179400001000000000000000500000000000000866000000000000000009999123100000010000000000000BRELEKACNOR5124
012020043002ELEK4       010ELEKEIROZ   PN           R$  000000000195000000000020500000000001905000000000197900000000020290000000001830000000000203000023000000000000008400000000000016625500000000000000009999123100000010000000000000BRELEKACNPR2125
012020043002ELET3       010ELETROBRAS  ON      N1   R$  000000000242100000000024510000000002356000000000241600000000024250000000002425000000000243518118000000000005607900000000013550061100000000000000009999123100000010000000000000BRELETACNOR6154
012020043002ELET6       010ELETROBRAS  PNB     N1   R$  000000000266800000000027840000000002608000000000272300000000027840000000002765000000000278415430000000000004292500000000011691507300000000000000009999123100000010000000000000BRELETACNPB7071
012020043002EMAE4       010EMAE        PN  ED       R$  000000000296800000000029890000000002821000000000296400000000029800000000002828000000000298000022000000000000003300000000000009782000000000000000009999123100000010000000000000BREMAEACNPR1114
012020043002EMBR3       010EMBRAER     ON      NM   R$  000000000086600000000008750000000000832000000000085800000000008650000000000864000000000086532991000000000024467600000000021005745600000000000000009999123100000010000000000000BREMBRACNOR4189
012020043002ENAT3       010ENAUTA PART ON      NM   R$  000000000092900000000009520000000000902000000000091800000000009130000000000913000000000092205326000000000001528800000000001404637200000000000000009999123100000010000000000000BRENATACNOR0101
012020043002ENBR3       010ENERGIAS BR ON      NM   R$  000000000167700000000017190000000001662000000000169300000000017000000000001700000000000170115339000000000007480700000000012668027000000000000000009999123100000010000000000000BRENBRACNOR2129
012020043002ENEV3       010ENEVA       ON      NM   R$  000000000359700000000036660000000003428000000000357300000000035980000000003596000000000359912547000000000003670600000000013115351500000000000000009999123100000010000000000000BRENEVACNOR8104
012020043002ENGI3       010ENERGISA    ON      N2   R$  000000000122400000000012240000000001180000000000119700000000011800000000001175000000000121200050000000000000006200000000000007427000000000000000009999123100000010000000000000BRENGIACNOR0137
012020043002ENGI4       010ENERGISA    PN      N2   R$  000000000086000000000008600000000000821000000000083700000000008480000000000820000000000084800095000000000000013700000000000011467900000000000000009999123100000010000000000000BRENGIACNPR7133
012020043002ENGI11      010ENERGISA    UNT     N2   R$  000000000460000000000046770000000004370000000000441000000000043700000000004370000000000440018766000000000014592400000000064365192800000000000000009999123100000010000000000000BRENGICDAM16127
012020043002ENMT3       010ENERGISA MT ON           R$  000000000261000000000028100000000002600000000000267100000000028000000000002551000000000280000058000000000000022800000000000060904800000000000000009999123100000010000000000000BRENMTACNOR5111
012020043002ENMT4       010ENERGISA MT PN           R$  000000000261100000000028000000000002600000000000266400000000027490000000002521000000000275000048000000000000020300000000000054091600000000000000009999123100000010000000000000BRENMTACNPR2114
012020043002EQIX34      010EQUINIX INC DRN          R$  000000007365200000000736520000000073401000000007343600000000734010000000072800000000000000000002000000000000000700000000000051405800000000000000009999123100000010000000000000BREQIXBDR002104
012020043002EQPA3       010EQTL PARA   ON           R$  000000000030700000000003090000000000295000000000030300000000003040000000000302000000000030500058000000000000015500000000000004709500000000000000009999123100000010000000000000BREQPAACNOR1100
012020043002EQTL3       010EQUATORIAL  ON      NM   R$  000000000187800000000019020000000001801000000000182800000000018330000000001833000000000183639865000000000013842900000000025310089200000000000000009999123100000010000000000000BREQTLACNOR0125
012020043002EUCA3       010EUCATEX     ON      N1   R$  000000000142100000000015000000000001397000000000146900000000014600000000001430000000000150000035000000000000005700000000000008375000000000000000009999123100000010000000000000BREUCAACNOR1151
012020043002EUCA4       010EUCATEX     PN      N1   R$  000000000048000000000004800000000000461000000000047200000000004800000000000461000000000048000182000000000000058500000000000027634800000000000000009999123100000010000000000000BREUCAACNPR8038
012020043002EVEN3       010EVEN        ON      NM   R$  000000000070400000000007180000000000674000000000068700000000006740000000000674000000000067605268000000000002646900000000001820134600000000000000009999123100000010000000000000BREVENACNOR8111
012020043002EXGR34      010EXPEDIA GROUDRN          R$  000000001940000000000194000000000018980000000001928800000000189800000000018697000000000000000005000000000000000680000000000013116040000000000000009999123100000010000000000000BREXGRBDR004103
012020043002EXXO34      010EXXON MOBIL DRN          R$  000000000640100000000064010000000006401000000000640100000000064010000000005500000000000739000002000000000000008680000000000055560680000000000000009999123100000010000000000000BREXXOBDR006138
012020043002EZTC3       010EZTEC       ON  ED  NM   R$  000000000317000000000032140000000002987000000000304900000000030210000000003021000000000302212812000000000003014000000000009192561200000000000000009999123100000010000000000000BREZTCACNOR0114
012020043002F1IS34      010FISERV INC  DRN          R$  000000002812900000000281290000000028129000000002812900000000281290000000000000000000000000000001000000000000000500000000000014064500000000000000009999123100000010000000000000BRF1ISBDR003100
012020043002F1NI34      010FIDELITY NATDRN          R$  000000001800000000000180000000000017942000000001794500000000179500000000000000000000000000000005000000000000002530000000000045401820000000000000009999123100000010000000000000BRF1NIBDR004101
012020043002F1TN34      010FORTINET INCDRN          R$  000000002937000000000293700000000029370000000002937000000000293700000000000000000000000000000001000000000000000030000000000000881100000000000000009999123100000010000000000000BRF1TNBDR001100
012020043002FBOK34      010FACEBOOK    DRN          R$  000000005600000000000563150000000055000000000005577300000000553000000000055330000000000000000015000000000000005440000000000303405650000000000000009999123100000010000000000000BRFBOKBDR006100
012020043002FDXB34      010FEDEX CORP  DRN          R$  000000006937500000000693750000000069375000000006937500000000693750000000000000000000000000000001000000000000000100000000000006937500000000000000009999123100000010000000000000BRFDXBBDR002126
012020043002FESA4       010FERBASA     PN      N1   R$  000000000170000000000017180000000001665000000000169400000000016850000000001680000000000168500784000000000000189800000000000321709400000000000000009999123100000010000000000000BRFESAACNPR5066
012020043002FIND11      010IT NOW IFNC CI           R$  000000000818500000000082400000000008112000000000817500000000081320000000008132000000000832000010000000000000000250000000000002043910000000000000009999123100000010000000000000BRFINDCTF007100
012020043002FLRY3       010FLEURY      ON      NM   R$  000000000230000000000023450000000002248000000000228000000000022800000000002280000000000228516847000000000003809800000000008686871000000000000000009999123100000010000000000000BRFLRYACNOR5127
012020043002FNAM11      010FINAM       CI *         R$  000000000001400000000000140000000000013000000000001300000000000140000000000013000000000001400113000000000015482000000000000000207979000000000000009999123100010000000000000000BRFNAMCTF013002
012020043002FNOR11      010FINOR       CI *         R$  000000000001900000000000200000000000018000000000001800000000000200000000000019000000000002000209000000000097094000000000000001842342000000000000009999123100010000000000000000BRFNORCTF013002
012020043002FRAS3       010FRAS-LE     ON      N1   R$  000000000041000000000004160000000000396000000000040700000000004050000000000401000000000040500243000000000000089400000000000036391400000000000000009999123100000010000000000000BRFRASACNOR0149
012020043002FSRF11      010FISET FL REFCI           R$  000000000002200000000000230000000000022000000000002200000000000230000000000022000000000002300021000000000000092000000000000002101000000000000000009999123100000010000000000000BRFSRFCTF010002
012020043002FSTU11      010FISET TUR   CI           R$  000000000003500000000000370000000000035000000000003600000000000370000000000035000000000003800003000000000000003000000000000000109000000000000000009999123100000010000000000000BRFSTUCTF015002
012020043002G1WW34      010WW GRAINGER DRN          R$  000000002989200000000298920000000029892000000002989200000000298920000000000000000000000000000001000000000000001680000000000050218560000000000000009999123100000010000000000000BRG1WWBDR005101
012020043002GBIO33      010BIOTOSCANA  DR3          R$  000000000098700000000009950000000000979000000000098700000000009950000000000983000000000099500541000000000000093700000000000092568200000000000000009999123100000010000000000000BRGBIOBDR008100
012020043002GDBR34      010GEN DYNAMICSDRN          R$  000000007249900000000724990000000072499000000007249900000000724990000000000000000000000000000001000000000000000200000000000014499800000000000000009999123100000010000000000000BRGDBRBDR002119
012020043002GEOO34      010GE          DRN          R$  000000000364400000000037010000000003644000000000366300000000037010000000000000000000000000000002000000000000011530000000000042239330000000000000009999123100000010000000000000BRGEOOBDR000139
012020043002GEPA4       010GER PARANAP PN           R$  000000000436000000000043600000000004350000000000435600000000043500000000004350000000000439500005000000000000000500000000000002178100000000000000009999123100000010000000000000BRGEPAACNPR9152
012020043002GFSA3       010GAFISA      ON      NM   R$  000000000040000000000004120000000000390000000000039800000000003900000000000390000000000039504529000000000002889500000000001150050900000000000000009999123100000010000000000000BRGFSAACNOR3117
012020043002GGBR3       010GERDAU      ON      N1   R$  000000000105800000000010750000000001020000000000104700000000010750000000001045000000000107500354000000000000139900000000000146551500000000000000009999123100000010000000000000BRGGBRACNOR1173
012020043002GGBR4       010GERDAU      PN      N1   R$  000000000121200000000012120000000001162000000000118100000000011740000000001174000000000117524569000000000015066900000000017797726100000000000000009999123100000010000000000000BRGGBRACNPR8173
012020043002GILD34      010GILEAD      DRN          R$  000000002268100000000231000000000022230000000002273200000000225600000000021200000000002388700023000000000000001840000000000041827500000000000000009999123100000010000000000000BRGILDBDR000116
012020043002GMCO34      010GENERAL MOT DRN          R$  000000001235300000000123530000000012353000000001235300000000123530000000010000000000000000000001000000000000012800000000000158118400000000000000009999123100000010000000000000BRGMCOBDR008115
012020043002GNDI3       010INTERMEDICA ON      NM   R$  000000000559800000000056950000000005451000000000552200000000054810000000005481000000000548311484000000000002946400000000016270353700000000000000009999123100000010000000000000BRGNDIACNOR2102
012020043002GOAU3       010GERDAU MET  ON      N1   R$  000000000049700000000005000000000000478000000000048900000000004860000000000485000000000048800377000000000000174900000000000085556900000000000000009999123100000010000000000000BRGOAUACNOR1250
012020043002GOAU4       010GERDAU MET  PN      N1   R$  000000000053000000000005370000000000512000000000052000000000005150000000000515000000000051625620000000000020218600000000010518655600000000000000009999123100000010000000000000BRGOAUACNPR8251
012020043002GOGL34      010ALPHABET    DRN A        R$  000000002859000000000297450000000028500000000002904600000000291900000000029000000000003160000064000000000000019750000000000573672500000000000000009999123100000010000000000000BRGOGLBDR001100
012020043002GOGL35      010ALPHABET    DRN C        R$  000000002909600000000291460000000028800000000002909000000000291460000000000000000000000000000006000000000000006760000000000196653000000000000000009999123100000010000000000000BRGOGLBDR019100
012020043002GOLL4       010GOL         PN      N2   R$  000000000128700000000013100000000001223000000000126500000000012400000000001239000000000124026081000000000012438800000000015741588300000000000000009999123100000010000000000000BRGOLLACNPR4125
012020043002GOVE11      010IT NOW IGCT CI           R$  000000000358700000000035870000000003520000000000353600000000035200000000003520000000000385000003000000000000000080000000000000282940000000000000009999123100000010000000000000BRGOVECTF004100
012020043002GPIV33      010GP INVEST   DR3          R$  000000000039900000000004050000000000363000000000037900000000003870000000000380000000000038700228000000000000077700000000000029484200000000000000009999123100000010000000000000BRGPIVBDR003104
012020043002GPRK34      010GEOPARK LTD DRN          R$  000000000524700000000052580000000005247000000000525100000000052580000000000000000000000000000004000000000000000600000000000003150950000000000000009999123100000010000000000000BRGPRKBDR007103
012020043002GRND3       010GRENDENE    ON      NM   R$  000000000074600000000007520000000000697000000000070400000000006970000000000697000000000069816348000000000007837000000000005524208100000000000000009999123100000010000000000000BRGRNDACNOR3157
012020043002GSGI34      010GOLDMANSACHSDRN          R$  000000001002000000000102000000000010020000000001019200000000102000000000000100000000000000000002000000000000000730000000000007440600000000000000009999123100000010000000000000BRGSGIBDR008138
012020043002GUAR3       010GUARARAPES  ON           R$  000000000127400000000013030000000001216000000000125500000000012750000000001270000000000127508379000000000002581100000000003240020000000000000000009999123100000010000000000000BRGUARACNOR4165
012020043002HAGA4       010HAGA S/A    PN           R$  000000000019000000000001950000000000188000000000018900000000001900000000000190000000000019400031000000000000032800000000000006229000000000000000009999123100000010000000000000BRHAGAACNPR4103
012020043002HAPV3       010HAPVIDA     ON  ED  NM   R$  000000000533900000000054400000000005218000000000530300000000052440000000005240000000000524411616000000000002478500000000013144120900000000000000009999123100000010000000000000BRHAPVACNOR4105
012020043002HBOR3       010HELBOR      ON      NM   R$  000000000018800000000001950000000000182000000000018700000000001860000000000186000000000018706895000000000014242100000000002664672600000000000000009999123100000010000000000000BRHBORACNOR3113
012020043002HETA4       010HERCULES    PN           R$  000000000045000000000005000000000000450000000000047600000000004600000000000458000000000050000058000000000000030900000000000014736800000000000000009999123100000010000000000000BRHETAACNPR9136
012020043002HGTX3       010CIA HERING  ON      NM   R$  000000000151100000000015300000000001428000000000148200000000014960000000001496000000000150015799000000000004519800000000006702790100000000000000009999123100000010000000000000BRHGTXACNOR9150
012020043002HOME34      010HOME DEPOT  DRN          R$  000000006033400000000603340000000060061000000006009600000000602000000000000000000000000000000003000000000000000800000000000048077490000000000000009999123100000010000000000000BRHOMEBDR002132
012020043002HONB34      010HONEYWELL   DRN          R$  000000007757400000000775980000000077574000000007758800000000775980000000000000000000000000000002000000000000001200000000000093105600000000000000009999123100000010000000000000BRHONBBDR006125
012020043002HOND34      010HONDA MO    DRN          R$  000000001319700000000131970000000013197000000001319700000000131970000000000000000000000000000001000000000000002700000000000035631900000000000000009999123100000010000000000000BRHONDBDR002102
012020043002HYPE3       010HYPERA      ON      NM   R$  000000000296100000000030000000000002861000000000292100000000029080000000002904000000000290814862000000000003710100000000010840513000000000000000009999123100000010000000000000BRHYPEACNOR0121
012020043002I1NF34      010IHS MARKIT LDRN ED       R$  000000001836100000000183610000000018361000000001836100000000183610000000000000000000000000000001000000000000002870000000000052696070000000000000009999123100000010000000000000BRI1NFBDR007102
012020043002IDNT3       010IDEIASNET   ON           R$  000000000028800000000002880000000000268000000000027300000000002730000000000272000000000027500155000000000000046800000000000012805200000000000000009999123100000010000000000000BRIDNTACNOR5113
012020043002IDVL3       010INDUSVAL    ON      N2   R$  000000000017900000000001800000000000176000000000017700000000001760000000000176000000000017700041000000000000017500000000000003108800000000000000009999123100000010000000000000BRIDVLACNOR5130
012020043002IDVL4       010INDUSVAL    PN      N2   R$  000000000026400000000002640000000000252000000000026200000000002570000000000256000000000025700014000000000000013200000000000003460600000000000000009999123100000010000000000000BRIDVLACNPR2130
012020043002IGTA3       010IGUATEMI    ON      NM   R$  000000000350000000000035150000000003292000000000333800000000032920000000003292000000000330014988000000000002929100000000009779902700000000000000009999123100000010000000000000BRIGTAACNOR5123
012020043002INGG34      010ING GROEP   DRN          R$  000000000297500000000029750000000002975000000000297500000000029750000000000000000000000000000001000000000000032500000000000096687500000000000000009999123100000010000000000000BRINGGBDR009100
012020043002INTU34      010INTUIT INC  DRN          R$  000000003735000000000373500000000037350000000003735000000000373500000000000000000000000000000001000000000000000300000000000011205000000000000000009999123100000010000000000000BRINTUBDR003104
012020043002IRBR3       010IRBBRASIL REON      NM   R$  000000000100000000000010650000000000985000000000102000000000010220000000001022000000000102542440000000000032121100000000032790299200000000000000009999123100000010000000000000BRIRBRACNOR4106
012020043002ISUS11      010IT NOW ISE  CI           R$  000000000309600000000030960000000003087000000000309300000000030940000000002975000000000326900005000000000000000180000000000000556880000000000000009999123100000010000000000000BRISUSCTF003100
012020043002ITLC34      010INTEL       DRN          R$  000000003275400000000329980000000032754000000003288000000000328400000000000000000000000000000003000000000000003880000000000127576000000000000000009999123100000010000000000000BRITLCBDR005137
012020043002ITSA3       010ITAUSA      ON      N1   R$  000000000110500000000011050000000001055000000000106800000000010640000000001064000000000106501207000000000000325500000000000347940400000000000000009999123100000010000000000000BRITSAACNOR0398
012020043002ITSA4       010ITAUSA      PN      N1   R$  000000000089400000000009130000000000884000000000090000000000009000000000000900000000000090138910000000000030937200000000027852163700000000000000009999123100000010000000000000BRITSAACNPR7398
012020043002ITUB3       010ITAUUNIBANCOON      N1   R$  000000000221700000000022410000000002195000000000221400000000022000000000002200000000000221802814000000000000952300000000002108552100000000000000009999123100000010000000000000BRITUBACNOR4267
012020043002ITUB4       010ITAUUNIBANCOPN      N1   R$  000000000225900000000023330000000002246000000000228900000000022770000000002277000000000227971010000000000046293100000000105990943500000000000000009999123100000010000000000000BRITUBACNPR1267
012020043002IVVB11      010ISHARE SP500CI           R$  000000001695000000000171990000000016900000000001702100000000170500000000017050000000001718001488000000000000696240000000011850999310000000000000009999123100000010000000000000BRIVVBCTF001100
012020043002JBDU3       010J B DUARTE  ON           R$  000000000020400000000002040000000000186000000000019400000000001880000000000187000000000019800021000000000000004700000000000000912900000000000000009999123100000010000000000000BRJBDUACNOR6142
012020043002JBDU4       010J B DUARTE  PN           R$  000000000012800000000001290000000000123000000000012500000000001230000000000123000000000012700042000000000000027500000000000003453700000000000000009999123100000010000000000000BRJBDUACNPR3142
012020043002JBSS3       010JBS         ON  ED  NM   R$  000000000238000000000024070000000002315000000000237000000000023840000000002380000000000238439700000000000018128500000000042980575700000000000000009999123100000010000000000000BRJBSSACNOR8115
012020043002JCPC34      010JC PENNEY   DRN          R$  000000000014400000000001440000000000138000000000013800000000001380000000000120000000000025000007000000000000001960000000000000271740000000000000009999123100000010000000000000BRJCPCBDR000100
012020043002JHSF3       010JHSF PART   ON      NM   R$  000000000043000000000004430000000000416000000000042700000000004160000000000416000000000042007827000000000006275800000000002683418600000000000000009999123100000010000000000000BRJHSFACNOR2115
012020043002JNJB34      010JOHNSON     DRN          R$  000000007970000000000819200000000079700000000008169400000000815420000000059769000000000000000014000000000000003020000000000246717620000000000000009999123100000010000000000000BRJNJBBDR002133
012020043002JPMC34      010JPMORGAN    DRN          R$  000000002595000000000262200000000025950000000002616100000000262010000000026200000000000000000010000000000000003630000000000094967630000000000000009999123100000010000000000000BRJPMCBDR009133
012020043002JPSA3       010JEREISSATI  ON           R$  000000000229900000000023020000000002170000000000222400000000022450000000002210000000000224501369000000000000417000000000000927514900000000000000009999123100000010000000000000BRJPSAACNOR6102
012020043002JSLG3       010JSL         ON      NM   R$  000000000194500000000020200000000001860000000000192100000000018800000000001880000000000190004023000000000000959100000000001843208700000000000000009999123100000010000000000000BRJSLGACNOR2113
012020043002KEPL3       010KEPLER WEBERON           R$  000000000261900000000026980000000002572000000000263500000000026980000000002580000000000269800174000000000000036500000000000096185400000000000000009999123100000010000000000000BRKEPLACNOR1049
012020043002KHCB34      010KRAFT HEINZ DRN          R$  000000001656800000000165680000000016568000000001656800000000165680000000015000000000000000000001000000000000011400000000000188875200000000000000009999123100000010000000000000BRKHCBBDR007119
012020043002KLBN3       010KLABIN S/A  ON      N2   R$  000000000036200000000003750000000000361000000000036800000000003710000000000370000000000037101351000000000000320300000000000118029100000000000000009999123100000010000000000000BRKLBNACNOR2156
012020043002KLBN4       010KLABIN S/A  PN      N2   R$  000000000034800000000003620000000000342000000000035500000000003530000000000352000000000035305133000000000002579300000000000916537100000000000000009999123100000010000000000000BRKLBNACNPR9156
012020043002KLBN11      010KLABIN S/A  UNT     N2   R$  000000000174000000000018270000000001738000000000179000000000017810000000001781000000000178324787000000000008890200000000015916485100000000000000009999123100000010000000000000BRKLBNCDAM18128
012020043002KMIC34      010KINDER MORGADRN ED       R$  000000000831700000000083170000000008317000000000831700000000083170000000000000000000000000000001000000000000000100000000000000831700000000000000009999123100000010000000000000BRKMICBDR002104
012020043002L1RC34      010LAM RESEARCHDRN          R$  000000003516000000000351600000000035160000000003516000000000351600000000000000000000000000000001000000000000000400000000000014064000000000000000009999123100000010000000000000BRL1RCBDR000101
012020043002LAME3       010LOJAS AMERICON      N1   R$  000000000204900000000020710000000001979000000000202200000000020330000000002015000000000203314251000000000002733500000000005527979100000000000000009999123100000010000000000000BRLAMEACNOR9202
012020043002LAME4       010LOJAS AMERICPN      N1   R$  000000000253400000000025860000000002484000000000251300000000024880000000002483000000000248827910000000000009916800000000024926207000000000000000009999123100000010000000000000BRLAMEACNPR6202
012020043002LCAM3       010LOCAMERICA  ON      NM   R$  000000000138400000000014160000000001300000000000134500000000013280000000001328000000000133311040000000000003613800000000004860701500000000000000009999123100000010000000000000BRLCAMACNOR3132
012020043002LEVE3       010METAL LEVE  ON      NM   R$  000000000186000000000018870000000001759000000000179400000000017590000000001758000000000178002529000000000000571100000000001024665400000000000000009999123100000010000000000000BRLEVEACNOR2187
012020043002LIGT3       010LIGHT S/A   ON      NM   R$  000000000117100000000011810000000001126000000000114800000000011360000000001136000000000113710725000000000005026100000000005774251500000000000000009999123100000010000000000000BRLIGTACNOR2120
012020043002LILY34      010LILLY       DRN          R$  000000004271700000000427170000000042717000000004271700000000427170000000000000000000000000000001000000000000000100000000000004271700000000000000009999123100000010000000000000BRLILYBDR006132
012020043002LINX3       010LINX        ON      NM   R$  000000000228000000000023280000000002156000000000218800000000021710000000002171000000000217505640000000000001584900000000003469024300000000000000009999123100000010000000000000BRLINXACNOR0117
012020043002LIPR3       010ELETROPAR   ON           R$  000000000772000000000077200000000007720000000000772000000000077200000000007608000000000950000002000000000000000200000000000001544000000000000000009999123100000010000000000000BRLIPRACNOR7117
012020043002LLIS3       010LE LIS BLANCON      NM   R$  000000000064900000000006490000000000609000000000062400000000006090000000000608000000000060900557000000000000196900000000000122981200000000000000009999123100000010000000000000BRLLISACNOR4113
012020043002LMTB34      010LOCKHEED    DRN          R$  000000021124300000002112430000000211243000000021124300000002112430000000000000000000000000000001000000000000000100000000000021124300000000000000009999123100000010000000000000BRLMTBBDR009132
012020043002LOGG3       010LOG COM PROPON      NM   R$  000000000243000000000024500000000002242000000000231000000000022880000000002285000000000231502930000000000000735300000000001698781100000000000000009999123100000010000000000000BRLOGGACNOR7102
012020043002LOGN3       010LOG-IN      ON      NM   R$  000000000138300000000014490000000001336000000000137900000000013750000000001375000000000138004972000000000001779400000000002455344900000000000000009999123100000010000000000000BRLOGNACNOR3104
012020043002LOWC34      010LOWES COMPA DRN ED       R$  000000002874000000000287400000000028740000000002874000000000287400000000000000000000000000000001000000000000001500000000000043110000000000000000009999123100000010000000000000BRLOWCBDR007104
012020043002LPSB3       010LOPES BRASILON      NM   R$  000000000040600000000004200000000000381000000000039600000000003900000000000388000000000039003120000000000001085400000000000430066900000000000000009999123100000010000000000000BRLPSBACNOR0111
012020043002LREN3       010LOJAS RENNERON  ED  NM   R$  000000000400000000000040370000000003781000000000386000000000038390000000003839000000000384837226000000000010160800000000039230391100000000000000009999123100000010000000000000BRLRENACNOR1202
012020043002LUXM4       010TREVISA     PN           R$  000000000300000000000030000000000002800000000000281000000000030000000000002750000000000340000013000000000000009100000000000025580000000000000000009999123100000010000000000000BRLUXMACNPR4045
012020043002LWSA3       010LOCAWEB     ON      NM   R$  000000000235200000000023850000000002253000000000230300000000022760000000002276000000000232205159000000000001364600000000003143118600000000000000009999123100000010000000000000BRLWSAACNOR8100
012020043002M1NS34      010MONSTER BEVEDRN          R$  000000003359500000000335950000000033595000000003359500000000335950000000000000000000000000000001000000000000001270000000000042665650000000000000009999123100000010000000000000BRM1NSBDR004100
012020043002MACY34      010MACY S      DRN          R$  000000000330000000000033000000000003100000000000314700000000031080000000003108000000000000000006000000000000000510000000000001605280000000000000009999123100000010000000000000BRMACYBDR000116
012020043002MATB11      010IT NOW IMAT CI           R$  000000000287200000000028720000000002784000000000278500000000027970000000002700000000000283300006000000000000001070000000000002980420000000000000009999123100000010000000000000BRMATBCTF001100
012020043002MCDC34      010MCDONALDS   DRN          R$  000000002517000000000256670000000025170000000002555000000000255000000000013000000000000000000003000000000000002000000000000051101800000000000000009999123100000010000000000000BRMCDCBDR000138
012020043002MCOR34      010MOODYS CORP DRN          R$  000000003333400000000333340000000033334000000003333400000000333340000000000000000000000000000001000000000000000700000000000023333800000000000000009999123100000010000000000000BRMCORBDR005103
012020043002MDIA3       010M.DIASBRANCOON      NM   R$  000000000333500000000033600000000003161000000000321900000000032000000000003199000000000321207900000000000001519600000000004892143800000000000000009999123100000010000000000000BRMDIAACNOR7118
012020043002MDLZ34      010MONDELEZ INTDRN          R$  000000001379600000000137960000000013796000000001379600000000137960000000000000000000000000000001000000000000000800000000000011036800000000000000009999123100000010000000000000BRMDLZBDR002119
012020043002MDNE3       010MOURA DUBEUXON      NM   R$  000000000068300000000007190000000000653000000000067200000000006680000000000667000000000066801648000000000000570400000000000383811200000000000000009999123100000010000000000000BRMDNEACNOR9100
012020043002MDTC34      010MEDTRONIC   DRN          R$  000000002670600000000267060000000026706000000002670600000000267060000000000000000000000000000001000000000000002200000000000058753200000000000000009999123100000010000000000000BRMDTCBDR004116
012020043002MEAL3       010IMC S/A     ON      NM   R$  000000000032500000000003570000000000317000000000033200000000003250000000000325000000000032614080000000000010805300000000003590182700000000000000009999123100000010000000000000BRMEALACNOR9105
012020043002MELI34      010MERCADOLIBREDRN          R$  000000003231000000000323700000000031800000000003209000000000318000000000031300000000003330000039000000000000026470000000000849429800000000000000009999123100000010000000000000BRMELIBDR006100
012020043002METB34      010METLIFE INC DRN          R$  000000001972000000000197200000000019680000000001970000000000196800000000000000000000000000000002000000000000000600000000000011820000000000000000009999123100000010000000000000BRMETBBDR004119
012020043002MGEL4       010MANGELS INDLPN           R$  000000000058900000000005930000000000570000000000058000000000005930000000000575000000000059300028000000000000015500000000000008991200000000000000009999123100000010000000000000BRMGELACNPR3147
012020043002MGLU3       010MAGAZ LUIZA ON      NM   R$  000000000498600000000051550000000004911000000000505400000000049700000000004970000000000498538333000000000011691900000000059097705600000000000000009999123100000010000000000000BRMGLUACNOR2115
012020043002MILS3       010MILLS       ON      NM   R$  000000000050100000000005150000000000466000000000047900000000004700000000000470000000000047305137000000000002542300000000001217992000000000000000009999123100000010000000000000BRMILSACNOR2112
012020043002MMMC34      0103M          DRN          R$  000000002105400000000210540000000020874000000002097600000000208740000000020500000000000000000002000000000000001400000000000029367600000000000000009999123100000010000000000000BRMMMCBDR000132
012020043002MNPR3       010MINUPAR     ON           R$  000000000044300000000004430000000000420000000000042900000000004310000000000420000000000043200013000000000000002100000000000000901000000000000000009999123100000010000000000000BRMNPRACNOR5122
012020043002MOAR3       010MONT ARANHA ON           R$  000000001260500000000126050000000012600000000001260300000000126000000000012106000000001299000006000000000000000600000000000007562100000000000000009999123100000010000000000000BRMOARACNOR5211
012020043002MOOO34      010ALTRIA GROUPDRN          R$  000000002241000000000224100000000022410000000002241000000000224100000000000000000000000000000001000000000000002000000000000044820000000000000000009999123100000010000000000000BRMOOOBDR007103
012020043002MOVI3       010MOVIDA      ON      NM   R$  000000000110500000000011350000000001072000000000109400000000010800000000001079000000000108110647000000000003653900000000003999331100000000000000009999123100000010000000000000BRMOVIACNOR0111
012020043002MRCK34      010MERCK       DRN          R$  000000004341000000000437100000000043200000000004348700000000435040000000000000000000000000000010000000000000002360000000000102630800000000000000009999123100000010000000000000BRMRCKBDR003138
012020043002MRFG3       010MARFRIG     ON      NM   R$  000000000123200000000012840000000001208000000000126600000000012840000000001283000000000128427386000000000015287600000000019356383700000000000000009999123100000010000000000000BRMRFGACNOR0109
012020043002MRSA3B      010MRS LOGIST  ON      MB   R$  000000000431900000000073990000000004319000000000646600000000073990000000004900000000000740000030000000000000003100000000000020047100000000000000009999123100000010000000000000BRMRSAACNOR6119
012020043002MRVE3       010MRV         ON      NM   R$  000000000151000000000015530000000001488000000000151800000000015150000000001515000000000152218239000000000006938800000000010534422500000000000000009999123100000010000000000000BRMRVEACNOR2120
012020043002MSCD34      010MASTERCARD  DRN          R$  000000015200000000001520000000000149702000000015134500000001510000000000000000000000000000000005000000000000000820000000000124103400000000000000009999123100000010000000000000BRMSCDBDR006136
012020043002MSFT34      010MICROSOFT   DRN          R$  000000009700000000000995010000000096000000000009740500000000995010000000099500000000010000000065000000000000007190000000000700348410000000000000009999123100000010000000000000BRMSFTBDR005137
012020043002MTRE3       010MITRE REALTYON      NM   R$  000000000105600000000010710000000001033000000000105900000000010700000000001060000000000107400993000000000000209300000000000221726500000000000000009999123100000010000000000000BRMTREACNOR6100
012020043002MTSA4       010METISA      PN           R$  000000000156000000000016100000000001545000000000156800000000016100000000001545000000000161000019000000000000004900000000000007685100000000000000009999123100000010000000000000BRMTSAACNPR9055
012020043002MULT3       010MULTIPLAN   ON      N2   R$  000000000226800000000022680000000002042000000000209600000000020890000000002085000000000208937820000000000008470500000000017758361400000000000000009999123100000010000000000000BRMULTACNOR5127
012020043002MUTC34      010MICRON TECHNDRN          R$  000000002612600000000261340000000025770000000002609600000000261340000000000000000000000000000005000000000000002080000000000054281520000000000000009999123100000010000000000000BRMUTCBDR008100
012020043002MYPK3       010IOCHP-MAXIONON      NM   R$  000000000130900000000013510000000001271000000000129100000000012710000000001271000000000127807534000000000002728900000000003524677900000000000000009999123100000010000000000000BRMYPKACNOR7148
012020043002N1EM34      010NEWMONT GOLDDRN          R$  000000003382700000000338270000000032500000000003380900000000325000000000032000000000000000000003000000000000007760000000000262360200000000000000009999123100000010000000000000BRN1EMBDR005101
012020043002N1XP34      010NXP SEMICONDDRN          R$  000000002759900000000278310000000027599000000002782100000000278310000000000000000000000000000002000000000000005100000000000141891700000000000000009999123100000010000000000000BRN1XPBDR008101
012020043002NEOE3       010NEOENERGIA  ON      NM   R$  000000000185800000000018800000000001766000000000181700000000018270000000001821000000000182708874000000000002088200000000003795304400000000000000009999123100000010000000000000BRNEOEACNOR3110
012020043002NEXT34      010NEXTERA ENERDRN          R$  000000003184600000000318460000000031846000000003184600000000318460000000000000000000000000000001000000000000001200000000000038215200000000000000009999123100000010000000000000BRNEXTBDR006103
012020043002NFLX34      010NETFLIX     DRN          R$  000000022420000000002280000000000224200000000022709500000002273230000000000000000000000000000007000000000000000170000000000038606300000000000000009999123100000010000000000000BRNFLXBDR000101
012020043002NIKE34      010NIKE        DRN          R$  000000004773000000000477300000000047730000000004773000000000477300000000000000000000000000000001000000000000000600000000000028638000000000000000009999123100000010000000000000BRNIKEBDR006137
012020043002NOCG34      010NORTHROP GRUDRN          R$  000000003603000000000360300000000036030000000003603000000000360300000000000000000000000000000001000000000000000800000000000028824000000000000000009999123100000010000000000000BRNOCGBDR006103
012020043002NORD3       010NORDON MET  ON           R$  000000000035500000000003650000000000355000000000035700000000003650000000000364000000000039000003000000000000000400000000000000143000000000000000009999123100000010000000000000BRNORDACNOR7135
012020043002NTCO3       010GRUPO NATURAON      NM   R$  000000000357000000000036860000000003497000000000356300000000035520000000003550000000000359136106000000000020514000000000073106131300000000000000009999123100000010000000000000BRNTCOACNOR5100
012020043002NVDC34      010NVIDIA CORP DRN          R$  000000004033500000000403350000000039945000000004015400000000402920000000000000000000004120000012000000000000002260000000000090749840000000000000009999123100000010000000000000BRNVDCBDR008104
012020043002ODPV3       010ODONTOPREV  ON      NM   R$  000000000160000000000016090000000001500000000000152400000000015000000000001500000000000151015533000000000004597000000000007009433200000000000000009999123100000010000000000000BRODPVACNOR4174
012020043002OFSA3       010OUROFINO S/AON      NM   R$  000000000263400000000027320000000002606000000000266600000000027000000000002650000000000270000102000000000000017300000000000046123200000000000000009999123100000010000000000000BROFSAACNOR7109
012020043002OMGE3       010OMEGA GER   ON      NM   R$  000000000307600000000030860000000002972000000000300800000000029990000000002999000000000300002515000000000000850100000000002557824100000000000000009999123100000010000000000000BROMGEACNOR0101
012020043002ORCL34      010ORACLE      DRN          R$  000000002893900000000289390000000028939000000002893900000000289390000000000000000000000000000001000000000000001100000000000031832900000000000000009999123100000010000000000000BRORCLBDR007133
012020043002OXYP34      010OCCIDENT PTRDRN          R$  000000000450000000000045000000000004500000000000450000000000045000000000000000000000000000000001000000000000000040000000000000180000000000000000009999123100000010000000000000BROXYPBDR000103
012020043002P1SX34      010PHILLIPS 66 DRN          R$  000000002028000000000202800000000020280000000002028000000000202800000000000000000000000000000001000000000000007300000000000148044000000000000000009999123100000010000000000000BRP1SXBDR000101
012020043002PARD3       010IHPARDINI   ON      NM   R$  000000000207900000000020800000000001945000000000199000000000019450000000001945000000000198104066000000000000722300000000001438090100000000000000009999123100000010000000000000BRPARDACNOR1113
012020043002PATI3       010PANATLANTICAON           R$  000000000205000000000020900000000001970000000000202100000000020800000000001980000000000209700014000000000000003600000000000007276800000000000000009999123100000010000000000000BRPATIACNOR6059
012020043002PCAR3       010P.ACUCAR-CBDON      NM   R$  000000000669900000000067560000000006622000000000665000000000066220000000006622000000000666907020000000000001567300000000010423566100000000000000009999123100000010000000000000BRPCARACNOR3162
012020043002PEAB3       010PAR AL BAHIAON  ED       R$  000000000520000000000052000000000005200000000000520000000000052000000000005010000000000540000004000000000000001200000000000006240000000000000000009999123100000010000000000000BRPEABACNOR3124
012020043002PEPB34      010PEPSICO INC DRN          R$  000000007244800000000725430000000072448000000007249000000000725430000000000000000000000000000002000000000000000900000000000065241200000000000000009999123100000010000000000000BRPEPBBDR005130
012020043002PETR3       010PETROBRAS   ON      N2   R$  000000000187300000000019180000000001843000000000187300000000018650000000001864000000000186531484000000000023209200000000043483687500000000000000009999123100000010000000000000BRPETRACNOR9190
012020043002PETR4       010PETROBRAS   PN      N2   R$  000000000179800000000018420000000001770000000000180500000000018050000000001804000000000180581166000000000080263900000000144922497700000000000000009999123100000010000000000000BRPETRACNPR6196
012020043002PFIN11      010FIP PERFIN  CI           R$  000000000991600000000100000000000009916000000000995300000000099500000000009950000000001000000130000000000000005134000000000051101248000000000000009999123100000010000000000000BRPFINCTF001100
012020043002PFIZ34      010PFIZER      DRN          R$  000000002053700000000208360000000020537000000002066700000000208360000000020720000000000000000002000000000000003720000000000076882020000000000000009999123100000010000000000000BRPFIZBDR006138
012020043002PFRM3       010PROFARMA    ON      NM   R$  000000000047500000000004790000000000447000000000046000000000004590000000000455000000000045900994000000000000288300000000000132767500000000000000009999123100000010000000000000BRPFRMACNOR1112
012020043002PGCO34      010PG          DRN ED       R$  000000006400000000000643200000000064000000000006421800000000643200000000064100000000000000000002000000000000000630000000000040457600000000000000009999123100000010000000000000BRPGCOBDR001138
012020043002PHGN34      010KOPHILIPS   DRN          R$  000000002374300000000237430000000023743000000002374300000000237430000000000000000000000000000001000000000000000600000000000014245800000000000000009999123100000010000000000000BRPHGNBDR002100
012020043002PHMO34      010PHILIP MORRIDRN          R$  000000002043000000000204300000000020429000000002042900000000204290000000000000000000000000000002000000000000003310000000000067623290000000000000009999123100000010000000000000BRPHMOBDR008112
012020043002PIBB11      010IT NOW PIBB CI           R$  000000001374000000000137400000000013400000000001350700000000134620000000013462000000001370000302000000000000082430000000001113431370000000000000009999123100000010000000000000BRPIBBCTF005101
012020043002PINE4       010PINE        PN      N2   R$  000000000028500000000002850000000000275000000000027800000000002780000000000277000000000027800721000000000000543400000000000151165600000000000000009999123100000010000000000000BRPINEACNPR8144
012020043002PLAS3       010PLASCAR PARTON           R$  000000000041900000000004500000000000419000000000042400000000004500000000000423000000000045000002000000000000000600000000000000254500000000000000009999123100000010000000000000BRPLASACNOR2106
012020043002PMAM3       010PARANAPANEMAON      NM   R$  000000000116900000000011690000000001070000000000110200000000011070000000001106000000000111000907000000000000249300000000000274741600000000000000009999123100000010000000000000BRPMAMACNOR3037
012020043002PNCS34      010PNCFNANCIAL DRN          R$  000000002914600000000291460000000029146000000002914600000000291460000000000000000000000000000001000000000000000600000000000017487600000000000000009999123100000010000000000000BRPNCSBDR008104
012020043002PNVL3       010DIMED       ON           R$  000000000237400000000023820000000002322000000000234400000000023400000000002337000000000234000563000000000000129600000000000303908500000000000000009999123100000010000000000000BRPNVLACNOR9196
012020043002PNVL4       010DIMED       PN           R$  000000000181400000000018370000000001813000000000182000000000018250000000001815000000000182500039000000000000009200000000000016752900000000000000009999123100000010000000000000BRPNVLACNPR6196
012020043002POMO3       010MARCOPOLO   ON      N2   R$  000000000028500000000003000000000000280000000000028700000000002800000000000280000000000028100638000000000000229900000000000066062500000000000000009999123100000010000000000000BRPOMOACNOR0087
012020043002POMO4       010MARCOPOLO   PN      N2   R$  000000000029300000000003140000000000286000000000029600000000002860000000000286000000000028809159000000000012211900000000003620495400000000000000009999123100000010000000000000BRPOMOACNPR7087
012020043002POSI3       010POSITIVO TECON      NM   R$  000000000043300000000005150000000000417000000000047500000000004600000000000460000000000046728603000000000021376000000000010173334400000000000000009999123100000010000000000000BRPOSIACNOR9111
012020043002PPLA11      010PPLA        UNT          R$  000000000131300000000013530000000001312000000000131900000000013530000000001301000000000135400014000000000000002300000000000003034600000000000000009999123100000010000000000000BRPPLAUNT007101
012020043002PRIO3       010PETRORIO    ON      NM   R$  000000000215000000000022000000000002041000000000211400000000020450000000002045000000000205012242000000000004123000000000008718679400000000000000009999123100000010000000000000BRPRIOACNOR1102
012020043002PRNR3       010PRINER      ON      NM   R$  000000000080800000000008300000000000801000000000081300000000008100000000000809000000000081000383000000000000149100000000000121304100000000000000009999123100000010000000000000BRPRNRACNOR4105
012020043002PSSA3       010PORTO SEGUROON      NM   R$  000000000456700000000047010000000004522000000000457000000000045290000000004521000000000454002935000000000000616200000000002816366500000000000000009999123100000010000000000000BRPSSAACNOR7141
012020043002PTBL3       010PORTOBELLO  ON      NM   R$  000000000027500000000002930000000000262000000000028000000000002830000000000281000000000028303238000000000002139700000000000599680900000000000000009999123100000010000000000000BRPTBLACNOR8124
012020043002PTNT4       010PETTENATI   PN           R$  000000000040000000000004000000000000360000000000036800000000003660000000000366000000000038000170000000000000098700000000000036407100000000000000009999123100000010000000000000BRPTNTACNPR3044
012020043002PYPL34      010PAYPAL HOLD DRN          R$  000000003297700000000329770000000032977000000003297700000000329770000000000000000000000000000001000000000000000200000000000006595400000000000000009999123100000010000000000000BRPYPLBDR002101
012020043002QCOM34      010QUALCOMM    DRN          R$  000000004236900000000432230000000042369000000004312600000000430000000000042550000000000000000003000000000000001120000000000048302060000000000000009999123100000010000000000000BRQCOMBDR007133
012020043002QUAL3       010QUALICORP   ON      NM   R$  000000000261600000000026630000000002560000000000259400000000025920000000002590000000000259523983000000000005215700000000013534330300000000000000009999123100000010000000000000BRQUALACNOR6112
012020043002RADL3       010RAIADROGASILON      NM   R$  000000001072000000000108290000000010442000000001054300000000104780000000010478000000001050008698000000000002170300000000022882433500000000000000009999123100000010000000000000BRRADLACNOR0135
012020043002RAIL3       010RUMO S.A.   ON      NM   R$  000000000193900000000020110000000001935000000000197400000000019790000000001977000000000197921435000000000009124800000000018020625800000000000000009999123100000010000000000000BRRAILACNOR9101
012020043002RANI3       010IRANI       ON  ED       R$  000000000030800000000003190000000000302000000000030600000000003080000000000302000000000031000056000000000000024600000000000007546600000000000000009999123100000010000000000000BRRANIACNOR5052
012020043002RANI4       010IRANI       PN  ED       R$  000000000058000000000005800000000000540000000000054700000000005400000000000520000000000054000008000000000000001800000000000000986000000000000000009999123100000010000000000000BRRANIACNPR2053
012020043002RAPT3       010RANDON PART ON      N1   R$  000000000083500000000008350000000000748000000000081200000000007900000000000765000000000079000069000000000000024900000000000020228200000000000000009999123100000010000000000000BRRAPTACNOR7152
012020043002RAPT4       010RANDON PART PN      N1   R$  000000000090000000000009240000000000850000000000087500000000008500000000000850000000000085212949000000000005092500000000004456641200000000000000009999123100000010000000000000BRRAPTACNPR4152
012020043002RCSL3       010RECRUSUL    ON           R$  000000000020000000000002000000000000190000000000019100000000001920000000000191000000000019500067000000000000020400000000000003909300000000000000009999123100000010000000000000BRRCSLACNOR4130
012020043002RCSL4       010RECRUSUL    PN           R$  000000000013800000000001410000000000134000000000013700000000001350000000000135000000000013601380000000000000679200000000000093079100000000000000009999123100000010000000000000BRRCSLACNPR1130
012020043002RDNI3       010RNI         ON  ED  NM   R$  000000000072000000000007300000000000686000000000070600000000007000000000000685000000000070000319000000000000062200000000000043964200000000000000009999123100000010000000000000BRRDNIACNOR9113
012020043002RDSA34      010RD SHELL    DRN          R$  000000001826100000000183000000000018220000000001827900000000183000000000000000000000000000000004000000000000000600000000000010967480000000000000009999123100000010000000000000BRRDSABDR009102
012020043002REDE3       010REDE ENERGIAON           R$  000000000100200000000010020000000001002000000000100200000000010020000000000966000000000100400001000000000000000300000000000000300600000000000000009999123100000010000000000000BRREDEACNOR7114
012020043002REGN34      010REGENERON PHDRN          R$  000000005661100000000566110000000056611000000005661100000000566110000000000000000000000000000001000000000000000100000000000005661100000000000000009999123100000010000000000000BRREGNBDR005100
012020043002RENT3       010LOCALIZA    ON      NM   R$  000000000353000000000035730000000003393000000000345700000000034190000000003419000000000342032443000000000007237500000000025020646400000000000000009999123100000010000000000000BRRENTACNOR4177
012020043002RIGG34      010TRANSOCEAN  DRN          R$  000000000060800000000006920000000000594000000000064800000000006720000000000672000000000083600049000000000000022780000000000014780110000000000000009999123100000010000000000000BRRIGGBDR000100
012020043002RIOT34      010RIO TINTO   DRN          R$  000000002546100000000254610000000025461000000002546100000000254610000000000000000000000000000001000000000000000200000000000005092200000000000000009999123100000010000000000000BRRIOTBDR007101
012020043002RLOG3       010COSAN LOG   ON      NM   R$  000000000156900000000015870000000001536000000000154600000000015360000000001536000000000155503625000000000001008500000000001559323300000000000000009999123100000010000000000000BRRLOGACNOR4106
012020043002ROMI3       010INDS ROMI   ON      NM   R$  000000000111100000000011500000000001080000000000111200000000011150000000001115000000000114001467000000000000310700000000000345558300000000000000009999123100000010000000000000BRROMIACNOR8172
012020043002ROST34      010ROSS STORES DRN          R$  000000002565000000000256500000000025650000000002565000000000256500000000000000000000000000000001000000000000000700000000000017955000000000000000009999123100000010000000000000BRROSTBDR006116
012020043002RPAD3       010ALFA HOLDINGON           R$  000000000055500000000005550000000000550000000000055100000000005500000000000502000000000055000002000000000000000300000000000000165500000000000000009999123100000010000000000000BRRPADACNOR1197
