00COTAHIST.2020BOVESPA 20200429                                                                                                                                                                                                                      
012020042902A1GI34      010AGILENT TECHDRN          R$  000000002144000000000214400000000021440000000002144000000000214400000000000000000000000000000001000000000000000030000000000000643200000000000000009999123100000010000000000000BRA1GIBDR003101
012020042902A1MD34      010ADVANCED MICDRN          R$  000000002976100000000297610000000029100000000002921900000000294000000000000000000000003200000004000000000000000910000000000026589610000000000000009999123100000010000000000000BRA1MDBDR002100
012020042902A1PA34      010APACHE CORP DRN ED       R$  000000000631000000000063100000000006285000000000629800000000062850000000000000000000000000000003000000000000000730000000000004598050000000000000009999123100000010000000000000BRA1PABDR001102
012020042902AALL34      010AMERICAN AIRDRN          R$  000000000677000000000067700000000006700000000000672600000000067000000000006200000000000677000003000000000000000160000000000001076200000000000000009999123100000010000000000000BRAALLBDR003115
012020042902AALR3       010ALLIAR      ON  ED  NM   R$  000000000105800000000010680000000001022000000000104500000000010500000000001050000000000105501173000000000000327200000000000342233300000000000000009999123100000010000000000000BRAALRACNOR6102
012020042902AAPL34      010APPLE       DRN          R$  000000001574000000000157400000000015420000000001557400000000155830000000015400000000001558400037000000000000014630000000000227850000000000000000009999123100000010000000000000BRAAPLBDR004132
012020042902ABBV34      010ABBVIE      DRN          R$  000000004512000000000451200000000045120000000004512000000000451200000000000000000000000000000001000000000000000010000000000000451200000000000000009999123100000010000000000000BRABBVBDR001117
012020042902ABCB4       010ABC BRASIL  PN      N2   R$  000000000144000000000014930000000001440000000000147100000000014530000000001453000000000146903896000000000000705100000000001037902800000000000000009999123100000010000000000000BRABCBACNPR4133
012020042902ABEV3       010AMBEV S/A   ON           R$  000000000118200000000011910000000001165000000000117800000000011670000000001167000000000117052876000000000027558700000000032489148100000000000000009999123100000010000000000000BRABEVACNOR1122
012020042902ABTT34      010ABBOTT      DRN          R$  000000001255000000000125500000000012550000000001255000000000125500000000000000000000000000000001000000000000000020000000000000251000000000000000009999123100000010000000000000BRABTTBDR007134
012020042902ADHM3       010ADVANCED-DH ON           R$  000000000025100000000002680000000000251000000000025800000000002580000000000252000000000025900111000000000000045700000000000011827100000000000000009999123100000010000000000000BRADHMACNOR9102
012020042902AFLT3       010AFLUENTE T  ON           R$  000000000070000000000007220000000000692000000000070800000000007220000000000722000000000076500013000000000000001600000000000001133700000000000000009999123100000010000000000000BRAFLTACNOR1114
012020042902AGRO3       010BRASILAGRO  ON      NM   R$  000000000206200000000020940000000002000000000000204600000000020000000000002000000000000203501128000000000000192300000000000393552200000000000000009999123100000010000000000000BRAGROACNOR7109
012020042902ALPA3       010ALPARGATAS  ON      N1   R$  000000000232000000000024100000000002302000000000237600000000023020000000002252000000000237000007000000000000000900000000000002139000000000000000009999123100000010000000000000BRALPAACNOR0229
012020042902ALPA4       010ALPARGATAS  PN      N1   R$  000000000289500000000029570000000002723000000000282400000000027700000000002770000000000277110394000000000003002800000000008482600800000000000000009999123100000010000000000000BRALPAACNPR7229
012020042902ALSO3       010ALIANSCSONAEON      NM   R$  000000000290000000000030150000000002811000000000295000000000030000000000002990000000000301006176000000000001328800000000003920173600000000000000009999123100000010000000000000BRALSOACNOR5100
012020042902ALUP3       010ALUPAR      ON  ED  N2   R$  000000000099000000000010290000000000975000000000099000000000009980000000000990000000000099800315000000000000048800000000000048345700000000000000009999123100000010000000000000BRALUPACNOR8111
012020042902ALUP4       010ALUPAR      PN  ED  N2   R$  000000000069000000000007110000000000657000000000066600000000006600000000000660000000000066700333000000000000064600000000000043066900000000000000009999123100000010000000000000BRALUPACNPR5111
012020042902ALUP11      010ALUPAR      UNT ED  N2   R$  000000000244900000000024490000000002286000000000231600000000023000000000002299000000000230006518000000000000893600000000002069783900000000000000009999123100000010000000000000BRALUPCDAM15111
012020042902AMAR3       010LOJAS MARISAON      NM   R$  000000000065700000000006630000000000606000000000063500000000006260000000000626000000000062715767000000000009515100000000006046584200000000000000009999123100000010000000000000BRAMARACNOR4112
012020042902AMGN34      010AMGEN       DRN          R$  000000012722400000001272240000000127224000000012722400000001272240000000000000000000000000000001000000000000000100000000000012722400000000000000009999123100000010000000000000BRAMGNBDR004133
012020042902AMZO34      010AMAZON      DRN          R$  000000064140100000006414010000000636859000000063887700000006368590000000407000000000000000000006000000000000000180000000000114997980000000000000009999123100000010000000000000BRAMZOBDR002101
012020042902ANIM3       010ANIMA       ON      NM   R$  000000000210200000000022790000000002088000000000220000000000022200000000002220000000000225103658000000000000631400000000001389619900000000000000009999123100000010000000000000BRANIMACNOR6106
012020042902APER3       010ALPER S.A.  ON      NM   R$  000000000201000000000020990000000001968000000000202000000000020200000000001973000000000202000123000000000000026300000000000053142600000000000000009999123100000010000000000000BRAPERACNOR9101
012020042902ARZZ3       010AREZZO CO   ON      NM   R$  000000000456500000000046880000000004509000000000460400000000046080000000004608000000000466001617000000000000234000000000001077493500000000000000009999123100000010000000000000BRARZZACNOR3137
012020042902ASML34      010ASML HOLD   DRN ED       R$  000000016255700000001625570000000162557000000016255700000001625570000000000000000000000000000001000000000000000020000000000003251140000000000000009999123100000010000000000000BRASMLBDR003102
012020042902ATOM3       010ATOMPAR     ON           R$  000000000013900000000001390000000000132000000000013400000000001390000000000136000000000013800056000000000000023300000000000003126600000000000000009999123100000010000000000000BRATOMACNOR1103
012020042902ATTB34      010ATT INC     DRN          R$  000000001722000000000172200000000017040000000001711600000000170770000000000000000000000000000005000000000000001130000000000019341690000000000000009999123100000010000000000000BRATTBBDR007131
012020042902AZEV3       010AZEVEDO     ON           R$  000000000039900000000004150000000000381000000000039800000000003870000000000387000000000040000026000000000000005500000000000002192500000000000000009999123100000010000000000000BRAZEVACNOR0117
012020042902AZEV4       010AZEVEDO     PN           R$  000000000030000000000003150000000000287000000000030100000000002960000000000291000000000029600136000000000000063300000000000019055000000000000000009999123100000010000000000000BRAZEVACNPR7117
012020042902AZUL4       010AZUL        PN      N2   R$  000000000162900000000017480000000001625000000000170600000000017120000000001712000000000171439136000000000015686500000000026763968900000000000000009999123100000010000000000000BRAZULACNPR4100
012020042902B3SA3       010B3          ON      NM   R$  000000000406600000000040690000000003884000000000395300000000039900000000003989000000000399042755000000000016166700000000063922232600000000000000009999123100000010000000000000BRB3SAACNOR6110
012020042902BABA34      010ALIBABAGR   DRN          R$  000000011200000000001120000000000111100000000011176400000001111000000000000000000000000000000003000000000000000140000000000015647000000000000000009999123100000010000000000000BRBABABDR005100
012020042902BAHI3       010BAHEMA      ON      MA   R$  000000000688000000000069500000000006880000000000691500000000069500000000006182000000000690000002000000000000000200000000000001383000000000000000009999123100000010000000000000BRBAHIACNOR1071
012020042902BALM4       010BAUMER      PN           R$  000000000104900000000010490000000001015000000000102900000000010390000000001035000000000103900015000000000000001600000000000001646600000000000000009999123100000010000000000000BRBALMACNPR2050
012020042902BAZA3       010AMAZONIA    ON           R$  000000000298000000000030100000000002980000000000299500000000030000000000003000000000000305600007000000000000000800000000000002396000000000000000009999123100000010000000000000BRBAZAACNOR0174
012020042902BBAS3       010BRASIL      ON      NM   R$  000000000300400000000030210000000002873000000000294800000000029560000000002956000000000296358723000000000024628700000000072613335200000000000000009999123100000010000000000000BRBBASACNOR3291
012020042902BBDC3       010BRADESCO    ON      N1   R$  000000000184700000000018770000000001801000000000184600000000018770000000001875000000000187711768000000000004727400000000008726903600000000000000009999123100000010000000000000BRBBDCACNOR1710
012020042902BBDC4       010BRADESCO    PN      N1   R$  000000000205300000000020730000000001989000000000204600000000020640000000002062000000000206468255000000000036957300000000075624304100000000000000009999123100000010000000000000BRBBDCACNPR8710
012020042902BBRK3       010BR BROKERS  ON      NM   R$  000000000026000000000002600000000000246000000000024900000000002540000000000253000000000025400285000000000000165700000000000041395000000000000000009999123100000010000000000000BRBBRKACNOR4113
012020042902BBSD11      010BB ETF SP DVCI           R$  000000000682000000000069390000000006820000000000689600000000069390000000006939000000000708000003000000000000001080000000000007447980000000000000009999123100000010000000000000BRBBSDCTF000100
012020042902BBSE3       010BBSEGURIDADEON      NM   R$  000000000256900000000026090000000002520000000000257400000000026000000000002586000000000260117118000000000004021800000000010355632800000000000000009999123100000010000000000000BRBBSEACNOR5116
012020042902BCSA34      010SANTANDER   DRN          R$  000000000123000000000012750000000001226000000000124700000000012520000000001250000000000125400133000000000000022290000000000027796590000000000000009999123100000010000000000000BRBCSABDR005101
012020042902BEEF3       010MINERVA     ON      NM   R$  000000000123400000000013080000000001201000000000126100000000012300000000001228000000000123039707000000000015881000000000020031283900000000000000009999123100000010000000000000BRBEEFACNOR6108
012020042902BEES3       010BANESTES    ON           R$  000000000053000000000005300000000000506000000000051500000000005250000000000520000000000052600322000000000000167800000000000086580100000000000000009999123100000010000000000000BRBEESACNOR9336
012020042902BEES4       010BANESTES    PN           R$  000000000052400000000005240000000000496000000000050500000000005090000000000502000000000050900054000000000000008500000000000004293900000000000000009999123100000010000000000000BRBEESACNPR6261
012020042902BERK34      010BERKSHIRE   DRN          R$  000000010410000000001049000000000103200000000010349100000001035760000000100000000000011240000010000000000000000450000000000046571280000000000000009999123100000010000000000000BRBERKBDR002100
012020042902BGIP4       010BANESE      PN           R$  000000000244400000000024440000000002400000000000243100000000024430000000002370000000000244500004000000000000000400000000000000972700000000000000009999123100000010000000000000BRBGIPACNPR8198
012020042902BIDI3       010BANCO INTER ON      N2   R$  000000000095900000000009750000000000937000000000095600000000009450000000000945000000000095400387000000000000083800000000000080184600000000000000009999123100000010000000000000BRBIDIACNOR3105
012020042902BIDI4       010BANCO INTER PN      N2   R$  000000000099000000000009990000000000952000000000097900000000009740000000000974000000000097505036000000000001892200000000001853091400000000000000009999123100000010000000000000BRBIDIACNPR0109
012020042902BIDI11      010BANCO INTER UNT     N2   R$  000000000290700000000030690000000002843000000000297000000000030690000000002900000000000306901807000000000000355100000000001054805000000000000000009999123100000010000000000000BRBIDICDAXX3104
012020042902BIIB34      010BIOGEN      DRN          R$  000000002748000000000274800000000027480000000002748000000000274800000000000000000000000000000001000000000000000030000000000000824400000000000000009999123100000010000000000000BRBIIBBDR001101
012020042902BILB34      010BILBAOVIZ   DRN          R$  000000000182900000000018290000000001829000000000182900000000018290000000000000000000000000000001000000000000000090000000000000164610000000000000009999123100000010000000000000BRBILBBDR005101
012020042902BIOM3       010BIOMM       ON      MA   R$  000000000104000000000010400000000000999000000000101400000000010190000000001002000000000101900045000000000000019700000000000019993900000000000000009999123100000010000000000000BRBIOMACNOR2107
012020042902BKBR3       010BK BRASIL   ON      NM   R$  000000000091600000000010000000000000915000000000097800000000009840000000000984000000000099006850000000000001702200000000001665499000000000000000009999123100000010000000000000BRBKBRACNOR4103
012020042902BLAK34      010BLACKROCK   DRN          R$  000000004611000000000464000000000045900000000004613600000000459000000000000000000000000000000003000000000000000030000000000001384100000000000000009999123100000010000000000000BRBLAKBDR003116
012020042902BMEB3       010MERC BRASIL ON           R$  000000000130600000000013060000000001305000000000130500000000013050000000001037000000000120000002000000000000000200000000000000261100000000000000009999123100000010000000000000BRBMEBACNOR8196
012020042902BMEB4       010MERC BRASIL PN           R$  000000000111900000000011190000000001067000000000107200000000010930000000001053000000000109400016000000000000008200000000000008797700000000000000009999123100000010000000000000BRBMEBACNPR5201
012020042902BMGB4       010BANCO BMG   PN      N1   R$  000000000050400000000005160000000000479000000000049800000000005000000000000500000000000050102774000000000001039200000000000517671600000000000000009999123100000010000000000000BRBMGBACNPR0101
012020042902BMIN3       010MERC INVEST ON           R$  000000000185000000000018500000000001700000000000175400000000017000000000001700000000000180000010000000000000001000000000000001754000000000000000009999123100000010000000000000BRBMINACNOR4168
012020042902BMIN4       010MERC INVEST PN           R$  000000000165000000000016860000000001650000000000166800000000016860000000001621000000000200000002000000000000000200000000000000333600000000000000009999123100000010000000000000BRBMINACNPR1171
012020042902BMKS3       010BIC MONARK  ON           R$  000000001850000000000189000000000017503000000001876800000000189000000000017525000000001880000006000000000000000041000000000000769503000000000000009999123100000010000000000000BRBMKSACNOR9161
012020042902BOAC34      010BANK AMERICADRN          R$  000000001346700000000134670000000013467000000001346700000000134670000000000100000000000000000001000000000000000390000000000005252130000000000000009999123100000010000000000000BRBOACBDR004138
012020042902BOBR4       010BOMBRIL     PN           R$  000000000018100000000001810000000000173000000000017700000000001750000000000174000000000017500152000000000000068500000000000012165400000000000000009999123100000010000000000000BRBOBRACNPR3128
012020042902BOVA11      010ISHARES BOVACI           R$  000000000796900000000080550000000007904000000000798200000000080180000000008018000000000802035514000000000012813290000000102278725670000000000000009999123100000010000000000000BRBOVACTF003104
012020042902BOVB11      010ETF BRAD BOVCI           R$  000000000825000000000083620000000008217000000000830700000000083230000000008200000000000832302629000000000000305160000000002535054840000000000000009999123100000010000000000000BRBOVBCTF001100
012020042902BOVV11      010IT NOW IBOV CI           R$  000000000832000000000084010000000008240000000000834200000000083570000000008357000000000837027757000000000003785410000000031578527690000000000000009999123100000010000000000000BRBOVVCTF009100
012020042902BPAC3       010BTGP BANCO  ON      N2   R$  000000000214900000000024040000000002101000000000224400000000022480000000002151000000000228700042000000000000006400000000000014361600000000000000009999123100000010000000000000BRBPACACNOR7121
012020042902BPAC5       010BTGP BANCO  PNA     N2   R$  000000000124000000000012600000000001134000000000117500000000011720000000001171000000000125800029000000000000004900000000000005759800000000000000009999123100000010000000000000BRBPACACNPA0121
012020042902BPAC11      010BTGP BANCO  UNT     N2   R$  000000000451500000000045830000000004332000000000441700000000043740000000004374000000000438014535000000000003505400000000015483987800000000000000009999123100000010000000000000BRBPACUNT006106
012020042902BPAN4       010BANCO PAN   PN      N1   R$  000000000054800000000005570000000000527000000000054200000000005500000000000547000000000055005373000000000003217300000000001744552200000000000000009999123100000010000000000000BRBPANACNPR1108
012020042902BRAP3       010BRADESPAR   ON      N1   R$  000000000268200000000027910000000002649000000000272300000000027800000000002738000000000278902300000000000000356200000000000970245700000000000000009999123100000010000000000000BRBRAPACNOR5136
012020042902BRAP4       010BRADESPAR   PN      N1   R$  000000000302000000000031710000000002996000000000310400000000031320000000003132000000000313613041000000000002873600000000008920357300000000000000009999123100000010000000000000BRBRAPACNPR2136
012020042902BRAX11      010ISHARES BRAXCI           R$  000000000688700000000069800000000006850000000000692200000000069800000000006930000000000698000019000000000000014840000000000102732870000000000000009999123100000010000000000000BRBRAXCTF002100
012020042902BRDT3       010PETROBRAS BRON      NM   R$  000000000196500000000021180000000001935000000000204600000000020620000000002062000000000206928062000000000009051100000000018522018600000000000000009999123100000010000000000000BRBRDTACNOR1119
012020042902BRFS3       010BRF SA      ON      NM   R$  000000000205500000000020750000000001992000000000203600000000020380000000002038000000000204045395000000000014526500000000029585217800000000000000009999123100000010000000000000BRBRFSACNOR8119
012020042902BRGE3       010ALFA CONSORCON           R$  000000000055200000000006000000000000552000000000058400000000006000000000000600000000000070000005000000000000000600000000000000350500000000000000009999123100000010000000000000BRBRGEACNOR6202
012020042902BRGE8       010ALFA CONSORCPND          R$  000000000052600000000005260000000000526000000000052600000000005260000000000520000000000080000001000000000000000100000000000000052600000000000000009999123100000010000000000000BRBRGEACNPD3213
012020042902BRGE12      010ALFA CONSORCPNF          R$  000000000043600000000004360000000000436000000000043600000000004360000000000421000000000056500001000000000000000100000000000000043600000000000000009999123100000010000000000000BRBRGEACNPF8096
012020042902BRIV4       010ALFA INVEST PN           R$  000000000073000000000007300000000000730000000000073000000000007300000000000701000000000072700001000000000000000800000000000000584000000000000000009999123100000010000000000000BRBRIVACNPR3210
012020042902BRKM3       010BRASKEM     ON      N1   R$  000000000225000000000023000000000002202000000000226200000000022070000000002207000000000221500086000000000000025500000000000057700300000000000000009999123100000010000000000000BRBRKMACNOR1117
012020042902BRKM5       010BRASKEM     PNA     N1   R$  000000000228000000000022900000000002185000000000223300000000021950000000002195000000000219714898000000000003445100000000007695332000000000000000009999123100000010000000000000BRBRKMACNPA4117
012020042902BRML3       010BR MALLS PARON      NM   R$  000000000104500000000010870000000001032000000000106200000000010670000000001063000000000106725184000000000012067500000000012819815700000000000000009999123100000010000000000000BRBRMLACNOR9115
012020042902BRPR3       010BR PROPERT  ON  ED  NM   R$  000000000094400000000009550000000000917000000000093900000000009320000000000932000000000093905962000000000001371000000000001287758000000000000000009999123100000010000000000000BRBRPRACNOR9119
012020042902BRSR3       010BANRISUL    ON      N1   R$  000000000146300000000015250000000001448000000000145700000000014500000000001447000000000145000049000000000000013300000000000019390300000000000000009999123100000010000000000000BRBRSRACNOR3167
012020042902BRSR5       010BANRISUL    PNA     N1   R$  000000000239000000000023900000000002390000000000239000000000023900000000001530000000000238000004000000000000000800000000000001912000000000000000009999123100000010000000000000BRBRSRACNPA6171
012020042902BRSR6       010BANRISUL    PNB     N1   R$  000000000130000000000013170000000001274000000000129500000000013170000000001315000000000131706690000000000001865700000000002416514800000000000000009999123100000010000000000000BRBRSRACNPB4170
012020042902BRZP11      010FIP BRZ IE  CI           R$  000000007230300000000759380000000070002000000007120800000000744990000000070300000000007449900029000000000000000414000000000029480271000000000000009999123100000010000000000000BRBRZPCTF005101
012020042902BSEV3       010BIOSEV      ON      NM   R$  000000000028800000000002950000000000285000000000029000000000002920000000000289000000000029200116000000000000074700000000000021712300000000000000009999123100000010000000000000BRBSEVACNOR3102
012020042902BTOW3       010B2W DIGITAL ON      NM   R$  000000000791000000000079700000000007779000000000787700000000077790000000007778000000000777911913000000000002539900000000020007580100000000000000009999123100000010000000000000BRBTOWACNOR8110
012020042902CAMB3       010CAMBUCI     ON           R$  000000000025100000000002870000000000251000000000027000000000002790000000000278000000000027900744000000000000761600000000000205816300000000000000009999123100000010000000000000BRCAMBACNOR4119
012020042902CAML3       010CAMIL       ON      NM   R$  000000000087800000000008920000000000857000000000087600000000008860000000000886000000000088804300000000000001033400000000000905270000000000000000009999123100000010000000000000BRCAMLACNOR3109
012020042902CARD3       010CSU CARDSYSTON      NM   R$  000000000093500000000009640000000000925000000000094900000000009610000000000961000000000096400602000000000000179400000000000170306100000000000000009999123100000010000000000000BRCARDACNOR9117
012020042902CCPR3       010CYRE COM-CCPON      NM   R$  000000000150000000000015980000000001490000000000156200000000015800000000001530000000000158002648000000000000430100000000000672190100000000000000009999123100000010000000000000BRCCPRACNOR9113
012020042902CCRO3       010CCR SA      ON      NM   R$  000000000129300000000013340000000001275000000000130100000000013080000000001308000000000131721087000000000006747400000000008779357900000000000000009999123100000010000000000000BRCCROACNOR2137
012020042902CEAB3       010CEA MODAS   ON      NM   R$  000000000092100000000010000000000000901000000000097100000000009950000000000995000000000099710492000000000003867700000000003756730400000000000000009999123100000010000000000000BRCEABACNOR1101
012020042902CEBR3       010CEB         ON           R$  000000000529900000000054540000000005299000000000533000000000054540000000005000000000000564100003000000000000000500000000000002665000000000000000009999123100000010000000000000BRCEBRACNOR5117
012020042902CEDO3       010CEDRO       ON      N1   R$  000000000082200000000008220000000000753000000000077600000000007530000000000752000000000080000006000000000000000600000000000000465600000000000000009999123100000010000000000000BRCEDOACNOR8096
012020042902CEDO4       010CEDRO       PN      N1   R$  000000000048000000000004820000000000480000000000048100000000004820000000000441000000000046900003000000000000000300000000000000144300000000000000009999123100000010000000000000BRCEDOACNPR5128
012020042902CEEB3       010COELBA      ON           R$  000000000389500000000039000000000003810000000000385300000000039000000000003808000000000400000006000000000000000800000000000003083000000000000000009999123100000010000000000000BRCEEBACNOR3179
012020042902CEEB5       010COELBA      PNA          R$  000000000384900000000038490000000003849000000000384900000000038490000000000000000000000000000001000000000000000500000000000001924500000000000000009999123100000010000000000000BRCEEBACNPA6173
012020042902CESP3       010CESP        ON      N1   R$  000000000279400000000028480000000002794000000000281600000000028440000000002801000000000284400030000000000000006600000000000018591100000000000000009999123100000010000000000000BRCESPACNOR3169
012020042902CESP6       010CESP        PNB     N1   R$  000000000280900000000028400000000002730000000000279900000000028300000000002828000000000283011804000000000002276800000000006373651600000000000000009999123100000010000000000000BRCESPACNPB4128
012020042902CGAS3       010COMGAS      ON           R$  000000001583300000000158330000000015833000000001583300000000158330000000014800000000001581700001000000000000000100000000000001583300000000000000009999123100000010000000000000BRCGASACNOR0151
012020042902CGAS5       010COMGAS      PNA          R$  000000001630000000000164160000000016099000000001626300000000162000000000016100000000001639600034000000000000004900000000000079689500000000000000009999123100000010000000000000BRCGASACNPA3148
012020042902CGRA3       010GRAZZIOTIN  ON           R$  000000000224100000000022990000000002228000000000224400000000022990000000002233000000000230000009000000000000001400000000000003141900000000000000009999123100000010000000000000BRCGRAACNOR2071
012020042902CGRA4       010GRAZZIOTIN  PN           R$  000000000250000000000025000000000002420000000000245200000000024780000000002419000000000248000053000000000000011600000000000028450300000000000000009999123100000010000000000000BRCGRAACNPR9071
012020042902CHKE34      010CHESAPEAKE  DRN          R$  000000001704000000000170400000000017040000000001704000000000170400000000013000000000002640000001000000000000000010000000000000170400000000000000009999123100000010000000000000BRCHKEBDR001101
012020042902CHVX34      010CHEVRON     DRN          R$  000000002561400000000256140000000025614000000002561400000000256140000000021500000000000000000001000000000000000290000000000007428060000000000000009999123100000010000000000000BRCHVXBDR008136
012020042902CIEL3       010CIELO       ON      NM   R$  000000000041100000000004340000000000405000000000041600000000004230000000000423000000000042531775000000000036591400000000015237346000000000000000009999123100000010000000000000BRCIELACNOR3142
012020042902CINF34      010CINCINNATI  DRN          R$  000000001951000000000195100000000019510000000001951000000000195100000000000000000000000000000001000000000000000100000000000001951000000000000000009999123100000010000000000000BRCINFBDR000102
012020042902CLSC4       010CELESC      PN  ED  N2   R$  000000000367600000000038000000000003676000000000375200000000038000000000003800000000000389900059000000000000011200000000000042028700000000000000009999123100000010000000000000BRCLSCACNPR3115
012020042902CMCS34      010COMCAST     DRN          R$  000000002070000000000210870000000020494000000002085500000000210870000000000000000000000000000021000000000000029490000000000615022830000000000000009999123100000010000000000000BRCMCSBDR008134
012020042902CMIG3       010CEMIG       ON      N1   R$  000000000098000000000010060000000000967000000000099000000000010040000000001003000000000100404110000000000000953300000000000944380200000000000000009999123100000010000000000000BRCMIGACNOR6223
012020042902CMIG4       010CEMIG       PN      N1   R$  000000000096200000000009840000000000942000000000096800000000009760000000000976000000000097725008000000000011260400000000010904875500000000000000009999123100000010000000000000BRCMIGACNPR3224
012020042902CNTO3       010CENTAURO    ON      NM   R$  000000000333000000000034700000000003168000000000335000000000033000000000003297000000000330013376000000000003060300000000010252816900000000000000009999123100000010000000000000BRCNTOACNOR5100
012020042902COCA34      010COCA COLA   DRN          R$  000000002608900000000260890000000025650000000002588600000000256500000000024000000000000000000003000000000000000030000000000000776590000000000000009999123100000010000000000000BRCOCABDR002134
012020042902COCE5       010COELCE      PNA ED       R$  000000000492600000000049260000000004780000000000485600000000048780000000004878000000000487900080000000000000013400000000000065073300000000000000009999123100000010000000000000BRCOCEACNPA3140
012020042902COGN3       010COGNA ON    ON      NM   R$  000000000051400000000005650000000000498000000000052800000000005590000000000558000000000055964784000000000078795700000000041668725800000000000000009999123100000010000000000000BRCOGNACNOR2101
012020042902COTY34      010COTY INC    DRN          R$  000000000146600000000014660000000001466000000000146600000000014660000000000000000000000000000006000000000000001250000000000001832500000000000000009999123100000010000000000000BRCOTYBDR006116
012020042902COWC34      010COSTCO      DRN ED       R$  000000004154700000000415470000000041547000000004154700000000415470000000000000000000000000000001000000000000000030000000000001246410000000000000009999123100000010000000000000BRCOWCBDR006118
012020042902CPFE3       010CPFL ENERGIAON      NM   R$  000000000310000000000031300000000002974000000000301600000000030040000000003004000000000301516771000000000004321800000000013036375600000000000000009999123100000010000000000000BRCPFEACNOR0129
012020042902CPLE3       010COPEL       ON      N1   R$  000000000547500000000055400000000005329000000000542300000000054370000000005403000000000543901947000000000000462100000000002505978200000000000000009999123100000010000000000000BRCPLEACNOR8139
012020042902CPLE6       010COPEL       PNB     N1   R$  000000000563000000000057060000000005553000000000563100000000055710000000005571000000000558005057000000000000822600000000004632118800000000000000009999123100000010000000000000BRCPLEACNPB9136
012020042902CPRE3       010CPFL RENOVAVON      NM   R$  000000000166000000000017010000000001615000000000162400000000016250000000001615000000000162500018000000000000007200000000000011693700000000000000009999123100000010000000000000BRCPREACNOR5102
012020042902CRDE3       010CR2         ON           R$  000000000247500000000025640000000002475000000000250600000000025640000000002102000000000250000003000000000000000300000000000000751900000000000000009999123100000010000000000000BRCRDEACNOR1111
012020042902CRFB3       010CARREFOUR BRON      NM   R$  000000000200500000000020220000000001955000000000200200000000020200000000002013000000000202011976000000000004162200000000008333977700000000000000009999123100000010000000000000BRCRFBACNOR2105
012020042902CRIV3       010ALFA FINANC ON           R$  000000000055000000000005950000000000530000000000054300000000005310000000000530000000000053500039000000000000007300000000000003969900000000000000009999123100000010000000000000BRCRIVACNOR4194
012020042902CRIV4       010ALFA FINANC PN           R$  000000000058500000000005850000000000572000000000057500000000005720000000000571000000000057600013000000000000002800000000000001610400000000000000009999123100000010000000000000BRCRIVACNPR1203
012020042902CRPG5       010CRISTAL     PNA          R$  000000000234800000000023480000000002220000000000231300000000023350000000002300000000000233500055000000000000013300000000000030767000000000000000009999123100000010000000000000BRCRPGACNPA3107
012020042902CRPG6       010CRISTAL     PNB          R$  000000000234800000000023480000000002320000000000233200000000023300000000002290000000000233000003000000000000000300000000000000699800000000000000009999123100000010000000000000BRCRPGACNPB1107
012020042902CSAN3       010COSAN       ON      NM   R$  000000000630000000000064020000000006170000000000627900000000061840000000006184000000000618909421000000000001748500000000010979381400000000000000009999123100000010000000000000BRCSANACNOR6119
012020042902CSMG3       010COPASA      ON      NM   R$  000000000497000000000050280000000004867000000000496200000000049820000000004982000000000498503697000000000000660600000000003277985900000000000000009999123100000010000000000000BRCSMGACNOR5155
012020042902CSNA3       010SID NACIONALON           R$  000000000080600000000009270000000000801000000000088000000000009030000000000902000000000090343895000000000034574500000000030455937800000000000000009999123100000010000000000000BRCSNAACNOR6251
012020042902CSXC34      010CSX CORP    DRN          R$  000000001838000000000183800000000018380000000001838000000000183800000000000000000000000000000001000000000000000150000000000002757000000000000000009999123100000010000000000000BRCSXCBDR005103
012020042902CTGP34      010CITIGROUP   DRN          R$  000000002699400000000272520000000026994000000002704500000000272520000000026100000000000000000002000000000000000750000000000020284200000000000000009999123100000010000000000000BRCTGPBDR000137
012020042902CTKA3       010KARSTEN     ON           R$  000000000108500000000010850000000001085000000000108500000000010850000000001050000000000110000002000000000000000200000000000000217000000000000000009999123100000010000000000000BRCTKAACNOR0043
012020042902CTKA4       010KARSTEN     PN           R$  000000000088300000000009100000000000883000000000089600000000009100000000000910000000000094500004000000000000000400000000000000358600000000000000009999123100000010000000000000BRCTKAACNPR7043
012020042902CTNM3       010COTEMINAS   ON           R$  000000000076800000000012500000000000768000000000103800000000011000000000001002000000000110000078000000000000011000000000000011420900000000000000009999123100000010000000000000BRCTNMACNOR9130
012020042902CTNM4       010COTEMINAS   PN           R$  000000000050400000000005690000000000504000000000053700000000005430000000000543000000000054800228000000000000077000000000000041397100000000000000009999123100000010000000000000BRCTNMACNPR6129
012020042902CTSA3       010SANTANENSE  ON           R$  000000000042800000000004490000000000415000000000042800000000004490000000000416000000000044800014000000000000003200000000000001370300000000000000009999123100000010000000000000BRCTSAACNOR3059
012020042902CTSA4       010SANTANENSE  PN           R$  000000000047400000000004790000000000455000000000047600000000004550000000000455000000000050000009000000000000002400000000000001143200000000000000009999123100000010000000000000BRCTSAACNPR0059
012020042902CTSH34      010COGNIZANT   DRN          R$  000000003170000000000317000000000031700000000003170000000000317000000000000000000000000000000003000000000000000200000000000006340000000000000000009999123100000010000000000000BRCTSHBDR002112
012020042902CVCB3       010CVC BRASIL  ON      NM   R$  000000000145000000000014840000000001374000000000142700000000014190000000001418000000000141914515000000000004821900000000006883132100000000000000009999123100000010000000000000BRCVCBACNOR1112
012020042902CVSH34      010CVS HEALTH  DRN ED       R$  000000001712000000000171200000000017020000000001709200000000171200000000011200000000000000000004000000000000000110000000000001880200000000000000009999123100000010000000000000BRCVSHBDR008116
012020042902CYRE3       010CYRELA REALTON      NM   R$  000000000163200000000017120000000001609000000000167400000000017080000000001701000000000170830931000000000010850800000000018169947000000000000000009999123100000010000000000000BRCYREACNOR7133
012020042902DASA3       010DASA        ON           R$  000000000700000000000070000000000007000000000000700000000000070000000000006900000000000709900003000000000000000300000000000002100000000000000000009999123100000010000000000000BRDASAACNOR1119
012020042902DEAI34      010DELTA       DRN          R$  000000001402000000000140200000000014020000000001402000000000140200000000013500000000001800000001000000000000000010000000000000140200000000000000009999123100000010000000000000BRDEAIBDR008116
012020042902DGCO34      010DOLLAR GENERDRN          R$  000000004728100000000472810000000047281000000004728100000000472810000000000000000000000000000001000000000000000030000000000001418430000000000000009999123100000010000000000000BRDGCOBDR007104
012020042902DIRR3       010DIRECIONAL  ON      NM   R$  000000000093700000000009460000000000902000000000092300000000009460000000000937000000000094604564000000000001738600000000001605001500000000000000009999123100000010000000000000BRDIRRACNOR0112
012020042902DISB34      010WALT DISNEY DRN          R$  000000005904000000000608000000000059040000000005980300000000598030000000059800000000006050100013000000000000014120000000000844427600000000000000009999123100000010000000000000BRDISBBDR006114
012020042902DIVO11      010IT NOW IDIV CI           R$  000000000505000000000051200000000005001000000000507200000000051200000000005098000000000512000078000000000000030240000000000153396150000000000000009999123100000010000000000000BRDIVOCTF002100
012020042902DMMO3       010DOMMO       ON           R$  000000000013200000000001370000000000129000000000013200000000001300000000000130000000000013104349000000000008950500000000001186020500000000000000009999123100000010000000000000BRDMMOACNOR0102
012020042902DOHL4       010DOHLER      PN           R$  000000000055000000000005990000000000550000000000058000000000005900000000000580000000000060000008000000000000001600000000000000929000000000000000009999123100000010000000000000BRDOHLACNPR9060
012020042902DTCY3       010DTCOM-DIRECTON           R$  000000000053000000000005480000000000500000000000051100000000005480000000000500000000000054900004000000000000000700000000000000357800000000000000009999123100000010000000000000BRDTCYACNOR5109
012020042902DTEX3       010DURATEX     ON      NM   R$  000000000103000000000010790000000001014000000000105000000000010480000000001048000000000105409792000000000002563700000000002693799500000000000000009999123100000010000000000000BRDTEXACNOR3128
012020042902EALT3       010ACO ALTONA  ON           R$  000000000110000000000011000000000001100000000000110000000000011000000000000755000000000115900001000000000000000100000000000000110000000000000000009999123100000010000000000000BREALTACNOR4132
012020042902EALT4       010ACO ALTONA  PN           R$  000000000034500000000003630000000000341000000000035200000000003500000000000349000000000035000176000000000000111400000000000039302900000000000000009999123100000010000000000000BREALTACNPR1132
012020042902ECOO11      010ISHARES ECOOCI           R$  000000000883300000000088330000000008833000000000883300000000088330000000007800000000000902000001000000000000000100000000000000883300000000000000009999123100000010000000000000BRECOOCTF008100
012020042902ECOR3       010ECORODOVIAS ON      NM   R$  000000000110200000000011180000000001064000000000109500000000011040000000001101000000000110414268000000000003564300000000003905213800000000000000009999123100000010000000000000BRECORACNOR8116
012020042902EGIE3       010ENGIE BRASILON      NM   R$  000000000409900000000040990000000003966000000000400300000000040010000000004000000000000400408169000000000001926100000000007710530600000000000000009999123100000010000000000000BREGIEACNOR9112
012020042902ELEK3       010ELEKEIROZ   ON           R$  000000000180000000000018000000000001700000000000172900000000017310000000001731000000000179000012000000000000006500000000000011243100000000000000009999123100000010000000000000BRELEKACNOR5124
012020042902ELEK4       010ELEKEIROZ   PN           R$  000000000198500000000019990000000001900000000000191300000000019000000000001900000000000197500007000000000000008200000000000015690900000000000000009999123100000010000000000000BRELEKACNPR2125
012020042902ELET3       010ELETROBRAS  ON      N1   R$  000000000243500000000025170000000002371000000000246400000000024890000000002488000000000249022674000000000005933900000000014622913400000000000000009999123100000010000000000000BRELETACNOR6154
012020042902ELET6       010ELETROBRAS  PNB     N1   R$  000000000276000000000028100000000002678000000000276200000000027740000000002768000000000277414030000000000003188500000000008809204500000000000000009999123100000010000000000000BRELETACNPB7071
012020042902EMAE4       010EMAE        PN  ED       R$  000000000287600000000029990000000002870000000000293400000000029700000000002869000000000297000022000000000000003300000000000009683900000000000000009999123100000010000000000000BREMAEACNPR1114
012020042902EMBR3       010EMBRAER     ON      NM   R$  000000000082800000000009000000000000820000000000086800000000008820000000000882000000000088326800000000000013053700000000011330755200000000000000009999123100000010000000000000BREMBRACNOR4189
012020042902ENAT3       010ENAUTA PART ON  ED  NM   R$  000000000090000000000009570000000000882000000000092200000000009380000000000938000000000094005909000000000001944200000000001794070900000000000000009999123100000010000000000000BRENATACNOR0101
012020042902ENBR3       010ENERGIAS BR ON      NM   R$  000000000171600000000017220000000001664000000000168200000000016970000000001696000000000169711829000000000002511800000000004226349600000000000000009999123100000010000000000000BRENBRACNOR2129
012020042902ENEV3       010ENEVA       ON      NM   R$  000000000368700000000036990000000003602000000000364600000000036410000000003641000000000364304679000000000000858800000000003131927500000000000000009999123100000010000000000000BRENEVACNOR8104
012020042902ENGI3       010ENERGISA    ON      N2   R$  000000000120600000000012070000000001180000000000119900000000012000000000001204000000000120600041000000000000005200000000000006239900000000000000009999123100000010000000000000BRENGIACNOR0137
012020042902ENGI4       010ENERGISA    PN      N2   R$  000000000086200000000008640000000000837000000000085500000000008600000000000854000000000086000042000000000000007100000000000006073200000000000000009999123100000010000000000000BRENGIACNPR7133
012020042902ENGI11      010ENERGISA    UNT     N2   R$  000000000474800000000047500000000004544000000000461600000000046230000000004598000000000462315312000000000002676400000000012355496200000000000000009999123100000010000000000000BRENGICDAM16127
012020042902ENMT3       010ENERGISA MT ON           R$  000000000260000000000027560000000002600000000000264700000000027500000000002559000000000281000042000000000000008600000000000022767400000000000000009999123100000010000000000000BRENMTACNOR5111
012020042902ENMT4       010ENERGISA MT PN           R$  000000000260100000000027580000000002600000000000265300000000027490000000002601000000000275000024000000000000008300000000000022025700000000000000009999123100000010000000000000BRENMTACNPR2114
012020042902EQIX34      010EQUINIX INC DRN          R$  000000007320000000000732000000000073200000000007320000000000732000000000000000000000000000000001000000000000000010000000000000732000000000000000009999123100000010000000000000BREQIXBDR002104
012020042902EQPA3       010EQTL PARA   ON           R$  000000000030900000000003090000000000305000000000030700000000003070000000000307000000000030800060000000000000035900000000000011028800000000000000009999123100000010000000000000BREQPAACNOR1100
012020042902EQPA6       010EQTL PARA   PNB          R$  000000000119900000000012000000000001005000000000115000000000012000000000001150000000000120000007000000000000000700000000000000805400000000000000009999123100000010000000000000BREQPAACNPB2100
012020042902EQTL3       010EQUATORIAL  ON      NM   R$  000000000194000000000019400000000001885000000000190800000000018860000000001886000000000189327779000000000007088400000000013526787500000000000000009999123100000010000000000000BREQTLACNOR0125
012020042902EUCA3       010EUCATEX     ON      N1   R$  000000000151000000000015100000000001430000000000146500000000015000000000001434000000000150000066000000000000012100000000000017729200000000000000009999123100000010000000000000BREUCAACNOR1151
012020042902EUCA4       010EUCATEX     PN      N1   R$  000000000048900000000005000000000000475000000000048000000000004780000000000478000000000048400204000000000000113900000000000054768300000000000000009999123100000010000000000000BREUCAACNPR8038
012020042902EVEN3       010EVEN        ON      NM   R$  000000000074300000000007570000000000714000000000073800000000007220000000000722000000000073008319000000000002156200000000001592700100000000000000009999123100000010000000000000BREVENACNOR8111
012020042902EXXO34      010EXXON MOBIL DRN          R$  000000000642600000000064260000000006426000000000642600000000064260000000005500000000000826000001000000000000000690000000000004433940000000000000009999123100000010000000000000BREXXOBDR006138
012020042902EZTC3       010EZTEC       ON  ED  NM   R$  000000000336400000000034060000000003135000000000323900000000032610000000003250000000000326114361000000000003286800000000010648230900000000000000009999123100000010000000000000BREZTCACNOR0114
012020042902F1NI34      010FIDELITY NATDRN          R$  000000001810000000000181000000000018100000000001810000000000181000000000000000000000000000000001000000000000000250000000000004525000000000000000009999123100000010000000000000BRF1NIBDR004101
012020042902FBOK34      010FACEBOOK    DRN          R$  000000005279900000000531200000000052313000000005248300000000523130000000041000000000000000000010000000000000060580000000003179442270000000000000009999123100000010000000000000BRFBOKBDR006100
012020042902FDMO34      010FORD MOTORS DRN          R$  000000000250000000000029250000000002500000000000279600000000029150000000002500000000000000000012000000000000014620000000000040889050000000000000009999123100000010000000000000BRFDMOBDR008133
012020042902FDXB34      010FEDEX CORP  DRN          R$  000000007100000000000710000000000071000000000007100000000000710000000000000000000000000000000001000000000000000010000000000000710000000000000000009999123100000010000000000000BRFDXBBDR002126
012020042902FESA4       010FERBASA     PN      N1   R$  000000000171600000000017310000000001689000000000171000000000017030000000001703000000000170400803000000000000212900000000000364150800000000000000009999123100000010000000000000BRFESAACNPR5066
012020042902FIND11      010IT NOW IFNC CI           R$  000000000839000000000086000000000008313000000000839700000000085040000000008366000000000899900019000000000000000630000000000005290150000000000000009999123100000010000000000000BRFINDCTF007100
012020042902FLRY3       010FLEURY      ON      NM   R$  000000000237400000000024070000000002284000000000232500000000023290000000002329000000000233919915000000000004479900000000010417458900000000000000009999123100000010000000000000BRFLRYACNOR5127
012020042902FNAM11      010FINAM       CI *         R$  000000000001400000000000140000000000013000000000001300000000000130000000000013000000000001400136000000000061355000000000000000841020000000000000009999123100010000000000000000BRFNAMCTF013002
012020042902FNOR11      010FINOR       CI *         R$  000000000001900000000000190000000000018000000000001800000000000190000000000017000000000001900038000000000220476000000000000003977373000000000000009999123100010000000000000000BRFNORCTF013002
012020042902FRAS3       010FRAS-LE     ON      N1   R$  000000000039700000000004240000000000393000000000041000000000004190000000000409000000000041900435000000000000218800000000000089843300000000000000009999123100000010000000000000BRFRASACNOR0149
012020042902FSRF11      010FISET FL REFCI           R$  000000000002200000000000230000000000022000000000002200000000000230000000000022000000000002300014000000000000048000000000000001063000000000000000009999123100000010000000000000BRFSRFCTF010002
012020042902FSTU11      010FISET TUR   CI           R$  000000000003700000000000380000000000035000000000003700000000000360000000000036000000000003800007000000000000012000000000000000448000000000000000009999123100000010000000000000BRFSTUCTF015002
012020042902GBIO33      010BIOTOSCANA  DR3          R$  000000000098600000000009950000000000984000000000098800000000009950000000000988000000000099500505000000000000091300000000000090278300000000000000009999123100000010000000000000BRGBIOBDR008100
012020042902GEOO34      010GE          DRN          R$  000000000362100000000036210000000003621000000000362100000000036210000000000000000000000579000002000000000000000710000000000002570910000000000000009999123100000010000000000000BRGEOOBDR000139
012020042902GEPA4       010GER PARANAP PN           R$  000000000442600000000044260000000004300000000000435700000000043200000000004320000000000440000006000000000000000600000000000002614500000000000000009999123100000010000000000000BRGEPAACNPR9152
012020042902GFSA3       010GAFISA      ON      NM   R$  000000000039900000000004280000000000395000000000041100000000004100000000000410000000000041105416000000000005326400000000002192257200000000000000009999123100000010000000000000BRGFSAACNOR3117
012020042902GGBR3       010GERDAU      ON      N1   R$  000000000104100000000010870000000001041000000000106700000000010700000000001069000000000107000382000000000000140600000000000150047000000000000000009999123100000010000000000000BRGGBRACNOR1173
012020042902GGBR4       010GERDAU      PN      N1   R$  000000000122700000000012800000000001214000000000124600000000012460000000001239000000000124636739000000000018142800000000022610186600000000000000009999123100000010000000000000BRGGBRACNPR8173
012020042902GILD34      010GILEAD      DRN          R$  000000002349000000000234900000000022110000000002265600000000226800000000021200000000002349000026000000000000002110000000000047805600000000000000009999123100000010000000000000BRGILDBDR000116
012020042902GNDI3       010INTERMEDICA ON      NM   R$  000000000568000000000057850000000005619000000000572600000000057000000000005700000000000570420439000000000003982400000000022805209700000000000000009999123100000010000000000000BRGNDIACNOR2102
012020042902GOAU3       010GERDAU MET  ON      N1   R$  000000000049200000000005100000000000490000000000050100000000005010000000000500000000000050200300000000000000100400000000000050329400000000000000009999123100000010000000000000BRGOAUACNOR1250
012020042902GOAU4       010GERDAU MET  PN      N1   R$  000000000054000000000005650000000000534000000000055100000000005500000000000550000000000055121709000000000016065800000000008855256900000000000000009999123100000010000000000000BRGOAUACNPR8251
012020042902GOGL34      010ALPHABET    DRN A        R$  000000002920000000000297600000000028865000000002914100000000293100000000028700000000002970000038000000000000086330000000002515813590000000000000009999123100000010000000000000BRGOGLBDR001100
012020042902GOGL35      010ALPHABET    DRN C        R$  000000002934000000000293400000000029310000000002931200000000293100000000025000000000002931000002000000000000000120000000000003517500000000000000009999123100000010000000000000BRGOGLBDR019100
012020042902GOLL4       010GOL         PN      N2   R$  000000000126200000000013400000000001237000000000128800000000013340000000001332000000000133428611000000000013112200000000016899189300000000000000009999123100000010000000000000BRGOLLACNPR4125
012020042902GPIV33      010GP INVEST   DR3          R$  000000000043500000000004350000000000397000000000040100000000004000000000000399000000000040000061000000000000038400000000000015416100000000000000009999123100000010000000000000BRGPIVBDR003104
012020042902GRND3       010GRENDENE    ON      NM   R$  000000000075000000000007640000000000725000000000074000000000007490000000000748000000000074905152000000000001447000000000001071632400000000000000009999123100000010000000000000BRGRNDACNOR3157
012020042902GSHP3       010GENERALSHOPPON      NM   R$  000000000390200000000040000000000003802000000000386700000000040000000000003802000000000399800006000000000000000600000000000002320700000000000000009999123100000010000000000000BRGSHPACNOR7102
012020042902GUAR3       010GUARARAPES  ON           R$  000000000134000000000013700000000001270000000000131300000000013010000000001300000000000130105465000000000001393900000000001830385700000000000000009999123100000010000000000000BRGUARACNOR4165
012020042902HAGA3       010HAGA S/A    ON           R$  000000000035000000000003500000000000350000000000035000000000003500000000000350000000000037000002000000000000000600000000000000210000000000000000009999123100000010000000000000BRHAGAACNOR7103
012020042902HAGA4       010HAGA S/A    PN           R$  000000000018800000000001940000000000184000000000018800000000001920000000000191000000000019300048000000000000068600000000000012924600000000000000009999123100000010000000000000BRHAGAACNPR4103
012020042902HAPV3       010HAPVIDA     ON  ED  NM   R$  000000000541500000000055300000000005360000000000543300000000054350000000005405000000000543510146000000000001784000000000009693273300000000000000009999123100000010000000000000BRHAPVACNOR4105
012020042902HBOR3       010HELBOR      ON      NM   R$  000000000020300000000002050000000000191000000000019600000000001940000000000194000000000019509293000000000018509900000000003629741400000000000000009999123100000010000000000000BRHBORACNOR3113
012020042902HETA4       010HERCULES    PN           R$  000000000046000000000004790000000000460000000000046300000000004690000000000450000000000047000015000000000000002100000000000000973800000000000000009999123100000010000000000000BRHETAACNPR9136
012020042902HGTX3       010CIA HERING  ON      NM   R$  000000000156000000000016220000000001519000000000156900000000015380000000001536000000000153815434000000000003920100000000006151729700000000000000009999123100000010000000000000BRHGTXACNOR9150
012020042902HOME34      010HOME DEPOT  DRN          R$  000000006112000000000611200000000061120000000006112000000000611200000000000000000000000000000001000000000000000010000000000000611200000000000000009999123100000010000000000000BRHOMEBDR002132
012020042902HYPE3       010HYPERA      ON      NM   R$  000000000294100000000030170000000002846000000000294300000000029870000000002985000000000298722419000000000004813900000000014169766600000000000000009999123100000010000000000000BRHYPEACNOR0121
012020042902IDNT3       010IDEIASNET   ON           R$  000000000029000000000002960000000000280000000000028400000000002800000000000279000000000028300175000000000000071200000000000020250100000000000000009999123100000010000000000000BRIDNTACNOR5113
012020042902IDVL3       010INDUSVAL    ON      N2   R$  000000000018600000000001860000000000175000000000018000000000001800000000000180000000000018300049000000000000026300000000000004753100000000000000009999123100000010000000000000BRIDVLACNOR5130
012020042902IDVL4       010INDUSVAL    PN      N2   R$  000000000026400000000002640000000000256000000000025900000000002600000000000258000000000026000026000000000000010300000000000002677100000000000000009999123100000010000000000000BRIDVLACNPR2130
012020042902IGTA3       010IGUATEMI    ON      NM   R$  000000000358600000000036690000000003470000000000358900000000035660000000003566000000000358109901000000000001615700000000005798778900000000000000009999123100000010000000000000BRIGTAACNOR5123
012020042902IRBR3       010IRBBRASIL REON      NM   R$  000000000091900000000010350000000000911000000000099100000000010250000000001024000000000102577003000000000051111900000000050692385900000000000000009999123100000010000000000000BRIRBRACNOR4106
012020042902ISUS11      010IT NOW ISE  CI           R$  000000000320000000000032120000000003170000000000319700000000032120000000003110000000000350000008000000000000000100000000000000319770000000000000009999123100000010000000000000BRISUSCTF003100
012020042902ITLC34      010INTEL       DRN          R$  000000003315000000000334060000000033030000000003314200000000334060000000000000000000000000000006000000000000001870000000000061976400000000000000009999123100000010000000000000BRITLCBDR005137
012020042902ITSA3       010ITAUSA      ON      N1   R$  000000000109400000000011100000000001077000000000109300000000011100000000001092000000000111000840000000000000277700000000000303582500000000000000009999123100000010000000000000BRITSAACNOR0398
012020042902ITSA4       010ITAUSA      PN      N1   R$  000000000094600000000009530000000000912000000000092800000000009260000000000926000000000092740813000000000030467700000000028289926100000000000000009999123100000010000000000000BRITSAACNPR7398
012020042902ITUB3       010ITAUUNIBANCOON      N1   R$  000000000226500000000023230000000002248000000000228900000000022720000000002272000000000229002595000000000000611100000000001399163200000000000000009999123100000010000000000000BRITUBACNOR4267
012020042902ITUB4       010ITAUUNIBANCOPN      N1   R$  000000000240000000000024120000000002316000000000236500000000023660000000002366000000000237158061000000000031532100000000074589769600000000000000009999123100000010000000000000BRITUBACNPR1267
012020042902IVVB11      010ISHARE SP500CI           R$  000000001708200000000173250000000016860000000001701400000000168800000000016880000000001688702421000000000000987790000000016807018560000000000000009999123100000010000000000000BRIVVBCTF001100
012020042902JBDU3       010J B DUARTE  ON           R$  000000000021000000000002140000000000190000000000020300000000002010000000000192000000000020200036000000000000011500000000000002340100000000000000009999123100000010000000000000BRJBDUACNOR6142
012020042902JBDU4       010J B DUARTE  PN           R$  000000000012900000000001300000000000125000000000012700000000001290000000000126000000000012900051000000000000038500000000000004906700000000000000009999123100000010000000000000BRJBDUACNPR3142
012020042902JBSS3       010JBS         ON  ED  NM   R$  000000000239600000000024360000000002325000000000239000000000024000000000002400000000000240151591000000000015623300000000037354710400000000000000009999123100000010000000000000BRJBSSACNOR8115
012020042902JCPC34      010JC PENNEY   DRN          R$  000000000015600000000001560000000000141000000000014300000000001410000000000135000000000025000011000000000000037000000000000005307800000000000000009999123100000010000000000000BRJCPCBDR000100
012020042902JHSF3       010JHSF PART   ON      NM   R$  000000000045400000000004580000000000431000000000044400000000004390000000000439000000000044008756000000000006962800000000003092502900000000000000009999123100000010000000000000BRJHSFACNOR2115
012020042902JNJB34      010JOHNSON     DRN          R$  000000008110000000000819000000000081000000000008121900000000815520000000059769000000000000000009000000000000002360000000000191679160000000000000009999123100000010000000000000BRJNJBBDR002133
012020042902JPMC34      010JPMORGAN    DRN          R$  000000002727000000000272700000000026354000000002643500000000265330000000024500000000000000000005000000000000000790000000000020884200000000000000009999123100000010000000000000BRJPMCBDR009133
012020042902JPSA3       010JEREISSATI  ON           R$  000000000230100000000023500000000002282000000000232400000000023120000000002310000000000232901021000000000000202800000000000471441500000000000000009999123100000010000000000000BRJPSAACNOR6102
012020042902JSLG3       010JSL         ON      NM   R$  000000000193300000000020770000000001914000000000200100000000019840000000001984000000000198503996000000000001110100000000002221892900000000000000009999123100000010000000000000BRJSLGACNOR2113
012020042902KEPL3       010KEPLER WEBERON  ED       R$  000000000259900000000026310000000002583000000000260900000000026300000000002594000000000263000140000000000000073600000000000192030600000000000000009999123100000010000000000000BRKEPLACNOR1049
012020042902KHCB34      010KRAFT HEINZ DRN          R$  000000001660000000000168800000000016600000000001667000000000167420000000015000000000000000000004000000000000000180000000000003000620000000000000009999123100000010000000000000BRKHCBBDR007119
012020042902KLBN3       010KLABIN S/A  ON      N2   R$  000000000037000000000003700000000000354000000000036100000000003610000000000361000000000036201072000000000000312300000000000112895200000000000000009999123100000010000000000000BRKLBNACNOR2156
012020042902KLBN4       010KLABIN S/A  PN      N2   R$  000000000035800000000003620000000000346000000000035100000000003480000000000348000000000034902938000000000001612300000000000567060700000000000000009999123100000010000000000000BRKLBNACNPR9156
012020042902KLBN11      010KLABIN S/A  UNT     N2   R$  000000000179400000000018190000000001733000000000176800000000017550000000001753000000000175525216000000000008215400000000014529410400000000000000009999123100000010000000000000BRKLBNCDAM18128
012020042902KMBB34      010KIMBERLY CL DRN          R$  000000007498000000000749800000000074980000000007498000000000749800000000000000000000000000000001000000000000000300000000000022494000000000000000009999123100000010000000000000BRKMBBBDR009119
012020042902KMIC34      010KINDER MORGADRN          R$  000000000841100000000084110000000008411000000000841100000000084110000000000000000000000000000001000000000000000350000000000002943850000000000000009999123100000010000000000000BRKMICBDR002103
012020042902LAME3       010LOJAS AMERICON      N1   R$  000000000199000000000020750000000001960000000000202500000000020630000000002061000000000206309162000000000001876300000000003799517100000000000000009999123100000010000000000000BRLAMEACNOR9202
012020042902LAME4       010LOJAS AMERICPN      N1   R$  000000000258200000000026140000000002519000000000257300000000025770000000002570000000000257726437000000000005736700000000014761779800000000000000009999123100000010000000000000BRLAMEACNPR6202
012020042902LCAM3       010LOCAMERICA  ON      NM   R$  000000000144200000000014790000000001406000000000143200000000014080000000001408000000000141807815000000000001598000000000002289218700000000000000009999123100000010000000000000BRLCAMACNOR3132
012020042902LEVE3       010METAL LEVE  ON      NM   R$  000000000180100000000018940000000001801000000000186400000000018660000000001866000000000187601594000000000000328700000000000613001700000000000000009999123100000010000000000000BRLEVEACNOR2187
012020042902LIGT3       010LIGHT S/A   ON      NM   R$  000000000114100000000012040000000001121000000000116000000000011960000000001190000000000119609229000000000003372800000000003913440100000000000000009999123100000010000000000000BRLIGTACNOR2120
012020042902LINX3       010LINX        ON      NM   R$  000000000237800000000024330000000002312000000000236600000000023150000000002315000000000233706432000000000001104200000000002613630400000000000000009999123100000010000000000000BRLINXACNOR0117
012020042902LLIS3       010LE LIS BLANCON      NM   R$  000000000062600000000006600000000000626000000000064100000000006530000000000650000000000065300641000000000000218900000000000140469100000000000000009999123100000010000000000000BRLLISACNOR4113
012020042902LOGG3       010LOG COM PROPON      NM   R$  000000000237100000000024460000000002334000000000241300000000024230000000002423000000000242602117000000000000438400000000001058206900000000000000009999123100000010000000000000BRLOGGACNOR7102
012020042902LOGN3       010LOG-IN      ON      NM   R$  000000000140400000000014240000000001370000000000139800000000013900000000001388000000000139004004000000000001154100000000001614225500000000000000009999123100000010000000000000BRLOGNACNOR3104
012020042902LPSB3       010LOPES BRASILON      NM   R$  000000000042400000000004320000000000412000000000041900000000004160000000000416000000000041801759000000000000711800000000000298734800000000000000009999123100000010000000000000BRLPSBACNOR0111
012020042902LREN3       010LOJAS RENNERON      NM   R$  000000000411500000000041430000000004026000000000409400000000040570000000004055000000000406831300000000000007577700000000031027128400000000000000009999123100000010000000000000BRLRENACNOR1201
012020042902LUXM4       010TREVISA     PN           R$  000000000292000000000029250000000002920000000000292100000000029250000000002266000000000292500003000000000000000400000000000001168500000000000000009999123100000010000000000000BRLUXMACNPR4045
012020042902LWSA3       010LOCAWEB     ON      NM   R$  000000000238000000000024170000000002338000000000236600000000023550000000002352000000000235503249000000000000826300000000001955273000000000000000009999123100000010000000000000BRLWSAACNOR8100
012020042902MAPT4       010CEMEPE      PN           R$  000000000330000000000033000000000003300000000000330000000000033000000000000550000000000330000002000000000000000200000000000000660000000000000000009999123100000010000000000000BRMAPTACNPR5106
012020042902MATB11      010IT NOW IMAT CI           R$  000000000289800000000028980000000002844000000000286300000000028730000000002852000000000289800009000000000000000230000000000000658510000000000000009999123100000010000000000000BRMATBCTF001100
012020042902MCDC34      010MCDONALDS   DRN          R$  000000002559000000000256800000000025404000000002541600000000254040000000013000000000000000000007000000000000000760000000000019316710000000000000009999123100000010000000000000BRMCDCBDR000138
012020042902MDIA3       010M.DIASBRANCOON      NM   R$  000000000322200000000034300000000003172000000000332700000000033740000000003370000000000337609098000000000001580900000000005260543100000000000000009999123100000010000000000000BRMDIAACNOR7118
012020042902MDNE3       010MOURA DUBEUXON      NM   R$  000000000068700000000007270000000000665000000000068800000000006910000000000691000000000070401889000000000000761900000000000524358000000000000000009999123100000010000000000000BRMDNEACNOR9100
012020042902MEAL3       010IMC S/A     ON      NM   R$  000000000030700000000003470000000000292000000000031400000000003470000000000347000000000034811469000000000011965300000000003759190500000000000000009999123100000010000000000000BRMEALACNOR9105
012020042902MELI34      010MERCADOLIBREDRN          R$  000000003315000000000331500000000032000000000003225900000000322600000000031895000000003300000023000000000000005920000000000190977520000000000000009999123100000010000000000000BRMELIBDR006100
012020042902MERC4       010MERC FINANC PN           R$  000000000094000000000009400000000000931000000000093700000000009310000000000922000000000095500004000000000000000400000000000000374800000000000000009999123100000010000000000000BRMERCACNPR9173
012020042902MGEL4       010MANGELS INDLPN           R$  000000000058000000000005800000000000579000000000057900000000005790000000000502000000000057900003000000000000001100000000000000637900000000000000009999123100000010000000000000BRMGELACNPR3147
012020042902MGLU3       010MAGAZ LUIZA ON      NM   R$  000000000526000000000052890000000005015000000000513200000000050620000000005062000000000506758473000000000016780100000000086125376100000000000000009999123100000010000000000000BRMGLUACNOR2115
012020042902MILS3       010MILLS       ON      NM   R$  000000000052900000000005420000000000511000000000052900000000005110000000000511000000000051703010000000000001876900000000000994301800000000000000009999123100000010000000000000BRMILSACNOR2112
012020042902MNPR3       010MINUPAR     ON           R$  000000000044200000000004420000000000415000000000042900000000004250000000000425000000000044100025000000000000006000000000000002577800000000000000009999123100000010000000000000BRMNPRACNOR5122
012020042902MOVI3       010MOVIDA      ON      NM   R$  000000000117000000000011740000000001115000000000114800000000011380000000001138000000000113908125000000000002859500000000003284982600000000000000009999123100000010000000000000BRMOVIACNOR0111
012020042902MRCK34      010MERCK       DRN          R$  000000004505000000000450500000000043500000000004389600000000435600000000000000000000000000000014000000000000001290000000000056626900000000000000009999123100000010000000000000BRMRCKBDR003138
012020042902MRFG3       010MARFRIG     ON      NM   R$  000000000126000000000012980000000001226000000000126900000000012510000000001251000000000125233771000000000014699400000000018658814800000000000000009999123100000010000000000000BRMRFGACNOR0109
012020042902MRSA3B      010MRS LOGIST  ON      MB   R$  000000000360000000000036000000000003600000000000360000000000036000000000001736000000000450000001000000000000000100000000000000360000000000000000009999123100000010000000000000BRMRSAACNOR6119
012020042902MRVE3       010MRV         ON      NM   R$  000000000148100000000015770000000001481000000000153700000000015650000000001565000000000156617292000000000006618600000000010175044800000000000000009999123100000010000000000000BRMRVEACNOR2120
012020042902MSCD34      010MASTERCARD  DRN          R$  000000015180000000001541000000000151266000000015142100000001512660000000000000000000000000000005000000000000001840000000000278616150000000000000009999123100000010000000000000BRMSCDBDR006136
012020042902MSFT34      010MICROSOFT   DRN          R$  000000009539900000000960000000000093100000000009507400000000955310000000095531000000009600000029000000000000001640000000000155922020000000000000009999123100000010000000000000BRMSFTBDR005137
012020042902MTRE3       010MITRE REALTYON      NM   R$  000000000109800000000011000000000001052000000000107100000000010700000000001070000000000108002267000000000000532900000000000570823700000000000000009999123100000010000000000000BRMTREACNOR6100
012020042902MTSA4       010METISA      PN           R$  000000000155900000000016300000000001559000000000157000000000016190000000001570000000000162000012000000000000002700000000000004240600000000000000009999123100000010000000000000BRMTSAACNPR9055
012020042902MULT3       010MULTIPLAN   ON      N2   R$  000000000219900000000022830000000002150000000000223900000000022370000000002237000000000225620077000000000006085400000000013628735800000000000000009999123100000010000000000000BRMULTACNOR5127
012020042902MUTC34      010MICRON TECHNDRN          R$  000000002652000000000266700000000026507000000002652600000000265070000000026507000000000000000003000000000000002500000000000066316530000000000000009999123100000010000000000000BRMUTCBDR008100
012020042902MYPK3       010IOCHP-MAXIONON      NM   R$  000000000128800000000013570000000001284000000000132100000000013380000000001338000000000134308241000000000002390900000000003159849100000000000000009999123100000010000000000000BRMYPKACNOR7148
012020042902N1CL34      010NORWEGIAN CRDRN          R$  000000000848000000000084800000000008480000000000848000000000084800000000006500000000000000000002000000000000000110000000000000932800000000000000009999123100000010000000000000BRN1CLBDR001100
012020042902N1EM34      010NEWMONT GOLDDRN          R$  000000003350000000000335000000000033500000000003350000000000335000000000032500000000000000000001000000000000000010000000000000335000000000000000009999123100000010000000000000BRN1EMBDR005101
012020042902NEOE3       010NEOENERGIA  ON      NM   R$  000000000187800000000018930000000001826000000000186900000000018780000000001878000000000188518387000000000003216000000000006011193300000000000000009999123100000010000000000000BRNEOEACNOR3110
012020042902NFLX34      010NETFLIX     DRN          R$  000000022092000000002227480000000220920000000022100300000002223620000000000000000000000000000003000000000000005890000000001301710320000000000000009999123100000010000000000000BRNFLXBDR000101
012020042902NORD3       010NORDON MET  ON           R$  000000000041000000000004200000000000402000000000040900000000004020000000000361000000000041000010000000000000001300000000000000531900000000000000009999123100000010000000000000BRNORDACNOR7135
012020042902NTCO3       010GRUPO NATURAON      NM   R$  000000000354800000000036570000000003451000000000359000000000036320000000003632000000000363334433000000000007711500000000027689278900000000000000009999123100000010000000000000BRNTCOACNOR5100
012020042902NVDC34      010NVIDIA CORP DRN          R$  000000004080000000000408000000000040100000000004014300000000401000000000000000000000004120000002000000000000000160000000000006423000000000000000009999123100000010000000000000BRNVDCBDR008104
012020042902ODPV3       010ODONTOPREV  ON      NM   R$  000000000163500000000016720000000001583000000000161300000000016000000000001600000000000160607706000000000002102500000000003391502500000000000000009999123100000010000000000000BRODPVACNOR4174
012020042902OFSA3       010OUROFINO S/AON      NM   R$  000000000278600000000027860000000002650000000000269100000000026500000000002645000000000267500143000000000000020700000000000055721400000000000000009999123100000010000000000000BROFSAACNOR7109
012020042902OMGE3       010OMEGA GER   ON      NM   R$  000000000311900000000031500000000003012000000000306200000000030750000000003075000000000307901902000000000000791000000000002422165400000000000000009999123100000010000000000000BROMGEACNOR0101
012020042902ORCL34      010ORACLE      DRN          R$  000000002931000000000293100000000029310000000002931000000000293100000000000000000000000000000001000000000000000040000000000001172400000000000000009999123100000010000000000000BRORCLBDR007133
012020042902OXYP34      010OCCIDENT PTRDRN          R$  000000000445000000000044680000000004450000000000445800000000044680000000000000000000000000000003000000000000000190000000000000847120000000000000009999123100000010000000000000BROXYPBDR000103
012020042902P1PL34      010PPL CORP    DRN          R$  000000001424000000000142400000000014240000000001424000000000142400000000000000000000000000000001000000000000000030000000000000427200000000000000009999123100000010000000000000BRP1PLBDR001101
012020042902PARD3       010IHPARDINI   ON      NM   R$  000000000208900000000021240000000001980000000000203400000000020990000000002093000000000209902410000000000000383000000000000779381700000000000000009999123100000010000000000000BRPARDACNOR1113
012020042902PATI3       010PANATLANTICAON           R$  000000000208600000000021800000000001955000000000208100000000021000000000002006000000000209800030000000000000008500000000000017694900000000000000009999123100000010000000000000BRPATIACNOR6059
012020042902PCAR3       010P.ACUCAR-CBDON      NM   R$  000000000672100000000068280000000006600000000000670500000000067600000000006760000000000678609917000000000001559100000000010455035200000000000000009999123100000010000000000000BRPCARACNOR3162
012020042902PEPB34      010PEPSICO INC DRN          R$  000000007222300000000722230000000072223000000007222300000000722230000000000000000000000000000001000000000000001700000000000122779100000000000000009999123100000010000000000000BRPEPBBDR005130
012020042902PETR3       010PETROBRAS   ON      N2   R$  000000000185100000000019300000000001835000000000188800000000019000000000001899000000000190042424000000000026938000000000050879731100000000000000009999123100000010000000000000BRPETRACNOR9190
012020042902PETR4       010PETROBRAS   PN      N2   R$  000000000178000000000018480000000001753000000000180700000000018200000000001820000000000182111763000000000094528400000000170835498900000000000000009999123100000010000000000000BRPETRACNPR6196
012020042902PFIN11      010FIP PERFIN  CI           R$  000000001009900000000101480000000009915000000001008400000000099150000000009915000000001000000018000000000000002863000000000028871897000000000000009999123100000010000000000000BRPFINCTF001100
012020042902PFIZ34      010PFIZER      DRN          R$  000000002110000000000211000000000020450000000002064500000000206940000000020461000000000000000014000000000000001170000000000024155570000000000000009999123100000010000000000000BRPFIZBDR006138
012020042902PFRM3       010PROFARMA    ON      NM   R$  000000000046200000000004750000000000450000000000046200000000004740000000000470000000000047401181000000000000391800000000000181390000000000000000009999123100000010000000000000BRPFRMACNOR1112
012020042902PGCO34      010PG          DRN ED       R$  000000006321400000000634390000000063214000000006322300000000634390000000059000000000000000000002000000000000001880000000000118860320000000000000009999123100000010000000000000BRPGCOBDR001138
012020042902PIBB11      010IT NOW PIBB CI           R$  000000001378300000000140000000000013755000000001387100000000138440000000013844000000001400002079000000000000111910000000001552339320000000000000009999123100000010000000000000BRPIBBCTF005101
012020042902PINE4       010PINE        PN      N2   R$  000000000028900000000002930000000000284000000000028700000000002890000000000285000000000028900564000000000000392500000000000113039500000000000000009999123100000010000000000000BRPINEACNPR8144
012020042902PLAS3       010PLASCAR PARTON           R$  000000000043900000000004390000000000439000000000043900000000004390000000000402000000000047000001000000000000000300000000000000131700000000000000009999123100000010000000000000BRPLASACNOR2106
012020042902PMAM3       010PARANAPANEMAON      NM   R$  000000000125000000000012900000000001140000000000118900000000011690000000001169000000000117001389000000000000400700000000000476609600000000000000009999123100000010000000000000BRPMAMACNOR3037
012020042902PNVL3       010DIMED       ON           R$  000000000241200000000024180000000002374000000000238200000000023800000000002378000000000238100307000000000000086900000000000207006900000000000000009999123100000010000000000000BRPNVLACNOR9196
012020042902PNVL4       010DIMED       PN           R$  000000000186900000000018690000000001812000000000182900000000018400000000001832000000000184000068000000000000011500000000000021037100000000000000009999123100000010000000000000BRPNVLACNPR6196
012020042902POMO3       010MARCOPOLO   ON      N2   R$  000000000028200000000002920000000000281000000000028700000000002810000000000281000000000028800480000000000000205700000000000059067100000000000000009999123100000010000000000000BRPOMOACNOR0087
012020042902POMO4       010MARCOPOLO   PN      N2   R$  000000000029000000000003040000000000286000000000029500000000002960000000000296000000000029705761000000000008398800000000002485560900000000000000009999123100000010000000000000BRPOMOACNPR7087
012020042902POSI3       010POSITIVO TECON      NM   R$  000000000036600000000004520000000000357000000000040500000000004520000000000452000000000045314095000000000012909900000000005239535900000000000000009999123100000010000000000000BRPOSIACNOR9111
012020042902PPLA11      010PPLA        UNT          R$  000000000135700000000014090000000001341000000000137000000000013780000000001360000000000137800036000000000000011400000000000015622100000000000000009999123100000010000000000000BRPPLAUNT007101
012020042902PRIO3       010PETRORIO    ON      NM   R$  000000000232000000000023840000000002089000000000223300000000021510000000002151000000000215921053000000000008230400000000018380664400000000000000009999123100000010000000000000BRPRIOACNOR1102
012020042902PRNR3       010PRINER      ON      NM   R$  000000000082400000000008250000000000805000000000081500000000008140000000000814000000000082000324000000000000104700000000000085350800000000000000009999123100000010000000000000BRPRNRACNOR4105
012020042902PSSA3       010PORTO SEGUROON      NM   R$  000000000456000000000046800000000004528000000000461100000000046200000000004620000000000464902437000000000000349400000000001611128000000000000000009999123100000010000000000000BRPSSAACNOR7141
012020042902PTBL3       010PORTOBELLO  ON      NM   R$  000000000027500000000002870000000000267000000000027800000000002800000000000279000000000028103328000000000002288100000000000637015000000000000000009999123100000010000000000000BRPTBLACNOR8124
012020042902PTNT4       010PETTENATI   PN           R$  000000000039400000000004000000000000390000000000039600000000004000000000000396000000000040200048000000000000015600000000000006192900000000000000009999123100000010000000000000BRPTNTACNPR3044
012020042902QUAL3       010QUALICORP   ON      NM   R$  000000000261400000000027360000000002592000000000266800000000026640000000002664000000000266717326000000000003628400000000009681500000000000000000009999123100000010000000000000BRQUALACNOR6112
012020042902RADL3       010RAIADROGASILON      NM   R$  000000001120000000000114000000000010600000000001096800000000108580000000010806000000001087015502000000000003275500000000035928287600000000000000009999123100000010000000000000BRRADLACNOR0135
012020042902RAIL3       010RUMO S.A.   ON      NM   R$  000000000205700000000020570000000001934000000000197200000000019760000000001976000000000197741539000000000013565500000000026757695800000000000000009999123100000010000000000000BRRAILACNOR9101
012020042902RANI3       010IRANI       ON  ED       R$  000000000030000000000003300000000000300000000000031400000000003200000000000320000000000033000061000000000000016300000000000005126200000000000000009999123100000010000000000000BRRANIACNOR5052
012020042902RANI4       010IRANI       PN  ED       R$  000000000053900000000005830000000000502000000000054000000000005800000000000575000000000058100047000000000000008200000000000004432700000000000000009999123100000010000000000000BRRANIACNPR2053
012020042902RAPT3       010RANDON PART ON      N1   R$  000000000079300000000008080000000000739000000000076800000000007810000000000760000000000080000083000000000000027700000000000021294400000000000000009999123100000010000000000000BRRAPTACNOR7152
012020042902RAPT4       010RANDON PART PN      N1   R$  000000000086000000000009290000000000852000000000090200000000009170000000000916000000000091710344000000000005895300000000005318903400000000000000009999123100000010000000000000BRRAPTACNPR4152
012020042902RCSL3       010RECRUSUL    ON           R$  000000000020900000000002100000000000193000000000019800000000001960000000000196000000000019700100000000000000038500000000000007630300000000000000009999123100000010000000000000BRRCSLACNOR4130
012020042902RCSL4       010RECRUSUL    PN           R$  000000000014100000000001450000000000138000000000014000000000001390000000000138000000000013901509000000000000571800000000000080201600000000000000009999123100000010000000000000BRRCSLACNPR1130
012020042902RDNI3       010RNI         ON  ED  NM   R$  000000000074000000000007440000000000720000000000072900000000007200000000000720000000000072900213000000000000040800000000000029746500000000000000009999123100000010000000000000BRRDNIACNOR9113
012020042902REDE3       010REDE ENERGIAON           R$  000000000100200000000010020000000000982000000000099900000000010020000000000980000000000100400005000000000000001100000000000001099500000000000000009999123100000010000000000000BRREDEACNOR7114
012020042902RENT3       010LOCALIZA    ON      NM   R$  000000000357700000000036460000000003530000000000360700000000036150000000003615000000000362038021000000000009345600000000033716171300000000000000009999123100000010000000000000BRRENTACNOR4177
012020042902RIGG34      010TRANSOCEAN  DRN          R$  000000000056000000000005640000000000546000000000056100000000005640000000000563000000000060000020000000000000016510000000000009272050000000000000009999123100000010000000000000BRRIGGBDR000100
012020042902RLOG3       010COSAN LOG   ON      NM   R$  000000000160200000000016200000000001539000000000156800000000015700000000001569000000000157002592000000000000538800000000000844982100000000000000009999123100000010000000000000BRRLOGACNOR4106
012020042902ROMI3       010INDS ROMI   ON      NM   R$  000000000100000000000011670000000000998000000000109100000000011670000000001165000000000116701520000000000000505800000000000552179900000000000000009999123100000010000000000000BRROMIACNOR8172
012020042902RPAD3       010ALFA HOLDINGON           R$  000000000051800000000005180000000000518000000000051800000000005180000000000518000000000055500001000000000000000100000000000000051800000000000000009999123100000010000000000000BRRPADACNOR1197
012020042902RPAD6       010ALFA HOLDINGPNB          R$  000000000064500000000006450000000000641000000000064400000000006450000000000645000000000074000006000000000000001200000000000000773600000000000000009999123100000010000000000000BRRPADACNPB2197
012020042902RSID3       010ROSSI RESID ON      NM   R$  000000000041600000000004240000000000399000000000041200000000004190000000000409000000000042000369000000000000186400000000000076920600000000000000009999123100000010000000000000BRRSIDACNOR8119
012020042902S1YF34      010SYNCHRONY FIDRN          R$  000000001155000000000115500000000011550000000001155000000000115500000000000000000000000000000001000000000000000180000000000002079000000000000000009999123100000010000000000000BRS1YFBDR002101
012020042902SANB3       010SANTANDER BRON           R$  000000000133000000000013690000000001295000000000133700000000013650000000001364000000000136500847000000000000219800000000000294043000000000000000009999123100000010000000000000BRSANBACNOR8151
012020042902SANB4       010SANTANDER BRPN           R$  000000000141000000000014700000000001380000000000142200000000014540000000001442000000000145400877000000000000189400000000000269454200000000000000009999123100000010000000000000BRSANBACNPR5151
012020042902SANB11      010SANTANDER BRUNT          R$  000000000273300000000028350000000002671000000000277000000000028300000000002824000000000283013266000000000003294400000000009127706900000000000000009999123100000010000000000000BRSANBCDAM13144
012020042902SAPR3       010SANEPAR     ON      N2   R$  000000000054800000000005680000000000535000000000055400000000005520000000000552000000000056300366000000000000083900000000000046535800000000000000009999123100000010000000000000BRSAPRACNOR9149
012020042902SAPR4       010SANEPAR     PN      N2   R$  000000000050400000000005260000000000501000000000051300000000005250000000000524000000000052503897000000000001675700000000000860056200000000000000009999123100000010000000000000BRSAPRACNPR6149
012020042902SAPR11      010SANEPAR     UNT     N2   R$  000000000258400000000026840000000002563000000000262900000000026700000000002670000000000267109446000000000001726600000000004540622000000000000000009999123100000010000000000000BRSAPRCDAM13108
012020042902SBSP3       010SABESP      ON  EJ  NM   R$  000000000420900000000042090000000004048000000000411800000000041230000000004123000000000413913713000000000003372800000000013889792900000000000000009999123100000010000000000000BRSBSPACNOR5157
012020042902SBUB34      010STARBUCKS   DRN          R$  000000004278000000000427800000000041411000000004142400000000414110000000031000000000000000000004000000000000001840000000000076221600000000000000009999123100000010000000000000BRSBUBBDR005128
012020042902SCAR3       010SAO CARLOS  ON      NM   R$  000000000361900000000036660000000003490000000000355300000000035730000000003570000000000360000054000000000000008800000000000031273900000000000000009999123100000010000000000000BRSCARACNOR7127
012020042902SEER3       010SER EDUCA   ON      NM   R$  000000000169000000000018270000000001690000000000176800000000018030000000001803000000000180803173000000000000553800000000000979178300000000000000009999123100000010000000000000BRSEERACNOR5114
012020042902SGPS3       010SPRINGS     ON      NM   R$  000000000063500000000006450000000000613000000000062600000000006250000000000625000000000063000303000000000000119200000000000074677400000000000000009999123100000010000000000000BRSGPSACNOR4104
012020042902SHOW3       010TIME FOR FUNON      NM   R$  000000000019400000000001970000000000187000000000019000000000001900000000000190000000000019102091000000000001207200000000000230005700000000000000009999123100000010000000000000BRSHOWACNOR7105
012020042902SHUL4       010SCHULZ      PN           R$  000000000083500000000008560000000000825000000000084000000000008420000000000842000000000085100663000000000000248400000000000208713800000000000000009999123100000010000000000000BRSHULACNPR4135
012020042902SIMN34      010SIMON PROP  DRN          R$  000000000903000000000095000000000009030000000000917500000000092500000000009000000000001500000009000000000000000880000000000008074100000000000000009999123100000010000000000000BRSIMNBDR002103
012020042902SLCE3       010SLC AGRICOLAON      NM   R$  000000000259000000000026000000000002519000000000256300000000025320000000002532000000000253606136000000000001143300000000002930898800000000000000009999123100000010000000000000BRSLCEACNOR2113
012020042902SMAC11      010IT NOW SMALLCI           R$  000000000487900000000048950000000004797000000000486900000000048910000000004880000000000499800054000000000000098750000000000480901100000000000000009999123100000010000000000000BRSMACCTF001100
012020042902SMAL11      010ISHARES SMALCI           R$  000000000935600000000094500000000009227000000000939100000000094500000000009450000000000945503116000000000000658860000000006187511090000000000000009999123100000010000000000000BRSMALCTF002100
012020042902SMLS3       010SMILES      ON      NM   R$  000000000163200000000016670000000001540000000000159600000000015670000000001567000000000156911100000000000003507300000000005599146500000000000000009999123100000010000000000000BRSMLSACNOR1108
012020042902SMTO3       010SAO MARTINHOON      NM   R$  000000000188200000000019790000000001836000000000190600000000019420000000001942000000000194407461000000000001657200000000003160153600000000000000009999123100000010000000000000BRSMTOACNOR3116
012020042902SPRI3       010SPRINGER    ON           R$  000000000208000000000021000000000001840000000000196900000000018800000000001880000000000190000099000000000000011900000000000023438400000000000000009999123100000010000000000000BRSPRIACNOR2144
012020042902SPRI5       010SPRINGER    PNA          R$  000000000178000000000017800000000001780000000000178000000000017800000000001000000000000170000001000000000000000200000000000000356000000000000000009999123100000010000000000000BRSPRIACNPA5149
012020042902SPXI11      010IT NOW SPXI CI           R$  000000001660900000000171030000000016531000000001661400000000165430000000016500000000001654302601000000000000068170000000001132598930000000000000009999123100000010000000000000BRSPXICTF003100
012020042902SQIA3       010SINQIA      ON      NM   R$  000000000201800000000021150000000001971000000000205900000000020290000000002029000000000204405647000000000001216100000000002505000800000000000000009999123100000010000000000000BRSQIAACNOR6102
012020042902SSFO34      010SALESFORCE  DRN          R$  000000004338000000000433800000000043380000000004338000000000433800000000000000000000000000000001000000000000000040000000000001735200000000000000009999123100000010000000000000BRSSFOBDR003100
012020042902STBP3       010SANTOS BRP  ON      NM   R$  000000000042700000000004490000000000416000000000043100000000004370000000000436000000000043712147000000000005864800000000002533216100000000000000009999123100000010000000000000BRSTBPACNOR3116
012020042902SULA3       010SUL AMERICA ON      N2   R$  000000000211400000000021800000000002050000000000209400000000021450000000002014000000000214500027000000000000002900000000000006074600000000000000009999123100000010000000000000BRSULAACNOR2139
012020042902SULA4       010SUL AMERICA PN      N2   R$  000000000126000000000013200000000001251000000000129900000000013200000000001251000000000132000033000000000000004900000000000006365100000000000000009999123100000010000000000000BRSULAACNPR9139
012020042902SULA11      010SUL AMERICA UNT     N2   R$  000000000470000000000048130000000004581000000000467800000000047640000000004764000000000476516174000000000002720400000000012726774700000000000000009999123100000010000000000000BRSULACDAM12139
012020042902SUZB3       010SUZANO S.A. ON      NM   R$  000000000389000000000039350000000003835000000000389200000000038720000000003872000000000388124560000000000006535500000000025436274000000000000000009999123100000010000000000000BRSUZBACNOR0124
012020042902T1SO34      010THE SOUTHERNDRN          R$  000000003126000000000312600000000031260000000003126000000000312600000000000000000000000000000001000000000000000010000000000000312600000000000000009999123100000010000000000000BRT1SOBDR005101
012020042902TAEE3       010TAESA       ON      N2   R$  000000000096700000000009670000000000921000000000093000000000009270000000000927000000000093000192000000000000021800000000000020294500000000000000009999123100000010000000000000BRTAEEACNOR9129
012020042902TAEE4       010TAESA       PN      N2   R$  000000000094000000000009490000000000914000000000092200000000009230000000000922000000000092300260000000000000039100000000000036064500000000000000009999123100000010000000000000BRTAEEACNPR6129
012020042902TAEE11      010TAESA       UNT     N2   R$  000000000284400000000028490000000002744000000000277000000000027700000000002770000000000277117186000000000003200300000000008867250700000000000000009999123100000010000000000000BRTAEECDAM10129
012020042902TASA3       010TAURUS ARMASON      N2   R$  000000000037000000000003790000000000350000000000036300000000003650000000000365000000000036600128000000000000076500000000000027823700000000000000009999123100000010000000000000BRTASAACNOR7100
012020042902TASA4       010TAURUS ARMASPN      N2   R$  000000000039600000000004020000000000386000000000039200000000003990000000000390000000000039901927000000000000621500000000000243744000000000000000009999123100000010000000000000BRTASAACNPR4100
012020042902TCSA3       010TECNISA     ON      NM   R$  000000000008300000000000840000000000079000000000008100000000000810000000000081000000000008204748000000000014218400000000001159876300000000000000009999123100000010000000000000BRTCSAACNOR3111
012020042902TECN3       010TECHNOS     ON      NM   R$  000000000013300000000001370000000000124000000000013000000000001270000000000127000000000012900417000000000000441200000000000057368100000000000000009999123100000010000000000000BRTECNACNOR6106
012020042902TELB3       010TELEBRAS    ON           R$  000000000885000000000088500000000008400000000000864400000000088160000000008300000000000881700008000000000000000800000000000006915600000000000000009999123100000010000000000000BRTELBACNOR2139
012020042902TELB4       010TELEBRAS    PN           R$  000000000258600000000026450000000002415000000000251300000000024850000000002485000000000250000153000000000000035900000000000090217800000000000000009999123100000010000000000000BRTELBACNPR9139
012020042902TEND3       010TENDA       ON      NM   R$  000000000234700000000024780000000002321000000000242000000000024250000000002425000000000242807642000000000001572900000000003806946700000000000000009999123100000010000000000000BRTENDACNOR4107
012020042902TESA3       010TERRA SANTA ON      NM   R$  000000000120000000000012190000000001140000000000117600000000011600000000001160000000000119500143000000000000018400000000000021650300000000000000009999123100000010000000000000BRTESAACNOR9101
012020042902TGMA3       010TEGMA       ON      NM   R$  000000000187500000000019710000000001825000000000186500000000019650000000001956000000000196506481000000000003066400000000005719426900000000000000009999123100000010000000000000BRTGMAACNOR7133
012020042902TGTB34      010TARGET CORP DRN          R$  000000006056900000000605690000000060569000000006056900000000605690000000000000000000000000000001000000000000000800000000000048455200000000000000009999123100000010000000000000BRTGTBBDR004118
012020042902TIET3       010AES TIETE E ON      N2   R$  000000000034500000000003540000000000340000000000034600000000003470000000000345000000000034700541000000000000175500000000000060760900000000000000009999123100000010000000000000BRTIETACNOR0122
012020042902TIET4       010AES TIETE E PN      N2   R$  000000000029500000000002980000000000285000000000028900000000002900000000000289000000000029000848000000000000530000000000000153395900000000000000009999123100000010000000000000BRTIETACNPR7122
012020042902TIET11      010AES TIETE E UNT     N2   R$  000000000153300000000015380000000001485000000000150100000000015000000000001500000000000150105686000000000001385500000000002080675400000000000000009999123100000010000000000000BRTIETCDAM15122
012020042902TIMP3       010TIM PART S/AON      NM   R$  000000000126900000000013190000000001238000000000128400000000013090000000001300000000000130919431000000000007254000000000009318225900000000000000009999123100000010000000000000BRTIMPACNOR1114
012020042902TJXC34      010TJX COMPANIEDRN          R$  000000002850000000000285000000000028000000000002830000000000280000000000000000000000000000000002000000000000000050000000000001415000000000000000009999123100000010000000000000BRTJXCBDR008103
012020042902TMOS34      010THERMFISCHERDRN          R$  000000004452800000000445280000000044528000000004452800000000445280000000000000000000000000000001000000000000000030000000000001335840000000000000009999123100000010000000000000BRTMOSBDR007116
012020042902TOTS3       010TOTVS       ON  ED  NM   R$  000000000588000000000059500000000005680000000000582300000000058800000000005878000000000588013202000000000002179100000000012689074700000000000000009999123100000010000000000000BRTOTSACNOR8134
012020042902TPIS3       010TRIUNFO PARTON      NM   R$  000000000010500000000001050000000000101000000000010200000000001030000000000103000000000010400369000000000000413900000000000042597400000000000000009999123100000010000000000000BRTPISACNOR8115
012020042902TRIS3       010TRISUL      ON  ED  NM   R$  000000000085500000000008620000000000803000000000083100000000008190000000000819000000000082009450000000000002882500000000002395686200000000000000009999123100000010000000000000BRTRISACNOR4113
012020042902TRPL3       010TRAN PAULISTON  EJ  N1   R$  000000000231000000000023480000000002300000000000231800000000023000000000002295000000000230000014000000000000001700000000000003940600000000000000009999123100000010000000000000BRTRPLACNOR4175
012020042902TRPL4       010TRAN PAULISTPN  EJ  N1   R$  000000000196400000000019700000000001917000000000193300000000019420000000001942000000000194306100000000000001537500000000002972609200000000000000009999123100000010000000000000BRTRPLACNPR1175
012020042902TSLA34      010TESLA INC   DRN          R$  000000011019900000001101990000000106000000000010810600000001080000000000105520000000010880000037000000000000000640000000000069187980000000000000009999123100000010000000000000BRTSLABDR008100
012020042902TUPY3       010TUPY        ON      NM   R$  000000000152900000000015930000000001522000000000156600000000015640000000001564000000000156603259000000000000750900000000001176151600000000000000009999123100000010000000000000BRTUPYACNOR1175
012020042902TXSA34      010TERNIUMSA   DRN          R$  000000000773000000000077300000000007730000000000773000000000077300000000000000000000000000000001000000000000000050000000000000386500000000000000009999123100000010000000000000BRTXSABDR003100
012020042902U1AL34      010UNITED AIRLIDRN          R$  000000000821200000000084250000000008212000000000831700000000083500000000000000000000001550000004000000000000000520000000000004324870000000000000009999123100000010000000000000BRU1ALBDR006100
012020042902U1BE34      010UBER TECH INDRN          R$  000000001706000000000171030000000017000000000001701200000000171030000000013000000000001781000005000000000000000240000000000004083030000000000000009999123100000010000000000000BRU1BEBDR009100
012020042902U1RI34      010UNITED RENTADRN          R$  000000003390000000000339000000000033500000000003370000000000335000000000033800000000000000000002000000000000000100000000000003370000000000000000009999123100000010000000000000BRU1RIBDR006100
012020042902UCAS3       010UNICASA     ON      NM   R$  000000000039300000000004370000000000387000000000041200000000004370000000000420000000000043700439000000000000210700000000000086941700000000000000009999123100000010000000000000BRUCASACNOR1107
012020042902UGPA3       010ULTRAPAR    ON      NM   R$  000000000148100000000015480000000001465000000000152200000000015370000000001536000000000153721504000000000008054800000000012264624400000000000000009999123100000010000000000000BRUGPAACNOR8146
