00COTAHIST.2015BOVESPA 20150128                                                                                                                                                                                                                      
012015012802AAPL34      010APPLE       DRN          R$  000000000308000000000030800000000003080000000000308000000000030800000000003015000000000307000001000000000000001000000000000003080000000000000000009999123100000010000000000000BRAAPLBDR004111
012015012896AAPL34F     020APPLE       DRN          R$  000000000300000000000030000000000003000000000000300000000000030000000000000000000000000350000001000000000000000005000000000000015000000000000000009999123100000010000000000000BRAAPLBDR004111
012015012802ABCB4       010ABC BRASIL  PN      N2   R$  000000000113000000000011430000000001125000000000113300000000011350000000001125000000000113500346000000000000098500000000000111618200000000000000009999123100000010000000000000BRABCBACNPR4123
012015012896ABCB4F      020ABC BRASIL  PN      N2   R$  000000000113200000000011320000000001132000000000113200000000011320000000001115000000000121200001000000000000000022000000000000024904000000000000009999123100000010000000000000BRABCBACNPR4123
012015012812ABCP11      010FII ABC IMOBCI           R$  000000000097900000000009790000000000979000000000097900000000009790000000000960000000000099700001000000000000000003000000000000002937000000000000009999123100000010000000000000BRABCPCTF000231
012015012802ABEV3       010AMBEV S/A   ON           R$  000000000168300000000017180000000001678000000000170300000000017110000000001711000000000171521339000000000009666600000000016470717000000000000000009999123100000010000000000000BRABEVACNOR1107
012015012896ABEV3F      020AMBEV S/A   ON           R$  000000000168200000000017160000000001681000000000170100000000017010000000001701000000000171700155000000000000003781000000000006435376000000000000009999123100000010000000000000BRABEVACNOR1107
012015012862ABEV3T      030AMBEV S/A   ON        061R$  000000000171800000000017190000000001718000000000171800000000017190000000000000000000000000000002000000000000000300000000000000515511000000000000009999123100000010000000000000BRABEVACNOR1107
012015012878ABEVA80     070ABEV        ON        000R$  000000000008600000000000860000000000073000000000007300000000000730000000000000000000000000000002000000000000087100000000000006359600000000000200002016011800000010000000000000BRABEVACNOR1107
012015012878ABEVB15     070ABEV        ON        000R$  000000000020500000000002330000000000205000000000021200000000002330000000000000000000000000000002000000000000003700000000000000786500000000000148202015020900000010000000000000BRABEVACNOR1104
012015012878ABEVB17     070ABEV  FM    ON        000R$  000000000002700000000000460000000000026000000000004000000000000460000000000007000000000004700041000000000000088400000000000003594900000000000168202015020900000010000000000000BRABEVACNOR1104
012015012878ABEVB18     070ABEV  FM    ON        000R$  000000000000300000000000050000000000003000000000000300000000000050000000000001000000000000800006000000000000017300000000000000063900000000000178202015020900000010000000000000BRABEVACNOR1104
012015012878ABEVB36     070ABEV  FM    ON        000R$  000000000006900000000000890000000000069000000000008100000000000880000000000000000000000000000025000000000000063100000000000005151000000000000163202015020900000010000000000000BRABEVACNOR1104
012015012878ABEVB37     070ABEV  FM    ON        000R$  000000000000800000000000170000000000008000000000001400000000000170000000000001000000000000000011000000000000075200000000000001125300000000000173202015020900000010000000000000BRABEVACNOR1104
012015012878ABEVB57     070ABEVE       ON        000R$  000000000006500000000000650000000000063000000000006400000000000630000000000000000000000000000013000000000000015800000000000001012400000000000165702015020900000010000000000000BRABEVACNOR1105
012015012878ABEVB58     070ABEV  FM    ON        000R$  000000000000100000000000020000000000001000000000000100000000000020000000000000000000000000000002000000000000010200000000000000015300000000000183202015020900000010000000000000BRABEVACNOR1104
012015012878ABEVB76     070ABEVE       ON        000R$  000000000000700000000000080000000000007000000000000700000000000080000000000000000000000002500006000000000000018700000000000000135900000000000175702015020900000010000000000000BRABEVACNOR1106
012015012878ABEVB86     070ABEV        ON        000R$  000000000016300000000001630000000000163000000000016300000000001630000000000000000000000000000001000000000000005000000000000000815000000000000153202015020900000010000000000000BRABEVACNOR1101
012015012878ABEVB98     070ABEVE       ON        000R$  000000000000300000000000030000000000003000000000000300000000000030000000000000000000000001500003000000000000005000000000000000015000000000000180702015020900000010000000000000BRABEVACNOR1103
012015012878ABEVC16     070ABEV        ON        000R$  000000000031000000000003100000000000310000000000031000000000003100000000000000000000000058100001000000000000000700000000000000217000000000000160002016032100000010000000000000BRABEVACNOR1107
012015012878ABEVC17     070ABEV  FM    ON        000R$  000000000011500000000001150000000000112000000000011200000000001130000000000000000000000000000006000000000000009300000000000001047900000000000163202015031600000010000000000000BRABEVACNOR1101
012015012878ABEVC18     070ABEV  FM    ON        000R$  000000000002500000000000250000000000022000000000002300000000000240000000000017000000000003000026000000000000045400000000000001089400000000000178202015031600000010000000000000BRABEVACNOR1104
012015012878ABEVC19     070ABEV  FM    ON        000R$  000000000001000000000000130000000000010000000000001100000000000120000000000007000000000001800017000000000000040100000000000000466000000000000183202015031600000010000000000000BRABEVACNOR1101
012015012878ABEVC47     070ABEV  FM    ON        000R$  000000000007200000000000760000000000072000000000007300000000000750000000000009000000000000000010000000000000027600000000000002031700000000000168202015031600000010000000000000BRABEVACNOR1104
012015012878ABEVC48     070ABEVE       ON        000R$  000000000001200000000000160000000000011000000000001300000000000150000000000000000000000002000097000000000000366900000000000005118600000000000180702015031600000010000000000000BRABEVACNOR1104
012015012878ABEVC57     070ABEV  FM    ON        000R$  000000000004200000000000420000000000042000000000004200000000000420000000000000000000000007000001000000000000001000000000000000042000000000000173202015031600000010000000000000BRABEVACNOR1104
012015012878ABEVC76     070ABEV        ON        000R$  000000000017900000000001790000000000179000000000017900000000001790000000000000000000000000000001000000000000004500000000000000805500000000000153202015031600000010000000000000BRABEVACNOR1101
012015012878ABEVD18     070ABEV        ON        000R$  000000000004200000000000420000000000041000000000004100000000000410000000000000000000000000000010000000000000030700000000000001289200000000000178202015042000000010000000000000BRABEVACNOR1105
012015012878ABEVG20     070ABEV        ON        000R$  000000000012500000000001400000000000120000000000012800000000001400000000000000000000000000000005000000000000054200000000000006940500000000000200002016071800000010000000000000BRABEVACNOR1107
012015012878ABEVH19     070ABEV        ON        000R$  000000000006700000000000670000000000067000000000006700000000000670000000000000000000000000000001000000000000000100000000000000006700000000000190002015081700000010000000000000BRABEVACNOR1107
012015012882ABEVM76     080ABEVE       ON        000R$  000000000006300000000000630000000000063000000000006300000000000630000000000000000000000000000002000000000000087100000000000005487300000000000165002016011800000010000000000000BRABEVACNOR1107
012015012882ABEVN16     080ABEVE FM    ON        000R$  000000000000100000000000010000000000001000000000000100000000000010000000000000000000000000100005000000000000035700000000000000035700000000000158202015020900000010000000000000BRABEVACNOR1104
012015012882ABEVN17     080ABEVE FM    ON        000R$  000000000002000000000000200000000000009000000000001000000000000090000000000000000000000000900051000000000000095300000000000000995000000000000168202015020900000010000000000000BRABEVACNOR1104
012015012882ABEVN36     080ABEVE FM    ON        000R$  000000000000400000000000040000000000004000000000000400000000000040000000000000000000000000000001000000000000002000000000000000008000000000000163202015020900000010000000000000BRABEVACNOR1104
012015012882ABEVN37     080ABEVE FM    ON        000R$  000000000004600000000000530000000000031000000000003900000000000320000000000000000000000000000011000000000000016800000000000000661800000000000173202015020900000010000000000000BRABEVACNOR1104
012015012882ABEVO57     080ABEVE FM    ON        000R$  000000000005900000000000590000000000045000000000005300000000000450000000000000000000000000000020000000000000096200000000000005134200000000000173202015031600000010000000000000BRABEVACNOR1104
012015012882ABEVP17     080ABEVE       ON        000R$  000000000003700000000000370000000000037000000000003700000000000370000000000000000000000030000006000000000000030700000000000001135900000000000168202015042000000010000000000000BRABEVACNOR1105
012015012802ABRE3       010ABRIL EDUCA ON      NM   R$  000000000099000000000010000000000000983000000000099300000000010000000000000987000000000100000508000000000001104600000000001097413800000000000000009999123100000010000000000000BRABREACNOR9103
012015012896ABRE3F      020ABRIL EDUCA ON      NM   R$  000000000098700000000009870000000000987000000000098700000000009870000000000901000000000100000001000000000000000072000000000000071064000000000000009999123100000010000000000000BRABREACNOR9103
012015012812AEFI11      010FII AESAPAR CI           R$  000000001075000000000107690000000010571000000001066400000000106100000000010610000000001071000027000000000000001289000000000013746729000000000000009999123100000010000000000000BRAEFICTF002137
012015012812AGCX11      010FII AG CAIXACI           R$  000000009800000000000980000000000096100000000009752500000000961000000000096200000000009710000010000000000000000183000000000017847110000000000000009999123100000010000000000000BRAGCXCTF003126
012015012802AGRO3       010BRASILAGRO  ON      NM   R$  000000000084500000000008450000000000835000000000084000000000008400000000000830000000000084200005000000000000001200000000000001008000000000000000009999123100000010000000000000BRAGROACNOR7103
012015012802ALLL3       010ALL AMER LATON      NM   R$  000000000038700000000004010000000000382000000000039200000000003960000000000394000000000039704409000000000002604100000000001020915000000000000000009999123100000010000000000000BRALLLACNOR6119
012015012896ALLL3F      020ALL AMER LATON      NM   R$  000000000038200000000004000000000000382000000000039000000000003850000000000385000000000039500015000000000000000479000000000000186978000000000000009999123100000010000000000000BRALLLACNOR6119
012015012896ALPA3F      020ALPARGATAS  ON      N1   R$  000000000070200000000007020000000000702000000000070200000000007020000000000703000000000077300001000000000000000060000000000000042120000000000000009999123100000010000000000000BRALPAACNOR0209
012015012802ALPA4       010ALPARGATAS  PN      N1   R$  000000000084700000000008470000000000835000000000084000000000008420000000000842000000000084300695000000000000641700000000000539217600000000000000009999123100000010000000000000BRALPAACNPR7209
012015012896ALPA4F      020ALPARGATAS  PN      N1   R$  000000000085000000000008500000000000826000000000084100000000008360000000000826000000000084500006000000000000000250000000000000210422000000000000009999123100000010000000000000BRALPAACNPR7209
012015012862ALPA4T      030ALPARGATAS  PN      N1090R$  000000000086900000000008700000000000869000000000086900000000008700000000000000000000000000000002000000000000000590000000000000512809000000000000009999123100000010000000000000BRALPAACNPR7209
012015012802ALSC3       010ALIANSCE    ON      NM   R$  000000000175900000000017660000000001702000000000171700000000017050000000001705000000000172101815000000000000276900000000000475561100000000000000009999123100000010000000000000BRALSCACNOR0106
012015012896ALSC3F      020ALIANSCE    ON      NM   R$  000000000173500000000017350000000001735000000000173500000000017350000000001680000000000175000001000000000000000001000000000000001735000000000000009999123100000010000000000000BRALSCACNOR0106
012015012802ALUP11      010ALUPAR      UNT     N2   R$  000000000182700000000018830000000001818000000000185700000000018800000000001871000000000188000901000000000000119200000000000221364000000000000000009999123100000010000000000000BRALUPCDAM15102
012015012896ALUP11F     020ALUPAR      UNT     N2   R$  000000000182900000000018780000000001829000000000185400000000018780000000001800000000000187800020000000000000000479000000000000888374000000000000009999123100000010000000000000BRALUPCDAM15102
012015012802AMAR3       010LOJAS MARISAON      NM   R$  000000000141600000000014770000000001411000000000145300000000014540000000001454000000000145900367000000000000160300000000000233013100000000000000009999123100000010000000000000BRAMARACNOR4110
012015012802AMGN34      010AMGEN       DRN          R$  000000004048200000000404820000000040482000000004048200000000404820000000040265000000004081000001000000000000000400000000000016192800000000000000009999123100000010000000000000BRAMGNBDR004112
012015012802ANIM3       010ANIMA       ON      NM   R$  000000000230100000000023420000000002200000000000223700000000022000000000002200000000000220900343000000000000085300000000000190890800000000000000009999123100000010000000000000BRANIMACNOR6101
012015012896ANIM3F      020ANIMA       ON      NM   R$  000000000228200000000022870000000002230000000000226900000000022300000000002122000000000234900003000000000000000080000000000000181577000000000000009999123100000010000000000000BRANIMACNOR6101
012015012802AORE3       010ALL ORE     ON           R$  000000000004000000000000400000000000028000000000003200000000000280000000000027000000000002801284000000000005927900000000000193958200000000000000009999123100000010000000000000BRAOREACNOR2100
012015012896AORE3F      020ALL ORE     ON           R$  000000000003500000000000350000000000030000000000003300000000000330000000000017000000000003600006000000000000000238000000000000007901000000000000009999123100000010000000000000BRAOREACNOR2100
012015012802ARTR3       010ARTERIS     ON      NM   R$  000000000129900000000013020000000001282000000000129300000000013000000000001290000000000130000488000000000000161600000000000208995500000000000000009999123100000010000000000000BRARTRACNOR3104
012015012896ARTR3F      020ARTERIS     ON      NM   R$  000000000129200000000013000000000001283000000000129400000000012830000000001272000000000137000007000000000000000184000000000000238139000000000000009999123100000010000000000000BRARTRACNOR3104
012015012802ARZZ3       010AREZZO CO   ON      NM   R$  000000000252500000000025580000000002490000000000251500000000024900000000002490000000000251300136000000000000047900000000000120503400000000000000009999123100000010000000000000BRARZZACNOR3115
012015012896ARZZ3F      020AREZZO CO   ON      NM   R$  000000000253500000000025350000000002490000000000252700000000024900000000002503000000000258000009000000000000000325000000000000821555000000000000009999123100000010000000000000BRARZZACNOR3115
012015012802BALM4       010BAUMER      PN           R$  000000000102000000000010200000000001020000000000102000000000010200000000001018000000000102000001000000000000000200000000000000204000000000000000009999123100000010000000000000BRBALMACNPR2044
012015012802BAZA3       010AMAZONIA    ON           R$  000000000002500000000000250000000000024000000000002400000000000240000000000024000000000002500005000000000000015000000000000000363000000000000000009999123100000010000000000000BRBAZAACNOR0165
012015012802BBAS3       010BRASIL      ON      NM   R$  000000000226400000000022900000000002201000000000222600000000022010000000002201000000000220617884000000000005799500000000012911829500000000000000009999123100000010000000000000BRBBASACNOR3249
012015012896BBAS3F      020BRASIL      ON      NM   R$  000000000228700000000022870000000002205000000000222800000000022050000000002205000000000221400250000000000000006680000000000014881709000000000000009999123100000010000000000000BRBBASACNOR3249
012015012862BBAS3T      030BRASIL      ON      NM030R$  000000000225200000000022830000000002219000000000225100000000022200000000000000000000000000000046000000000000215800000000000485963580000000000000009999123100000010000000000000BRBBASACNOR3249
012015012862BBAS3T      030BRASIL      ON      NM090R$  000000000231500000000023160000000002293000000000229600000000022940000000000000000000000000000004000000000000003500000000000008038867000000000000009999123100000010000000000000BRBBASACNOR3249
012015012862BBAS3T      030BRASIL      ON      NM152R$  000000000232500000000023260000000002325000000000232500000000023260000000000000000000000000000002000000000000000500000000000001162627000000000000009999123100000010000000000000BRBBASACNOR3249
012015012862BBAS3T      030BRASIL      ON      NM363R$  000000000252200000000025230000000002522000000000252200000000025230000000000000000000000000000002000000000000000100000000000000252288000000000000009999123100000010000000000000BRBBASACNOR3249
012015012878BBASB21     070BBAS        ON      NM000R$  000000000021000000000002100000000000210000000000021000000000002100000000000150000000000000000003000000000000000800000000000000168000000000000203602015020900000010000000000000BRBBASACNOR3246
012015012878BBASB22     070BBAS  FM    ON      NM000R$  000000000014300000000001770000000000114000000000013700000000001200000000000000000000000018800149000000000000203500000000000028048100000000000213602015020900000010000000000000BRBBASACNOR3246
012015012878BBASB23     070BBAS  FM    ON      NM000R$  000000000010000000000001000000000000057000000000007700000000000580000000000050000000000007000164000000000000479400000000000037085100000000000223602015020900000010000000000000BRBBASACNOR3246
012015012878BBASB24     070BBAS  FM    ON      NM000R$  000000000004200000000000480000000000024000000000003300000000000270000000000026000000000002700175000000000000450700000000000014952200000000000233602015020900000010000000000000BRBBASACNOR3246
012015012878BBASB25     070BBAS  FM    ON      NM000R$  000000000001300000000000190000000000011000000000001400000000000110000000000010000000000001100155000000000000536400000000000007601900000000000243602015020900000010000000000000BRBBASACNOR3246
012015012878BBASB26     070BBAS  FM    ON      NM000R$  000000000000300000000000070000000000003000000000000500000000000040000000000004000000000000600055000000000000122600000000000000671900000000000253602015020900000010000000000000BRBBASACNOR3246
012015012878BBASB27     070BBAS        ON      NM000R$  000000000000300000000000030000000000002000000000000200000000000020000000000002000000000000400005000000000000053600000000000000153300000000000263602015020900000010000000000000BRBBASACNOR3246
012015012878BBASB28     070BBAS        ON      NM000R$  000000000000100000000000010000000000001000000000000100000000000010000000000000000000000000200001000000000000010000000000000000010000000000000273602015020900000010000000000000BRBBASACNOR3246
012015012878BBASC21     070BBAS        ON      NM000R$  000000000025300000000002530000000000251000000000025200000000002510000000000000000000000000000002000000000000003500000000000000883500000000000206502015031600000010000000000000BRBBASACNOR3247
012015012878BBASC22     070BBAS  FM    ON      NM000R$  000000000020600000000002160000000000172000000000018800000000001730000000000100000000000019800054000000000000063200000000000011886600000000000216502015031600000010000000000000BRBBASACNOR3247
012015012878BBASC23     070BBAS  FM    ON      NM000R$  000000000013600000000001600000000000120000000000013100000000001200000000000106000000000013000050000000000000051100000000000006731400000000000226502015031600000010000000000000BRBBASACNOR3247
012015012878BBASC24     070BBAS  FM    ON      NM000R$  000000000009900000000001080000000000078000000000009200000000000780000000000061000000000010800047000000000000074900000000000006903900000000000236502015031600000010000000000000BRBBASACNOR3247
012015012878BBASC25     070BBAS  FM    ON      NM000R$  000000000005800000000000720000000000048000000000005600000000000490000000000041000000000008800037000000000000047700000000000002692300000000000246502015031600000010000000000000BRBBASACNOR3247
012015012878BBASC26     070BBAS  FM    ON      NM000R$  000000000003700000000000380000000000030000000000003300000000000310000000000019000000000004800017000000000000031600000000000001067400000000000256502015031600000010000000000000BRBBASACNOR3247
012015012878BBASC27     070BBAS        ON      NM000R$  000000000001900000000000200000000000019000000000001900000000000190000000000011000000000003100003000000000000005100000000000000097000000000000266502015031600000010000000000000BRBBASACNOR3247
012015012878BBASD41     070BBASE       ON      NM000R$  000000000021500000000002150000000000215000000000021500000000002150000000000000000000000000000001000000000000000100000000000000021500000000000221802015042000000010000000000000BRBBASACNOR3243
012015012882BBASN20     080BBASE       ON      NM000R$  000000000000400000000000050000000000004000000000000400000000000050000000000000000000000001200002000000000000000800000000000000003500000000000193602015020900000010000000000000BRBBASACNOR3246
012015012882BBASN21     080BBASE       ON      NM000R$  000000000001000000000000100000000000010000000000001000000000000100000000000000000000000000000001000000000000002500000000000000025000000000000203602015020900000010000000000000BRBBASACNOR3246
012015012882BBASN22     080BBASE FM    ON      NM000R$  000000000002700000000000380000000000021000000000002800000000000350000000000000000000000003800031000000000000048500000000000001362700000000000213602015020900000010000000000000BRBBASACNOR3246
012015012882BBASN23     080BBASE FM    ON      NM000R$  000000000006000000000000810000000000048000000000006700000000000750000000000075000000000000000042000000000000055100000000000003703800000000000223602015020900000010000000000000BRBBASACNOR3246
012015012882BBASN24     080BBASE FM    ON      NM000R$  000000000009800000000001460000000000090000000000012500000000001420000000000006000000000021200139000000000000190900000000000024022100000000000233602015020900000010000000000000BRBBASACNOR3246
012015012882BBASN25     080BBASE       ON      NM000R$  000000000022000000000002200000000000210000000000021100000000002100000000000190000000000000000003000000000000003900000000000000824000000000000243602015020900000010000000000000BRBBASACNOR3246
012015012882BBASN30     080BBASE       ON      NM000R$  000000000070000000000007000000000000685000000000068600000000006850000000000001000000000000000004000000000000001000000000000000686500000000000293602015020900000010000000000000BRBBASACNOR3246
012015012882BBASN50     080BBASE FM    ON      NM000R$  000000000000700000000000080000000000007000000000000700000000000080000000000000000000000001000003000000000000001500000000000000010800000000000198602015020900000010000000000000BRBBASACNOR3249
012015012882BBASO19     080BBASE       ON      NM000R$  000000000002300000000000290000000000023000000000002500000000000290000000000000000000000000000007000000000000020600000000000000534400000000000186502015031600000010000000000000BRBBASACNOR3247
012015012882BBASO21     080BBASE FM    ON      NM000R$  000000000005600000000000660000000000052000000000005900000000000650000000000005000000000000000025000000000000085500000000000005104700000000000206502015031600000010000000000000BRBBASACNOR3247
012015012882BBASO22     080BBASE FM    ON      NM000R$  000000000007800000000001010000000000078000000000009200000000001010000000000092000000000011000012000000000000017100000000000001574900000000000216502015031600000010000000000000BRBBASACNOR3247
012015012882BBASO23     080BBASE FM    ON      NM000R$  000000000012500000000001480000000000113000000000012800000000001460000000000000000000000000000016000000000000022000000000000002827500000000000226502015031600000010000000000000BRBBASACNOR3247
012015012882BBASO24     080BBASE FM    ON      NM000R$  000000000017000000000002040000000000164000000000018900000000002040000000000000000000000000000040000000000000048700000000000009231100000000000236502015031600000010000000000000BRBBASACNOR3247
012015012882BBASO25     080BBASE       ON      NM000R$  000000000025500000000002670000000000255000000000025600000000002670000000000000000000000000000002000000000000003000000000000000769800000000000246502015031600000010000000000000BRBBASACNOR3247
012015012882BBASO49     080BBASE       ON      NM000R$  000000000003500000000000350000000000035000000000003500000000000350000000000000000000000000000002000000000000003400000000000000119000000000000191502015031600000010000000000000BRBBASACNOR3247
012015012802BBDC3       010BRADESCO    ON      N1   R$  000000000344600000000035080000000003396000000000342800000000033960000000003396000000000345103482000000000000709700000000002432883200000000000000009999123100000010000000000000BRBBDCACNOR1626
012015012896BBDC3F      020BRADESCO    ON      N1   R$  000000000350000000000035010000000003391000000000343900000000034290000000003390000000000351100073000000000000001047000000000003600717000000000000009999123100000010000000000000BRBBDCACNOR1626
012015012802BBDC4       010BRADESCO    PN      N1   R$  000000000355500000000036450000000003514000000000354900000000035140000000003513000000000351423584000000000009625200000000034161785300000000000000009999123100000010000000000000BRBBDCACNPR8626
012015012896BBDC4F      020BRADESCO    PN      N1   R$  000000000358300000000036460000000003516000000000355000000000035390000000003520000000000353000467000000000000007293000000000025881792000000000000009999123100000010000000000000BRBBDCACNPR8626
012015012862BBDC4T      030BRADESCO    PN      N1016R$  000000000356900000000035700000000003544000000000355200000000035480000000000000000000000000000008000000000000035000000000000124339477000000000000009999123100000010000000000000BRBBDCACNPR8626
012015012862BBDC4T      030BRADESCO    PN      N1030R$  000000000356200000000035630000000003556000000000355700000000035570000000000000000000000000000004000000000000004200000000000014940050000000000000009999123100000010000000000000BRBBDCACNPR8626
012015012862BBDC4T      030BRADESCO    PN      N1050R$  000000000358300000000036030000000003583000000000358900000000036030000000000000000000000000000004000000000000023000000000000082562104000000000000009999123100000010000000000000BRBBDCACNPR8626
012015012862BBDC4T      030BRADESCO    PN      N1061R$  000000000362700000000036280000000003627000000000362700000000036280000000000000000000000000000002000000000000000300000000000001088155000000000000009999123100000010000000000000BRBBDCACNPR8626
012015012862BBDC4T      030BRADESCO    PN      N1090R$  000000000366100000000036660000000003661000000000366300000000036660000000000000000000000000000004000000000000028500000000000104404608000000000000009999123100000010000000000000BRBBDCACNPR8626
012015012878BBDCB32     070BBDC        PN      N1000R$  000000000040000000000004000000000000359000000000037200000000003780000000000000000000000000000074000000000000115100000000000042886500000000000318102015020900000010000000000000BRBBDCACNPR8620
012015012878BBDCB33     070BBDC        PN      N1000R$  000000000031500000000003150000000000300000000000031000000000003000000000000220000000000000000002000000000000009600000000000002979000000000000328102015020900000010000000000000BRBBDCACNPR8620
012015012878BBDCB34     070BBDC        PN      N1000R$  000000000027800000000002780000000000180000000000020000000000001800000000000152000000000024800017000000000000042200000000000008481200000000000338102015020900000010000000000000BRBBDCACNPR8620
012015012878BBDCB35     070BBDC  FM    PN      N1000R$  000000000016100000000002000000000000114000000000015100000000001200000000000000000000000000000130000000000000212200000000000032228100000000000348102015020900000010000000000000BRBBDCACNPR8620
012015012878BBDCB36     070BBDC  FM    PN      N1000R$  000000000010300000000001270000000000065000000000008400000000000650000000000000000000000006600119000000000000181700000000000015376900000000000358102015020900000010000000000000BRBBDCACNPR8620
012015012878BBDCB37     070BBDC  FM    PN      N1000R$  000000000005100000000000720000000000030000000000004300000000000300000000000027000000000003900114000000000000238400000000000010269500000000000368102015020900000010000000000000BRBBDCACNPR8620
012015012878BBDCB38     070BBDC  FM    PN      N1000R$  000000000002800000000000380000000000016000000000002200000000000160000000000015000000000001600244000000000000392700000000000008881700000000000378102015020900000010000000000000BRBBDCACNPR8620
012015012878BBDCB39     070BBDC  FM    PN      N1000R$  000000000001100000000000120000000000008000000000000900000000000080000000000006000000000001500027000000000000049600000000000000460100000000000388102015020900000010000000000000BRBBDCACNPR8620
012015012878BBDCB40     070BBDC        PN      N1000R$  000000000000500000000000050000000000005000000000000500000000000050000000000004000000000000600001000000000000001400000000000000007000000000000398102015020900000010000000000000BRBBDCACNPR8620
012015012878BBDCB41     070BBDC        PN      N1000R$  000000000000300000000000030000000000003000000000000300000000000030000000000000000000000010500001000000000000006700000000000000020100000000000408102015020900000010000000000000BRBBDCACNPR8620
012015012878BBDCB63     070BBDCE       PN      N1000R$  000000000017400000000001740000000000174000000000017400000000001740000000000000000000000000000003000000000000001300000000000000226200000000000350602015020900000010000000000000BRBBDCACNPR8624
012015012878BBDCB7      070BBDCE       PN      N1000R$  000000000003300000000000330000000000033000000000003300000000000330000000000022000000000000000001000000000000000500000000000000016500000000000370602015020900000010000000000000BRBBDCACNPR8620
012015012878BBDCC3      070BBDC        PN      N1000R$  000000000026200000000002620000000000249000000000025100000000002490000000000000000000000029800002000000000000000600000000000000150700000000000343102015031600000010000000000000BRBBDCACNPR8614
012015012878BBDCC35     070BBDC  FM    PN      N1000R$  000000000026000000000002990000000000218000000000022900000000002210000000000000000000000024000167000000000000722900000000000165760400000000000348102015031600000010000000000000BRBBDCACNPR8626
012015012878BBDCC36     070BBDC  FM    PN      N1000R$  000000000019800000000002320000000000160000000000019000000000001650000000000140000000000025000197000000000000392300000000000074744000000000000358102015031600000010000000000000BRBBDCACNPR8626
012015012878BBDCC37     070BBDC  FM    PN      N1000R$  000000000014400000000001740000000000115000000000014000000000001250000000000065000000000012600075000000000000110500000000000015541900000000000368102015031600000010000000000000BRBBDCACNPR8626
012015012878BBDCC38     070BBDC  FM    PN      N1000R$  000000000010100000000001240000000000082000000000010100000000000820000000000000000000000000000036000000000000057100000000000005800300000000000378102015031600000010000000000000BRBBDCACNPR8626
012015012878BBDCC39     070BBDC        PN      N1000R$  000000000008300000000000830000000000067000000000007900000000000670000000000061000000000000000002000000000000006500000000000000515500000000000383102015031600000010000000000000BRBBDCACNPR8624
012015012878BBDCC40     070BBDC  FM    PN      N1000R$  000000000005400000000000750000000000044000000000005800000000000470000000000040000000000007800023000000000000041100000000000002387300000000000393102015031600000010000000000000BRBBDCACNPR8621
012015012878BBDCC41     070BBDC        PN      N1000R$  000000000003900000000000390000000000039000000000003900000000000390000000000000000000000008000001000000000000000400000000000000015600000000000398102015031600000010000000000000BRBBDCACNPR8615
012015012878BBDCC7      070BBDCE       PN      N1000R$  000000000016000000000001600000000000158000000000015800000000001580000000000000000000000000000006000000000000008000000000000001267400000000000365602015031600000010000000000000BRBBDCACNPR8614
012015012878BBDCG75     070BBDC        ON      N1000R$  000000000004500000000000450000000000045000000000004500000000000450000000000000000000000000000002000000000000600000000000000027000000000000000448802015072000000010000000000000BRBBDCACNOR1620
012015012882BBDCN33     080BBDCE       PN      N1000R$  000000000001500000000000150000000000015000000000001500000000000150000000000000000000000000000001000000000000005000000000000000075000000000000328102015020900000010000000000000BRBBDCACNPR8620
012015012882BBDCN34     080BBDCE FM    PN      N1000R$  000000000002000000000000320000000000019000000000002400000000000310000000000016000000000000000025000000000000054800000000000001369200000000000338102015020900000010000000000000BRBBDCACNPR8620
012015012882BBDCN35     080BBDCE FM    PN      N1000R$  000000000003800000000000630000000000038000000000005400000000000610000000000000000000000000000015000000000000030200000000000001638200000000000348102015020900000010000000000000BRBBDCACNPR8620
012015012882BBDCN36     080BBDCE FM    PN      N1000R$  000000000007200000000001100000000000058000000000009300000000001080000000000041000000000012000054000000000000098600000000000009240900000000000358102015020900000010000000000000BRBBDCACNPR8620
012015012882BBDCN37     080BBDCE FM    PN      N1000R$  000000000013100000000001810000000000098000000000014400000000001800000000000000000000000000000152000000000000235700000000000033994600000000000368102015020900000010000000000000BRBBDCACNPR8620
012015012882BBDCN7      080BBDCE       PN      N1000R$  000000000015300000000001530000000000118000000000012400000000001180000000000000000000000000000002000000000000005200000000000000648600000000000370602015020900000010000000000000BRBBDCACNPR8620
012015012882BBDCN83     080BBDCE       PN      N1000R$  000000000001700000000000220000000000017000000000002000000000000220000000000008000000000004000005000000000000009000000000000000181000000000000333102015020900000010000000000000BRBBDCACNPR8623
012015012882BBDCO1      080BBDCE FM    PN      N1000R$  000000000008100000000000980000000000076000000000008800000000000960000000000000000000000000000022000000000000034300000000000003036600000000000338102015031600000010000000000000BRBBDCACNPR8614
012015012882BBDCO35     080BBDCE FM    PN      N1000R$  000000000010700000000001320000000000103000000000011600000000001290000000000000000000000000000054000000000000097200000000000011354500000000000348102015031600000010000000000000BRBBDCACNPR8626
012015012882BBDCO36     080BBDCE FM    PN      N1000R$  000000000014000000000001720000000000124000000000015200000000001710000000000000000000000000000052000000000000079300000000000012060100000000000358102015031600000010000000000000BRBBDCACNPR8626
012015012882BBDCO37     080BBDCE FM    PN      N1000R$  000000000018800000000002290000000000168000000000019700000000002290000000000000000000000000000075000000000000108200000000000021375500000000000368102015031600000010000000000000BRBBDCACNPR8626
012015012882BBDCO96     080BBDCE       PN      N1000R$  000000000007300000000000730000000000073000000000007300000000000730000000000000000000000000000001000000000000001000000000000000073000000000000328102015031600000010000000000000BRBBDCACNPR8614
012015012882BBDCO98     080BBDCE       PN      N1000R$  000000000006900000000000690000000000061000000000006600000000000610000000000000000000000000000004000000000000004800000000000000318000000000000333102015031600000010000000000000BRBBDCACNPR8614
012015012812BBFI11B     010FII BB PROGRCI      MB   R$  000000026499900000002750000000000261900000000026786600000002619000000000261900000000027000000029000000000000000147000000000039376399000000000000009999123100000010000000000000BRBBFICTF006214
012015012812BBPO11      010FII BB PRGIICI           R$  000000001040000000000105640000000010353000000001042700000000104030000000010403000000001051700395000000000000021992000000000229325279000000000000009999123100000010000000000000BRBBPOCTF003126
012015012812BBRC11      010FII BB CORP CI           R$  000000000905000000000090500000000009040000000000904100000000090400000000009028000000000905000002000000000000000112000000000001012600000000000000009999123100000010000000000000BRBBRCCTF004140
012015012802BBRK3       010BR BROKERS  ON      NM   R$  000000000027600000000002940000000000276000000000028600000000002870000000000287000000000029001020000000000002898300000000000830677400000000000000009999123100000010000000000000BRBBRKACNOR4110
012015012896BBRK3F      020BR BROKERS  ON      NM   R$  000000000028600000000002870000000000286000000000028600000000002870000000000286000000000032000002000000000000000048000000000000013750000000000000009999123100000010000000000000BRBBRKACNOR4110
012015012814BBSD11      010BB ETF SP DVCI           R$  000000000352800000000035710000000003528000000000356100000000035710000000000000000000000000000002000000000000000130000000000000462940000000000000009999123100000010000000000000BRBBSDCTF000100
012015012802BBSE3       010BBSEGURIDADEON      NM   R$  000000000292000000000029380000000002878000000000290200000000029000000000002890000000000290014693000000000005110600000000014835682900000000000000009999123100000010000000000000BRBBSEACNOR5103
012015012896BBSE3F      020BBSEGURIDADEON      NM   R$  000000000299700000000029970000000002873000000000290800000000028730000000002873000000000290000293000000000000003811000000000011084668000000000000009999123100000010000000000000BRBBSEACNOR5103
012015012862BBSE3T      030BBSEGURIDADEON      NM030R$  000000000291600000000029170000000002916000000000291600000000029170000000000000000000000000000002000000000000000300000000000000874803000000000000009999123100000010000000000000BRBBSEACNOR5103
012015012862BBSE3T      030BBSEGURIDADEON      NM061R$  000000000299000000000029910000000002960000000000297600000000029610000000000000000000000000000008000000000000005400000000000016073590000000000000009999123100000010000000000000BRBBSEACNOR5103
012015012878BBSEC59     070BBSE        ON      NM000R$  000000000011400000000001200000000000114000000000011700000000001200000000000000000000000000000002000000000000000200000000000000023400000000000294002015031600000010000000000000BRBBSEACNOR5103
012015012878BBSED31     070BBSE        ON      NM000R$  000000000009300000000000930000000000093000000000009300000000000930000000000000000000000000000002000000000000001000000000000000093000000000000310002015042000000010000000000000BRBBSEACNOR5103
012015012882BBSEO29     080BBSEE       ON      NM000R$  000000000011400000000001140000000000111000000000011200000000001110000000000000000000000000000002000000000000000200000000000000022500000000000289002015031600000010000000000000BRBBSEACNOR5103
012015012882BBSEP27     080BBSEE       ON      NM000R$  000000000005600000000000560000000000056000000000005600000000000560000000000000000000000000000002000000000000001000000000000000056000000000000270002015042000000010000000000000BRBBSEACNOR5103
012015012882BBSEP29     080BBSEE       ON      NM000R$  000000000014900000000001490000000000149000000000014900000000001490000000000000000000000000000001000000000000001000000000000000149000000000000290002015042000000010000000000000BRBBSEACNOR5103
012015012802BBTG11      010BTG PACTUAL UNT          R$  000000000282100000000028210000000002782000000000279100000000027900000000002787000000000279000350000000000000077000000000000214964600000000000000009999123100000010000000000000BRBBTGUNT007109
012015012896BBTG11F     020BTG PACTUAL UNT          R$  000000000278500000000027850000000002720000000000275700000000027200000000002720000000000282700004000000000000000019000000000000052394000000000000009999123100000010000000000000BRBBTGUNT007109
012015012812BBVJ11      010FII C JARDIMCI           R$  000000000589900000000058990000000005650000000000565900000000056500000000005650000000000584100027000000000000004192000000000023723700000000000000009999123100000010000000000000BRBBVJCTF001149
012015012812BCFF11B     010FII BC FFII CI      MB   R$  000000000670000000000067000000000006654000000000667300000000066540000000006654000000000669800028000000000000003083000000000020575920000000000000009999123100000010000000000000BRBCFFCTF000158
012015012802BDLL4       010BARDELLA    PN           R$  000000000600000000000060000000000006000000000000600000000000060000000000004130000000000600000001000000000000000200000000000001200000000000000000009999123100000010000000000000BRBDLLACNPR8150
012015012802BEEF3       010MINERVA     ON      NM   R$  000000000086600000000008660000000000841000000000085000000000008520000000000846000000000085203213000000000000676600000000000575760100000000000000009999123100000010000000000000BRBEEFACNOR6104
012015012896BEEF3F      020MINERVA     ON      NM   R$  000000000085000000000008600000000000850000000000085200000000008600000000000840000000000087700004000000000000000080000000000000068236000000000000009999123100000010000000000000BRBEEFACNOR6104
012015012802BEES3       010BANESTES    ON  EJG      R$  000000000018500000000001910000000000180000000000018300000000001870000000000185000000000018700018000000000000020300000000000003727400000000000000009999123100000010000000000000BRBEESACNOR9263
012015012802BEMA3       010BEMATECH    ON      NM   R$  000000000099100000000009990000000000981000000000098900000000009850000000000985000000000099000539000000000000093300000000000092278100000000000000009999123100000010000000000000BRBEMAACNOR0118
012015012896BEMA3F      020BEMATECH    ON      NM   R$  000000000101800000000010390000000000983000000000100500000000009830000000000983000000000099000014000000000000000343000000000000345039000000000000009999123100000010000000000000BRBEMAACNOR0118
012015012896BGIP3F      020BANESE      ON           R$  000000000220000000000022000000000002200000000000220000000000022000000000002020000000000220000001000000000000000010000000000000022000000000000000009999123100000010000000000000BRBGIPACNOR1184
012015012896BGIP4F      020BANESE      PN           R$  000000000210000000000021000000000002100000000000210000000000021000000000002100000000000230000001000000000000000001000000000000002100000000000000009999123100000010000000000000BRBGIPACNPR8184
012015012802BHGR3       010BHG         ON      NM   R$  000000000171500000000017150000000001685000000000170000000000017000000000001681000000000172000032000000000000039000000000000066301000000000000000009999123100000010000000000000BRBHGRACNOR9101
012015012802BICB4       010BICBANCO    PN      N1   R$  000000000053700000000005550000000000535000000000054100000000005450000000000535000000000054500075000000000000078000000000000042251800000000000000009999123100000010000000000000BRBICBACNPR7131
012015012802BIOM3       010BIOMM       ON      MA   R$  000000000073900000000007390000000000739000000000073900000000007390000000000660000000000073900001000000000000000100000000000000073900000000000000009999123100000010000000000000BRBIOMACNOR2104
012015012896BIOM3F      020BIOMM       ON      MA   R$  000000000063100000000006310000000000631000000000063100000000006310000000000631000000000070000001000000000000000008000000000000005048000000000000009999123100000010000000000000BRBIOMACNOR2104
012015012802BMIN4       010MERC INVEST PN           R$  000000000001900000000000190000000000019000000000001900000000000190000000000019000000000002000001000000000000002000000000000000038000000000000000009999123100000010000000000000BRBMINACNPR1162
012015012896BMIN4F      020MERC INVEST PN           R$  000000000001700000000000170000000000017000000000001700000000000170000000000017000000000002300004000000000000000941000000000000015997000000000000009999123100000010000000000000BRBMINACNPR1162
012015012802BMKS3       010BIC MONARK  ON           R$  000000002700000000000270000000000026025000000002649300000000260250000000026025000000002889800010000000000000000055000000000001457130000000000000009999123100000010000000000000BRBMKSACNOR9156
012015012812BMLC11B     010FII BMBRC LCCI      MB   R$  000000000961200000000096360000000009610000000000961600000000096200000000009610000000000962000014000000000000001561000000000015011156000000000000009999123100000010000000000000BRBMLCCTF004135
012015012802BMTO4       010BRASMOTOR   PN           R$  000000000008000000000000810000000000080000000000008000000000000810000000000078000000000008100003000000000000008000000000000000641000000000000000009999123100000010000000000000BRBMTOACNPR6069
012015012802BOAC34      010BANK AMERICADRN          R$  000000000398000000000039800000000003980000000000398000000000039800000000003965000000000400000001000000000000004700000000000018706000000000000000009999123100000010000000000000BRBOACBDR004117
012015012802BOEI34      010BOEING      DRN          R$  000000003591000000000359100000000035910000000003591000000000359100000000035814000000003670300001000000000000000500000000000017955000000000000000009999123100000010000000000000BRBOEIBDR003111
012015012814BOVA11      010ISHARES BOVACI           R$  000000000465800000000046890000000004623000000000465000000000046330000000004632000000000463310107000000000001515870000000007049117740000000000000009999123100000010000000000000BRBOVACTF003102
012015012896BOVA11F     020ISHARES BOVACI           R$  000000000467800000000046790000000004625000000000465700000000046600000000004625000000000467900020000000000000000083000000000000386536000000000000009999123100000010000000000000BRBOVACTF003102
012015012862BOVA11T     030ISHARES BOVACI        120R$  000000000483900000000048400000000004839000000000483900000000048400000000000000000000000000000002000000000000001000000000000004839050000000000000009999123100000010000000000000BRBOVACTF003102
012015012878BOVAB50     070BOVA  FM    CI        000R$  000000000000800000000000080000000000006000000000000700000000000080000000000006000000000000900015000000000000025300000000000000191200000000000500002015020900000010000000000000BRBOVACTF003102
012015012878BOVAC47     070BOVA  FM    CI        000R$  000000000016400000000001750000000000164000000000016900000000001750000000000000000000000000000002000000000000004200000000000000711900000000000470002015031600000010000000000000BRBOVACTF003102
012015012878BOVAC49     070BOVA  FM    CI        000R$  000000000009500000000000950000000000095000000000009500000000000950000000000042000000000000000002000000000000003000000000000000285000000000000490002015031600000010000000000000BRBOVACTF003102
012015012878BOVAC50     070BOVA  FM    CI        000R$  000000000006600000000000690000000000066000000000006700000000000670000000000000000000000000000004000000000000007200000000000000483600000000000500002015031600000010000000000000BRBOVACTF003102
012015012878BOVAC51     070BOVA  FM    CI        000R$  000000000004500000000000490000000000040000000000004400000000000440000000000000000000000005400015000000000000022300000000000000989100000000000510002015031600000010000000000000BRBOVACTF003102
012015012882BOVAN48     080BOVAE FM    CI        000R$  000000000016900000000001690000000000169000000000016900000000001690000000000000000000000000000001000000000000002100000000000000354900000000000480002015020900000010000000000000BRBOVACTF003102
012015012882BOVAN49     080BOVAE FM    CI        000R$  000000000026600000000002680000000000233000000000025300000000002500000000000000000000000000000033000000000000055800000000000014122200000000000490002015020900000010000000000000BRBOVACTF003102
012015012882BOVAO47     080BOVAE FM    CI        000R$  000000000015500000000001620000000000155000000000015800000000001600000000000000000000000025000008000000000000014400000000000002278200000000000470002015031600000010000000000000BRBOVACTF003102
012015012882BOVAO49     080BOVAE FM    CI        000R$  000000000028400000000002850000000000267000000000027800000000002670000000000000000000000000000010000000000000017400000000000004842600000000000490002015031600000010000000000000BRBOVACTF003102
012015012802BPAN4       010BANCO PAN   PN      N1   R$  000000000020400000000002040000000000198000000000020100000000002020000000000198000000000020200046000000000000037800000000000007604800000000000000009999123100000010000000000000BRBPANACNPR1102
012015012896BPAN4F      020BANCO PAN   PN      N1   R$  000000000020200000000002020000000000202000000000020200000000002020000000000201000000000021400001000000000000000064000000000000012928000000000000009999123100000010000000000000BRBPANACNPR1102
012015012812BPFF11      010FII ABSOLUTOCI           R$  000000000740400000000074040000000007308000000000732200000000073110000000007308000000000739800020000000000000001220000000000008933933000000000000009999123100000010000000000000BRBPFFCTF002121
012015012802BPHA3       010BR PHARMA   ON      NM   R$  000000000012000000000001200000000000117000000000011800000000001190000000000117000000000011900159000000000000247000000000000029238500000000000000009999123100000010000000000000BRBPHAACNOR6103
012015012896BPHA3F      020BR PHARMA   ON      NM   R$  000000000012000000000001420000000000118000000000012000000000001420000000000117000000000014200007000000000000000117000000000000014078000000000000009999123100000010000000000000BRBPHAACNOR6103
012015012862BPHA3T      030BR PHARMA   ON      NM090R$  000000000012300000000001240000000000123000000000012300000000001240000000000000000000000000000002000000000000006000000000000000739584000000000000009999123100000010000000000000BRBPHAACNOR6103
012015012802BRAP3       010BRADESPAR   ON      N1   R$  000000000104000000000010590000000001040000000000105600000000010430000000001041000000000106400019000000000000028300000000000029909200000000000000009999123100000010000000000000BRBRAPACNOR5127
012015012896BRAP3F      020BRADESPAR   ON      N1   R$  000000000104000000000010400000000001030000000000103300000000010400000000001030000000000106900008000000000000000056000000000000057880000000000000009999123100000010000000000000BRBRAPACNOR5127
012015012802BRAP4       010BRADESPAR   PN      N1   R$  000000000121100000000012260000000001194000000000120800000000011990000000001199000000000120006728000000000002560400000000003094772100000000000000009999123100000010000000000000BRBRAPACNPR2127
012015012896BRAP4F      020BRADESPAR   PN      N1   R$  000000000122200000000012220000000001186000000000120800000000011860000000001185000000000123400053000000000000000721000000000000871249000000000000009999123100000010000000000000BRBRAPACNPR2127
012015012862BRAP4T      030BRADESPAR   PN      N1030R$  000000000121400000000012150000000001214000000000121400000000012150000000000000000000000000000002000000000000002500000000000003036789000000000000009999123100000010000000000000BRBRAPACNPR2127
012015012862BRAP4T      030BRADESPAR   PN      N1061R$  000000000123000000000012310000000001230000000000123000000000012310000000000000000000000000000002000000000000002000000000000002460938000000000000009999123100000010000000000000BRBRAPACNPR2127
012015012862BRAP4T      030BRADESPAR   PN      N1090R$  000000000124200000000012480000000001242000000000124700000000012470000000000000000000000000000006000000000000142000000000000177097618000000000000009999123100000010000000000000BRBRAPACNPR2127
012015012814BRAX11      010ISHARES BRAXCI           R$  000000000390500000000039400000000003905000000000391200000000039110000000003750000000000391100007000000000000104940000000000410559670000000000000009999123100000010000000000000BRBRAXCTF002100
012015012812BRCR11      010FII BC FUND CI           R$  000000001102100000000111300000000010801000000001094500000000108900000000010870000000001089000396000000000000035427000000000387773535000000000000009999123100000010000000000000BRBRCRCTF000149
012015012802BRFS3       010BRF SA      ON      NM   R$  000000000618000000000063260000000006157000000000626000000000062690000000006268000000000626914978000000000003382400000000021176821100000000000000009999123100000010000000000000BRBRFSACNOR8113
012015012896BRFS3F      020BRF SA      ON      NM   R$  000000000623900000000063160000000006165000000000626300000000062800000000006252000000000629900135000000000000002091000000000013097567000000000000009999123100000010000000000000BRBRFSACNOR8113
012015012878BRFSB61     070BRFS  FM    ON      NM000R$  000000000023600000000003200000000000225000000000027300000000003040000000000000000000000000000023000000000000007500000000000002048800000000000605302015020900000010000000000000BRBRFSACNOR8112
012015012878BRFSB62     070BRFS  FM    ON      NM000R$  000000000015200000000002380000000000152000000000019400000000002260000000000005000000000000000008000000000000002800000000000000543800000000000615302015020900000010000000000000BRBRFSACNOR8112
012015012878BRFSB63     070BRFS  FM    ON      NM000R$  000000000010000000000001600000000000100000000000014300000000001600000000000102000000000018900060000000000000018700000000000002688700000000000625302015020900000010000000000000BRBRFSACNOR8112
012015012878BRFSB64     070BRFS  FM    ON      NM000R$  000000000007600000000001120000000000076000000000008500000000001040000000000000000000000000000011000000000000002400000000000000204800000000000635302015020900000010000000000000BRBRFSACNOR8112
012015012878BRFSB68     070BRFS        ON      NM000R$  000000000001300000000000130000000000013000000000001300000000000130000000000000000000000002500001000000000000000100000000000000001300000000000675302015020900000010000000000000BRBRFSACNOR8112
012015012878BRFSC4      070BRFS  FM    ON      NM000R$  000000000019600000000001960000000000186000000000019100000000001860000000000000000000000000000002000000000000000200000000000000038200000000000646802015031600000010000000000000BRBRFSACNOR8113
012015012878BRFSC5      070BRFS        ON      NM000R$  000000000014000000000001400000000000140000000000014000000000001400000000000000000000000000000002000000000000000200000000000000028000000000000656802015031600000010000000000000BRBRFSACNOR8113
012015012878BRFSC61     070BRFS  FM    ON      NM000R$  000000000040200000000004070000000000373000000000039600000000003730000000000000000000000049900009000000000000008900000000000003526600000000000606802015031600000010000000000000BRBRFSACNOR8112
012015012878BRFSC62     070BRFS  FM    ON      NM000R$  000000000033800000000003380000000000338000000000033800000000003380000000000000000000000000000002000000000000001900000000000000642200000000000616802015031600000010000000000000BRBRFSACNOR8112
012015012878BRFSC69     070BRFS        ON      NM000R$  000000000007700000000000770000000000071000000000007100000000000710000000000000000000000009200002000000000000001400000000000000100000000000000686802015031600000010000000000000BRBRFSACNOR8112
012015012882BRFSN62     080BRFSE FM    ON      NM000R$  000000000010500000000001050000000000105000000000010500000000001050000000000000000000000000000001000000000000001200000000000000126000000000000615302015020900000010000000000000BRBRFSACNOR8112
012015012882BRFSN63     080BRFSE FM    ON      NM000R$  000000000015200000000001530000000000083000000000013000000000000830000000000000000000000000000008000000000000002600000000000000339900000000000625302015020900000010000000000000BRBRFSACNOR8112
012015012882BRFSO28     080BRFSE       ON      NM000R$  000000000006600000000000770000000000066000000000007100000000000770000000000000000000000000000004000000000000000400000000000000028600000000000581802015031600000010000000000000BRBRFSACNOR8112
012015012882BRFSO32     080BRFSE       ON      NM000R$  000000000018800000000001890000000000188000000000018800000000001890000000000000000000000000000002000000000000000200000000000000037700000000000621802015031600000010000000000000BRBRFSACNOR8113
012015012882BRFSO60     080BRFSE FM    ON      NM000R$  000000000010300000000001030000000000103000000000010300000000001030000000000000000000000000000004000000000000003900000000000000401700000000000596802015031600000010000000000000BRBRFSACNOR8112
012015012882BRFSO61     080BRFSE FM    ON      NM000R$  000000000013000000000001300000000000128000000000012900000000001280000000000000000000000000000008000000000000007800000000000001006200000000000606802015031600000010000000000000BRBRFSACNOR8112
012015012882BRFSO62     080BRFSE FM    ON      NM000R$  000000000016400000000001640000000000156000000000016100000000001560000000000000000000000000000003000000000000003600000000000000580800000000000616802015031600000010000000000000BRBRFSACNOR8112
012015012896BRGE12F     020ALFA CONSORCPNF          R$  000000000018000000000001800000000000180000000000018000000000001800000000000180000000000000000002000000000000000062000000000000011160000000000000009999123100000010000000000000BRBRGEACNPF8091
012015012802BRGE3       010ALFA CONSORCON           R$  000000000028400000000002840000000000284000000000028400000000002840000000000284000000000031500001000000000000000100000000000000028400000000000000009999123100000010000000000000BRBRGEACNOR6197
012015012896BRGE3F      020ALFA CONSORCON           R$  000000000028400000000002840000000000220000000000024900000000002200000000000208000000000000000002000000000000000026000000000000006488000000000000009999123100000010000000000000BRBRGEACNOR6197
012015012802BRIN3       010BR INSURANCEON      NM   R$  000000000021000000000002200000000000205000000000021300000000002140000000000214000000000021804188000000000001165000000000000249152300000000000000009999123100000010000000000000BRBRINACNOR3108
012015012896BRIN3F      020BR INSURANCEON      NM   R$  000000000021000000000002150000000000208000000000021000000000002080000000000205000000000020800004000000000000000137000000000000028852000000000000009999123100000010000000000000BRBRINACNOR3108
012015012802BRKM3       010BRASKEM     ON      N1   R$  000000000086500000000008830000000000832000000000086400000000008500000000000850000000000085500017000000000000008500000000000007345900000000000000009999123100000010000000000000BRBRKMACNOR1111
012015012896BRKM3F      020BRASKEM     ON      N1   R$  000000000085000000000008500000000000850000000000085000000000008500000000000850000000000090000001000000000000000044000000000000037400000000000000009999123100000010000000000000BRBRKMACNOR1111
012015012862BRKM3T      030BRASKEM     ON      N1030R$  000000000089100000000008920000000000891000000000089100000000008920000000000000000000000000000002000000000000004300000000000003831340000000000000009999123100000010000000000000BRBRKMACNOR1111
012015012802BRKM5       010BRASKEM     PNA     N1   R$  000000000121000000000012170000000001157000000000119100000000011910000000001191000000000119906208000000000001889000000000002251436800000000000000009999123100000010000000000000BRBRKMACNPA4111
012015012896BRKM5F      020BRASKEM     PNA     N1   R$  000000000123800000000012380000000001160000000000119100000000011800000000001180000000000123900072000000000000001299000000000001548018000000000000009999123100000010000000000000BRBRKMACNPA4111
012015012802BRML3       010BR MALLS PARON      NM   R$  000000000162500000000016250000000001588000000000160000000000015940000000001591000000000159406189000000000003697900000000005918073200000000000000009999123100000010000000000000BRBRMLACNOR9107
012015012896BRML3F      020BR MALLS PARON      NM   R$  000000000162500000000016250000000001580000000000160100000000016000000000001580000000000160000129000000000000000848000000000001358245000000000000009999123100000010000000000000BRBRMLACNOR9107
012015012802BRPR3       010BR PROPERT  ON      NM   R$  000000000094100000000009410000000000900000000000091300000000009150000000000914000000000091505561000000000001472000000000001344848900000000000000009999123100000010000000000000BRBRPRACNOR9114
012015012896BRPR3F      020BR PROPERT  ON      NM   R$  000000000092000000000009240000000000862000000000090900000000008620000000000800000000000100400028000000000000000645000000000000586509000000000000009999123100000010000000000000BRBRPRACNOR9114
012015012862BRPR3T      030BR PROPERT  ON      NM020R$  000000000091500000000009180000000000915000000000091700000000009180000000000000000000000000000004000000000000054400000000000049901338000000000000009999123100000010000000000000BRBRPRACNOR9114
012015012862BRPR3T      030BR PROPERT  ON      NM030R$  000000000091200000000009130000000000908000000000091100000000009090000000000000000000000000000006000000000000032700000000000029810713000000000000009999123100000010000000000000BRBRPRACNOR9114
012015012802BRSR6       010BANRISUL    PNB     N1   R$  000000000125400000000012540000000001187000000000119700000000012080000000001202000000000120803600000000000000776100000000000929780200000000000000009999123100000010000000000000BRBRSRACNPB4140
012015012896BRSR6F      020BANRISUL    PNB     N1   R$  000000000119900000000012190000000001162000000000118700000000011620000000001162000000000126300015000000000000000301000000000000357464000000000000009999123100000010000000000000BRBRSRACNPB4140
012015012862BRSR6T      030BANRISUL    PNB     N1090R$  000000000122800000000012290000000001228000000000122800000000012290000000000000000000000000000002000000000000006000000000000007370352000000000000009999123100000010000000000000BRBRSRACNPB4140
012015012878BRSRD12     070BRSR        PNB     N1000R$  000000000013000000000001300000000000130000000000013000000000001300000000000000000000000000000001000000000000009100000000000001183000000000000118602015042000000010000000000000BRBRSRACNPB4139
012015012878BRSRD41     070BRSR        PNB     N1000R$  000000000014000000000001400000000000140000000000014000000000001400000000000000000000000000000001000000000000009100000000000001274000000000000113602015042000000010000000000000BRBRSRACNPB4139
012015012802BTOW3       010B2W DIGITAL ON      NM   R$  000000000222300000000022310000000002144000000000219700000000022200000000002174000000000222001017000000000000164600000000000361672800000000000000009999123100000010000000000000BRBTOWACNOR8107
012015012896BTOW3F      020B2W DIGITAL ON      NM   R$  000000000218900000000022000000000002151000000000217900000000021510000000002185000000000239500010000000000000000149000000000000324803000000000000009999123100000010000000000000BRBTOWACNOR8107
012015012802BTTL3       010BATTISTELLA ON           R$  000000000003800000000000440000000000038000000000003900000000000440000000000036000000000004000003000000000000000600000000000000023400000000000000009999123100000010000000000000BRBTTLACNOR0105
012015012802BVMF3       010BMFBOVESPA  ON      NM   R$  000000000097500000000009820000000000951000000000096400000000009660000000000965000000000096617806000000000008315500000000008020716100000000000000009999123100000010000000000000BRBVMFACNOR3131
012015012896BVMF3F      020BMFBOVESPA  ON      NM   R$  000000000095200000000009830000000000951000000000096200000000009630000000000952000000000096300146000000000000002143000000000002063654000000000000009999123100000010000000000000BRBVMFACNOR3131
012015012862BVMF3T      030BMFBOVESPA  ON      NM030R$  000000000098100000000009820000000000981000000000098100000000009820000000000000000000000000000002000000000000005000000000000004909758000000000000009999123100000010000000000000BRBVMFACNOR3131
012015012862BVMF3T      030BMFBOVESPA  ON      NM061R$  000000000100000000000010010000000001000000000000100000000000010010000000000000000000000000000002000000000000050000000000000050026095000000000000009999123100000010000000000000BRBVMFACNOR3131
012015012878BVMFB1      070BVMF  FM    ON      NM000R$  000000000001200000000000160000000000010000000000001100000000000110000000000010000000000002900017000000000000062600000000000000735800000000000101002015020900000010000000000000BRBVMFACNOR3131
012015012878BVMFB10     070BVMF  FM    ON      NM000R$  000000000002200000000000240000000000014000000000001700000000000170000000000015000000000001900077000000000000312600000000000005315800000000000099002015020900000010000000000000BRBVMFACNOR3130
012015012878BVMFB11     070BVMF  FM    ON      NM000R$  000000000000400000000000040000000000003000000000000300000000000030000000000003000000000000400027000000000000093900000000000000360100000000000109002015020900000010000000000000BRBVMFACNOR3130
012015012878BVMFB40     070BVMF  FM    ON      NM000R$  000000000000600000000000080000000000006000000000000700000000000080000000000005000000000001000021000000000000061600000000000000435400000000000104002015020900000010000000000000BRBVMFACNOR3130
012015012878BVMFB9      070BVMF        ON      NM000R$  000000000008900000000000890000000000072000000000007500000000000890000000000074000000000000000011000000000000022100000000000001675900000000000089002015020900000010000000000000BRBVMFACNOR3130
012015012878BVMFB92     070BVMF        ON      NM000R$  000000000007200000000000720000000000070000000000007100000000000700000000000005000000000000000003000000000000009800000000000000700400000000000091002015020900000010000000000000BRBVMFACNOR3130
012015012878BVMFB94     070BVMF        ON      NM000R$  000000000004400000000000530000000000044000000000004800000000000530000000000000000000000000000002000000000000006000000000000000291000000000000093002015020900000010000000000000BRBVMFACNOR3130
012015012878BVMFB96     070BVMF        ON      NM000R$  000000000003900000000000390000000000030000000000003400000000000340000000000000000000000000000005000000000000013000000000000000450800000000000095002015020900000010000000000000BRBVMFACNOR3130
012015012878BVMFB97     070BVMFE       ON      NM000R$  000000000003200000000000370000000000025000000000003000000000000310000000000024000000000000000010000000000000039900000000000001202700000000000096002015020900000010000000000000BRBVMFACNOR3131
012015012878BVMFB98     070BVMF  FM    ON      NM000R$  000000000002400000000000280000000000024000000000002500000000000240000000000000000000000000000004000000000000023600000000000000592400000000000097002015020900000010000000000000BRBVMFACNOR3130
012015012878BVMFC1      070BVMFE       ON      NM000R$  000000000003300000000000330000000000033000000000003300000000000330000000000012000000000000000001000000000000001800000000000000059400000000000101502015031600000010000000000000BRBVMFACNOR3131
012015012878BVMFC10     070BVMF  FM    ON      NM000R$  000000000004600000000000530000000000041000000000004500000000000430000000000042000000000005100093000000000000198500000000000008942500000000000099002015031600000010000000000000BRBVMFACNOR3130
012015012878BVMFC11     070BVMF  FM    ON      NM000R$  000000000001700000000000190000000000014000000000001700000000000170000000000014000000000001700043000000000000125300000000000002254300000000000109002015031600000010000000000000BRBVMFACNOR3130
012015012878BVMFC40     070BVMF  FM    ON      NM000R$  000000000002700000000000320000000000024000000000002800000000000260000000000005000000000000000058000000000000225100000000000006430600000000000104002015031600000010000000000000BRBVMFACNOR3130
012015012878BVMFC80     070BVMFE       ON      NM000R$  000000000002000000000000210000000000020000000000002000000000000210000000000000000000000000000002000000000000003600000000000000073800000000000106502015031600000010000000000000BRBVMFACNOR3131
012015012878BVMFC88     070BVMF        ON      NM000R$  000000000012100000000001210000000000121000000000012100000000001210000000000000000000000000000001000000000000000100000000000000012100000000000087002015031600000010000000000000BRBVMFACNOR3130
012015012878BVMFC9      070BVMF        ON      NM000R$  000000000011500000000001150000000000104000000000010900000000001040000000000000000000000000000002000000000000002000000000000000219000000000000089002015031600000010000000000000BRBVMFACNOR3130
012015012878BVMFC95     070BVMFE       ON      NM000R$  000000000007900000000000790000000000079000000000007900000000000790000000000000000000000000000001000000000000001800000000000000142200000000000094002015031600000010000000000000BRBVMFACNOR3131
012015012878BVMFC98     070BVMF  FM    ON      NM000R$  000000000005200000000000630000000000049000000000005500000000000530000000000000000000000000000017000000000000069900000000000003909400000000000097002015031600000010000000000000BRBVMFACNOR3130
012015012878BVMFD10     070BVMF        ON      NM000R$  000000000006200000000000620000000000062000000000006200000000000620000000000000000000000006500002000000000000008000000000000000496000000000000099002015042000000010000000000000BRBVMFACNOR3130
012015012878BVMFD40     070BVMF        ON      NM000R$  000000000004200000000000490000000000042000000000004300000000000490000000000000000000000000000014000000000000064100000000000002786800000000000104002015042000000010000000000000BRBVMFACNOR3130
012015012882BVMFN1      080BVMFE FM    ON      NM000R$  000000000005000000000000620000000000046000000000005300000000000580000000000000000000000000000020000000000000067400000000000003619500000000000101002015020900000010000000000000BRBVMFACNOR3131
012015012882BVMFN10     080BVMFE FM    ON      NM000R$  000000000003400000000000470000000000031000000000003900000000000410000000000000000000000000000054000000000000265000000000000010525200000000000099002015020900000010000000000000BRBVMFACNOR3130
012015012882BVMFN11     080BVMFE       ON      NM000R$  000000000011800000000001340000000000118000000000012200000000001340000000000000000000000000000003000000000000008800000000000001073600000000000109002015020900000010000000000000BRBVMFACNOR3130
012015012882BVMFN61     080BVMFE       ON      NM000R$  000000000019000000000001900000000000190000000000019000000000001900000000000000000000000000000002000000000000006200000000000001178000000000000116502015020900000010000000000000BRBVMFACNOR3131
012015012882BVMFN9      080BVMFE       ON      NM000R$  000000000000600000000000060000000000005000000000000500000000000050000000000004000000000001900002000000000000005200000000000000027200000000000089002015020900000010000000000000BRBVMFACNOR3130
012015012882BVMFN92     080BVMFE       ON      NM000R$  000000000000900000000000090000000000009000000000000900000000000090000000000006000000000000000002000000000000010000000000000000090000000000000091002015020900000010000000000000BRBVMFACNOR3130
012015012882BVMFN96     080BVMFE FM    ON      NM000R$  000000000001700000000000230000000000017000000000001900000000000200000000000000000000000006600014000000000000067200000000000001315100000000000095002015020900000010000000000000BRBVMFACNOR3130
012015012882BVMFN97     080BVMFE FM    ON      NM000R$  000000000002400000000000280000000000019000000000002400000000000240000000000005000000000000000025000000000000115500000000000002835800000000000096002015020900000010000000000000BRBVMFACNOR3131
012015012882BVMFN98     080BVMFE       ON      NM000R$  000000000002400000000000260000000000021000000000002400000000000210000000000000000000000000000003000000000000001800000000000000044300000000000097002015020900000010000000000000BRBVMFACNOR3130
012015012882BVMFO10     080BVMFE FM    ON      NM000R$  000000000005400000000000630000000000052000000000005800000000000590000000000009000000000000000065000000000000056800000000000003317100000000000099002015031600000010000000000000BRBVMFACNOR3130
012015012882BVMFO11     080BVMFE       ON      NM000R$  000000000011800000000001180000000000118000000000011800000000001180000000000000000000000000000001000000000000000100000000000000011800000000000109002015031600000010000000000000BRBVMFACNOR3130
012015012882BVMFO84     080BVMFE       ON      NM000R$  000000000001000000000000100000000000010000000000001000000000000100000000000000000000000001400001000000000000010000000000000000100000000000000083002015031600000010000000000000BRBVMFACNOR3130
012015012882BVMFO9      080BVMFE       ON      NM000R$  000000000001800000000000180000000000018000000000001800000000000180000000000000000000000000000001000000000000001800000000000000032400000000000089002015031600000010000000000000BRBVMFACNOR3130
012015012882BVMFO94     080BVMFE       ON      NM000R$  000000000003000000000000300000000000030000000000003000000000000300000000000000000000000000000001000000000000001800000000000000054000000000000093002015031600000010000000000000BRBVMFACNOR3130
012015012882BVMFO95     080BVMFE FM    ON      NM000R$  000000000003600000000000360000000000036000000000003600000000000360000000000000000000000006000001000000000000002400000000000000086400000000000094002015031600000010000000000000BRBVMFACNOR3131
012015012882BVMFO98     080BVMFE FM    ON      NM000R$  000000000004600000000000510000000000042000000000004600000000000460000000000000000000000000000005000000000000021000000000000000984500000000000097002015031600000010000000000000BRBVMFACNOR3130
012015012802CARD3       010CSU CARDSYSTON      NM   R$  000000000030700000000003250000000000305000000000031400000000003240000000000323000000000032400237000000000000158400000000000049890600000000000000009999123100000010000000000000BRCARDACNOR9107
012015012896CARD3F      020CSU CARDSYSTON      NM   R$  000000000031000000000003230000000000305000000000031500000000003230000000000323000000000034500007000000000000000286000000000000090148000000000000009999123100000010000000000000BRCARDACNOR9107
012015012896CBMA3F      020COBRASMA    ON           R$  000000000000400000000000040000000000004000000000000400000000000040000000000001000000000000400001000000000000000001000000000000000004000000000000009999123100000010000000000000BRCBMAACNOR4124
012015012802CBMA4       010COBRASMA    PN           R$  000000000000200000000000020000000000002000000000000200000000000020000000000002000000000000300010000000000000280000000000000000560000000000000000009999123100000010000000000000BRCBMAACNPR1124
012015012896CBMA4F      020COBRASMA    PN           R$  000000000000300000000000030000000000003000000000000300000000000030000000000002000000000000300001000000000000000001000000000000000003000000000000009999123100000010000000000000BRCBMAACNPR1124
012015012812CBOP11      010FII C BRANCOCI           R$  000000006949900000000694990000000069000000000006909900000000690000000000068500000000006900000003000000000000000010000000000000690998000000000000009999123100000010000000000000BRCBOPCTF001116
012015012808CCHI3       010CHIARELLI   ON           R$  000000000000400000000000040000000000004000000000000400000000000040000000000003000000000000400001000000000000010000000000000000040000000000000000009999123100000010000000000000BRCCHIACNOR5123
012015012896CCHI3F      020CHIARELLI   ON           R$  000000000000400000000000040000000000004000000000000400000000000040000000000001000000000000400001000000000000000001000000000000000004000000000000009999123100000010000000000000BRCCHIACNOR5123
012015012896CCHI4F      020CHIARELLI   PN           R$  000000000000800000000000080000000000008000000000000800000000000080000000000007000000000000800001000000000000000001000000000000000008000000000000009999123100000010000000000000BRCCHIACNPR2122
012015012896CCPR3F      020CYRE COM-CCPON      NM   R$  000000000110000000000011000000000001055000000000107800000000010550000000001055000000000129000002000000000000000064000000000000069005000000000000009999123100000010000000000000BRCCPRACNOR9108
012015012802CCRO3       010CCR SA      ON      NM   R$  000000000161900000000016680000000001591000000000163800000000016480000000001648000000000164916214000000000004858900000000007963059100000000000000009999123100000010000000000000BRCCROACNOR2125
012015012896CCRO3F      020CCR SA      ON      NM   R$  000000000161000000000016700000000001598000000000163900000000016570000000001630000000000165700077000000000000001600000000000002623658000000000000009999123100000010000000000000BRCCROACNOR2125
012015012862CCRO3T      030CCR SA      ON      NM061R$  000000000168900000000016900000000001689000000000168900000000016900000000000000000000000000000002000000000000006000000000000010136158000000000000009999123100000010000000000000BRCCROACNOR2125
012015012802CCXC3       010CCX CARVAO  ON      NM   R$  000000000001900000000000190000000000017000000000001700000000000180000000000017000000000001800040000000000000615700000000000011082200000000000000009999123100000010000000000000BRCCXCACNOR5100
012015012802CEBR3       010CEB         ON           R$  000000000152900000000015290000000001529000000000152900000000015290000000001000000000000153000001000000000000000500000000000000764500000000000000009999123100000010000000000000BRCEBRACNOR5115
012015012862CEBR3T      030CEB         ON        180R$  000000000162900000000016300000000001629000000000162900000000016300000000000000000000000000000002000000000000000500000000000000814957000000000000009999123100000010000000000000BRCEBRACNOR5115
012015012802CELP3       010CELPA       ON           R$  000000000011000000000001100000000000110000000000011000000000001100000000000110000000000012000005000000000000060800000000000006688000000000000000009999123100000010000000000000BRCELPACNOR8112
012015012812CEOC11B     010FII CEO CCP CI      MB   R$  000000000396000000000040110000000003960000000000399900000000040050000000003965000000000400500066000000000000005501000000000022001856000000000000009999123100000010000000000000BRCEOCCTF003126
012015012802CESP3       010CESP        ON      N1   R$  000000000210000000000021000000000002060000000000209600000000021000000000002060000000000210000004000000000000001200000000000002516000000000000000009999123100000010000000000000BRCESPACNOR3162
012015012802CESP6       010CESP        PNB     N1   R$  000000000244800000000024860000000002366000000000240400000000024000000000002400000000000240205058000000000003955800000000009510274600000000000000009999123100000010000000000000BRCESPACNPB4121
012015012896CESP6F      020CESP        PNB     N1   R$  000000000248500000000024850000000002323000000000242000000000023230000000002323000000000240000155000000000000000587000000000001420597000000000000009999123100000010000000000000BRCESPACNPB4121
012015012802CGAS3       010COMGAS      ON           R$  000000000457500000000045750000000004575000000000457500000000045750000000004460000000000457500001000000000000000100000000000000457500000000000000009999123100000010000000000000BRCGASACNOR0135
012015012802CGAS5       010COMGAS      PNA          R$  000000000458600000000045980000000004558000000000458100000000045980000000004559000000000459800037000000000000005300000000000024283700000000000000009999123100000010000000000000BRCGASACNPA3132
012015012896CGAS5F      020COMGAS      PNA          R$  000000000471700000000047170000000004559000000000470800000000045590000000004545000000000460000004000000000000000023000000000000108306000000000000009999123100000010000000000000BRCGASACNPA3132
012015012802CGRA3       010GRAZZIOTIN  ON           R$  000000000171100000000017200000000001710000000000171100000000017200000000001650000000000171900003000000000000001100000000000001882100000000000000009999123100000010000000000000BRCGRAACNOR2064
012015012802CGRA4       010GRAZZIOTIN  PN           R$  000000000160000000000016000000000001564000000000159000000000015640000000001563000000000159500016000000000000004600000000000007317700000000000000009999123100000010000000000000BRCGRAACNPR9064
012015012896CGRA4F      020GRAZZIOTIN  PN           R$  000000000160100000000016010000000001601000000000160100000000016010000000001601000000000162900001000000000000000060000000000000096060000000000000009999123100000010000000000000BRCGRAACNPR9064
012015012802CIEL3       010CIELO       ON      NM   R$  000000000385000000000039570000000003818000000000389900000000039110000000003907000000000391112227000000000003061300000000011938117300000000000000009999123100000010000000000000BRCIELACNOR3115
012015012896CIEL3F      020CIELO       ON      NM   R$  000000000389600000000039510000000003826000000000389400000000039070000000003900000000000391300347000000000000004916000000000019146447000000000000009999123100000010000000000000BRCIELACNOR3115
012015012878CIELB38     070CIEL  FM    ON      NM000R$  000000000019000000000002480000000000178000000000019900000000002280000000000000000000000000000007000000000000015000000000000002994000000000000373302015020900000010000000000000BRCIELACNOR3114
012015012878CIELB39     070CIEL  FM    ON      NM000R$  000000000016800000000001680000000000151000000000015700000000001510000000000000000000000000000002000000000000002700000000000000424700000000000383302015020900000010000000000000BRCIELACNOR3114
012015012878CIELB40     070CIEL  FM    ON      NM000R$  000000000006100000000001060000000000061000000000009900000000001060000000000000000000000010000003000000000000002300000000000000228600000000000393302015020900000010000000000000BRCIELACNOR3114
012015012878CIELB41     070CIEL  FM    ON      NM000R$  000000000005400000000000540000000000042000000000005300000000000420000000000000000000000000000002000000000000002100000000000000112200000000000403302015020900000010000000000000BRCIELACNOR3114
012015012878CIELC39     070CIEL        ON      NM000R$  000000000020800000000002080000000000208000000000020800000000002080000000000000000000000000000001000000000000000500000000000000104000000000000392202015031600000010000000000000BRCIELACNOR3115
012015012878CIELC41     070CIEL        ON      NM000R$  000000000011800000000001180000000000118000000000011800000000001180000000000000000000000000000001000000000000001000000000000000118000000000000412202015031600000010000000000000BRCIELACNOR3115
012015012878CIELC67     070CIEL  FM    ON      NM000R$  000000000025300000000003060000000000253000000000026700000000003060000000000000000000000000000004000000000000006800000000000001819000000000000377202015031600000010000000000000BRCIELACNOR3115
012015012878CIELC68     070CIEL  FM    ON      NM000R$  000000000020500000000002430000000000198000000000021500000000002430000000000000000000000000000003000000000000005100000000000001098200000000000387202015031600000010000000000000BRCIELACNOR3115
012015012878CIELC70     070CIEL  FM    ON      NM000R$  000000000013100000000001400000000000129000000000013600000000001400000000000000000000000015000003000000000000000600000000000000082000000000000407202015031600000010000000000000BRCIELACNOR3115
012015012882CIELN39     080CIELE FM    ON      NM000R$  000000000003900000000000390000000000039000000000003900000000000390000000000000000000000000000002000000000000002000000000000000078000000000000383302015020900000010000000000000BRCIELACNOR3114
012015012882CIELO19     080CIELE FM    ON      NM000R$  000000000022900000000002290000000000189000000000020900000000001890000000000000000000000000000002000000000000003400000000000000710600000000000399702015031600000010000000000000BRCIELACNOR3115
012015012882CIELO36     080CIELE       ON      NM000R$  000000000006400000000000640000000000059000000000005900000000000590000000000000000000000000000003000000000000001200000000000000071800000000000362202015031600000010000000000000BRCIELACNOR3115
012015012882CIELO38     080CIELE       ON      NM000R$  000000000012400000000001260000000000109000000000011000000000001090000000000000000000000000000003000000000000002200000000000000243000000000000382202015031600000010000000000000BRCIELACNOR3115
012015012882CIELO65     080CIELE       ON      NM000R$  000000000005400000000000540000000000054000000000005400000000000540000000000010000000000010000001000000000000001000000000000000054000000000000357202015031600000010000000000000BRCIELACNOR3115
012015012882CIELO68     080CIELE FM    ON      NM000R$  000000000013300000000001330000000000133000000000013300000000001330000000000000000000000000000001000000000000001700000000000000226100000000000387202015031600000010000000000000BRCIELACNOR3115
012015012802CLSC4       010CELESC      PN      N2   R$  000000000131000000000013100000000001280000000000128500000000012950000000001271000000000129500014000000000000004700000000000006042600000000000000009999123100000010000000000000BRCLSCACNPR3109
012015012896CLSC4F      020CELESC      PN      N2   R$  000000000127500000000013000000000001271000000000127400000000013000000000001282000000000132000003000000000000000009000000000000011472000000000000009999123100000010000000000000BRCLSCACNPR3109
012015012802CMIG3       010CEMIG       ON      N1   R$  000000000121500000000012500000000001208000000000123900000000012400000000001240000000000125000144000000000000055400000000000068672300000000000000009999123100000010000000000000BRCMIGACNOR6214
012015012896CMIG3F      020CEMIG       ON      N1   R$  000000000120900000000012630000000001209000000000123400000000012630000000001240000000000126300010000000000000000179000000000000221014000000000000009999123100000010000000000000BRCMIGACNOR6214
012015012802CMIG4       010CEMIG       PN      N1   R$  000000000112600000000011790000000001119000000000116300000000011790000000001172000000000117910632000000000004202500000000004890519200000000000000009999123100000010000000000000BRCMIGACNPR3214
012015012896CMIG4F      020CEMIG       PN      N1   R$  000000000114800000000011770000000001123000000000115300000000011600000000001160000000000117300108000000000000002696000000000003109074000000000000009999123100000010000000000000BRCMIGACNPR3214
012015012862CMIG4T      030CEMIG       PN      N1060R$  000000000115700000000011580000000001157000000000115700000000011580000000000000000000000000000002000000000000001000000000000001157016000000000000009999123100000010000000000000BRCMIGACNPR3214
012015012862CMIG4T      030CEMIG       PN      N1061R$  000000000119400000000011950000000001194000000000119400000000011950000000000000000000000000000002000000000000002000000000000002388932000000000000009999123100000010000000000000BRCMIGACNPR3214
012015012862CMIG4T      030CEMIG       PN      N1090R$  000000000116900000000012060000000001169000000000119300000000012060000000000000000000000000000006000000000000006000000000000007160522000000000000009999123100000010000000000000BRCMIGACNPR3214
012015012862CMIG4T      030CEMIG       PN      N1180R$  000000000124000000000012410000000001240000000000124000000000012410000000000000000000000000000002000000000000002000000000000002480832000000000000009999123100000010000000000000BRCMIGACNPR3214
012015012878CMIGB13     070CMIG        PN      N1000R$  000000000001500000000000150000000000015000000000001500000000000150000000000000000000000000000001000000000000000500000000000000007500000000000119702015020900000010000000000000BRCMIGACNPR3212
012015012878CMIGC13     070CMIG        PN      N1000R$  000000000004100000000000410000000000041000000000004100000000000410000000000000000000000000000001000000000000000100000000000000004100000000000119702015031600000010000000000000BRCMIGACNPR3212
012015012882CMIGO42     080CMIGE       PN      N1000R$  000000000006700000000000670000000000067000000000006700000000000670000000000000000000000000000001000000000000000100000000000000006700000000000114702015031600000010000000000000BRCMIGACNPR3212
012015012812CNES11B     010FII CENESP  CI  ER  MB   R$  000000001014100000000101410000000010141000000001014100000000101410000000009980000000001031900002000000000000000023000000000000233243000000000000009999123100000010000000000000BRCNESCTF001144
012015012802COCE5       010COELCE      PNA          R$  000000000364500000000036450000000003610000000000362400000000036400000000003640000000000366000057000000000000038300000000000138820800000000000000009999123100000010000000000000BRCOCEACNPA3134
012015012802CPFE3       010CPFL ENERGIAON      NM   R$  000000000169900000000017470000000001690000000000171900000000017200000000001718000000000172003549000000000000621800000000001068919100000000000000009999123100000010000000000000BRCPFEACNOR0124
012015012896CPFE3F      020CPFL ENERGIAON      NM   R$  000000000170300000000017410000000001695000000000171300000000017220000000001725000000000175500050000000000000000560000000000000959719000000000000009999123100000010000000000000BRCPFEACNOR0124
012015012802CPLE3       010COPEL       ON      N1   R$  000000000225100000000022510000000002141000000000216300000000021790000000002161000000000217900428000000000000068400000000000147979000000000000000009999123100000010000000000000BRCPLEACNOR8131
012015012896CPLE3F      020COPEL       ON      N1   R$  000000000216500000000021650000000002165000000000216500000000021650000000002161000000000229000002000000000000000010000000000000021650000000000000009999123100000010000000000000BRCPLEACNOR8131
012015012802CPLE6       010COPEL       PNB     N1   R$  000000000319800000000032470000000003138000000000319400000000032040000000003195000000000320802262000000000000347400000000001109930400000000000000009999123100000010000000000000BRCPLEACNPB9128
012015012896CPLE6F      020COPEL       PNB     N1   R$  000000000316500000000032390000000003165000000000319600000000031750000000003175000000000339400025000000000000000506000000000001617203000000000000009999123100000010000000000000BRCPLEACNPB9128
012015012802CPRE3       010CPFL RENOVAVON      NM   R$  000000000111800000000011250000000001100000000000111900000000011210000000001120000000000113300019000000000000046700000000000052300400000000000000009999123100000010000000000000BRCPREACNOR5100
012015012896CPRE3F      020CPFL RENOVAVON      NM   R$  000000000111100000000011110000000001111000000000111100000000011110000000000000000000000120000001000000000000000020000000000000022220000000000000009999123100000010000000000000BRCPREACNOR5100
012015012812CPTS11B     010FII CAPI SECCI      MB   R$  000000001024000000000102400000000010240000000001024000000000102400000000010001000000001024000001000000000000000051000000000000522240000000000000009999123100000010000000000000BRCPTSCTF004104
012015012802CRDE3       010CR2         ON      NM   R$  000000000026300000000002630000000000263000000000026300000000002630000000000252000000000026300002000000000000000500000000000000131500000000000000009999123100000010000000000000BRCRDEACNOR1108
012015012802CRIV4       010ALFA FINANC PN  EJ       R$  000000000030600000000003060000000000303000000000030500000000003030000000000301000000000032700005000000000000001300000000000000396600000000000000009999123100000010000000000000BRCRIVACNPR1193
012015012802CRUZ3       010SOUZA CRUZ  ON           R$  000000000221200000000022990000000002200000000000226600000000022900000000002277000000000229005772000000000001315400000000002981481100000000000000009999123100000010000000000000BRCRUZACNOR0254
012015012896CRUZ3F      020SOUZA CRUZ  ON           R$  000000000224600000000022970000000002217000000000225900000000022510000000002251000000000229700083000000000000001436000000000003244912000000000000009999123100000010000000000000BRCRUZACNOR0254
012015012878CRUZC24     070CRUZ        ON        000R$  000000000004400000000000440000000000044000000000004400000000000440000000000000000000000000000001000000000000000100000000000000004400000000000235502015031600000010000000000000BRCRUZACNOR0252
012015012878CRUZD24     070CRUZ        ON        000R$  000000000007300000000000730000000000073000000000007300000000000730000000000000000000000000000002000000000000265000000000000019345000000000000239902015042000000010000000000000BRCRUZACNOR0253
012015012882CRUZO23     080CRUZE       ON        000R$  000000000007700000000000770000000000077000000000007700000000000770000000000000000000000000000001000000000000000100000000000000007700000000000225502015031600000010000000000000BRCRUZACNOR0252
012015012882CRUZP22     080CRUZE       ON        000R$  000000000009500000000000950000000000095000000000009500000000000950000000000000000000000000000002000000000000265000000000000025175000000000000219902015042000000010000000000000BRCRUZACNOR0253
012015012882CRUZP50     080CRUZE       ON        000R$  000000000004700000000000470000000000047000000000004700000000000470000000000000000000000000000002000000000000265000000000000012455000000000000204902015042000000010000000000000BRCRUZACNOR0254
012015012896CSAB3F      020SEG AL BAHIAON           R$  000000000281000000000028100000000002810000000000281000000000028100000000002810000000000000000001000000000000000031000000000000087110000000000000009999123100000010000000000000BRCSABACNOR1052
012015012802CSAN3       010COSAN       ON      NM   R$  000000000264000000000026560000000002558000000000258900000000025790000000002579000000000258005091000000000000885000000000002291358300000000000000009999123100000010000000000000BRCSANACNOR6111
012015012896CSAN3F      020COSAN       ON      NM   R$  000000000269800000000026980000000002522000000000258800000000025660000000002520000000000257000080000000000000001240000000000003201748000000000000009999123100000010000000000000BRCSANACNOR6111
012015012802CSMG3       010COPASA      ON      NM   R$  000000000174300000000017700000000001641000000000167400000000016750000000001675000000000167802054000000000000350600000000000586994800000000000000009999123100000010000000000000BRCSMGACNOR5132
012015012896CSMG3F      020COPASA      ON      NM   R$  000000000174500000000017550000000001625000000000166400000000016250000000001625000000000184000024000000000000000520000000000000865326000000000000009999123100000010000000000000BRCSMGACNOR5132
012015012814CSMO11      010ISHARES CSMOCI           R$  000000000502500000000050250000000005025000000000502500000000050250000000000000000000000000000001000000000000000010000000000000050250000000000000009999123100000010000000000000BRCSMOCTF002100
012015012802CSNA3       010SID NACIONALON           R$  000000000047500000000004770000000000458000000000046600000000004580000000000458000000000046307741000000000006552700000000003054315000000000000000009999123100000010000000000000BRCSNAACNOR6246
012015012896CSNA3F      020SID NACIONALON           R$  000000000048800000000004880000000000462000000000046900000000004620000000000463000000000047700103000000000000001529000000000000716502000000000000009999123100000010000000000000BRCSNAACNOR6246
012015012862CSNA3T      030SID NACIONALON        030R$  000000000047600000000004770000000000462000000000047400000000004630000000000000000000000000000018000000000000099500000000000047226764000000000000009999123100000010000000000000BRCSNAACNOR6246
012015012862CSNA3T      030SID NACIONALON        061R$  000000000047300000000004770000000000471000000000047300000000004720000000000000000000000000000006000000000000010200000000000004832357000000000000009999123100000010000000000000BRCSNAACNOR6246
012015012862CSNA3T      030SID NACIONALON        090R$  000000000047700000000004780000000000477000000000047700000000004780000000000000000000000000000002000000000000000200000000000000095567000000000000009999123100000010000000000000BRCSNAACNOR6246
012015012862CSNA3T      030SID NACIONALON        120R$  000000000049100000000004920000000000491000000000049100000000004920000000000000000000000000000002000000000000005000000000000002459586000000000000009999123100000010000000000000BRCSNAACNOR6246
012015012878CSNAB48     070CSNA        ON        000R$  000000000003200000000000330000000000032000000000003200000000000330000000000000000000000000000002000000000000001200000000000000039000000000000046002015020900000010000000000000BRCSNAACNOR6245
012015012878CSNAB49     070CSNA  FM    ON        000R$  000000000003000000000000300000000000023000000000002500000000000280000000000000000000000000000019000000000000045900000000000001188400000000000047002015020900000010000000000000BRCSNAACNOR6245
012015012878CSNAB5      070CSNA  FM    ON        000R$  000000000002500000000000250000000000021000000000002300000000000230000000000010000000000002000016000000000000046900000000000001123500000000000048002015020900000010000000000000BRCSNAACNOR6245
012015012878CSNAB50     070CSNA  FM    ON        000R$  000000000002000000000000210000000000020000000000002000000000000200000000000015000000000000000006000000000000012000000000000000244800000000000049002015020900000010000000000000BRCSNAACNOR6246
012015012878CSNAB52     070CSNA  FM    ON        000R$  000000000001700000000000170000000000013000000000001600000000000130000000000012000000000000000007000000000000013000000000000000217200000000000050002015020900000010000000000000BRCSNAACNOR6245
012015012878CSNAB54     070CSNA  FM    ON        000R$  000000000002500000000000250000000000008000000000001100000000000080000000000008000000000001000010000000000000007400000000000000084000000000000052002015020900000010000000000000BRCSNAACNOR6245
012015012878CSNAB58     070CSNA        ON        000R$  000000000000400000000000040000000000004000000000000400000000000040000000000000000000000015000004000000000000002700000000000000010800000000000056002015020900000010000000000000BRCSNAACNOR6245
012015012878CSNAB6      070CSNA        ON        000R$  000000000000300000000000030000000000002000000000000200000000000020000000000001000000000000500006000000000000005400000000000000012200000000000058002015020900000010000000000000BRCSNAACNOR6245
012015012878CSNAC47     070CSNA  FM    ON        000R$  000000000004700000000000470000000000043000000000004500000000000430000000000000000000000000000002000000000000004800000000000000216000000000000047002015031600000010000000000000BRCSNAACNOR6246
012015012878CSNAC5      070CSNA  FM    ON        000R$  000000000004400000000000440000000000037000000000004200000000000400000000000015000000000000000026000000000000084600000000000003593300000000000047802015031600000010000000000000BRCSNAACNOR6245
012015012878CSNAC52     070CSNA  FM    ON        000R$  000000000003300000000000330000000000033000000000003300000000000330000000000000000000000003300001000000000000003000000000000000099000000000000049802015031600000010000000000000BRCSNAACNOR6245
012015012878CSNAC54     070CSNA  FM    ON        000R$  000000000002400000000000240000000000024000000000002400000000000240000000000000000000000000000001000000000000000400000000000000009600000000000051802015031600000010000000000000BRCSNAACNOR6245
012015012878CSNAC6      070CSNA        ON        000R$  000000000001400000000000140000000000014000000000001400000000000140000000000008000000000002500002000000000000000200000000000000002800000000000057802015031600000010000000000000BRCSNAACNOR6245
012015012882CSNAN4      080CSNAE       ON        000R$  000000000000500000000000050000000000005000000000000500000000000050000000000000000000000000000001000000000000000100000000000000000500000000000038002015020900000010000000000000BRCSNAACNOR6245
012015012882CSNAN48     080CSNAE FM    ON        000R$  000000000002300000000000250000000000022000000000002300000000000230000000000000000000000010000010000000000000022100000000000000514200000000000046002015020900000010000000000000BRCSNAACNOR6245
012015012882CSNAN49     080CSNAE FM    ON        000R$  000000000002600000000000290000000000026000000000002800000000000290000000000000000000000000000003000000000001504000000000000042134000000000000047002015020900000010000000000000BRCSNAACNOR6245
012015012882CSNAN5      080CSNAE FM    ON        000R$  000000000003400000000000360000000000033000000000003400000000000360000000000000000000000003900012000000000000055800000000000001897600000000000048002015020900000010000000000000BRCSNAACNOR6245
012015012882CSNAN50     080CSNAE FM    ON        000R$  000000000003800000000000440000000000038000000000004000000000000420000000000010000000000006000008000000000000020400000000000000833400000000000049002015020900000010000000000000BRCSNAACNOR6246
012015012882CSNAN52     080CSNAE       ON        000R$  000000000004300000000000440000000000043000000000004300000000000440000000000016000000000000000002000000000000002000000000000000087000000000000050002015020900000010000000000000BRCSNAACNOR6245
012015012882CSNAN54     080CSNAE       ON        000R$  000000000005900000000000650000000000059000000000006200000000000640000000000000000000000007000005000000000000011500000000000000713000000000000052002015020900000010000000000000BRCSNAACNOR6245
012015012882CSNAN6      080CSNAE       ON        000R$  000000000011800000000001180000000000118000000000011800000000001180000000000000000000000000000001000000000000000200000000000000023600000000000058002015020900000010000000000000BRCSNAACNOR6245
012015012882CSNAO47     080CSNAE FM    ON        000R$  000000000004400000000000440000000000044000000000004400000000000440000000000000000000000000000001000000000000001000000000000000044000000000000047002015031600000010000000000000BRCSNAACNOR6246
