00COTAHIST.2020BOVESPA 20200710                                                                                                                                                                                                                      
012020071002A1BM34      010ABIOMED INC DRN          R$  000000003509900000000350990000000035099000000003509900000000350990000000000000000000000000000001000000000000000010000000000000350990000000000000009999123100000010000000000000BRA1BMBDR006100
012020071002A1KA34      010AKAMAI TECHNDRN          R$  000000003052100000000305210000000030521000000003052100000000305210000000000000000000000000000001000000000000000750000000000022890750000000000000009999123100000010000000000000BRA1KABDR002100
012020071002A1MD34      010ADVANCED MICDRN          R$  000000003098900000000309890000000030041000000003096500000000300410000000000000000000000000000003000000000000000410000000000012696010000000000000009999123100000010000000000000BRA1MDBDR002100
012020071002A1PA34      010APACHE CORP DRN          R$  000000000640000000000064000000000006350000000000638700000000063500000000006300000000000700000003000000000000000400000000000002555000000000000000009999123100000010000000000000BRA1PABDR001102
012020071002AALL34      010AMERICAN AIRDRN          R$  000000000590000000000060090000000005900000000000597700000000060090000000006010000000000760000002000000000000000070000000000000418450000000000000009999123100000010000000000000BRAALLBDR003115
012020071002AALR3       010ALLIAR      ON      NM   R$  000000000114300000000011680000000001108000000000113300000000011680000000001163000000000116803309000000000001177100000000001333869400000000000000009999123100000010000000000000BRAALRACNOR6102
012020071002AAPL34      010APPLE       DRN          R$  000000002046600000000206700000000020237000000002039800000000203610000000020361000000002251300088000000000000023310000000000475494970000000000000009999123100000010000000000000BRAAPLBDR004133
012020071002ABBV34      010ABBVIE      DRN          R$  000000005190000000000519000000000051900000000005190000000000519000000000000000000000000000000001000000000000000040000000000002076000000000000000009999123100000010000000000000BRABBVBDR001117
012020071002ABCB4       010ABC BRASIL  PN      N2   R$  000000000148600000000015250000000001477000000000150600000000015040000000001504000000000150804858000000000000715600000000001078363000000000000000009999123100000010000000000000BRABCBACNPR4133
012020071002ABEV3       010AMBEV S/A   ON           R$  000000000146200000000014990000000001455000000000148100000000014850000000001485000000000148634579000000000020193200000000029920673000000000000000009999123100000010000000000000BRABEVACNOR1122
012020071002ABUD34      010AB INBEV    DRN          R$  000000002862600000000286260000000028626000000002862600000000286260000000000000000000000000000001000000000000000650000000000018606900000000000000009999123100000010000000000000BRABUDBDR009102
012020071002ADBE34      010ADOBE INC   DRN          R$  000000004946600000000494660000000049466000000004946600000000494660000000045000000000000000000001000000000000000710000000000035120860000000000000009999123100000010000000000000BRADBEBDR003100
012020071002ADHM3       010ADVANCED-DH ON           R$  000000000024600000000002490000000000245000000000024600000000002480000000000247000000000025000028000000000000008300000000000002044000000000000000009999123100000010000000000000BRADHMACNOR9102
012020071002AFLT3       010AFLUENTE T  ON           R$  000000000114000000000011400000000001080000000000109700000000011190000000001102000000000112000047000000000000007800000000000008563100000000000000009999123100000010000000000000BRAFLTACNOR1114
012020071002AGRO3       010BRASILAGRO  ON      NM   R$  000000000222700000000023290000000002213000000000226300000000022130000000002213000000000224801669000000000000361400000000000818108300000000000000009999123100000010000000000000BRAGROACNOR7109
012020071002ALPA3       010ALPARGATAS  ON      N1   R$  000000000250100000000025010000000002485000000000249500000000024850000000002465000000000248500005000000000000000500000000000001247600000000000000009999123100000010000000000000BRALPAACNOR0229
012020071002ALPA4       010ALPARGATAS  PN      N1   R$  000000000301100000000030180000000002951000000000298200000000029790000000002979000000000298004313000000000001044900000000003116893400000000000000009999123100000010000000000000BRALPAACNPR7229
012020071002ALPK3       010ESTAPAR     ON      NM   R$  000000000098200000000009820000000000956000000000096500000000009700000000000970000000000097200333000000000000072200000000000069678400000000000000009999123100000010000000000000BRALPKACNOR9100
012020071002ALSO3       010ALIANSCSONAEON      NM   R$  000000000297000000000030970000000002970000000000305200000000030450000000003041000000000304507915000000000001974500000000006026563100000000000000009999123100000010000000000000BRALSOACNOR5100
012020071002ALUP3       010ALUPAR      ON      N2   R$  000000000097000000000009740000000000965000000000096900000000009710000000000971000000000097300048000000000000010100000000000009796300000000000000009999123100000010000000000000BRALUPACNOR8111
012020071002ALUP4       010ALUPAR      PN      N2   R$  000000000072500000000007250000000000717000000000072000000000007240000000000720000000000072400093000000000000020100000000000014474000000000000000009999123100000010000000000000BRALUPACNPR5111
012020071002ALUP11      010ALUPAR      UNT     N2   R$  000000000239500000000024290000000002395000000000241000000000024290000000002419000000000242902524000000000000978600000000002358858800000000000000009999123100000010000000000000BRALUPCDAM15111
012020071002AMAR3       010LOJAS MARISAON      NM   R$  000000000086900000000008990000000000866000000000088400000000008850000000000885000000000088611684000000000006292400000000005566048700000000000000009999123100000010000000000000BRAMARACNOR4112
012020071002AMGN34      010AMGEN       DRN          R$  000000013323200000001332320000000132402000000013270900000001324020000000000000000000000000000002000000000000000270000000000035831540000000000000009999123100000010000000000000BRAMGNBDR004134
012020071002AMZO34      010AMAZON      DRN          R$  000000085800000000008581740000000846815000000085266100000008488820000000848882000000000000000015000000000000000510000000000434857150000000000000009999123100000010000000000000BRAMZOBDR002101
012020071002ANIM3       010ANIMA       ON      NM   R$  000000000251700000000025760000000002488000000000254100000000025760000000002574000000000257601325000000000000243600000000000619146400000000000000009999123100000010000000000000BRANIMACNOR6106
012020071002APER3       010ALPER S.A.  ON      NM   R$  000000000343500000000035480000000003369000000000346900000000035480000000003459000000000354800104000000000000037300000000000129421200000000000000009999123100000010000000000000BRAPERACNOR9102
012020071002APTV34      010APTIV PLC   DRN          R$  000000002041000000000204100000000020410000000002041000000000204100000000000000000000000000000001000000000000000940000000000019185400000000000000009999123100000010000000000000BRAPTVBDR003102
012020071002ARZZ3       010AREZZO CO   ON      NM   R$  000000000515000000000052300000000005108000000000517600000000052300000000005199000000000523002854000000000000527300000000002729497500000000000000009999123100000010000000000000BRARZZACNOR3137
012020071002ATOM3       010ATOMPAR     ON           R$  000000000022500000000002250000000000212000000000021800000000002170000000000216000000000021700220000000000000176300000000000038452300000000000000009999123100000010000000000000BRATOMACNOR1103
012020071002ATTB34      010ATT INC     DRN ED       R$  000000001601600000000160160000000016000000000001600700000000160080000000016008000000001700000005000000000000000310000000000004962250000000000000009999123100000010000000000000BRATTBBDR007132
012020071002AURA32      010AURA 360    DR2          R$  000000008199900000000820000000000080000000000008102700000000820000000000077000000000008200000067000000000000010500000000000850787100000000000000009999123100000010000000000000BRAURABDR001101
012020071002AVGO34      010BROADCOM INCDRN          R$  000000003401400000000340140000000034014000000003401400000000340140000000000000000000000000000001000000000000000700000000000023809800000000000000009999123100000010000000000000BRAVGOBDR003105
012020071002AXPB34      010AMERICAN EXPDRN ED       R$  000000004967300000000496730000000049673000000004967300000000496730000000000000000000005171700001000000000000000340000000000016888820000000000000009999123100000010000000000000BRAXPBBDR007133
012020071002AZEV3       010AZEVEDO     ON           R$  000000000135200000000013690000000001305000000000133500000000013400000000001330000000000134000030000000000000004800000000000006409800000000000000009999123100000010000000000000BRAZEVACNOR0117
012020071002AZEV4       010AZEVEDO     PN           R$  000000000046200000000004780000000000461000000000046900000000004700000000000470000000000047500088000000000000029100000000000013669100000000000000009999123100000010000000000000BRAZEVACNPR7117
012020071002AZUL4       010AZUL        PN      N2   R$  000000000207500000000022150000000002063000000000213800000000021910000000002191000000000219234981000000000017395500000000037192719400000000000000009999123100000010000000000000BRAZULACNPR4100
012020071002B1KR34      010BAKER HUGHESDRN          R$  000000000792300000000079230000000007922000000000792200000000079220000000000000000000000000000002000000000000000600000000000004753210000000000000009999123100000010000000000000BRB1KRBDR005102
012020071002B1MR34      010BIOMARIN PHADRN          R$  000000003360100000000336530000000033468000000003364600000000334680000000000000000000000000000003000000000000000530000000000017832680000000000000009999123100000010000000000000BRB1MRBDR001100
012020071002B3SA3       010B3          ON  EJ  NM   R$  000000000588000000000059980000000005760000000000591400000000059950000000005979000000000599526149000000000008017100000000047417262400000000000000009999123100000010000000000000BRB3SAACNOR6111
012020071002BABA34      010ALIBABAGR   DRN          R$  000000013819900000001391120000000137599000000013866300000001390240000000139028000000014830000007000000000000000500000000000069331750000000000000009999123100000010000000000000BRBABABDR005100
012020071002BAHI3       010BAHEMA      ON      MA   R$  000000000979900000000098990000000009601000000000975400000000096990000000009700000000000989600009000000000000001100000000000010730400000000000000009999123100000010000000000000BRBAHIACNOR1071
012020071002BALM4       010BAUMER      PN           R$  000000000099900000000009990000000000999000000000099900000000009990000000000964000000000099900001000000000000000100000000000000099900000000000000009999123100000010000000000000BRBALMACNPR2050
012020071002BAZA3       010AMAZONIA    ON           R$  000000000380000000000038970000000003800000000000385100000000038460000000003831000000000384600017000000000000001800000000000006932200000000000000009999123100000010000000000000BRBAZAACNOR0174
012020071002BBAS3       010BRASIL      ON      NM   R$  000000000338900000000034340000000003355000000000339600000000034140000000003414000000000341528000000000000014193400000000048204305800000000000000009999123100000010000000000000BRBBASACNOR3291
012020071002BBDC3       010BRADESCO    ON  EJ  N1   R$  000000000202800000000020490000000002001000000000203100000000020450000000002044000000000204508281000000000002543700000000005166863600000000000000009999123100000010000000000000BRBBDCACNOR1713
012020071002BBDC4       010BRADESCO    PN  EJ  N1   R$  000000000219400000000022270000000002165000000000220300000000022270000000002225000000000222759196000000000068710100000000151385470800000000000000009999123100000010000000000000BRBBDCACNPR8713
012020071002BBRK3       010BR BROKERS  ON      NM   R$  000000000025300000000002610000000000252000000000025700000000002610000000000261000000000026200829000000000000520800000000000134246900000000000000009999123100000010000000000000BRBBRKACNOR4113
012020071002BBSE3       010BBSEGURIDADEON      NM   R$  000000000281100000000028250000000002751000000000276500000000027720000000002770000000000277215358000000000005101200000000014105110100000000000000009999123100000010000000000000BRBBSEACNOR5116
012020071002BCSA34      010SANTANDER   DRN          R$  000000000130000000000013330000000001300000000000132100000000013330000000001315000000000133300073000000000000027090000000000035788570000000000000009999123100000010000000000000BRBCSABDR005101
012020071002BEEF3       010MINERVA     ON      NM   R$  000000000132600000000013590000000001316000000000134300000000013440000000001342000000000134407110000000000003494300000000004694178200000000000000009999123100000010000000000000BRBEEFACNOR6108
012020071002BEES3       010BANESTES    ON           R$  000000000059900000000006000000000000597000000000059800000000005970000000000597000000000059900117000000000000038300000000000022914400000000000000009999123100000010000000000000BRBEESACNOR9338
012020071002BEES4       010BANESTES    PN           R$  000000000061700000000006190000000000610000000000061300000000006100000000000610000000000061700024000000000000003800000000000002332300000000000000009999123100000010000000000000BRBEESACNPR6263
012020071002BERK34      010BERKSHIRE   DRN          R$  000000009555800000000975320000000095558000000009682200000000972030000000097203000000000000000043000000000000003000000000000290467470000000000000009999123100000010000000000000BRBERKBDR002100
012020071002BGIP4       010BANESE      PN           R$  000000000325000000000032500000000003201000000000321900000000032420000000003140000000000324900006000000000000000800000000000002575200000000000000009999123100000010000000000000BRBGIPACNPR8198
012020071002BIDI3       010BANCO INTER ON  EJS N2   R$  000000000148500000000016000000000001466000000000153100000000015900000000001590000000000159503041000000000000519500000000000795752100000000000000009999123100000010000000000000BRBIDIACNOR3106
012020071002BIDI4       010BANCO INTER PN  EJS N2   R$  000000000159600000000017360000000001580000000000166600000000017330000000001725000000000173313491000000000004208800000000007014948000000000000000009999123100000010000000000000BRBIDIACNPR0110
012020071002BIDI11      010BANCO INTER UNT EJS N2   R$  000000000467100000000050800000000004628000000000486100000000050400000000005037000000000504006359000000000001208800000000005876997500000000000000009999123100000010000000000000BRBIDICDAXX3105
012020071002BIDU34      010BAIDU INC   DRN          R$  000000007010600000000701060000000070106000000007010600000000701060000000000000000000000000000001000000000000000200000000000014021200000000000000009999123100000010000000000000BRBIDUBDR002100
012020071002BIOM3       010BIOMM       ON      MA   R$  000000000182000000000018420000000001770000000000179700000000017850000000001785000000000178900187000000000000042700000000000076753200000000000000009999123100000010000000000000BRBIOMACNOR2107
012020071002BKBR3       010BK BRASIL   ON      NM   R$  000000000114200000000012750000000001126000000000121600000000012400000000001238000000000124013025000000000004068000000000004947397900000000000000009999123100000010000000000000BRBKBRACNOR4103
012020071002BKNG34      010BOOKING     DRN          R$  000000003605000000000360500000000036050000000003605000000000360500000000035000000000000000000001000000000000000030000000000001081500000000000000009999123100000010000000000000BRBKNGBDR006100
012020071002BMEB4       010MERC BRASIL PN           R$  000000000146900000000014690000000001459000000000145900000000014600000000001456000000000146000011000000000000001400000000000002043800000000000000009999123100000010000000000000BRBMEBACNPR5201
012020071002BMGB4       010BANCO BMG   PN      N1   R$  000000000055000000000005530000000000543000000000054900000000005500000000000549000000000055001801000000000000962900000000000528714500000000000000009999123100000010000000000000BRBMGBACNPR0101
012020071002BMIN3       010MERC INVEST ON           R$  000000000205100000000021510000000002050000000000208000000000020800000000002080000000000213300011000000000000002000000000000004161400000000000000009999123100000010000000000000BRBMINACNOR4168
012020071002BMIN4       010MERC INVEST PN           R$  000000000195000000000020000000000001950000000000198000000000020000000000001952000000000200000003000000000000000500000000000000990000000000000000009999123100000010000000000000BRBMINACNPR1171
012020071002BMKS3       010BIC MONARK  ON           R$  000000001860000000000194500000000018600000000001897200000000188000000000018800000000001920000018000000000000000250000000000004743241000000000000009999123100000010000000000000BRBMKSACNOR9162
012020071002BMYB34      010BRISTOLMYERSDRN ED       R$  000000003086900000000308690000000030869000000003086900000000308690000000000000000000000000000001000000000000000030000000000000926070000000000000009999123100000010000000000000BRBMYBBDR000127
012020071002BNBR3       010NORD BRASIL ON           R$  000000000815100000000084990000000008151000000000826100000000084990000000008000000000000839900006000000000000001000000000000008261200000000000000009999123100000010000000000000BRBNBRACNOR8200
012020071002BOAC34      010BANK AMERICADRN          R$  000000001300000000000130000000000013000000000001300000000000130000000000013000000000001400000003000000000000003180000000000041340000000000000000009999123100000010000000000000BRBOACBDR004139
012020071002BOBR4       010BOMBRIL     PN           R$  000000000024000000000002400000000000228000000000023400000000002370000000000237000000000023800340000000000000121400000000000028510600000000000000009999123100000010000000000000BRBOBRACNPR3128
012020071002BOEI34      010BOEING      DRN          R$  000000009350000000000935000000000093500000000009350000000000935000000000089748000000014770000001000000000000000020000000000001870000000000000000009999123100000010000000000000BRBOEIBDR003132
012020071002BPAC3       010BTGP BANCO  ON      N2   R$  000000000390000000000039000000000003756000000000384200000000038030000000003803000000000387500014000000000000001900000000000007301600000000000000009999123100000010000000000000BRBPACACNOR7121
012020071002BPAC5       010BTGP BANCO  PNA     N2   R$  000000000239000000000023900000000002389000000000238900000000023900000000002305000000000245000006000000000000000800000000000001911600000000000000009999123100000010000000000000BRBPACACNPA0121
012020071002BPAC11      010BTGP BANCO  UNT     N2   R$  000000000834500000000085400000000008226000000000847300000000085400000000008501000000000854008953000000000003215900000000027249389600000000000000009999123100000010000000000000BRBPACUNT006106
012020071002BPAC13      010BTGP BANCO  UNT     N2   R$  000000000840000000000084990000000008250000000000844400000000084990000000008401000000000849900013000000000000007100000000000059954100000000000000009999123100000010000000000000BRBPACUNT014100
012020071002BPAN4       010BANCO PAN   PN      N1   R$  000000000093100000000009480000000000919000000000093200000000009350000000000934000000000093505465000000000003593600000000003350576500000000000000009999123100000010000000000000BRBPANACNPR1109
012020071002BRAP3       010BRADESPAR   ON      N1   R$  000000000334900000000034360000000003349000000000339900000000034270000000003413000000000342800037000000000000005700000000000019375700000000000000009999123100000010000000000000BRBRAPACNOR5136
012020071002BRAP4       010BRADESPAR   PN      N1   R$  000000000366700000000037930000000003651000000000374800000000037560000000003756000000000376512544000000000003574700000000013400544200000000000000009999123100000010000000000000BRBRAPACNPR2136
012020071002BRDT3       010PETROBRAS BRON      NM   R$  000000000228000000000023010000000002240000000000225700000000022610000000002261000000000226216575000000000004489300000000010134953400000000000000009999123100000010000000000000BRBRDTACNOR1119
012020071002BRFS3       010BRF SA      ON      NM   R$  000000000206700000000020760000000002047000000000206200000000020600000000002059000000000206015356000000000006746400000000013917174600000000000000009999123100000010000000000000BRBRFSACNOR8119
012020071002BRGE3       010ALFA CONSORCON           R$  000000000090100000000009010000000000901000000000090100000000009010000000000904000000000098000002000000000000000500000000000000450500000000000000009999123100000010000000000000BRBRGEACNOR6202
012020071002BRGE12      010ALFA CONSORCPNF          R$  000000000059000000000006200000000000590000000000060300000000006200000000000595000000000063400008000000000000001100000000000000663500000000000000009999123100000010000000000000BRBRGEACNPF8096
012020071002BRIV3       010ALFA INVEST ON           R$  000000000075300000000007530000000000753000000000075300000000007530000000000754000000000084200001000000000000000100000000000000075300000000000000009999123100000010000000000000BRBRIVACNOR6205
012020071002BRIV4       010ALFA INVEST PN           R$  000000000075000000000007680000000000745000000000074600000000007680000000000750000000000076900013000000000000005200000000000003879600000000000000009999123100000010000000000000BRBRIVACNPR3210
012020071002BRKM3       010BRASKEM     ON      N1   R$  000000000250400000000025070000000002450000000000246000000000024620000000002451000000000246200089000000000000031800000000000078228400000000000000009999123100000010000000000000BRBRKMACNOR1117
012020071002BRKM5       010BRASKEM     PNA     N1   R$  000000000237600000000023830000000002292000000000233400000000023600000000002360000000000236111347000000000003888600000000009079657600000000000000009999123100000010000000000000BRBRKMACNPA4117
012020071002BRML3       010BR MALLS PARON      NM   R$  000000000109900000000011340000000001096000000000112400000000011270000000001126000000000112725495000000000009891800000000011121748900000000000000009999123100000010000000000000BRBRMLACNOR9115
012020071002BRPR3       010BR PROPERT  ON      NM   R$  000000000095700000000010060000000000952000000000097800000000009980000000000995000000000099810706000000000008506300000000008322296700000000000000009999123100000010000000000000BRBRPRACNOR9119
012020071002BRSR3       010BANRISUL    ON      N1   R$  000000000166300000000016630000000001599000000000161100000000016400000000001622000000000163900240000000000000069900000000000112623100000000000000009999123100000010000000000000BRBRSRACNOR3168
012020071002BRSR5       010BANRISUL    PNA     N1   R$  000000000215000000000021500000000002150000000000215000000000021500000000002046000000000214900001000000000000000100000000000000215000000000000000009999123100000010000000000000BRBRSRACNPA6172
012020071002BRSR6       010BANRISUL    PNB     N1   R$  000000000142800000000014370000000001413000000000142400000000014370000000001436000000000143707608000000000001804900000000002570328400000000000000009999123100000010000000000000BRBRSRACNPB4171
012020071002BSEV3       010BIOSEV      ON      NM   R$  000000000037700000000003860000000000368000000000037700000000003800000000000380000000000038100216000000000000088100000000000033239500000000000000009999123100000010000000000000BRBSEVACNOR3102
012020071002BTOW3       010B2W DIGITAL ON      NM   R$  000000001197900000000121360000000011753000000001195900000000120240000000012018000000001202409346000000000001914500000000022896874700000000000000009999123100000010000000000000BRBTOWACNOR8110
012020071002BTTL3       010BATTISTELLA ON           R$  000000000064300000000006430000000000632000000000063900000000006320000000000632000000000064000003000000000000001600000000000001022500000000000000009999123100000010000000000000BRBTTLACNOR0108
012020071002C1CL34      010CARNIVAL CORDRN          R$  000000000855000000000085500000000008550000000000855000000000085500000000006633000000000930000001000000000000000010000000000000085500000000000000009999123100000010000000000000BRC1CLBDR004101
012020071002C1HR34      010CH ROBINSON DRN          R$  000000002202000000000220200000000022020000000002202000000000220200000000000000000000000000000001000000000000001400000000000030828000000000000000009999123100000010000000000000BRC1HRBDR000102
012020071002C1XO34      010CONCHO RESOUDRN          R$  000000001297000000000129700000000012970000000001297000000000129700000000000000000000000000000002000000000000000300000000000003891000000000000000009999123100000010000000000000BRC1XOBDR004102
012020071002CAMB3       010CAMBUCI     ON           R$  000000000048100000000004810000000000462000000000047000000000004700000000000469000000000047000426000000000000253800000000000119425800000000000000009999123100000010000000000000BRCAMBACNOR4119
012020071002CAML3       010CAMIL       ON      NM   R$  000000000114500000000011550000000001130000000000114400000000011460000000001146000000000115003327000000000000821500000000000939841200000000000000009999123100000010000000000000BRCAMLACNOR3110
012020071002CARD3       010CSU CARDSYSTON      NM   R$  000000000130800000000013080000000001283000000000129300000000012830000000001283000000000129100429000000000000135900000000000175764000000000000000009999123100000010000000000000BRCARDACNOR9118
012020071002CCPR3       010CYRE COM-CCPON      NM   R$  000000000164800000000016610000000001618000000000164500000000016480000000001642000000000164800482000000000000101400000000000166886600000000000000009999123100000010000000000000BRCCPRACNOR9114
012020071002CCRO3       010CCR SA      ON      NM   R$  000000000145300000000014630000000001403000000000143700000000014500000000001450000000000145124827000000000008779100000000012621182200000000000000009999123100000010000000000000BRCCROACNOR2137
012020071002CEAB3       010CEA MODAS   ON      NM   R$  000000000110900000000011710000000001106000000000115200000000011570000000001156000000000115713468000000000004505800000000005194231000000000000000009999123100000010000000000000BRCEABACNOR1101
012020071002CEBR3       010CEB         ON           R$  000000000580000000000058450000000005750000000000578200000000057500000000005749000000000580000007000000000000001400000000000008095000000000000000009999123100000010000000000000BRCEBRACNOR5117
012020071002CEDO3       010CEDRO       ON      N1   R$  000000000118000000000012100000000001180000000000119000000000011810000000001176000000000118100005000000000000000600000000000000714200000000000000009999123100000010000000000000BRCEDOACNOR8096
012020071002CEDO4       010CEDRO       PN      N1   R$  000000000068100000000006810000000000681000000000068100000000006810000000000681000000000069900004000000000000001200000000000000817200000000000000009999123100000010000000000000BRCEDOACNPR5128
012020071002CESP3       010CESP        ON      N1   R$  000000000337600000000033760000000003300000000000331300000000033200000000003303000000000332400034000000000000016700000000000055332200000000000000009999123100000010000000000000BRCESPACNOR3169
012020071002CESP5       010CESP        PNA     N1   R$  000000000329000000000032900000000003290000000000329000000000032900000000003121000000000335000006000000000000005600000000000018424000000000000000009999123100000010000000000000BRCESPACNPA6116
012020071002CESP6       010CESP        PNB     N1   R$  000000000289000000000029220000000002881000000000290500000000029220000000002908000000000292304292000000000001288400000000003743695500000000000000009999123100000010000000000000BRCESPACNPB4128
012020071002CGAS5       010COMGAS      PNA          R$  000000001787800000000178780000000017300000000001754700000000173000000000017300000000001744800098000000000000011600000000000203549300000000000000009999123100000010000000000000BRCGASACNPA3148
012020071002CGRA3       010GRAZZIOTIN  ON           R$  000000000273000000000027300000000002645000000000266700000000026500000000002611000000000269900015000000000000002000000000000005335300000000000000009999123100000010000000000000BRCGRAACNOR2071
012020071002CGRA4       010GRAZZIOTIN  PN           R$  000000000265000000000026800000000002576000000000261000000000026290000000002615000000000263000125000000000000020800000000000054299600000000000000009999123100000010000000000000BRCGRAACNPR9071
012020071002CHVX34      010CHEVRON     DRN          R$  000000002242100000000226380000000022421000000002247100000000226380000000022638000000000000000002000000000000000260000000000005842480000000000000009999123100000010000000000000BRCHVXBDR008137
012020071002CIEL3       010CIELO       ON      NM   R$  000000000050300000000005130000000000479000000000049300000000004910000000000491000000000049260305000000000088922000000000043918639600000000000000009999123100000010000000000000BRCIELACNOR3142
012020071002CLSC4       010CELESC      PN      N2   R$  000000000600000000000061000000000005950000000000599400000000059500000000005830000000000595000041000000000000005400000000000032372500000000000000009999123100000010000000000000BRCLSCACNPR3115
012020071002CLXC34      010CLOROX CO   DRN          R$  000000003073800000000307520000000030721000000003074400000000307210000000000000000000000000000004000000000000000060000000000001844670000000000000009999123100000010000000000000BRCLXCBDR000103
012020071002CMCS34      010COMCAST     DRN          R$  000000002135000000000230000000000021350000000002253600000000230000000000023000000000000000000007000000000000003830000000000086315950000000000000009999123100000010000000000000BRCMCSBDR008135
012020071002CMIG3       010CEMIG       ON      N1   R$  000000000118800000000012060000000001178000000000119200000000011950000000001190000000000119502371000000000000629200000000000750088900000000000000009999123100000010000000000000BRCMIGACNOR6223
012020071002CMIG4       010CEMIG       PN      N1   R$  000000000115100000000011690000000001134000000000115300000000011520000000001150000000000115219618000000000006123400000000007064751700000000000000009999123100000010000000000000BRCMIGACNPR3224
012020071002CNTO3       010CENTAURO    ON      NM   R$  000000000339200000000034600000000003327000000000337900000000033320000000003332000000000333306813000000000001664400000000005625564800000000000000009999123100000010000000000000BRCNTOACNOR5100
012020071002COCA34      010COCA COLA   DRN          R$  000000002390000000000239000000000023900000000002390000000000239000000000023000000000002600000001000000000000000010000000000000239000000000000000009999123100000010000000000000BRCOCABDR002135
012020071002COCE5       010COELCE      PNA          R$  000000000566100000000056860000000005600000000000565300000000056600000000005650000000000577500044000000000000011600000000000065582900000000000000009999123100000010000000000000BRCOCEACNPA3140
012020071002COGN3       010COGNA ON    ON      NM   R$  000000000079000000000008680000000000785000000000083400000000008640000000000864000000000086510767000000000148316900000000123802059500000000000000009999123100000010000000000000BRCOGNACNOR2101
012020071002COPH34      010COPHILLIPS  DRN          R$  000000000526900000000052780000000005212000000000523900000000052600000000004809000000000625000004000000000000001300000000000006811240000000000000009999123100000010000000000000BRCOPHBDR009134
012020071002COTY34      010COTY INC    DRN          R$  000000000109500000000010950000000001095000000000109500000000010950000000001016000000000113900001000000000000000200000000000000219000000000000000009999123100000010000000000000BRCOTYBDR006116
012020071002COWC34      010COSTCO      DRN          R$  000000004335000000000436430000000043350000000004363500000000436330000000038041000000000000000003000000000000000880000000000038398910000000000000009999123100000010000000000000BRCOWCBDR006118
012020071002CPFE3       010CPFL ENERGIAON      NM   R$  000000000302000000000030400000000003006000000000302200000000030340000000003033000000000303406988000000000001504800000000004547985400000000000000009999123100000010000000000000BRCPFEACNOR0129
012020071002CPLE3       010COPEL       ON      N1   R$  000000000595600000000059580000000005841000000000588100000000058820000000005882000000000588801348000000000000323000000000001899628500000000000000009999123100000010000000000000BRCPLEACNOR8139
012020071002CPLE6       010COPEL       PNB     N1   R$  000000000611000000000061580000000006052000000000608800000000060520000000006052000000000606803769000000000000665700000000004053360200000000000000009999123100000010000000000000BRCPLEACNPB9136
012020071002CRDE3       010CR2         ON           R$  000000000217900000000021790000000002179000000000217900000000021790000000002037000000000217800001000000000000000100000000000000217900000000000000009999123100000010000000000000BRCRDEACNOR1112
012020071002CRFB3       010CARREFOUR BRON      NM   R$  000000000202000000000020270000000001976000000000201100000000020200000000002020000000000202211479000000000002973600000000005980130100000000000000009999123100000010000000000000BRCRFBACNOR2106
012020071002CRIV3       010ALFA FINANC ON           R$  000000000053700000000005650000000000530000000000054300000000005650000000000533000000000056200010000000000000001100000000000000597300000000000000009999123100000010000000000000BRCRIVACNOR4194
012020071002CRIV4       010ALFA FINANC PN           R$  000000000064700000000006490000000000640000000000064800000000006400000000000619000000000064000008000000000000003100000000000002009600000000000000009999123100000010000000000000BRCRIVACNPR1203
012020071002CRPG5       010CRISTAL     PNA          R$  000000000222000000000022900000000002200000000000224300000000022900000000002240000000000229000067000000000000012100000000000027148600000000000000009999123100000010000000000000BRCRPGACNPA3108
012020071002CSAN3       010COSAN       ON      NM   R$  000000000738800000000075210000000007388000000000746100000000074400000000007440000000000744908788000000000001902400000000014195173700000000000000009999123100000010000000000000BRCSANACNOR6120
012020071002CSCO34      010CISCO       DRN ED       R$  000000002489000000000250510000000024890000000002504000000000250510000000024500000000000000000002000000000000000750000000000018780200000000000000009999123100000010000000000000BRCSCOBDR004138
012020071002CSMG3       010COPASA      ON      NM   R$  000000000581000000000058490000000005723000000000578500000000058030000000005803000000000582703040000000000000425000000000002458637800000000000000009999123100000010000000000000BRCSMGACNOR5156
012020071002CSNA3       010SID NACIONALON           R$  000000000111000000000011230000000001105000000000111800000000011230000000001122000000000112307827000000000005901700000000006599050800000000000000009999123100000010000000000000BRCSNAACNOR6252
012020071002CTGP34      010CITIGROUP   DRN          R$  000000002796500000000279650000000027965000000002796500000000279650000000027965000000000000000001000000000000000030000000000000838950000000000000009999123100000010000000000000BRCTGPBDR000138
012020071002CTKA4       010KARSTEN     PN           R$  000000000124300000000012490000000001140000000000120800000000012020000000001202000000000123800022000000000000003200000000000003867000000000000000009999123100000010000000000000BRCTKAACNPR7043
012020071002CTNM3       010COTEMINAS   ON           R$  000000000116100000000011610000000001115000000000115000000000011150000000001115000000000115900008000000000000002100000000000002415500000000000000009999123100000010000000000000BRCTNMACNOR9130
012020071002CTNM4       010COTEMINAS   PN           R$  000000000063500000000006350000000000610000000000062500000000006350000000000631000000000063500117000000000000027700000000000017339500000000000000009999123100000010000000000000BRCTNMACNPR6129
012020071002CTSA3       010SANTANENSE  ON  EDB      R$  000000000035000000000003650000000000340000000000034400000000003450000000000345000000000035000128000000000000044000000000000015162900000000000000009999123100000010000000000000BRCTSAACNOR3060
012020071002CTSA4       010SANTANENSE  PN  EDB      R$  000000000031100000000003180000000000305000000000031300000000003130000000000309000000000031400071000000000000023700000000000007428100000000000000009999123100000010000000000000BRCTSAACNPR0060
012020071002CVCB3       010CVC BRASIL  ON      NM   R$  000000000193000000000022000000000001911000000000209500000000022000000000002198000000000220043931000000000020416700000000042785714000000000000000009999123100000010000000000000BRCVCBACNOR1112
012020071002CVSH34      010CVS HEALTH  DRN          R$  000000001660000000000166000000000016541000000001659600000000165410000000013485000000000000000003000000000000000160000000000002655410000000000000009999123100000010000000000000BRCVSHBDR008116
012020071002CYRE3       010CYRELA REALTON      NM   R$  000000000267300000000028110000000002661000000000274000000000028030000000002803000000000280435421000000000011772100000000032257947800000000000000009999123100000010000000000000BRCYREACNOR7133
012020071002DASA3       010DASA        ON           R$  000000000670000000000070000000000006700000000000676400000000070000000000007000000000000710000003000000000000000700000000000004735000000000000000009999123100000010000000000000BRDASAACNOR1119
012020071002DEAI34      010DELTA       DRN          R$  000000001395200000000144820000000013952000000001415000000000144820000000013351000000002300000002000000000000000080000000000001132060000000000000009999123100000010000000000000BRDEAIBDR008116
012020071002DGCO34      010DOLLAR GENERDRN ED       R$  000000005034100000000503410000000050341000000005034100000000503410000000000000000000000000000002000000000000000030000000000001510230000000000000009999123100000010000000000000BRDGCOBDR007105
012020071002DIRR3       010DIRECIONAL  ON      NM   R$  000000000176400000000017890000000001743000000000175900000000017460000000001745000000000174906281000000000001576200000000002773526100000000000000009999123100000010000000000000BRDIRRACNOR0112
012020071002DISB34      010WALT DISNEY DRN          R$  000000006262300000000636200000000062623000000006339800000000632810000000062000000000006400000008000000000000001060000000000067202530000000000000009999123100000010000000000000BRDISBBDR006114
012020071002DMMO3       010DOMMO       ON           R$  000000000015600000000001570000000000154000000000015400000000001560000000000156000000000015702554000000000002657800000000000411895000000000000000009999123100000010000000000000BRDMMOACNOR0102
012020071002DOHL4       010DOHLER      PN           R$  000000000059800000000006260000000000598000000000061300000000006240000000000602000000000062500013000000000000001700000000000001043100000000000000009999123100000010000000000000BRDOHLACNPR9060
012020071002DTCY3       010DTCOM-DIRECTON           R$  000000000062500000000006400000000000587000000000060800000000006250000000000615000000000062800029000000000000013700000000000008341500000000000000009999123100000010000000000000BRDTCYACNOR5109
012020071002DTEX3       010DURATEX     ON      NM   R$  000000000155600000000015650000000001523000000000154800000000015410000000001541000000000154708117000000000002533000000000003921637500000000000000009999123100000010000000000000BRDTEXACNOR3128
012020071002E1CL34      010ECOLAB INC  DRN          R$  000000002685700000000268570000000026857000000002685700000000268570000000000000000000000000000001000000000000000620000000000016651340000000000000009999123100000010000000000000BRE1CLBDR002102
012020071002E1OG34      010EOG RESOURCEDRN          R$  000000001194700000000119470000000011947000000001194700000000119470000000011947000000000000000002000000000000000300000000000003584100000000000000009999123100000010000000000000BRE1OGBDR007102
012020071002EALT3       010ACO ALTONA  ON           R$  000000000128100000000014000000000001281000000000132800000000013400000000001307000000000135000031000000000000004700000000000006243300000000000000009999123100000010000000000000BREALTACNOR4133
012020071002EALT4       010ACO ALTONA  PN           R$  000000000042400000000004700000000000420000000000045000000000004700000000000468000000000047000456000000000000170300000000000076688800000000000000009999123100000010000000000000BREALTACNPR1133
012020071002EBAY34      010EBAY        DRN          R$  000000001588000000000158800000000015770000000001578300000000157700000000000000000000000000000003000000000000000140000000000002209700000000000000009999123100000010000000000000BREBAYBDR009107
012020071002ECOR3       010ECORODOVIAS ON      NM   R$  000000000143600000000014440000000001403000000000141900000000014290000000001429000000000143011222000000000003178300000000004512506500000000000000009999123100000010000000000000BRECORACNOR8116
012020071002EGIE3       010ENGIE BRASILON      NM   R$  000000000432700000000043670000000004259000000000429900000000042940000000004294000000000429508068000000000004294000000000018460440200000000000000009999123100000010000000000000BREGIEACNOR9112
012020071002ELET3       010ELETROBRAS  ON      N1   R$  000000000361100000000037340000000003520000000000363100000000036270000000003625000000000362727832000000000007334400000000026635340300000000000000009999123100000010000000000000BRELETACNOR6154
012020071002ELET6       010ELETROBRAS  PNB     N1   R$  000000000371000000000038280000000003611000000000371400000000037090000000003709000000000371213415000000000002928900000000010879216400000000000000009999123100000010000000000000BRELETACNPB7071
012020071002EMAE4       010EMAE        PN           R$  000000000294900000000030090000000002949000000000297600000000030000000000002957000000000300000036000000000000005700000000000016965600000000000000009999123100000010000000000000BREMAEACNPR1114
012020071002EMBR3       010EMBRAER     ON      NM   R$  000000000080000000000008090000000000786000000000079900000000008060000000000805000000000080617571000000000009542500000000007628102800000000000000009999123100000010000000000000BREMBRACNOR4189
012020071002ENAT3       010ENAUTA PART ON      NM   R$  000000000109500000000010980000000001068000000000108400000000010980000000001095000000000109804585000000000001076000000000001166935400000000000000009999123100000010000000000000BRENATACNOR0101
012020071002ENBR3       010ENERGIAS BR ON      NM   R$  000000000177800000000017830000000001759000000000177000000000017720000000001772000000000177306627000000000001408800000000002494235100000000000000009999123100000010000000000000BRENBRACNOR2129
012020071002ENEV3       010ENEVA       ON      NM   R$  000000000480600000000048440000000004770000000000479600000000047770000000004776000000000480005108000000000000840400000000004030791000000000000000009999123100000010000000000000BRENEVACNOR8104
012020071002ENGI3       010ENERGISA    ON      N2   R$  000000000122000000000012220000000001201000000000121400000000012220000000001210000000000122200061000000000000006600000000000008016100000000000000009999123100000010000000000000BRENGIACNOR0137
012020071002ENGI4       010ENERGISA    PN      N2   R$  000000000088900000000008940000000000873000000000088100000000008840000000000880000000000089400098000000000000021900000000000019314600000000000000009999123100000010000000000000BRENGIACNPR7133
012020071002ENGI11      010ENERGISA    UNT     N2   R$  000000000472500000000048120000000004706000000000473900000000047570000000004755000000000475704695000000000001740100000000008247903000000000000000009999123100000010000000000000BRENGICDAM16127
012020071002EQIX34      010EQUINIX INC DRN          R$  000000007672800000000767280000000076728000000007672800000000767280000000000000000000000000000001000000000000000270000000000020716560000000000000009999123100000010000000000000BREQIXBDR002105
012020071002EQPA3       010EQTL PARA   ON           R$  000000000036000000000003610000000000354000000000035700000000003600000000000358000000000036000067000000000000022900000000000008196300000000000000009999123100000010000000000000BREQPAACNOR1101
012020071002EQPA7       010EQTL PARA   PNC          R$  000000000060000000000006000000000000600000000000060000000000006000000000000600000000000063800001000000000000000100000000000000060000000000000000009999123100000010000000000000BREQPAACNPC0101
012020071002EQTL3       010EQUATORIAL  ON      NM   R$  000000000241200000000024440000000002382000000000242800000000024440000000002440000000000244411401000000000003562200000000008649647900000000000000009999123100000010000000000000BREQTLACNOR0125
012020071002EUCA3       010EUCATEX     ON      N1   R$  000000000267000000000026700000000002625000000000264300000000026250000000002623000000000267500022000000000000003300000000000008724600000000000000009999123100000010000000000000BREUCAACNOR1151
012020071002EUCA4       010EUCATEX     PN      N1   R$  000000000065600000000006650000000000647000000000065500000000006500000000000650000000000065400264000000000000085200000000000055814500000000000000009999123100000010000000000000BREUCAACNPR8038
012020071002EVEN3       010EVEN        ON      NM   R$  000000000130900000000013770000000001270000000000133700000000013770000000001375000000000137707726000000000004415600000000005905070800000000000000009999123100000010000000000000BREVENACNOR8112
012020071002EXXO34      010EXXON MOBIL DRN          R$  000000000554000000000056500000000005540000000000559800000000056500000000005650000000000620000006000000000000002170000000000012147900000000000000009999123100000010000000000000BREXXOBDR006139
012020071002EZTC3       010EZTEC       ON      NM   R$  000000000424000000000042770000000004154000000000421000000000042390000000004238000000000424111386000000000002752400000000011588914400000000000000009999123100000010000000000000BREZTCACNOR0114
012020071002F1NI34      010FIDELITY NATDRN          R$  000000001821000000000182100000000018210000000001821000000000182100000000000000000000000000000001000000000000001000000000000018210000000000000000009999123100000010000000000000BRF1NIBDR004102
012020071002FBOK34      010FACEBOOK    DRN          R$  000000006500000000000651090000000064223000000006484900000000649460000000065130000000006560000017000000000000001720000000000111541390000000000000009999123100000010000000000000BRFBOKBDR006100
012020071002FESA4       010FERBASA     PN      N1   R$  000000000184500000000019040000000001807000000000185300000000018790000000001879000000000188701352000000000000278800000000000516826800000000000000009999123100000010000000000000BRFESAACNPR5066
012020071002FLRY3       010FLEURY      ON      NM   R$  000000000256000000000025840000000002540000000000254900000000025440000000002544000000000254507568000000000001226400000000003126292000000000000000009999123100000010000000000000BRFLRYACNOR5127
012020071002FMXB34      010FEMSA       DRN          R$  000000003130000000000313500000000031300000000003132500000000313500000000000000000000000000000002000000000000000040000000000001253000000000000000009999123100000010000000000000BRFMXBBDR003104
012020071002FRAS3       010FRAS-LE     ON      N1   R$  000000000055900000000005590000000000542000000000055000000000005510000000000546000000000055200259000000000000095800000000000052721100000000000000009999123100000010000000000000BRFRASACNOR0149
012020071002FRIO3       010METALFRIO   ON      NM   R$  000000001150000000000118000000000011400000000001156600000000114000000000011250000000001150000003000000000000000300000000000003470000000000000000009999123100000010000000000000BRFRIOACNOR2110
012020071002G1WW34      010WW GRAINGER DRN          R$  000000003306000000000330600000000033060000000003306000000000330600000000000000000000000000000001000000000000000960000000000031737600000000000000009999123100000010000000000000BRG1WWBDR005102
012020071002GBIO33      010BIOTOSCANA  DR3          R$  000000000102000000000010300000000001020000000000102400000000010280000000001026000000000102800252000000000003014100000000003088491400000000000000009999123100000010000000000000BRGBIOBDR008100
012020071002GEOO34      010GE          DRN          R$  000000000354700000000035470000000003546000000000354600000000035460000000003546000000000000000002000000000000000160000000000000567370000000000000009999123100000010000000000000BRGEOOBDR000140
012020071002GEPA4       010GER PARANAP PN  ED       R$  000000000455000000000046500000000004550000000000460000000000046000000000004554000000000460000006000000000000000600000000000002760300000000000000009999123100000010000000000000BRGEPAACNPR9153
012020071002GFSA3       010GAFISA      ON      NM   R$  000000000063200000000006460000000000620000000000063500000000006420000000000642000000000064306761000000000005689800000000003618447300000000000000009999123100000010000000000000BRGFSAACNOR3118
012020071002GGBR3       010GERDAU      ON      N1   R$  000000000138300000000013830000000001361000000000137400000000013790000000001370000000000138200308000000000000127600000000000175324100000000000000009999123100000010000000000000BRGGBRACNOR1173
012020071002GGBR4       010GERDAU      PN      N1   R$  000000000160500000000016260000000001594000000000160900000000016100000000001610000000000161217732000000000013734600000000022106204800000000000000009999123100000010000000000000BRGGBRACNPR8173
012020071002GILD34      010GILEAD      DRN          R$  000000001988300000000204760000000019883000000002046100000000204760000000000000000000002040000003000000000000000440000000000009003030000000000000009999123100000010000000000000BRGILDBDR000117
012020071002GMCO34      010GENERAL MOT DRN          R$  000000001264000000000126620000000012640000000001264800000000126620000000000000000000000000000002000000000000000050000000000000632440000000000000009999123100000010000000000000BRGMCOBDR008115
012020071002GNDI3       010INTERMEDICA ON      NM   R$  000000000647700000000064800000000006371000000000639600000000063750000000006373000000000637509142000000000001683200000000010765886000000000000000009999123100000010000000000000BRGNDIACNOR2102
012020071002GOAU3       010GERDAU MET  ON      N1   R$  000000000067600000000006800000000000667000000000067200000000006670000000000668000000000067400228000000000000131800000000000088658900000000000000009999123100000010000000000000BRGOAUACNOR1250
012020071002GOAU4       010GERDAU MET  PN      N1   R$  000000000073000000000007420000000000726000000000073500000000007320000000000732000000000073310290000000000011195800000000008232135900000000000000009999123100000010000000000000BRGOAUACNPR8251
012020071002GOGL34      010ALPHABET    DRN A        R$  000000003279000000000327900000000032190000000003255800000000323000000000032300000000003300000053000000000000005190000000000168980790000000000000009999123100000010000000000000BRGOGLBDR001100
012020071002GOGL35      010ALPHABET    DRN C        R$  000000003271800000000327180000000032718000000003271800000000327180000000032718000000003300000001000000000000000020000000000000654360000000000000009999123100000010000000000000BRGOGLBDR019100
012020071002GOLL4       010GOL         PN      N2   R$  000000000197900000000021300000000001964000000000204700000000020900000000002087000000000209034110000000000016646800000000034089201400000000000000009999123100000010000000000000BRGOLLACNPR4125
012020071002GPAR3       010CELGPAR     ON           R$  000000000290000000000029000000000002900000000000290000000000029000000000002001000000000309900002000000000000000300000000000000870000000000000000009999123100000010000000000000BRGPARACNOR4103
012020071002GPIV33      010GP INVEST   DR3          R$  000000000050500000000005050000000000481000000000049200000000004900000000000490000000000049500040000000000000022300000000000010988700000000000000009999123100000010000000000000BRGPIVBDR003104
012020071002GRND3       010GRENDENE    ON      NM   R$  000000000078700000000007890000000000776000000000078200000000007890000000000788000000000078904668000000000000996500000000000779808200000000000000009999123100000010000000000000BRGRNDACNOR3158
012020071002GSHP3       010GENERALSHOPPON      NM   R$  000000000528800000000052880000000005288000000000528800000000052880000000004930000000000530000001000000000000000100000000000000528800000000000000009999123100000010000000000000BRGSHPACNOR7102
012020071002GUAR3       010GUARARAPES  ON           R$  000000000173500000000018000000000001722000000000176200000000017910000000001788000000000179104373000000000001381000000000002433828800000000000000009999123100000010000000000000BRGUARACNOR4165
012020071002HAGA3       010HAGA S/A    ON           R$  000000000036300000000003820000000000363000000000037100000000003750000000000371000000000037500111000000000000051100000000000018999600000000000000009999123100000010000000000000BRHAGAACNOR7103
012020071002HAGA4       010HAGA S/A    PN           R$  000000000021400000000002240000000000206000000000021500000000002180000000000217000000000021800655000000000000557200000000000120253700000000000000009999123100000010000000000000BRHAGAACNPR4103
012020071002HALI34      010HALLIBURTON DRN          R$  000000000632500000000063250000000006324000000000632400000000063240000000000000000000000000000002000000000000000700000000000004426900000000000000009999123100000010000000000000BRHALIBDR004134
012020071002HAPV3       010HAPVIDA     ON      NM   R$  000000000600100000000060760000000005971000000000603800000000060470000000006047000000000605105743000000000001856000000000011207604500000000000000009999123100000010000000000000BRHAPVACNOR4105
012020071002HBOR3       010HELBOR      ON      NM   R$  000000000033700000000003480000000000331000000000033700000000003350000000000334000000000033510824000000000027694700000000009346010000000000000000009999123100000010000000000000BRHBORACNOR3113
012020071002HETA4       010HERCULES    PN           R$  000000000089600000000009020000000000875000000000089600000000008750000000000880000000000089000007000000000000000700000000000000627400000000000000009999123100000010000000000000BRHETAACNPR9136
012020071002HGTX3       010CIA HERING  ON  EJ  NM   R$  000000000151500000000016350000000001515000000000159400000000016140000000001614000000000161515707000000000005878100000000009375219800000000000000009999123100000010000000000000BRHGTXACNOR9151
012020071002HOME34      010HOME DEPOT  DRN          R$  000000006677800000000667780000000066713000000006674600000000667130000000055000000000007117100002000000000000000610000000000040715080000000000000009999123100000010000000000000BRHOMEBDR002133
012020071002HYPE3       010HYPERA      ON      NM   R$  000000000322000000000032660000000003211000000000323600000000032310000000003231000000000323212892000000000002742600000000008876936000000000000000009999123100000010000000000000BRHYPEACNOR0122
012020071002I1NF34      010IHS MARKIT LDRN          R$  000000002015900000000201590000000020159000000002015900000000201590000000000000000000000000000001000000000000001010000000000020360590000000000000009999123100000010000000000000BRI1NFBDR007102
012020071002IDNT3       010IDEIASNET   ON           R$  000000000061700000000006400000000000610000000000062300000000006330000000000632000000000063300798000000000000499900000000000311615900000000000000009999123100000010000000000000BRIDNTACNOR5113
012020071002IDVL3       010INDUSVAL    ON      N2   R$  000000000027100000000002870000000000270000000000027800000000002840000000000284000000000028500571000000000000354500000000000098704200000000000000009999123100000010000000000000BRIDVLACNOR5130
012020071002IDVL4       010INDUSVAL    PN      N2   R$  000000000034500000000003550000000000335000000000034300000000003400000000000340000000000034700060000000000000019100000000000006564600000000000000009999123100000010000000000000BRIDVLACNPR2130
012020071002IGTA3       010IGUATEMI    ON      NM   R$  000000000361700000000036650000000003564000000000363600000000036540000000003650000000000365407795000000000001313900000000004778402300000000000000009999123100000010000000000000BRIGTAACNOR5124
012020071002IRBR3       010IRBBRASIL REON      NM   R$  000000000093500000000009420000000000912000000000092100000000009200000000000919000000000092033913000000000028674900000000026431799100000000000000009999123100000010000000000000BRIRBRACNOR4106
012020071002ITLC34      010INTEL       DRN          R$  000000003148900000000317050000000031489000000003165900000000316010000000031601000000000000000004000000000000000780000000000024694380000000000000009999123100000010000000000000BRITLCBDR005138
012020071002ITSA3       010ITAUSA      ON      N1   R$  000000000116100000000011610000000001148000000000115400000000011590000000001153000000000115900556000000000000153000000000000176581000000000000000009999123100000010000000000000BRITSAACNOR0399
012020071002ITSA4       010ITAUSA      PN      N1   R$  000000000101500000000010260000000001007000000000101800000000010230000000001022000000000102320991000000000016070300000000016374463300000000000000009999123100000010000000000000BRITSAACNPR7399
012020071002ITUB3       010ITAUUNIBANCOON  ED  N1   R$  000000000251300000000025290000000002475000000000250500000000025270000000002520000000000252701791000000000000455100000000001140463700000000000000009999123100000010000000000000BRITUBACNOR4270
012020071002ITUB4       010ITAUUNIBANCOPN  ED  N1   R$  000000000269500000000027310000000002662000000000270700000000027200000000002719000000000272037976000000000024056400000000065127163400000000000000009999123100000010000000000000BRITUBACNPR1270
012020071002J1WN34      010NORDSTROM INDRN          R$  000000000825700000000084050000000008257000000000828000000000084050000000007550000000000910000008000000000000000520000000000004305870000000000000009999123100000010000000000000BRJ1WNBDR001101
012020071002JBDU3       010J B DUARTE  ON           R$  000000000032300000000003470000000000323000000000033700000000003440000000000344000000000034700025000000000000007900000000000002664000000000000000009999123100000010000000000000BRJBDUACNOR6142
012020071002JBDU4       010J B DUARTE  PN           R$  000000000016100000000001720000000000161000000000016700000000001670000000000167000000000016800174000000000000095900000000000016097800000000000000009999123100000010000000000000BRJBDUACNPR3142
012020071002JBSS3       010JBS         ON      NM   R$  000000000222700000000023230000000002221000000000229100000000022840000000002282000000000228442341000000000019010300000000043563090300000000000000009999123100000010000000000000BRJBSSACNOR8115
012020071002JHSF3       010JHSF PART   ON      NM   R$  000000000094100000000009640000000000935000000000094800000000009440000000000943000000000094410938000000000007747700000000007344975700000000000000009999123100000010000000000000BRJHSFACNOR2115
012020071002JNJB34      010JOHNSON     DRN          R$  000000007603800000000761390000000075553000000007610200000000759000000000075681000000000000000004000000000000001390000000000105782740000000000000009999123100000010000000000000BRJNJBBDR002134
012020071002JOPA4       010JOSAPAR     PN           R$  000000000280000000000028000000000002800000000000280000000000028000000000002320000000000500000001000000000000000100000000000000280000000000000000009999123100000010000000000000BRJOPAACNPR2130
012020071002JPMC34      010JPMORGAN    DRN ED       R$  000000002478100000000255450000000024781000000002548300000000255450000000025545000000002800000009000000000000002400000000000061160000000000000000009999123100000010000000000000BRJPMCBDR009134
012020071002JPSA3       010JEREISSATI  ON  ED       R$  000000000253000000000025490000000002500000000000253200000000025150000000002515000000000253001218000000000000250700000000000635022100000000000000009999123100000010000000000000BRJPSAACNOR6103
012020071002JSLG3       010JSL         ON      NM   R$  000000000277500000000028000000000002712000000000275100000000027510000000002751000000000276003964000000000000758800000000002088032100000000000000009999123100000010000000000000BRJSLGACNOR2114
012020071002K1RC34      010KROGER CO   DRN          R$  000000001783100000000178310000000017831000000001783100000000178310000000000000000000000000000002000000000000000150000000000002674650000000000000009999123100000010000000000000BRK1RCBDR001102
012020071002KEPL3       010KEPLER WEBERON           R$  000000000393000000000039500000000003863000000000388900000000038630000000003863000000000393700364000000000000134600000000000523524800000000000000009999123100000010000000000000BRKEPLACNOR1049
012020071002KHCB34      010KRAFT HEINZ DRN          R$  000000001712000000000171200000000017120000000001712000000000171200000000000000000000000000000001000000000000000100000000000001712000000000000000009999123100000010000000000000BRKHCBBDR007120
012020071002KLBN3       010KLABIN S/A  ON      N2   R$  000000000042400000000004240000000000416000000000041900000000004180000000000417000000000041900517000000000000245500000000000102936300000000000000009999123100000010000000000000BRKLBNACNOR2156
012020071002KLBN4       010KLABIN S/A  PN      N2   R$  000000000041100000000004120000000000404000000000040700000000004070000000000407000000000040802272000000000001284500000000000522879100000000000000009999123100000010000000000000BRKLBNACNPR9156
012020071002KLBN11      010KLABIN S/A  UNT     N2   R$  000000000206800000000020730000000002031000000000204500000000020450000000002045000000000204709447000000000002419300000000004949262700000000000000009999123100000010000000000000BRKLBNCDAM18128
012020071002LAME3       010LOJAS AMERICON      N1   R$  000000000310600000000031920000000003045000000000309800000000030960000000003078000000000309810722000000000002321000000000007190736900000000000000009999123100000010000000000000BRLAMEACNOR9202
012020071002LAME4       010LOJAS AMERICPN      N1   R$  000000000354000000000036880000000003468000000000355400000000035160000000003516000000000351835280000000000009725800000000034574133200000000000000009999123100000010000000000000BRLAMEACNPR6202
012020071002LCAM3       010LOCAMERICA  ON  EJ  NM   R$  000000000180400000000018520000000001775000000000181700000000018100000000001809000000000181010288000000000003012500000000005475300700000000000000009999123100000010000000000000BRLCAMACNOR3133
012020071002LEVE3       010METAL LEVE  ON      NM   R$  000000000190900000000019090000000001873000000000188500000000018820000000001881000000000188201481000000000000297500000000000560910100000000000000009999123100000010000000000000BRLEVEACNOR2187
012020071002LIGT3       010LIGHT S/A   ON      NM   R$  000000000178200000000018280000000001766000000000179200000000017900000000001790000000000179106487000000000001382800000000002478799900000000000000009999123100000010000000000000BRLIGTACNOR2120
012020071002LINX3       010LINX        ON      NM   R$  000000000270000000000027000000000002630000000000266300000000026690000000002669000000000267107189000000000001742900000000004642035200000000000000009999123100000010000000000000BRLINXACNOR0118
012020071002LOGG3       010LOG COM PROPON      NM   R$  000000000349000000000035590000000003459000000000350700000000035310000000003529000000000353101696000000000000259100000000000908754200000000000000009999123100000010000000000000BRLOGGACNOR7103
012020071002LOGN3       010LOG-IN      ON      NM   R$  000000000160400000000016550000000001588000000000162500000000016510000000001650000000000165102479000000000000760900000000001236551200000000000000009999123100000010000000000000BRLOGNACNOR3104
012020071002LPSB3       010LOPES BRASILON      NM   R$  000000000056100000000005700000000000551000000000055900000000005530000000000553000000000055502240000000000000835700000000000467223800000000000000009999123100000010000000000000BRLPSBACNOR0111
012020071002LREN3       010LOJAS RENNERON      NM   R$  000000000440000000000044950000000004376000000000444600000000044410000000004440000000000444116092000000000003973700000000017667957900000000000000009999123100000010000000000000BRLRENACNOR1203
012020071002LUXM4       010TREVISA     PN           R$  000000000330000000000033000000000003300000000000330000000000033000000000003300000000000340000001000000000000000200000000000000660000000000000000009999123100000010000000000000BRLUXMACNPR4045
012020071002LWSA3       010LOCAWEB     ON      NM   R$  000000000471900000000048450000000004693000000000479300000000048310000000004831000000000483207124000000000001456700000000006983179700000000000000009999123100000010000000000000BRLWSAACNOR8100
012020071002M1CH34      010MICROCHIP TEDRN          R$  000000002838000000000283800000000028380000000002838000000000283800000000028500000000000000000001000000000000000260000000000007378800000000000000009999123100000010000000000000BRM1CHBDR000102
012020071002M1HK34      010MOHAWK INDUSDRN          R$  000000001979900000000197990000000019799000000001979900000000197990000000000000000000000000000001000000000000000200000000000003959800000000000000009999123100000010000000000000BRM1HKBDR003100
012020071002M1PC34      010MARATHON PETDRN          R$  000000001896200000000189620000000018890000000001889200000000188900000000000000000000000000000002000000000000000300000000000005667720000000000000009999123100000010000000000000BRM1PCBDR003102
012020071002MACY34      010MACY S      DRN          R$  000000000348100000000036420000000003481000000000349300000000036420000000003200000000000469000003000000000000000780000000000002725260000000000000009999123100000010000000000000BRMACYBDR000116
012020071002MAPT4       010CEMEPE      PN           R$  000000000500000000000050000000000005000000000000500000000000050000000000003400000000000650000001000000000000000100000000000000500000000000000000009999123100000010000000000000BRMAPTACNPR5106
012020071002MCDC34      010MCDONALDS   DRN          R$  000000002460000000000248100000000024600000000002471800000000247210000000019140000000000000000003000000000000001650000000000040785700000000000000009999123100000010000000000000BRMCDCBDR000139
012020071002MDIA3       010M.DIASBRANCOON      NM   R$  000000000409200000000041120000000004022000000000405500000000040620000000004058000000000406203732000000000000593900000000002408541200000000000000009999123100000010000000000000BRMDIAACNOR7118
012020071002MDNE3       010MOURA DUBEUXON      NM   R$  000000000115000000000012250000000001100000000000118600000000011990000000001196000000000121003451000000000001704900000000002023519700000000000000009999123100000010000000000000BRMDNEACNOR9100
012020071002MEAL3       010IMC S/A     ON      NM   R$  000000000047500000000005110000000000469000000000048900000000005110000000000511000000000051214562000000000014305800000000007008003400000000000000009999123100000010000000000000BRMEALACNOR9105
012020071002MELI34      010MERCADOLIBREDRN          R$  000000005400000000000553000000000054000000000005489400000000553000000000054760000000005550000097000000000000008710000000000478130160000000000000009999123100000010000000000000BRMELIBDR006100
012020071002MERC4       010MERC FINANC PN           R$  000000000125000000000012500000000001240000000000124700000000012400000000001220000000000131000004000000000000000400000000000000499000000000000000009999123100000010000000000000BRMERCACNPR9173
012020071002MGEL4       010MANGELS INDLPN           R$  000000000057100000000006000000000000561000000000057900000000006000000000000585000000000060000026000000000000006100000000000003536000000000000000009999123100000010000000000000BRMGELACNPR3147
012020071002MGLU3       010MAGAZ LUIZA ON      NM   R$  000000000792900000000081000000000007895000000000800900000000080180000000008016000000000801841504000000000012989400000000104037646600000000000000009999123100000010000000000000BRMGLUACNOR2115
012020071002MILS3       010MILLS       ON      NM   R$  000000000074400000000007680000000000736000000000075200000000007680000000000767000000000076802664000000000001868400000000001406477500000000000000009999123100000010000000000000BRMILSACNOR2112
012020071002MNDL3       010MUNDIAL     ON           R$  000000000245000000000024990000000002450000000000247400000000024990000000002461000000000253000002000000000000000200000000000000494900000000000000009999123100000010000000000000BRMNDLACNOR4107
012020071002MNPR3       010MINUPAR     ON           R$  000000000052800000000005360000000000515000000000051900000000005240000000000517000000000052600016000000000000002600000000000001351100000000000000009999123100000010000000000000BRMNPRACNOR5122
012020071002MOAR3       010MONT ARANHA ON           R$  000000001800000000000185000000000017000000000001762500000000185000000000017000000000001840000007000000000000001600000000000028200000000000000000009999123100000010000000000000BRMOARACNOR5212
012020071002MOVI3       010MOVIDA      ON      NM   R$  000000000153700000000015660000000001524000000000154400000000015480000000001547000000000154805517000000000001711000000000002642519900000000000000009999123100000010000000000000BRMOVIACNOR0111
012020071002MRFG3       010MARFRIG     ON      NM   R$  000000000130200000000013620000000001293000000000133700000000013280000000001328000000000132920200000000000010497900000000014038251300000000000000009999123100000010000000000000BRMRFGACNOR0109
012020071002MRVE3       010MRV         ON      NM   R$  000000000202500000000021760000000002017000000000210800000000021570000000002151000000000215722819000000000007571400000000015963154200000000000000009999123100000010000000000000BRMRVEACNOR2120
012020071002MSCD34      010MASTERCARD  DRN ED       R$  000000015748800000001574880000000157488000000015748800000001574880000000156300000000000000000001000000000000000300000000000047246400000000000000009999123100000010000000000000BRMSCDBDR006137
012020071002MSFT34      010MICROSOFT   DRN          R$  000000011368800000001141970000000113300000000011396000000001135000000000113500000000011450000023000000000000002420000000000275785100000000000000009999123100000010000000000000BRMSFTBDR005138
012020071002MTIG4       010METAL IGUACUPN           R$  000000000390000000000039000000000003900000000000390000000000039000000000003800000000000408900001000000000000000100000000000000390000000000000000009999123100000010000000000000BRMTIGACNPR7086
012020071002MTRE3       010MITRE REALTYON      NM   R$  000000000169000000000017990000000001672000000000174200000000017700000000001768000000000177005181000000000001494400000000002603424000000000000000009999123100000010000000000000BRMTREACNOR6100
012020071002MTSA4       010METISA      PN           R$  000000000178000000000018070000000001772000000000178800000000017990000000001783000000000180000009000000000000001200000000000002145700000000000000009999123100000010000000000000BRMTSAACNPR9055
012020071002MULT3       010MULTIPLAN   ON      N2   R$  000000000233000000000023720000000002296000000000235200000000023400000000002339000000000234015115000000000005009000000000011781502400000000000000009999123100000010000000000000BRMULTACNOR5127
012020071002MUTC34      010MICRON TECHNDRN          R$  000000002680000000000268000000000026800000000002680000000000268000000000000000000000000000000001000000000000000050000000000001340000000000000000009999123100000010000000000000BRMUTCBDR008100
012020071002MYPK3       010IOCHP-MAXIONON      NM   R$  000000000141000000000014200000000001376000000000139400000000014100000000001400000000000141006823000000000002922800000000004075091200000000000000009999123100000010000000000000BRMYPKACNOR7148
012020071002N1BL34      010NOBLE ENERGYDRN          R$  000000000476200000000047620000000004734000000000475900000000047610000000003808000000000000000003000000000000000220000000000001047160000000000000009999123100000010000000000000BRN1BLBDR003102
012020071002N1CL34      010NORWEGIAN CRDRN          R$  000000000831900000000086100000000008319000000000842400000000086090000000006000000000001650000007000000000000000470000000000003959380000000000000009999123100000010000000000000BRN1CLBDR001100
012020071002N1DA34      010NASDAQ INC  DRN          R$  000000003260000000000326000000000032600000000003260000000000326000000000000000000000000000000002000000000000000020000000000000652000000000000000009999123100000010000000000000BRN1DABDR002102
012020071002N1EM34      010NEWMONT GOLDDRN          R$  000000003312000000000331200000000032950000000003299200000000329500000000000000000000000000000003000000000000000120000000000003959090000000000000009999123100000010000000000000BRN1EMBDR005102
012020071002NEOE3       010NEOENERGIA  ON      NM   R$  000000000198300000000019990000000001950000000000197200000000019710000000001971000000000197607082000000000001539200000000003036782000000000000000009999123100000010000000000000BRNEOEACNOR3111
012020071002NETE34      010NETEASE     DRN          R$  000000026200000000002620000000000257174000000026071800000002571740000000000000000000000000000003000000000000000230000000000059965220000000000000009999123100000010000000000000BRNETEBDR006103
012020071002NFLX34      010NETFLIX     DRN          R$  000000028394500000003000000000000283945000000029266200000003000000000000300000000000000000000017000000000000000750000000000219497040000000000000009999123100000010000000000000BRNFLXBDR000101
012020071002NIKE34      010NIKE        DRN          R$  000000005207800000000520780000000052078000000005207800000000520780000000037000000000000000000002000000000000000040000000000002083120000000000000009999123100000010000000000000BRNIKEBDR006138
012020071002NORD3       010NORDON MET  ON           R$  000000000070000000000007200000000000668000000000070700000000007040000000000665000000000070400009000000000000001200000000000000849100000000000000009999123100000010000000000000BRNORDACNOR7135
012020071002NTCO3       010GRUPO NATURAON      NM   R$  000000000419400000000042390000000004102000000000417700000000042030000000004200000000000420517185000000000005132500000000021438758200000000000000009999123100000010000000000000BRNTCOACNOR5101
012020071002NVDC34      010NVIDIA CORP DRN          R$  000000005736000000000573600000000055852000000005613300000000558520000000000000000000000000000008000000000000001380000000000077464330000000000000009999123100000010000000000000BRNVDCBDR008105
012020071002O1KE34      010ONEOK INC   DRN          R$  000000000691100000000071280000000006911000000000697000000000071150000000006812000000000000000005000000000000000470000000000003276250000000000000009999123100000010000000000000BRO1KEBDR008101
012020071002ODPV3       010ODONTOPREV  ON      NM   R$  000000000150000000000015050000000001450000000000147000000000014730000000001470000000000147306221000000000001666800000000002451076200000000000000009999123100000010000000000000BRODPVACNOR4177
012020071002OFSA3       010OUROFINO S/AON      NM   R$  000000000312400000000033080000000003124000000000323800000000032900000000003290000000000331200133000000000000053700000000000173911500000000000000009999123100000010000000000000BROFSAACNOR7109
012020071002OMGE3       010OMEGA GER   ON      NM   R$  000000000349800000000035270000000003453000000000349500000000035090000000003486000000000350901917000000000000325000000000001136154300000000000000009999123100000010000000000000BROMGEACNOR0101
012020071002OXYP34      010OCCIDENT PTRDRN EB       R$  000000000442500000000044250000000004425000000000442500000000044250000000000000000000000000000001000000000000000010000000000000044250000000000000009999123100000010000000000000BROXYPBDR000105
012020071002P1IO34      010PIONEER NATUDRN          R$  000000001216800000000121680000000012168000000001216800000000121680000000000000000000000000000001000000000000000300000000000003650400000000000000009999123100000010000000000000BRP1IOBDR000102
012020071002P1SX34      010PHILLIPS 66 DRN          R$  000000001595300000000159620000000015953000000001596100000000159620000000015962000000000000000002000000000000000200000000000003192310000000000000009999123100000010000000000000BRP1SXBDR000102
012020071002PARD3       010IHPARDINI   ON      NM   R$  000000000220000000000022360000000002160000000000219800000000022360000000002217000000000223601928000000000000322600000000000709391000000000000000009999123100000010000000000000BRPARDACNOR1114
012020071002PCAR3       010P.ACUCAR-CBDON      NM   R$  000000000719900000000071990000000007015000000000708000000000070700000000007070000000000707204993000000000000955500000000006765874200000000000000009999123100000010000000000000BRPCARACNOR3163
012020071002PETR3       010PETROBRAS   ON      N2   R$  000000000227800000000023180000000002260000000000229500000000023000000000002300000000000230314877000000000008368200000000019209629700000000000000009999123100000010000000000000BRPETRACNOR9190
012020071002PETR4       010PETROBRAS   PN      N2   R$  000000000221900000000022650000000002206000000000223900000000022510000000002251000000000225255861000000000057428300000000128635629100000000000000009999123100000010000000000000BRPETRACNPR6196
012020071002PFIZ34      010PFIZER      DRN          R$  000000001797500000000180800000000017938000000001798600000000179380000000017938000000001870000020000000000000000870000000000015648240000000000000009999123100000010000000000000BRPFIZBDR006139
012020071002PFRM3       010PROFARMA    ON      NM   R$  000000000065900000000006730000000000646000000000066100000000006620000000000656000000000066202619000000000000743100000000000491709800000000000000009999123100000010000000000000BRPFRMACNOR1112
012020071002PGCO34      010PG          DRN          R$  000000006552100000000659350000000065521000000006565900000000659350000000065935000000000000000002000000000000000030000000000001969770000000000000009999123100000010000000000000BRPGCOBDR001138
012020071002PINE4       010PINE        PN      N2   R$  000000000030000000000003270000000000295000000000031300000000003160000000000314000000000031601478000000000001321300000000000414323100000000000000009999123100000010000000000000BRPINEACNPR8144
012020071002PLAS3       010PLASCAR PARTON           R$  000000000051500000000005150000000000480000000000048800000000004890000000000481000000000048900044000000000000013000000000000006352600000000000000009999123100000010000000000000BRPLASACNOR2106
012020071002PMAM3       010PARANAPANEMAON      NM   R$  000000000138400000000014420000000001383000000000141500000000014350000000001430000000000143600530000000000000160100000000000226556300000000000000009999123100000010000000000000BRPMAMACNOR3037
012020071002PNVL3       010DIMED       ON           R$  000000000310000000000031670000000003059000000000311300000000031400000000003131000000000314000683000000000000151600000000000472040200000000000000009999123100000010000000000000BRPNVLACNOR9196
012020071002PNVL4       010DIMED       PN           R$  000000000251300000000025690000000002501000000000253800000000025630000000002503000000000256500091000000000000016500000000000041882400000000000000009999123100000010000000000000BRPNVLACNPR6196
012020071002POMO3       010MARCOPOLO   ON      N2   R$  000000000028300000000002840000000000280000000000028200000000002820000000000281000000000028200430000000000000248600000000000070140600000000000000009999123100000010000000000000BRPOMOACNOR0087
012020071002POMO4       010MARCOPOLO   PN      N2   R$  000000000030200000000003020000000000297000000000029900000000002990000000000299000000000030004582000000000008027200000000002401663500000000000000009999123100000010000000000000BRPOMOACNPR7087
012020071002POSI3       010POSITIVO TECON      NM   R$  000000000054500000000005640000000000542000000000055200000000005600000000000559000000000056005252000000000003550700000000001961554200000000000000009999123100000010000000000000BRPOSIACNOR9112
012020071002PPLA11      010PPLA        UNT          R$  000000000184900000000018500000000001849000000000184900000000018500000000001810000000000184000005000000000000000500000000000000924900000000000000009999123100000010000000000000BRPPLAUNT007101
012020071002PRIO3       010PETRORIO    ON      NM   R$  000000000366000000000036800000000003584000000000361600000000036120000000003612000000000361410692000000000002560600000000009260804600000000000000009999123100000010000000000000BRPRIOACNOR1102
012020071002PRNR3       010PRINER      ON      NM   R$  000000000111000000000011390000000001103000000000112200000000011220000000001122000000000113500929000000000000324300000000000363998500000000000000009999123100000010000000000000BRPRNRACNOR4105
012020071002PSSA3       010PORTO SEGUROON      NM   R$  000000000535900000000053730000000005273000000000532500000000053360000000005336000000000534703085000000000000508200000000002706606500000000000000009999123100000010000000000000BRPSSAACNOR7142
012020071002PTBL3       010PORTOBELLO  ON      NM   R$  000000000047400000000004830000000000464000000000047300000000004820000000000481000000000048202206000000000001197200000000000566848800000000000000009999123100000010000000000000BRPTBLACNOR8125
012020071002PTNT3       010PETTENATI   ON           R$  000000000070400000000007200000000000704000000000071000000000007200000000000706000000000071500006000000000000001800000000000001279500000000000000009999123100000010000000000000BRPTNTACNOR6039
012020071002PTNT4       010PETTENATI   PN           R$  000000000047000000000004980000000000470000000000048800000000004860000000000486000000000049000138000000000000040900000000000019986400000000000000009999123100000010000000000000BRPTNTACNPR3044
012020071002PYPL34      010PAYPAL HOLD DRN          R$  000000004801900000000480190000000047885000000004789900000000478850000000040000000000000000000003000000000000000560000000000026823450000000000000009999123100000010000000000000BRPYPLBDR002101
012020071002QCOM34      010QUALCOMM    DRN          R$  000000004925100000000492510000000049251000000004925100000000492510000000000000000000000000000001000000000000000410000000000020192910000000000000009999123100000010000000000000BRQCOMBDR007134
012020071002QUAL3       010QUALICORP   ON      NM   R$  000000000304200000000030440000000002953000000000298800000000029650000000002965000000000297010382000000000002143100000000006405304200000000000000009999123100000010000000000000BRQUALACNOR6113
012020071002RADL3       010RAIADROGASILON      NM   R$  000000001124800000000113550000000010992000000001109600000000110600000000011060000000001108808509000000000001446000000000016045714000000000000000009999123100000010000000000000BRRADLACNOR0136
012020071002RAIL3       010RUMO S.A.   ON      NM   R$  000000000228400000000023060000000002268000000000228400000000022840000000002284000000000228811008000000000005222800000000011933376100000000000000009999123100000010000000000000BRRAILACNOR9101
012020071002RANI3       010IRANI       ON           R$  000000000048100000000005000000000000480000000000048600000000004950000000000495000000000050000077000000000000025000000000000012174300000000000000009999123100000010000000000000BRRANIACNOR5052
012020071002RANI4       010IRANI       PN           R$  000000000067500000000006870000000000650000000000066800000000006710000000000670000000000068200041000000000000006300000000000004213700000000000000009999123100000010000000000000BRRANIACNPR2053
012020071002RAPT3       010RANDON PART ON      N1   R$  000000000088800000000009010000000000881000000000089400000000009010000000000891000000000089900058000000000000016900000000000015125100000000000000009999123100000010000000000000BRRAPTACNOR7152
012020071002RAPT4       010RANDON PART PN      N1   R$  000000000110600000000011260000000001085000000000110900000000011200000000001118000000000112012446000000000003993300000000004430712000000000000000009999123100000010000000000000BRRAPTACNPR4152
012020071002RCSL3       010RECRUSUL    ON           R$  000000000024200000000002500000000000231000000000024200000000002420000000000239000000000024200132000000000000059900000000000014517500000000000000009999123100000010000000000000BRRCSLACNOR4130
012020071002RCSL4       010RECRUSUL    PN           R$  000000000022200000000002320000000000222000000000022800000000002310000000000231000000000023202201000000000001944100000000000444497000000000000000009999123100000010000000000000BRRCSLACNPR1130
012020071002RDNI3       010RNI         ON      NM   R$  000000000124000000000014000000000001200000000000131200000000013950000000001370000000000139500320000000000000113000000000000148336600000000000000009999123100000010000000000000BRRDNIACNOR9113
012020071002REDE3       010REDE ENERGIAON           R$  000000000102000000000010300000000001001000000000102200000000010300000000001001000000000103000014000000000000001600000000000001636300000000000000009999123100000010000000000000BRREDEACNOR7114
012020071002REGN34      010REGENERON PHDRN          R$  000000006688300000000668830000000066618000000006672900000000667470000000000000000000000000000010000000000000000100000000000006672960000000000000009999123100000010000000000000BRREGNBDR005100
012020071002RENT3       010LOCALIZA    ON      NM   R$  000000000428800000000043890000000004274000000000434600000000043540000000004354000000000435516262000000000003562200000000015482680800000000000000009999123100000010000000000000BRRENTACNOR4178
012020071002RIGG34      010TRANSOCEAN  DRN          R$  000000000099800000000010100000000000987000000000100000000000009920000000000900000000000101000025000000000000014410000000000014412250000000000000009999123100000010000000000000BRRIGGBDR000100
012020071002RIOT34      010RIO TINTO   DRN          R$  000000003137200000000313720000000031372000000003137200000000313720000000000000000000000000000001000000000000000010000000000000313720000000000000009999123100000010000000000000BRRIOTBDR007101
012020071002RLOG3       010COSAN LOG   ON      NM   R$  000000000202400000000020490000000002018000000000203800000000020440000000002042000000000204402865000000000000711600000000001450410000000000000000009999123100000010000000000000BRRLOGACNOR4106
012020071002ROMI3       010INDS ROMI   ON      NM   R$  000000000139100000000014080000000001361000000000138500000000013940000000001390000000000139401080000000000000201500000000000279233800000000000000009999123100000010000000000000BRROMIACNOR8173
012020071002RPAD5       010ALFA HOLDINGPNA          R$  000000000082500000000008250000000000820000000000082200000000008200000000000804000000000083000003000000000000001000000000000000822800000000000000009999123100000010000000000000BRRPADACNPA4210
012020071002RSID3       010ROSSI RESID ON      NM   R$  000000000064100000000006480000000000621000000000063700000000006430000000000641000000000064300648000000000000229600000000000146459700000000000000009999123100000010000000000000BRRSIDACNOR8119
012020071002RYTT34      010RAYTHEONTECHDRN          R$  000000003178100000000317810000000031781000000003178100000000317810000000000000000000000000000001000000000000000940000000000029874140000000000000009999123100000010000000000000BRRYTTBDR003101
012020071002S1PO34      010SPOTIFY TECHDRN          R$  000000003673500000000367350000000036733000000003673300000000367330000000030000000000000000000004000000000000000060000000000002204010000000000000009999123100000010000000000000BRS1POBDR002100
012020071002SANB3       010SANTANDER BRON           R$  000000000143900000000014450000000001408000000000142100000000014270000000001427000000000143100529000000000000125700000000000178684500000000000000009999123100000010000000000000BRSANBACNOR8152
012020071002SANB4       010SANTANDER BRPN           R$  000000000149900000000014990000000001451000000000147000000000014780000000001478000000000148200657000000000000136900000000000201367000000000000000009999123100000010000000000000BRSANBACNPR5152
012020071002SANB11      010SANTANDER BRUNT          R$  000000000289500000000029130000000002856000000000289100000000029030000000002903000000000290410243000000000002178200000000006298176100000000000000009999123100000010000000000000BRSANBCDAM13145
012020071002SAPR3       010SANEPAR     ON  EJ  N2   R$  000000000066600000000006690000000000653000000000066100000000006600000000000659000000000066200628000000000000170300000000000112578200000000000000009999123100000010000000000000BRSAPRACNOR9150
012020071002SAPR4       010SANEPAR     PN  EJ  N2   R$  000000000062100000000006270000000000618000000000062200000000006210000000000621000000000062203970000000000001780500000000001108485100000000000000009999123100000010000000000000BRSAPRACNPR6150
012020071002SAPR11      010SANEPAR     UNT EJ  N2   R$  000000000313500000000031790000000003121000000000314400000000031320000000003132000000000313306744000000000001587300000000004992038100000000000000009999123100000010000000000000BRSAPRCDAM13109
012020071002SBSP3       010SABESP      ON      NM   R$  000000000576000000000058870000000005730000000000580900000000058720000000005872000000000587316675000000000003509600000000020389021300000000000000009999123100000010000000000000BRSBSPACNOR5157
012020071002SCAR3       010SAO CARLOS  ON      NM   R$  000000000383400000000039950000000003815000000000394800000000039360000000003931000000000398500079000000000000012300000000000048561600000000000000009999123100000010000000000000BRSCARACNOR7128
012020071002SEER3       010SER EDUCA   ON      NM   R$  000000000151000000000016430000000001485000000000157300000000016420000000001635000000000164204682000000000001459300000000002296184600000000000000009999123100000010000000000000BRSEERACNOR5115
012020071002SGPS3       010SPRINGS     ON      NM   R$  000000000068500000000007250000000000677000000000069700000000007250000000000719000000000072500696000000000000287100000000000200308100000000000000009999123100000010000000000000BRSGPSACNOR4104
012020071002SHOW3       010TIME FOR FUNON      NM   R$  000000000028800000000003190000000000285000000000030800000000003170000000000316000000000031705006000000000004187200000000001290664600000000000000009999123100000010000000000000BRSHOWACNOR7105
012020071002SHUL4       010SCHULZ      PN           R$  000000000123300000000012510000000001216000000000122700000000012170000000001217000000000122700712000000000000229700000000000282010200000000000000009999123100000010000000000000BRSHULACNPR4136
012020071002SIMN34      010SIMON PROP  DRN ED       R$  000000000846000000000084600000000008449000000000845600000000084490000000008400000000000000000002000000000000000030000000000000253690000000000000009999123100000010000000000000BRSIMNBDR002104
012020071002SLCE3       010SLC AGRICOLAON      NM   R$  000000000245400000000024980000000002448000000000248000000000024900000000002487000000000249005352000000000001522800000000003777055200000000000000009999123100000010000000000000BRSLCEACNOR2114
012020071002SMLS3       010SMILES      ON      NM   R$  000000000148200000000015330000000001470000000000150600000000015190000000001519000000000152006557000000000001942100000000002925531400000000000000009999123100000010000000000000BRSMLSACNOR1108
012020071002SMTO3       010SAO MARTINHOON      NM   R$  000000000204900000000020660000000002024000000000204000000000020390000000002039000000000204007281000000000001177900000000002403620900000000000000009999123100000010000000000000BRSMTOACNOR3116
012020071002SNEC34      010SONY CORP   DRN          R$  000000003900100000000391020000000039001000000003905100000000391020000000039001000000000000000002000000000000000020000000000000781030000000000000009999123100000010000000000000BRSNECBDR002101
012020071002SPRI3       010SPRINGER    ON           R$  000000000132600000000013850000000001326000000000134200000000013320000000001332000000000138400004000000000000000400000000000000536900000000000000009999123100000010000000000000BRSPRIACNOR2144
012020071002SPRI5       010SPRINGER    PNA          R$  000000000102000000000010500000000001020000000000103000000000010500000000001035000000000109000002000000000000000300000000000000309000000000000000009999123100000010000000000000BRSPRIACNPA5149
012020071002SQIA3       010SINQIA      ON      NM   R$  000000000236100000000024070000000002325000000000236400000000023580000000002356000000000235802340000000000000550800000000001302439900000000000000009999123100000010000000000000BRSQIAACNOR6102
012020071002SSFO34      010SALESFORCE  DRN          R$  000000005310100000000532560000000053101000000005319700000000532560000000040000000000000000000002000000000000001600000000000085116600000000000000009999123100000010000000000000BRSSFOBDR003100
012020071002STBP3       010SANTOS BRP  ON      NM   R$  000000000057300000000005800000000000570000000000057500000000005740000000000574000000000057603414000000000002464700000000001417247300000000000000009999123100000010000000000000BRSTBPACNOR3117
012020071002SULA3       010SUL AMERICA ON      N2   R$  000000000203100000000020700000000002031000000000205000000000020540000000002054000000000207000030000000000000003500000000000007177700000000000000009999123100000010000000000000BRSULAACNOR2140
012020071002SULA4       010SUL AMERICA PN      N2   R$  000000000133500000000013510000000001316000000000133900000000013480000000001348000000000135000024000000000000003900000000000005223700000000000000009999123100000010000000000000BRSULAACNPR9140
012020071002SULA11      010SUL AMERICA UNT     N2   R$  000000000469900000000048000000000004642000000000472700000000048000000000004771000000000480007623000000000002106000000000009956473200000000000000009999123100000010000000000000BRSULACDAM12140
012020071002SUZB3       010SUZANO S.A. ON      NM   R$  000000000364700000000036890000000003627000000000366200000000036680000000003665000000000366817405000000000004828700000000017684380500000000000000009999123100000010000000000000BRSUZBACNOR0124
012020071002T1TW34      010TAKE-TWO INTDRN          R$  000000002050000000000205000000000020500000000002050000000000205000000000020600000000000000000001000000000000000380000000000007790000000000000000009999123100000010000000000000BRT1TWBDR006100
012020071002TAEE3       010TAESA       ON      N2   R$  000000000095800000000009580000000000947000000000095000000000009500000000000950000000000095500351000000000000058700000000000055782900000000000000009999123100000010000000000000BRTAEEACNOR9131
012020071002TAEE4       010TAESA       PN      N2   R$  000000000096200000000009620000000000949000000000095100000000009540000000000952000000000095400496000000000000101600000000000096696200000000000000009999123100000010000000000000BRTAEEACNPR6131
012020071002TAEE11      010TAESA       UNT     N2   R$  000000000286000000000028680000000002842000000000284900000000028490000000002849000000000285207993000000000001475200000000004203465900000000000000009999123100000010000000000000BRTAEECDAM10131
012020071002TASA3       010TAURUS ARMASON      N2   R$  000000000056100000000005610000000000550000000000055600000000005520000000000552000000000055700199000000000000095500000000000053098500000000000000009999123100000010000000000000BRTASAACNOR7100
012020071002TASA4       010TAURUS ARMASPN      N2   R$  000000000063400000000006360000000000615000000000062800000000006260000000000626000000000062801426000000000000785500000000000493360500000000000000009999123100000010000000000000BRTASAACNPR4100
012020071002TCSA3       010TECNISA     ON      NM   R$  000000000129000000000013430000000001282000000000130900000000013190000000001315000000000131904777000000000001875200000000002456391400000000000000009999123100000010000000000000BRTCSAACNOR3112
012020071002TECN3       010TECHNOS     ON      NM   R$  000000000014400000000001580000000000142000000000015000000000001470000000000147000000000014902240000000000003155700000000000474313500000000000000009999123100000010000000000000BRTECNACNOR6106
012020071002TELB3       010TELEBRAS    ON           R$  000000001590000000000163440000000015800000000001610300000000158000000000015850000000001630000010000000000000001000000000000016103800000000000000009999123100000010000000000000BRTELBACNOR2139
012020071002TELB4       010TELEBRAS    PN           R$  000000000346000000000036000000000003395000000000346700000000034000000000003400000000000346000358000000000000068400000000000237188300000000000000009999123100000010000000000000BRTELBACNPR9139
012020071002TEND3       010TENDA       ON      NM   R$  000000000335900000000035080000000003359000000000346000000000035080000000003478000000000350806656000000000001074700000000003719338900000000000000009999123100000010000000000000BRTENDACNOR4107
012020071002TESA3       010TERRA SANTA ON      NM   R$  000000000174500000000017760000000001718000000000175100000000017400000000001739000000000177900101000000000000027900000000000048868200000000000000009999123100000010000000000000BRTESAACNOR9101
012020071002TEXA34      010TEXAS INC   DRN          R$  000000006980400000000698040000000069804000000006980400000000698040000000000000000000000000000001000000000000000200000000000013960800000000000000009999123100000010000000000000BRTEXABDR003119
012020071002TGMA3       010TEGMA       ON      NM   R$  000000000258200000000026320000000002515000000000258600000000026320000000002632000000000263302645000000000000503700000000001302878600000000000000009999123100000010000000000000BRTGMAACNOR7133
012020071002TIET3       010AES TIETE E ON      N2   R$  000000000034000000000003450000000000340000000000034200000000003430000000000342000000000034300335000000000000096300000000000032964100000000000000009999123100000010000000000000BRTIETACNOR0123
012020071002TIET4       010AES TIETE E PN      N2   R$  000000000031700000000003230000000000317000000000032000000000003200000000000319000000000032000690000000000000321300000000000102906000000000000000009999123100000010000000000000BRTIETACNPR7123
012020071002TIET11      010AES TIETE E UNT     N2   R$  000000000162000000000016420000000001616000000000162600000000016290000000001624000000000162902529000000000000654400000000001064190700000000000000009999123100000010000000000000BRTIETCDAM15123
012020071002TIMP3       010TIM PART S/AON      NM   R$  000000000148000000000014930000000001453000000000147400000000014910000000001491000000000149215124000000000009319400000000013741441800000000000000009999123100000010000000000000BRTIMPACNOR1114
012020071002TMOS34      010THERMFISCHERDRN          R$  000000005126600000000512660000000051196000000005121300000000511960000000000000000000000000000002000000000000000810000000000041482760000000000000009999123100000010000000000000BRTMOSBDR007117
012020071002TOTS3       010TOTVS       ON      NM   R$  000000000251000000000025340000000002476000000000250800000000025070000000002507000000000250812371000000000002856000000000007165600000000000000000009999123100000010000000000000BRTOTSACNOR8135
012020071002TPIS3       010TRIUNFO PARTON      NM   R$  000000000013600000000001400000000000131000000000013500000000001370000000000136000000000013701018000000000001464100000000000198860900000000000000009999123100000010000000000000BRTPISACNOR8115
012020071002TRIS3       010TRISUL      ON      NM   R$  000000000135000000000014320000000001346000000000140200000000014200000000001420000000000142109456000000000002952000000000004141006600000000000000009999123100000010000000000000BRTRISACNOR4113
012020071002TRPL3       010TRAN PAULISTON  ED  N1   R$  000000000250000000000025290000000002480000000000252100000000025250000000002493000000000253700021000000000000003700000000000009328800000000000000009999123100000010000000000000BRTRPLACNOR4176
012020071002TRPL4       010TRAN PAULISTPN  ED  N1   R$  000000000209000000000020950000000002077000000000208800000000020950000000002094000000000209603149000000000000763600000000001594505100000000000000009999123100000010000000000000BRTRPLACNPR1176
012020071002TSLA34      010TESLA INC   DRN          R$  000000018732400000002044900000000185500000000019433600000002044900000000188101000000020459800034000000000000000730000000000141865720000000000000009999123100000010000000000000BRTSLABDR008100
012020071002TSMC34      010TAIWANSMFAC DRN          R$  000000003402100000000340210000000034021000000003402100000000340210000000000000000000003380000001000000000000000200000000000006804200000000000000009999123100000010000000000000BRTSMCBDR002103
012020071002TUPY3       010TUPY        ON      NM   R$  000000000191100000000019390000000001905000000000192100000000019390000000001934000000000193902646000000000000538600000000001034719100000000000000009999123100000010000000000000BRTUPYACNOR1175
012020071002TWTR34      010TWITTER     DRN          R$  000000000944600000000094460000000009380000000000943900000000093800000000007400000000001038400002000000000000001110000000000010477800000000000000009999123100000010000000000000BRTWTRBDR007100
012020071002U1AL34      010UNITED AIRLIDRN          R$  000000000859900000000085990000000008599000000000859900000000085990000000000000000000000990000001000000000000000100000000000000859900000000000000009999123100000010000000000000BRU1ALBDR006100
012020071002U1BE34      010UBER TECH INDRN          R$  000000001773600000000177360000000017736000000001773600000000177360000000000000000000001829000001000000000000001000000000000017736000000000000000009999123100000010000000000000BRU1BEBDR009100
