00COTAHIST.2014BOVESPA 20140128                                                                                                                                                                                                                      
012014012802AAPL34      010APPLE       DRN          R$  000000001329000000000132900000000012270000000001251900000000122700000000012270000000001239000004000000000000001400000000000017526800000000000000009999123100000010000000000000BRAAPLBDR004106
012014012802ABCB4       010ABC BRASIL  PN      N2   R$  000000000120000000000012320000000001195000000000121500000000012290000000001227000000000122900628000000000000223100000000000271282700000000000000009999123100000010000000000000BRABCBACNPR4121
012014012896ABCB4F      020ABC BRASIL  PN      N2   R$  000000000115400000000012490000000001154000000000122300000000012490000000001155000000000124900005000000000000000118000000000000144371000000000000009999123100000010000000000000BRABCBACNPR4121
012014012812ABCP11      010FII ABC IMOBCI           R$  000000000094500000000009450000000000945000000000094500000000009450000000000860000000000094400003000000000000000004000000000000003780000000000000009999123100000010000000000000BRABCPCTF000219
012014012802ABEV3       010AMBEV S/A   ON           R$  000000000163000000000016510000000001610000000000163200000000016100000000001610000000000161419817000000000011094900000000018105052000000000000000009999123100000010000000000000BRABEVACNOR1101
012014012896ABEV3F      020AMBEV S/A   ON           R$  000000000163000000000016500000000001611000000000163400000000016120000000001612000000000164000214000000000000006500000000000010624171000000000000009999123100000010000000000000BRABEVACNOR1101
012014012862ABEV3T      030AMBEV S/A   ON        016R$  000000000165200000000016530000000001652000000000165200000000016530000000000000000000000000000002000000000000002000000000000003305792000000000000009999123100000010000000000000BRABEVACNOR1101
012014012862ABEV3T      030AMBEV S/A   ON        030R$  000000000164200000000016430000000001642000000000164200000000016430000000000000000000000000000002000000000000000200000000000000328472000000000000009999123100000010000000000000BRABEVACNOR1101
012014012862ABEV3T      030AMBEV S/A   ON        120R$  000000000169800000000016990000000001675000000000169600000000016750000000000000000000000000000007000000000000100005000000000169615395000000000000009999123100000010000000000000BRABEVACNOR1101
012014012878ABEVB13     070ABEV        ON        000R$  000000000003800000000000390000000000030000000000003400000000000390000000000000000000000009600003000000000000005400000000000000187700000000000162402014021700000010000000000000BRABEVACNOR1100
012014012878ABEVB17     070ABEV        ON        000R$  000000000002500000000000270000000000025000000000002500000000000250000000000000000000000003000004000000000000006700000000000000167900000000000167702014021700000010000000000000BRABEVACNOR1100
012014012878ABEVB46     070ABEVE       ON        000R$  000000000002000000000000200000000000020000000000002000000000000200000000000000000000000000000001000000000000003000000000000000060000000000000170202014021700000010000000000000BRABEVACNOR1101
012014012878ABEVB6      070ABEVE       ON        000R$  000000000003900000000000390000000000039000000000003900000000000390000000000000000000000000000002000000000000000400000000000000015600000000000164902014021700000010000000000000BRABEVACNOR1101
012014012878ABEVB90     070ABEV        ON        000R$  000000000000600000000000060000000000006000000000000600000000000060000000000000000000000000000001000000000000002000000000000000012000000000000176402014021700000010000000000000BRABEVACNOR1100
012014012878ABEVC47     070ABEV        ON        000R$  000000000001000000000000100000000000010000000000001000000000000100000000000000000000000000000001000000000000003500000000000000035000000000000172702014031700000010000000000000BRABEVACNOR1100
012014012878ABEVC52     070ABEVE       ON        000R$  000000000002000000000000200000000000020000000000002000000000000200000000000000000000000000000001000000000000000200000000000000004000000000000175202014031700000010000000000000BRABEVACNOR1101
012014012882ABEVO47     080ABEVE       ON        000R$  000000000009600000000000960000000000096000000000009600000000000960000000000000000000000000000002000000000000000400000000000000038400000000000172702014031700000010000000000000BRABEVACNOR1100
012014012882ABEVO52     080ABEVE       ON        000R$  000000000009600000000000960000000000096000000000009600000000000960000000000000000000000000000001000000000000000200000000000000019200000000000175202014031700000010000000000000BRABEVACNOR1101
012014012802ABRE11      010ABRIL EDUCA UNT     N2   R$  000000000302100000000030440000000002990000000000301600000000030390000000003018000000000303900223000000000000064400000000000194242900000000000000009999123100000010000000000000BRABRECDAM15102
012014012896ABRE11F     020ABRIL EDUCA UNT     N2   R$  000000000300000000000030190000000003000000000000300000000000030190000000002913000000000319900003000000000000000023000000000000069019000000000000009999123100000010000000000000BRABRECDAM15102
012014012802AEDU3       010ANHANGUERA  ON      NM   R$  000000000132300000000013540000000001306000000000132500000000013100000000001310000000000131506270000000000002512800000000003330536600000000000000009999123100000010000000000000BRAEDUACNOR9107
012014012896AEDU3F      020ANHANGUERA  ON      NM   R$  000000000130100000000013940000000001301000000000133700000000013860000000001302000000000138700016000000000000000450000000000000601865000000000000009999123100000010000000000000BRAEDUACNOR9107
012014012862AEDU3T      030ANHANGUERA  ON      NM062R$  000000000135000000000013510000000001350000000000135000000000013510000000000000000000000000000002000000000000003000000000000004052643000000000000009999123100000010000000000000BRAEDUACNOR9107
012014012862AEDU3T      030ANHANGUERA  ON      NM090R$  000000000135400000000013550000000001354000000000135400000000013550000000000000000000000000000002000000000000004500000000000006096979000000000000009999123100000010000000000000BRAEDUACNOR9107
012014012812AEFI11      010FII AESAPAR CI           R$  000000001020000000000103990000000010200000000001026800000000103990000000010251000000001039800028000000000000001381000000000014181041000000000000009999123100000010000000000000BRAEFICTF002125
012014012802AELP3       010AES ELPA    ON           R$  000000000076800000000007790000000000768000000000077500000000007790000000000733000000000077800008000000000000001000000000000000775500000000000000009999123100000010000000000000BRAELPACNOR2120
012014012896AELP3F      020AES ELPA    ON           R$  000000000075000000000008000000000000750000000000076100000000008000000000000800000000000082500002000000000000000035000000000000026650000000000000009999123100000010000000000000BRAELPACNOR2120
012014012812AGCX11      010FII AG CAIXACI           R$  000000009140000000000914000000000091400000000009140000000000914000000000091400000000009148900004000000000000000100000000000009140000000000000000009999123100000010000000000000BRAGCXCTF003114
012014012802AGRO3       010BRASILAGRO  ON      NM   R$  000000000089800000000009000000000000870000000000088100000000008700000000000868000000000087200061000000000000017600000000000015506100000000000000009999123100000010000000000000BRAGROACNOR7103
012014012896AGRO3F      020BRASILAGRO  ON      NM   R$  000000000086500000000008650000000000865000000000086500000000008650000000000865000000000097300001000000000000000001000000000000000865000000000000009999123100000010000000000000BRAGROACNOR7103
012014012802ALLL3       010ALL AMER LATON      NM   R$  000000000067000000000006750000000000661000000000066800000000006670000000000667000000000066804175000000000001942900000000001299060900000000000000009999123100000010000000000000BRALLLACNOR6118
012014012896ALLL3F      020ALL AMER LATON      NM   R$  000000000066800000000006720000000000663000000000066600000000006630000000000662000000000067000020000000000000000679000000000000452851000000000000009999123100000010000000000000BRALLLACNOR6118
012014012862ALLL3T      030ALL AMER LATON      NM030R$  000000000067900000000006800000000000679000000000067900000000006800000000000000000000000000000002000000000000005000000000000003399993000000000000009999123100000010000000000000BRALLLACNOR6118
012014012878ALLLC68     070ALLL        ON      NM000R$  000000000003700000000000370000000000034000000000003500000000000360000000000037000000000004500036000000000000012800000000000000457400000000000068002014031700000010000000000000BRALLLACNOR6118
012014012812ALMI11B     010FII TORRE ALCI      MB   R$  000000030455500000003068000000000302000000000030260400000003068000000000295000000000030650000005000000000000000013000000000003933855000000000000009999123100000010000000000000BRALMICTF003209
012014012802ALPA4       010ALPARGATAS  PN      N1   R$  000000000127300000000012910000000001265000000000127700000000012860000000001274000000000128600606000000000000498600000000000636730300000000000000009999123100000010000000000000BRALPAACNPR7204
012014012896ALPA4F      020ALPARGATAS  PN      N1   R$  000000000127800000000012900000000001274000000000128100000000012800000000001273000000000128900017000000000000000480000000000000615230000000000000009999123100000010000000000000BRALPAACNPR7204
012014012878ALPAK57     070ALPA        PN      N1000R$  000000000001100000000000110000000000011000000000001100000000000110000000000000000000000000000001000000000000049000000000000000539000000000000174502014111700000010000000000000BRALPAACNPR7203
012014012882ALPAW12     080ALPAE       PN      N1000R$  000000000004500000000000450000000000045000000000004500000000000450000000000000000000000000000001000000000000049000000000000002205000000000000119502014111700000010000000000000BRALPAACNPR7203
012014012882ALPAW44     080ALPAE       PN      N1000R$  000000000010800000000001080000000000108000000000010800000000001080000000000000000000000000000001000000000000049000000000000005292000000000000142002014111700000010000000000000BRALPAACNPR7203
012014012802ALSC3       010ALIANSCE    ON      NM   R$  000000000170000000000017300000000001694000000000170700000000017300000000001705000000000173001787000000000000600300000000001024847900000000000000009999123100000010000000000000BRALSCACNOR0104
012014012896ALSC3F      020ALIANSCE    ON      NM   R$  000000000171500000000017150000000001701000000000170900000000017010000000001605000000000189700002000000000000000070000000000000119686000000000000009999123100000010000000000000BRALSCACNOR0104
012014012802ALUP11      010ALUPAR      UNT     N2   R$  000000000155800000000015660000000001515000000000154300000000015400000000001540000000000154200352000000000000257800000000000397943200000000000000009999123100000010000000000000BRALUPCDAM15100
012014012896ALUP11F     020ALUPAR      UNT     N2   R$  000000000154300000000015510000000001513000000000154100000000015450000000001511000000000159900007000000000000000271000000000000417746000000000000009999123100000010000000000000BRALUPCDAM15100
012014012802AMAR3       010LOJAS MARISAON      NM   R$  000000000162000000000016390000000001605000000000161900000000016200000000001620000000000162200835000000000000269900000000000437010400000000000000009999123100000010000000000000BRAMARACNOR4109
012014012896AMAR3F      020LOJAS MARISAON      NM   R$  000000000162000000000016300000000001610000000000162000000000016200000000001605000000000163000007000000000000000100000000000000162002000000000000009999123100000010000000000000BRAMARACNOR4109
012014012862AMAR3T      030LOJAS MARISAON      NM027R$  000000000163400000000016350000000001634000000000163400000000016350000000000000000000000000000002000000000000010000000000000016344894000000000000009999123100000010000000000000BRAMARACNOR4109
012014012802ANIM3       010ANIMA       ON      NM   R$  000000000190000000000019470000000001882000000000190400000000018850000000001885000000000190100376000000000000053700000000000102295600000000000000009999123100000010000000000000BRANIMACNOR6100
012014012896ANIM3F      020ANIMA       ON      NM   R$  000000000188000000000019180000000001835000000000189100000000018830000000001835000000000199700006000000000000000292000000000000552203000000000000009999123100000010000000000000BRANIMACNOR6100
012014012802ARTR3       010ARTERIS     ON      NM   R$  000000000170300000000017330000000001700000000000170800000000017000000000001699000000000170000590000000000000147800000000000252472000000000000000009999123100000010000000000000BRARTRACNOR3102
012014012896ARTR3F      020ARTERIS     ON      NM   R$  000000000171600000000017340000000001701000000000171300000000017130000000001700000000000173400015000000000000000408000000000000698959000000000000009999123100000010000000000000BRARTRACNOR3102
012014012802ARZZ3       010AREZZO CO   ON      NM   R$  000000000265700000000026730000000002545000000000258000000000025450000000002545000000000255000553000000000000910900000000002350914200000000000000009999123100000010000000000000BRARZZACNOR3111
012014012896ARZZ3F      020AREZZO CO   ON      NM   R$  000000000265000000000026680000000002571000000000261200000000025720000000002527000000000259000009000000000000000100000000000000261211000000000000009999123100000010000000000000BRARZZACNOR3111
012014012862ARZZ3T      030AREZZO CO   ON      NM090R$  000000000268000000000026800000000002680000000000268000000000026800000000000000000000000000000001000000000000000100000000000000268000000000000000009999123100000010000000000000BRARZZACNOR3111
012014012802ATTB34      010ATT INC     DRN          R$  000000000816800000000081680000000008168000000000816800000000081680000000008054000000000829200001000000000000000300000000000002450400000000000000009999123100000010000000000000BRATTBBDR007106
012014012802AUTM3       010AUTOMETAL   ON      NM   R$  000000000172500000000017410000000001692000000000171000000000017200000000001720000000000172100236000000000000035400000000000060552900000000000000009999123100000010000000000000BRAUTMACNOR8109
012014012896AUTM3F      020AUTOMETAL   ON      NM   R$  000000000150700000000015070000000001507000000000150700000000015070000000001506000000000189500001000000000000000001000000000000001507000000000000009999123100000010000000000000BRAUTMACNOR8109
012014012802AXPB34      010AMERICAN EXPDRN          R$  000000002095400000000209540000000020954000000002095400000000209540000000020766000000002138100001000000000000000300000000000006286200000000000000009999123100000010000000000000BRAXPBBDR007107
012014012802BAHI3       010BAHEMA      ON           R$  000000000049000000000004900000000000470000000000048300000000004900000000000455000000000049000003000000000000000300000000000000145000000000000000009999123100000010000000000000BRBAHIACNOR1066
012014012802BAUH4       010EXCELSIOR   PN           R$  000000000103500000000010350000000001020000000000102200000000010350000000001000000000000103500004000000000000001800000000000001840500000000000000009999123100000010000000000000BRBAUHACNPR3108
012014012802BBAS3       010BRASIL      ON      NM   R$  000000000217300000000021890000000002119000000000214300000000021190000000002119000000000212512236000000000004614200000000009887227200000000000000009999123100000010000000000000BRBBASACNOR3241
012014012896BBAS3F      020BRASIL      ON      NM   R$  000000000215900000000022000000000002118000000000215000000000021290000000002128000000000212900214000000000000005714000000000012277108000000000000009999123100000010000000000000BRBBASACNOR3241
012014012862BBAS3T      030BRASIL      ON      NM016R$  000000000219700000000021980000000002129000000000213500000000021300000000000000000000000000000004000000000000011000000000000023489428000000000000009999123100000010000000000000BRBBASACNOR3241
012014012862BBAS3T      030BRASIL      ON      NM030R$  000000000220300000000022040000000002139000000000216900000000021400000000000000000000000000000006000000000000004200000000000009110164000000000000009999123100000010000000000000BRBBASACNOR3241
012014012862BBAS3T      030BRASIL      ON      NM051R$  000000000219600000000021970000000002196000000000219600000000021970000000000000000000000000000002000000000000002500000000000005491178000000000000009999123100000010000000000000BRBBASACNOR3241
012014012862BBAS3T      030BRASIL      ON      NM090R$  000000000222900000000022300000000002229000000000222900000000022300000000000000000000000000000002000000000000002000000000000004458439000000000000009999123100000010000000000000BRBBASACNOR3241
012014012862BBAS3T      030BRASIL      ON      NM181R$  000000000224200000000022430000000002237000000000223900000000022380000000000000000000000000000004000000000000000400000000000000895985000000000000009999123100000010000000000000BRBBASACNOR3241
012014012878BBASB21     070BBAS  FM    ON      NM000R$  000000000013600000000001490000000000106000000000012600000000001060000000000000000000000000000020000000000000037300000000000004716000000000000207402014021700000010000000000000BRBBASACNOR3240
012014012878BBASB22     070BBAS  FM    ON      NM000R$  000000000007400000000000830000000000052000000000006600000000000550000000000050000000000005700060000000000000053400000000000003525100000000000216702014021700000010000000000000BRBBASACNOR3239
012014012878BBASB23     070BBAS        ON      NM000R$  000000000007800000000000850000000000050000000000006400000000000500000000000050000000000008300037000000000000066500000000000004314400000000000216202014021700000010000000000000BRBBASACNOR3237
012014012878BBASB24     070BBAS  FM    ON      NM000R$  000000000003200000000000380000000000021000000000002800000000000220000000000022000000000002300066000000000000126900000000000003638500000000000226202014021700000010000000000000BRBBASACNOR3237
012014012878BBASB25     070BBAS  FM    ON      NM000R$  000000000001000000000000150000000000008000000000001100000000000080000000000008000000000001000168000000000000362300000000000004030600000000000236202014021700000010000000000000BRBBASACNOR3237
012014012878BBASB26     070BBAS  FM    ON      NM000R$  000000000000400000000000050000000000003000000000000400000000000030000000000003000000000000400005000000000000035600000000000000172000000000000246202014021700000010000000000000BRBBASACNOR3237
012014012878BBASB56     070BBAS        ON      NM000R$  000000000000300000000000030000000000003000000000000300000000000030000000000001000000000000400001000000000000000800000000000000002400000000000256202014021700000010000000000000BRBBASACNOR3240
012014012878BBASC22     070BBAS  FM    ON      NM000R$  000000000018200000000001930000000000150000000000018000000000001500000000000061000000000000000040000000000000042100000000000007588400000000000206202014031700000010000000000000BRBBASACNOR3237
012014012878BBASC23     070BBAS  FM    ON      NM000R$  000000000006500000000000650000000000049000000000006300000000000490000000000035000000000006500005000000000000007400000000000000469600000000000227402014031700000010000000000000BRBBASACNOR3240
012014012878BBASC24     070BBAS        ON      NM000R$  000000000006900000000000710000000000065000000000006700000000000650000000000042000000000007000006000000000000007900000000000000536700000000000226202014031700000010000000000000BRBBASACNOR3237
012014012878BBASC25     070BBAS  FM    ON      NM000R$  000000000001600000000000190000000000013000000000001500000000000130000000000012000000000002100014000000000000034200000000000000541600000000000246702014031700000010000000000000BRBBASACNOR3239
012014012878BBASC26     070BBAS        ON      NM000R$  000000000000800000000000080000000000007000000000000700000000000070000000000006000000000001100006000000000000002000000000000000014600000000000256702014031700000010000000000000BRBBASACNOR3239
012014012878BBASC52     070BBAS  FM    ON      NM000R$  000000000008800000000000970000000000076000000000008700000000000760000000000000000000000000000003000000000000006300000000000000548100000000000221702014031700000010000000000000BRBBASACNOR3239
012014012878BBASC62     070BBASE       ON      NM000R$  000000000010000000000001000000000000084000000000009200000000000840000000000000000000000000000002000000000000005600000000000000515200000000000218702014031700000010000000000000BRBBASACNOR3241
012014012878BBASC74     070BBAS  FM    ON      NM000R$  000000000003600000000000360000000000026000000000003300000000000270000000000016000000000003600019000000000000044200000000000001482800000000000237402014031700000010000000000000BRBBASACNOR3241
012014012878BBASD23     070BBAS        ON      NM000R$  000000000010100000000001010000000000079000000000007900000000000790000000000000000000000010000002000000000000005100000000000000405100000000000227402014042200000010000000000000BRBBASACNOR3240
012014012878BBASD24     070BBAS        ON      NM000R$  000000000006400000000000640000000000064000000000006400000000000640000000000013000000000000000001000000000000000600000000000000038400000000000237402014042200000010000000000000BRBBASACNOR3240
012014012878BBASD25     070BBAS        ON      NM000R$  000000000004100000000000420000000000031000000000003200000000000310000000000030000000000004100018000000000000006100000000000000201000000000000247402014042200000010000000000000BRBBASACNOR3240
012014012878BBASD26     070BBAS        ON      NM000R$  000000000002000000000000200000000000020000000000002000000000000200000000000018000000000002000001000000000000000500000000000000010000000000000257402014042200000010000000000000BRBBASACNOR3240
012014012878BBASD27     070BBAS        ON      NM000R$  000000000001600000000000160000000000016000000000001600000000000160000000000005000000000000000001000000000000009000000000000000144000000000000266702014042200000010000000000000BRBBASACNOR3239
012014012878BBASE23     070BBAS        ON      NM000R$  000000000011000000000001100000000000110000000000011000000000001100000000000000000000000000000001000000000000000500000000000000055000000000000227402014051900000010000000000000BRBBASACNOR3240
012014012878BBASE24     070BBAS        ON      NM000R$  000000000007200000000000720000000000072000000000007200000000000720000000000000000000000000000003000000000000001500000000000000108000000000000237402014051900000010000000000000BRBBASACNOR3240
012014012878BBASE27     070BBAS        ON      NM000R$  000000000001800000000000180000000000018000000000001800000000000180000000000000000000000000000002000000000000001400000000000000025200000000000267402014051900000010000000000000BRBBASACNOR3240
012014012882BBASN20     080BBASE       ON      NM000R$  000000000000900000000000140000000000009000000000001100000000000140000000000000000000000003000006000000000000040000000000000000460000000000000194002014021700000010000000000000BRBBASACNOR3238
012014012882BBASN21     080BBASE FM    ON      NM000R$  000000000002600000000000420000000000026000000000003300000000000420000000000000000000000000000006000000000000010400000000000000350400000000000207402014021700000010000000000000BRBBASACNOR3240
012014012882BBASN22     080BBASE FM    ON      NM000R$  000000000006100000000000840000000000061000000000007100000000000800000000000000000000000008800015000000000000026100000000000001858600000000000216702014021700000010000000000000BRBBASACNOR3239
012014012882BBASN23     080BBASE       ON      NM000R$  000000000006000000000000800000000000059000000000007500000000000800000000000030000000000014000004000000000000008700000000000000660400000000000216202014021700000010000000000000BRBBASACNOR3237
012014012882BBASN24     080BBASE FM    ON      NM000R$  000000000011600000000001470000000000103000000000012300000000001430000000000063000000000023200036000000000000040000000000000004932300000000000226202014021700000010000000000000BRBBASACNOR3237
012014012882BBASO18     080BBASE       ON      NM000R$  000000000000400000000000040000000000004000000000000400000000000040000000000001000000000000000001000000000000000300000000000000001200000000000166202014031700000010000000000000BRBBASACNOR3237
012014012882BBASO20     080BBASE       ON      NM000R$  000000000002400000000000240000000000023000000000002300000000000230000000000015000000000000000002000000000000001500000000000000035000000000000194002014031700000010000000000000BRBBASACNOR3238
012014012882BBASO22     080BBASE FM    ON      NM000R$  000000000005100000000000510000000000045000000000004800000000000450000000000000000000000000000004000000000000006600000000000000321300000000000206202014031700000010000000000000BRBBASACNOR3237
012014012882BBASO23     080BBASE FM    ON      NM000R$  000000000014200000000001440000000000133000000000014100000000001330000000000000000000000000000006000000000000013200000000000001865700000000000227402014031700000010000000000000BRBBASACNOR3240
012014012882BBASO50     080BBASE FM    ON      NM000R$  000000000004300000000000430000000000043000000000004300000000000430000000000000000000000000000001000000000000003000000000000000129000000000000199002014031700000010000000000000BRBBASACNOR3241
012014012882BBASO52     080BBASE       ON      NM000R$  000000000013600000000001360000000000136000000000013600000000001360000000000000000000000000000001000000000000000300000000000000040800000000000221702014031700000010000000000000BRBBASACNOR3239
012014012882BBASO62     080BBASE FM    ON      NM000R$  000000000009700000000001190000000000095000000000009800000000001190000000000000000000000000000020000000000000038400000000000003796800000000000218702014031700000010000000000000BRBBASACNOR3241
012014012882BBASP19     080BBASE       ON      NM000R$  000000000003400000000000340000000000034000000000003400000000000340000000000000000000000000000003000000000000010700000000000000363800000000000187402014042200000010000000000000BRBBASACNOR3240
012014012802BBDC3       010BRADESCO    ON      N1   R$  000000000291700000000029320000000002869000000000289300000000028690000000002869000000000288803708000000000000943800000000002730882800000000000000009999123100000010000000000000BRBBDCACNOR1611
012014012896BBDC3F      020BRADESCO    ON      N1   R$  000000000290200000000029890000000002867000000000289700000000029890000000002851000000000298900035000000000000001138000000000003297917000000000000009999123100000010000000000000BRBBDCACNOR1611
012014012802BBDC4       010BRADESCO    PN      N1   R$  000000000267900000000027050000000002649000000000267600000000026490000000002649000000000265915508000000000005468200000000014633760900000000000000009999123100000010000000000000BRBBDCACNPR8611
012014012896BBDC4F      020BRADESCO    PN      N1   R$  000000000266000000000027010000000002655000000000268200000000026640000000002655000000000266400166000000000000003838000000000010292993000000000000009999123100000010000000000000BRBBDCACNPR8611
012014012862BBDC4T      030BRADESCO    PN      N1062R$  000000000272600000000027270000000002726000000000272600000000027270000000000000000000000000000002000000000000010000000000000027264072000000000000009999123100000010000000000000BRBBDCACNPR8611
012014012862BBDC4T      030BRADESCO    PN      N1090R$  000000000275400000000027550000000002754000000000275400000000027550000000000000000000000000000002000000000000003000000000000008263804000000000000009999123100000010000000000000BRBBDCACNPR8611
012014012878BBDCB26     070BBDC  FM    PN      N1000R$  000000000016300000000001800000000000143000000000016300000000001430000000000000000000000000000528000000000000110000000000000017982500000000000256002014021700000010000000000000BRBBDCACNPR8605
012014012878BBDCB27     070BBDC  FM    PN      N1000R$  000000000009400000000001050000000000083000000000009300000000000830000000000070000000000010800027000000000000031300000000000002925500000000000266002014021700000010000000000000BRBBDCACNPR8605
012014012878BBDCB28     070BBDC  FM    PN      N1000R$  000000000004000000000000500000000000033000000000004200000000000350000000000032000000000003500343000000000000257600000000000010954000000000000276402014021700000010000000000000BRBBDCACNPR8607
012014012878BBDCB29     070BBDC  FM    PN      N1000R$  000000000001700000000000200000000000013000000000001500000000000130000000000001000000000001800154000000000000092100000000000001427200000000000286602014021700000010000000000000BRBBDCACNPR8608
012014012878BBDCB30     070BBDC  FM    PN      N1000R$  000000000000800000000000080000000000005000000000000600000000000060000000000004000000000000600015000000000000082800000000000000508200000000000296402014021700000010000000000000BRBBDCACNPR8607
012014012878BBDCB31     070BBDC        PN      N1000R$  000000000000400000000000040000000000003000000000000300000000000030000000000003000000000000800002000000000000005400000000000000016600000000000306602014021700000010000000000000BRBBDCACNPR8608
012014012878BBDCB32     070BBDC        PN      N1000R$  000000000002300000000000260000000000023000000000002300000000000230000000000000000000000002500006000000000000032100000000000000763500000000000284102014021700000010000000000000BRBBDCACNPR8598
012014012878BBDCB57     070BBDC        PN      N1000R$  000000000005200000000000520000000000052000000000005200000000000520000000000000000000000000000001000000000000004000000000000000208000000000000271002014021700000010000000000000BRBBDCACNPR8611
012014012878BBDCB58     070BBDC        PN      N1000R$  000000000002900000000000340000000000029000000000003000000000000300000000000000000000000000000007000000000000035400000000000001081700000000000281002014021700000010000000000000BRBBDCACNPR8605
012014012878BBDCB59     070BBDC        PN      N1000R$  000000000001000000000000100000000000010000000000001000000000000100000000000000000000000000000003000000000000026000000000000000260000000000000291602014021700000010000000000000BRBBDCACNPR8611
012014012878BBDCC2      070BBDC        PN      N1000R$  000000000003600000000000400000000000036000000000003700000000000400000000000000000000000004500027000000000000019700000000000000736800000000000290702014031700000010000000000000BRBBDCACNPR8604
012014012878BBDCC25     070BBDC        PN      N1000R$  000000000027400000000002740000000000266000000000026800000000002660000000000225000000000000000026000000000000011900000000000003200300000000000246602014031700000010000000000000BRBBDCACNPR8608
012014012878BBDCC26     070BBDC  FM    PN      N1000R$  000000000019700000000002090000000000181000000000019700000000001850000000000000000000000000000065000000000000066500000000000013121300000000000256602014031700000010000000000000BRBBDCACNPR8608
012014012878BBDCC28     070BBDC  FM    PN      N1000R$  000000000006600000000000740000000000066000000000006900000000000700000000000049000000000010400052000000000000056300000000000003926600000000000280002014031700000010000000000000BRBBDCACNPR8611
012014012878BBDCC29     070BBDC  FM    PN      N1000R$  000000000004700000000000530000000000040000000000004400000000000400000000000000000000000007800030000000000000040400000000000001800100000000000286602014031700000010000000000000BRBBDCACNPR8608
012014012878BBDCC34     070BBDC        PN      N1000R$  000000000000300000000000030000000000003000000000000300000000000030000000000000000000000000000001000000000000000200000000000000000600000000000336402014031700000010000000000000BRBBDCACNPR8607
012014012878BBDCC60     070BBDC  FM    PN      N1000R$  000000000011000000000001160000000000106000000000011200000000001060000000000080000000000008100025000000000000026900000000000003032100000000000270502014031700000010000000000000BRBBDCACNPR8598
012014012878BBDCC70     070BBDC  FM    PN      N1000R$  000000000002500000000000280000000000022000000000002300000000000230000000000012000000000002900029000000000000027600000000000000648900000000000296602014031700000010000000000000BRBBDCACNPR8608
012014012878BBDCD25     070BBDC        PN      N1000R$  000000000031100000000003120000000000311000000000031100000000003120000000000000000000000000000002000000000000000200000000000000062300000000000246802014042200000010000000000000BRBBDCACNPR8609
012014012878BBDCD29     070BBDC        PN      N1000R$  000000000007600000000000760000000000076000000000007600000000000760000000000000000000000000000001000000000000003500000000000000266000000000000286802014042200000010000000000000BRBBDCACNPR8609
012014012878BBDCD30     070BBDC        PN      N1000R$  000000000006000000000000600000000000060000000000006000000000000600000000000000000000000000000001000000000000000300000000000000018000000000000296802014042200000010000000000000BRBBDCACNPR8609
012014012878BBDCD31     070BBDC        PN      N1000R$  000000000003900000000000390000000000035000000000003600000000000350000000000000000000000000000002000000000000009000000000000000331000000000000306802014042200000010000000000000BRBBDCACNPR8609
012014012878BBDCD32     070BBDC        PN      N1000R$  000000000002400000000000250000000000024000000000002400000000000250000000000009000000000000000002000000000000007600000000000000186000000000000316802014042200000010000000000000BRBBDCACNPR8609
012014012878BBDCD33     070BBDC        PN      N1000R$  000000000001700000000000170000000000014000000000001500000000000140000000000001000000000000000002000000000000006000000000000000091500000000000325802014042200000010000000000000BRBBDCACNPR8604
012014012878BBDCE30     070BBDC        PN      N1000R$  000000000008000000000000800000000000080000000000008000000000000800000000000000000000000000000002000000000000001300000000000000104000000000000296802014051900000010000000000000BRBBDCACNPR8609
012014012878BBDCE35     070BBDC        PN      N1000R$  000000000001000000000000100000000000010000000000001000000000000100000000000000000000000000000001000000000000001300000000000000013000000000000346802014051900000010000000000000BRBBDCACNPR8609
012014012882BBDCN24     080BBDCE       PN      N1000R$  000000000000700000000000070000000000007000000000000700000000000070000000000000000000000000000002000000000000006000000000000000042000000000000236602014021700000010000000000000BRBBDCACNPR8608
012014012882BBDCN25     080BBDCE FM    PN      N1000R$  000000000001200000000000150000000000012000000000001300000000000150000000000000000000000000000007000000000000015700000000000000208100000000000246002014021700000010000000000000BRBBDCACNPR8605
012014012882BBDCN26     080BBDCE FM    PN      N1000R$  000000000002700000000000300000000000025000000000002500000000000300000000000000000000000000000007000000000000028300000000000000735500000000000256002014021700000010000000000000BRBBDCACNPR8605
012014012882BBDCN27     080BBDCE FM    PN      N1000R$  000000000005900000000000610000000000053000000000005700000000000600000000000000000000000000000008000000000000014300000000000000821600000000000266002014021700000010000000000000BRBBDCACNPR8605
012014012882BBDCN28     080BBDCE FM    PN      N1000R$  000000000011200000000001180000000000101000000000010900000000001180000000000005000000000000000021000000000000040100000000000004384400000000000276402014021700000010000000000000BRBBDCACNPR8607
012014012882BBDCN29     080BBDCE       PN      N1000R$  000000000018400000000001900000000000170000000000018200000000001790000000000000000000000000000471000000000000121200000000000022145600000000000286602014021700000010000000000000BRBBDCACNPR8608
012014012882BBDCN57     080BBDCE       PN      N1000R$  000000000008100000000000860000000000081000000000008300000000000860000000000000000000000000000002000000000000003300000000000000274300000000000271002014021700000010000000000000BRBBDCACNPR8611
012014012882BBDCN58     080BBDCE       PN      N1000R$  000000000014400000000001440000000000139000000000014100000000001390000000000000000000000000000004000000000000005200000000000000733200000000000281002014021700000010000000000000BRBBDCACNPR8605
012014012882BBDCO24     080BBDCE       PN      N1000R$  000000000001700000000000170000000000017000000000001700000000000170000000000000000000000000000013000000000000001300000000000000022100000000000236602014031700000010000000000000BRBBDCACNPR8608
012014012882BBDCO25     080BBDCE FM    PN      N1000R$  000000000002900000000000340000000000029000000000003000000000000340000000000000000000000000000015000000000000005500000000000000165500000000000246602014031700000010000000000000BRBBDCACNPR8608
012014012882BBDCO26     080BBDCE FM    PN      N1000R$  000000000005000000000000570000000000048000000000005100000000000570000000000000000000000000000016000000000000024900000000000001289700000000000256602014031700000010000000000000BRBBDCACNPR8608
012014012882BBDCO28     080BBDCE FM    PN      N1000R$  000000000015300000000001540000000000144000000000015000000000001480000000000000000000000000000032000000000000099900000000000014999200000000000280002014031700000010000000000000BRBBDCACNPR8611
012014012882BBDCO29     080BBDCE       PN      N1000R$  000000000019800000000002040000000000191000000000019400000000002040000000000000000000000000000013000000000000021300000000000004147900000000000286602014031700000010000000000000BRBBDCACNPR8608
012014012882BBDCO60     080BBDCE FM    PN      N1000R$  000000000010200000000001110000000000096000000000010300000000001110000000000000000000000000000078000000000000084600000000000008740300000000000270502014031700000010000000000000BRBBDCACNPR8598
012014012812BBFI11B     010FII BB PROGRCI      MB   R$  000000032900000000003300000000000314000000000031807000000003180000000000313000000000031900000021000000000000000072000000000022901100000000000000009999123100000010000000000000BRBBFICTF006202
012014012812BBPO11      010FII BB PRGIICI           R$  000000001024900000000103100000000010107000000001019400000000101070000000010107000000001018900532000000000000045068000000000459424845000000000000009999123100000010000000000000BRBBPOCTF003114
012014012812BBRC11      010FII BB CORP CI           R$  000000000725000000000072500000000007200000000000721100000000072000000000007250000000000725500005000000000000000222000000000001600900000000000000009999123100000010000000000000BRBBRCCTF004128
012014012802BBRK3       010BR BROKERS  ON      NM   R$  000000000052600000000005340000000000520000000000052900000000005220000000000522000000000052701620000000000001907700000000001009737000000000000000009999123100000010000000000000BRBBRKACNOR4108
012014012896BBRK3F      020BR BROKERS  ON      NM   R$  000000000053000000000005300000000000520000000000052700000000005200000000000501000000000057200004000000000000000079000000000000041670000000000000009999123100000010000000000000BRBBRKACNOR4108
012014012802BBSE3       010BBSEGURIDADEON      NM   R$  000000000233000000000023530000000002301000000000232000000000023100000000002309000000000231508952000000000003296900000000007650496400000000000000009999123100000010000000000000BRBBSEACNOR5101
012014012896BBSE3F      020BBSEGURIDADEON      NM   R$  000000000230500000000023500000000002281000000000232300000000023000000000002300000000000232000173000000000000005381000000000012500025000000000000009999123100000010000000000000BRBBSEACNOR5101
012014012862BBSE3T      030BBSEGURIDADEON      NM090R$  000000000236300000000023640000000002363000000000236300000000023640000000000000000000000000000002000000000000300000000000000708913568000000000000009999123100000010000000000000BRBBSEACNOR5101
012014012802BBTG11      010BTG PACTUAL UNT          R$  000000000255600000000026000000000002551000000000257200000000025510000000002547000000000257000923000000000000198100000000000509580600000000000000009999123100000010000000000000BRBBTGUNT007106
012014012896BBTG11F     020BTG PACTUAL UNT          R$  000000000258500000000025850000000002568000000000257400000000025710000000002550000000000260000007000000000000000234000000000000602430000000000000009999123100000010000000000000BRBBTGUNT007106
012014012812BBVJ11      010FII C JARDIMCI           R$  000000000560500000000057200000000005600000000000562200000000057200000000005630000000000572000020000000000000001444000000000008118823000000000000009999123100000010000000000000BRBBVJCTF001137
012014012812BCFF11B     010FII BC FFII CI      MB   R$  000000000869000000000088000000000008630000000000870300000000087280000000008725000000000872800054000000000000004750000000000041343118000000000000009999123100000010000000000000BRBCFFCTF000146
012014012896BDLL4F      020BARDELLA    PN           R$  000000000410000000000041000000000004100000000000410000000000041000000000004020000000000440000001000000000000000012000000000000049200000000000000009999123100000010000000000000BRBDLLACNPR8149
012014012802BEEF3       010MINERVA     ON      NM   R$  000000000111800000000011290000000001070000000000108900000000010920000000001092000000000109302436000000000001739700000000001895749900000000000000009999123100000010000000000000BRBEEFACNOR6104
012014012896BEEF3F      020MINERVA     ON      NM   R$  000000000111800000000011210000000001075000000000110500000000010780000000001070000000000117000014000000000000000361000000000000399099000000000000009999123100000010000000000000BRBEEFACNOR6104
012014012802BEES3       010BANESTES    ON           R$  000000000004500000000000460000000000044000000000004400000000000460000000000044000000000004600017000000000000098300000000000004368600000000000000009999123100000010000000000000BRBEESACNOR9248
012014012896BEES3F      020BANESTES    ON           R$  000000000004600000000000460000000000046000000000004600000000000460000000000044000000000004600001000000000000000013000000000000000598000000000000009999123100000010000000000000BRBEESACNOR9248
012014012802BEMA3       010BEMATECH    ON      NM   R$  000000000087600000000008900000000000860000000000087100000000008610000000000858000000000086100483000000000000140600000000000122553500000000000000009999123100000010000000000000BRBEMAACNOR0115
012014012896BEMA3F      020BEMATECH    ON      NM   R$  000000000087400000000008800000000000865000000000087300000000008650000000000858000000000091300007000000000000000223000000000000194826000000000000009999123100000010000000000000BRBEMAACNOR0115
012014012802BERK34      010BERKSHIRE   DRN          R$  000000002731000000000273150000000027310000000002731300000000273150000000027010000000002750000002000000000000000900000000000024582500000000000000009999123100000010000000000000BRBERKBDR002100
012014012802BGIP4       010BANESE      PN           R$  000000000430200000000043020000000004302000000000430200000000043020000000004001000000000440000001000000000000000100000000000000430200000000000000009999123100000010000000000000BRBGIPACNPR8180
012014012802BHGR3       010BHG         ON      NM   R$  000000000130300000000013150000000001295000000000130000000000013000000000001300000000000131000125000000000000150500000000000195715600000000000000009999123100000010000000000000BRBHGRACNOR9101
012014012896BHGR3F      020BHG         ON      NM   R$  000000000130000000000013000000000001300000000000130000000000013000000000001257000000000134900001000000000000000059000000000000076700000000000000009999123100000010000000000000BRBHGRACNOR9101
012014012802BICB4       010BICBANCO    PN      N1   R$  000000000073000000000007300000000000720000000000072400000000007250000000000725000000000072900088000000000000053500000000000038738300000000000000009999123100000010000000000000BRBICBACNPR7131
012014012896BICB4F      020BICBANCO    PN      N1   R$  000000000072500000000007250000000000725000000000072500000000007250000000000706000000000073500001000000000000000001000000000000000725000000000000009999123100000010000000000000BRBICBACNPR7131
012014012862BICB4T      030BICBANCO    PN      N1120R$  000000000075100000000007520000000000742000000000074600000000007430000000000000000000000000000010000000000000043200000000000032233344000000000000009999123100000010000000000000BRBICBACNPR7131
012014012802BISA3       010BROOKFIELD  ON      NM   R$  000000000013200000000001360000000000129000000000013200000000001320000000000132000000000013304003000000000011504100000000001526571400000000000000009999123100000010000000000000BRBISAACNOR8109
012014012896BISA3F      020BROOKFIELD  ON      NM   R$  000000000013000000000001340000000000130000000000013200000000001310000000000130000000000013500017000000000000000528000000000000069805000000000000009999123100000010000000000000BRBISAACNOR8109
012014012862BISA3T      030BROOKFIELD  ON      NM030R$  000000000013300000000001340000000000133000000000013300000000001340000000000000000000000000000002000000000000005000000000000000666006000000000000009999123100000010000000000000BRBISAACNOR8109
012014012862BISA3T      030BROOKFIELD  ON      NM062R$  000000000013400000000001370000000000134000000000013500000000001370000000000000000000000000000006000000000000026000000000000003518977000000000000009999123100000010000000000000BRBISAACNOR8109
012014012862BISA3T      030BROOKFIELD  ON      NM090R$  000000000013500000000001360000000000135000000000013500000000001360000000000000000000000000000002000000000000005000000000000000675180000000000000009999123100000010000000000000BRBISAACNOR8109
012014012812BJRC11      010FII JS RECIMCI           R$  000000008850000000000885000000000088500000000008850000000000885000000000088500000000009340000001000000000000000099000000000008761500000000000000009999123100000010000000000000BRBJRCCTF007114
012014012802BMEB3       010MERC BRASIL ON           R$  000000000126900000000012690000000001255000000000126600000000012550000000001120000000000125500003000000000000001900000000000002405500000000000000009999123100000010000000000000BRBMEBACNOR8190
012014012802BMEB4       010MERC BRASIL PN           R$  000000000084500000000008450000000000810000000000082800000000008100000000000805000000000084400011000000000000004300000000000003563600000000000000009999123100000010000000000000BRBMEBACNPR5191
012014012802BMIN4       010MERC INVEST PN           R$  000000000002500000000000250000000000022000000000002400000000000220000000000022000000000002500015000000000000034000000000000000819000000000000000009999123100000010000000000000BRBMINACNPR1160
012014012812BMLC11B     010FII BMBRC LCCI      MB   R$  000000000951100000000095110000000009500000000000950300000000095000000000009510000000000988000005000000000000000028000000000000266101000000000000009999123100000010000000000000BRBMLCCTF004123
012014012802BMTO4       010BRASMOTOR   PN           R$  000000000007900000000000810000000000079000000000007900000000000810000000000079000000000008100010000000000000017000000000000001350000000000000000009999123100000010000000000000BRBMTOACNPR6066
012014012812BNFS11      010FII BANRISULCI           R$  000000000970000000000099500000000009700000000000970200000000099500000000009650000000000995000002000000000000000101000000000000979950000000000000009999123100000010000000000000BRBNFSCTF000116
012014012896BOBR4F      020BOMBRIL     PN           R$  000000000055000000000005500000000000511000000000054200000000005110000000000511000000000058000002000000000000000010000000000000005422000000000000009999123100000010000000000000BRBOBRACNPR3127
012014012802BOEI34      010BOEING      DRN          R$  000000003354000000000335400000000033540000000003354000000000335400000000032869000000003384300001000000000000000300000000000010062000000000000000009999123100000010000000000000BRBOEIBDR003107
012014012814BOVA11      010ISHARES BOVACI           R$  000000000471900000000047360000000004671000000000470200000000046710000000004671000000000468903482000000000001875850000000008820699780000000000000009999123100000010000000000000BRBOVACTF003101
012014012896BOVA11F     020ISHARES BOVACI           R$  000000000470700000000047230000000004661000000000469400000000046610000000004661000000000473700019000000000000000057000000000000267586000000000000009999123100000010000000000000BRBOVACTF003101
012014012862BOVA11T     030ISHARES BOVACI        030R$  000000000473300000000047340000000004733000000000473300000000047340000000000000000000000000000002000000000000000200000000000000946644000000000000009999123100000010000000000000BRBOVACTF003101
012014012812BPFF11      010FII ABSOLUTOCI           R$  000000000740000000000075000000000007350000000000738900000000074500000000007350000000000745000078000000000000008616000000000063664695000000000000009999123100000010000000000000BRBPFFCTF002109
012014012802BPHA3       010BR PHARMA   ON      NM   R$  000000000054400000000005510000000000544000000000054800000000005470000000000547000000000054800442000000000000220200000000000120797600000000000000009999123100000010000000000000BRBPHAACNOR6102
012014012862BPHA3T      030BR PHARMA   ON      NM090R$  000000000055900000000005600000000000559000000000055900000000005600000000000000000000000000000002000000000000002000000000000001119053000000000000009999123100000010000000000000BRBPHAACNOR6102
012014012802BPNM4       010PANAMERICANOPN      N1   R$  000000000041400000000004180000000000406000000000040900000000004060000000000406000000000041000129000000000001107000000000000453705600000000000000009999123100000010000000000000BRBPNMACNPR6111
012014012802BRAP3       010BRADESPAR   ON      N1   R$  000000000178500000000017850000000001759000000000176200000000017670000000001755000000000176800020000000000000007400000000000013041100000000000000009999123100000010000000000000BRBRAPACNOR5125
012014012896BRAP3F      020BRADESPAR   ON      N1   R$  000000000178500000000017850000000001755000000000176700000000017550000000001755000000000178400006000000000000000026000000000000045953000000000000009999123100000010000000000000BRBRAPACNOR5125
012014012802BRAP4       010BRADESPAR   PN      N1   R$  000000000216800000000021790000000002150000000000216200000000021580000000002153000000000215805838000000000001706700000000003691517200000000000000009999123100000010000000000000BRBRAPACNPR2125
012014012896BRAP4F      020BRADESPAR   PN      N1   R$  000000000215000000000021810000000002146000000000216200000000021740000000002145000000000217400046000000000000001389000000000003003683000000000000009999123100000010000000000000BRBRAPACNPR2125
012014012814BRAX11      010ISHARES BRAXCI           R$  000000000391800000000039220000000003892000000000391800000000038920000000003000000000000000000168000000000000045510000000000178327360000000000000009999123100000010000000000000BRBRAXCTF002100
012014012812BRCR11      010FII BC FUND CI           R$  000000001192200000000122300000000011910000000001202200000000121000000000012100000000001223001871000000000000035348000000000424963926000000000000009999123100000010000000000000BRBRCRCTF000137
012014012802BRFS3       010BRF SA      ON      NM   R$  000000000436500000000043980000000004325000000000435200000000043250000000004325000000000432806871000000000003056000000000013299065000000000000000009999123100000010000000000000BRBRFSACNOR8111
012014012896BRFS3F      020BRF SA      ON      NM   R$  000000000435000000000043840000000004236000000000434500000000043380000000004239000000000433800070000000000000001759000000000007643866000000000000009999123100000010000000000000BRBRFSACNOR8111
012014012862BRFS3T      030BRF SA      ON      NM062R$  000000000440700000000044080000000004407000000000440700000000044080000000000000000000000000000002000000000000001000000000000004407122000000000000009999123100000010000000000000BRBRFSACNOR8111
012014012862BRFS3T      030BRF SA      ON      NM120R$  000000000453300000000045340000000004528000000000453000000000045290000000000000000000000000000008000000000000020300000000000091971405000000000000009999123100000010000000000000BRBRFSACNOR8111
012014012878BRFSB46     070BRFS        ON      NM000R$  000000000001500000000000150000000000015000000000001500000000000150000000000000000000000008000001000000000000000600000000000000009000000000000456402014021700000010000000000000BRBRFSACNOR8110
012014012802BRIN3       010BR INSURANCEON      NM   R$  000000000191200000000019260000000001886000000000190200000000018900000000001890000000000189300522000000000000339100000000000645213200000000000000009999123100000010000000000000BRBRINACNOR3107
012014012896BRIN3F      020BR INSURANCEON      NM   R$  000000000191000000000019100000000001898000000000190700000000018980000000001875000000000190000003000000000000000101000000000000192665000000000000009999123100000010000000000000BRBRINACNOR3107
012014012802BRKM3       010BRASKEM     ON      N1   R$  000000000144900000000014490000000001445000000000144500000000014450000000001400000000000144500006000000000000000600000000000000867400000000000000009999123100000010000000000000BRBRKMACNOR1110
012014012802BRKM5       010BRASKEM     PNA     N1   R$  000000000188400000000019120000000001865000000000188200000000018910000000001890000000000189103118000000000000614000000000001156155900000000000000009999123100000010000000000000BRBRKMACNPA4110
012014012896BRKM5F      020BRASKEM     PNA     N1   R$  000000000189000000000018990000000001845000000000187600000000018840000000001860000000000188400015000000000000000331000000000000620986000000000000009999123100000010000000000000BRBRKMACNPA4110
012014012862BRKM5T      030BRASKEM     PNA     N1030R$  000000000189300000000018940000000001893000000000189300000000018940000000000000000000000000000002000000000000001300000000000002461908000000000000009999123100000010000000000000BRBRKMACNPA4110
012014012802BRML3       010BR MALLS PARON      NM   R$  000000000166800000000016680000000001600000000000162500000000016000000000001599000000000160007599000000000003778600000000006141818100000000000000009999123100000010000000000000BRBRMLACNOR9105
012014012896BRML3F      020BR MALLS PARON      NM   R$  000000000165000000000016580000000001607000000000162700000000016200000000001605000000000162000052000000000000001518000000000002470252000000000000009999123100000010000000000000BRBRMLACNOR9105
012014012862BRML3T      030BR MALLS PARON      NM016R$  000000000162700000000016280000000001627000000000162700000000016280000000000000000000000000000002000000000000002000000000000003255630000000000000009999123100000010000000000000BRBRMLACNOR9105
012014012862BRML3T      030BR MALLS PARON      NM030R$  000000000163900000000016400000000001639000000000163900000000016400000000000000000000000000000002000000000000010000000000000016393332000000000000009999123100000010000000000000BRBRMLACNOR9105
012014012862BRML3T      030BR MALLS PARON      NM090R$  000000000168000000000016810000000001680000000000168000000000016810000000000000000000000000000004000000000000008000000000000013447626000000000000009999123100000010000000000000BRBRMLACNOR9105
012014012802BRPR3       010BR PROPERT  ON      NM   R$  000000000174500000000017740000000001713000000000174200000000017310000000001731000000000173804613000000000001151300000000002005421600000000000000009999123100000010000000000000BRBRPRACNOR9112
012014012896BRPR3F      020BR PROPERT  ON      NM   R$  000000000175000000000017510000000001703000000000173700000000017270000000001726000000000182000031000000000000000619000000000001073627000000000000009999123100000010000000000000BRBRPRACNOR9112
012014012802BRSR6       010BANRISUL    PNB     N1   R$  000000000112700000000011480000000001123000000000113500000000011320000000001132000000000113701932000000000000540700000000000614214500000000000000009999123100000010000000000000BRBRSRACNPB4135
012014012896BRSR6F      020BANRISUL    PNB     N1   R$  000000000119100000000012310000000001111000000000114200000000011490000000001125000000000115000014000000000000000370000000000000422558000000000000009999123100000010000000000000BRBRSRACNPB4135
012014012862BRSR6T      030BANRISUL    PNB     N1090R$  000000000117300000000011740000000001173000000000117300000000011740000000000000000000000000000002000000000000000200000000000000234653000000000000009999123100000010000000000000BRBRSRACNPB4135
012014012802BSEV3       010BIOSEV      ON      NM   R$  000000000101000000000010100000000001000000000000100500000000010100000000001000000000000101000009000000000000021700000000000021825000000000000000009999123100000010000000000000BRBSEVACNOR3100
012014012802BTOW3       010B2W DIGITAL ON      NM   R$  000000000221600000000024500000000002180000000000233400000000024500000000002450000000000245105644000000000002902500000000006777976600000000000000009999123100000010000000000000BRBTOWACNOR8105
012014012896BTOW3F      020B2W DIGITAL ON      NM   R$  000000000219500000000024800000000002195000000000233300000000024800000000002401000000000248000122000000000000003228000000000007543217000000000000009999123100000010000000000000BRBTOWACNOR8105
012014012802BVMF3       010BMFBOVESPA  ON      NM   R$  000000000100000000000010040000000000984000000000099400000000009840000000000984000000000098918093000000000012675000000000012608976700000000000000009999123100000010000000000000BRBVMFACNOR3127
012014012896BVMF3F      020BMFBOVESPA  ON      NM   R$  000000000099300000000010030000000000976000000000099300000000009920000000000988000000000099200106000000000000003259000000000003236931000000000000009999123100000010000000000000BRBVMFACNOR3127
012014012862BVMF3T      030BMFBOVESPA  ON      NM030R$  000000000099200000000009930000000000992000000000099200000000009930000000000000000000000000000002000000000000050000000000000049603440000000000000009999123100000010000000000000BRBVMFACNOR3127
012014012862BVMF3T      030BMFBOVESPA  ON      NM120R$  000000000101500000000010160000000001015000000000101500000000010160000000000000000000000000000002000000000000010000000000000010150944000000000000009999123100000010000000000000BRBVMFACNOR3127
012014012878BVMFB10     070BVMF        ON      NM000R$  000000000003400000000000340000000000024000000000002800000000000240000000000024000000000002600287000000000000204100000000000005810700000000000100002014021700000010000000000000BRBVMFACNOR3127
012014012878BVMFB11     070BVMF  FM    ON      NM000R$  000000000000500000000000060000000000003000000000000400000000000040000000000004000000000000500050000000000000264800000000000001194000000000000108802014021700000010000000000000BRBVMFACNOR3126
012014012878BVMFB40     070BVMF  FM    ON      NM000R$  000000000001300000000000130000000000008000000000001000000000000090000000000008000000000000900035000000000000298300000000000003067500000000000105002014021700000010000000000000BRBVMFACNOR3127
012014012878BVMFB41     070BVMF        ON      NM000R$  000000000000200000000000030000000000002000000000000200000000000030000000000001000000000001700017000000000000011000000000000000027000000000000112302014021700000010000000000000BRBVMFACNOR3125
012014012878BVMFB9      070BVMF        ON      NM000R$  000000000011900000000001230000000000108000000000011600000000001080000000000088000000000013400039000000000000007400000000000000859200000000000088802014021700000010000000000000BRBVMFACNOR3126
012014012878BVMFC10     070BVMF        ON      NM000R$  000000000004700000000000510000000000045000000000004900000000000450000000000040000000000004700030000000000000039200000000000001921300000000000100002014031700000010000000000000BRBVMFACNOR3127
012014012878BVMFC11     070BVMF  FM    ON      NM000R$  000000000001400000000000140000000000011000000000001100000000000110000000000009000000000001200014000000000000064700000000000000766700000000000110002014031700000010000000000000BRBVMFACNOR3127
012014012878BVMFC40     070BVMF  FM    ON      NM000R$  000000000002800000000000280000000000022000000000002400000000000220000000000013000000000000000004000000000000003200000000000000079000000000000105002014031700000010000000000000BRBVMFACNOR3127
012014012878BVMFC94     070BVMF        ON      NM000R$  000000000008800000000000880000000000088000000000008800000000000880000000000000000000000000000003000000000000003000000000000000264000000000000094002014031700000010000000000000BRBVMFACNOR3127
012014012878BVMFC98     070BVMF  FM    ON      NM000R$  000000000005400000000000540000000000054000000000005400000000000540000000000000000000000000000001000000000000004000000000000000216000000000000098002014031700000010000000000000BRBVMFACNOR3127
012014012878BVMFD10     070BVMF        ON      NM000R$  000000000006900000000000690000000000060000000000006400000000000600000000000000000000000000000042000000000000137000000000000008878600000000000100002014042200000010000000000000BRBVMFACNOR3127
012014012878BVMFD41     070BVMF        ON      NM000R$  000000000001500000000000150000000000015000000000001500000000000150000000000000000000000000000001000000000000001500000000000000022500000000000115002014042200000010000000000000BRBVMFACNOR3127
012014012878BVMFE10     070BVMF        ON      NM000R$  000000000006800000000000680000000000068000000000006800000000000680000000000000000000000000000001000000000000000100000000000000006800000000000100002014051900000010000000000000BRBVMFACNOR3127
012014012878BVMFE11     070BVMF        ON      NM000R$  000000000003500000000000350000000000032000000000003200000000000320000000000000000000000004500002000000000000001100000000000000035500000000000110002014051900000010000000000000BRBVMFACNOR3127
012014012882BVMFN10     080BVMFE       ON      NM000R$  000000000002800000000000300000000000026000000000002800000000000300000000000023000000000003200015000000000000041800000000000001188400000000000100002014021700000010000000000000BRBVMFACNOR3127
012014012882BVMFN11     080BVMFE       ON      NM000R$  000000000009400000000000940000000000087000000000009100000000000870000000000085000000000000000006000000000000001200000000000000109500000000000108802014021700000010000000000000BRBVMFACNOR3126
012014012882BVMFN40     080BVMFE FM    ON      NM000R$  000000000005900000000000650000000000058000000000006100000000000650000000000000000000000006600004000000000000016400000000000001012700000000000105002014021700000010000000000000BRBVMFACNOR3127
012014012882BVMFN98     080BVMFE FM    ON      NM000R$  000000000001800000000000220000000000018000000000001800000000000220000000000000000000000002600006000000000000035000000000000000657000000000000098002014021700000010000000000000BRBVMFACNOR3127
012014012882BVMFO10     080BVMFE       ON      NM000R$  000000000004000000000000400000000000040000000000004000000000000400000000000000000000000004300001000000000000000200000000000000008000000000000100002014031700000010000000000000BRBVMFACNOR3127
012014012882BVMFO11     080BVMFE       ON      NM000R$  000000000010000000000001000000000000100000000000010000000000001000000000000000000000000000000001000000000000000400000000000000040000000000000110002014031700000010000000000000BRBVMFACNOR3127
012014012882BVMFO40     080BVMFE FM    ON      NM000R$  000000000007300000000000730000000000072000000000007200000000000720000000000000000000000000000002000000000000008200000000000000594500000000000105002014031700000010000000000000BRBVMFACNOR3127
012014012882BVMFO94     080BVMFE       ON      NM000R$  000000000001900000000000190000000000019000000000001900000000000190000000000000000000000000000001000000000000005000000000000000095000000000000094002014031700000010000000000000BRBVMFACNOR3127
012014012882BVMFP10     080BVMFE       ON      NM000R$  000000000004800000000000500000000000048000000000004900000000000500000000000000000000000005200002000000000000000200000000000000009800000000000100002014042200000010000000000000BRBVMFACNOR3127
012014012882BVMFP40     080BVMFE       ON      NM000R$  000000000007500000000000750000000000075000000000007500000000000750000000000000000000000000000001000000000000000100000000000000007500000000000105002014042200000010000000000000BRBVMFACNOR3127
012014012882BVMFP86     080BVMFE       ON      NM000R$  000000000001200000000000120000000000012000000000001200000000000120000000000000000000000000000001000000000000003300000000000000039600000000000086002014042200000010000000000000BRBVMFACNOR3127
012014012802CAMB4       010CAMBUCI     PN           R$  000000000023900000000002400000000000239000000000023900000000002400000000000235000000000024900005000000000000010100000000000002417700000000000000009999123100000010000000000000BRCAMBACNPR1117
012014012802CARD3       010CSU CARDSYSTON      NM   R$  000000000029800000000002990000000000290000000000029300000000002990000000000295000000000029900192000000000000098600000000000028900400000000000000009999123100000010000000000000BRCARDACNOR9105
012014012896CARD3F      020CSU CARDSYSTON      NM   R$  000000000029400000000002940000000000294000000000029400000000002940000000000289000000000029700001000000000000000014000000000000004116000000000000009999123100000010000000000000BRCARDACNOR9105
012014012802CATP34      010CATERPILLAR DRN ED       R$  000000002239000000000223900000000022385000000002238800000000223850000000022159000000002304500002000000000000000500000000000011194000000000000000009999123100000010000000000000BRCATPBDR003110
012014012808CCHI3       010CHIARELLI   ON           R$  000000000001900000000000200000000000018000000000001800000000000200000000000018000000000002000015000000000000220000000000000004060000000000000000009999123100000010000000000000BRCCHIACNOR5123
012014012896CCHI3F      020CHIARELLI   ON           R$  000000000001900000000000190000000000019000000000001900000000000190000000000018000000000001900001000000000000001500000000000000028500000000000000009999123100000010000000000000BRCCHIACNOR5123
012014012896CCHI4F      020CHIARELLI   PN           R$  000000000001300000000000130000000000013000000000001300000000000130000000000011000000000001500006000000000000005000000000000000065000000000000000009999123100000010000000000000BRCCHIACNPR2122
012014012802CCPR3       010CYRE COM-CCPON      NM   R$  000000000203500000000020350000000002030000000000203300000000020300000000002020000000000203000002000000000000000300000000000000610000000000000000009999123100000010000000000000BRCCPRACNOR9107
012014012896CCPR3F      020CYRE COM-CCPON      NM   R$  000000000190300000000019030000000001903000000000190300000000019030000000001911000000000207900001000000000000000002000000000000003806000000000000009999123100000010000000000000BRCCPRACNOR9107
012014012802CCRO3       010CCR SA      ON      NM   R$  000000000162100000000016330000000001586000000000160400000000015920000000001592000000000159608407000000000004983000000000007993194900000000000000009999123100000010000000000000BRCCROACNOR2123
012014012896CCRO3F      020CCR SA      ON      NM   R$  000000000159200000000016320000000001587000000000160500000000016240000000001587000000000162500054000000000000001618000000000002597586000000000000009999123100000010000000000000BRCCROACNOR2123
012014012862CCRO3T      030CCR SA      ON      NM030R$  000000000163200000000016330000000001632000000000163200000000016330000000000000000000000000000002000000000000000300000000000000489817000000000000009999123100000010000000000000BRCCROACNOR2123
012014012802CCXC3       010CCX CARVAO  ON      NM   R$  000000000012000000000001320000000000118000000000012600000000001280000000000127000000000012803802000000000008484300000000001076637600000000000000009999123100000010000000000000BRCCXCACNOR5100
012014012896CCXC3F      020CCX CARVAO  ON      NM   R$  000000000012800000000001300000000000128000000000012800000000001290000000000124000000000012900009000000000000000521000000000000066989000000000000009999123100000010000000000000BRCCXCACNOR5100
012014012862CCXC3T      030CCX CARVAO  ON      NM016R$  000000000012900000000001300000000000129000000000012900000000001300000000000000000000000000000002000000000000113000000000000014667377000000000000009999123100000010000000000000BRCCXCACNOR5100
012014012802CEBR5       010CEB         PNA          R$  000000000245500000000024550000000002455000000000245500000000024550000000002410000000000300000002000000000000000200000000000000491000000000000000009999123100000010000000000000BRCEBRACNPA8113
012014012812CEOC11B     010FII CEO CCP CI      MB   R$  000000000608400000000061490000000006060000000000607600000000060850000000006062000000000608500064000000000000006018000000000036569911000000000000009999123100000010000000000000BRCEOCCTF003114
012014012802CESP3       010CESP        ON      N1   R$  000000000191300000000019600000000001913000000000195000000000019410000000001940000000000196400003000000000000000700000000000001365400000000000000009999123100000010000000000000BRCESPACNOR3160
012014012862CESP3T      030CESP        ON      N1030R$  000000000197900000000019800000000001979000000000197900000000019800000000000000000000000000000002000000000000000500000000000000989800000000000000009999123100000010000000000000BRCESPACNOR3160
012014012896CESP5F      020CESP        PNA     N1   R$  000000000220000000000022000000000002200000000000220000000000022000000000002121000000000224000001000000000000000005000000000000011000000000000000009999123100000010000000000000BRCESPACNPA6108
012014012802CESP6       010CESP        PNB     N1   R$  000000000219400000000022280000000002173000000000219400000000021740000000002174000000000219502620000000000000586100000000001286068100000000000000009999123100000010000000000000BRCESPACNPB4119
012014012896CESP6F      020CESP        PNB     N1   R$  000000000220000000000022440000000002172000000000219600000000021720000000002173000000000224200023000000000000000763000000000001675759000000000000009999123100000010000000000000BRCESPACNPB4119
012014012896CGAS3F      020COMGAS      ON           R$  000000000502600000000050260000000005026000000000502600000000050260000000004500000000000502600001000000000000000004000000000000020104000000000000009999123100000010000000000000BRCGASACNOR0133
012014012802CGAS5       010COMGAS      PNA          R$  000000000533100000000053980000000005280000000000532800000000053400000000005282000000000534000105000000000000035200000000000187559000000000000000009999123100000010000000000000BRCGASACNPA3130
012014012896CGAS5F      020COMGAS      PNA          R$  000000000533500000000053980000000005251000000000531000000000053800000000005251000000000538000013000000000000000335000000000001779118000000000000009999123100000010000000000000BRCGASACNPA3130
012014012862CGAS5T      030COMGAS      PNA       120R$  000000000547000000000054700000000005470000000000547000000000054700000000000000000000000000000001000000000000000001000000000000005470000000000000009999123100000010000000000000BRCGASACNPA3130
012014012802CGRA3       010GRAZZIOTIN  ON           R$  000000000159000000000016100000000001590000000000160600000000016100000000001590000000000161000003000000000000001200000000000001928000000000000000009999123100000010000000000000BRCGRAACNOR2062
012014012896CGRA3F      020GRAZZIOTIN  ON           R$  000000000156600000000015660000000001400000000000145500000000015480000000001548000000000160000005000000000000000051000000000000074208000000000000009999123100000010000000000000BRCGRAACNOR2062
012014012802CGRA4       010GRAZZIOTIN  PN           R$  000000000173000000000017300000000001681000000000169300000000017000000000001700000000000173000012000000000000003900000000000006605800000000000000009999123100000010000000000000BRCGRAACNPR9062
012014012896CGRA4F      020GRAZZIOTIN  PN           R$  000000000173000000000017300000000001730000000000173000000000017300000000001642000000000173000002000000000000000018000000000000031140000000000000009999123100000010000000000000BRCGRAACNPR9062
012014012802CHVX34      010CHEVRON     DRN          R$  000000002841300000000284130000000028413000000002841300000000284130000000028095000000002921900001000000000000000300000000000008523900000000000000009999123100000010000000000000BRCHVXBDR008110
012014012802CIEL3       010CIELO       ON      NM   R$  000000000640300000000064200000000006311000000000637700000000063110000000006311000000000636005643000000000001789600000000011412691500000000000000009999123100000010000000000000BRCIELACNOR3112
012014012896CIEL3F      020CIELO       ON      NM   R$  000000000630000000000064290000000006300000000000636600000000063790000000006310000000000637900079000000000000002399000000000015270346000000000000009999123100000010000000000000BRCIELACNOR3112
012014012862CIEL3T      030CIELO       ON      NM030R$  000000000647000000000064710000000006470000000000647000000000064710000000000000000000000000000002000000000000001000000000000006470628000000000000009999123100000010000000000000BRCIELACNOR3112
012014012862CIEL3T      030CIELO       ON      NM062R$  000000000649000000000064910000000006490000000000649000000000064910000000000000000000000000000004000000000000003000000000000019471756000000000000009999123100000010000000000000BRCIELACNOR3112
012014012862CIEL3T      030CIELO       ON      NM090R$  000000000655300000000065570000000006553000000000655400000000065570000000000000000000000000000004000000000000001000000000000006554873000000000000009999123100000010000000000000BRCIELACNOR3112
012014012878CIELB64     070CIEL        ON      NM000R$  000000000013000000000001300000000000130000000000013000000000001300000000000020000000000014000001000000000000001000000000000000130000000000000640002014021700000010000000000000BRCIELACNOR3112
012014012802CLSC4       010CELESC      PN      N2   R$  000000000157200000000015770000000001531000000000153700000000015310000000001531000000000158000026000000000000009500000000000014608600000000000000009999123100000010000000000000BRCLSCACNPR3108
012014012896CLSC4F      020CELESC      PN      N2   R$  000000000161500000000016150000000001615000000000161500000000016150000000001550000000000161500001000000000000000002000000000000003230000000000000009999123100000010000000000000BRCLSCACNPR3108
012014012802CMCS34      010COMCAST     DRN          R$  000000001290100000000129010000000012901000000001290100000000129010000000012870000000001301500001000000000000000700000000000009030700000000000000009999123100000010000000000000BRCMCSBDR008108
012014012802CMIG3       010CEMIG       ON      N1   R$  000000000138100000000014070000000001376000000000138600000000013800000000001380000000000139200629000000000000107300000000000148772600000000000000009999123100000010000000000000BRCMIGACNOR6210
012014012896CMIG3F      020CEMIG       ON      N1   R$  000000000141500000000014150000000001380000000000139500000000013810000000001379000000000139700015000000000000000411000000000000573732000000000000009999123100000010000000000000BRCMIGACNOR6210
012014012802CMIG4       010CEMIG       PN      N1   R$  000000000136100000000013760000000001347000000000135900000000013570000000001357000000000136009405000000000003016300000000004099609500000000000000009999123100000010000000000000BRCMIGACNPR3210
012014012896CMIG4F      020CEMIG       PN      N1   R$  000000000136000000000013780000000001346000000000136200000000013650000000001357000000000136500131000000000000003515000000000004786899000000000000009999123100000010000000000000BRCMIGACNPR3210
012014012862CMIG4T      030CEMIG       PN      N1016R$  000000000137100000000013720000000001371000000000137100000000013720000000000000000000000000000002000000000000004000000000000005484712000000000000009999123100000010000000000000BRCMIGACNPR3210
012014012862CMIG4T      030CEMIG       PN      N1062R$  000000000138500000000013860000000001385000000000138500000000013860000000000000000000000000000002000000000000001000000000000001385960000000000000009999123100000010000000000000BRCMIGACNPR3210
012014012878CMIGB19     070CMIG        PN      N1000R$  000000000001000000000000100000000000010000000000001000000000000100000000000002000000000001600001000000000000000900000000000000009000000000000141702014021700000010000000000000BRCMIGACNPR3208
012014012878CMIGB48     070CMIG        PN      N1000R$  000000000001500000000000280000000000015000000000002000000000000240000000000004000000000000000004000000000000006000000000000000123000000000000137902014021700000010000000000000BRCMIGACNPR3208
012014012812CNES11B     010FII CENESP  CI  ER  MB   R$  000000001130000000000113000000000011160000000001116900000000111600000000011160000000001143900005000000000000000277000000000003094020000000000000009999123100000010000000000000BRCNESCTF001131
012014012802COCA34      010COCA COLA   DRN          R$  000000000943700000000094890000000009430000000000945600000000094890000000009346000000000972000003000000000000001400000000000013239500000000000000009999123100000010000000000000BRCOCABDR002110
012014012802COCE3       010COELCE      ON           R$  000000000484900000000048490000000004849000000000484900000000048490000000004783000000000485000002000000000000000200000000000000969800000000000000009999123100000010000000000000BRCOCEACNOR0132
012014012802COCE5       010COELCE      PNA          R$  000000000477900000000048000000000004779000000000479100000000047980000000004798000000000479900358000000000000117200000000000561543600000000000000009999123100000010000000000000BRCOCEACNPA3133
012014012896COCE5F      020COELCE      PNA          R$  000000000473000000000047900000000004730000000000475300000000047750000000004775000000000479000008000000000000000082000000000000389770000000000000009999123100000010000000000000BRCOCEACNPA3133
012014012862COCE5T      030COELCE      PNA       120R$  000000000493700000000049380000000004937000000000493700000000049380000000000000000000000000000002000000000000000009000000000000044436000000000000009999123100000010000000000000BRCOCEACNPA3133
012014012896CORR4F      020COR RIBEIRO PN           R$  000000002100000000000210000000000021000000000002100000000000210000000000016000000000002100000001000000000000000001000000000000021000000000000000009999123100000010000000000000BRCORRACNPR7015
012014012802CPFE3       010CPFL ENERGIAON      NM   R$  000000000186000000000018720000000001833000000000184900000000018440000000001844000000000184604485000000000000812600000000001502949200000000000000009999123100000010000000000000BRCPFEACNOR0122
012014012896CPFE3F      020CPFL ENERGIAON      NM   R$  000000000195700000000019570000000001808000000000184000000000018080000000001807000000000186000020000000000000000337000000000000620105000000000000009999123100000010000000000000BRCPFEACNOR0122
012014012862CPFE3T      030CPFL ENERGIAON      NM150R$  000000000194500000000019460000000001945000000000194500000000019460000000000000000000000000000004000000000000002000000000000003891580000000000000009999123100000010000000000000BRCPFEACNOR0122
012014012802CPLE3       010COPEL       ON      N1   R$  000000000212900000000021500000000002089000000000211300000000021100000000002090000000000211000086000000000000023700000000000050097300000000000000009999123100000010000000000000BRCPLEACNOR8129
012014012896CPLE3F      020COPEL       ON      N1   R$  000000000212000000000021200000000002120000000000212000000000021200000000002120000000000229000001000000000000000001000000000000002120000000000000009999123100000010000000000000BRCPLEACNOR8129
012014012802CPLE6       010COPEL       PNB     N1   R$  000000000292900000000029790000000002878000000000291500000000029100000000002910000000000291502465000000000000472600000000001377931200000000000000009999123100000010000000000000BRCPLEACNPB9126
012014012896CPLE6F      020COPEL       PNB     N1   R$  000000000285400000000029600000000002854000000000290400000000028970000000002870000000000294800024000000000000000597000000000001733922000000000000009999123100000010000000000000BRCPLEACNPB9126
012014012802CPRE3       010CPFL RENOVAVON      NM   R$  000000000129900000000012990000000001275000000000127900000000012980000000001272000000000129900095000000000000076800000000000098281100000000000000009999123100000010000000000000BRCPREACNOR5100
012014012802CRDE3       010CR2         ON      NM   R$  000000000036100000000003610000000000357000000000036000000000003570000000000357000000000036200007000000000000015300000000000005511200000000000000009999123100000010000000000000BRCRDEACNOR1108
012014012802CREM3       010CREMER      ON      NM   R$  000000000153300000000015330000000001500000000000150900000000015000000000001500000000000152600007000000000000001500000000000002263700000000000000009999123100000010000000000000BRCREMACNOR2168
012014012802CRIV3       010ALFA FINANC ON           R$  000000000037000000000003760000000000370000000000037000000000003700000000000360000000000037000013000000000000005400000000000002001000000000000000009999123100000010000000000000BRCRIVACNOR4190
012014012802CRIV4       010ALFA FINANC PN  EJ       R$  000000000037900000000003890000000000350000000000035600000000003790000000000357000000000037900070000000000000113300000000000040388600000000000000009999123100000010000000000000BRCRIVACNPR1191
012014012802CRUZ3       010SOUZA CRUZ  ON           R$  000000000223400000000022360000000002182000000000220700000000021820000000002182000000000219003370000000000001865600000000004117134800000000000000009999123100000010000000000000BRCRUZACNOR0249
012014012896CRUZ3F      020SOUZA CRUZ  ON           R$  000000000220600000000022190000000002185000000000219900000000022050000000002185000000000220500038000000000000000959000000000002106583000000000000009999123100000010000000000000BRCRUZACNOR0249
012014012862CRUZ3T      030SOUZA CRUZ  ON        062R$  000000000225400000000022550000000002254000000000225400000000022550000000000000000000000000000004000000000000002000000000000004508338000000000000009999123100000010000000000000BRCRUZACNOR0249
012014012862CRUZ3T      030SOUZA CRUZ  ON        090R$  000000000227100000000022720000000002271000000000227100000000022720000000000000000000000000000004000000000000002000000000000004542504000000000000009999123100000010000000000000BRCRUZACNOR0249
012014012862CRUZ3T      030SOUZA CRUZ  ON        120R$  000000000228900000000022900000000002289000000000228900000000022900000000000000000000000000000004000000000000002000000000000004579334000000000000009999123100000010000000000000BRCRUZACNOR0249
012014012862CRUZ3T      030SOUZA CRUZ  ON        150R$  000000000231800000000023190000000002318000000000231800000000023190000000000000000000000000000004000000000000002000000000000004637020000000000000009999123100000010000000000000BRCRUZACNOR0249
012014012802CSAN3       010COSAN       ON      NM   R$  000000000370000000000037200000000003601000000000364100000000036790000000003653000000000367906061000000000002644700000000009631150400000000000000009999123100000010000000000000BRCSANACNOR6108
012014012896CSAN3F      020COSAN       ON      NM   R$  000000000369100000000037000000000003602000000000363300000000036510000000003601000000000363600046000000000000001317000000000004787907000000000000009999123100000010000000000000BRCSANACNOR6108
012014012862CSAN3T      030COSAN       ON      NM016R$  000000000371300000000037140000000003690000000000369800000000036910000000000000000000000000000004000000000000003000000000000011094111000000000000009999123100000010000000000000BRCSANACNOR6108
012014012862CSAN3T      030COSAN       ON      NM062R$  000000000368500000000036860000000003685000000000368500000000036860000000000000000000000000000002000000000000005000000000000018425160000000000000009999123100000010000000000000BRCSANACNOR6108
012014012878CSANJ13     070CSAN        ON      NM000R$  000000000001200000000000120000000000012000000000001200000000000120000000000000000000000000000001000000000000012200000000000000146400000000000530002014102000000010000000000000BRCSANACNOR6108
012014012882CSANV12     080CSANE       ON      NM000R$  000000000042400000000004240000000000424000000000042400000000004240000000000000000000000000000001000000000000012200000000000005172800000000000420002014102000000010000000000000BRCSANACNOR6108
012014012882CSANV8      080CSANE       ON      NM000R$  000000000024800000000002480000000000248000000000024800000000002480000000000000000000000000000002000000000000012200000000000003025600000000000380002014102000000010000000000000BRCSANACNOR6108
012014012802CSCO34      010CISCO       DRN          R$  000000000535900000000053590000000005297000000000530100000000052970000000005250000000000532000002000000000000004400000000000023325400000000000000009999123100000010000000000000BRCSCOBDR004112
012014012812CSHP11B     010FII CSHG POPCI      MB   R$  000000011900000000001190000000000119000000000011900000000001190000000000000000000000000000000001000000000000000100000000000011900000000000000000009999123100000010000000000000BRCSHPCTF009106
012014012802CSMG3       010COPASA      ON      NM   R$  000000000327000000000032700000000003198000000000321800000000032010000000003201000000000320801241000000000000215000000000000692043700000000000000009999123100000010000000000000BRCSMGACNOR5128
012014012896CSMG3F      020COPASA      ON      NM   R$  000000000325500000000032890000000003181000000000321200000000032890000000003181000000000328900023000000000000000755000000000002425609000000000000009999123100000010000000000000BRCSMGACNOR5128
012014012814CSMO11      010ISHARES CSMOCI           R$  000000000441000000000044100000000004403000000000440900000000044030000000000000000000000455500004000000000000005010000000000022089530000000000000009999123100000010000000000000BRCSMOCTF002100
012014012802CSNA3       010SID NACIONALON           R$  000000000115600000000011610000000001141000000000115000000000011520000000001152000000000115308713000000000004809600000000005531855600000000000000009999123100000010000000000000BRCSNAACNOR6244
012014012896CSNA3F      020SID NACIONALON           R$  000000000115800000000011990000000001142000000000115000000000011990000000001146000000000119900061000000000000001231000000000001416700000000000000009999123100000010000000000000BRCSNAACNOR6244
012014012862CSNA3T      030SID NACIONALON        023R$  000000000116100000000011620000000001161000000000116100000000011620000000000000000000000000000002000000000000015000000000000017416065000000000000009999123100000010000000000000BRCSNAACNOR6244
012014012862CSNA3T      030SID NACIONALON        030R$  000000000115900000000011630000000001159000000000116200000000011630000000000000000000000000000006000000000000019300000000000022428286000000000000009999123100000010000000000000BRCSNAACNOR6244
012014012862CSNA3T      030SID NACIONALON        090R$  000000000117200000000011730000000001172000000000117200000000011730000000000000000000000000000004000000000000004400000000000005157871000000000000009999123100000010000000000000BRCSNAACNOR6244
012014012862CSNA3T      030SID NACIONALON        120R$  000000000119500000000011960000000001195000000000119500000000011960000000000000000000000000000002000000000000000034000000000000040640000000000000009999123100000010000000000000BRCSNAACNOR6244
012014012878CSNAB1      070CSNA        ON        000R$  000000000015000000000001500000000000146000000000014800000000001500000000000141000000000000000004000000000000000800000000000000118800000000000101402014021700000010000000000000BRCSNAACNOR6241
012014012878CSNAB11     070CSNA        ON        000R$  000000000010300000000001050000000000101000000000010200000000001050000000000057000000000000000015000000000000042700000000000004367100000000000106702014021700000010000000000000BRCSNAACNOR6243
012014012878CSNAB12     070CSNA  FM    ON        000R$  000000000003000000000000320000000000025000000000002800000000000300000000000000000000000003700057000000000000256100000000000007302300000000000120002014021700000010000000000000BRCSNAACNOR6244
012014012878CSNAB13     070CSNA  FM    ON        000R$  000000000000900000000000090000000000008000000000000800000000000080000000000004000000000000900004000000000000005000000000000000042000000000000130002014021700000010000000000000BRCSNAACNOR6244
012014012878CSNAB41     070CSNA  FM    ON        000R$  000000000007000000000000700000000000063000000000006600000000000700000000000000000000000000000023000000000000071500000000000004726400000000000111702014021700000010000000000000BRCSNAACNOR6243
012014012878CSNAB42     070CSNA  FM    ON        000R$  000000000001500000000000150000000000015000000000001500000000000150000000000000000000000000000007000000000000022700000000000000340500000000000125002014021700000010000000000000BRCSNAACNOR6244
012014012878CSNAB43     070CSNA        ON        000R$  000000000000400000000000040000000000004000000000000400000000000040000000000004000000000000000002000000000000002000000000000000008000000000000135002014021700000010000000000000BRCSNAACNOR6244
012014012878CSNAB44     070CSNA        ON        000R$  000000000000200000000000020000000000002000000000000200000000000020000000000001000000000005400001000000000000002000000000000000004000000000000145002014021700000010000000000000BRCSNAACNOR6244
012014012878CSNAB5      070CSNA        ON        000R$  000000000000200000000000020000000000002000000000000200000000000020000000000002000000000003600006000000000000150000000000000000300000000000000141402014021700000010000000000000BRCSNAACNOR6241
012014012878CSNAB61     070CSNA  FM    ON        000R$  000000000004000000000000440000000000037000000000003900000000000440000000000000000000000000000035000000000000091500000000000003602200000000000116702014021700000010000000000000BRCSNAACNOR6244
012014012878CSNAC12     070CSNA  FM    ON        000R$  000000000009300000000000960000000000089000000000009200000000000890000000000000000000000000000005000000000000013100000000000001208700000000000111402014031700000010000000000000BRCSNAACNOR6241
012014012878CSNAC13     070CSNA  FM    ON        000R$  000000000002200000000000220000000000021000000000002100000000000220000000000000000000000002600031000000000000099300000000000002184300000000000130002014031700000010000000000000BRCSNAACNOR6244
012014012878CSNAC16     070CSNA        ON        000R$  000000000000400000000000050000000000004000000000000400000000000050000000000000000000000002600025000000000000110000000000000000544000000000000151402014031700000010000000000000BRCSNAACNOR6241
012014012878CSNAC41     070CSNA  FM    ON        000R$  000000000007300000000000730000000000068000000000007100000000000680000000000000000000000000000005000000000000014000000000000000999500000000000115002014031700000010000000000000BRCSNAACNOR6244
012014012878CSNAC42     070CSNA  FM    ON        000R$  000000000003300000000000340000000000033000000000003300000000000340000000000000000000000021000003000000000000008300000000000000279800000000000125002014031700000010000000000000BRCSNAACNOR6244
012014012878CSNAC43     070CSNA        ON        000R$  000000000001400000000000140000000000014000000000001400000000000140000000000008000000000000000001000000000000000800000000000000011200000000000135002014031700000010000000000000BRCSNAACNOR6244
012014012878CSNAC52     070CSNA  FM    ON        000R$  000000000005000000000000500000000000049000000000004900000000000500000000000000000000000000000004000000000000012700000000000000632100000000000120002014031700000010000000000000BRCSNAACNOR6244
012014012878CSNAD43     070CSNA        ON        000R$  000000000002800000000000280000000000028000000000002800000000000280000000000000000000000000000001000000000000000800000000000000022400000000000135002014042200000010000000000000BRCSNAACNOR6244
012014012882CSNAN12     080CSNAE FM    ON        000R$  000000000007300000000000760000000000070000000000007400000000000700000000000000000000000000000055000000000000181200000000000013543500000000000120002014021700000010000000000000BRCSNAACNOR6244
012014012882CSNAN13     080CSNAE       ON        000R$  000000000015000000000001500000000000150000000000015000000000001500000000000000000000000019000017000000000000080000000000000012000000000000000130002014021700000010000000000000BRCSNAACNOR6244
012014012882CSNAN41     080CSNAE FM    ON        000R$  000000000003100000000000330000000000027000000000003000000000000270000000000000000000000000000121000000000000266200000000000008155000000000000111702014021700000010000000000000BRCSNAACNOR6243
012014012882CSNAN61     080CSNAE FM    ON        000R$  000000000005300000000000560000000000051000000000005300000000000510000000000000000000000000000042000000000000134500000000000007230000000000000116702014021700000010000000000000BRCSNAACNOR6244
012014012882CSNAO12     080CSNAE FM    ON        000R$  000000000004700000000000470000000000044000000000004500000000000440000000000000000000000000000005000000000000009400000000000000426800000000000111402014031700000010000000000000BRCSNAACNOR6241
012014012882CSNAO41     080CSNAE FM    ON        000R$  000000000006200000000000620000000000059000000000006000000000000600000000000000000000000000000003000000000000008500000000000000511000000000000115002014031700000010000000000000BRCSNAACNOR6244
012014012882CSNAO42     080CSNAE       ON        000R$  000000000011800000000001180000000000118000000000011800000000001180000000000000000000000021000001000000000000003500000000000000413000000000000125002014031700000010000000000000BRCSNAACNOR6244
012014012882CSNAO52     080CSNAE FM    ON        000R$  000000000008900000000000890000000000086000000000008600000000000860000000000000000000000000000005000000000000009500000000000000824200000000000120002014031700000010000000000000BRCSNAACNOR6244
012014012802CTAX11      010CONTAX      UNT     N2   R$  000000000197100000000019800000000001956000000000197500000000019690000000001969000000000198900032000000000000019300000000000038122800000000000000009999123100000010000000000000BRCTAXCDAM19100
012014012896CTAX11F     020CONTAX      UNT     N2   R$  000000000193600000000019360000000001936000000000193600000000019360000000001900000000000210000001000000000000000047000000000000090992000000000000009999123100000010000000000000BRCTAXCDAM19100
012014012802CTAX4       010CONTAX      PN      N2   R$  000000000034000000000003440000000000340000000000034000000000003400000000000339000000000034000007000000000000004800000000000001632900000000000000009999123100000010000000000000BRCTAXACNPR0114
012014012896CTAX4F      020CONTAX      PN      N2   R$  000000000033600000000003360000000000336000000000033600000000003360000000000338000000000034000001000000000000000050000000000000016800000000000000009999123100000010000000000000BRCTAXACNPR0114
012014012802CTIP3       010CETIP       ON      NM   R$  000000000230000000000023000000000002266000000000227800000000022660000000002266000000000227103929000000000001149700000000002618975200000000000000009999123100000010000000000000BRCTIPACNOR2121
012014012896CTIP3F      020CETIP       ON      NM   R$  000000000229000000000023000000000002251000000000227800000000023000000000002250000000000230000024000000000000000585000000000001332934000000000000009999123100000010000000000000BRCTIPACNOR2121
012014012802CTKA4       010KARSTEN     PN           R$  000000000007000000000000800000000000068000000000007000000000000800000000000069000000000008000009000000000000005800000000000000409600000000000000009999123100000010000000000000BRCTKAACNPR7041
012014012802CTSA3       010SANTANENSE  ON           R$  000000000050000000000005190000000000500000000000051100000000005190000000000519000000000052900007000000000000001300000000000000665200000000000000009999123100000010000000000000BRCTSAACNOR3052
012014012862CTSA3T      030SANTANENSE  ON        041R$  000000000052400000000005250000000000524000000000052400000000005250000000000000000000000000000004000000000000000700000000000000367006000000000000009999123100000010000000000000BRCTSAACNOR3052
012014012812CTXT11      010FII C TEXTILCI           R$  000000000033900000000003390000000000339000000000033900000000003390000000000310000000000033900004000000000000000026000000000000008814000000000000009999123100000010000000000000BRCTXTCTF014113
012014012802CVCB3       010CVC BRASIL  ON      NM   R$  000000000147700000000014780000000001427000000000143700000000014300000000001426000000000143000189000000000001283700000000001845380800000000000000009999123100000010000000000000BRCVCBACNOR1100
012014012896CVCB3F      020CVC BRASIL  ON      NM   R$  000000000146000000000015000000000001438000000000146700000000014380000000001390000000000143800003000000000000000058000000000000085118000000000000009999123100000010000000000000BRCVCBACNOR1100
012014012812CXCE11B     010FII CX CEDAECI      MB   R$  000000016850000000001685000000000168500000000016850000000001685000000000168500000000017000000001000000000000000015000000000002527500000000000000009999123100000010000000000000BRCXCECTF004142
012014012812CXTL11      010FII CX TRX  CI           R$  000000006630000000000663000000000065000000000006557900000000650020000000065002000000006600000007000000000000000024000000000001573902000000000000009999123100000010000000000000BRCXTLCTF003126
012014012802CYRE3       010CYRELA REALTON      NM   R$  000000000150000000000015070000000001478000000000148800000000014800000000001480000000000148705183000000000001551700000000002309199700000000000000009999123100000010000000000000BRCYREACNOR7125
012014012896CYRE3F      020CYRELA REALTON      NM   R$  000000000150000000000015490000000001453000000000148900000000015480000000001477000000000154800033000000000000000747000000000001113641000000000000009999123100000010000000000000BRCYREACNOR7125
012014012878CYREB15     070CYRE  FM    ON      NM000R$  000000000004200000000000430000000000042000000000004200000000000430000000000022000000000002500002000000000000007000000000000000297500000000000150002014021700000010000000000000BRCYREACNOR7125
012014012878CYREB44     070CYRE  FM    ON      NM000R$  000000000006900000000000750000000000069000000000007200000000000750000000000000000000000000000002000000000000007000000000000000504000000000000145002014021700000010000000000000BRCYREACNOR7125
012014012878CYREB45     070CYRE  FM    ON      NM000R$  000000000001800000000000180000000000018000000000001800000000000180000000000000000000000000000003000000000000004000000000000000072000000000000155002014021700000010000000000000BRCYREACNOR7125
012014012878CYREC15     070CYRE  FM    ON      NM000R$  000000000006900000000000690000000000069000000000006900000000000690000000000000000000000000000001000000000000003500000000000000241500000000000150002014031700000010000000000000BRCYREACNOR7125
012014012878CYREC44     070CYRE  FM    ON      NM000R$  000000000009300000000001000000000000085000000000009000000000000850000000000000000000000000000016000000000000051400000000000004674900000000000145002014031700000010000000000000BRCYREACNOR7125
012014012882CYREN45     080CYREE FM    ON      NM000R$  000000000007000000000000710000000000064000000000006700000000000640000000000000000000000000000003000000000000007300000000000000490300000000000155002014021700000010000000000000BRCYREACNOR7125
012014012882CYREO15     080CYREE FM    ON      NM000R$  000000000005500000000000550000000000050000000000005200000000000500000000000000000000000000000002000000000000007000000000000000367500000000000150002014031700000010000000000000BRCYREACNOR7125
012014012882CYREO45     080CYREE FM    ON      NM000R$  000000000007600000000000760000000000076000000000007600000000000760000000000000000000000000000001000000000000003500000000000000266000000000000155002014031700000010000000000000BRCYREACNOR7125
012014012882CYREP14     080CYREE       ON      NM000R$  000000000003900000000000390000000000039000000000003900000000000390000000000000000000000000000001000000000000003000000000000000117000000000000140002014042200000010000000000000BRCYREACNOR7125
012014012882CYREP45     080CYREE       ON      NM000R$  000000000009500000000000950000000000095000000000009500000000000950000000000000000000000000000001000000000000001000000000000000095000000000000155002014042200000010000000000000BRCYREACNOR7125
012014012802CZLT33      010COSAN LTD   DR3          R$  000000000296300000000030270000000002924000000000296100000000029630000000002935000000000296302336000000000000717100000000002123822100000000000000009999123100000010000000000000BRCZLTBDR009105
012014012896CZLT33F     020COSAN LTD   DR3          R$  000000000343300000000035500000000003433000000000349100000000035500000000003010000000000355000002000000000000000004000000000000013966000000000000009999123100000010000000000000BRCZLTBDR009105
012014012802DAGB33      010DUFRY AG    DR3          R$  000000003899900000000389990000000037106000000003841300000000385000000000038140000000003850000661000000000000025929000000000996034117000000000000009999123100000010000000000000BRDAGBBDR008100
012014012802DASA3       010DASA        ON      NM   R$  000000000147700000000014850000000001469000000000147600000000014800000000001473000000000148001490000000000000562900000000000831071400000000000000009999123100000010000000000000BRDASAACNOR1108
012014012896DASA3F      020DASA        ON      NM   R$  000000000147600000000014780000000001462000000000147400000000014730000000001461000000000148200009000000000000000281000000000000414339000000000000009999123100000010000000000000BRDASAACNOR1108
012014012802DAYC4       010DAYCOVAL    PN      N2   R$  000000000077400000000007990000000000773000000000078200000000007920000000000795000000000080000040000000000000038200000000000029889500000000000000009999123100000010000000000000BRDAYCACNPR2130
012014012896DAYC4F      020DAYCOVAL    PN      N2   R$  000000000077100000000007710000000000771000000000077100000000007710000000000770000000000079400001000000000000000018000000000000013878000000000000009999123100000010000000000000BRDAYCACNPR2130
