00COTAHIST.2020BOVESPA 20200428                                                                                                                                                                                                                      
012020042802A1DI34      010ANALOG DEVICDRN          R$  000000003038700000000303870000000030387000000003038700000000303870000000000000000000000000000001000000000000000400000000000012154800000000000000009999123100000010000000000000BRA1DIBDR000101
012020042802A1EP34      010AMERICAN ELEDRN          R$  000000002328900000000232890000000023289000000002328900000000232890000000000000000000000000000001000000000000000100000000000002328900000000000000009999123100000010000000000000BRA1EPBDR003101
012020042802A1LX34      010ALEXION PHARDRN          R$  000000002980000000000298000000000029800000000002980000000000298000000000000000000000000000000001000000000000000150000000000004470000000000000000009999123100000010000000000000BRA1LXBDR002100
012020042802A1MD34      010ADVANCED MICDRN          R$  000000003140500000000314050000000031000000000003136800000000310000000000000000000000000000000003000000000000000330000000000010351500000000000000009999123100000010000000000000BRA1MDBDR002100
012020042802A1MT34      010APPLIED MATEDRN          R$  000000002824600000000282460000000028246000000002824600000000282460000000000000000000000000000001000000000000000200000000000005649200000000000000009999123100000010000000000000BRA1MTBDR008101
012020042802A1NT34      010ANTHEM INC  DRN          R$  000000002970000000000297000000000029700000000002970000000000297000000000029700000000000000000001000000000000000010000000000000297000000000000000009999123100000010000000000000BRA1NTBDR006101
012020042802A1ON34      010AON PLC     DRN          R$  000000002436000000000243600000000024360000000002436000000000243600000000000000000000000000000001000000000000000020000000000000487200000000000000009999123100000010000000000000BRA1ONBDR007101
012020042802A1PA34      010APACHE CORP DRN ED       R$  000000000600000000000060000000000005760000000000588000000000057600000000000000000000000591900002000000000000000400000000000002352000000000000000009999123100000010000000000000BRA1PABDR001102
012020042802AALL34      010AMERICAN AIRDRN          R$  000000000591000000000062000000000005910000000000609000000000062000000000004500000000000800000009000000000000000220000000000001340000000000000000009999123100000010000000000000BRAALLBDR003115
012020042802AALR3       010ALLIAR      ON  ED  NM   R$  000000000109500000000011010000000001031000000000105500000000010330000000001032000000000103501622000000000000555100000000000585824900000000000000009999123100000010000000000000BRAALRACNOR6102
012020042802AAPL34      010APPLE       DRN          R$  000000001594000000000160000000000015400000000001564600000000155030000000015365000000001638000119000000000000021340000000000333893630000000000000009999123100000010000000000000BRAAPLBDR004132
012020042802ABCB4       010ABC BRASIL  PN      N2   R$  000000000137300000000014480000000001373000000000142000000000014350000000001435000000000143705719000000000001585500000000002252037300000000000000009999123100000010000000000000BRABCBACNPR4133
012020042802ABEV3       010AMBEV S/A   ON           R$  000000000119400000000012180000000001158000000000118100000000011700000000001168000000000117047884000000000027108700000000032022883500000000000000009999123100000010000000000000BRABEVACNOR1122
012020042802ABTT34      010ABBOTT      DRN          R$  000000001289200000000128920000000012825000000001288700000000128250000000000000000000000000000004000000000000003910000000000050391050000000000000009999123100000010000000000000BRABTTBDR007134
012020042802ABUD34      010AB INBEV    DRN          R$  000000002550000000000256460000000025500000000002553600000000256460000000000000000000000000000005000000000000001600000000000040858400000000000000009999123100000010000000000000BRABUDBDR009101
012020042802ACNB34      010ACCENTURE   DRN          R$  000000010020400000001002040000000100204000000010020400000001002040000000000000000000000000000001000000000000000200000000000020040800000000000000009999123100000010000000000000BRACNBBDR006111
012020042802ADBE34      010ADOBE INC   DRN          R$  000000003838100000000383810000000037050000000003832600000000370500000000000000000000000000000002000000000000000730000000000027978200000000000000009999123100000010000000000000BRADBEBDR003100
012020042802ADHM3       010ADVANCED-DH ON           R$  000000000024900000000002700000000000248000000000025500000000002490000000000248000000000025100204000000000000092600000000000023638300000000000000009999123100000010000000000000BRADHMACNOR9102
012020042802AFLT3       010AFLUENTE T  ON           R$  000000000072200000000007220000000000694000000000070200000000006940000000000694000000000072000017000000000000003400000000000002388600000000000000009999123100000010000000000000BRAFLTACNOR1114
012020042802AGRO3       010BRASILAGRO  ON      NM   R$  000000000198400000000020900000000001975000000000204400000000020390000000002034000000000203901358000000000000214400000000000438438600000000000000009999123100000010000000000000BRAGROACNOR7109
012020042802AIGB34      010AIG GROUP   DRN          R$  000000001396300000000139630000000013963000000001396300000000139630000000000000000000000000000001000000000000000900000000000012566700000000000000009999123100000010000000000000BRAIGBBDR007114
012020042802ALPA3       010ALPARGATAS  ON      N1   R$  000000000227000000000023160000000002220000000000229600000000023100000000002181000000000238800021000000000000007300000000000016761100000000000000009999123100000010000000000000BRALPAACNOR0229
012020042802ALPA4       010ALPARGATAS  PN      N1   R$  000000000278900000000028570000000002702000000000280400000000028570000000002832000000000285706296000000000001713800000000004805751100000000000000009999123100000010000000000000BRALPAACNPR7229
012020042802ALSO3       010ALIANSCSONAEON      NM   R$  000000000271100000000028800000000002613000000000276300000000028700000000002858000000000287007981000000000001551300000000004287707000000000000000009999123100000010000000000000BRALSOACNOR5100
012020042802ALUP3       010ALUPAR      ON  ED  N2   R$  000000000098100000000010350000000000961000000000100500000000010200000000001020000000000103200080000000000000016100000000000016193300000000000000009999123100000010000000000000BRALUPACNOR8111
012020042802ALUP4       010ALUPAR      PN  ED  N2   R$  000000000068100000000006910000000000660000000000067800000000006890000000000683000000000068900069000000000000018100000000000012286100000000000000009999123100000010000000000000BRALUPACNPR5111
012020042802ALUP11      010ALUPAR      UNT ED  N2   R$  000000000233700000000023940000000002301000000000235500000000023600000000002359000000000237003262000000000000472800000000001113660600000000000000009999123100000010000000000000BRALUPCDAM15111
012020042802AMAR3       010LOJAS MARISAON      NM   R$  000000000060800000000006560000000000590000000000062400000000006380000000000638000000000064014939000000000011526700000000007194382000000000000000009999123100000010000000000000BRAMARACNOR4112
012020042802AMGN34      010AMGEN       DRN          R$  000000013400000000001340100000000132200000000013384000000001322000000000000000000000000000000003000000000000000220000000000029445000000000000000009999123100000010000000000000BRAMGNBDR004133
012020042802AMZO34      010AMAZON      DRN          R$  000000067500100000006750010000000639500000000064632000000006395000000000585000000000000000000026000000000000000950000000000614004710000000000000009999123100000010000000000000BRAMZOBDR002101
012020042802ANIM3       010ANIMA       ON      NM   R$  000000000202900000000020960000000001963000000000203400000000020960000000002073000000000209603463000000000000692800000000001409754900000000000000009999123100000010000000000000BRANIMACNOR6106
012020042802APER3       010ALPER S.A.  ON      NM   R$  000000000209900000000020990000000001972000000000201500000000019750000000001975000000000201200205000000000000037000000000000074579100000000000000009999123100000010000000000000BRAPERACNOR9101
012020042802ARMT34      010ARCELOR     DRN          R$  000000000288000000000028800000000002880000000000288000000000028800000000000000000000000000000001000000000000000900000000000002592000000000000000009999123100000010000000000000BRARMTBDR008117
012020042802ARZZ3       010AREZZO CO   ON      NM   R$  000000000434000000000046360000000004303000000000443000000000045590000000004559000000000456002898000000000000583000000000002582884900000000000000009999123100000010000000000000BRARZZACNOR3137
012020042802ASML34      010ASML HOLD   DRN ED       R$  000000016304000000001630400000000163040000000016304000000001630400000000000000000000000000000001000000000000000100000000000016304000000000000000009999123100000010000000000000BRASMLBDR003102
012020042802ATOM3       010ATOMPAR     ON           R$  000000000013200000000001370000000000132000000000013400000000001340000000000134000000000013500062000000000000024700000000000003332000000000000000009999123100000010000000000000BRATOMACNOR1103
012020042802ATTB34      010ATT INC     DRN          R$  000000001730000000000173000000000017058000000001720800000000170580000000000000000000000000000002000000000000002250000000000038719300000000000000009999123100000010000000000000BRATTBBDR007131
012020042802ATVI34      010ACTIVISION  DRN          R$  000000003580200000000358020000000035802000000003580200000000358020000000000000000000000000000001000000000000000400000000000014320800000000000000009999123100000010000000000000BRATVIBDR008101
012020042802AVGO34      010BROADCOM INCDRN          R$  000000002996700000000299670000000029700000000002986600000000297000000000000000000000000000000002000000000000000800000000000023893500000000000000009999123100000010000000000000BRAVGOBDR003104
012020042802AXPB34      010AMERICAN EXPDRN          R$  000000004838800000000483880000000048388000000004838800000000483880000000042000000000000000000001000000000000000200000000000009677600000000000000009999123100000010000000000000BRAXPBBDR007132
012020042802AZEV3       010AZEVEDO     ON           R$  000000000037200000000004500000000000360000000000040200000000003800000000000380000000000039400103000000000000024900000000000010022300000000000000009999123100000010000000000000BRAZEVACNOR0117
012020042802AZEV4       010AZEVEDO     PN           R$  000000000029000000000002990000000000286000000000029300000000002860000000000286000000000029000113000000000000067300000000000019742800000000000000009999123100000010000000000000BRAZEVACNPR7117
012020042802AZUL4       010AZUL        PN      N2   R$  000000000144900000000016100000000001429000000000152900000000016050000000001604000000000160526219000000000012383300000000018936984000000000000000009999123100000010000000000000BRAZULACNPR4100
012020042802B1BT34      010TRUIST FINANDRN          R$  000000002145300000000214530000000021453000000002145300000000214530000000000000000000000000000001000000000000000600000000000012871800000000000000009999123100000010000000000000BRB1BTBDR000101
012020042802B1DX34      010BECTON DICKIDRN          R$  000000002880000000000288000000000028800000000002880000000000288000000000000000000000000000000001000000000000000010000000000000288000000000000000009999123100000010000000000000BRB1DXBDR008101
012020042802B1SX34      010BOSTON SCIENDRN          R$  000000002013600000000201360000000020136000000002013600000000201360000000000000000000000000000001000000000000000100000000000002013600000000000000009999123100000010000000000000BRB1SXBDR006100
012020042802B3SA3       010B3          ON      NM   R$  000000000407600000000042410000000003970000000000405700000000039800000000003980000000000398348129000000000017481300000000070922245000000000000000009999123100000010000000000000BRB3SAACNOR6110
012020042802BABA34      010ALIBABAGR   DRN          R$  000000011297500000001129750000000110900000000011268900000001109000000000000000000000000000000004000000000000000820000000000092405500000000000000009999123100000010000000000000BRBABABDR005100
012020042802BAUH4       010EXCELSIOR   PN           R$  000000000839100000000083910000000008391000000000839100000000083910000000004000000000000839000001000000000000000100000000000000839100000000000000009999123100000010000000000000BRBAUHACNPR3114
012020042802BAZA3       010AMAZONIA    ON           R$  000000000299800000000029980000000002911000000000294800000000029500000000002916000000000299000010000000000000003200000000000009433800000000000000009999123100000010000000000000BRBAZAACNOR0174
012020042802BBAS3       010BRASIL      ON      NM   R$  000000000272200000000029250000000002711000000000283200000000029140000000002914000000000291586892000000000043232700000000122453996000000000000000009999123100000010000000000000BRBBASACNOR3291
012020042802BBDC3       010BRADESCO    ON      N1   R$  000000000173500000000018170000000001730000000000178900000000018070000000001807000000000180918695000000000006886800000000012322611900000000000000009999123100000010000000000000BRBBDCACNOR1710
012020042802BBDC4       010BRADESCO    PN      N1   R$  000000000195500000000020250000000001939000000000199100000000019970000000001997000000000199887960000000000057299100000000114130230400000000000000009999123100000010000000000000BRBBDCACNPR8710
012020042802BBRK3       010BR BROKERS  ON      NM   R$  000000000025300000000002660000000000237000000000025100000000002500000000000250000000000025100683000000000000417900000000000105150200000000000000009999123100000010000000000000BRBBRKACNOR4113
012020042802BBSD11      010BB ETF SP DVCI           R$  000000000650000000000067800000000006500000000000677100000000067800000000006750000000000710000025000000000000020550000000000139158690000000000000009999123100000010000000000000BRBBSDCTF000100
012020042802BBSE3       010BBSEGURIDADEON      NM   R$  000000000264500000000026450000000002513000000000255300000000025260000000002526000000000252927227000000000005563100000000014202855000000000000000009999123100000010000000000000BRBBSEACNOR5116
012020042802BCSA34      010SANTANDER   DRN          R$  000000000124000000000012500000000001199000000000122500000000012050000000001204000000000121000128000000000000034520000000000042293170000000000000009999123100000010000000000000BRBCSABDR005101
012020042802BEEF3       010MINERVA     ON      NM   R$  000000000114200000000012080000000001130000000000117400000000011900000000001189000000000119225891000000000010767700000000012648686300000000000000009999123100000010000000000000BRBEEFACNOR6108
012020042802BEES3       010BANESTES    ON           R$  000000000054000000000005450000000000507000000000052600000000005080000000000507000000000050800149000000000000049600000000000026102000000000000000009999123100000010000000000000BRBEESACNOR9336
012020042802BEES4       010BANESTES    PN           R$  000000000050000000000005250000000000500000000000050800000000005030000000000501000000000050400051000000000000014300000000000007266900000000000000009999123100000010000000000000BRBEESACNPR6261
012020042802BERK34      010BERKSHIRE   DRN          R$  000000010620000000001062000000000104100000000010543800000001041000000000101000000000010740000016000000000000000980000000000103329900000000000000009999123100000010000000000000BRBERKBDR002100
012020042802BHPG34      010BHP GROUP   DRN          R$  000000002214900000000221490000000022149000000002214900000000221490000000000000000000000000000001000000000000000100000000000002214900000000000000009999123100000010000000000000BRBHPGBDR007101
012020042802BIDI3       010BANCO INTER ON      N2   R$  000000000093900000000009590000000000916000000000093500000000009530000000000948000000000095300719000000000000158200000000000148009200000000000000009999123100000010000000000000BRBIDIACNOR3105
012020042802BIDI4       010BANCO INTER PN      N2   R$  000000000094000000000009830000000000932000000000096100000000009660000000000966000000000096705442000000000002075500000000001995246200000000000000009999123100000010000000000000BRBIDIACNPR0109
012020042802BIDI11      010BANCO INTER UNT     N2   R$  000000000285100000000028970000000002763000000000284900000000028800000000002854000000000288002772000000000000477600000000001361143200000000000000009999123100000010000000000000BRBIDICDAXX3104
012020042802BIIB34      010BIOGEN      DRN          R$  000000002853000000000285300000000028530000000002853000000000285300000000000000000000000000000001000000000000000600000000000017118000000000000000009999123100000010000000000000BRBIIBBDR001101
012020042802BIOM3       010BIOMM       ON      MA   R$  000000000101100000000010110000000000981000000000100200000000010110000000000996000000000103500049000000000000009200000000000009221800000000000000009999123100000010000000000000BRBIOMACNOR2107
012020042802BKBR3       010BK BRASIL   ON      NM   R$  000000000090000000000009230000000000882000000000090100000000009010000000000900000000000090105468000000000001262100000000001138210500000000000000009999123100000010000000000000BRBKBRACNOR4103
012020042802BKNG34      010BOOKING     DRN          R$  000000003207000000000320700000000032070000000003207000000000320700000000031500000000000000000001000000000000000010000000000000320700000000000000009999123100000010000000000000BRBKNGBDR006100
012020042802BLAK34      010BLACKROCK   DRN          R$  000000004620000000000462000000000046200000000004620000000000462000000000000000000000000000000001000000000000000300000000000013860000000000000000009999123100000010000000000000BRBLAKBDR003116
012020042802BMEB3       010MERC BRASIL ON           R$  000000000135000000000013990000000001310000000000134700000000013590000000001350000000000155100031000000000000006500000000000008760000000000000000009999123100000010000000000000BRBMEBACNOR8196
012020042802BMEB4       010MERC BRASIL PN           R$  000000000111000000000011440000000001061000000000109400000000010660000000001066000000000113000021000000000000009100000000000009959400000000000000009999123100000010000000000000BRBMEBACNPR5201
012020042802BMGB4       010BANCO BMG   PN      N1   R$  000000000048100000000005030000000000474000000000049100000000004950000000000494000000000049502546000000000001246400000000000612997800000000000000009999123100000010000000000000BRBMGBACNPR0101
012020042802BMIN3       010MERC INVEST ON           R$  000000000175100000000018000000000001751000000000177500000000018000000000001721000000000200000002000000000000000200000000000000355100000000000000009999123100000010000000000000BRBMINACNOR4168
012020042802BMIN4       010MERC INVEST PN           R$  000000000165000000000016500000000001650000000000165000000000016500000000001450000000000165000002000000000000000200000000000000330000000000000000009999123100000010000000000000BRBMINACNPR1171
012020042802BMKS3       010BIC MONARK  ON           R$  000000001850000000000185000000000018500000000001850000000000185000000000017520000000001850000002000000000000000002000000000000037000000000000000009999123100000010000000000000BRBMKSACNOR9161
012020042802BMYB34      010BRISTOLMYERSDRN          R$  000000003470000000000347240000000034580000000003469200000000345800000000000000000000000000000003000000000000000910000000000031569800000000000000009999123100000010000000000000BRBMYBBDR000126
012020042802BNBR3       010NORD BRASIL ON           R$  000000000769900000000076990000000007694000000000769400000000076940000000007250000000000769500005000000000000000900000000000006925200000000000000009999123100000010000000000000BRBNBRACNOR8200
012020042802BOAC34      010BANK AMERICADRN          R$  000000001350000000000135570000000013160000000001329300000000133320000000012500000000001606700012000000000000002410000000000032036460000000000000009999123100000010000000000000BRBOACBDR004138
012020042802BOBR4       010BOMBRIL     PN           R$  000000000017500000000001830000000000175000000000017600000000001760000000000176000000000017900140000000000000178600000000000031605300000000000000009999123100000010000000000000BRBOBRACNPR3128
012020042802BONY34      010BNY MELLON  DRN ED       R$  000000002082200000000208220000000020822000000002082200000000208220000000000000000000000000000001000000000000000400000000000008328800000000000000009999123100000010000000000000BRBONYBDR001119
012020042802BOVA11      010ISHARES BOVACI           R$  000000000777100000000078490000000007713000000000779400000000078300000000007822000000000783090730000000000012579600000000098052386860000000000000009999123100000010000000000000BRBOVACTF003104
012020042802BOVB11      010ETF BRAD BOVCI           R$  000000000807600000000081380000000008013000000000810700000000081360000000008050000000000813600667000000000000227880000000001847437540000000000000009999123100000010000000000000BRBOVBCTF001100
012020042802BOVV11      010IT NOW IBOV CI           R$  000000000809000000000081820000000008048000000000816200000000081710000000008170000000000817100949000000000001845980000000015068306120000000000000009999123100000010000000000000BRBOVVCTF009100
012020042802BOXP34      010BOSTON PROP DRN          R$  000000000540000000000054600000000005400000000000544700000000054600000000004900000000000000000002000000000000000380000000000002070000000000000000009999123100000010000000000000BRBOXPBDR008119
012020042802BPAC3       010BTGP BANCO  ON      N2   R$  000000000200100000000021490000000002001000000000209800000000021490000000002081000000000215000012000000000000001700000000000003567200000000000000009999123100000010000000000000BRBPACACNOR7121
012020042802BPAC5       010BTGP BANCO  PNA     N2   R$  000000000114500000000012020000000001145000000000117100000000012020000000001170000000000124900013000000000000002900000000000003396100000000000000009999123100000010000000000000BRBPACACNPA0121
012020042802BPAC11      010BTGP BANCO  UNT     N2   R$  000000000412900000000044500000000004121000000000430300000000044500000000004450000000000445520292000000000005036700000000021674175700000000000000009999123100000010000000000000BRBPACUNT006106
012020042802BPAN4       010BANCO PAN   PN      N1   R$  000000000052200000000005420000000000512000000000053100000000005350000000000535000000000053608292000000000004375500000000002326710500000000000000009999123100000010000000000000BRBPANACNPR1108
012020042802BRAP3       010BRADESPAR   ON      N1   R$  000000000273600000000027360000000002620000000000264700000000026260000000002626000000000267900479000000000000093100000000000246494700000000000000009999123100000010000000000000BRBRAPACNOR5136
012020042802BRAP4       010BRADESPAR   PN      N1   R$  000000000308500000000031050000000002975000000000302000000000029750000000002971000000000297509490000000000002120100000000006404595600000000000000009999123100000010000000000000BRBRAPACNPR2136
012020042802BRAX11      010ISHARES BRAXCI           R$  000000000673500000000068000000000006705000000000679600000000068000000000006600000000000680000019000000000000010190000000000069259660000000000000009999123100000010000000000000BRBRAXCTF002100
012020042802BRDT3       010PETROBRAS BRON      NM   R$  000000000187100000000019430000000001812000000000189000000000019400000000001939000000000194031522000000000010652900000000020135580600000000000000009999123100000010000000000000BRBRDTACNOR1119
012020042802BRFS3       010BRF SA      ON      NM   R$  000000000211000000000021290000000002010000000000204500000000020310000000002031000000000203337660000000000013226300000000027059170600000000000000009999123100000010000000000000BRBRFSACNOR8119
012020042802BRIV4       010ALFA INVEST PN           R$  000000000069400000000007300000000000694000000000070600000000007300000000000683000000000073000003000000000000000300000000000000211800000000000000009999123100000010000000000000BRBRIVACNPR3210
012020042802BRKM3       010BRASKEM     ON      N1   R$  000000000223000000000022970000000002195000000000223500000000022210000000002221000000000225000119000000000000034500000000000077128200000000000000009999123100000010000000000000BRBRKMACNOR1117
012020042802BRKM5       010BRASKEM     PNA     N1   R$  000000000223800000000022750000000002179000000000223700000000022340000000002232000000000223418038000000000005879900000000013156837400000000000000009999123100000010000000000000BRBRKMACNPA4117
012020042802BRML3       010BR MALLS PARON      NM   R$  000000000098200000000010350000000000974000000000100500000000010350000000001030000000000103548992000000000017930900000000018032564600000000000000009999123100000010000000000000BRBRMLACNOR9115
012020042802BRPR3       010BR PROPERT  ON  ED  NM   R$  000000000088600000000009290000000000881000000000091400000000009290000000000925000000000093005348000000000001234500000000001129414700000000000000009999123100000010000000000000BRBRPRACNOR9119
012020042802BRSR3       010BANRISUL    ON      N1   R$  000000000148900000000015000000000001460000000000149200000000014600000000001450000000000148900024000000000000004300000000000006419400000000000000009999123100000010000000000000BRBRSRACNOR3167
012020042802BRSR6       010BANRISUL    PNB     N1   R$  000000000125000000000012980000000001250000000000127000000000012600000000001260000000000127004397000000000001700800000000002160091500000000000000009999123100000010000000000000BRBRSRACNPB4170
012020042802BRZP11      010FIP BRZ IE  CI           R$  000000007500000000000758980000000072100000000007411000000000722010000000072201000000007495000097000000000000000815000000000060400279000000000000009999123100000010000000000000BRBRZPCTF005101
012020042802BSEV3       010BIOSEV      ON      NM   R$  000000000029400000000002970000000000285000000000028700000000002880000000000286000000000028800136000000000000058600000000000016839800000000000000009999123100000010000000000000BRBSEVACNOR3102
012020042802BTOW3       010B2W DIGITAL ON      NM   R$  000000000770100000000079650000000007622000000000780500000000077210000000007721000000000772926148000000000005382600000000042012243300000000000000009999123100000010000000000000BRBTOWACNOR8110
012020042802BTTL3       010BATTISTELLA ON           R$  000000000043300000000004920000000000432000000000047100000000004850000000000434000000000048500012000000000000003000000000000001414200000000000000009999123100000010000000000000BRBTTLACNOR0108
012020042802C1CL34      010CARNIVAL CORDRN          R$  000000000772000000000077200000000007720000000000772000000000077200000000000000000000000000000001000000000000000010000000000000077200000000000000009999123100000010000000000000BRC1CLBDR004101
012020042802CAMB3       010CAMBUCI     ON           R$  000000000024500000000002540000000000239000000000024500000000002450000000000242000000000024500323000000000000273200000000000067009700000000000000009999123100000010000000000000BRCAMBACNOR4119
012020042802CAML3       010CAMIL       ON      NM   R$  000000000090000000000009030000000000862000000000088100000000008620000000000862000000000086605169000000000001407900000000001241514700000000000000009999123100000010000000000000BRCAMLACNOR3109
012020042802CAON34      010CAPITAL ONE DRN          R$  000000001760100000000176010000000017601000000001760100000000176010000000000000000000000000000001000000000000001200000000000021121200000000000000009999123100000010000000000000BRCAONBDR009103
012020042802CARD3       010CSU CARDSYSTON      NM   R$  000000000090800000000009490000000000892000000000092000000000009100000000000905000000000091800655000000000000227600000000000209394300000000000000009999123100000010000000000000BRCARDACNOR9117
012020042802CATP34      010CATERPILLAR DRN ED       R$  000000006360000000000636000000000063600000000006360000000000636000000000000000000000000000000001000000000000000100000000000006360000000000000000009999123100000010000000000000BRCATPBDR003135
012020042802CBEE3       010AMPLA ENERG ON  ED       R$  000000000158400000000015840000000001584000000000158400000000015840000000001428000000000158500001000000000000000100000000000000158400000000000000009999123100000010000000000000BRCBEEACNOR3155
012020042802CCPR3       010CYRE COM-CCPON      NM   R$  000000000147200000000015610000000001472000000000150000000000014800000000001480000000000151400832000000000000387800000000000581715500000000000000009999123100000010000000000000BRCCPRACNOR9113
012020042802CCRO3       010CCR SA      ON      NM   R$  000000000127200000000013080000000001252000000000127800000000012840000000001284000000000128721726000000000008641800000000011050359400000000000000009999123100000010000000000000BRCCROACNOR2137
012020042802CEAB3       010CEA MODAS   ON      NM   R$  000000000084100000000009190000000000832000000000088200000000008800000000000875000000000088012322000000000003772700000000003329380300000000000000009999123100000010000000000000BRCEABACNOR1101
012020042802CEDO4       010CEDRO       PN      N1   R$  000000000046000000000005140000000000460000000000048500000000004700000000000400000000000048200008000000000000001300000000000000631000000000000000009999123100000010000000000000BRCEDOACNPR5128
012020042802CESP3       010CESP        ON      N1   R$  000000000265000000000028000000000002650000000000276200000000027990000000002760000000000279900092000000000000042700000000000117940800000000000000009999123100000010000000000000BRCESPACNOR3169
012020042802CESP5       010CESP        PNA     N1   R$  000000000283000000000028300000000002830000000000283000000000028300000000002751000000000300000001000000000000000100000000000000283000000000000000009999123100000010000000000000BRCESPACNPA6116
012020042802CESP6       010CESP        PNB     N1   R$  000000000270600000000027950000000002680000000000274000000000027650000000002753000000000276510556000000000002753700000000007545569900000000000000009999123100000010000000000000BRCESPACNPB4128
012020042802CGAS3       010COMGAS      ON           R$  000000001450000000000145000000000014500000000001450000000000145000000000014500000000001700000001000000000000000300000000000004350000000000000000009999123100000010000000000000BRCGASACNOR0151
012020042802CGAS5       010COMGAS      PNA          R$  000000001641800000000164310000000016000000000001616100000000161000000000016000000000001630000025000000000000002900000000000046867000000000000000009999123100000010000000000000BRCGASACNPA3148
012020042802CGRA3       010GRAZZIOTIN  ON           R$  000000000227500000000022750000000002231000000000225800000000022410000000002241000000000227500006000000000000000700000000000001580900000000000000009999123100000010000000000000BRCGRAACNOR2071
012020042802CGRA4       010GRAZZIOTIN  PN           R$  000000000245000000000024600000000002426000000000244000000000024500000000002429000000000245000028000000000000004300000000000010494700000000000000009999123100000010000000000000BRCGRAACNPR9071
012020042802CHCM34      010CHARTER COMMDRN          R$  000000005577400000000557740000000055774000000005577400000000557740000000000000000000000000000001000000000000000500000000000027887000000000000000009999123100000010000000000000BRCHCMBDR001100
012020042802CHKE34      010CHESAPEAKE  DRN          R$  000000001778000000000177800000000016880000000001764200000000170000000000013000000000002640000007000000000000000370000000000006527600000000000000009999123100000010000000000000BRCHKEBDR001101
012020042802CHME34      010CME GROUP   DRN          R$  000000002539700000000253970000000025397000000002539700000000253970000000000000000000000000000001000000000000000300000000000007619100000000000000009999123100000010000000000000BRCHMEBDR007104
012020042802CHVX34      010CHEVRON     DRN          R$  000000002522100000000252210000000024919000000002512000000000249190000000021500000000000000000006000000000000002740000000000068830160000000000000009999123100000010000000000000BRCHVXBDR008136
012020042802CIEL3       010CIELO       ON      NM   R$  000000000042400000000004450000000000415000000000042800000000004180000000000418000000000041933778000000000028103700000000012035903500000000000000009999123100000010000000000000BRCIELACNOR3142
012020042802CINF34      010CINCINNATI  DRN          R$  000000002040000000000204000000000020000000000002017900000000200000000000000000000000000000000005000000000000000190000000000003834080000000000000009999123100000010000000000000BRCINFBDR000102
012020042802CLSC4       010CELESC      PN      N2   R$  000000000367500000000037800000000003572000000000369200000000037800000000003720000000000378100046000000000000006800000000000025109300000000000000009999123100000010000000000000BRCLSCACNPR3114
012020042802CMCS34      010COMCAST     DRN          R$  000000002132900000000213290000000021150000000002120600000000212560000000000000000000000000000005000000000000021690000000000459976940000000000000009999123100000010000000000000BRCMCSBDR008134
012020042802CMIG3       010CEMIG       ON      N1   R$  000000000091100000000009740000000000911000000000095100000000009650000000000965000000000096608879000000000002041600000000001942847700000000000000009999123100000010000000000000BRCMIGACNOR6223
012020042802CMIG4       010CEMIG       PN      N1   R$  000000000091600000000009530000000000901000000000092900000000009400000000000940000000000094131324000000000019474700000000018110347100000000000000009999123100000010000000000000BRCMIGACNPR3224
012020042802CNIC34      010CANAD NATIONDRN          R$  000000002295100000000229510000000022951000000002295100000000229510000000000000000000000000000001000000000000000200000000000004590200000000000000009999123100000010000000000000BRCNICBDR007103
012020042802CNTO3       010CENTAURO    ON      NM   R$  000000000295200000000033090000000002926000000000313000000000032400000000003235000000000324313851000000000003349000000000010482842900000000000000009999123100000010000000000000BRCNTOACNOR5100
012020042802COCA34      010COCA COLA   DRN          R$  000000002594100000000260540000000025941000000002603900000000260540000000024000000000000000000002000000000000009200000000000239561200000000000000009999123100000010000000000000BRCOCABDR002134
012020042802COCE5       010COELCE      PNA          R$  000000000478500000000050010000000004701000000000483800000000050010000000005000000000000517900178000000000000035800000000000173235700000000000000009999123100000010000000000000BRCOCEACNPA3139
012020042802COGN3       010COGNA ON    ON      NM   R$  000000000047600000000005050000000000465000000000048200000000004980000000000498000000000049947473000000000060940400000000029391480900000000000000009999123100000010000000000000BRCOGNACNOR2101
012020042802COPH34      010COPHILLIPS  DRN          R$  000000000530500000000053050000000005305000000000530500000000053050000000004000000000000000000001000000000000000700000000000003713500000000000000009999123100000010000000000000BRCOPHBDR009133
012020042802COWC34      010COSTCO      DRN          R$  000000004374000000000437400000000042550000000004273700000000425500000000033969000000000000000005000000000000000620000000000026497120000000000000009999123100000010000000000000BRCOWCBDR006117
012020042802CPFE3       010CPFL ENERGIAON      NM   R$  000000000302500000000030950000000002985000000000303700000000030700000000003058000000000307016385000000000005118800000000015547413200000000000000009999123100000010000000000000BRCPFEACNOR0129
012020042802CPLE3       010COPEL       ON      N1   R$  000000000537700000000055380000000005358000000000544100000000054430000000005443000000000544701998000000000000332100000000001807023000000000000000009999123100000010000000000000BRCPLEACNOR8139
012020042802CPLE6       010COPEL       PNB     N1   R$  000000000559000000000057980000000005549000000000564500000000055660000000005566000000000563307151000000000001326900000000007491199200000000000000009999123100000010000000000000BRCPLEACNPB9136
012020042802CPRE3       010CPFL RENOVAVON      NM   R$  000000000162000000000016330000000001600000000000160700000000016220000000001620000000000180000009000000000000001800000000000002893500000000000000009999123100000010000000000000BRCPREACNOR5102
012020042802CRDE3       010CR2         ON           R$  000000000247900000000024790000000002479000000000247900000000024790000000002020000000000247500001000000000000000100000000000000247900000000000000009999123100000010000000000000BRCRDEACNOR1111
012020042802CRFB3       010CARREFOUR BRON      NM   R$  000000000206200000000020860000000001961000000000199600000000019820000000001980000000000198214957000000000006293800000000012566229400000000000000009999123100000010000000000000BRCRFBACNOR2105
012020042802CRIP34      010CTRIPCOM    DRN          R$  000000001396000000000139600000000013960000000001396000000000139600000000000000000000000000000001000000000000000010000000000000139600000000000000009999123100000010000000000000BRCRIPBDR000100
012020042802CRIV3       010ALFA FINANC ON           R$  000000000057500000000006490000000000553000000000060500000000005530000000000551000000000060000165000000000000037300000000000022601500000000000000009999123100000010000000000000BRCRIVACNOR4194
012020042802CRIV4       010ALFA FINANC PN           R$  000000000059000000000006100000000000582000000000059600000000005820000000000582000000000059800009000000000000003000000000000001788200000000000000009999123100000010000000000000BRCRIVACNPR1203
012020042802CRPG5       010CRISTAL     PNA          R$  000000000229400000000023000000000002248000000000227200000000023000000000002300000000000230500062000000000000014600000000000033180400000000000000009999123100000010000000000000BRCRPGACNPA3107
012020042802CRPG6       010CRISTAL     PNB          R$  000000000229000000000023000000000002290000000000229600000000023000000000002300000000000249700003000000000000000300000000000000689000000000000000009999123100000010000000000000BRCRPGACNPB1107
012020042802CSAN3       010COSAN       ON      NM   R$  000000000611500000000062690000000005929000000000610700000000062000000000006200000000000620509644000000000001628100000000009944057300000000000000009999123100000010000000000000BRCSANACNOR6119
012020042802CSCO34      010CISCO       DRN          R$  000000002407800000000240780000000023850000000002407600000000238500000000000000000000000000000002000000000000001310000000000031539900000000000000009999123100000010000000000000BRCSCOBDR004137
012020042802CSMG3       010COPASA      ON      NM   R$  000000000499200000000050270000000004812000000000490400000000049000000000004900000000000491704806000000000000889700000000004363131600000000000000009999123100000010000000000000BRCSMGACNOR5155
012020042802CSNA3       010SID NACIONALON           R$  000000000075000000000008000000000000745000000000077800000000007810000000000780000000000078128085000000000019016300000000014800273200000000000000009999123100000010000000000000BRCSNAACNOR6251
012020042802CSXC34      010CSX CORP    DRN          R$  000000001880000000000188000000000018800000000001880000000000188000000000000000000000000000000001000000000000000200000000000003760000000000000000009999123100000010000000000000BRCSXCBDR005103
012020042802CTGP34      010CITIGROUP   DRN          R$  000000002658000000000265800000000026293000000002637700000000262930000000000000000000000000000002000000000000000340000000000008968320000000000000009999123100000010000000000000BRCTGPBDR000137
012020042802CTKA4       010KARSTEN     PN           R$  000000000086000000000008600000000000860000000000086000000000008600000000000845000000000095000001000000000000000100000000000000086000000000000000009999123100000010000000000000BRCTKAACNPR7043
012020042802CTNM3       010COTEMINAS   ON           R$  000000000070000000000007100000000000700000000000070300000000007100000000000700000000000076000002000000000000000800000000000000563000000000000000009999123100000010000000000000BRCTNMACNOR9130
012020042802CTNM4       010COTEMINAS   PN           R$  000000000048600000000005140000000000486000000000050300000000005140000000000504000000000051400055000000000000010800000000000005442100000000000000009999123100000010000000000000BRCTNMACNPR6129
012020042802CTSA3       010SANTANENSE  ON           R$  000000000043000000000004350000000000428000000000043000000000004280000000000427000000000043000009000000000000001400000000000000603200000000000000009999123100000010000000000000BRCTSAACNOR3059
012020042802CTSA4       010SANTANENSE  PN           R$  000000000045000000000004700000000000450000000000046000000000004700000000000410000000000046900002000000000000000200000000000000092000000000000000009999123100000010000000000000BRCTSAACNPR0059
012020042802CTSH34      010COGNIZANT   DRN          R$  000000003200000000000320000000000031550000000003176500000000315500000000000000000000000000000004000000000000000500000000000015882700000000000000009999123100000010000000000000BRCTSHBDR002112
012020042802CVCB3       010CVC BRASIL  ON      NM   R$  000000000127000000000014390000000001242000000000134700000000014150000000001415000000000141719134000000000007082600000000009541743600000000000000009999123100000010000000000000BRCVCBACNOR1112
012020042802CVSH34      010CVS HEALTH  DRN ED       R$  000000001770000000000177000000000017380000000001747400000000173800000000011200000000000000000005000000000000000350000000000006116200000000000000009999123100000010000000000000BRCVSHBDR008116
012020042802CYRE3       010CYRELA REALTON      NM   R$  000000000147500000000016090000000001445000000000151500000000016060000000001600000000000160636415000000000013113800000000019870038000000000000000009999123100000010000000000000BRCYREACNOR7133
012020042802D1OM34      010DOMINION ENEDRN          R$  000000002225500000000222550000000022255000000002225500000000222550000000000000000000000000000001000000000000000500000000000011127500000000000000009999123100000010000000000000BRD1OMBDR006101
012020042802DASA3       010DASA        ON           R$  000000000671500000000067150000000006715000000000671500000000067150000000006720000000000720000001000000000000000100000000000000671500000000000000009999123100000010000000000000BRDASAACNOR1119
012020042802DDNB34      010DUPONT N INCDRN          R$  000000002522100000000252210000000025221000000002522100000000252210000000000000000000000000000001000000000000001500000000000037831500000000000000009999123100000010000000000000BRDDNBBDR008103
012020042802DEOP34      010DIAGEO PL   DRN          R$  000000007625000000000762500000000076250000000007625000000000762500000000000000000000000000000001000000000000000200000000000015250000000000000000009999123100000010000000000000BRDEOPBDR004101
012020042802DGCO34      010DOLLAR GENERDRN          R$  000000004931400000000493140000000049314000000004931400000000493140000000000000000000000000000001000000000000000100000000000004931400000000000000009999123100000010000000000000BRDGCOBDR007104
012020042802DHER34      010DANAHER CORPDRN          R$  000000002284600000000228460000000022846000000002284600000000228460000000000000000000000000000001000000000000000100000000000002284600000000000000009999123100000010000000000000BRDHERBDR004120
012020042802DIRR3       010DIRECIONAL  ON      NM   R$  000000000086000000000009380000000000843000000000088700000000009140000000000914000000000091804452000000000001545200000000001372028100000000000000009999123100000010000000000000BRDIRRACNOR0112
012020042802DISB34      010WALT DISNEY DRN          R$  000000006120000000000616000000000058895000000005901100000000590170000000058100000000000000000020000000000000013150000000000776005120000000000000009999123100000010000000000000BRDISBBDR006114
012020042802DIVO11      010IT NOW IDIV CI           R$  000000000491000000000050380000000004901000000000500000000000049900000000004990000000000503000131000000000000153600000000000768111660000000000000009999123100000010000000000000BRDIVOCTF002100
012020042802DMMO3       010DOMMO       ON           R$  000000000013600000000001440000000000123000000000013200000000001280000000000128000000000012907933000000000016661300000000002209284000000000000000009999123100000010000000000000BRDMMOACNOR0102
012020042802DOHL4       010DOHLER      PN           R$  000000000059500000000006000000000000581000000000058700000000006000000000000551000000000060000007000000000000001600000000000000940000000000000000009999123100000010000000000000BRDOHLACNPR9060
012020042802DTCY3       010DTCOM-DIRECTON           R$  000000000053000000000005300000000000530000000000053000000000005300000000000500000000000055000001000000000000000200000000000000106000000000000000009999123100000010000000000000BRDTCYACNOR5109
012020042802DTEX3       010DURATEX     ON      NM   R$  000000000096200000000010310000000000945000000000099900000000010100000000001010000000000101812029000000000004204900000000004201796900000000000000009999123100000010000000000000BRDTEXACNOR3128
012020042802DUKB34      010DUKE ENERGY DRN          R$  000000004850900000000485090000000048509000000004850900000000485090000000000000000000000000000001000000000000000100000000000004850900000000000000009999123100000010000000000000BRDUKBBDR008114
012020042802E1OG34      010EOG RESOURCEDRN          R$  000000001261900000000126190000000012619000000001261900000000126190000000000000000000000000000001000000000000000400000000000005047600000000000000009999123100000010000000000000BRE1OGBDR007102
012020042802E1XC34      010EXELON CORP DRN          R$  000000002083200000000208320000000020832000000002083200000000208320000000000000000000000000000001000000000000000400000000000008332800000000000000009999123100000010000000000000BRE1XCBDR007101
012020042802EALT3       010ACO ALTONA  ON           R$  000000000108200000000011500000000001047000000000109300000000011000000000001100000000000116000029000000000000003800000000000004156300000000000000009999123100000010000000000000BREALTACNOR4132
012020042802EALT4       010ACO ALTONA  PN           R$  000000000034600000000003530000000000341000000000034300000000003410000000000341000000000034200078000000000000034200000000000011756000000000000000009999123100000010000000000000BREALTACNPR1132
012020042802EBAY34      010EBAY        DRN          R$  000000001092800000000109280000000010800000000001092500000000108000000000000000000000000000000003000000000000000620000000000006773800000000000000009999123100000010000000000000BREBAYBDR009106
012020042802ECOO11      010ISHARES ECOOCI           R$  000000000859600000000086270000000008596000000000860200000000086270000000008599000000000900000004000000000000000090000000000000774230000000000000009999123100000010000000000000BRECOOCTF008100
012020042802ECOR3       010ECORODOVIAS ON      NM   R$  000000000110800000000011250000000001072000000000109100000000010840000000001084000000000108615612000000000005119200000000005589779600000000000000009999123100000010000000000000BRECORACNOR8116
012020042802EGIE3       010ENGIE BRASILON      NM   R$  000000000408500000000041010000000004007000000000404100000000040260000000004026000000000403007482000000000001288200000000005206584200000000000000009999123100000010000000000000BREGIEACNOR9112
012020042802ELEK4       010ELEKEIROZ   PN           R$  000000000190000000000019800000000001900000000000195500000000019800000000001900000000000198000007000000000000000800000000000001564100000000000000009999123100000010000000000000BRELEKACNPR2125
012020042802ELET3       010ELETROBRAS  ON      N1   R$  000000000236500000000024470000000002316000000000236200000000023900000000002383000000000239030677000000000007496500000000017710355800000000000000009999123100000010000000000000BRELETACNOR6154
012020042802ELET6       010ELETROBRAS  PNB     N1   R$  000000000273600000000027880000000002653000000000270700000000027320000000002722000000000273218398000000000004159100000000011262505700000000000000009999123100000010000000000000BRELETACNPB7071
012020042802EMAE4       010EMAE        PN  ED       R$  000000000282800000000028900000000002801000000000285700000000028760000000002821000000000287600038000000000000008700000000000024857400000000000000009999123100000010000000000000BREMAEACNPR1114
012020042802EMBR3       010EMBRAER     ON      NM   R$  000000000079300000000008350000000000773000000000081000000000008170000000000817000000000081841023000000000019524200000000015824732800000000000000009999123100000010000000000000BREMBRACNOR4189
012020042802ENAT3       010ENAUTA PART ON  ED  NM   R$  000000000090600000000009200000000000877000000000089200000000008800000000000880000000000088106557000000000001649500000000001471603000000000000000009999123100000010000000000000BRENATACNOR0101
012020042802ENBR3       010ENERGIAS BR ON      NM   R$  000000000170000000000017450000000001687000000000171500000000016870000000001687000000000170407571000000000001705000000000002925010700000000000000009999123100000010000000000000BRENBRACNOR2129
012020042802ENEV3       010ENEVA       ON      NM   R$  000000000371700000000037360000000003590000000000365800000000036340000000003634000000000363807113000000000001428700000000005227399100000000000000009999123100000010000000000000BRENEVACNOR8104
012020042802ENGI3       010ENERGISA    ON      N2   R$  000000000123100000000012310000000001204000000000122100000000012090000000001204000000000122500032000000000000003700000000000004518400000000000000009999123100000010000000000000BRENGIACNOR0137
012020042802ENGI4       010ENERGISA    PN      N2   R$  000000000084000000000008850000000000818000000000083800000000008850000000000806000000000088500055000000000000010000000000000008382900000000000000009999123100000010000000000000BRENGIACNPR7133
012020042802ENGI11      010ENERGISA    UNT     N2   R$  000000000460000000000046500000000004482000000000456900000000046500000000004590000000000465008403000000000001965600000000008982372600000000000000009999123100000010000000000000BRENGICDAM16127
012020042802ENMT3       010ENERGISA MT ON           R$  000000000267000000000027560000000002600000000000266600000000027560000000000000000000000275600023000000000000003100000000000008265600000000000000009999123100000010000000000000BRENMTACNOR5111
012020042802ENMT4       010ENERGISA MT PN           R$  000000000267000000000027000000000002600000000000264100000000026990000000002572000000000269900027000000000000005000000000000013206000000000000000009999123100000010000000000000BRENMTACNPR2114
012020042802EQIX34      010EQUINIX INC DRN          R$  000000007736900000000773690000000077080000000007717600000000770800000000000000000000000000000002000000000000000300000000000023152900000000000000009999123100000010000000000000BREQIXBDR002104
012020042802EQPA3       010EQTL PARA   ON           R$  000000000031100000000003110000000000302000000000030700000000003080000000000306000000000030700036000000000000015500000000000004762600000000000000009999123100000010000000000000BREQPAACNOR1100
012020042802EQTL3       010EQUATORIAL  ON      NM   R$  000000000195000000000019560000000001877000000000190300000000019090000000001904000000000190924123000000000006981200000000013287015500000000000000009999123100000010000000000000BREQTLACNOR0125
012020042802EUCA3       010EUCATEX     ON      N1   R$  000000000150800000000015300000000001442000000000150800000000015040000000001488000000000150400076000000000000025500000000000038455300000000000000009999123100000010000000000000BREUCAACNOR1151
012020042802EUCA4       010EUCATEX     PN      N1   R$  000000000047600000000004980000000000460000000000048100000000004980000000000481000000000049800207000000000000101200000000000048727200000000000000009999123100000010000000000000BREUCAACNPR8038
012020042802EVEN3       010EVEN        ON      NM   R$  000000000068000000000007260000000000671000000000069500000000007260000000000721000000000072607148000000000001655800000000001151154000000000000000009999123100000010000000000000BREVENACNOR8111
012020042802EXGR34      010EXPEDIA GROUDRN          R$  000000001980000000000199200000000019760000000001986300000000198800000000000000000000000000000005000000000000000600000000000011918000000000000000009999123100000010000000000000BREXGRBDR004103
012020042802EXXO34      010EXXON MOBIL DRN          R$  000000000625000000000062600000000006250000000000625900000000062600000000005500000000000739000003000000000000009080000000000056840500000000000000009999123100000010000000000000BREXXOBDR006138
012020042802EZTC3       010EZTEC       ON      NM   R$  000000000313100000000033400000000003092000000000322300000000033400000000003314000000000334409184000000000002087600000000006728637200000000000000009999123100000010000000000000BREZTCACNOR0113
012020042802F1EC34      010FIRSTENERGY DRN          R$  000000002377900000000237790000000023779000000002377900000000237790000000000000000000000000000001000000000000008000000000000190232000000000000000009999123100000010000000000000BRF1ECBDR006101
012020042802F1IS34      010FISERV INC  DRN          R$  000000002748400000000274840000000027484000000002748400000000274840000000000000000000000000000001000000000000000200000000000005496800000000000000009999123100000010000000000000BRF1ISBDR003100
012020042802F1NI34      010FIDELITY NATDRN          R$  000000001789000000000178900000000017840000000001785400000000178400000000000000000000000000000003000000000000000700000000000012498000000000000000009999123100000010000000000000BRF1NIBDR004101
012020042802FASL34      010FASTENAL    DRN ED       R$  000000002048000000000204800000000020480000000002048000000000204800000000000000000000000000000001000000000000000030000000000000614400000000000000009999123100000010000000000000BRFASLBDR007105
012020042802FBOK34      010FACEBOOK    DRN          R$  000000005208000000000520800000000050500000000005072300000000505000000000041000000000005500000021000000000000033910000000001720040600000000000000009999123100000010000000000000BRFBOKBDR006100
012020042802FCCQ11      010FIP CONQUESTCI           R$  000000000038200000000003820000000000382000000000038200000000003820000000000300000000000038100001000000000000000001000000000000000382000000000000009999123100000010000000000000BRFCCQCTF005100
012020042802FESA4       010FERBASA     PN      N1   R$  000000000164200000000016920000000001620000000000166300000000016920000000001679000000000169201113000000000000377000000000000626961700000000000000009999123100000010000000000000BRFESAACNPR5066
012020042802FIND11      010IT NOW IFNC CI           R$  000000000833000000000083900000000008291000000000830800000000083150000000008015000000000839000014000000000000005460000000000045365070000000000000009999123100000010000000000000BRFINDCTF007100
012020042802FLRY3       010FLEURY      ON      NM   R$  000000000239400000000024140000000002341000000000236900000000023410000000002341000000000235810742000000000001792400000000004246815300000000000000009999123100000010000000000000BRFLRYACNOR5127
012020042802FMXB34      010FEMSA       DRN          R$  000000003354000000000335400000000033540000000003354000000000335400000000000000000000000000000001000000000000000160000000000005366400000000000000009999123100000010000000000000BRFMXBBDR003104
012020042802FNAM11      010FINAM       CI *         R$  000000000001200000000000140000000000012000000000001300000000000140000000000013000000000001400196000000000420133000000000000005467674000000000000009999123100010000000000000000BRFNAMCTF013002
012020042802FNOR11      010FINOR       CI *         R$  000000000001800000000000190000000000018000000000001800000000000190000000000018000000000001900047000000000036088000000000000000650091000000000000009999123100010000000000000000BRFNORCTF013002
012020042802FPOR11      010FIP PORT SUDCI           R$  000000000050000000000005000000000000500000000000050000000000005000000000000263000000000050000001000000000000000001000000000000000500000000000000009999123100000010000000000000BRFPORCTF000101
012020042802FRAS3       010FRAS-LE     ON      N1   R$  000000000038700000000004000000000000386000000000039200000000003950000000000391000000000039500188000000000000062400000000000024509200000000000000009999123100000010000000000000BRFRASACNOR0149
012020042802FSPE11      010FISET PESCA CI           R$  000000000004500000000000450000000000045000000000004500000000000450000000000036000000000004500001000000000000001000000000000000045000000000000000009999123100000010000000000000BRFSPECTF017002
012020042802FSRF11      010FISET FL REFCI           R$  000000000002200000000000230000000000022000000000002200000000000230000000000022000000000002300026000000000000120000000000000002660000000000000000009999123100000010000000000000BRFSRFCTF010002
012020042802FSTU11      010FISET TUR   CI           R$  000000000003500000000000360000000000035000000000003500000000000360000000000035000000000003600002000000000000002000000000000000071000000000000000009999123100000010000000000000BRFSTUCTF015002
012020042802GBIO33      010BIOTOSCANA  DR3          R$  000000000099400000000009940000000000985000000000099000000000009940000000000985000000000099400396000000000000055200000000000054652800000000000000009999123100000010000000000000BRGBIOBDR008100
012020042802GEOO34      010GE          DRN          R$  000000000373800000000038150000000003738000000000379900000000038150000000000000000000000579000003000000000000003390000000000012880730000000000000009999123100000010000000000000BRGEOOBDR000139
012020042802GEPA4       010GER PARANAP PN           R$  000000000449000000000044900000000004325000000000440700000000043250000000004324000000000442600011000000000000001500000000000006611500000000000000009999123100000010000000000000BRGEPAACNPR9152
012020042802GFSA3       010GAFISA      ON      NM   R$  000000000038600000000003950000000000377000000000038700000000003890000000000389000000000039003625000000000002561600000000000992701600000000000000009999123100000010000000000000BRGFSAACNOR3117
012020042802GGBR3       010GERDAU      ON      N1   R$  000000000102500000000010580000000001025000000000103700000000010340000000001029000000000103600354000000000000118100000000000122569600000000000000009999123100000010000000000000BRGGBRACNOR1173
012020042802GGBR4       010GERDAU      PN      N1   R$  000000000119500000000012120000000001159000000000119300000000011980000000001197000000000119830596000000000021919700000000026152616200000000000000009999123100000010000000000000BRGGBRACNPR8173
012020042802GILD34      010GILEAD      DRN          R$  000000002217000000000221700000000021903000000002191900000000219030000000018500000000002193000003000000000000000320000000000007014300000000000000009999123100000010000000000000BRGILDBDR000116
012020042802GMCO34      010GENERAL MOT DRN          R$  000000001271600000000127160000000012716000000001271600000000127160000000000000000000000000000001000000000000000400000000000005086400000000000000009999123100000010000000000000BRGMCOBDR008115
012020042802GNDI3       010INTERMEDICA ON      NM   R$  000000000556800000000057370000000005514000000000561600000000056000000000005596000000000560016646000000000003351200000000018820932600000000000000009999123100000010000000000000BRGNDIACNOR2102
012020042802GOAU3       010GERDAU MET  ON      N1   R$  000000000047500000000004850000000000467000000000047900000000004790000000000479000000000048500213000000000000082400000000000039519700000000000000009999123100000010000000000000BRGOAUACNOR1250
012020042802GOAU4       010GERDAU MET  PN      N1   R$  000000000052000000000005360000000000511000000000052500000000005270000000000526000000000052720650000000000016390800000000008617541600000000000000009999123100000010000000000000BRGOAUACNPR8251
012020042802GOGL34      010ALPHABET    DRN A        R$  000000002868000000000288000000000027100000000002716600000000274060000000027360000000002933000113000000000000100170000000002721309980000000000000009999123100000010000000000000BRGOGLBDR001100
012020042802GOGL35      010ALPHABET    DRN C        R$  000000002880000000000288000000000027424000000002808000000000274540000000026700000000002745400006000000000000002580000000000072447380000000000000009999123100000010000000000000BRGOGLBDR019100
012020042802GOLL4       010GOL         PN      N2   R$  000000000113600000000012330000000001108000000000117600000000012190000000001219000000000122023429000000000010695900000000012584376300000000000000009999123100000010000000000000BRGOLLACNPR4125
012020042802GOVE11      010IT NOW IGCT CI           R$  000000000350000000000035870000000003500000000000356400000000035870000000003587000000000420000004000000000000000130000000000000463390000000000000009999123100000010000000000000BRGOVECTF004100
012020042802GPIV33      010GP INVEST   DR3          R$  000000000040000000000004100000000000391000000000040100000000004000000000000395000000000040000082000000000000063200000000000025370900000000000000009999123100000010000000000000BRGPIVBDR003104
012020042802GPRO34      010GOPRO       DRN          R$  000000000183400000000018340000000001834000000000183400000000018340000000000000000000000000000001000000000000000100000000000000183400000000000000009999123100000010000000000000BRGPROBDR009100
012020042802GRND3       010GRENDENE    ON      NM   R$  000000000074000000000007570000000000732000000000074300000000007410000000000741000000000074804603000000000001401300000000001041620700000000000000009999123100000010000000000000BRGRNDACNOR3157
012020042802GSGI34      010GOLDMANSACHSDRN          R$  000000001042900000000104290000000010429000000001042900000000104290000000008750000000000000000001000000000000000900000000000009386100000000000000009999123100000010000000000000BRGSGIBDR008138
012020042802GUAR3       010GUARARAPES  ON           R$  000000000122200000000013250000000001185000000000125600000000013030000000001303000000000130808059000000000001768700000000002222295400000000000000009999123100000010000000000000BRGUARACNOR4165
012020042802H1CA34      010HCA HEALTHCADRN          R$  000000003087100000000308710000000030871000000003087100000000308710000000000000000000000000000001000000000000000100000000000003087100000000000000009999123100000010000000000000BRH1CABDR002101
012020042802HAGA3       010HAGA S/A    ON           R$  000000000037500000000003800000000000375000000000037500000000003750000000000375000000000038000010000000000000002900000000000001089900000000000000009999123100000010000000000000BRHAGAACNOR7103
012020042802HAGA4       010HAGA S/A    PN           R$  000000000018100000000001880000000000181000000000018600000000001880000000000187000000000018800026000000000000012400000000000002316300000000000000009999123100000010000000000000BRHAGAACNPR4103
012020042802HAPV3       010HAPVIDA     ON      NM   R$  000000000530000000000055790000000005300000000000545200000000053420000000005333000000000534213050000000000002361200000000012874688300000000000000009999123100000010000000000000BRHAPVACNOR4104
012020042802HBOR3       010HELBOR      ON      NM   R$  000000000019100000000002000000000000187000000000019200000000001930000000000193000000000019517490000000000017187500000000003309126900000000000000009999123100000010000000000000BRHBORACNOR3113
012020042802HBTS5       010HABITASUL   PNA          R$  000000000090100000000009010000000000901000000000090100000000009010000000000856000000000104900001000000000000000100000000000000090100000000000000009999123100000010000000000000BRHBTSACNPA3123
012020042802HETA4       010HERCULES    PN           R$  000000000044000000000004800000000000425000000000046100000000004260000000000425000000000045500024000000000000003700000000000001707000000000000000009999123100000010000000000000BRHETAACNPR9136
012020042802HGTX3       010CIA HERING  ON      NM   R$  000000000140200000000015420000000001388000000000148300000000015290000000001529000000000153012293000000000005233600000000007765732600000000000000009999123100000010000000000000BRHGTXACNOR9150
012020042802HOME34      010HOME DEPOT  DRN          R$  000000006092500000000609250000000060000000000006036200000000600170000000000000000000000000000007000000000000001300000000000078471000000000000000009999123100000010000000000000BRHOMEBDR002132
012020042802HONB34      010HONEYWELL   DRN          R$  000000008019900000000801990000000079688000000007999600000000799000000000000000000000000000000005000000000000000600000000000047997900000000000000009999123100000010000000000000BRHONBBDR006125
012020042802HOND34      010HONDA MO    DRN          R$  000000001294000000000129400000000012940000000001294000000000129400000000000000000000000000000001000000000000000900000000000011646000000000000000009999123100000010000000000000BRHONDBDR002102
012020042802HYPE3       010HYPERA      ON      NM   R$  000000000297000000000030100000000002877000000000292700000000029250000000002900000000000292514534000000000003103300000000009084234100000000000000009999123100000010000000000000BRHYPEACNOR0121
012020042802IBMB34      010IBM         DRN          R$  000000007108300000000710830000000070000000000007077300000000700000000000000000000000000000000002000000000000000280000000000019816600000000000000009999123100000010000000000000BRIBMBBDR003133
012020042802IDNT3       010IDEIASNET   ON           R$  000000000029700000000003000000000000280000000000028600000000002860000000000284000000000028600193000000000000116500000000000033341500000000000000009999123100000010000000000000BRIDNTACNOR5113
012020042802IDVL3       010INDUSVAL    ON      N2   R$  000000000019200000000001920000000000177000000000018000000000001780000000000178000000000018100056000000000000035900000000000006464400000000000000009999123100000010000000000000BRIDVLACNOR5130
012020042802IDVL4       010INDUSVAL    PN      N2   R$  000000000026500000000002650000000000251000000000025700000000002640000000000252000000000026300018000000000000003000000000000000772000000000000000009999123100000010000000000000BRIDVLACNPR2130
012020042802IGTA3       010IGUATEMI    ON      NM   R$  000000000347600000000035320000000003337000000000344400000000035320000000003482000000000353313643000000000002106900000000007257689200000000000000009999123100000010000000000000BRIGTAACNOR5123
012020042802INGG34      010ING GROEP   DRN          R$  000000000307500000000030750000000003075000000000307500000000030750000000000000000000000000000001000000000000001900000000000005842500000000000000009999123100000010000000000000BRINGGBDR009100
012020042802IRBR3       010IRBBRASIL REON      NM   R$  000000000095900000000009750000000000891000000000091400000000009000000000000900000000000090158566000000000035358500000000032342637600000000000000009999123100000010000000000000BRIRBRACNOR4106
012020042802ISUS11      010IT NOW ISE  CI           R$  000000000314000000000031610000000003140000000000315200000000031500000000002850000000000419500004000000000000000130000000000000409880000000000000009999123100000010000000000000BRISUSCTF003100
012020042802ITLC34      010INTEL       DRN          R$  000000003273000000000327850000000032723000000003273400000000327850000000000000000000000000000005000000000000002280000000000074634450000000000000009999123100000010000000000000BRITLCBDR005137
012020042802ITSA3       010ITAUSA      ON      N1   R$  000000000104600000000010970000000001032000000000107500000000010750000000001075000000000109301420000000000000423200000000000455343900000000000000009999123100000010000000000000BRITSAACNOR0398
012020042802ITSA4       010ITAUSA      PN      N1   R$  000000000091000000000009350000000000905000000000092100000000009280000000000927000000000092840855000000000034780000000000032053595000000000000000009999123100000010000000000000BRITSAACNPR7398
012020042802ITUB3       010ITAUUNIBANCOON      N1   R$  000000000212900000000022700000000002128000000000223300000000022480000000002248000000000225004716000000000001128800000000002520827800000000000000009999123100000010000000000000BRITUBACNOR4267
012020042802ITUB4       010ITAUUNIBANCOPN      N1   R$  000000000229800000000023610000000002259000000000231600000000023350000000002335000000000233606118000000000058267500000000134971753900000000000000009999123100000010000000000000BRITUBACNPR1267
012020042802IVVB11      010ISHARE SP500CI           R$  000000001760000000000176500000000016951000000001718100000000170150000000017015000000001704002272000000000000682720000000011730258820000000000000009999123100000010000000000000BRIVVBCTF001100
012020042802JBDU3       010J B DUARTE  ON           R$  000000000018600000000001980000000000185000000000018900000000001880000000000186000000000018800035000000000000016100000000000003047900000000000000009999123100000010000000000000BRJBDUACNOR6142
012020042802JBDU4       010J B DUARTE  PN           R$  000000000013000000000001300000000000126000000000012700000000001260000000000126000000000012900030000000000000012300000000000001570700000000000000009999123100000010000000000000BRJBDUACNPR3142
012020042802JBSS3       010JBS         ON      NM   R$  000000000240900000000024470000000002345000000000240300000000023920000000002392000000000239354180000000000026826500000000064486346400000000000000009999123100000010000000000000BRJBSSACNOR8114
012020042802JCPC34      010JC PENNEY   DRN          R$  000000000015800000000001580000000000158000000000015800000000001580000000000120000000000018200022000000000000032000000000000005056000000000000000009999123100000010000000000000BRJCPCBDR000100
012020042802JDCO34      010JD COM      DRN          R$  000000002441000000000244100000000024410000000002441000000000244100000000000000000000000000000001000000000000000400000000000009764000000000000000009999123100000010000000000000BRJDCOBDR001100
012020042802JFEN3       010JOAO FORTES ON           R$  000000000027900000000003010000000000271000000000028600000000002850000000000285000000000028800474000000000000215300000000000061763900000000000000009999123100000010000000000000BRJFENACNOR0057
012020042802JHSF3       010JHSF PART   ON      NM   R$  000000000042500000000004560000000000416000000000043200000000004420000000000442000000000044309129000000000008796800000000003803716500000000000000009999123100000010000000000000BRJHSFACNOR2115
012020042802JNJB34      010JOHNSON     DRN          R$  000000008440000000000856000000000083970000000008411300000000843810000000059769000000000000000009000000000000002020000000000169909620000000000000009999123100000010000000000000BRJNJBBDR002133
012020042802JOPA4       010JOSAPAR     PN           R$  000000000260000000000026000000000002600000000000260000000000026000000000001700000000000000000001000000000000000100000000000000260000000000000000009999123100000010000000000000BRJOPAACNPR2130
012020042802JPMC34      010JPMORGAN    DRN          R$  000000002676000000000267600000000026350000000002655400000000265060000000026270000000002800000014000000000000002670000000000070899880000000000000009999123100000010000000000000BRJPMCBDR009133
012020042802JPSA3       010JEREISSATI  ON           R$  000000000232300000000023240000000002234000000000228100000000022910000000002290000000000229901117000000000000228600000000000521612100000000000000009999123100000010000000000000BRJPSAACNOR6102
012020042802JSLG3       010JSL         ON      NM   R$  000000000183100000000019100000000001808000000000185500000000018830000000001880000000000188402377000000000000686700000000001274355100000000000000009999123100000010000000000000BRJSLGACNOR2113
012020042802KEPL3       010KEPLER WEBERON  ED       R$  000000000242900000000025500000000002428000000000250300000000025490000000002501000000000254900269000000000000076000000000000190302900000000000000009999123100000010000000000000BRKEPLACNOR1049
012020042802KHCB34      010KRAFT HEINZ DRN          R$  000000001690000000000169000000000016900000000001690000000000169000000000015000000000000000000001000000000000000100000000000001690000000000000000009999123100000010000000000000BRKHCBBDR007119
012020042802KLBN3       010KLABIN S/A  ON      N2   R$  000000000037500000000003800000000000340000000000036600000000003610000000000360000000000036100930000000000000313700000000000115013000000000000000009999123100000010000000000000BRKLBNACNOR2156
012020042802KLBN4       010KLABIN S/A  PN      N2   R$  000000000035900000000003640000000000351000000000035500000000003540000000000354000000000035502979000000000001785400000000000635006300000000000000009999123100000010000000000000BRKLBNACNPR9156
012020042802KLBN11      010KLABIN S/A  UNT     N2   R$  000000000181900000000018320000000001761000000000178700000000017940000000001775000000000179418924000000000005911200000000010568093700000000000000009999123100000010000000000000BRKLBNCDAM18128
012020042802KMBB34      010KIMBERLY CL DRN          R$  000000007825000000000782500000000078250000000007825000000000782500000000000000000000000000000001000000000000000200000000000015650000000000000000009999123100000010000000000000BRKMBBBDR009119
012020042802LAME3       010LOJAS AMERICON      N1   R$  000000000194800000000019860000000001893000000000194000000000019700000000001970000000000197114186000000000004290900000000008325742800000000000000009999123100000010000000000000BRLAMEACNOR9202
012020042802LAME4       010LOJAS AMERICPN      N1   R$  000000000243800000000025650000000002426000000000250400000000025190000000002519000000000252040496000000000009947500000000024915493100000000000000009999123100000010000000000000BRLAMEACNPR6202
012020042802LCAM3       010LOCAMERICA  ON      NM   R$  000000000136500000000014280000000001338000000000138800000000014130000000001412000000000141306626000000000001718700000000002386239100000000000000009999123100000010000000000000BRLCAMACNOR3132
012020042802LEVE3       010METAL LEVE  ON      NM   R$  000000000176200000000018430000000001762000000000179800000000017830000000001783000000000179001837000000000000376900000000000677866200000000000000009999123100000010000000000000BRLEVEACNOR2187
012020042802LIGT3       010LIGHT S/A   ON      NM   R$  000000000108600000000011460000000001068000000000111300000000011210000000001121000000000112812767000000000004178200000000004652981500000000000000009999123100000010000000000000BRLIGTACNOR2120
012020042802LILY34      010LILLY       DRN          R$  000000004398400000000439840000000043984000000004398400000000439840000000000000000000000000000001000000000000001600000000000070374400000000000000009999123100000010000000000000BRLILYBDR006132
012020042802LINX3       010LINX        ON      NM   R$  000000000222500000000023970000000002214000000000233300000000023260000000002322000000000232607087000000000001494200000000003487045600000000000000009999123100000010000000000000BRLINXACNOR0117
012020042802LLIS3       010LE LIS BLANCON      NM   R$  000000000061500000000006300000000000603000000000061500000000006280000000000621000000000062800416000000000000180600000000000111124500000000000000009999123100000010000000000000BRLLISACNOR4113
012020042802LOGG3       010LOG COM PROPON      NM   R$  000000000233400000000023640000000002261000000000232100000000023640000000002343000000000236601707000000000000334100000000000775650900000000000000009999123100000010000000000000BRLOGGACNOR7102
012020042802LOGN3       010LOG-IN      ON      NM   R$  000000000140200000000014320000000001361000000000139300000000013840000000001383000000000138404065000000000001377100000000001918805500000000000000009999123100000010000000000000BRLOGNACNOR3104
012020042802LOWC34      010LOWES COMPA DRN ED       R$  000000002876900000000287690000000028769000000002876900000000287690000000000000000000000000000001000000000000001000000000000028769000000000000000009999123100000010000000000000BRLOWCBDR007104
012020042802LPSB3       010LOPES BRASILON      NM   R$  000000000042000000000004300000000000394000000000041200000000004150000000000415000000000041602341000000000001255900000000000517616700000000000000009999123100000010000000000000BRLPSBACNOR0111
012020042802LREN3       010LOJAS RENNERON      NM   R$  000000000398600000000041080000000003980000000000405300000000040220000000004022000000000403035924000000000010221900000000041432548300000000000000009999123100000010000000000000BRLRENACNOR1201
012020042802LWSA3       010LOCAWEB     ON      NM   R$  000000000241800000000024540000000002370000000000239700000000023700000000002365000000000237006276000000000001670800000000004005224400000000000000009999123100000010000000000000BRLWSAACNOR8100
012020042802MACY34      010MACY S      DRN          R$  000000000350000000000035000000000003370000000000342600000000033700000000000000000000000350000006000000000000002000000000000006853240000000000000009999123100000010000000000000BRMACYBDR000116
012020042802MATB11      010IT NOW IMAT CI           R$  000000000280000000000028000000000002770000000000278000000000027750000000002630000000000280000013000000000000001550000000000004310060000000000000009999123100000010000000000000BRMATBCTF001100
012020042802MCDC34      010MCDONALDS   DRN          R$  000000002652000000000265200000000025700000000002580900000000257480000000013000000000000000000004000000000000000870000000000022454000000000000000009999123100000010000000000000BRMCDCBDR000138
012020042802MCOR34      010MOODYS CORP DRN          R$  000000003526900000000352690000000035269000000003526900000000352690000000000000000000000000000001000000000000000300000000000010580700000000000000009999123100000010000000000000BRMCORBDR005103
012020042802MDIA3       010M.DIASBRANCOON      NM   R$  000000000323300000000032900000000003117000000000318400000000031810000000003140000000000318103410000000000000777100000000002475008000000000000000009999123100000010000000000000BRMDIAACNOR7118
012020042802MDLZ34      010MONDELEZ INTDRN          R$  000000001423200000000142320000000014232000000001423200000000142320000000000000000000000000000001000000000000000700000000000009962400000000000000009999123100000010000000000000BRMDLZBDR002119
012020042802MDNE3       010MOURA DUBEUXON      NM   R$  000000000061000000000006750000000000595000000000063000000000006650000000000660000000000066504383000000000001252200000000000789123300000000000000009999123100000010000000000000BRMDNEACNOR9100
012020042802MDTC34      010MEDTRONIC   DRN          R$  000000002775200000000277520000000027752000000002775200000000277520000000000000000000000000000001000000000000001300000000000036077600000000000000009999123100000010000000000000BRMDTCBDR004116
012020042802MEAL3       010IMC S/A     ON      NM   R$  000000000032000000000003250000000000289000000000030100000000002990000000000298000000000029910569000000000008995400000000002710675500000000000000009999123100000010000000000000BRMEALACNOR9105
012020042802MELI34      010MERCADOLIBREDRN          R$  000000003385500000000338550000000032256000000003302100000000331500000000032000000000003350000043000000000000009410000000000310728760000000000000009999123100000010000000000000BRMELIBDR006100
012020042802MERC4       010MERC FINANC PN           R$  000000000097500000000009750000000000932000000000094900000000009370000000000920000000000097500024000000000000006100000000000005793300000000000000009999123100000010000000000000BRMERCACNPR9173
012020042802METB34      010METLIFE INC DRN          R$  000000001958300000000195830000000019583000000001958300000000195830000000000000000000000000000001000000000000000300000000000005874900000000000000009999123100000010000000000000BRMETBBDR004119
012020042802MGEL4       010MANGELS INDLPN           R$  000000000055000000000005800000000000550000000000056400000000005800000000000510000000000057500004000000000000000400000000000000225900000000000000009999123100000010000000000000BRMGELACNPR3147
012020042802MGLU3       010MAGAZ LUIZA ON      NM   R$  000000000510000000000051800000000005015000000000510100000000051800000000005176000000000518050354000000000014486800000000073897852400000000000000009999123100000010000000000000BRMGLUACNOR2115
012020042802MILS3       010MILLS       ON      NM   R$  000000000052500000000005350000000000504000000000052000000000005190000000000519000000000052002613000000000001016100000000000528738200000000000000009999123100000010000000000000BRMILSACNOR2112
012020042802MMMC34      0103M          DRN          R$  000000002230000000000223010000000022300000000002230000000000223010000000020500000000000000000003000000000000001030000000000022970000000000000000009999123100000010000000000000BRMMMCBDR000132
012020042802MNDL3       010MUNDIAL     ON           R$  000000000242900000000024400000000002260000000000236500000000024300000000002100000000000245000039000000000000007200000000000017030300000000000000009999123100000010000000000000BRMNDLACNOR4107
012020042802MNPR3       010MINUPAR     ON           R$  000000000043900000000004430000000000418000000000043800000000004430000000000416000000000044000013000000000000002200000000000000965400000000000000009999123100000010000000000000BRMNPRACNOR5122
012020042802MOAR3       010MONT ARANHA ON           R$  000000001440000000000144000000000014400000000001440000000000144000000000012200000000001400000001000000000000000200000000000002880000000000000000009999123100000010000000000000BRMOARACNOR5211
012020042802MOOO34      010ALTRIA GROUPDRN          R$  000000002250000000000225000000000022500000000002250000000000225000000000000000000000000000000001000000000000000800000000000018000000000000000000009999123100000010000000000000BRMOOOBDR007103
012020042802MOVI3       010MOVIDA      ON      NM   R$  000000000111400000000011380000000001067000000000110100000000011380000000001137000000000113811076000000000003719900000000004098786500000000000000009999123100000010000000000000BRMOVIACNOR0111
012020042802MRCK34      010MERCK       DRN          R$  000000004539000000000453900000000044900000000004514000000000450970000000044000000000000000000006000000000000001090000000000049203600000000000000009999123100000010000000000000BRMRCKBDR003138
012020042802MRFG3       010MARFRIG     ON      NM   R$  000000000118000000000012550000000001175000000000122500000000012540000000001247000000000125445499000000000020795300000000025477532600000000000000009999123100000010000000000000BRMRFGACNOR0109
012020042802MRVE3       010MRV         ON      NM   R$  000000000141500000000014820000000001393000000000144900000000014770000000001468000000000147721060000000000006775600000000009818135200000000000000009999123100000010000000000000BRMRVEACNOR2120
012020042802MSCD34      010MASTERCARD  DRN          R$  000000014730000000001473000000000146528000000014670600000001465280000000000000000000000000000002000000000000000130000000000019071800000000000000009999123100000010000000000000BRMSCDBDR006136
012020042802MSFT34      010MICROSOFT   DRN          R$  000000009861000000000986100000000094000000000009486200000000943180000000093600000000009800000035000000000000003570000000000338660690000000000000009999123100000010000000000000BRMSFTBDR005137
012020042802MTRE3       010MITRE REALTYON      NM   R$  000000000109100000000011200000000001035000000000106500000000010700000000001070000000000108902487000000000000421000000000000448474400000000000000009999123100000010000000000000BRMTREACNOR6100
012020042802MTSA4       010METISA      PN           R$  000000000156000000000016500000000001530000000000155900000000015580000000001530000000000155800039000000000000007000000000000010916400000000000000009999123100000010000000000000BRMTSAACNPR9055
012020042802MULT3       010MULTIPLAN   ON      N2   R$  000000000216200000000022020000000002077000000000213500000000021760000000002170000000000217639349000000000007645700000000016327591600000000000000009999123100000010000000000000BRMULTACNOR5127
012020042802MUTC34      010MICRON TECHNDRN          R$  000000002544900000000254490000000025116000000002527100000000251160000000000000000000000000000002000000000000001500000000000037907100000000000000009999123100000010000000000000BRMUTCBDR008100
012020042802MYPK3       010IOCHP-MAXIONON      NM   R$  000000000130000000000013250000000001252000000000127600000000012620000000001261000000000126207508000000000002110600000000002694110300000000000000009999123100000010000000000000BRMYPKACNOR7148
012020042802N1CL34      010NORWEGIAN CRDRN          R$  000000000701900000000070600000000007019000000000702000000000070600000000006500000000000800000003000000000000000310000000000002176300000000000000009999123100000010000000000000BRN1CLBDR001100
012020042802N1EM34      010NEWMONT GOLDDRN          R$  000000003440000000000344000000000034400000000003440000000000344000000000033500000000000000000001000000000000000300000000000010320000000000000000009999123100000010000000000000BRN1EMBDR005101
012020042802NEOE3       010NEOENERGIA  ON      NM   R$  000000000190000000000019290000000001817000000000184600000000018520000000001852000000000185316603000000000004316600000000007972600200000000000000009999123100000010000000000000BRNEOEACNOR3110
012020042802NEXT34      010NEXTERA ENERDRN          R$  000000003312000000000333270000000033120000000003332200000000333270000000000000000000000000000002000000000000005100000000000169947000000000000000009999123100000010000000000000BRNEXTBDR006103
012020042802NFLX34      010NETFLIX     DRN          R$  000000022680000000002268000000000223621000000022532200000002236210000000000000000000022720000006000000000000000550000000000123927600000000000000009999123100000010000000000000BRNFLXBDR000101
012020042802NIKE34      010NIKE        DRN          R$  000000004987000000000498700000000049870000000004987000000000498700000000030000000000000000000001000000000000000200000000000009974000000000000000009999123100000010000000000000BRNIKEBDR006137
012020042802NMRH34      010NOMURA HO   DRN          R$  000000000265200000000026520000000002301000000000244100000000023010000000000000000000000000000002000000000000000050000000000000122070000000000000009999123100000010000000000000BRNMRHBDR006101
012020042802NORD3       010NORDON MET  ON           R$  000000000035000000000004250000000000350000000000038900000000004100000000000356000000000041000042000000000000005400000000000002102400000000000000009999123100000010000000000000BRNORDACNOR7135
012020042802NTCO3       010GRUPO NATURAON      NM   R$  000000000359900000000036350000000003462000000000351200000000035060000000003495000000000350643042000000000009973600000000035033570100000000000000009999123100000010000000000000BRNTCOACNOR5100
012020042802NVDC34      010NVIDIA CORP DRN          R$  000000004194000000000419400000000040565000000004106700000000405650000000000000000000000000000004000000000000002400000000000098562500000000000000009999123100000010000000000000BRNVDCBDR008104
012020042802ODPV3       010ODONTOPREV  ON      NM   R$  000000000157600000000016800000000001555000000000163200000000016300000000001629000000000164612509000000000002695600000000004399325800000000000000009999123100000010000000000000BRODPVACNOR4174
012020042802OFSA3       010OUROFINO S/AON      NM   R$  000000000265000000000027760000000002620000000000266200000000026350000000002635000000000264700097000000000000014000000000000037268100000000000000009999123100000010000000000000BROFSAACNOR7109
012020042802OMGE3       010OMEGA GER   ON      NM   R$  000000000305000000000030730000000002990000000000304000000000030630000000003063000000000307001857000000000000313600000000000953460700000000000000009999123100000010000000000000BROMGEACNOR0101
012020042802ORCL34      010ORACLE      DRN          R$  000000002978800000000297880000000029450000000002968800000000296400000000000000000000000000000003000000000000000740000000000021969600000000000000009999123100000010000000000000BRORCLBDR007133
012020042802OXYP34      010OCCIDENT PTRDRN          R$  000000000403800000000040380000000004038000000000403800000000040380000000000000000000000000000001000000000000000100000000000000403800000000000000009999123100000010000000000000BROXYPBDR000103
012020042802P1SX34      010PHILLIPS 66 DRN          R$  000000001854000000000185400000000018540000000001854000000000185400000000000000000000000000000001000000000000000500000000000009270000000000000000009999123100000010000000000000BRP1SXBDR000101
012020042802PARD3       010IHPARDINI   ON      NM   R$  000000000200000000000021290000000002000000000000206300000000020500000000002050000000000206802451000000000000580200000000001197049200000000000000009999123100000010000000000000BRPARDACNOR1113
012020042802PATI3       010PANATLANTICAON           R$  000000000209800000000020980000000001950000000000203300000000020050000000002000000000000209800004000000000000000400000000000000813300000000000000009999123100000010000000000000BRPATIACNOR6059
012020042802PCAR3       010P.ACUCAR-CBDON      NM   R$  000000000700000000000071150000000006689000000000676900000000067040000000006703000000000670511024000000000001930500000000013068376300000000000000009999123100000010000000000000BRPCARACNOR3162
012020042802PEAB3       010PAR AL BAHIAON           R$  000000000530000000000054500000000005300000000000539900000000054470000000005450000000000560000003000000000000000300000000000001619700000000000000009999123100000010000000000000BRPEABACNOR3123
012020042802PEPB34      010PEPSICO INC DRN          R$  000000007556400000000755640000000074773000000007516800000000747730000000000000000000000000000002000000000000000800000000000060134800000000000000009999123100000010000000000000BRPEPBBDR005130
012020042802PETR3       010PETROBRAS   ON      N2   R$  000000000174900000000018020000000001711000000000176500000000018020000000001800000000000180234940000000000024004700000000042384742700000000000000009999123100000010000000000000BRPETRACNOR9190
012020042802PETR4       010PETROBRAS   PN      N2   R$  000000000170400000000017250000000001663000000000170100000000017250000000001723000000000172508544000000000091613600000000155910580300000000000000009999123100000010000000000000BRPETRACNPR6196
012020042802PFIN11      010FIP PERFIN  CI           R$  000000000985000000000102000000000009810000000001002600000000099000000000009900000000001005000025000000000000005558000000000055727310000000000000009999123100000010000000000000BRPFINCTF001100
012020042802PFIZ34      010PFIZER      DRN          R$  000000002110000000000211000000000020900000000002104800000000210350000000016100000000000000000011000000000000002030000000000042729050000000000000009999123100000010000000000000BRPFIZBDR006138
012020042802PFRM3       010PROFARMA    ON      NM   R$  000000000046500000000004820000000000441000000000046000000000004580000000000458000000000046001520000000000000583300000000000268445500000000000000009999123100000010000000000000BRPFRMACNOR1112
012020042802PGCO34      010PG          DRN ED       R$  000000006487400000000650830000000064330000000006483700000000650830000000000000000000000000000004000000000000001610000000000104388730000000000000009999123100000010000000000000BRPGCOBDR001138
012020042802PHMO34      010PHILIP MORRIDRN          R$  000000002154900000000215490000000021549000000002154900000000215490000000000000000000000000000001000000000000001700000000000036633300000000000000009999123100000010000000000000BRPHMOBDR008112
012020042802PIBB11      010IT NOW PIBB CI           R$  000000001322600000000139440000000013226000000001360300000000137000000000013576000000001370000528000000000000136200000000001852851530000000000000009999123100000010000000000000BRPIBBCTF005101
012020042802PINE4       010PINE        PN      N2   R$  000000000029700000000003020000000000283000000000029000000000002840000000000284000000000028800938000000000000680700000000000197568100000000000000009999123100000010000000000000BRPINEACNPR8144
012020042802PLAS3       010PLASCAR PARTON           R$  000000000044000000000004400000000000436000000000043900000000004360000000000422000000000048000002000000000000001000000000000000439600000000000000009999123100000010000000000000BRPLASACNOR2106
012020042802PMAM3       010PARANAPANEMAON      NM   R$  000000000114000000000012400000000001135000000000118400000000012400000000001223000000000124100699000000000000234100000000000277243500000000000000009999123100000010000000000000BRPMAMACNOR3037
012020042802PNCS34      010PNCFNANCIAL DRN          R$  000000002973100000000297310000000029731000000002973100000000297310000000000000000000000000000001000000000000000500000000000014865500000000000000009999123100000010000000000000BRPNCSBDR008104
012020042802PNVL3       010DIMED       ON           R$  000000000243100000000024720000000002310000000000239000000000023500000000002350000000000238000363000000000000087400000000000208907400000000000000009999123100000010000000000000BRPNVLACNOR9196
012020042802PNVL4       010DIMED       PN           R$  000000000194300000000019430000000001821000000000183900000000018220000000001822000000000186800059000000000000014700000000000027043600000000000000009999123100000010000000000000BRPNVLACNPR6196
012020042802POMO3       010MARCOPOLO   ON      N2   R$  000000000028600000000002940000000000280000000000028600000000002800000000000280000000000028400740000000000000363500000000000104118800000000000000009999123100000010000000000000BRPOMOACNOR0087
012020042802POMO4       010MARCOPOLO   PN      N2   R$  000000000029900000000003040000000000285000000000029100000000002860000000000286000000000028708887000000000009140600000000002663409600000000000000009999123100000010000000000000BRPOMOACNPR7087
012020042802POSI3       010POSITIVO TECON      NM   R$  000000000036400000000003700000000000352000000000035800000000003570000000000356000000000035705566000000000004684000000000001680462100000000000000009999123100000010000000000000BRPOSIACNOR9111
012020042802PPLA11      010PPLA        UNT          R$  000000000144800000000014500000000001331000000000137800000000013900000000001353000000000139300038000000000000006800000000000009374600000000000000009999123100000010000000000000BRPPLAUNT007101
012020042802PRIO3       010PETRORIO    ON      NM   R$  000000000194800000000022000000000001904000000000207400000000021790000000002170000000000217919132000000000006907600000000014326849000000000000000009999123100000010000000000000BRPRIOACNOR1102
012020042802PRNR3       010PRINER      ON      NM   R$  000000000081000000000008290000000000801000000000080900000000008040000000000804000000000080500514000000000000137300000000000111114300000000000000009999123100000010000000000000BRPRNRACNOR4105
012020042802PSSA3       010PORTO SEGUROON      NM   R$  000000000452100000000046080000000004480000000000455000000000045050000000004505000000000451003707000000000000564400000000002568447900000000000000009999123100000010000000000000BRPSSAACNOR7141
012020042802PTBL3       010PORTOBELLO  ON      NM   R$  000000000026300000000002730000000000251000000000026300000000002650000000000265000000000026702634000000000001833300000000000482197500000000000000009999123100000010000000000000BRPTBLACNOR8124
012020042802PTNT4       010PETTENATI   PN           R$  000000000040000000000004000000000000388000000000039100000000003920000000000392000000000039300060000000000000011200000000000004384800000000000000009999123100000010000000000000BRPTNTACNPR3044
012020042802PYPL34      010PAYPAL HOLD DRN          R$  000000003297000000000329700000000032873000000003291200000000328730000000000000000000000000000006000000000000000940000000000030937300000000000000009999123100000010000000000000BRPYPLBDR002101
012020042802QCOM34      010QUALCOMM    DRN          R$  000000004265800000000426580000000042180000000004245300000000421800000000000000000000000000000003000000000000000700000000000029717200000000000000009999123100000010000000000000BRQCOMBDR007133
012020042802QUAL3       010QUALICORP   ON      NM   R$  000000000256500000000026340000000002547000000000258100000000025610000000002561000000000257412645000000000002775200000000007163900200000000000000009999123100000010000000000000BRQUALACNOR6112
012020042802R1OP34      010ROPER TECHNODRN          R$  000000001868000000000186800000000018680000000001868000000000186800000000000000000000000000000001000000000000000080000000000001494400000000000000009999123100000010000000000000BRR1OPBDR003101
012020042802RADL3       010RAIADROGASILON      NM   R$  000000001085700000000110550000000010722000000001088400000000110550000000010974000000001105509004000000000001516100000000016502430300000000000000009999123100000010000000000000BRRADLACNOR0135
012020042802RAIL3       010RUMO S.A.   ON      NM   R$  000000000212100000000021240000000002018000000000205800000000020200000000002019000000000202124226000000000008265200000000017012590100000000000000009999123100000010000000000000BRRAILACNOR9101
012020042802RANI3       010IRANI       ON           R$  000000000032500000000003400000000000307000000000032000000000003100000000000309000000000032000056000000000000019800000000000006345000000000000000009999123100000010000000000000BRRANIACNOR5051
012020042802RANI4       010IRANI       PN           R$  000000000054000000000005700000000000510000000000052500000000005300000000000511000000000054700043000000000000009300000000000004887900000000000000009999123100000010000000000000BRRANIACNPR2052
012020042802RAPT3       010RANDON PART ON      N1   R$  000000000072900000000007450000000000710000000000073400000000007440000000000740000000000074400045000000000000013000000000000009551400000000000000009999123100000010000000000000BRRAPTACNOR7152
012020042802RAPT4       010RANDON PART PN      N1   R$  000000000082000000000008580000000000805000000000083300000000008520000000000849000000000085209776000000000005852900000000004875890500000000000000009999123100000010000000000000BRRAPTACNPR4152
012020042802RCSL3       010RECRUSUL    ON           R$  000000000021300000000002150000000000195000000000020400000000002040000000000200000000000020400107000000000000045200000000000009222100000000000000009999123100000010000000000000BRRCSLACNOR4130
012020042802RCSL4       010RECRUSUL    PN           R$  000000000013900000000001480000000000136000000000014100000000001380000000000138000000000013902975000000000001230100000000000174097900000000000000009999123100000010000000000000BRRCSLACNPR1130
012020042802RDNI3       010RNI         ON  ED  NM   R$  000000000073000000000007300000000000719000000000072600000000007290000000000704000000000072900019000000000000009800000000000007115000000000000000009999123100000010000000000000BRRDNIACNOR9113
012020042802RDSA34      010RD SHELL    DRN          R$  000000002016000000000201600000000019800000000002015200000000198000000000000000000000000000000003000000000000000510000000000010278000000000000000009999123100000010000000000000BRRDSABDR009102
012020042802REDE3       010REDE ENERGIAON           R$  000000000100200000000010020000000001000000000000100000000000010020000000000995000000000100200004000000000000000700000000000000700600000000000000009999123100000010000000000000BRREDEACNOR7114
012020042802REGN34      010REGENERON PHDRN          R$  000000005950000000000598120000000059500000000005980100000000598120000000000000000000000000000002000000000000000310000000000018538600000000000000009999123100000010000000000000BRREGNBDR005100
012020042802RENT3       010LOCALIZA    ON      NM   R$  000000000348500000000035300000000003302000000000342000000000035200000000003515000000000352034790000000000008541000000000029211908800000000000000009999123100000010000000000000BRRENTACNOR4177
012020042802RIGG34      010TRANSOCEAN  DRN          R$  000000000048800000000005060000000000474000000000049300000000005060000000000495000000000053000016000000000000003650000000000001802520000000000000009999123100000010000000000000BRRIGGBDR000100
012020042802RIOT34      010RIO TINTO   DRN          R$  000000002637900000000263790000000026379000000002637900000000263790000000000000000000000000000001000000000000000600000000000015827400000000000000009999123100000010000000000000BRRIOTBDR007101
012020042802RLOG3       010COSAN LOG   ON      NM   R$  000000000166400000000016730000000001575000000000161400000000015810000000001581000000000158501667000000000000355700000000000574250900000000000000009999123100000010000000000000BRRLOGACNOR4106
012020042802ROMI3       010INDS ROMI   ON      NM   R$  000000000102100000000010210000000000980000000000099600000000009950000000000995000000000100000726000000000000157900000000000157353700000000000000009999123100000010000000000000BRROMIACNOR8172
012020042802ROST34      010ROSS STORES DRN          R$  000000002562100000000256210000000025621000000002562100000000256210000000000000000000000000000001000000000000000500000000000012810500000000000000009999123100000010000000000000BRROSTBDR006116
012020042802RPAD3       010ALFA HOLDINGON           R$  000000000051100000000005180000000000511000000000051100000000005180000000000506000000000051800005000000000000002300000000000001176700000000000000009999123100000010000000000000BRRPADACNOR1197
012020042802RSID3       010ROSSI RESID ON      NM   R$  000000000041500000000004150000000000387000000000040200000000004110000000000395000000000041100286000000000000087100000000000035032800000000000000009999123100000010000000000000BRRSIDACNOR8119
012020042802RYTT34      010RAYTHEONTECHDRN          R$  000000003597000000000359700000000035970000000003597000000000359700000000000000000000000000000001000000000000000010000000000000359700000000000000009999123100000010000000000000BRRYTTBDR003100
