00COTAHIST.2020BOVESPA 20200504                                                                                                                                                                                                                      
012020050402A1DI34      010ANALOG DEVICDRN          R$  000000002834500000000283450000000028345000000002834500000000283450000000000000000000000000000001000000000000000010000000000000283450000000000000009999123100000010000000000000BRA1DIBDR000101
012020050402A1EP34      010AMERICAN ELEDRN          R$  000000002288000000000230210000000022880000000002288000000000230210000000000000000000000000000002000000000000005510000000000126070210000000000000009999123100000010000000000000BRA1EPBDR003101
012020050402A1KA34      010AKAMAI TECHNDRN          R$  000000002675300000000267530000000026753000000002675300000000267530000000000000000000000000000001000000000000001260000000000033708780000000000000009999123100000010000000000000BRA1KABDR002100
012020050402A1MD34      010ADVANCED MICDRN          R$  000000002811000000000281100000000028110000000002811000000000281100000000000000000000003200000001000000000000000050000000000001405500000000000000009999123100000010000000000000BRA1MDBDR002100
012020050402A1MT34      010APPLIED MATEDRN          R$  000000002604400000000260440000000026044000000002604400000000260440000000000000000000000000000001000000000000000800000000000020835200000000000000009999123100000010000000000000BRA1MTBDR008101
012020050402A1PH34      010AMPHENOL CORDRN          R$  000000002325000000000232500000000023250000000002325000000000232500000000000000000000000000000001000000000000000010000000000000232500000000000000009999123100000010000000000000BRA1PHBDR006101
012020050402A1RE34      010ALEXANDRIA RDRN          R$  000000002062000000000206200000000020620000000002062000000000206200000000000000000000000000000002000000000000000050000000000001031000000000000000009999123100000010000000000000BRA1REBDR009101
012020050402AALL34      010AMERICAN AIRDRN          R$  000000000540000000000054300000000005300000000000537900000000054300000000005330000000000620000028000000000000004580000000000024640100000000000000009999123100000010000000000000BRAALLBDR003115
012020050402AALR3       010ALLIAR      ON  ED  NM   R$  000000000101900000000010190000000000952000000000098100000000009750000000000972000000000097501757000000000000477900000000000469016300000000000000009999123100000010000000000000BRAALRACNOR6102
012020050402AAPL34      010APPLE       DRN          R$  000000001590900000000162600000000015909000000001614300000000161700000000015980000000001625900046000000000000015340000000000247642500000000000000009999123100000010000000000000BRAAPLBDR004132
012020050402ABBV34      010ABBVIE      DRN          R$  000000004518000000000451800000000045180000000004518000000000451800000000000000000000000000000001000000000000000030000000000001355400000000000000009999123100000010000000000000BRABBVBDR001117
012020050402ABCB4       010ABC BRASIL  PN      N2   R$  000000000140500000000014050000000001333000000000135100000000013390000000001339000000000135603960000000000000669300000000000904413100000000000000009999123100000010000000000000BRABCBACNPR4133
012020050402ABEV3       010AMBEV S/A   ON           R$  000000000111400000000011840000000001110000000000115200000000011760000000001176000000000117741834000000000030157800000000034759420300000000000000009999123100000010000000000000BRABEVACNOR1122
012020050402ABTT34      010ABBOTT      DRN          R$  000000001250700000000125070000000012507000000001250700000000125070000000000000000000001256000001000000000000000110000000000001375770000000000000009999123100000010000000000000BRABTTBDR007134
012020050402ABUD34      010AB INBEV    DRN          R$  000000002351400000000235140000000023356000000002350900000000233560000000000000000000000000000002000000000000001100000000000025860660000000000000009999123100000010000000000000BRABUDBDR009101
012020050402ACNB34      010ACCENTURE   DRN          R$  000000009950600000000995060000000099506000000009950600000000995060000000000000000000000000000001000000000000000010000000000000995060000000000000009999123100000010000000000000BRACNBBDR006111
012020050402ADBE34      010ADOBE INC   DRN          R$  000000003859900000000386900000000038599000000003860100000000386900000000000000000000000000000002000000000000000690000000000026635130000000000000009999123100000010000000000000BRADBEBDR003100
012020050402ADHM3       010ADVANCED-DH ON           R$  000000000024000000000002530000000000238000000000024200000000002380000000000240000000000024300078000000000000037700000000000009140200000000000000009999123100000010000000000000BRADHMACNOR9102
012020050402ADPR34      010AUTOMATIC DTDRN          R$  000000004016200000000401620000000040162000000004016200000000401620000000000000000000000000000001000000000000000010000000000000401620000000000000009999123100000010000000000000BRADPRBDR005103
012020050402AFLT3       010AFLUENTE T  ON           R$  000000000068300000000006850000000000649000000000066300000000006640000000000661000000000066400028000000000000004700000000000003116300000000000000009999123100000010000000000000BRAFLTACNOR1114
012020050402AGRO3       010BRASILAGRO  ON      NM   R$  000000000208500000000020850000000002010000000000204400000000020650000000002050000000000206500962000000000000199700000000000408248400000000000000009999123100000010000000000000BRAGROACNOR7109
012020050402ALPA3       010ALPARGATAS  ON      N1   R$  000000000220000000000022000000000002116000000000215800000000021160000000002134000000000220000002000000000000000200000000000000431600000000000000009999123100000010000000000000BRALPAACNOR0229
012020050402ALPA4       010ALPARGATAS  PN      N1   R$  000000000265500000000027220000000002576000000000263000000000026400000000002636000000000264107309000000000001309800000000003446033300000000000000009999123100000010000000000000BRALPAACNPR7229
012020050402ALSO3       010ALIANSCSONAEON      NM   R$  000000000270000000000027000000000002533000000000261600000000026200000000002620000000000262508661000000000003017000000000007894459900000000000000009999123100000010000000000000BRALSOACNOR5100
012020050402ALUP3       010ALUPAR      ON  ED  N2   R$  000000000096800000000009880000000000907000000000095700000000009880000000000988000000000099000177000000000000030500000000000029192100000000000000009999123100000010000000000000BRALUPACNOR8111
012020050402ALUP4       010ALUPAR      PN  ED  N2   R$  000000000063700000000006510000000000629000000000063500000000006310000000000631000000000064600198000000000000042500000000000026992400000000000000009999123100000010000000000000BRALUPACNPR5111
012020050402ALUP11      010ALUPAR      UNT ED  N2   R$  000000000222100000000022400000000002197000000000221300000000022400000000002230000000000224004705000000000000642200000000001421590800000000000000009999123100000010000000000000BRALUPCDAM15111
012020050402AMAR3       010LOJAS MARISAON      NM   R$  000000000061900000000006500000000000601000000000061500000000006150000000000615000000000061613672000000000008584400000000005280351700000000000000009999123100000010000000000000BRAMARACNOR4112
012020050402AMGN34      010AMGEN       DRN          R$  000000012819900000001283520000000127774000000012821000000001283520000000000000000000000000000003000000000000000230000000000029488320000000000000009999123100000010000000000000BRAMGNBDR004133
012020050402AMZO34      010AMAZON      DRN          R$  000000062780000000006470000000000627800000000063793800000006425000000000614200000000064800000013000000000000000540000000000344486960000000000000009999123100000010000000000000BRAMZOBDR002101
012020050402ANIM3       010ANIMA       ON      NM   R$  000000000222900000000022290000000002115000000000216600000000021690000000002146000000000216904455000000000000797300000000001727507200000000000000009999123100000010000000000000BRANIMACNOR6106
012020050402APER3       010ALPER S.A.  ON      NM   R$  000000000179500000000018500000000001720000000000179600000000017990000000001792000000000179900165000000000000029800000000000053530600000000000000009999123100000010000000000000BRAPERACNOR9101
012020050402APTV34      010APTIV PLC   DRN          R$  000000001789900000000178990000000017899000000001789900000000178990000000000000000000000000000001000000000000001470000000000026311530000000000000009999123100000010000000000000BRAPTVBDR003102
012020050402ARZZ3       010AREZZO CO   ON      NM   R$  000000000413100000000041720000000004003000000000407800000000040900000000004088000000000409001770000000000000271200000000001105995600000000000000009999123100000010000000000000BRARZZACNOR3137
012020050402ATOM3       010ATOMPAR     ON           R$  000000000013400000000001340000000000130000000000013100000000001300000000000130000000000013200043000000000000027900000000000003680000000000000000009999123100000010000000000000BRATOMACNOR1103
012020050402ATTB34      010ATT INC     DRN          R$  000000001642000000000164800000000016420000000001642700000000164610000000016010000000000000000003000000000000000310000000000005092440000000000000009999123100000010000000000000BRATTBBDR007131
012020050402AVGO34      010BROADCOM INCDRN          R$  000000002866000000000288790000000028660000000002887700000000288790000000000000000000000000000002000000000000001410000000000040717200000000000000009999123100000010000000000000BRAVGOBDR003104
012020050402AXPB34      010AMERICAN EXPDRN          R$  000000004794600000000479460000000047507000000004794200000000475070000000047530000000000000000002000000000000001360000000000065202170000000000000009999123100000010000000000000BRAXPBBDR007132
012020050402AZEV3       010AZEVEDO     ON           R$  000000000036200000000003770000000000362000000000036600000000003650000000000365000000000037000019000000000000005400000000000001978900000000000000009999123100000010000000000000BRAZEVACNOR0117
012020050402AZEV4       010AZEVEDO     PN           R$  000000000027500000000002750000000000260000000000026900000000002750000000000265000000000027500024000000000000010400000000000002803600000000000000009999123100000010000000000000BRAZEVACNPR7117
012020050402AZUL4       010AZUL        PN      N2   R$  000000000159000000000016200000000001488000000000152600000000015160000000001515000000000151649105000000000019511800000000029779814800000000000000009999123100000010000000000000BRAZULACNPR4100
012020050402B1KR34      010BAKER HUGHESDRN          R$  000000000768600000000076860000000007686000000000768600000000076860000000000000000000000768600001000000000000000100000000000000768600000000000000009999123100000010000000000000BRB1KRBDR005101
012020050402B1SX34      010BOSTON SCIENDRN          R$  000000001989400000000198940000000019894000000001989400000000198940000000000000000000000000000001000000000000000010000000000000198940000000000000009999123100000010000000000000BRB1SXBDR006100
012020050402B3SA3       010B3          ON      NM   R$  000000000378700000000038800000000003770000000000381400000000038380000000003838000000000384336738000000000009890600000000037725515500000000000000009999123100000010000000000000BRB3SAACNOR6110
012020050402BABA34      010ALIBABAGR   DRN          R$  000000010539200000001053920000000105392000000010539200000001053920000000000000000000000000000001000000000000000010000000000001053920000000000000009999123100000010000000000000BRBABABDR005100
012020050402BALM4       010BAUMER      PN           R$  000000000100000000000010000000000000999000000000099900000000009990000000000955000000000099800002000000000000000200000000000000199900000000000000009999123100000010000000000000BRBALMACNPR2050
012020050402BAUH4       010EXCELSIOR   PN  ED       R$  000000000894900000000090000000000008949000000000895700000000090000000000008400000000000899900005000000000000000600000000000005374700000000000000009999123100000010000000000000BRBAUHACNPR3115
012020050402BAZA3       010AMAZONIA    ON           R$  000000000300000000000030500000000002970000000000303000000000030380000000002968000000000303900011000000000000002200000000000006666200000000000000009999123100000010000000000000BRBAZAACNOR0174
012020050402BBAS3       010BRASIL      ON      NM   R$  000000000273700000000027760000000002699000000000273900000000027760000000002776000000000277748483000000000016586000000000045438438200000000000000009999123100000010000000000000BRBBASACNOR3291
012020050402BBDC3       010BRADESCO    ON      N1   R$  000000000169600000000017050000000001648000000000167200000000016890000000001687000000000168918201000000000005964400000000009974907300000000000000009999123100000010000000000000BRBBDCACNOR1710
012020050402BBDC4       010BRADESCO    PN      N1   R$  000000000187100000000018740000000001808000000000182900000000018300000000001830000000000183191388000000000044358900000000081156665300000000000000009999123100000010000000000000BRBBDCACNPR8710
012020050402BBRK3       010BR BROKERS  ON      NM   R$  000000000023000000000002310000000000224000000000022700000000002260000000000226000000000022700284000000000000144100000000000032763700000000000000009999123100000010000000000000BRBBRKACNOR4113
012020050402BBSD11      010BB ETF SP DVCI           R$  000000000645100000000065290000000006450000000000648000000000064500000000006200000000000658900009000000000000000310000000000002009050000000000000009999123100000010000000000000BRBBSDCTF000100
012020050402BBSE3       010BBSEGURIDADEON      NM   R$  000000000254400000000025620000000002483000000000252100000000025300000000002528000000000253022434000000000005023800000000012667836700000000000000009999123100000010000000000000BRBBSEACNOR5116
012020050402BCSA34      010SANTANDER   DRN          R$  000000000118700000000011960000000001166000000000117600000000011700000000001160000000000117900043000000000000007940000000000009344500000000000000009999123100000010000000000000BRBCSABDR005101
012020050402BEEF3       010MINERVA     ON      NM   R$  000000000119900000000012740000000001185000000000124600000000012650000000001264000000000126533518000000000012665200000000015792398300000000000000009999123100000010000000000000BRBEEFACNOR6108
012020050402BEES3       010BANESTES    ON  EJ       R$  000000000049000000000005040000000000490000000000049900000000004980000000000497000000000050100097000000000000033300000000000016629400000000000000009999123100000010000000000000BRBEESACNOR9337
012020050402BEES4       010BANESTES    PN  EJ       R$  000000000049900000000005000000000000490000000000049400000000004990000000000499000000000050000046000000000000011300000000000005591800000000000000009999123100000010000000000000BRBEESACNPR6262
012020050402BERK34      010BERKSHIRE   DRN          R$  000000010010000000001002000000000098035000000009809300000000985500000000099999000000011240000024000000000000007510000000000736679430000000000000009999123100000010000000000000BRBERKBDR002100
012020050402BGIP4       010BANESE      PN           R$  000000000228000000000022800000000002222000000000223400000000022320000000002222000000000237000019000000000000003400000000000007596800000000000000009999123100000010000000000000BRBGIPACNPR8198
012020050402BHPG34      010BHP GROUP   DRN          R$  000000002157000000000215700000000021570000000002157000000000215700000000021000000000000000000001000000000000000020000000000000431400000000000000009999123100000010000000000000BRBHPGBDR007101
012020050402BIDI3       010BANCO INTER ON      N2   R$  000000000093200000000009320000000000892000000000090200000000009030000000000903000000000090501217000000000000444500000000000401123000000000000000009999123100000010000000000000BRBIDIACNOR3105
012020050402BIDI4       010BANCO INTER PN      N2   R$  000000000091300000000009190000000000886000000000090200000000009190000000000915000000000091905230000000000001894900000000001710718500000000000000009999123100000010000000000000BRBIDIACNPR0109
012020050402BIDI11      010BANCO INTER UNT     N2   R$  000000000268800000000027390000000002648000000000268600000000027190000000002710000000000271903495000000000001136200000000003052887900000000000000009999123100000010000000000000BRBIDICDAXX3104
012020050402BIIB34      010BIOGEN      DRN          R$  000000002734500000000273450000000027345000000002734500000000273450000000000000000000000000000001000000000000000020000000000000546900000000000000009999123100000010000000000000BRBIIBBDR001101
012020050402BIOM3       010BIOMM       ON      MA   R$  000000000097000000000010000000000000930000000000096900000000009910000000000961000000000099400035000000000000011300000000000010960400000000000000009999123100000010000000000000BRBIOMACNOR2107
012020050402BKBR3       010BK BRASIL   ON      NM   R$  000000000091000000000009440000000000885000000000092000000000009350000000000932000000000093505492000000000001057400000000000972923300000000000000009999123100000010000000000000BRBKBRACNOR4103
012020050402BKNG34      010BOOKING     DRN          R$  000000003192000000000319200000000031389000000003153700000000314690000000000000000000000000000005000000000000000050000000000001576880000000000000009999123100000010000000000000BRBKNGBDR006100
012020050402BLAK34      010BLACKROCK   DRN          R$  000000004400000000000446170000000044000000000004430800000000446170000000000000000000000000000002000000000000000020000000000000886170000000000000009999123100000010000000000000BRBLAKBDR003116
012020050402BMEB3       010MERC BRASIL ON           R$  000000000130000000000013000000000001300000000000130000000000013000000000001280000000000130500002000000000000000200000000000000260000000000000000009999123100000010000000000000BRBMEBACNOR8196
012020050402BMEB4       010MERC BRASIL PN           R$  000000000104500000000010700000000001015000000000105300000000010690000000001020000000000107000047000000000000009700000000000010218300000000000000009999123100000010000000000000BRBMEBACNPR5201
012020050402BMGB4       010BANCO BMG   PN      N1   R$  000000000047000000000004750000000000445000000000045900000000004670000000000466000000000046701879000000000000863600000000000397030400000000000000009999123100000010000000000000BRBMGBACNPR0101
012020050402BMIN3       010MERC INVEST ON           R$  000000000178000000000017900000000001670000000000173600000000017500000000001500000000000180000018000000000000001800000000000003125500000000000000009999123100000010000000000000BRBMINACNOR4168
012020050402BMKS3       010BIC MONARK  ON  ED       R$  000000001889900000000188990000000018899000000001889900000000188990000000017701000000001850000001000000000000000007000000000000132293000000000000009999123100000010000000000000BRBMKSACNOR9162
012020050402BMYB34      010BRISTOLMYERSDRN          R$  000000003333700000000333370000000033337000000003333700000000333370000000000000000000000000000001000000000000000030000000000001000110000000000000009999123100000010000000000000BRBMYBBDR000126
012020050402BOAC34      010BANK AMERICADRN          R$  000000001278000000000127800000000012703000000001273900000000127400000000010000000000000000000003000000000000001740000000000022166890000000000000009999123100000010000000000000BRBOACBDR004138
012020050402BOBR4       010BOMBRIL     PN           R$  000000000016700000000001710000000000157000000000016300000000001710000000000168000000000017100096000000000000039900000000000006525200000000000000009999123100000010000000000000BRBOBRACNPR3128
012020050402BOEI34      010BOEING      DRN          R$  000000007194600000000719460000000071946000000007194600000000719460000000000000000000000000000001000000000000000050000000000003597300000000000000009999123100000010000000000000BRBOEIBDR003132
012020050402BOVA11      010ISHARES BOVACI           R$  000000000751700000000076300000000007477000000000754400000000076100000000007610000000000761279102000000000010111650000000076283087530000000000000009999123100000010000000000000BRBOVACTF003104
012020050402BOVB11      010ETF BRAD BOVCI           R$  000000000780000000000079130000000007765000000000784200000000078950000000007811000000000789500134000000000000232640000000001824438870000000000000009999123100000010000000000000BRBOVBCTF001100
012020050402BOVV11      010IT NOW IBOV CI           R$  000000000786000000000079500000000007793000000000789200000000079250000000007925000000000798001903000000000001557260000000012291451800000000000000009999123100000010000000000000BRBOVVCTF009100
012020050402BPAC3       010BTGP BANCO  ON      N2   R$  000000000205100000000021490000000002049000000000211100000000020520000000002051000000000210000013000000000000001300000000000002744800000000000000009999123100000010000000000000BRBPACACNOR7121
012020050402BPAC5       010BTGP BANCO  PNA     N2   R$  000000000116200000000011620000000001110000000000113100000000011400000000001130000000000114000019000000000000005900000000000006674400000000000000009999123100000010000000000000BRBPACACNPA0121
012020050402BPAC11      010BTGP BANCO  UNT     N2   R$  000000000405900000000041800000000004000000000000408000000000041210000000004121000000000413610010000000000002476300000000010103398700000000000000009999123100000010000000000000BRBPACUNT006106
012020050402BPAN4       010BANCO PAN   PN      N1   R$  000000000049000000000004960000000000481000000000048900000000004930000000000492000000000049306356000000000002319100000000001135224500000000000000009999123100000010000000000000BRBPANACNPR1108
012020050402BRAP3       010BRADESPAR   ON      N1   R$  000000000257500000000025860000000002512000000000252700000000025530000000002502000000000255900394000000000000106400000000000268941100000000000000009999123100000010000000000000BRBRAPACNOR5136
012020050402BRAP4       010BRADESPAR   PN      N1   R$  000000000291200000000029560000000002878000000000290300000000028910000000002891000000000290008288000000000001525400000000004428407400000000000000009999123100000010000000000000BRBRAPACNPR2136
012020050402BRAX11      010ISHARES BRAXCI           R$  000000000652500000000065880000000006477000000000649300000000065880000000006493000000000667000012000000000000005590000000000036300520000000000000009999123100000010000000000000BRBRAXCTF002100
012020050402BRDT3       010PETROBRAS BRON      NM   R$  000000000189200000000019840000000001867000000000194100000000019570000000001957000000000195921379000000000005200900000000010098809300000000000000009999123100000010000000000000BRBRDTACNOR1119
012020050402BRFS3       010BRF SA      ON      NM   R$  000000000186100000000019090000000001815000000000184800000000018400000000001839000000000184027254000000000008738900000000016150426000000000000000009999123100000010000000000000BRBRFSACNOR8119
012020050402BRGE3       010ALFA CONSORCON           R$  000000000065000000000006900000000000650000000000067000000000006900000000000580000000000080000003000000000000000400000000000000268000000000000000009999123100000010000000000000BRBRGEACNOR6202
012020050402BRGE12      010ALFA CONSORCPNF          R$  000000000042200000000004220000000000422000000000042200000000004220000000000422000000000049900001000000000000000200000000000000084400000000000000009999123100000010000000000000BRBRGEACNPF8096
012020050402BRIV4       010ALFA INVEST PN           R$  000000000067600000000007400000000000648000000000067400000000007400000000000700000000000074000008000000000000001900000000000001281900000000000000009999123100000010000000000000BRBRIVACNPR3210
012020050402BRKM3       010BRASKEM     ON      N1   R$  000000000209700000000020970000000001958000000000203000000000020600000000002060000000000207200060000000000000014000000000000028421200000000000000009999123100000010000000000000BRBRKMACNOR1117
012020050402BRKM5       010BRASKEM     PNA     N1   R$  000000000205000000000021230000000002021000000000206500000000021100000000002100000000000211010066000000000001945700000000004019234500000000000000009999123100000010000000000000BRBRKMACNPA4117
012020050402BRML3       010BR MALLS PARON      NM   R$  000000000095200000000009600000000000922000000000093400000000009350000000000935000000000093660651000000000016600700000000015510188900000000000000009999123100000010000000000000BRBRMLACNOR9115
012020050402BRPR3       010BR PROPERT  ON  ED  NM   R$  000000000085000000000008710000000000838000000000085900000000008710000000000867000000000087109896000000000003460600000000002975989400000000000000009999123100000010000000000000BRBRPRACNOR9119
012020050402BRSR3       010BANRISUL    ON      N1   R$  000000000144000000000014470000000001411000000000144200000000014400000000001420000000000144000016000000000000004000000000000005768300000000000000009999123100000010000000000000BRBRSRACNOR3167
012020050402BRSR6       010BANRISUL    PNB     N1   R$  000000000123700000000012380000000001205000000000121700000000012080000000001208000000000122706908000000000001380000000000001680082300000000000000009999123100000010000000000000BRBRSRACNPB4170
012020050402BRZP11      010FIP BRZ IE  CI  EA       R$  000000007950000000000795000000000072000000000007628300000000785000000000072800000000007850000033000000000000000378000000000028835182000000000000009999123100000010000000000000BRBRZPCTF005102
012020050402BSEV3       010BIOSEV      ON      NM   R$  000000000027500000000002750000000000261000000000026600000000002640000000000264000000000026900176000000000000076200000000000020314200000000000000009999123100000010000000000000BRBSEVACNOR3102
012020050402BTOW3       010B2W DIGITAL ON      NM   R$  000000000720000000000074800000000007108000000000729000000000074070000000007404000000000742717260000000000003395600000000024756454400000000000000009999123100000010000000000000BRBTOWACNOR8110
012020050402BTTL3       010BATTISTELLA ON           R$  000000000051700000000005190000000000452000000000049000000000004700000000000470000000000048700030000000000000003500000000000001717200000000000000009999123100000010000000000000BRBTTLACNOR0108
012020050402C1CL34      010CARNIVAL CORDRN          R$  000000000766900000000076690000000007669000000000766900000000076690000000000000000000000000000002000000000000000220000000000001687180000000000000009999123100000010000000000000BRC1CLBDR004101
012020050402C1HR34      010CH ROBINSON DRN          R$  000000001956800000000195680000000019568000000001956800000000195680000000000000000000000000000001000000000000001570000000000030721760000000000000009999123100000010000000000000BRC1HRBDR000101
012020050402CAMB3       010CAMBUCI     ON           R$  000000000027100000000002710000000000259000000000026300000000002620000000000262000000000026300221000000000000153800000000000040570300000000000000009999123100000010000000000000BRCAMBACNOR4119
012020050402CAML3       010CAMIL       ON      NM   R$  000000000080400000000008480000000000782000000000081100000000008480000000000839000000000084808646000000000002259900000000001834449400000000000000009999123100000010000000000000BRCAMLACNOR3109
012020050402CARD3       010CSU CARDSYSTON      NM   R$  000000000094100000000009680000000000927000000000094600000000009460000000000941000000000096600429000000000000122200000000000115654000000000000000009999123100000010000000000000BRCARDACNOR9117
012020050402CATP34      010CATERPILLAR DRN          R$  000000005966700000000598160000000059667000000005980800000000598160000000000000000000000000000002000000000000000210000000000012559870000000000000009999123100000010000000000000BRCATPBDR003135
012020050402CCPR3       010CYRE COM-CCPON  ED  NM   R$  000000000143000000000014680000000001326000000000139500000000014680000000001407000000000146804968000000000000583300000000000814166500000000000000009999123100000010000000000000BRCCPRACNOR9114
012020050402CCRO3       010CCR SA      ON      NM   R$  000000000116800000000012290000000001167000000000119500000000012180000000001218000000000122023055000000000008342300000000009974053900000000000000009999123100000010000000000000BRCCROACNOR2137
012020050402CEAB3       010CEA MODAS   ON      NM   R$  000000000091000000000009320000000000880000000000090000000000008990000000000899000000000090007366000000000001637500000000001474781300000000000000009999123100000010000000000000BRCEABACNOR1101
012020050402CEBR5       010CEB         PNA          R$  000000000602300000000063000000000006023000000000616100000000063000000000006021000000000750000002000000000000000200000000000001232300000000000000009999123100000010000000000000BRCEBRACNPA8116
012020050402CEDO3       010CEDRO       ON      N1   R$  000000000078500000000013800000000000785000000000119900000000012500000000001100000000000125000065000000000000008800000000000010553800000000000000009999123100000010000000000000BRCEDOACNOR8096
012020050402CEDO4       010CEDRO       PN      N1   R$  000000000049400000000007500000000000472000000000063100000000006150000000000610000000000061500363000000000000063100000000000039847300000000000000009999123100000010000000000000BRCEDOACNPR5128
012020050402CEEB3       010COELBA      ON           R$  000000000400000000000040000000000004000000000000400000000000040000000000003808000000000399500001000000000000000100000000000000400000000000000000009999123100000010000000000000BRCEEBACNOR3179
012020050402CEGR3       010CEG         ON  ED       R$  000000000600000000000060000000000006000000000000600000000000060000000000006000000000014000000001000000000000000300000000000001800000000000000000009999123100000010000000000000BRCEGRACNOR4137
012020050402CESP3       010CESP        ON      N1   R$  000000000277900000000028980000000002778000000000284100000000028850000000002840000000000288600106000000000000037100000000000105430300000000000000009999123100000010000000000000BRCESPACNOR3169
012020050402CESP6       010CESP        PNB     N1   R$  000000000276000000000028000000000002683000000000271300000000027020000000002700000000000271515493000000000004935100000000013392816700000000000000009999123100000010000000000000BRCESPACNPB4128
012020050402CGAS5       010COMGAS      PNA          R$  000000001521000000000160890000000015206000000001548100000000160890000000015209000000001610000013000000000000001600000000000024770100000000000000009999123100000010000000000000BRCGASACNPA3148
012020050402CGRA3       010GRAZZIOTIN  ON           R$  000000000224100000000022890000000002200000000000222200000000022070000000002200000000000230000024000000000000002500000000000005556400000000000000009999123100000010000000000000BRCGRAACNOR2071
012020050402CGRA4       010GRAZZIOTIN  PN           R$  000000000243000000000024930000000002420000000000245000000000024920000000002478000000000249200067000000000000010600000000000025976700000000000000009999123100000010000000000000BRCGRAACNPR9071
012020050402CHCM34      010CHARTER COMMDRN          R$  000000005741700000000574170000000057417000000005741700000000574170000000000000000000000000000001000000000000000010000000000000574170000000000000009999123100000010000000000000BRCHCMBDR001100
012020050402CHKE34      010CHESAPEAKE  DRN          R$  000000000886000000000101000000000008620000000000882900000000086390000000006300000000001360000015000000000000000600000000000005297990000000000000009999123100000010000000000000BRCHKEBDR001101
012020050402CHME34      010CME GROUP   DRN          R$  000000002408500000000240850000000024085000000002408500000000240850000000000000000000000000000001000000000000000010000000000000240850000000000000009999123100000010000000000000BRCHMEBDR007104
012020050402CHVX34      010CHEVRON     DRN          R$  000000002514000000000251400000000025098000000002513900000000250980000000021500000000000000000003000000000000004510000000000113380980000000000000009999123100000010000000000000BRCHVXBDR008136
012020050402CIEL3       010CIELO       ON      NM   R$  000000000040100000000004060000000000386000000000039400000000003940000000000393000000000039432982000000000024821500000000009790666400000000000000009999123100000010000000000000BRCIELACNOR3142
012020050402CINF34      010CINCINNATI  DRN          R$  000000001700000000000170000000000016400000000001656500000000164000000000000000000000000000000004000000000000000300000000000004969600000000000000009999123100000010000000000000BRCINFBDR000102
012020050402CLSC4       010CELESC      PN  ED  N2   R$  000000000367500000000038240000000003642000000000374100000000037830000000003755000000000382500055000000000000007400000000000027689000000000000000009999123100000010000000000000BRCLSCACNPR3115
012020050402CMCS34      010COMCAST     DRN          R$  000000002016000000000201900000000020111000000002013600000000201900000000000000000000000000000006000000000000003150000000000063429530000000000000009999123100000010000000000000BRCMCSBDR008134
012020050402CMIG3       010CEMIG       ON      N1   R$  000000000092300000000009420000000000910000000000092400000000009270000000000927000000000092809127000000000002041100000000001886087400000000000000009999123100000010000000000000BRCMIGACNOR6223
012020050402CMIG4       010CEMIG       PN      N1   R$  000000000091600000000009370000000000910000000000092100000000009240000000000923000000000092425526000000000010265000000000009460453300000000000000009999123100000010000000000000BRCMIGACNPR3224
012020050402CNIC34      010CANAD NATIONDRN          R$  000000002205100000000220510000000022051000000002205100000000220510000000000000000000000000000001000000000000000020000000000000441020000000000000009999123100000010000000000000BRCNICBDR007103
012020050402CNTO3       010CENTAURO    ON      NM   R$  000000000299900000000031750000000002920000000000307700000000031600000000003160000000000316607079000000000001608500000000004950147100000000000000009999123100000010000000000000BRCNTOACNOR5100
012020050402COCA34      010COCA COLA   DRN          R$  000000002530000000000253000000000025000000000002515400000000250000000000024000000000000000000003000000000000000050000000000001257700000000000000009999123100000010000000000000BRCOCABDR002134
012020050402COCE5       010COELCE      PNA ED       R$  000000000489000000000050370000000004790000000000488100000000049220000000004922000000000494100059000000000000007800000000000038072500000000000000009999123100000010000000000000BRCOCEACNPA3140
012020050402COGN3       010COGNA ON    ON      NM   R$  000000000054000000000005460000000000514000000000052500000000005220000000000521000000000052293580000000000066908200000000035162766800000000000000009999123100000010000000000000BRCOGNACNOR2101
012020050402COLG34      010COLGATE     DRN          R$  000000003853800000000385380000000038538000000003853800000000385380000000000000000000000000000001000000000000000010000000000000385380000000000000009999123100000010000000000000BRCOLGBDR000136
012020050402COPH34      010COPHILLIPS  DRN          R$  000000000548000000000055630000000005480000000000553600000000055630000000005304000000000000000005000000000000010850000000000060073370000000000000009999123100000010000000000000BRCOPHBDR009133
012020050402COWC34      010COSTCO      DRN ED       R$  000000004221600000000423900000000042216000000004238200000000423900000000000000000000000000000002000000000000000730000000000030939480000000000000009999123100000010000000000000BRCOWCBDR006118
012020050402CPFE3       010CPFL ENERGIAON      NM   R$  000000000282000000000029530000000002795000000000287800000000029450000000002941000000000294518255000000000004919300000000014160171700000000000000009999123100000010000000000000BRCPFEACNOR0129
012020050402CPLE3       010COPEL       ON      N1   R$  000000000525800000000053440000000005140000000000523900000000052520000000005252000000000526402373000000000000523000000000002740485400000000000000009999123100000010000000000000BRCPLEACNOR8139
012020050402CPLE6       010COPEL       PNB     N1   R$  000000000542100000000055880000000005325000000000547900000000054790000000005479000000000552507661000000000001579100000000008653224400000000000000009999123100000010000000000000BRCPLEACNPB9136
012020050402CPRE3       010CPFL RENOVAVON      NM   R$  000000000167500000000016750000000001650000000000165800000000016510000000001651000000000172500003000000000000000300000000000000497600000000000000009999123100000010000000000000BRCPREACNOR5102
012020050402CRDE3       010CR2         ON           R$  000000000215600000000022550000000002156000000000220500000000022550000000002102000000000250000002000000000000000200000000000000441100000000000000009999123100000010000000000000BRCRDEACNOR1111
012020050402CRFB3       010CARREFOUR BRON      NM   R$  000000000194600000000020170000000001916000000000198000000000020040000000002003000000000200416885000000000004737400000000009381849700000000000000009999123100000010000000000000BRCRFBACNOR2105
012020050402CRIV3       010ALFA FINANC ON           R$  000000000050000000000005000000000000490000000000049800000000005000000000000500000000000050300008000000000000001400000000000000698100000000000000009999123100000010000000000000BRCRIVACNOR4194
012020050402CRIV4       010ALFA FINANC PN           R$  000000000058100000000005820000000000581000000000058100000000005820000000000569000000000058200004000000000000000400000000000000232500000000000000009999123100000010000000000000BRCRIVACNPR1203
012020050402CRPG5       010CRISTAL     PNA          R$  000000000225000000000022510000000002200000000000222600000000022160000000002215000000000222900042000000000000007200000000000016029300000000000000009999123100000010000000000000BRCRPGACNPA3107
012020050402CRPG6       010CRISTAL     PNB          R$  000000000220000000000022490000000002200000000000222200000000022490000000002211000000000229900014000000000000001400000000000003111400000000000000009999123100000010000000000000BRCRPGACNPB1107
012020050402CSAN3       010COSAN       ON      NM   R$  000000000592800000000060190000000005800000000000592500000000059530000000005950000000000598007131000000000001102800000000006535054700000000000000009999123100000010000000000000BRCSANACNOR6119
012020050402CSCO34      010CISCO       DRN          R$  000000002292000000000229200000000022913000000002291500000000229130000000000000000000000000000002000000000000000120000000000002749910000000000000009999123100000010000000000000BRCSCOBDR004137
012020050402CSMG3       010COPASA      ON      NM   R$  000000000473000000000047430000000004603000000000470100000000047210000000004721000000000474004381000000000000686800000000003229080500000000000000009999123100000010000000000000BRCSMGACNOR5155
012020050402CSNA3       010SID NACIONALON           R$  000000000085800000000008580000000000809000000000082600000000008230000000000822000000000082336374000000000017770600000000014692558900000000000000009999123100000010000000000000BRCSNAACNOR6251
012020050402CSXC34      010CSX CORP    DRN          R$  000000001756800000000175680000000017568000000001756800000000175680000000000000000000000000000001000000000000000030000000000000527040000000000000009999123100000010000000000000BRCSXCBDR005103
012020050402CTGP34      010CITIGROUP   DRN ED       R$  000000002488900000000249740000000024889000000002497100000000249740000000000000000000002672800002000000000000000820000000000020476980000000000000009999123100000010000000000000BRCTGPBDR000138
012020050402CTKA4       010KARSTEN     PN           R$  000000000084500000000008450000000000845000000000084500000000008450000000000845000000000090000001000000000000000100000000000000084500000000000000009999123100000010000000000000BRCTKAACNPR7043
012020050402CTNM3       010COTEMINAS   ON           R$  000000000115000000000011500000000000951000000000106000000000010000000000000990000000000100000031000000000000004300000000000004559100000000000000009999123100000010000000000000BRCTNMACNOR9130
012020050402CTNM4       010COTEMINAS   PN           R$  000000000049000000000004950000000000472000000000048100000000004750000000000475000000000047700089000000000000018500000000000008900900000000000000009999123100000010000000000000BRCTNMACNPR6129
012020050402CTSA3       010SANTANENSE  ON           R$  000000000040300000000004100000000000403000000000040600000000004100000000000410000000000042000002000000000000000200000000000000081300000000000000009999123100000010000000000000BRCTSAACNOR3059
012020050402CTSH34      010COGNIZANT   DRN          R$  000000003111900000000311190000000031119000000003111900000000311190000000000000000000000000000001000000000000000010000000000000311190000000000000009999123100000010000000000000BRCTSHBDR002112
012020050402CVCB3       010CVC BRASIL  ON      NM   R$  000000000129700000000013340000000001255000000000128100000000012910000000001291000000000129311586000000000003050200000000003907724100000000000000009999123100000010000000000000BRCVCBACNOR1112
012020050402CVSH34      010CVS HEALTH  DRN ED       R$  000000001668000000000166800000000016664000000001667800000000166640000000011200000000000000000002000000000000000090000000000001501040000000000000009999123100000010000000000000BRCVSHBDR008116
012020050402CYRE3       010CYRELA REALTON      NM   R$  000000000153000000000015310000000001462000000000148500000000014830000000001483000000000148432795000000000008662100000000012870165400000000000000009999123100000010000000000000BRCYREACNOR7133
012020050402D1OM34      010DOMINION ENEDRN          R$  000000002091500000000210980000000020915000000002091500000000210980000000000000000000000000000003000000000000006220000000000130094960000000000000009999123100000010000000000000BRD1OMBDR006101
012020050402DDNB34      010DUPONT N INCDRN          R$  000000002458000000000246000000000024580000000002459600000000246000000000000000000000000000000002000000000000000120000000000002951600000000000000009999123100000010000000000000BRDDNBBDR008103
012020050402DEAI34      010DELTA       DRN          R$  000000001212000000000125000000000012001000000001241200000000125000000000012150000000001800000003000000000000000100000000000001241210000000000000009999123100000010000000000000BRDEAIBDR008116
012020050402DEOP34      010DIAGEO PL   DRN          R$  000000007625700000000762570000000076257000000007625700000000762570000000000000000000000000000001000000000000000010000000000000762570000000000000009999123100000010000000000000BRDEOPBDR004101
012020050402DGCO34      010DOLLAR GENERDRN          R$  000000004875300000000490200000000048540000000004878900000000490000000000000000000000000000000004000000000000000540000000000026346500000000000000009999123100000010000000000000BRDGCOBDR007104
012020050402DHER34      010DANAHER CORPDRN          R$  000000002222300000000222230000000022223000000002222300000000222230000000000000000000000000000001000000000000000050000000000001111150000000000000009999123100000010000000000000BRDHERBDR004120
012020050402DIRR3       010DIRECIONAL  ON      NM   R$  000000000085400000000008670000000000824000000000084600000000008510000000000851000000000085704320000000000001019100000000000862374500000000000000009999123100000010000000000000BRDIRRACNOR0112
012020050402DISB34      010WALT DISNEY DRN          R$  000000005850000000000585000000000056400000000005753100000000575700000000055000000000000000000017000000000000001420000000000081694870000000000000009999123100000010000000000000BRDISBBDR006114
012020050402DIVO11      010IT NOW IDIV CI           R$  000000000487200000000048720000000004762000000000481300000000048040000000004804000000000488700246000000000000103190000000000496736790000000000000009999123100000010000000000000BRDIVOCTF002100
012020050402DMMO3       010DOMMO       ON           R$  000000000015400000000001650000000000135000000000014800000000001390000000000139000000000014012826000000000021243100000000003147905400000000000000009999123100000010000000000000BRDMMOACNOR0102
012020050402DOHL4       010DOHLER      PN           R$  000000000055000000000005890000000000550000000000056000000000005600000000000560000000000058900006000000000000001000000000000000560100000000000000009999123100000010000000000000BRDOHLACNPR9060
012020050402DTCY3       010DTCOM-DIRECTON           R$  000000000055000000000005700000000000550000000000055500000000005700000000000500000000000059000002000000000000000400000000000000222000000000000000009999123100000010000000000000BRDTCYACNOR5109
012020050402DTEX3       010DURATEX     ON      NM   R$  000000000094700000000009800000000000922000000000095100000000009640000000000963000000000096509131000000000001966000000000001869890300000000000000009999123100000010000000000000BRDTEXACNOR3128
012020050402DUKB34      010DUKE ENERGY DRN          R$  000000004562500000000459090000000045625000000004562600000000459090000000000000000000000000000003000000000000002310000000000105396590000000000000009999123100000010000000000000BRDUKBBDR008114
012020050402E1CL34      010ECOLAB INC  DRN          R$  000000002622000000000262200000000026220000000002622000000000262200000000000000000000000000000001000000000000000660000000000017305200000000000000009999123100000010000000000000BRE1CLBDR002101
012020050402EAIN34      010ELECTR ARTS DRN          R$  000000003233300000000323330000000032333000000003233300000000323330000000000000000000000000000001000000000000000030000000000000969990000000000000009999123100000010000000000000BREAINBDR007100
012020050402EALT4       010ACO ALTONA  PN           R$  000000000032300000000003260000000000315000000000032000000000003150000000000315000000000032100171000000000000149800000000000048076900000000000000009999123100000010000000000000BREALTACNPR1132
012020050402ECOO11      010ISHARES ECOOCI           R$  000000000818300000000082280000000008158000000000821600000000082280000000007700000000000899000005000000000000000680000000000005586910000000000000009999123100000010000000000000BRECOOCTF008100
012020050402ECOR3       010ECORODOVIAS ON      NM   R$  000000000100000000000010350000000000992000000000101300000000010160000000001016000000000102610905000000000002467700000000002501113200000000000000009999123100000010000000000000BRECORACNOR8116
012020050402EGIE3       010ENGIE BRASILON      NM   R$  000000000377700000000039210000000003776000000000385000000000038890000000003889000000000389010050000000000001763100000000006787974400000000000000009999123100000010000000000000BREGIEACNOR9112
012020050402EKTR4       010ELEKTRO     PN           R$  000000000180000000000018000000000001800000000000180000000000018000000000001502000000000196600001000000000000000100000000000000180000000000000000009999123100000010000000000000BREKTRACNPR7144
012020050402ELCI34      010ESTEE LAUDERDRN          R$  000000004845500000000484550000000048455000000004845500000000484550000000000000000000000000000001000000000000000010000000000000484550000000000000009999123100000010000000000000BRELCIBDR007103
012020050402ELEK3       010ELEKEIROZ   ON           R$  000000000175000000000017950000000001735000000000176000000000017950000000001741000000000180000007000000000000002700000000000004752600000000000000009999123100000010000000000000BRELEKACNOR5124
012020050402ELEK4       010ELEKEIROZ   PN           R$  000000000203000000000020300000000002030000000000203000000000020300000000001900000000000200000001000000000000000100000000000000203000000000000000009999123100000010000000000000BRELEKACNPR2125
012020050402ELET3       010ELETROBRAS  ON      N1   R$  000000000230600000000023670000000002213000000000227300000000022930000000002293000000000229420920000000000006112300000000013898042200000000000000009999123100000010000000000000BRELETACNOR6154
012020050402ELET6       010ELETROBRAS  PNB     N1   R$  000000000261800000000026750000000002549000000000260300000000026300000000002630000000000263217237000000000003888100000000010123387500000000000000009999123100000010000000000000BRELETACNPB7071
012020050402EMAE4       010EMAE        PN  ED       R$  000000000287200000000029280000000002870000000000289400000000028990000000002894000000000290000023000000000000003300000000000009550900000000000000009999123100000010000000000000BREMAEACNPR1114
012020050402EMBR3       010EMBRAER     ON      NM   R$  000000000082000000000008230000000000762000000000077700000000007720000000000772000000000077355717000000000024318400000000018901110800000000000000009999123100000010000000000000BREMBRACNOR4189
012020050402ENAT3       010ENAUTA PART ON      NM   R$  000000000089500000000009020000000000845000000000087200000000008720000000000872000000000087304809000000000001038900000000000906162300000000000000009999123100000010000000000000BRENATACNOR0101
012020050402ENBR3       010ENERGIAS BR ON      NM   R$  000000000165200000000017180000000001648000000000169300000000016940000000001694000000000170013326000000000004030300000000006827073600000000000000009999123100000010000000000000BRENBRACNOR2129
012020050402ENEV3       010ENEVA       ON      NM   R$  000000000351500000000035830000000003400000000000347100000000035290000000003520000000000352908733000000000001684000000000005846554700000000000000009999123100000010000000000000BRENEVACNOR8104
012020050402ENGI3       010ENERGISA    ON      N2   R$  000000000118700000000011920000000001077000000000110300000000011100000000001110000000000112900209000000000000028600000000000031566500000000000000009999123100000010000000000000BRENGIACNOR0137
012020050402ENGI4       010ENERGISA    PN      N2   R$  000000000080200000000008020000000000756000000000077100000000007770000000000777000000000079000259000000000000060100000000000046382800000000000000009999123100000010000000000000BRENGIACNPR7133
012020050402ENGI11      010ENERGISA    UNT     N2   R$  000000000422200000000043380000000004101000000000418500000000042020000000004202000000000420914226000000000003452700000000014450424600000000000000009999123100000010000000000000BRENGICDAM16127
012020050402ENMT3       010ENERGISA MT ON           R$  000000000273900000000027500000000002600000000000260800000000026000000000002558000000000269700041000000000000012000000000000031305200000000000000009999123100000010000000000000BRENMTACNOR5111
012020050402ENMT4       010ENERGISA MT PN           R$  000000000260100000000027000000000002599000000000260700000000025990000000002560000000000260000036000000000000011200000000000029203700000000000000009999123100000010000000000000BRENMTACNPR2114
012020050402EQPA3       010EQTL PARA   ON           R$  000000000030100000000003060000000000297000000000030200000000003030000000000300000000000030300058000000000000014200000000000004300000000000000000009999123100000010000000000000BREQPAACNOR1100
012020050402EQTL3       010EQUATORIAL  ON      NM   R$  000000000176100000000018270000000001737000000000179400000000018000000000001798000000000180024764000000000006359700000000011413662200000000000000009999123100000010000000000000BREQTLACNOR0125
012020050402EUCA3       010EUCATEX     ON      N1   R$  000000000149000000000014900000000001350000000000137800000000013910000000001390000000000146400020000000000000004600000000000006342400000000000000009999123100000010000000000000BREUCAACNOR1151
012020050402EUCA4       010EUCATEX     PN      N1   R$  000000000047300000000004730000000000455000000000046200000000004680000000000465000000000046800118000000000000040000000000000018509300000000000000009999123100000010000000000000BREUCAACNPR8038
012020050402EVEN3       010EVEN        ON  ED  NM   R$  000000000064000000000006560000000000620000000000063200000000006290000000000628000000000063005626000000000001415000000000000895573000000000000000009999123100000010000000000000BREVENACNOR8112
012020050402EXGR34      010EXPEDIA GROUDRN          R$  000000001816000000000182400000000018160000000001820000000000182400000000000000000000000000000002000000000000000400000000000007280000000000000000009999123100000010000000000000BREXGRBDR004103
012020050402EXXO34      010EXXON MOBIL DRN          R$  000000000614700000000061790000000006147000000000614700000000061790000000005000000000000739000003000000000000030160000000000185398640000000000000009999123100000010000000000000BREXXOBDR006138
012020050402EZTC3       010EZTEC       ON  ED  NM   R$  000000000290000000000029560000000002860000000000290800000000029270000000002927000000000293309312000000000001505000000000004377519100000000000000009999123100000010000000000000BREZTCACNOR0114
012020050402F1IS34      010FISERV INC  DRN          R$  000000002812200000000281220000000028122000000002812200000000281220000000000000000000000000000001000000000000000010000000000000281220000000000000009999123100000010000000000000BRF1ISBDR003100
012020050402F1NI34      010FIDELITY NATDRN          R$  000000001783900000000178480000000017839000000001783900000000178480000000000000000000000000000002000000000000000660000000000011773830000000000000009999123100000010000000000000BRF1NIBDR004101
012020050402FBOK34      010FACEBOOK    DRN          R$  000000005688000000000571990000000056369000000005655300000000571990000000050000000000000000000011000000000000000570000000000032235250000000000000009999123100000010000000000000BRFBOKBDR006100
012020050402FDXB34      010FEDEX CORP  DRN          R$  000000006479900000000647990000000064799000000006479900000000647990000000000000000000000000000001000000000000000020000000000001295980000000000000009999123100000010000000000000BRFDXBBDR002126
012020050402FESA4       010FERBASA     PN      N1   R$  000000000165100000000018100000000001623000000000173500000000017600000000001760000000000176401858000000000000398800000000000692230900000000000000009999123100000010000000000000BRFESAACNPR5066
012020050402FIND11      010IT NOW IFNC CI           R$  000000000788600000000078860000000007833000000000786900000000078820000000007800000000000813200010000000000000000500000000000003934980000000000000009999123100000010000000000000BRFINDCTF007100
012020050402FLRY3       010FLEURY      ON      NM   R$  000000000219500000000022500000000002150000000000218000000000021710000000002170000000000218611145000000000001760800000000003840224800000000000000009999123100000010000000000000BRFLRYACNOR5127
012020050402FNAM11      010FINAM       CI *         R$  000000000001400000000000140000000000013000000000001300000000000140000000000013000000000001400131000000000050643000000000000000679715000000000000009999123100010000000000000000BRFNAMCTF013002
012020050402FNOR11      010FINOR       CI *         R$  000000000002000000000000200000000000019000000000001900000000000200000000000019000000000002000038000000000002151000000000000000042812000000000000009999123100010000000000000000BRFNORCTF013002
012020050402FPOR11      010FIP PORT SUDCI           R$  000000000049000000000004900000000000490000000000049000000000004900000000000262000000000048000001000000000000000027000000000000013230000000000000009999123100000010000000000000BRFPORCTF000101
012020050402FRAS3       010FRAS-LE     ON      N1   R$  000000000039500000000004000000000000385000000000039400000000003990000000000397000000000039900138000000000000057900000000000022836800000000000000009999123100000010000000000000BRFRASACNOR0149
012020050402FSPE11      010FISET PESCA CI           R$  000000000003700000000000400000000000037000000000003700000000000400000000000036000000000004700006000000000000006000000000000000227000000000000000009999123100000010000000000000BRFSPECTF017002
012020050402FSRF11      010FISET FL REFCI           R$  000000000002200000000000220000000000021000000000002100000000000220000000000021000000000002200017000000000000125000000000000002730000000000000000009999123100000010000000000000BRFSRFCTF010002
012020050402FSTU11      010FISET TUR   CI           R$  000000000003500000000000350000000000032000000000003400000000000320000000000035000000000003800003000000000000004000000000000000136000000000000000009999123100000010000000000000BRFSTUCTF015002
012020050402GBIO33      010BIOTOSCANA  DR3          R$  000000000098400000000009900000000000983000000000098700000000009900000000000986000000000099000426000000000000095000000000000093777100000000000000009999123100000010000000000000BRGBIOBDR008100
012020050402GDBR34      010GEN DYNAMICSDRN          R$  000000006903600000000690360000000069036000000006903600000000690360000000000000000000000000000001000000000000000010000000000000690360000000000000009999123100000010000000000000BRGDBRBDR002119
012020050402GEOO34      010GE          DRN          R$  000000000343800000000034380000000003438000000000343800000000034380000000000000000000000344800001000000000000000140000000000000481320000000000000009999123100000010000000000000BRGEOOBDR000139
012020050402GEPA4       010GER PARANAP PN           R$  000000000435100000000043990000000004320000000000435300000000043200000000004330000000000435000005000000000000000500000000000002176900000000000000009999123100000010000000000000BRGEPAACNPR9152
012020050402GFSA3       010GAFISA      ON      NM   R$  000000000038000000000003940000000000366000000000037600000000003710000000000371000000000037404962000000000003042100000000001145474300000000000000009999123100000010000000000000BRGFSAACNOR3117
012020050402GGBR3       010GERDAU      ON      N1   R$  000000000101400000000010370000000000993000000000100900000000010260000000001020000000000102600565000000000000172400000000000174110100000000000000009999123100000010000000000000BRGGBRACNOR1173
012020050402GGBR4       010GERDAU      PN      N1   R$  000000000111600000000011550000000001107000000000112600000000011470000000001147000000000114926426000000000010749900000000012109627600000000000000009999123100000010000000000000BRGGBRACNPR8173
012020050402GILD34      010GILEAD      DRN          R$  000000002388000000000238800000000022230000000002292300000000222550000000021200000000002241000029000000000000003880000000000088944150000000000000009999123100000010000000000000BRGILDBDR000116
012020050402GMCO34      010GENERAL MOT DRN          R$  000000001138000000000113800000000011380000000001138000000000113800000000011365000000000000000001000000000000000130000000000001479400000000000000009999123100000010000000000000BRGMCOBDR008115
012020050402GNDI3       010INTERMEDICA ON      NM   R$  000000000518100000000053500000000005107000000000522400000000053500000000005340000000000535420371000000000004366200000000022809798900000000000000009999123100000010000000000000BRGNDIACNOR2102
012020050402GOAU3       010GERDAU MET  ON      N1   R$  000000000045300000000004840000000000446000000000046300000000004810000000000480000000000048200204000000000000068200000000000031599100000000000000009999123100000010000000000000BRGOAUACNOR1250
012020050402GOAU4       010GERDAU MET  PN      N1   R$  000000000049400000000005120000000000489000000000049800000000005100000000000509000000000051017552000000000012380300000000006174868900000000000000009999123100000010000000000000BRGOAUACNPR8251
012020050402GOGL34      010ALPHABET    DRN A        R$  000000002919000000000294600000000028920000000002918200000000292000000000027769000000002934700042000000000000010350000000000302038320000000000000009999123100000010000000000000BRGOGLBDR001100
012020050402GOGL35      010ALPHABET    DRN C        R$  000000002919000000000294170000000029190000000002927800000000293570000000000000000000000000000003000000000000000070000000000002049510000000000000009999123100000010000000000000BRGOGLBDR019100
012020050402GOLL4       010GOL         PN      N2   R$  000000000113800000000011590000000001079000000000111100000000011150000000001114000000000111529986000000000012725500000000014142100900000000000000009999123100000010000000000000BRGOLLACNPR4125
012020050402GOVE11      010IT NOW IGCT CI           R$  000000000341500000000034250000000003415000000000341800000000034250000000003000000000000385000002000000000000000090000000000000307650000000000000009999123100000010000000000000BRGOVECTF004100
012020050402GPIV33      010GP INVEST   DR3          R$  000000000037900000000003820000000000368000000000037400000000003710000000000369000000000037400081000000000000073900000000000027673300000000000000009999123100000010000000000000BRGPIVBDR003104
012020050402GRND3       010GRENDENE    ON      NM   R$  000000000069700000000007190000000000677000000000069800000000007120000000000712000000000071309924000000000002935600000000002050302000000000000000009999123100000010000000000000BRGRNDACNOR3157
012020050402GSGI34      010GOLDMANSACHSDRN          R$  000000000973300000000097330000000009733000000000973300000000097330000000009620000000000000000001000000000000000040000000000000389320000000000000009999123100000010000000000000BRGSGIBDR008138
012020050402GSHP3       010GENERALSHOPPON      NM   R$  000000000380000000000038000000000003800000000000380000000000038000000000003750000000000399900001000000000000000100000000000000380000000000000000009999123100000010000000000000BRGSHPACNOR7102
012020050402GUAR3       010GUARARAPES  ON           R$  000000000122500000000012580000000001201000000000122300000000012260000000001226000000000123304326000000000001113800000000001362220700000000000000009999123100000010000000000000BRGUARACNOR4165
012020050402H1CA34      010HCA HEALTHCADRN          R$  000000002883400000000288340000000028834000000002883400000000288340000000000000000000000000000001000000000000000010000000000000288340000000000000009999123100000010000000000000BRH1CABDR002101
012020050402HAGA4       010HAGA S/A    PN           R$  000000000019000000000001950000000000190000000000019100000000001900000000000190000000000019400029000000000000013200000000000002523500000000000000009999123100000010000000000000BRHAGAACNPR4103
012020050402HAPV3       010HAPVIDA     ON  ED  NM   R$  000000000498500000000051280000000004952000000000505500000000051160000000005107000000000511613917000000000002596300000000013125837300000000000000009999123100000010000000000000BRHAPVACNOR4105
012020050402HBOR3       010HELBOR      ON      NM   R$  000000000017400000000001830000000000170000000000017700000000001770000000000177000000000017907372000000000009325500000000001651875000000000000000009999123100000010000000000000BRHBORACNOR3113
012020050402HBTS5       010HABITASUL   PNA ED       R$  000000000099900000000010000000000000902000000000094900000000009020000000000900000000000150000008000000000000002400000000000002278400000000000000009999123100000010000000000000BRHBTSACNPA3124
012020050402HETA4       010HERCULES    PN           R$  000000000044500000000004480000000000410000000000043100000000004400000000000425000000000044500039000000000000012600000000000005435500000000000000009999123100000010000000000000BRHETAACNPR9136
012020050402HGTX3       010CIA HERING  ON      NM   R$  000000000143000000000014510000000001370000000000140700000000014310000000001430000000000143109818000000000002376500000000003344724400000000000000009999123100000010000000000000BRHGTXACNOR9150
012020050402HOME34      010HOME DEPOT  DRN          R$  000000006072100000000614750000000060721000000006118000000000611690000000000000000000000000000004000000000000002070000000000126642770000000000000009999123100000010000000000000BRHOMEBDR002132
012020050402HONB34      010HONEYWELL   DRN          R$  000000007506200000000750620000000075062000000007506200000000750620000000000000000000000000000001000000000000000010000000000000750620000000000000009999123100000010000000000000BRHONBBDR006125
012020050402HOND34      010HONDA MO    DRN          R$  000000001252000000000125200000000012520000000001252000000000125200000000000000000000000000000001000000000000000020000000000000250400000000000000009999123100000010000000000000BRHONDBDR002102
012020050402HYPE3       010HYPERA      ON      NM   R$  000000000279300000000029030000000002766000000000284000000000028690000000002869000000000287811380000000000002130500000000006051791300000000000000009999123100000010000000000000BRHYPEACNOR0121
012020050402I1CE34      010INTERCONTINEDRN          R$  000000002490000000000249000000000024900000000002490000000000249000000000000000000000000000000001000000000000000010000000000000249000000000000000009999123100000010000000000000BRI1CEBDR003101
012020050402I1LM34      010ILLUMINA INCDRN          R$  000000003441000000000345900000000034300000000003449900000000343800000000000000000000000000000005000000000000000520000000000017939800000000000000009999123100000010000000000000BRI1LMBDR007100
012020050402IBMB34      010IBM         DRN          R$  000000006711100000000671110000000067111000000006711100000000671110000000000000000000000000000001000000000000000020000000000001342220000000000000009999123100000010000000000000BRIBMBBDR003133
012020050402IDNT3       010IDEIASNET   ON           R$  000000000026300000000002700000000000255000000000026200000000002620000000000262000000000026700075000000000000020100000000000005273100000000000000009999123100000010000000000000BRIDNTACNOR5113
012020050402IDVL3       010INDUSVAL    ON      N2   R$  000000000017500000000001830000000000175000000000018000000000001820000000000177000000000018000037000000000000014800000000000002666600000000000000009999123100000010000000000000BRIDVLACNOR5130
012020050402IDVL4       010INDUSVAL    PN      N2   R$  000000000025000000000002590000000000242000000000025000000000002550000000000255000000000025900023000000000000008200000000000002058100000000000000009999123100000010000000000000BRIDVLACNPR2130
012020050402IGTA3       010IGUATEMI    ON      NM   R$  000000000320100000000032310000000003056000000000311900000000031310000000003129000000000313111736000000000001843600000000005751628000000000000000009999123100000010000000000000BRIGTAACNOR5123
012020050402INTU34      010INTUIT INC  DRN          R$  000000003719200000000371920000000037192000000003719200000000371920000000000000000000000000000001000000000000000020000000000000743840000000000000009999123100000010000000000000BRINTUBDR003104
012020050402IRBR3       010IRBBRASIL REON      NM   R$  000000000098100000000009950000000000942000000000096100000000009590000000000959000000000096032114000000000018263600000000017564285300000000000000009999123100000010000000000000BRIRBRACNOR4106
012020050402ISUS11      010IT NOW ISE  CI           R$  000000000299300000000029940000000002993000000000299300000000029940000000002836000000000299400003000000000000000070000000000000209570000000000000009999123100000010000000000000BRISUSCTF003100
012020050402ITLC34      010INTEL       DRN          R$  000000003191200000000319780000000031912000000003196700000000319780000000000000000000000000000003000000000000002740000000000087592040000000000000009999123100000010000000000000BRITLCBDR005137
012020050402ITSA3       010ITAUSA      ON      N1   R$  000000000104900000000010490000000001012000000000102400000000010260000000001026000000000103100788000000000000235100000000000240891700000000000000009999123100000010000000000000BRITSAACNOR0398
012020050402ITSA4       010ITAUSA      PN      N1   R$  000000000087000000000008740000000000863000000000087000000000008700000000000869000000000087036498000000000024200500000000021062223800000000000000009999123100000010000000000000BRITSAACNPR7398
012020050402ITUB3       010ITAUUNIBANCOON  ED  N1   R$  000000000213800000000021410000000002110000000000212600000000021100000000002110000000000213202713000000000000742400000000001578767300000000000000009999123100000010000000000000BRITUBACNOR4268
012020050402ITUB4       010ITAUUNIBANCOPN  ED  N1   R$  000000000219500000000022090000000002178000000000219400000000021890000000002188000000000218967686000000000032042300000000070316226000000000000000009999123100000010000000000000BRITUBACNPR1268
012020050402IVVB11      010ISHARE SP500CI           R$  000000001694800000000170000000000016722000000001687500000000169200000000016920000000001700002491000000000000361610000000006102224470000000000000009999123100000010000000000000BRIVVBCTF001100
012020050402JBDU3       010J B DUARTE  ON           R$  000000000020000000000002000000000000186000000000019100000000001870000000000186000000000019600015000000000000002500000000000000478500000000000000009999123100000010000000000000BRJBDUACNOR6142
012020050402JBDU4       010J B DUARTE  PN           R$  000000000012500000000001270000000000119000000000012000000000001190000000000119000000000012100027000000000000015400000000000001858300000000000000009999123100000010000000000000BRJBDUACNPR3142
012020050402JBSS3       010JBS         ON  ED  NM   R$  000000000230400000000023530000000002232000000000226500000000022770000000002276000000000227740418000000000014951900000000033871724700000000000000009999123100000010000000000000BRJBSSACNOR8115
012020050402JCPC34      010JC PENNEY   DRN          R$  000000000013300000000001330000000000131000000000013100000000001310000000000129000000000025000003000000000000000310000000000000040770000000000000009999123100000010000000000000BRJCPCBDR000100
012020050402JHSF3       010JHSF PART   ON      NM   R$  000000000039800000000004230000000000387000000000040600000000004020000000000402000000000040511386000000000007828700000000003183369200000000000000009999123100000010000000000000BRJHSFACNOR2115
012020050402JNJB34      010JOHNSON     DRN          R$  000000008170000000000827220000000081700000000008224400000000820000000000059769000000000000000006000000000000002180000000000179293820000000000000009999123100000010000000000000BRJNJBBDR002133
012020050402JPMC34      010JPMORGAN    DRN          R$  000000002559000000000256000000000025470000000002554300000000256000000000025400000000000000000006000000000000000460000000000011750160000000000000009999123100000010000000000000BRJPMCBDR009133
012020050402JPSA3       010JEREISSATI  ON           R$  000000000219900000000021990000000002084000000000210400000000020850000000002085000000000208901267000000000000283900000000000597471100000000000000009999123100000010000000000000BRJPSAACNOR6102
012020050402JSLG3       010JSL         ON  ED  NM   R$  000000000180100000000018790000000001770000000000181400000000018580000000001856000000000186005287000000000001070200000000001941461400000000000000009999123100000010000000000000BRJSLGACNOR2114
012020050402K1RC34      010KROGER CO   DRN          R$  000000001804800000000181400000000018048000000001804800000000181400000000000000000000000000000002000000000000001960000000000035375000000000000000009999123100000010000000000000BRK1RCBDR001101
012020050402KEPL3       010KEPLER WEBERON           R$  000000000260000000000026150000000002490000000000257600000000026150000000002615000000000263900305000000000000060300000000000155358000000000000000009999123100000010000000000000BRKEPLACNOR1049
012020050402KHCB34      010KRAFT HEINZ DRN          R$  000000001620000000000162000000000016200000000001620000000000162000000000015000000000000000000001000000000000000100000000000001620000000000000000009999123100000010000000000000BRKHCBBDR007119
012020050402KLBN3       010KLABIN S/A  ON      N2   R$  000000000037100000000003770000000000357000000000036600000000003630000000000362000000000036300671000000000000233400000000000085553800000000000000009999123100000010000000000000BRKLBNACNOR2156
012020050402KLBN4       010KLABIN S/A  PN      N2   R$  000000000034900000000003620000000000325000000000035100000000003510000000000350000000000035103984000000000002396800000000000842824600000000000000009999123100000010000000000000BRKLBNACNPR9156
012020050402KLBN11      010KLABIN S/A  UNT     N2   R$  000000000174300000000018290000000001738000000000177200000000017780000000001775000000000177935441000000000008805600000000015604734400000000000000009999123100000010000000000000BRKLBNCDAM18128
012020050402KMBB34      010KIMBERLY CL DRN          R$  000000007560900000000756090000000075609000000007560900000000756090000000000000000000000000000001000000000000000010000000000000756090000000000000009999123100000010000000000000BRKMBBBDR009119
012020050402KMIC34      010KINDER MORGADRN ED       R$  000000000809700000000080970000000008097000000000809700000000080970000000000000000000000000000001000000000000000010000000000000080970000000000000009999123100000010000000000000BRKMICBDR002104
012020050402L1RC34      010LAM RESEARCHDRN          R$  000000003248900000000324890000000032489000000003248900000000324890000000000000000000000000000001000000000000000400000000000012995600000000000000009999123100000010000000000000BRL1RCBDR000101
012020050402LAME3       010LOJAS AMERICON      N1   R$  000000000198100000000020710000000001956000000000200900000000020670000000002067000000000206908204000000000001617100000000003249655600000000000000009999123100000010000000000000BRLAMEACNOR9202
012020050402LAME4       010LOJAS AMERICPN      N1   R$  000000000240000000000025610000000002380000000000248800000000025260000000002526000000000253124128000000000006376700000000015867425100000000000000009999123100000010000000000000BRLAMEACNPR6202
012020050402LCAM3       010LOCAMERICA  ON      NM   R$  000000000128400000000013550000000001249000000000131700000000013520000000001350000000000135210159000000000002001400000000002636331000000000000000009999123100000010000000000000BRLCAMACNOR3132
012020050402LEVE3       010METAL LEVE  ON      NM   R$  000000000174000000000017470000000001689000000000172100000000017190000000001719000000000172502350000000000000425900000000000733338500000000000000009999123100000010000000000000BRLEVEACNOR2187
012020050402LIGT3       010LIGHT S/A   ON      NM   R$  000000000111000000000011230000000001046000000000107700000000010670000000001067000000000107509557000000000002973300000000003203774900000000000000009999123100000010000000000000BRLIGTACNOR2120
012020050402LILY34      010LILLY       DRN          R$  000000004224700000000422470000000042247000000004224700000000422470000000000000000000000000000001000000000000000030000000000001267410000000000000009999123100000010000000000000BRLILYBDR006132
012020050402LINX3       010LINX        ON  ED  NM   R$  000000000210000000000021760000000001997000000000208000000000020650000000002064000000000206806876000000000002393700000000004979906900000000000000009999123100000010000000000000BRLINXACNOR0118
012020050402LLIS3       010LE LIS BLANCON      NM   R$  000000000058800000000005900000000000559000000000057700000000005820000000000582000000000059400527000000000000214400000000000123780100000000000000009999123100000010000000000000BRLLISACNOR4113
012020050402LOGG3       010LOG COM PROPON      NM   R$  000000000227200000000022720000000002155000000000218900000000021750000000002175000000000222402635000000000000368500000000000806852100000000000000009999123100000010000000000000BRLOGGACNOR7102
012020050402LOGN3       010LOG-IN      ON      NM   R$  000000000132100000000013690000000001288000000000133500000000013580000000001358000000000136003836000000000000916000000000001223257900000000000000009999123100000010000000000000BRLOGNACNOR3104
012020050402LOWC34      010LOWES COMPA DRN          R$  000000002977000000000297700000000029770000000002977000000000297700000000000000000000000000000001000000000000000010000000000000297700000000000000009999123100000010000000000000BRLOWCBDR007104
012020050402LPSB3       010LOPES BRASILON      NM   R$  000000000038000000000003830000000000362000000000037200000000003700000000000370000000000037801554000000000000614000000000000228505900000000000000009999123100000010000000000000BRLPSBACNOR0111
012020050402LREN3       010LOJAS RENNERON  ED  NM   R$  000000000369900000000037590000000003593000000000368900000000037210000000003721000000000373129732000000000007359100000000027148354700000000000000009999123100000010000000000000BRLRENACNOR1202
012020050402LUXM4       010TREVISA     PN           R$  000000000320000000000032000000000003200000000000320000000000032000000000002900000000000320000002000000000000000200000000000000640000000000000000009999123100000010000000000000BRLUXMACNPR4045
012020050402LWSA3       010LOCAWEB     ON      NM   R$  000000000223800000000022960000000002153000000000220500000000021940000000002193000000000221602342000000000000369000000000000813821000000000000000009999123100000010000000000000BRLWSAACNOR8100
012020050402M1SC34      010MSCI INC    DRN          R$  000000004377000000000437700000000043770000000004377000000000437700000000000000000000000000000001000000000000000200000000000008754000000000000000009999123100000010000000000000BRM1SCBDR007101
012020050402MACY34      010MACY S      DRN          R$  000000000288900000000028890000000002887000000000288700000000028890000000002700000000000600000003000000000000000360000000000001039640000000000000009999123100000010000000000000BRMACYBDR000116
012020050402MATB11      010IT NOW IMAT CI           R$  000000000273900000000027670000000002723000000000273500000000027630000000002690000000000279500006000000000000000750000000000002051750000000000000009999123100000010000000000000BRMATBCTF001100
012020050402MCDC34      010MCDONALDS   DRN          R$  000000002529200000000252920000000025292000000002529200000000252920000000013000000000000000000001000000000000000040000000000001011680000000000000009999123100000010000000000000BRMCDCBDR000138
012020050402MDIA3       010M.DIASBRANCOON      NM   R$  000000000310000000000032030000000003063000000000315000000000031660000000003164000000000318604963000000000000803100000000002530394800000000000000009999123100000010000000000000BRMDIAACNOR7118
012020050402MDLZ34      010MONDELEZ INTDRN          R$  000000001395500000000139550000000013955000000001395500000000139550000000000000000000000000000001000000000000000040000000000000558200000000000000009999123100000010000000000000BRMDLZBDR002119
012020050402MDNE3       010MOURA DUBEUXON      NM   R$  000000000065500000000006750000000000645000000000065400000000006560000000000646000000000066200361000000000000078300000000000051212200000000000000009999123100000010000000000000BRMDNEACNOR9100
012020050402MDTC34      010MEDTRONIC   DRN          R$  000000002625000000000262500000000026250000000002625000000000262500000000000000000000000000000001000000000000000010000000000000262500000000000000009999123100000010000000000000BRMDTCBDR004116
012020050402MEAL3       010IMC S/A     ON      NM   R$  000000000031000000000003280000000000305000000000031600000000003180000000000318000000000032109413000000000005267600000000001666954700000000000000009999123100000010000000000000BRMEALACNOR9105
012020050402MELI34      010MERCADOLIBREDRN          R$  000000003348000000000341760000000033240000000003368100000000339000000000031300000000003410000664000000000000025070000000000844404180000000000000009999123100000010000000000000BRMELIBDR006100
012020050402MERC4       010MERC FINANC PN           R$  000000000092100000000009220000000000921000000000092100000000009210000000000921000000000093000003000000000000000300000000000000276400000000000000009999123100000010000000000000BRMERCACNPR9173
012020050402METB34      010METLIFE INC DRN          R$  000000001881800000000188180000000018818000000001881800000000188180000000000000000000000000000001000000000000000010000000000000188180000000000000009999123100000010000000000000BRMETBBDR004119
012020050402MGLU3       010MAGAZ LUIZA ON      NM   R$  000000000480000000000051680000000004731000000000501900000000051440000000005143000000000514445463000000000013088100000000065689382300000000000000009999123100000010000000000000BRMGLUACNOR2115
012020050402MILS3       010MILLS       ON      NM   R$  000000000045000000000004740000000000440000000000045800000000004570000000000457000000000046604009000000000001238900000000000567606800000000000000009999123100000010000000000000BRMILSACNOR2112
012020050402MMMC34      0103M          DRN          R$  000000002050000000000206080000000020500000000002055400000000206080000000019500000000000000000002000000000000000040000000000000822160000000000000009999123100000010000000000000BRMMMCBDR000132
012020050402MNPR3       010MINUPAR     ON           R$  000000000044000000000004400000000000440000000000044000000000004400000000000412000000000043900001000000000000000100000000000000044000000000000000009999123100000010000000000000BRMNPRACNOR5122
012020050402MOOO34      010ALTRIA GROUPDRN          R$  000000002106300000000210630000000021063000000002106300000000210630000000000000000000002106300001000000000000000010000000000000210630000000000000009999123100000010000000000000BRMOOOBDR007103
012020050402MOVI3       010MOVIDA      ON      NM   R$  000000000103200000000010660000000001008000000000102600000000010540000000001054000000000105509163000000000003125200000000003209574500000000000000009999123100000010000000000000BRMOVIACNOR0111
012020050402MRCK34      010MERCK       DRN          R$  000000004250000000000425000000000042500000000004250000000000425000000000000000000000000000000015000000000000002000000000000085000000000000000000009999123100000010000000000000BRMRCKBDR003138
012020050402MRFG3       010MARFRIG     ON      NM   R$  000000000123500000000012880000000001227000000000125600000000012470000000001247000000000124832590000000000014668300000000018424343600000000000000009999123100000010000000000000BRMRFGACNOR0109
012020050402MRSA3B      010MRS LOGIST  ON      MB   R$  000000000850100000000085010000000005003000000000754900000000051000000000003100000000000620000013000000000000001400000000000010569900000000000000009999123100000010000000000000BRMRSAACNOR6119
012020050402MRVE3       010MRV         ON      NM   R$  000000000149000000000015010000000001436000000000146500000000014840000000001483000000000148411760000000000003711900000000005437977900000000000000009999123100000010000000000000BRMRVEACNOR2120
012020050402MSBR34      010MORGAN STAN DRN ED       R$  000000002112000000000211200000000021120000000002112000000000211200000000000000000000000000000001000000000000000030000000000000633600000000000000009999123100000010000000000000BRMSBRBDR008128
012020050402MSCD34      010MASTERCARD  DRN          R$  000000014944200000001494420000000149442000000014944200000001494420000000000000000000000000000001000000000000000400000000000059776800000000000000009999123100000010000000000000BRMSCDBDR006136
012020050402MSFT34      010MICROSOFT   DRN          R$  000000009820000000000995000000000097800000000009847100000000983410000000095000000000010300000042000000000000006050000000000595753860000000000000009999123100000010000000000000BRMSFTBDR005137
012020050402MTRE3       010MITRE REALTYON      NM   R$  000000000103000000000010530000000000997000000000101900000000010290000000001017000000000102902359000000000000342000000000000348707600000000000000009999123100000010000000000000BRMTREACNOR6100
012020050402MTSA4       010METISA      PN           R$  000000000154000000000016000000000001500000000000153800000000016000000000001550000000000160000018000000000000003700000000000005693600000000000000009999123100000010000000000000BRMTSAACNPR9055
012020050402MULT3       010MULTIPLAN   ON      N2   R$  000000000200000000000020280000000001941000000000198600000000019980000000001998000000000200016610000000000004352900000000008648303800000000000000009999123100000010000000000000BRMULTACNOR5127
012020050402MUTC34      010MICRON TECHNDRN          R$  000000002435600000000245000000000024356000000002449900000000245000000000000000000000000000000002000000000000002610000000000063943560000000000000009999123100000010000000000000BRMUTCBDR008100
012020050402MYPK3       010IOCHP-MAXIONON      NM   R$  000000000124000000000012680000000001201000000000123700000000012500000000001247000000000125006169000000000001296000000000001604162800000000000000009999123100000010000000000000BRMYPKACNOR7148
012020050402N1CL34      010NORWEGIAN CRDRN          R$  000000000800000000000080000000000008000000000000800000000000080000000000000000000000001040000001000000000000000100000000000000800000000000000000009999123100000010000000000000BRN1CLBDR001100
012020050402N1DA34      010NASDAQ INC  DRN          R$  000000002950000000000295000000000029500000000002950000000000295000000000000000000000000000000005000000000000000410000000000012095000000000000000009999123100000010000000000000BRN1DABDR002101
012020050402N1EM34      010NEWMONT GOLDDRN          R$  000000003471200000000348850000000034712000000003477800000000347120000000033000000000000000000020000000000000001370000000000047646210000000000000009999123100000010000000000000BRN1EMBDR005101
012020050402NEOE3       010NEOENERGIA  ON      NM   R$  000000000176100000000017980000000001740000000000177500000000017860000000001785000000000179413111000000000002521900000000004478247300000000000000009999123100000010000000000000BRNEOEACNOR3110
012020050402NEXT34      010NEXTERA ENERDRN          R$  000000003189100000000318910000000031891000000003189100000000318910000000000000000000000000000001000000000000000020000000000000637820000000000000009999123100000010000000000000BRNEXTBDR006103
012020050402NFLX34      010NETFLIX     DRN          R$  000000023800000000002380000000000235200000000023542600000002352000000000000000000000023800000005000000000000000350000000000082399170000000000000009999123100000010000000000000BRNFLXBDR000101
012020050402NIKE34      010NIKE        DRN          R$  000000004742400000000474240000000047424000000004742400000000474240000000000000000000000000000001000000000000000030000000000001422720000000000000009999123100000010000000000000BRNIKEBDR006137
012020050402NOCG34      010NORTHROP GRUDRN          R$  000000003562300000000356230000000035623000000003562300000000356230000000000000000000000000000001000000000000000020000000000000712460000000000000009999123100000010000000000000BRNOCGBDR006103
012020050402NORD3       010NORDON MET  ON           R$  000000000036500000000003650000000000365000000000036500000000003650000000000365000000000039900001000000000000000100000000000000036500000000000000009999123100000010000000000000BRNORDACNOR7135
012020050402NTCO3       010GRUPO NATURAON      NM   R$  000000000344000000000034400000000003300000000000335600000000034400000000003415000000000344034188000000000009429900000000031648465600000000000000009999123100000010000000000000BRNTCOACNOR5100
012020050402NVDC34      010NVIDIA CORP DRN          R$  000000003977000000000403200000000039600000000003984400000000400900000000039995000000000000000008000000000000002700000000000107579700000000000000009999123100000010000000000000BRNVDCBDR008104
012020050402ODPV3       010ODONTOPREV  ON      NM   R$  000000000145000000000015080000000001442000000000147100000000014800000000001479000000000148012464000000000002267100000000003336412700000000000000009999123100000010000000000000BRODPVACNOR4174
012020050402OFSA3       010OUROFINO S/AON      NM   R$  000000000261500000000026150000000002536000000000257200000000025550000000002550000000000259000109000000000000019700000000000050673300000000000000009999123100000010000000000000BROFSAACNOR7109
012020050402OMGE3       010OMEGA GER   ON      NM   R$  000000000299600000000030740000000002909000000000298600000000030180000000003018000000000303202770000000000000393400000000001174961700000000000000009999123100000010000000000000BROMGEACNOR0101
012020050402ORCL34      010ORACLE      DRN          R$  000000002870300000000287030000000028703000000002870300000000287030000000000000000000000000000001000000000000000010000000000000287030000000000000009999123100000010000000000000BRORCLBDR007133
012020050402OXYP34      010OCCIDENT PTRDRN          R$  000000000421200000000042120000000004212000000000421200000000042120000000000000000000000000000001000000000000000040000000000000168480000000000000009999123100000010000000000000BROXYPBDR000103
012020050402P1EA34      010HEALTHPEAK PDRN          R$  000000001385000000000138500000000013700000000001378100000000137000000000000000000000000000000003000000000000000550000000000007580000000000000000009999123100000010000000000000BRP1EABDR008101
012020050402P1IO34      010PIONEER NATUDRN          R$  000000001128100000000112810000000011281000000001128100000000112810000000000000000000000000000001000000000000002110000000000023802910000000000000009999123100000010000000000000BRP1IOBDR000101
012020050402PARD3       010IHPARDINI   ON      NM   R$  000000000191000000000019100000000001791000000000182700000000017950000000001795000000000179902240000000000000449500000000000821238800000000000000009999123100000010000000000000BRPARDACNOR1113
012020050402PATI3       010PANATLANTICAON           R$  000000000205000000000020900000000002050000000000207000000000020900000000001900000000000210000002000000000000001200000000000002484000000000000000009999123100000010000000000000BRPATIACNOR6059
012020050402PCAR3       010P.ACUCAR-CBDON  ED  NM   R$  000000000652900000000067130000000006417000000000649900000000066200000000006600000000000662009294000000000001488700000000009676488500000000000000009999123100000010000000000000BRPCARACNOR3163
012020050402PEAB3       010PAR AL BAHIAON  ED       R$  000000000520000000000052000000000005200000000000520000000000052000000000004806000000000579000001000000000000000100000000000000520000000000000000009999123100000010000000000000BRPEABACNOR3124
012020050402PEPB34      010PEPSICO INC DRN          R$  000000007268000000000726800000000072100000000007211100000000721000000000000000000000000000000002000000000000000510000000000036776800000000000000009999123100000010000000000000BRPEPBBDR005130
012020050402PETR3       010PETROBRAS   ON      N2   R$  000000000179500000000018310000000001774000000000180300000000018050000000001803000000000180732757000000000017952300000000032377345700000000000000009999123100000010000000000000BRPETRACNOR9190
012020050402PETR4       010PETROBRAS   PN      N2   R$  000000000174300000000017620000000001718000000000173800000000017380000000001738000000000174071306000000000060268400000000104774943500000000000000009999123100000010000000000000BRPETRACNPR6196
012020050402PFIN11      010FIP PERFIN  CI           R$  000000000993000000000101000000000009930000000001003300000000100500000000010050000000001010000029000000000000006699000000000067212635000000000000009999123100000010000000000000BRPFINCTF001100
012020050402PFIZ34      010PFIZER      DRN          R$  000000002094800000000209480000000020948000000002094800000000209480000000020000000000000000000001000000000000000040000000000000837920000000000000009999123100000010000000000000BRPFIZBDR006138
012020050402PFRM3       010PROFARMA    ON      NM   R$  000000000044100000000004630000000000433000000000044500000000004630000000000449000000000046301051000000000000288400000000000128597500000000000000009999123100000010000000000000BRPFRMACNOR1112
012020050402PGCO34      010PG          DRN ED       R$  000000006389100000000641770000000063891000000006389700000000641770000000000000000000000000000002000000000000000920000000000058785440000000000000009999123100000010000000000000BRPGCOBDR001138
012020050402PHMO34      010PHILIP MORRIDRN          R$  000000002021700000000202170000000020217000000002021700000000202170000000000000000000000000000001000000000000000050000000000001010850000000000000009999123100000010000000000000BRPHMOBDR008112
012020050402PIBB11      010IT NOW PIBB CI           R$  000000001310000000000132230000000012973000000001306900000000131660000000013166000000001321103977000000000000095940000000001253862070000000000000009999123100000010000000000000BRPIBBCTF005101
012020050402PINE4       010PINE        PN      N2   R$  000000000027700000000003040000000000267000000000028700000000002960000000000292000000000029601191000000000001027800000000000295934000000000000000009999123100000010000000000000BRPINEACNPR8144
012020050402PMAM3       010PARANAPANEMAON      NM   R$  000000000106800000000010950000000001021000000000104800000000010890000000001089000000000109000636000000000000187300000000000196324900000000000000009999123100000010000000000000BRPMAMACNOR3037
012020050402PNCS34      010PNCFNANCIAL DRN          R$  000000002803900000000280390000000028039000000002803900000000280390000000000000000000000000000001000000000000000010000000000000280390000000000000009999123100000010000000000000BRPNCSBDR008104
012020050402PNVL3       010DIMED       ON           R$  000000000230000000000023950000000002280000000000234100000000023950000000002363000000000239500342000000000000056800000000000132992600000000000000009999123100000010000000000000BRPNVLACNOR9196
012020050402PNVL4       010DIMED       PN           R$  000000000182400000000018670000000001779000000000182400000000018670000000001850000000000186700024000000000000005400000000000009853000000000000000009999123100000010000000000000BRPNVLACNPR6196
012020050402POMO3       010MARCOPOLO   ON      N2   R$  000000000027600000000002840000000000268000000000027600000000002830000000000282000000000028300348000000000000095800000000000026480000000000000000009999123100000010000000000000BRPOMOACNOR0087
012020050402POMO4       010MARCOPOLO   PN      N2   R$  000000000027900000000002950000000000270000000000028500000000002900000000000290000000000029209139000000000007506900000000002143084200000000000000009999123100000010000000000000BRPOMOACNPR7087
012020050402POSI3       010POSITIVO TECON      NM   R$  000000000042900000000004570000000000419000000000043700000000004380000000000437000000000043808973000000000005720400000000002505300700000000000000009999123100000010000000000000BRPOSIACNOR9111
012020050402PPLA11      010PPLA        UNT          R$  000000000135100000000013530000000001198000000000123000000000012550000000001200000000000125500031000000000000009200000000000011320300000000000000009999123100000010000000000000BRPPLAUNT007101
012020050402PRIO3       010PETRORIO    ON      NM   R$  000000000193000000000020090000000001910000000000196000000000019730000000001972000000000197309317000000000002583800000000005064872500000000000000009999123100000010000000000000BRPRIOACNOR1102
012020050402PRNR3       010PRINER      ON      NM   R$  000000000079900000000007990000000000779000000000079200000000007990000000000798000000000079900253000000000000064200000000000050879900000000000000009999123100000010000000000000BRPRNRACNOR4105
012020050402PSSA3       010PORTO SEGUROON      NM   R$  000000000446900000000044810000000004288000000000434500000000042880000000004288000000000430803587000000000000558700000000002428049500000000000000009999123100000010000000000000BRPSSAACNOR7141
012020050402PTBL3       010PORTOBELLO  ON      NM   R$  000000000027200000000002780000000000259000000000026700000000002690000000000269000000000027003206000000000001736100000000000463863100000000000000009999123100000010000000000000BRPTBLACNOR8124
012020050402PTNT4       010PETTENATI   PN           R$  000000000037300000000003740000000000355000000000036100000000003610000000000361000000000036400115000000000000051700000000000018706400000000000000009999123100000010000000000000BRPTNTACNPR3044
012020050402PYPL34      010PAYPAL HOLD DRN          R$  000000003428800000000342880000000034288000000003428800000000342880000000000000000000000000000001000000000000000040000000000001371520000000000000009999123100000010000000000000BRPYPLBDR002101
012020050402QCOM34      010QUALCOMM    DRN          R$  000000004140700000000415310000000041407000000004141600000000415310000000000000000000000000000002000000000000000410000000000016980590000000000000009999123100000010000000000000BRQCOMBDR007133
012020050402QUAL3       010QUALICORP   ON  ED  NM   R$  000000000250000000000025130000000002389000000000243800000000024530000000002453000000000245713589000000000002626100000000006404179400000000000000009999123100000010000000000000BRQUALACNOR6113
012020050402R1IN34      010REALTY INCOMDRN ED       R$  000000001435000000000143500000000014080000000001428500000000140800000000000000000000000000000006000000000000000640000000000009142450000000000000009999123100000010000000000000BRR1INBDR000104
012020050402RADL3       010RAIADROGASILON      NM   R$  000000001034400000000104560000000010173000000001031600000000104560000000010402000000001045610361000000000001767000000000018229452300000000000000009999123100000010000000000000BRRADLACNOR0135
012020050402RAIL3       010RUMO S.A.   ON      NM   R$  000000000189600000000019750000000001877000000000192500000000019700000000001969000000000197021688000000000006502400000000012521768900000000000000009999123100000010000000000000BRRAILACNOR9101
012020050402RANI3       010IRANI       ON  ED       R$  000000000030800000000003080000000000297000000000030200000000002990000000000299000000000030500022000000000000002600000000000000785700000000000000009999123100000010000000000000BRRANIACNOR5052
012020050402RANI4       010IRANI       PN  ED       R$  000000000051500000000005150000000000503000000000050800000000005150000000000500000000000051500022000000000000004500000000000002287300000000000000009999123100000010000000000000BRRANIACNPR2053
012020050402RAPT3       010RANDON PART ON      N1   R$  000000000075000000000007500000000000716000000000073300000000007320000000000732000000000075600082000000000000020200000000000014820300000000000000009999123100000010000000000000BRRAPTACNOR7152
012020050402RAPT4       010RANDON PART PN      N1   R$  000000000082200000000008550000000000806000000000082700000000008210000000000821000000000082214828000000000003704900000000003065804300000000000000009999123100000010000000000000BRRAPTACNPR4152
012020050402RCSL3       010RECRUSUL    ON           R$  000000000019200000000001940000000000183000000000018500000000001850000000000184000000000018500037000000000000009400000000000001744800000000000000009999123100000010000000000000BRRCSLACNOR4130
012020050402RCSL4       010RECRUSUL    PN           R$  000000000013400000000001370000000000130000000000013200000000001330000000000132000000000013301045000000000000364600000000000048251700000000000000009999123100000010000000000000BRRCSLACNPR1130
012020050402RDNI3       010RNI         ON  ED  NM   R$  000000000065000000000007050000000000650000000000069000000000006850000000000685000000000070100089000000000000019200000000000013266200000000000000009999123100000010000000000000BRRDNIACNOR9113
012020050402RDSA34      010RD SHELL    DRN          R$  000000001772000000000179600000000017720000000001790000000000179600000000017942000000000000000002000000000000000080000000000001432000000000000000009999123100000010000000000000BRRDSABDR009102
012020050402REDE3       010REDE ENERGIAON           R$  000000000100200000000010020000000001002000000000100200000000010020000000000995000000000100400006000000000000005000000000000005010000000000000000009999123100000010000000000000BRREDEACNOR7114
012020050402RENT3       010LOCALIZA    ON      NM   R$  000000000332400000000034050000000003243000000000330800000000033410000000003341000000000334227835000000000006624300000000021916812700000000000000009999123100000010000000000000BRRENTACNOR4177
012020050402RIGG34      010TRANSOCEAN  DRN          R$  000000000065900000000006590000000000659000000000065900000000006590000000000659000000000083600001000000000000000100000000000000065900000000000000009999123100000010000000000000BRRIGGBDR000100
012020050402RLOG3       010COSAN LOG   ON      NM   R$  000000000151500000000015810000000001458000000000151400000000015810000000001551000000000158403333000000000000569200000000000862062200000000000000009999123100000010000000000000BRRLOGACNOR4106
012020050402ROMI3       010INDS ROMI   ON      NM   R$  000000000106500000000010860000000001025000000000105100000000010510000000001051000000000106501142000000000000267200000000000280891300000000000000009999123100000010000000000000BRROMIACNOR8172
012020050402RPAD3       010ALFA HOLDINGON           R$  000000000048900000000005450000000000489000000000049700000000005450000000000491000000000054400006000000000000000700000000000000348300000000000000009999123100000010000000000000BRRPADACNOR1197
012020050402RSID3       010ROSSI RESID ON      NM   R$  000000000040200000000004020000000000378000000000038900000000004000000000000391000000000040000274000000000000111900000000000043573300000000000000009999123100000010000000000000BRRSIDACNOR8119
012020050402RYTT34      010RAYTHEONTECHDRN          R$  000000003266900000000326690000000032369000000003249800000000323690000000000000000000000000000003000000000000008440000000000274291360000000000000009999123100000010000000000000BRRYTTBDR003100
012020050402S1LG34      010SL GREEN READRN ED       R$  000000001313500000000131350000000013135000000001313500000000131350000000000000000000000000000001000000000000000100000000000001313500000000000000009999123100000010000000000000BRS1LGBDR007102
012020050402SANB3       010SANTANDER BRON           R$  000000000125000000000012690000000001190000000000122300000000012300000000001230000000000124000701000000000000153000000000000187170900000000000000009999123100000010000000000000BRSANBACNOR8151
012020050402SANB4       010SANTANDER BRPN           R$  000000000138700000000013870000000001326000000000134000000000013480000000001348000000000136100775000000000000162100000000000217307000000000000000009999123100000010000000000000BRSANBACNPR5151
012020050402SANB11      010SANTANDER BRUNT          R$  000000000260000000000026140000000002524000000000256000000000025740000000002571000000000257910762000000000002449600000000006272678000000000000000009999123100000010000000000000BRSANBCDAM13144
012020050402SAPR3       010SANEPAR     ON      N2   R$  000000000052000000000005650000000000500000000000053900000000005650000000000536000000000056501080000000000000294000000000000158527900000000000000009999123100000010000000000000BRSAPRACNOR9149
