00COTAHIST.2020BOVESPA 20200427                                                                                                                                                                                                                      
012020042702A1KA34      010AKAMAI TECHNDRN          R$  000000002915400000000291540000000029154000000002915400000000291540000000000000000000000000000001000000000000000970000000000028279380000000000000009999123100000010000000000000BRA1KABDR002100
012020042702A1LG34      010ALIGN TECHNODRN          R$  000000002778000000000277800000000027780000000002778000000000277800000000000000000000000000000001000000000000000200000000000005556000000000000000009999123100000010000000000000BRA1LGBDR007100
012020042702A1LK34      010ALASKA AIR GDRN          R$  000000001610000000000161000000000016100000000001610000000000161000000000000000000000000000000002000000000000000030000000000000483000000000000000009999123100000010000000000000BRA1LKBDR009101
012020042702A1LX34      010ALEXION PHARDRN          R$  000000003155900000000315590000000031559000000003155900000000315590000000000000000000000000000001000000000000000890000000000028087510000000000000009999123100000010000000000000BRA1LXBDR002100
012020042702A1MB34      010AMERISOURCEBDRN          R$  000000002565000000000256500000000025650000000002565000000000256500000000025650000000000000000001000000000000000010000000000000256500000000000000009999123100000010000000000000BRA1MBBDR006101
012020042702A1MD34      010ADVANCED MICDRN          R$  000000003249000000000324900000000032490000000003249000000000324900000000030500000000000000000001000000000000000400000000000012996000000000000000009999123100000010000000000000BRA1MDBDR002100
012020042702A1PA34      010APACHE CORP DRN ED       R$  000000000581000000000060800000000005810000000000595500000000060800000000000000000000000000000004000000000000000730000000000004347800000000000000009999123100000010000000000000BRA1PABDR001102
012020042702AALL34      010AMERICAN AIRDRN          R$  000000000586000000000058600000000005700000000000585500000000057000000000005500000000000669600003000000000000000420000000000002459230000000000000009999123100000010000000000000BRAALLBDR003115
012020042702AALR3       010ALLIAR      ON      NM   R$  000000000105000000000010750000000001023000000000105000000000010630000000001063000000000107001055000000000000214700000000000225601400000000000000009999123100000010000000000000BRAALRACNOR6101
012020042702AAPL34      010APPLE       DRN          R$  000000001611000000000162530000000015881000000001610000000000162530000000016068000000001625300033000000000000009810000000000157944040000000000000009999123100000010000000000000BRAAPLBDR004132
012020042702ABBV34      010ABBVIE      DRN          R$  000000004806000000000480660000000048060000000004806200000000480660000000000000000000000000000003000000000000000210000000000010093200000000000000009999123100000010000000000000BRABBVBDR001117
012020042702ABCB4       010ABC BRASIL  PN      N2   R$  000000000134700000000013890000000001331000000000135900000000013470000000001346000000000135503708000000000000605700000000000823430200000000000000009999123100000010000000000000BRABCBACNPR4133
012020042702ABEV3       010AMBEV S/A   ON           R$  000000000113500000000011840000000001126000000000116600000000011610000000001161000000000116746247000000000026166300000000030510060900000000000000009999123100000010000000000000BRABEVACNOR1122
012020042702ACNB34      010ACCENTURE   DRN ED       R$  000000010086200000001028000000000100862000000010107200000001028000000000000000000000000000000002000000000000000460000000000046493420000000000000009999123100000010000000000000BRACNBBDR006111
012020042702ADBE34      010ADOBE INC   DRN          R$  000000003960000000000396000000000039600000000003960000000000396000000000000000000000000000000001000000000000000830000000000032868000000000000000009999123100000010000000000000BRADBEBDR003100
012020042702ADHM3       010ADVANCED-DH ON           R$  000000000024100000000002580000000000236000000000024600000000002490000000000249000000000025200085000000000000034900000000000008605700000000000000009999123100000010000000000000BRADHMACNOR9102
012020042702AFLT3       010AFLUENTE T  ON           R$  000000000072200000000007900000000000691000000000074700000000007050000000000705000000000078800049000000000000012500000000000009339100000000000000009999123100000010000000000000BRAFLTACNOR1114
012020042702AGRO3       010BRASILAGRO  ON      NM   R$  000000000190400000000020000000000001880000000000194800000000019230000000001918000000000192300951000000000000218000000000000424743000000000000000009999123100000010000000000000BRAGROACNOR7109
012020042702ALPA3       010ALPARGATAS  ON      N1   R$  000000000227500000000022750000000002131000000000218500000000022000000000002190000000000226900012000000000000002100000000000004589500000000000000009999123100000010000000000000BRALPAACNOR0229
012020042702ALPA4       010ALPARGATAS  PN      N1   R$  000000000264700000000027370000000002613000000000267300000000027030000000002690000000000270307249000000000001441400000000003854130600000000000000009999123100000010000000000000BRALPAACNPR7229
012020042702ALSO3       010ALIANSCSONAEON      NM   R$  000000000259000000000026590000000002476000000000260300000000026590000000002650000000000265907236000000000001631900000000004247916900000000000000009999123100000010000000000000BRALSOACNOR5100
012020042702ALUP3       010ALUPAR      ON      N2   R$  000000000096900000000010100000000000953000000000098500000000010020000000000960000000000100200095000000000000016400000000000016160700000000000000009999123100000010000000000000BRALUPACNOR8110
012020042702ALUP4       010ALUPAR      PN      N2   R$  000000000064800000000006800000000000648000000000066800000000006780000000000678000000000068000134000000000000030800000000000020600700000000000000009999123100000010000000000000BRALUPACNPR5110
012020042702ALUP11      010ALUPAR      UNT     N2   R$  000000000226600000000023460000000002250000000000232200000000023300000000002330000000000233303939000000000001700700000000003949916400000000000000009999123100000010000000000000BRALUPCDAM15110
012020042702AMAR3       010LOJAS MARISAON      NM   R$  000000000061200000000006240000000000575000000000059200000000005860000000000586000000000058712837000000000008191200000000004851987700000000000000009999123100000010000000000000BRAMARACNOR4112
012020042702AMGN34      010AMGEN       DRN          R$  000000013694300000001369430000000136943000000013694300000001369430000000000000000000000000000001000000000000000200000000000027388600000000000000009999123100000010000000000000BRAMGNBDR004133
012020042702AMZO34      010AMAZON      DRN          R$  000000068660000000006866000000000677000000000068182000000006812060000000674500000000000000000011000000000000000330000000000225000920000000000000009999123100000010000000000000BRAMZOBDR002101
012020042702ANIM3       010ANIMA       ON      NM   R$  000000000196600000000019870000000001889000000000195400000000019750000000001952000000000197502133000000000000419700000000000820349900000000000000009999123100000010000000000000BRANIMACNOR6106
012020042702APER3       010ALPER S.A.  ON      NM   R$  000000000218900000000021890000000001976000000000205900000000019760000000001976000000000200000245000000000000080500000000000165817400000000000000009999123100000010000000000000BRAPERACNOR9101
012020042702ARZZ3       010AREZZO CO   ON      NM   R$  000000000440200000000044370000000004230000000000429800000000042600000000004260000000000426103001000000000000523900000000002251843500000000000000009999123100000010000000000000BRARZZACNOR3137
012020042702ASML34      010ASML HOLD   DRN ED       R$  000000016840000000001684000000000168400000000016840000000001684000000000000000000000000000000001000000000000000020000000000003368000000000000000009999123100000010000000000000BRASMLBDR003102
012020042702ATOM3       010ATOMPAR     ON           R$  000000000013800000000001390000000000130000000000013300000000001310000000000131000000000013200048000000000000035100000000000004700600000000000000009999123100000010000000000000BRATOMACNOR1103
012020042702ATTB34      010ATT INC     DRN          R$  000000001690000000000175810000000016820000000001744700000000175810000000000000000000000000000007000000000000000630000000000010991870000000000000009999123100000010000000000000BRATTBBDR007131
012020042702ATVI34      010ACTIVISION  DRN          R$  000000003790000000000379000000000037900000000003790000000000379000000000000000000000000000000001000000000000000050000000000001895000000000000000009999123100000010000000000000BRATVIBDR008101
012020042702AZEV3       010AZEVEDO     ON           R$  000000000041000000000004100000000000356000000000038100000000003720000000000372000000000039800055000000000000015700000000000005993500000000000000009999123100000010000000000000BRAZEVACNOR0117
012020042702AZEV4       010AZEVEDO     PN           R$  000000000030200000000003200000000000275000000000028800000000002890000000000282000000000028400152000000000000048400000000000013971700000000000000009999123100000010000000000000BRAZEVACNPR7117
012020042702AZUL4       010AZUL        PN      N2   R$  000000000146100000000014740000000001389000000000141500000000014110000000001410000000000141129234000000000009771800000000013830888100000000000000009999123100000010000000000000BRAZULACNPR4100
012020042702B1MR34      010BIOMARIN PHADRN          R$  000000002804900000000280490000000028049000000002804900000000280490000000000000000000000000000001000000000000001120000000000031414880000000000000009999123100000010000000000000BRB1MRBDR001100
012020042702B3SA3       010B3          ON      NM   R$  000000000380000000000039580000000003786000000000388300000000039230000000003921000000000392355470000000000019189500000000074528418200000000000000009999123100000010000000000000BRB3SAACNOR6110
012020042702BABA34      010ALIBABAGR   DRN          R$  000000011660000000001169000000000115708000000011596300000001166000000000000000000000000000000007000000000000000430000000000049864480000000000000009999123100000010000000000000BRBABABDR005100
012020042702BAHI3       010BAHEMA      ON      MA   R$  000000000618300000000068000000000006181000000000645600000000067990000000006210000000000680000008000000000000000800000000000005165400000000000000009999123100000010000000000000BRBAHIACNOR1071
012020042702BALM4       010BAUMER      PN           R$  000000000108600000000010990000000000980000000000101000000000010450000000001000000000000104500036000000000000007300000000000007378300000000000000009999123100000010000000000000BRBALMACNPR2050
012020042702BAUH4       010EXCELSIOR   PN           R$  000000000795000000000081470000000007950000000000809300000000081230000000007000000000000813100005000000000000000500000000000004046600000000000000009999123100000010000000000000BRBAUHACNPR3114
012020042702BAZA3       010AMAZONIA    ON           R$  000000000287500000000029000000000002875000000000288100000000029000000000002835000000000299800007000000000000008400000000000024201300000000000000009999123100000010000000000000BRBAZAACNOR0174
012020042702BBAS3       010BRASIL      ON      NM   R$  000000000255000000000026200000000002511000000000256700000000025690000000002566000000000256971172000000000032132800000000082495984600000000000000009999123100000010000000000000BRBBASACNOR3291
012020042702BBDC3       010BRADESCO    ON      N1   R$  000000000167300000000017330000000001633000000000166900000000016450000000001645000000000166016928000000000006515700000000010877982600000000000000009999123100000010000000000000BRBBDCACNOR1710
012020042702BBDC4       010BRADESCO    PN      N1   R$  000000000186400000000019060000000001815000000000185100000000018360000000001836000000000183769795000000000043960400000000081406351700000000000000009999123100000010000000000000BRBBDCACNPR8710
012020042702BBRK3       010BR BROKERS  ON      NM   R$  000000000022400000000002590000000000220000000000024100000000002490000000000248000000000024900535000000000000342800000000000082940300000000000000009999123100000010000000000000BRBBRKACNOR4113
012020042702BBSD11      010BB ETF SP DVCI           R$  000000000661200000000066120000000006410000000000647000000000064860000000006390000000000656000011000000000000000290000000000001876560000000000000009999123100000010000000000000BRBBSDCTF000100
012020042702BBSE3       010BBSEGURIDADEON      NM   R$  000000000247500000000026170000000002475000000000253800000000025300000000002530000000000253320127000000000004433700000000011255082700000000000000009999123100000010000000000000BRBBSEACNOR5116
012020042702BCSA34      010SANTANDER   DRN          R$  000000000120700000000012070000000001155000000000118700000000011910000000001172000000000119200051000000000000009450000000000011225130000000000000009999123100000010000000000000BRBCSABDR005101
012020042702BEEF3       010MINERVA     ON      NM   R$  000000000103000000000011330000000001025000000000109800000000011230000000001120000000000112320613000000000010634200000000011680686400000000000000009999123100000010000000000000BRBEEFACNOR6108
012020042702BEES3       010BANESTES    ON           R$  000000000049000000000005100000000000480000000000049500000000004990000000000499000000000050000075000000000000018600000000000009223900000000000000009999123100000010000000000000BRBEESACNOR9336
012020042702BEES4       010BANESTES    PN           R$  000000000050900000000005090000000000462000000000048200000000004940000000000493000000000049400044000000000000009100000000000004394500000000000000009999123100000010000000000000BRBEESACNPR6261
012020042702BERK34      010BERKSHIRE   DRN          R$  000000010630000000001081610000000105500000000010591800000001081610000000104000000000000000000021000000000000003900000000000413081150000000000000009999123100000010000000000000BRBERKBDR002100
012020042702BGIP4       010BANESE      PN           R$  000000000229700000000023990000000002297000000000234800000000023990000000002290000000000239900002000000000000000200000000000000469600000000000000009999123100000010000000000000BRBGIPACNPR8198
012020042702BIDI3       010BANCO INTER ON      N2   R$  000000000095400000000009580000000000902000000000092900000000009240000000000924000000000093000813000000000000177300000000000164856700000000000000009999123100000010000000000000BRBIDIACNOR3105
012020042702BIDI4       010BANCO INTER PN      N2   R$  000000000092100000000009490000000000902000000000092400000000009300000000000928000000000093004306000000000001446500000000001336879300000000000000009999123100000010000000000000BRBIDIACNPR0109
012020042702BIDI11      010BANCO INTER UNT     N2   R$  000000000281900000000028560000000002696000000000276600000000027820000000002782000000000278803553000000000000708900000000001961381500000000000000009999123100000010000000000000BRBIDICDAXX3104
012020042702BIOM3       010BIOMM       ON      MA   R$  000000000102900000000010590000000000971000000000101000000000010000000000001000000000000102300079000000000000022400000000000022627300000000000000009999123100000010000000000000BRBIOMACNOR2107
012020042702BKBR3       010BK BRASIL   ON      NM   R$  000000000085600000000008980000000000832000000000086700000000008800000000000879000000000088004159000000000000829100000000000719321000000000000000009999123100000010000000000000BRBKBRACNOR4103
012020042702BKNG34      010BOOKING     DRN          R$  000000003150000000000315000000000031500000000003150000000000315000000000027500000000000000000001000000000000000010000000000000315000000000000000009999123100000010000000000000BRBKNGBDR006100
012020042702BLAK34      010BLACKROCK   DRN          R$  000000004669900000000466990000000046650000000004667400000000466500000000000000000000000000000002000000000000000020000000000000933490000000000000009999123100000010000000000000BRBLAKBDR003116
012020042702BMEB3       010MERC BRASIL ON           R$  000000000135000000000013500000000001350000000000135000000000013500000000001351000000000143000002000000000000000200000000000000270000000000000000009999123100000010000000000000BRBMEBACNOR8196
012020042702BMEB4       010MERC BRASIL PN           R$  000000000106800000000011110000000001020000000000109900000000011090000000001091000000000111000016000000000000002600000000000002859400000000000000009999123100000010000000000000BRBMEBACNPR5201
012020042702BMGB4       010BANCO BMG   PN      N1   R$  000000000047600000000004800000000000459000000000046800000000004680000000000467000000000046801077000000000000610400000000000286111100000000000000009999123100000010000000000000BRBMGBACNPR0101
012020042702BMIN4       010MERC INVEST PN           R$  000000000168700000000016870000000001550000000000163500000000015500000000001510000000000155000003000000000000000300000000000000490700000000000000009999123100000010000000000000BRBMINACNPR1171
012020042702BMKS3       010BIC MONARK  ON           R$  000000001845000000000185000000000018450000000001847500000000185000000000018400000000001850000002000000000000000002000000000000036950000000000000009999123100000010000000000000BRBMKSACNOR9161
012020042702BMYB34      010BRISTOLMYERSDRN          R$  000000003550000000000355000000000035500000000003550000000000355000000000000000000000000000000001000000000000000180000000000006390000000000000000009999123100000010000000000000BRBMYBBDR000126
012020042702BNBR3       010NORD BRASIL ON           R$  000000000776700000000077670000000007122000000000744400000000071220000000007130000000000760000002000000000000000200000000000001488900000000000000009999123100000010000000000000BRBNBRACNOR8200
012020042702BOAC34      010BANK AMERICADRN          R$  000000001305300000000135110000000013053000000001312300000000135110000000012500000000000000000005000000000000006900000000000090553660000000000000009999123100000010000000000000BRBOACBDR004138
012020042702BOBR4       010BOMBRIL     PN           R$  000000000017400000000001750000000000170000000000017100000000001700000000000170000000000017200047000000000000026400000000000004521200000000000000009999123100000010000000000000BRBOBRACNPR3128
012020042702BOVA11      010ISHARES BOVACI           R$  000000000742800000000075800000000007350000000000750200000000075290000000007522000000000752930920000000000030097830000000225796823000000000000000009999123100000010000000000000BRBOVACTF003104
012020042702BOVB11      010ETF BRAD BOVCI           R$  000000000774500000000078560000000007629000000000777300000000078290000000007510000000000782900501000000000000479980000000003731221710000000000000009999123100000010000000000000BRBOVBCTF001100
012020042702BOVV11      010IT NOW IBOV CI           R$  000000000778900000000079000000000007666000000000782200000000078540000000007850000000000785402084000000000001718170000000013439753400000000000000009999123100000010000000000000BRBOVVCTF009100
012020042702BPAC3       010BTGP BANCO  ON      N2   R$  000000000210000000000021000000000002098000000000209900000000021000000000002051000000000219000010000000000000001600000000000003358800000000000000009999123100000010000000000000BRBPACACNOR7121
012020042702BPAC5       010BTGP BANCO  PNA     N2   R$  000000000114400000000011450000000001080000000000109000000000011400000000001120000000000114500028000000000000008200000000000008944100000000000000009999123100000010000000000000BRBPACACNPA0121
012020042702BPAC11      010BTGP BANCO  UNT     N2   R$  000000000385000000000040330000000003688000000000387700000000040150000000004007000000000401518732000000000005020300000000019467043500000000000000009999123100000010000000000000BRBPACUNT006106
012020042702BPAN4       010BANCO PAN   PN      N1   R$  000000000051100000000005210000000000483000000000049900000000005100000000000510000000000051109249000000000003858600000000001929249700000000000000009999123100000010000000000000BRBPANACNPR1108
012020042702BRAP3       010BRADESPAR   ON      N1   R$  000000000265100000000026950000000002650000000000267500000000026620000000002662000000000268500080000000000000012800000000000034250600000000000000009999123100000010000000000000BRBRAPACNOR5136
012020042702BRAP4       010BRADESPAR   PN      N1   R$  000000000299700000000030630000000002977000000000303100000000030300000000003028000000000303009989000000000002177200000000006601094200000000000000009999123100000010000000000000BRBRAPACNPR2136
012020042702BRAX11      010ISHARES BRAXCI           R$  000000000644200000000065550000000006440000000000650600000000065550000000006250000000000655500015000000000000000620000000000004033790000000000000009999123100000010000000000000BRBRAXCTF002100
012020042702BRDT3       010PETROBRAS BRON      NM   R$  000000000175500000000018700000000001745000000000182500000000018250000000001825000000000182939167000000000009555300000000017440611400000000000000009999123100000010000000000000BRBRDTACNOR1119
012020042702BRFS3       010BRF SA      ON      NM   R$  000000000190000000000020620000000001884000000000199300000000020560000000002056000000000205831187000000000012417300000000024750653700000000000000009999123100000010000000000000BRBRFSACNOR8119
012020042702BRGE12      010ALFA CONSORCPNF          R$  000000000042600000000004300000000000426000000000042800000000004300000000000429000000000056500002000000000000000200000000000000085600000000000000009999123100000010000000000000BRBRGEACNPF8096
012020042702BRIV4       010ALFA INVEST PN           R$  000000000067600000000006760000000000676000000000067600000000006760000000000683000000000072900003000000000000000400000000000000270400000000000000009999123100000010000000000000BRBRIVACNPR3210
012020042702BRKM3       010BRASKEM     ON      N1   R$  000000000203200000000021890000000001904000000000206600000000021890000000002189000000000219000132000000000000026700000000000055181400000000000000009999123100000010000000000000BRBRKMACNOR1117
012020042702BRKM5       010BRASKEM     PNA     N1   R$  000000000198000000000021590000000001946000000000208900000000021490000000002146000000000214920780000000000006149700000000012852685200000000000000009999123100000010000000000000BRBRKMACNPA4117
012020042702BRML3       010BR MALLS PARON      NM   R$  000000000095700000000009700000000000931000000000095300000000009550000000000954000000000095529045000000000010756200000000010258886800000000000000009999123100000010000000000000BRBRMLACNOR9115
012020042702BRPR3       010BR PROPERT  ON  ED  NM   R$  000000000088200000000008880000000000846000000000086200000000008680000000000868000000000087110599000000000004065200000000003506954700000000000000009999123100000010000000000000BRBRPRACNOR9119
012020042702BRSR3       010BANRISUL    ON      N1   R$  000000000145000000000014750000000001401000000000142300000000014490000000001414000000000144700030000000000000006200000000000008824400000000000000009999123100000010000000000000BRBRSRACNOR3167
012020042702BRSR6       010BANRISUL    PNB     N1   R$  000000000122400000000012360000000001192000000000121300000000012170000000001214000000000121704816000000000001698800000000002061952800000000000000009999123100000010000000000000BRBRSRACNPB4170
012020042702BRZP11      010FIP BRZ IE  CI           R$  000000007250000000000774990000000072500000000007718300000000774990000000076000000000007749900013000000000000000038000000000002932977000000000000009999123100000010000000000000BRBRZPCTF005101
012020042702BSEV3       010BIOSEV      ON      NM   R$  000000000027500000000002900000000000275000000000028100000000002850000000000285000000000028700070000000000000027900000000000007846200000000000000009999123100000010000000000000BRBSEVACNOR3102
012020042702BTOW3       010B2W DIGITAL ON      NM   R$  000000000717200000000075770000000007170000000000743600000000075190000000007501000000000751920732000000000004124000000000030670171900000000000000009999123100000010000000000000BRBTOWACNOR8110
012020042702C1BL34      010CHUBB LTD   DRN          R$  000000001528000000000152800000000015280000000001528000000000152800000000000000000000000000000001000000000000000040000000000000611200000000000000009999123100000010000000000000BRC1BLBDR006101
012020042702C1CL34      010CARNIVAL CORDRN          R$  000000000732000000000073200000000007266000000000730700000000072660000000000000000000000000000003000000000000000430000000000003142200000000000000009999123100000010000000000000BRC1CLBDR004101
012020042702CAMB3       010CAMBUCI     ON           R$  000000000023700000000002500000000000230000000000024000000000002380000000000238000000000024000177000000000000139400000000000033556800000000000000009999123100000010000000000000BRCAMBACNOR4119
012020042702CAML3       010CAMIL       ON      NM   R$  000000000081000000000008870000000000798000000000085600000000008850000000000875000000000088505786000000000001628700000000001395239000000000000000009999123100000010000000000000BRCAMLACNOR3109
012020042702CARD3       010CSU CARDSYSTON      NM   R$  000000000093600000000009550000000000895000000000092500000000008950000000000890000000000089500492000000000000155000000000000143378900000000000000009999123100000010000000000000BRCARDACNOR9117
012020042702CCPR3       010CYRE COM-CCPON      NM   R$  000000000148500000000014850000000001425000000000144900000000014600000000001456000000000146000543000000000000318300000000000461500300000000000000009999123100000010000000000000BRCCPRACNOR9113
012020042702CCRO3       010CCR SA      ON      NM   R$  000000000123200000000012600000000001203000000000123400000000012310000000001231000000000123221506000000000008252800000000010189346700000000000000009999123100000010000000000000BRCCROACNOR2137
012020042702CEAB3       010CEA MODAS   ON      NM   R$  000000000086500000000008670000000000796000000000082100000000008000000000000800000000000081307414000000000002360400000000001939758100000000000000009999123100000010000000000000BRCEABACNOR1101
012020042702CEBR3       010CEB         ON           R$  000000000540000000000054000000000005400000000000540000000000054000000000004500000000000544500001000000000000002900000000000015660000000000000000009999123100000010000000000000BRCEBRACNOR5117
012020042702CEDO4       010CEDRO       PN      N1   R$  000000000043200000000004550000000000420000000000043200000000004500000000000431000000000046500007000000000000001500000000000000648800000000000000009999123100000010000000000000BRCEDOACNPR5128
012020042702CESP3       010CESP        ON      N1   R$  000000000271200000000027120000000002623000000000266300000000026790000000002626000000000268000083000000000000016000000000000042613600000000000000009999123100000010000000000000BRCESPACNOR3169
012020042702CESP6       010CESP        PNB     N1   R$  000000000263500000000026640000000002544000000000260600000000026490000000002644000000000264911929000000000004345500000000011325006700000000000000009999123100000010000000000000BRCESPACNPB4128
012020042702CGAS3       010COMGAS      ON           R$  000000001449900000000145000000000014499000000001449900000000145000000000014500000000001550000002000000000000000200000000000002899900000000000000009999123100000010000000000000BRCGASACNOR0151
012020042702CGAS5       010COMGAS      PNA          R$  000000001635000000000163500000000015470000000001601200000000162000000000015500000000001620000019000000000000002300000000000036827600000000000000009999123100000010000000000000BRCGASACNPA3148
012020042702CGRA3       010GRAZZIOTIN  ON           R$  000000000225300000000022720000000002212000000000224400000000022120000000002211000000000227100043000000000000008700000000000019530400000000000000009999123100000010000000000000BRCGRAACNOR2071
012020042702CGRA4       010GRAZZIOTIN  PN           R$  000000000249900000000024990000000002380000000000243400000000024500000000002415000000000247000068000000000000014600000000000035536600000000000000009999123100000010000000000000BRCGRAACNPR9071
012020042702CHCM34      010CHARTER COMMDRN          R$  000000005769800000000576980000000057698000000005769800000000576980000000000000000000000000000001000000000000004330000000000249832340000000000000009999123100000010000000000000BRCHCMBDR001100
012020042702CHKE34      010CHESAPEAKE  DRN EG       R$  000000001640000000000164000000000015056000000001517800000000150560000000015056000000002640000003000000000000000110000000000001669600000000000000009999123100000010000000000000BRCHKEBDR001101
012020042702CHVX34      010CHEVRON     DRN          R$  000000002583800000000258380000000025838000000002583800000000258380000000000000000000000000000001000000000000000230000000000005942740000000000000009999123100000010000000000000BRCHVXBDR008136
012020042702CIEL3       010CIELO       ON      NM   R$  000000000041400000000004230000000000398000000000040900000000004110000000000411000000000041221677000000000026555000000000010877320400000000000000009999123100000010000000000000BRCIELACNOR3142
012020042702CLSC4       010CELESC      PN      N2   R$  000000000360100000000036010000000003512000000000356500000000035990000000003550000000000360000030000000000000003700000000000013192600000000000000009999123100000010000000000000BRCLSCACNPR3114
012020042702CMCS34      010COMCAST     DRN          R$  000000002163300000000219690000000021633000000002171600000000219690000000000000000000000000000003000000000000003740000000000081220380000000000000009999123100000010000000000000BRCMCSBDR008134
012020042702CMIG3       010CEMIG       ON      N1   R$  000000000091500000000009200000000000881000000000090000000000009040000000000901000000000090406499000000000002114600000000001903390700000000000000009999123100000010000000000000BRCMIGACNOR6223
012020042702CMIG4       010CEMIG       PN      N1   R$  000000000091100000000009120000000000873000000000088800000000008820000000000881000000000088230217000000000018224200000000016197179200000000000000009999123100000010000000000000BRCMIGACNPR3224
012020042702CNTO3       010CENTAURO    ON      NM   R$  000000000289000000000029640000000002745000000000282300000000028540000000002850000000000285508850000000000002033000000000005739768000000000000000009999123100000010000000000000BRCNTOACNOR5100
012020042702COCE5       010COELCE      PNA          R$  000000000486100000000048750000000004738000000000480200000000048000000000004791000000000480000118000000000000050500000000000242528500000000000000009999123100000010000000000000BRCOCEACNPA3139
012020042702COGN3       010COGNA ON    ON      NM   R$  000000000047800000000004820000000000455000000000046400000000004600000000000460000000000046143414000000000038809100000000018031995800000000000000009999123100000010000000000000BRCOGNACNOR2101
012020042702COWC34      010COSTCO      DRN          R$  000000004375000000000442480000000043750000000004417200000000442480000000033969000000000000000003000000000000001530000000000067584120000000000000009999123100000010000000000000BRCOWCBDR006117
012020042702CPFE3       010CPFL ENERGIAON      NM   R$  000000000281500000000029890000000002815000000000293600000000029670000000002962000000000296711477000000000003848600000000011301492400000000000000009999123100000010000000000000BRCPFEACNOR0129
012020042702CPLE3       010COPEL       ON      N1   R$  000000000517200000000053830000000005160000000000529100000000052910000000005282000000000531501294000000000000241900000000001279939000000000000000009999123100000010000000000000BRCPLEACNOR8139
012020042702CPLE6       010COPEL       PNB     N1   R$  000000000537700000000055760000000005372000000000544800000000054110000000005411000000000542006606000000000001268500000000006911319200000000000000009999123100000010000000000000BRCPLEACNPB9136
012020042702CPRE3       010CPFL RENOVAVON      NM   R$  000000000159500000000016000000000001595000000000159700000000016000000000001550000000000162000002000000000000000200000000000000319500000000000000009999123100000010000000000000BRCPREACNOR5102
012020042702CRDE3       010CR2         ON           R$  000000000220000000000023440000000002200000000000225400000000023440000000002100000000000234500003000000000000000300000000000000676300000000000000009999123100000010000000000000BRCRDEACNOR1111
012020042702CRFB3       010CARREFOUR BRON      NM   R$  000000000204900000000020550000000001996000000000202200000000020130000000002013000000000202411064000000000003998700000000008088967700000000000000009999123100000010000000000000BRCRFBACNOR2105
012020042702CRIV3       010ALFA FINANC ON           R$  000000000043000000000006700000000000430000000000058900000000005450000000000545000000000057000177000000000000033200000000000019566200000000000000009999123100000010000000000000BRCRIVACNOR4194
012020042702CRIV4       010ALFA FINANC PN           R$  000000000061000000000006470000000000603000000000061400000000006030000000000599000000000062000005000000000000000500000000000000307300000000000000009999123100000010000000000000BRCRIVACNPR1203
012020042702CRPG5       010CRISTAL     PNA          R$  000000000222000000000022930000000002205000000000226000000000022500000000002250000000000229300036000000000000012400000000000028025600000000000000009999123100000010000000000000BRCRPGACNPA3107
012020042702CRPG6       010CRISTAL     PNB          R$  000000000219700000000022750000000002197000000000221600000000022590000000002205000000000229000012000000000000001900000000000004211000000000000000009999123100000010000000000000BRCRPGACNPB1107
012020042702CSAN3       010COSAN       ON      NM   R$  000000000577700000000060130000000005737000000000591000000000059120000000005910000000000591209323000000000002784900000000016459274900000000000000009999123100000010000000000000BRCSANACNOR6119
012020042702CSMG3       010COPASA      ON      NM   R$  000000000470000000000048770000000004670000000000480900000000048770000000004848000000000487703291000000000000572900000000002755588400000000000000009999123100000010000000000000BRCSMGACNOR5155
012020042702CSNA3       010SID NACIONALON           R$  000000000072600000000007290000000000695000000000071900000000007250000000000724000000000072516684000000000013778300000000009910881100000000000000009999123100000010000000000000BRCSNAACNOR6251
012020042702CTGP34      010CITIGROUP   DRN          R$  000000002652900000000267400000000026528000000002656100000000267400000000000000000000000000000003000000000000000830000000000022045810000000000000009999123100000010000000000000BRCTGPBDR000137
012020042702CTNM4       010COTEMINAS   PN           R$  000000000049800000000004980000000000470000000000048000000000004910000000000487000000000049300061000000000000018000000000000008644700000000000000009999123100000010000000000000BRCTNMACNPR6129
012020042702CTSA3       010SANTANENSE  ON           R$  000000000040000000000004380000000000383000000000039400000000004350000000000400000000000043800007000000000000001400000000000000551800000000000000009999123100000010000000000000BRCTSAACNOR3059
012020042702CTSH34      010COGNIZANT   DRN          R$  000000003132000000000320000000000031320000000003159100000000320000000000000000000000000000000006000000000000000700000000000022114000000000000000009999123100000010000000000000BRCTSHBDR002112
012020042702CVCB3       010CVC BRASIL  ON      NM   R$  000000000123300000000012800000000001195000000000124100000000012360000000001235000000000123615668000000000005045500000000006263843600000000000000009999123100000010000000000000BRCVCBACNOR1112
012020042702CYRE3       010CYRELA REALTON      NM   R$  000000000143800000000014620000000001351000000000138700000000014250000000001424000000000142546113000000000017625300000000024458575600000000000000009999123100000010000000000000BRCYREACNOR7133
012020042702DEAI34      010DELTA       DRN          R$  000000001274000000000127450000000012740000000001274400000000127450000000010000000000001400000002000000000000000050000000000000637200000000000000009999123100000010000000000000BRDEAIBDR008116
012020042702DIRR3       010DIRECIONAL  ON      NM   R$  000000000082600000000008450000000000790000000000082100000000008420000000000841000000000084305416000000000001700000000000001396327700000000000000009999123100000010000000000000BRDIRRACNOR0112
012020042702DISB34      010WALT DISNEY DRN          R$  000000005997700000000612000000000057500000000005995200000000612000000000060050000000006112000036000000000000002340000000000140289630000000000000009999123100000010000000000000BRDISBBDR006114
012020042702DIVO11      010IT NOW IDIV CI           R$  000000000481000000000049150000000004763000000000483100000000048450000000004845000000000489000209000000000000278080000000001343527360000000000000009999123100000010000000000000BRDIVOCTF002100
012020042702DMMO3       010DOMMO       ON           R$  000000000010900000000001370000000000103000000000012100000000001370000000000137000000000013805447000000000011591300000000001409254100000000000000009999123100000010000000000000BRDMMOACNOR0102
012020042702DOHL4       010DOHLER      PN           R$  000000000059900000000005990000000000598000000000059800000000005980000000000580000000000059700002000000000000000300000000000000179600000000000000009999123100000010000000000000BRDOHLACNPR9060
012020042702DTEX3       010DURATEX     ON      NM   R$  000000000094900000000009670000000000928000000000094400000000009380000000000937000000000093814002000000000003940600000000003722819500000000000000009999123100000010000000000000BRDTEXACNOR3128
012020042702E1CL34      010ECOLAB INC  DRN          R$  000000002642900000000264290000000026429000000002642900000000264290000000000000000000000000000001000000000000000970000000000025636130000000000000009999123100000010000000000000BRE1CLBDR002101
012020042702EAIN34      010ELECTR ARTS DRN          R$  000000003310000000000331000000000033100000000003310000000000331000000000000000000000000000000002000000000000000210000000000006951000000000000000009999123100000010000000000000BREAINBDR007100
012020042702EALT3       010ACO ALTONA  ON           R$  000000000125700000000012570000000001257000000000125700000000012570000000000702000000000125700002000000000000000200000000000000251400000000000000009999123100000010000000000000BREALTACNOR4132
012020042702EALT4       010ACO ALTONA  PN           R$  000000000034100000000003550000000000333000000000034100000000003370000000000337000000000034000126000000000000070300000000000023997300000000000000009999123100000010000000000000BREALTACNPR1132
012020042702EBAY34      010EBAY        DRN          R$  000000001114000000000111400000000011140000000001114000000000111400000000000000000000000000000001000000000000000100000000000001114000000000000000009999123100000010000000000000BREBAYBDR009106
012020042702ECOO11      010ISHARES ECOOCI           R$  000000000819200000000082150000000008157000000000819200000000081570000000007990000000000844000005000000000000000990000000000008110370000000000000009999123100000010000000000000BRECOOCTF008100
012020042702ECOR3       010ECORODOVIAS ON      NM   R$  000000000106500000000011040000000001043000000000107300000000010780000000001078000000000107911417000000000003657600000000003928207000000000000000009999123100000010000000000000BRECORACNOR8116
012020042702EGIE3       010ENGIE BRASILON      NM   R$  000000000395000000000040460000000003882000000000397000000000040090000000004004000000000400914402000000000002473000000000009818511800000000000000009999123100000010000000000000BREGIEACNOR9112
012020042702EKTR3       010ELEKTRO     ON           R$  000000000150000000000015000000000001500000000000150000000000015000000000001500000000000205000001000000000000000100000000000000150000000000000000009999123100000010000000000000BREKTRACNOR0144
012020042702EKTR4       010ELEKTRO     PN           R$  000000000166000000000016660000000001650000000000166200000000016660000000001665000000000218000005000000000000000600000000000000997200000000000000009999123100000010000000000000BREKTRACNPR7144
012020042702ELEK3       010ELEKEIROZ   ON           R$  000000000185000000000018500000000001850000000000185000000000018500000000001655000000000189900001000000000000000200000000000000370000000000000000009999123100000010000000000000BRELEKACNOR5124
012020042702ELEK4       010ELEKEIROZ   PN           R$  000000000188500000000019790000000001885000000000193200000000019790000000001845000000000198000002000000000000000200000000000000386400000000000000009999123100000010000000000000BRELEKACNPR2125
012020042702ELET3       010ELETROBRAS  ON      N1   R$  000000000227100000000023360000000002190000000000225400000000022290000000002229000000000223420178000000000006392500000000014409696100000000000000009999123100000010000000000000BRELETACNOR6154
012020042702ELET6       010ELETROBRAS  PNB     N1   R$  000000000256000000000026500000000002505000000000257000000000025790000000002571000000000257917900000000000003976200000000010221411400000000000000009999123100000010000000000000BRELETACNPB7071
012020042702EMAE4       010EMAE        PN  ED       R$  000000000275700000000028400000000002669000000000278400000000028170000000002760000000000281800056000000000000012900000000000035920100000000000000009999123100000010000000000000BREMAEACNPR1114
012020042702EMBR3       010EMBRAER     ON      NM   R$  000000000072600000000007890000000000691000000000073900000000007660000000000765000000000076686263000000000046189000000000034179093900000000000000009999123100000010000000000000BREMBRACNOR4189
012020042702ENAT3       010ENAUTA PART ON  ED  NM   R$  000000000085000000000008960000000000802000000000084400000000008900000000000888000000000089008169000000000002197500000000001856694100000000000000009999123100000010000000000000BRENATACNOR0101
012020042702ENBR3       010ENERGIAS BR ON      NM   R$  000000000165000000000016880000000001613000000000166200000000016570000000001657000000000166010073000000000001953900000000003247441000000000000000009999123100000010000000000000BRENBRACNOR2129
012020042702ENEV3       010ENEVA       ON      NM   R$  000000000348300000000036370000000003433000000000355700000000036370000000003612000000000363708600000000000001673800000000005955095500000000000000009999123100000010000000000000BRENEVACNOR8104
012020042702ENGI3       010ENERGISA    ON      N2   R$  000000000119900000000012380000000001191000000000120500000000012000000000001190000000000122100034000000000000004300000000000005181600000000000000009999123100000010000000000000BRENGIACNOR0137
012020042702ENGI4       010ENERGISA    PN      N2   R$  000000000082700000000008350000000000801000000000081200000000008350000000000785000000000083500040000000000000007300000000000005931000000000000000009999123100000010000000000000BRENGIACNPR7133
012020042702ENGI11      010ENERGISA    UNT     N2   R$  000000000430000000000045760000000004300000000000445800000000044600000000004429000000000447709516000000000002346400000000010460878400000000000000009999123100000010000000000000BRENGICDAM16127
012020042702ENMT3       010ENERGISA MT ON           R$  000000000270000000000027000000000002600000000000266200000000027000000000002561000000000275000010000000000000001500000000000003993000000000000000009999123100000010000000000000BRENMTACNOR5111
012020042702ENMT4       010ENERGISA MT PN           R$  000000000269000000000027000000000002561000000000265800000000026900000000002590000000000269900012000000000000001700000000000004519100000000000000009999123100000010000000000000BRENMTACNPR2114
012020042702EQIX34      010EQUINIX INC DRN          R$  000000008059900000000805990000000080598000000008059800000000805980000000000000000000000000000002000000000000000530000000000042717460000000000000009999123100000010000000000000BREQIXBDR002104
012020042702EQPA3       010EQTL PARA   ON           R$  000000000030000000000003090000000000289000000000029300000000003070000000000303000000000030800111000000000000066600000000000019568100000000000000009999123100000010000000000000BREQPAACNOR1100
012020042702EQTL3       010EQUATORIAL  ON      NM   R$  000000000185000000000019180000000001832000000000187200000000018690000000001869000000000187225994000000000007000300000000013107521000000000000000009999123100000010000000000000BREQTLACNOR0125
012020042702EUCA3       010EUCATEX     ON      N1   R$  000000000136600000000015270000000001360000000000146100000000014700000000001394000000000149600064000000000000011300000000000016511500000000000000009999123100000010000000000000BREUCAACNOR1151
012020042702EUCA4       010EUCATEX     PN      N1   R$  000000000043700000000004900000000000437000000000046300000000004600000000000455000000000046000246000000000000105700000000000049030300000000000000009999123100000010000000000000BREUCAACNPR8038
012020042702EVEN3       010EVEN        ON      NM   R$  000000000063800000000006740000000000629000000000064900000000006530000000000653000000000065506791000000000001976300000000001284160500000000000000009999123100000010000000000000BREVENACNOR8111
012020042702EXGR34      010EXPEDIA GROUDRN          R$  000000001960000000000196000000000019600000000001960000000000196000000000000000000000000000000001000000000000000100000000000001960000000000000000009999123100000010000000000000BREXGRBDR004103
012020042702EXXO34      010EXXON MOBIL DRN          R$  000000000604000000000063520000000006040000000000626900000000063520000000005500000000000000000007000000000000001020000000000006394940000000000000009999123100000010000000000000BREXXOBDR006138
012020042702EZTC3       010EZTEC       ON      NM   R$  000000000297200000000030850000000002850000000000297800000000030300000000003030000000000303513544000000000003237700000000009644931900000000000000009999123100000010000000000000BREZTCACNOR0113
012020042702F1NI34      010FIDELITY NATDRN          R$  000000001799900000000179990000000017999000000001799900000000179990000000000000000000000000000001000000000000001440000000000025918560000000000000009999123100000010000000000000BRF1NIBDR004101
012020042702FBOK34      010FACEBOOK    DRN          R$  000000005400000000000548000000000053558000000005402200000000537000000000045069000000000000000016000000000000009100000000000491604690000000000000009999123100000010000000000000BRFBOKBDR006100
012020042702FCCQ11      010FIP CONQUESTCI           R$  000000000038500000000003850000000000385000000000038500000000003850000000000300000000000036000001000000000000000028000000000000010780000000000000009999123100000010000000000000BRFCCQCTF005100
012020042702FESA4       010FERBASA     PN      N1   R$  000000000160100000000016250000000001562000000000160000000000016100000000001610000000000161201457000000000000445500000000000713201800000000000000009999123100000010000000000000BRFESAACNPR5066
012020042702FFTD34      010FIFTH THIRD DRN          R$  000000001035000000000104300000000010350000000001036300000000104300000000000000000000000000000002000000000000000060000000000000621800000000000000009999123100000010000000000000BRFFTDBDR001103
012020042702FIND11      010IT NOW IFNC CI           R$  000000000775300000000079450000000007700000000000773300000000077300000000007730000000000849000012000000000000014280000000000110428220000000000000009999123100000010000000000000BRFINDCTF007100
012020042702FLRY3       010FLEURY      ON      NM   R$  000000000238400000000024100000000002334000000000236900000000023400000000002339000000000234011521000000000001793700000000004250712400000000000000009999123100000010000000000000BRFLRYACNOR5127
012020042702FNAM11      010FINAM       CI *         R$  000000000001300000000000130000000000012000000000001200000000000120000000000012000000000001300110000000000019154000000000000000243126000000000000009999123100010000000000000000BRFNAMCTF013002
012020042702FNOR11      010FINOR       CI *         R$  000000000001800000000000190000000000017000000000001700000000000190000000000018000000000001900054000000000009862000000000000000177292000000000000009999123100010000000000000000BRFNORCTF013002
012020042702FPOR11      010FIP PORT SUDCI           R$  000000000026200000000002620000000000262000000000026200000000002620000000000262000000000050000002000000000000000041000000000000010742000000000000009999123100000010000000000000BRFPORCTF000101
012020042702FRAS3       010FRAS-LE     ON      N1   R$  000000000040000000000004010000000000379000000000038300000000003880000000000386000000000038900163000000000000079600000000000030561700000000000000009999123100000010000000000000BRFRASACNOR0149
012020042702FSPE11      010FISET PESCA CI           R$  000000000003900000000000390000000000036000000000003800000000000390000000000039000000000004300006000000000000006000000000000000231000000000000000009999123100000010000000000000BRFSPECTF017002
012020042702FSRF11      010FISET FL REFCI           R$  000000000002200000000000230000000000022000000000002200000000000230000000000022000000000002300031000000000000128000000000000002869000000000000000009999123100000010000000000000BRFSRFCTF010002
012020042702FSTU11      010FISET TUR   CI           R$  000000000003300000000000330000000000033000000000003300000000000330000000000033000000000003500001000000000000001000000000000000033000000000000000009999123100000010000000000000BRFSTUCTF015002
012020042702GBIO33      010BIOTOSCANA  DR3          R$  000000000097100000000009940000000000971000000000098900000000009920000000000992000000000099300548000000000000081500000000000080616500000000000000009999123100000010000000000000BRGBIOBDR008100
012020042702GEOO34      010GE          DRN          R$  000000000370000000000037210000000003700000000000371900000000037210000000000000000000000579000002000000000000000610000000000002268760000000000000009999123100000010000000000000BRGEOOBDR000139
012020042702GEPA4       010GER PARANAP PN           R$  000000000460000000000046000000000004490000000000454600000000044900000000004260000000000450000006000000000000000600000000000002727900000000000000009999123100000010000000000000BRGEPAACNPR9152
012020042702GFSA3       010GAFISA      ON      NM   R$  000000000036800000000003800000000000361000000000037100000000003740000000000371000000000037403487000000000002712700000000001007915700000000000000009999123100000010000000000000BRGFSAACNOR3117
012020042702GGBR3       010GERDAU      ON      N1   R$  000000000100100000000010170000000000975000000000099900000000010090000000001002000000000100900278000000000000077200000000000077199700000000000000009999123100000010000000000000BRGGBRACNOR1173
012020042702GGBR4       010GERDAU      PN      N1   R$  000000000112700000000011500000000001094000000000113000000000011320000000001132000000000113321526000000000012234700000000013837279300000000000000009999123100000010000000000000BRGGBRACNPR8173
012020042702GNDI3       010INTERMEDICA ON      NM   R$  000000000530200000000054990000000005235000000000536400000000054790000000005461000000000547916039000000000005183000000000027801912400000000000000009999123100000010000000000000BRGNDIACNOR2102
012020042702GOAU3       010GERDAU MET  ON      N1   R$  000000000045200000000004690000000000452000000000046100000000004590000000000459000000000046200168000000000000042100000000000019430600000000000000009999123100000010000000000000BRGOAUACNOR1250
012020042702GOAU4       010GERDAU MET  PN      N1   R$  000000000050000000000005100000000000484000000000050100000000005030000000000503000000000050416413000000000013072800000000006558260100000000000000009999123100000010000000000000BRGOAUACNPR8251
012020042702GOGL34      010ALPHABET    DRN A        R$  000000002887000000000292430000000028680000000002885200000000292430000000029100000000002924300047000000000000019750000000000569827620000000000000009999123100000010000000000000BRGOGLBDR001100
012020042702GOGL35      010ALPHABET    DRN C        R$  000000002934300000000293430000000029343000000002934300000000293430000000000000000000000000000001000000000000000090000000000002640870000000000000009999123100000010000000000000BRGOGLBDR019100
012020042702GOLL4       010GOL         PN      N2   R$  000000000111500000000011280000000001052000000000108300000000010920000000001092000000000109319205000000000007200900000000007800483600000000000000009999123100000010000000000000BRGOLLACNPR4125
012020042702GOVE11      010IT NOW IGCT CI           R$  000000000338100000000034350000000003381000000000338100000000034350000000003237000000000364000005000000000000020110000000000067997250000000000000009999123100000010000000000000BRGOVECTF004100
012020042702GPIV33      010GP INVEST   DR3          R$  000000000042200000000004500000000000392000000000040300000000003980000000000398000000000039900056000000000000059600000000000024070300000000000000009999123100000010000000000000BRGPIVBDR003104
012020042702GPRO34      010GOPRO       DRN          R$  000000000177000000000017700000000001770000000000177000000000017700000000000000000000000000000001000000000000000090000000000000159300000000000000009999123100000010000000000000BRGPROBDR009100
012020042702GRND3       010GRENDENE    ON      NM   R$  000000000074100000000007550000000000723000000000073200000000007280000000000727000000000072805895000000000001675400000000001227107600000000000000009999123100000010000000000000BRGRNDACNOR3157
012020042702GSGI34      010GOLDMANSACHSDRN          R$  000000001049000000000104900000000010490000000001049000000000104900000000008750000000001050000001000000000000000030000000000000314700000000000000009999123100000010000000000000BRGSGIBDR008138
012020042702GSHP3       010GENERALSHOPPON      NM   R$  000000000401500000000040150000000003902000000000397700000000039020000000003900000000000401100003000000000000000300000000000001193200000000000000009999123100000010000000000000BRGSHPACNOR7102
012020042702GUAR3       010GUARARAPES  ON           R$  000000000118200000000012150000000001136000000000117900000000011800000000001180000000000120004394000000000001138800000000001342804200000000000000009999123100000010000000000000BRGUARACNOR4165
012020042702H1CA34      010HCA HEALTHCADRN          R$  000000003177000000000317700000000031770000000003177000000000317700000000000000000000000000000001000000000000000060000000000001906200000000000000009999123100000010000000000000BRH1CABDR002101
012020042702H1OG34      010HARLEY-DAVIDDRN          R$  000000001074000000000107400000000010740000000001074000000000107400000000000000000000000000000001000000000000000010000000000000107400000000000000009999123100000010000000000000BRH1OGBDR004101
012020042702HAGA4       010HAGA S/A    PN           R$  000000000020400000000002050000000000184000000000019300000000001930000000000191000000000019400024000000000000018300000000000003534000000000000000009999123100000010000000000000BRHAGAACNPR4103
012020042702HAPV3       010HAPVIDA     ON      NM   R$  000000000516500000000053010000000005130000000000523000000000052690000000005261000000000527012940000000000002806900000000014681723800000000000000009999123100000010000000000000BRHAPVACNOR4104
012020042702HBOR3       010HELBOR      ON      NM   R$  000000000018400000000001890000000000174000000000018000000000001810000000000181000000000018209605000000000013548500000000002445224400000000000000009999123100000010000000000000BRHBORACNOR3113
012020042702HETA4       010HERCULES    PN           R$  000000000045500000000004550000000000425000000000044600000000004400000000000413000000000044000012000000000000002300000000000001027900000000000000009999123100000010000000000000BRHETAACNPR9136
012020042702HGTX3       010CIA HERING  ON      NM   R$  000000000136900000000013820000000001320000000000135000000000013660000000001355000000000136610168000000000002030300000000002741968200000000000000009999123100000010000000000000BRHGTXACNOR9150
012020042702HOME34      010HOME DEPOT  DRN          R$  000000006245900000000624590000000062292000000006232200000000622920000000000000000000000000000003000000000000001950000000000121528850000000000000009999123100000010000000000000BRHOMEBDR002132
012020042702HYPE3       010HYPERA      ON      NM   R$  000000000300000000000030440000000002854000000000292400000000029330000000002933000000000293522023000000000004912100000000014365888100000000000000009999123100000010000000000000BRHYPEACNOR0121
012020042702IBMB34      010IBM         DRN          R$  000000007120000000000722000000000071200000000007145000000000722000000000000000000000000000000002000000000000000040000000000002858000000000000000009999123100000010000000000000BRIBMBBDR003133
012020042702IDNT3       010IDEIASNET   ON           R$  000000000027100000000003000000000000271000000000029100000000002870000000000282000000000028700207000000000000092500000000000026929300000000000000009999123100000010000000000000BRIDNTACNOR5113
012020042702IDVL3       010INDUSVAL    ON      N2   R$  000000000018400000000001840000000000177000000000018100000000001780000000000178000000000018200024000000000000009800000000000001775200000000000000009999123100000010000000000000BRIDVLACNOR5130
012020042702IDVL4       010INDUSVAL    PN      N2   R$  000000000026300000000002630000000000248000000000025400000000002550000000000249000000000026100011000000000000001600000000000000406800000000000000009999123100000010000000000000BRIDVLACNPR2130
012020042702IGTA3       010IGUATEMI    ON      NM   R$  000000000332000000000034200000000003235000000000335500000000033850000000003382000000000341513047000000000002332100000000007824428700000000000000009999123100000010000000000000BRIGTAACNOR5123
012020042702IRBR3       010IRBBRASIL REON      NM   R$  000000000094400000000009750000000000921000000000094300000000009460000000000946000000000094748233000000000026145600000000024657743900000000000000009999123100000010000000000000BRIRBRACNOR4106
012020042702ITLC34      010INTEL       DRN          R$  000000003390000000000340670000000033900000000003398700000000340670000000000000000000000000000002000000000000000230000000000007817040000000000000009999123100000010000000000000BRITLCBDR005137
012020042702ITSA3       010ITAUSA      ON      N1   R$  000000000100000000000010440000000001000000000000102300000000010240000000001024000000000102900951000000000000294300000000000301283600000000000000009999123100000010000000000000BRITSAACNOR0398
012020042702ITSA4       010ITAUSA      PN      N1   R$  000000000086900000000008930000000000853000000000087200000000008670000000000867000000000087243090000000000028298400000000024696884600000000000000009999123100000010000000000000BRITSAACNPR7398
012020042702ITUB3       010ITAUUNIBANCOON      N1   R$  000000000210000000000021400000000002045000000000209500000000020730000000002073000000000210003016000000000000959900000000002011797300000000000000009999123100000010000000000000BRITUBACNOR4267
012020042702ITUB4       010ITAUUNIBANCOPN      N1   R$  000000000215400000000022140000000002110000000000216400000000021570000000002157000000000215972639000000000038416700000000083154708400000000000000009999123100000010000000000000BRITUBACNPR1267
012020042702IVVB11      010ISHARE SP500CI           R$  000000001740000000000177340000000017270000000001746000000000174970000000017497000000001756402033000000000000717870000000012534331250000000000000009999123100000010000000000000BRIVVBCTF001100
012020042702JBDU3       010J B DUARTE  ON           R$  000000000020000000000002000000000000189000000000019000000000001900000000000189000000000019000017000000000000006200000000000001180700000000000000009999123100000010000000000000BRJBDUACNOR6142
012020042702JBDU4       010J B DUARTE  PN           R$  000000000012900000000001290000000000125000000000012600000000001260000000000125000000000012600022000000000000009200000000000001160800000000000000009999123100000010000000000000BRJBDUACNPR3142
012020042702JBSS3       010JBS         ON      NM   R$  000000000218500000000023500000000002164000000000227500000000023380000000002337000000000233857985000000000026060800000000059312476400000000000000009999123100000010000000000000BRJBSSACNOR8114
012020042702JCPC34      010JC PENNEY   DRN          R$  000000000014400000000001440000000000144000000000014400000000001440000000000120000000000018200001000000000000005000000000000000720000000000000000009999123100000010000000000000BRJCPCBDR000100
012020042702JDCO34      010JD COM      DRN          R$  000000002555000000000255500000000025550000000002555000000000255500000000000000000000000000000001000000000000000100000000000002555000000000000000009999123100000010000000000000BRJDCOBDR001100
012020042702JFEN3       010JOAO FORTES ON           R$  000000000031600000000003290000000000304000000000031500000000003070000000000307000000000031500103000000000000035000000000000011030500000000000000009999123100000010000000000000BRJFENACNOR0057
012020042702JHSF3       010JHSF PART   ON      NM   R$  000000000041700000000004190000000000386000000000040200000000004060000000000406000000000040709330000000000007782200000000003136170600000000000000009999123100000010000000000000BRJHSFACNOR2115
012020042702JNJB34      010JOHNSON     DRN          R$  000000008670000000000890000000000086500000000008836200000000889940000000085500000000000000000012000000000000001530000000000135194940000000000000009999123100000010000000000000BRJNJBBDR002133
012020042702JPMC34      010JPMORGAN    DRN          R$  000000002597000000000272080000000025968000000002693600000000272080000000025968000000002720800012000000000000002820000000000075961120000000000000009999123100000010000000000000BRJPMCBDR009133
012020042702JPSA3       010JEREISSATI  ON           R$  000000000223900000000023000000000002192000000000226100000000022750000000002270000000000227500737000000000000237900000000000538029800000000000000009999123100000010000000000000BRJPSAACNOR6102
012020042702JSLG3       010JSL         ON      NM   R$  000000000178000000000018180000000001728000000000177100000000017850000000001785000000000178702747000000000000920000000000001629451200000000000000009999123100000010000000000000BRJSLGACNOR2113
012020042702KEPL3       010KEPLER WEBERON  ED       R$  000000000237700000000024030000000002372000000000239800000000024000000000002400000000000242500188000000000000182700000000000438145000000000000000009999123100000010000000000000BRKEPLACNOR1049
012020042702KLBN3       010KLABIN S/A  ON      N2   R$  000000000035800000000003750000000000357000000000037000000000003600000000000360000000000036501450000000000000367000000000000135962900000000000000009999123100000010000000000000BRKLBNACNOR2156
012020042702KLBN4       010KLABIN S/A  PN      N2   R$  000000000034100000000003600000000000340000000000035300000000003560000000000356000000000035703853000000000002299000000000000811627800000000000000009999123100000010000000000000BRKLBNACNPR9156
012020042702KLBN11      010KLABIN S/A  UNT     N2   R$  000000000174400000000018190000000001735000000000178800000000017820000000001782000000000179024195000000000006770600000000012110759200000000000000009999123100000010000000000000BRKLBNCDAM18128
012020042702KMBB34      010KIMBERLY CL DRN          R$  000000007880000000000807640000000078800000000008058500000000807640000000000000000000000000000002000000000000000110000000000008864400000000000000009999123100000010000000000000BRKMBBBDR009119
012020042702KMIC34      010KINDER MORGADRN          R$  000000000858000000000085800000000008580000000000858000000000085800000000000000000000000858000001000000000000000600000000000005148000000000000000009999123100000010000000000000BRKMICBDR002103
012020042702LAME3       010LOJAS AMERICON      N1   R$  000000000180600000000019000000000001806000000000186900000000019000000000001900000000000190207115000000000001920200000000003589435500000000000000009999123100000010000000000000BRLAMEACNOR9202
012020042702LAME4       010LOJAS AMERICPN      N1   R$  000000000236300000000024360000000002350000000000239900000000024000000000002400000000000240129496000000000009125800000000021896274100000000000000009999123100000010000000000000BRLAMEACNPR6202
012020042702LCAM3       010LOCAMERICA  ON      NM   R$  000000000133500000000013740000000001270000000000131300000000013190000000001304000000000131913066000000000003555400000000004669279400000000000000009999123100000010000000000000BRLCAMACNOR3132
012020042702LEVE3       010METAL LEVE  ON      NM   R$  000000000173800000000017750000000001700000000000174300000000017300000000001730000000000175801104000000000000245700000000000428305200000000000000009999123100000010000000000000BRLEVEACNOR2187
012020042702LIGT3       010LIGHT S/A   ON      NM   R$  000000000103700000000010660000000001015000000000104600000000010510000000001051000000000105208502000000000002823300000000002953397800000000000000009999123100000010000000000000BRLIGTACNOR2120
012020042702LINX3       010LINX        ON      NM   R$  000000000205400000000022510000000002054000000000217800000000021600000000002160000000000216908881000000000003055900000000006657976700000000000000009999123100000010000000000000BRLINXACNOR0117
012020042702LLIS3       010LE LIS BLANCON      NM   R$  000000000060200000000006320000000000595000000000060700000000005950000000000595000000000060300420000000000000122300000000000074238000000000000000009999123100000010000000000000BRLLISACNOR4113
012020042702LOGG3       010LOG COM PROPON      NM   R$  000000000231000000000023700000000002201000000000226300000000023200000000002288000000000232001485000000000000261700000000000592440400000000000000009999123100000010000000000000BRLOGGACNOR7102
012020042702LOGN3       010LOG-IN      ON      NM   R$  000000000142000000000014370000000001314000000000135600000000013700000000001369000000000137004043000000000001142000000000001549646000000000000000009999123100000010000000000000BRLOGNACNOR3104
012020042702LPSB3       010LOPES BRASILON      NM   R$  000000000042000000000004280000000000393000000000040500000000004080000000000405000000000040802547000000000001146100000000000464705600000000000000009999123100000010000000000000BRLPSBACNOR0111
012020042702LREN3       010LOJAS RENNERON      NM   R$  000000000384000000000038950000000003696000000000382000000000038660000000003850000000000386644286000000000011468900000000043819716700000000000000009999123100000010000000000000BRLRENACNOR1201
012020042702LWSA3       010LOCAWEB     ON      NM   R$  000000000225900000000023500000000002199000000000227300000000023200000000002320000000000232102973000000000000679800000000001545365500000000000000009999123100000010000000000000BRLWSAACNOR8100
012020042702M1SC34      010MSCI INC    DRN          R$  000000004677000000000467700000000046630000000004671000000000466300000000000000000000000000000003000000000000000350000000000016348500000000000000009999123100000010000000000000BRM1SCBDR007101
012020042702MACY34      010MACY S      DRN          R$  000000000307800000000031740000000003078000000000311000000000031740000000000000000000000317400002000000000000000300000000000000933000000000000000009999123100000010000000000000BRMACYBDR000116
012020042702MATB11      010IT NOW IMAT CI           R$  000000000271700000000027600000000002717000000000275100000000027510000000002629000000000280000005000000000000000190000000000000522690000000000000009999123100000010000000000000BRMATBCTF001100
012020042702MCDC34      010MCDONALDS   DRN          R$  000000002669900000000267220000000026699000000002671800000000267220000000013000000000000000000007000000000000000360000000000009618780000000000000009999123100000010000000000000BRMCDCBDR000138
012020042702MDIA3       010M.DIASBRANCOON      NM   R$  000000000307500000000031640000000003014000000000312200000000031580000000003158000000000316204320000000000000982600000000003067970200000000000000009999123100000010000000000000BRMDIAACNOR7118
012020042702MDNE3       010MOURA DUBEUXON      NM   R$  000000000061600000000006230000000000572000000000059300000000006120000000000593000000000061201244000000000000366600000000000217446600000000000000009999123100000010000000000000BRMDNEACNOR9100
012020042702MEAL3       010IMC S/A     ON      NM   R$  000000000028900000000003040000000000272000000000028400000000003040000000000302000000000030407842000000000006469900000000001839034900000000000000009999123100000010000000000000BRMEALACNOR9105
012020042702MELI34      010MERCADOLIBREDRN          R$  000000003300000000000338550000000032501000000003257200000000338550000000032800000000003500000036000000000000014790000000000481740650000000000000009999123100000010000000000000BRMELIBDR006100
012020042702MERC4       010MERC FINANC PN           R$  000000000093000000000009950000000000921000000000094400000000009210000000000920000000000096000023000000000000004700000000000004438700000000000000009999123100000010000000000000BRMERCACNPR9173
012020042702MGEL4       010MANGELS INDLPN           R$  000000000052500000000005500000000000524000000000053300000000005500000000000527000000000055000011000000000000002500000000000001334900000000000000009999123100000010000000000000BRMGELACNPR3147
012020042702MGLU3       010MAGAZ LUIZA ON      NM   R$  000000000492300000000050000000000004800000000000489900000000049500000000004950000000000495254656000000000017502500000000085757422700000000000000009999123100000010000000000000BRMGLUACNOR2115
012020042702MILS3       010MILLS       ON      NM   R$  000000000053000000000005360000000000506000000000052200000000005080000000000508000000000051803700000000000001458100000000000761222400000000000000009999123100000010000000000000BRMILSACNOR2112
012020042702MMMC34      0103M          DRN          R$  000000002196600000000219660000000021965000000002196500000000219650000000000100000000000000000002000000000000000700000000000015375510000000000000009999123100000010000000000000BRMMMCBDR000132
012020042702MNPR3       010MINUPAR     ON           R$  000000000042000000000004400000000000400000000000041900000000004380000000000415000000000044000012000000000000004100000000000001719500000000000000009999123100000010000000000000BRMNPRACNOR5122
012020042702MOAR3       010MONT ARANHA ON           R$  000000001250100000000125010000000012500000000001250000000000125000000000012500000000001300000007000000000000001200000000000015000500000000000000009999123100000010000000000000BRMOARACNOR5211
012020042702MOVI3       010MOVIDA      ON      NM   R$  000000000105100000000010840000000001023000000000105800000000010760000000001075000000000107709046000000000002799600000000002962146800000000000000009999123100000010000000000000BRMOVIACNOR0111
012020042702MRCK34      010MERCK       DRN          R$  000000004610000000000481690000000046100000000004810200000000481690000000000000000000000000000002000000000000000310000000000014911700000000000000009999123100000010000000000000BRMRCKBDR003138
012020042702MRFG3       010MARFRIG     ON      NM   R$  000000000106400000000011700000000001057000000000111700000000011500000000001143000000000115046146000000000018653100000000020839059900000000000000009999123100000010000000000000BRMRFGACNOR0109
012020042702MRVE3       010MRV         ON      NM   R$  000000000133900000000013870000000001302000000000134900000000013700000000001368000000000137118822000000000006256900000000008443042600000000000000009999123100000010000000000000BRMRVEACNOR2120
012020042702MSCD34      010MASTERCARD  DRN          R$  000000014710400000001508450000000147104000000014773800000001508450000000000000000000000000000002000000000000001180000000000174330920000000000000009999123100000010000000000000BRMSCDBDR006136
012020042702MSFT34      010MICROSOFT   DRN          R$  000000009940000000001003470000000099100000000009956700000001003470000000098610000000000000000025000000000000002160000000000215065030000000000000009999123100000010000000000000BRMSFTBDR005137
012020042702MTRE3       010MITRE REALTYON      NM   R$  000000000105000000000010860000000001000000000000103800000000010610000000001061000000000108101353000000000000298000000000000309453500000000000000009999123100000010000000000000BRMTREACNOR6100
012020042702MTSA4       010METISA      PN           R$  000000000154500000000016150000000001540000000000156100000000016150000000001563000000000159900007000000000000001400000000000002185400000000000000009999123100000010000000000000BRMTSAACNPR9055
012020042702MULT3       010MULTIPLAN   ON      N2   R$  000000000211400000000021360000000002052000000000210200000000021060000000002106000000000211921840000000000004255300000000008947103700000000000000009999123100000010000000000000BRMULTACNOR5127
012020042702MYPK3       010IOCHP-MAXIONON      NM   R$  000000000123200000000012920000000001202000000000123700000000012590000000001259000000000126309379000000000001913200000000002368469500000000000000009999123100000010000000000000BRMYPKACNOR7148
012020042702N1EM34      010NEWMONT GOLDDRN          R$  000000003570000000000357000000000034500000000003561100000000345010000000034700000000003650000009000000000000000540000000000019230020000000000000009999123100000010000000000000BRN1EMBDR005101
012020042702NEOE3       010NEOENERGIA  ON      NM   R$  000000000177900000000018300000000001737000000000180900000000018150000000001815000000000181710985000000000002999300000000005428511100000000000000009999123100000010000000000000BRNEOEACNOR3110
012020042702NETE34      010NETEASE     DRN          R$  000000020450000000002045000000000204500000000020450000000002045000000000000000000000000000000001000000000000000030000000000006135000000000000000009999123100000010000000000000BRNETEBDR006102
012020042702NFLX34      010NETFLIX     DRN          R$  000000024102400000002422420000000240000000000024117500000002400000000000226800000000000000000005000000000000000730000000000176058120000000000000009999123100000010000000000000BRNFLXBDR000101
012020042702NORD3       010NORDON MET  ON           R$  000000000035000000000003500000000000350000000000035000000000003500000000000350000000000040500001000000000000000100000000000000035000000000000000009999123100000010000000000000BRNORDACNOR7135
012020042702NTCO3       010GRUPO NATURAON      NM   R$  000000000339400000000035450000000003335000000000348400000000035400000000003527000000000354028398000000000007608500000000026512334900000000000000009999123100000010000000000000BRNTCOACNOR5100
012020042702NVDC34      010NVIDIA CORP DRN          R$  000000004300000000000430000000000042255000000004249600000000424730000000000000000000000000000005000000000000002050000000000087118450000000000000009999123100000010000000000000BRNVDCBDR008104
012020042702ODPV3       010ODONTOPREV  ON      NM   R$  000000000154500000000015670000000001496000000000154000000000015360000000001536000000000156104738000000000000892700000000001374886500000000000000009999123100000010000000000000BRODPVACNOR4174
012020042702OFSA3       010OUROFINO S/AON      NM   R$  000000000261100000000026980000000002585000000000266100000000026600000000002649000000000266000062000000000000029300000000000077993400000000000000009999123100000010000000000000BROFSAACNOR7109
012020042702OMGE3       010OMEGA GER   ON      NM   R$  000000000301000000000030490000000002916000000000300200000000029850000000002985000000000299001776000000000000430600000000001292751700000000000000009999123100000010000000000000BROMGEACNOR0101
012020042702P1KG34      010PACKAGING CODRN          R$  000000002577000000000257700000000025770000000002577000000000257700000000000000000000002577000001000000000000000020000000000000515400000000000000009999123100000010000000000000BRP1KGBDR002101
012020042702PARD3       010IHPARDINI   ON      NM   R$  000000000196700000000020000000000001923000000000195500000000019650000000001965000000000197802001000000000000464400000000000908049700000000000000009999123100000010000000000000BRPARDACNOR1113
012020042702PATI4       010PANATLANTICAPN           R$  000000000250000000000025000000000002500000000000250000000000025000000000002240000000000280000001000000000000000200000000000000500000000000000000009999123100000010000000000000BRPATIACNPR3059
012020042702PCAR3       010P.ACUCAR-CBDON      NM   R$  000000000680300000000069980000000006608000000000681600000000069470000000006947000000000696809003000000000001623400000000011066227800000000000000009999123100000010000000000000BRPCARACNOR3162
012020042702PEAB3       010PAR AL BAHIAON           R$  000000000520000000000052000000000005200000000000520000000000052000000000005100000000000570000001000000000000000100000000000000520000000000000000009999123100000010000000000000BRPEABACNOR3123
012020042702PEPB34      010PEPSICO INC DRN          R$  000000007717200000000771720000000077172000000007717200000000771720000000000000000000000000000001000000000000000400000000000030868800000000000000009999123100000010000000000000BRPEPBBDR005130
012020042702PETR3       010PETROBRAS   ON      N2   R$  000000000163700000000016920000000001597000000000165200000000016800000000001680000000000168238522000000000025446600000000042039139100000000000000009999123100000010000000000000BRPETRACNOR9190
012020042702PETR4       010PETROBRAS   PN      N2   R$  000000000161400000000016530000000001578000000000162000000000016450000000001645000000000164601446000000000085944900000000139231083400000000000000009999123100000010000000000000BRPETRACNPR6196
012020042702PFIN11      010FIP PERFIN  CI           R$  000000000971600000000098990000000009716000000000980600000000098940000000009850000000000989400027000000000000001734000000000017004352000000000000009999123100000010000000000000BRPFINCTF001100
012020042702PFIZ34      010PFIZER      DRN          R$  000000002131400000000221180000000021314000000002194300000000221180000000020400000000000000000006000000000000000820000000000017993780000000000000009999123100000010000000000000BRPFIZBDR006138
012020042702PFRM3       010PROFARMA    ON      NM   R$  000000000046100000000004650000000000435000000000044800000000004630000000000460000000000046301087000000000000296400000000000132914200000000000000009999123100000010000000000000BRPFRMACNOR1112
012020042702PGCO34      010PG          DRN ED       R$  000000006743800000000678130000000067438000000006757100000000678130000000066800000000000000000003000000000000003760000000000254069980000000000000009999123100000010000000000000BRPGCOBDR001138
012020042702PIBB11      010IT NOW PIBB CI           R$  000000001274700000000131200000000012735000000001294600000000130610000000012973000000001306100498000000000000291690000000003776224120000000000000009999123100000010000000000000BRPIBBCTF005101
012020042702PINE4       010PINE        PN      N2   R$  000000000029900000000003000000000000280000000000028900000000002900000000000287000000000029000742000000000000422300000000000122433200000000000000009999123100000010000000000000BRPINEACNPR8144
012020042702PLAS3       010PLASCAR PARTON           R$  000000000045000000000004500000000000450000000000045000000000004500000000000450000000000050000003000000000000000500000000000000225000000000000000009999123100000010000000000000BRPLASACNOR2106
012020042702PMAM3       010PARANAPANEMAON      NM   R$  000000000101900000000011100000000001000000000000106800000000011070000000001082000000000110700478000000000000147400000000000157515000000000000000009999123100000010000000000000BRPMAMACNOR3037
012020042702PNVL3       010DIMED       ON           R$  000000000234900000000024220000000002349000000000239200000000023880000000002351000000000238900227000000000000129700000000000310265900000000000000009999123100000010000000000000BRPNVLACNOR9196
012020042702PNVL4       010DIMED       PN           R$  000000000183000000000018890000000001810000000000183800000000018510000000001851000000000188400040000000000000008000000000000014711500000000000000009999123100000010000000000000BRPNVLACNPR6196
012020042702POMO3       010MARCOPOLO   ON      N2   R$  000000000027000000000002850000000000270000000000027700000000002790000000000278000000000027900560000000000000232100000000000064459200000000000000009999123100000010000000000000BRPOMOACNOR0087
012020042702POMO4       010MARCOPOLO   PN      N2   R$  000000000028400000000002970000000000278000000000028600000000002860000000000285000000000028606643000000000009885400000000002829616700000000000000009999123100000010000000000000BRPOMOACNPR7087
012020042702POSI3       010POSITIVO TECON      NM   R$  000000000035700000000003690000000000345000000000035300000000003530000000000352000000000035304347000000000002761200000000000977114400000000000000009999123100000010000000000000BRPOSIACNOR9111
012020042702PPLA11      010PPLA        UNT          R$  000000000145500000000014550000000001312000000000137700000000013900000000001390000000000140000043000000000000011200000000000015424500000000000000009999123100000010000000000000BRPPLAUNT007101
012020042702PRIO3       010PETRORIO    ON      NM   R$  000000000188000000000019200000000001783000000000185000000000018750000000001875000000000187809554000000000002984400000000005522077600000000000000009999123100000010000000000000BRPRIOACNOR1102
012020042702PRNR3       010PRINER      ON      NM   R$  000000000082100000000008380000000000796000000000080700000000007970000000000797000000000079900489000000000000137200000000000110752700000000000000009999123100000010000000000000BRPRNRACNOR4105
012020042702PSSA3       010PORTO SEGUROON      NM   R$  000000000443700000000045490000000004382000000000449000000000044960000000004496000000000450503417000000000000600200000000002694959400000000000000009999123100000010000000000000BRPSSAACNOR7141
012020042702PTBL3       010PORTOBELLO  ON      NM   R$  000000000025400000000002580000000000241000000000025100000000002560000000000256000000000025702284000000000001289100000000000324695400000000000000009999123100000010000000000000BRPTBLACNOR8124
012020042702PTNT4       010PETTENATI   PN           R$  000000000039900000000003990000000000375000000000038100000000003890000000000385000000000039000075000000000000036000000000000013740600000000000000009999123100000010000000000000BRPTNTACNPR3044
012020042702PYPL34      010PAYPAL HOLD DRN          R$  000000003459000000000348300000000034590000000003463000000000348300000000000000000000000000000002000000000000000120000000000004155600000000000000009999123100000010000000000000BRPYPLBDR002101
012020042702QCOM34      010QUALCOMM    DRN          R$  000000004318600000000431860000000043186000000004318600000000431860000000039001000000000000000001000000000000000470000000000020297420000000000000009999123100000010000000000000BRQCOMBDR007133
012020042702QUAL3       010QUALICORP   ON      NM   R$  000000000259100000000026230000000002496000000000253800000000025050000000002505000000000252114414000000000003692000000000009370385700000000000000009999123100000010000000000000BRQUALACNOR6112
012020042702R1OP34      010ROPER TECHNODRN          R$  000000001801600000000180160000000018016000000001801600000000180160000000000000000000000000000001000000000000000200000000000003603200000000000000009999123100000010000000000000BRR1OPBDR003101
012020042702RADL3       010RAIADROGASILON      NM   R$  000000001053000000000108460000000010432000000001064400000000106050000000010603000000001060507749000000000001372400000000014608731000000000000000009999123100000010000000000000BRRADLACNOR0135
012020042702RAIL3       010RUMO S.A.   ON      NM   R$  000000000208500000000021300000000001981000000000204400000000020670000000002067000000000207029620000000000010002500000000020446547500000000000000009999123100000010000000000000BRRAILACNOR9101
012020042702RANI3       010IRANI       ON           R$  000000000031000000000003370000000000309000000000032400000000003160000000000315000000000032500062000000000000027900000000000009047700000000000000009999123100000010000000000000BRRANIACNOR5051
012020042702RANI4       010IRANI       PN           R$  000000000051000000000005500000000000501000000000052400000000005200000000000506000000000051900039000000000000006400000000000003353700000000000000009999123100000010000000000000BRRANIACNPR2052
012020042702RAPT3       010RANDON PART ON      N1   R$  000000000072900000000007290000000000700000000000070200000000007000000000000691000000000070000027000000000000005500000000000003864600000000000000009999123100000010000000000000BRRAPTACNOR7152
012020042702RAPT4       010RANDON PART PN      N1   R$  000000000079000000000008090000000000759000000000078700000000007970000000000797000000000079916982000000000005201400000000004093708900000000000000009999123100000010000000000000BRRAPTACNPR4152
012020042702RCSL3       010RECRUSUL    ON           R$  000000000021900000000002190000000000200000000000020400000000002060000000000206000000000021000086000000000000029800000000000006085000000000000000009999123100000010000000000000BRRCSLACNOR4130
012020042702RCSL4       010RECRUSUL    PN           R$  000000000013000000000001370000000000130000000000013300000000001360000000000135000000000013601735000000000000867000000000000115910500000000000000009999123100000010000000000000BRRCSLACNPR1130
012020042702RDNI3       010RNI         ON  ED  NM   R$  000000000070300000000007300000000000675000000000070100000000007190000000000690000000000071900107000000000000023400000000000016415800000000000000009999123100000010000000000000BRRDNIACNOR9113
012020042702RDSA34      010RD SHELL    DRN          R$  000000002000000000000200000000000020000000000002000000000000200000000000000000000000000000000001000000000000000010000000000000200000000000000000009999123100000010000000000000BRRDSABDR009102
012020042702REDE3       010REDE ENERGIAON           R$  000000000100000000000010010000000000970000000000098800000000010010000000000966000000000100300036000000000000009600000000000009487600000000000000009999123100000010000000000000BRREDEACNOR7114
012020042702RENT3       010LOCALIZA    ON      NM   R$  000000000340000000000034730000000003273000000000337200000000033500000000003350000000000335343802000000000010990100000000037068948300000000000000009999123100000010000000000000BRRENTACNOR4177
012020042702RIGG34      010TRANSOCEAN  DRN          R$  000000000051300000000005130000000000435000000000046900000000004700000000000450000000000054800033000000000000012390000000000005814300000000000000009999123100000010000000000000BRRIGGBDR000100
012020042702RLOG3       010COSAN LOG   ON      NM   R$  000000000165800000000016870000000001575000000000162300000000016070000000001607000000000163101915000000000000419700000000000681277900000000000000009999123100000010000000000000BRRLOGACNOR4106
012020042702ROMI3       010INDS ROMI   ON      NM   R$  000000000100500000000010250000000000971000000000099000000000009750000000000975000000000097900985000000000000190500000000000188638900000000000000009999123100000010000000000000BRROMIACNOR8172
012020042702RSID3       010ROSSI RESID ON      NM   R$  000000000041200000000004120000000000369000000000038600000000003950000000000390000000000039500279000000000000105400000000000040730400000000000000009999123100000010000000000000BRRSIDACNOR8119
012020042702RSUL4       010RIOSULENSE  PN           R$  000000001010000000000101000000000010100000000001010000000000101000000000000000000000001460000001000000000000000100000000000001010000000000000000009999123100000010000000000000BRRSULACNPR3110
012020042702SANB3       010SANTANDER BRON           R$  000000000114000000000012090000000001132000000000119000000000011950000000001186000000000119900489000000000000123200000000000146677900000000000000009999123100000010000000000000BRSANBACNOR8151
012020042702SANB4       010SANTANDER BRPN           R$  000000000126000000000012890000000001226000000000126100000000012400000000001240000000000128100455000000000000090700000000000114378800000000000000009999123100000010000000000000BRSANBACNPR5151
012020042702SANB11      010SANTANDER BRUNT          R$  000000000241000000000024990000000002384000000000245000000000024420000000002442000000000244409496000000000002251800000000005518550400000000000000009999123100000010000000000000BRSANBCDAM13144
012020042702SAPR3       010SANEPAR     ON      N2   R$  000000000049500000000005200000000000495000000000050800000000005200000000000508000000000052000444000000000000109000000000000055423900000000000000009999123100000010000000000000BRSAPRACNOR9149
012020042702SAPR4       010SANEPAR     PN      N2   R$  000000000046300000000004920000000000463000000000047800000000004870000000000486000000000048804983000000000001533400000000000734163000000000000000009999123100000010000000000000BRSAPRACNPR6149
012020042702SAPR11      010SANEPAR     UNT     N2   R$  000000000235500000000024970000000002355000000000243100000000024910000000002477000000000249108159000000000002026000000000004926153000000000000000009999123100000010000000000000BRSAPRCDAM13108
012020042702SBSP3       010SABESP      ON      NM   R$  000000000387500000000041040000000003830000000000403500000000040970000000004097000000000409820197000000000004317800000000017422928100000000000000009999123100000010000000000000BRSBSPACNOR5156
012020042702SBUB34      010STARBUCKS   DRN          R$  000000004433400000000443340000000044334000000004433400000000443340000000000000000000000000000002000000000000000600000000000026600400000000000000009999123100000010000000000000BRSBUBBDR005128
012020042702SCAR3       010SAO CARLOS  ON      NM   R$  000000000370000000000037000000000003544000000000362000000000035440000000003525000000000369700030000000000000003400000000000012308600000000000000009999123100000010000000000000BRSCARACNOR7127
012020042702SCHW34      010SCHWAB      DRN          R$  000000002045500000000204550000000020455000000002045500000000204550000000000000000000000000000001000000000000007820000000000159958100000000000000009999123100000010000000000000BRSCHWBDR006116
012020042702SEER3       010SER EDUCA   ON      NM   R$  000000000161500000000017000000000001582000000000165900000000016720000000001672000000000168404267000000000000673400000000001117216300000000000000009999123100000010000000000000BRSEERACNOR5114
012020042702SGPS3       010SPRINGS     ON      NM   R$  000000000058300000000006100000000000571000000000058900000000005900000000000590000000000059200246000000000000116800000000000068836300000000000000009999123100000010000000000000BRSGPSACNOR4104
012020042702SHOW3       010TIME FOR FUNON      NM   R$  000000000021700000000002170000000000198000000000020300000000002010000000000201000000000020801071000000000000548100000000000111780000000000000000009999123100000010000000000000BRSHOWACNOR7105
012020042702SHUL4       010SCHULZ      PN           R$  000000000080700000000008290000000000795000000000080800000000008050000000000805000000000082000573000000000000240700000000000194535600000000000000009999123100000010000000000000BRSHULACNPR4135
012020042702SIMN34      010SIMON PROP  DRN          R$  000000000800000000000082500000000008000000000000806200000000082500000000007000000000000900000002000000000000000080000000000000645000000000000000009999123100000010000000000000BRSIMNBDR002103
012020042702SLCE3       010SLC AGRICOLAON      NM   R$  000000000246900000000025580000000002424000000000250500000000024920000000002492000000000249407437000000000001485600000000003721518300000000000000009999123100000010000000000000BRSLCEACNOR2113
012020042702SMAC11      010IT NOW SMALLCI           R$  000000000450500000000045900000000004443000000000452300000000045900000000004580000000000459000055000000000000088510000000000400367430000000000000009999123100000010000000000000BRSMACCTF001100
012020042702SMAL11      010ISHARES SMALCI           R$  000000000860500000000088530000000008560000000000874600000000088170000000008775000000000885516430000000000000760680000000006653428110000000000000009999123100000010000000000000BRSMALCTF002100
012020042702SMLS3       010SMILES      ON      NM   R$  000000000137500000000014230000000001311000000000136100000000013900000000001390000000000139906109000000000001721700000000002344735300000000000000009999123100000010000000000000BRSMLSACNOR1108
012020042702SMTO3       010SAO MARTINHOON      NM   R$  000000000181500000000018480000000001726000000000175300000000017280000000001728000000000173907076000000000001687600000000002958716800000000000000009999123100000010000000000000BRSMTOACNOR3116
012020042702SPRI3       010SPRINGER    ON           R$  000000000275400000000028940000000002400000000000270700000000024990000000002499000000000260000070000000000000008500000000000023011200000000000000009999123100000010000000000000BRSPRIACNOR2144
012020042702SPRI5       010SPRINGER    PNA          R$  000000000225000000000022500000000001775000000000193900000000017830000000001000000000000180000022000000000000003800000000000007370900000000000000009999123100000010000000000000BRSPRIACNPA5149
012020042702SPRI6       010SPRINGER    PNB          R$  000000000205000000000024480000000002050000000000213300000000022000000000001600000000000220000008000000000000000900000000000001919800000000000000009999123100000010000000000000BRSPRIACNPB3147
012020042702SPXI11      010IT NOW SPXI CI           R$  000000001729700000000175000000000016900000000001714800000000171550000000017100000000001715500635000000000000119460000000002048584420000000000000009999123100000010000000000000BRSPXICTF003100
012020042702SQIA3       010SINQIA      ON      NM   R$  000000000183600000000019580000000001803000000000188700000000019400000000001924000000000194802966000000000000690700000000001303911500000000000000009999123100000010000000000000BRSQIAACNOR6102
012020042702SSFO34      010SALESFORCE  DRN          R$  000000004490900000000449090000000044909000000004490900000000449090000000000000000000000000000001000000000000000690000000000030987210000000000000009999123100000010000000000000BRSSFOBDR003100
012020042702STBP3       010SANTOS BRP  ON      NM   R$  000000000042300000000004350000000000410000000000041900000000004200000000000420000000000042108351000000000003147200000000001320636800000000000000009999123100000010000000000000BRSTBPACNOR3116
012020042702SULA3       010SUL AMERICA ON      N2   R$  000000000209100000000020910000000002001000000000204300000000020900000000002001000000000209100029000000000000003000000000000006131200000000000000009999123100000010000000000000BRSULAACNOR2139
012020042702SULA4       010SUL AMERICA PN      N2   R$  000000000124500000000012450000000001160000000000120400000000012070000000001190000000000120700033000000000000005300000000000006383100000000000000009999123100000010000000000000BRSULAACNPR9139
012020042702SULA11      010SUL AMERICA UNT     N2   R$  000000000446300000000045620000000004324000000000445600000000044860000000004464000000000448719117000000000003509300000000015639364300000000000000009999123100000010000000000000BRSULACDAM12139
012020042702SUZB3       010SUZANO S.A. ON      NM   R$  000000000395000000000040740000000003916000000000401000000000040100000000004010000000000401127307000000000007616700000000030545629300000000000000009999123100000010000000000000BRSUZBACNOR0124
012020042702TAEE3       010TAESA       ON      N2   R$  000000000091500000000009540000000000914000000000093900000000009520000000000952000000000095500213000000000000027600000000000025928500000000000000009999123100000010000000000000BRTAEEACNOR9129
012020042702TAEE4       010TAESA       PN      N2   R$  000000000091500000000009440000000000900000000000092900000000009430000000000930000000000094300256000000000000051600000000000047947500000000000000009999123100000010000000000000BRTAEEACNPR6129
012020042702TAEE11      010TAESA       UNT     N2   R$  000000000271900000000028430000000002719000000000280500000000028120000000002810000000000281219414000000000003258300000000009139770000000000000000009999123100000010000000000000BRTAEECDAM10129
012020042702TASA3       010TAURUS ARMASON      N2   R$  000000000036500000000003650000000000340000000000035200000000003540000000000352000000000035400063000000000000030200000000000010634200000000000000009999123100000010000000000000BRTASAACNOR7100
012020042702TASA4       010TAURUS ARMASPN      N2   R$  000000000037800000000003880000000000363000000000037800000000003750000000000375000000000038001569000000000000577200000000000218319500000000000000009999123100000010000000000000BRTASAACNPR4100
012020042702TCSA3       010TECNISA     ON      NM   R$  000000000007500000000000760000000000072000000000007300000000000730000000000073000000000007403927000000000008874600000000000654246300000000000000009999123100000010000000000000BRTCSAACNOR3111
012020042702TECN3       010TECHNOS     ON      NM   R$  000000000012300000000001280000000000123000000000012500000000001240000000000124000000000012500114000000000000063900000000000007990100000000000000009999123100000010000000000000BRTECNACNOR6106
012020042702TELB3       010TELEBRAS    ON           R$  000000000880000000000092000000000008800000000000900000000000092000000000008820000000000928900005000000000000000500000000000004500000000000000000009999123100000010000000000000BRTELBACNOR2139
012020042702TELB4       010TELEBRAS    PN           R$  000000000260000000000028790000000002550000000000270800000000026880000000002688000000000270000381000000000000078600000000000212887200000000000000009999123100000010000000000000BRTELBACNPR9139
012020042702TEND3       010TENDA       ON      NM   R$  000000000208100000000021660000000002056000000000210200000000021590000000002133000000000215905668000000000001451100000000003051028900000000000000009999123100000010000000000000BRTENDACNOR4107
012020042702TESA3       010TERRA SANTA ON      NM   R$  000000000100000000000010990000000001000000000000105100000000010930000000001080000000000109400076000000000000012900000000000013569500000000000000009999123100000010000000000000BRTESAACNOR9101
012020042702TEXA34      010TEXAS INC   DRN          R$  000000006619200000000661920000000066192000000006619200000000661920000000000000000000000000000001000000000000000400000000000026476800000000000000009999123100000010000000000000BRTEXABDR003118
012020042702TGMA3       010TEGMA       ON      NM   R$  000000000187000000000018840000000001769000000000179300000000017690000000001769000000000177002588000000000000520000000000000932616800000000000000009999123100000010000000000000BRTGMAACNOR7133
012020042702TIET3       010AES TIETE E ON      N2   R$  000000000031600000000003400000000000316000000000033100000000003300000000000330000000000033700644000000000000179900000000000059706600000000000000009999123100000010000000000000BRTIETACNOR0122
012020042702TIET4       010AES TIETE E PN      N2   R$  000000000026700000000002840000000000267000000000027600000000002770000000000277000000000028101052000000000000602200000000000166297200000000000000009999123100000010000000000000BRTIETACNPR7122
012020042702TIET11      010AES TIETE E UNT     N2   R$  000000000139100000000014790000000001389000000000144400000000014710000000001465000000000147105436000000000001399500000000002021441300000000000000009999123100000010000000000000BRTIETCDAM15122
012020042702TIMP3       010TIM PART S/AON      NM   R$  000000000124600000000012670000000001216000000000124200000000012550000000001255000000000125919076000000000006812600000000008466914600000000000000009999123100000010000000000000BRTIMPACNOR1114
012020042702TMOS34      010THERMFISCHERDRN          R$  000000004826100000000482610000000048261000000004826100000000482610000000000000000000000000000001000000000000000870000000000041987070000000000000009999123100000010000000000000BRTMOSBDR007116
012020042702TOTS3       010TOTVS       ON      NM   R$  000000000549000000000059120000000005400000000000575300000000058440000000005838000000000584410167000000000001743000000000010027814100000000000000009999123100000010000000000000BRTOTSACNOR8133
012020042702TPIS3       010TRIUNFO PARTON      NM   R$  000000000010200000000001040000000000099000000000010100000000001000000000000100000000000010200272000000000000328200000000000033156600000000000000009999123100000010000000000000BRTPISACNOR8115
012020042702TRIS3       010TRISUL      ON  ED  NM   R$  000000000072200000000007580000000000700000000000073100000000007520000000000752000000000075504043000000000001493400000000001092311400000000000000009999123100000010000000000000BRTRISACNOR4113
012020042702TRPL3       010TRAN PAULISTON  EJ  N1   R$  000000000234200000000023420000000002230000000000226600000000022300000000002230000000000229900022000000000000002800000000000006344800000000000000009999123100000010000000000000BRTRPLACNOR4175
012020042702TRPL4       010TRAN PAULISTPN  EJ  N1   R$  000000000192000000000019390000000001893000000000192100000000019160000000001915000000000191704421000000000000998900000000001919220600000000000000009999123100000010000000000000BRTRPLACNPR1175
012020042702TSLA34      010TESLA INC   DRN          R$  000000010380000000001140000000000103800000000011007600000001139000000000110000000000012933300013000000000000000390000000000042930010000000000000009999123100000010000000000000BRTSLABDR008100
012020042702TSMC34      010TAIWANSMFAC DRN          R$  000000003040000000000304800000000030390000000003041200000000304800000000000000000000000000000004000000000000000300000000000009123800000000000000009999123100000010000000000000BRTSMCBDR002102
012020042702TUPY3       010TUPY        ON      NM   R$  000000000148000000000015600000000001420000000000151600000000015150000000001515000000000151606118000000000001343800000000002038291900000000000000009999123100000010000000000000BRTUPYACNOR1175
